:100000000C9466080C948E080C948E080C948E0840
:100010000C948E080C948E080C948E080C948E0808
:100020000C948E080C948E080C9413190C9482195D
:100030000C948E080C948E080C948E080C948E08E8
:100040000C948E080C948E080C948E080C948E08D8
:100050000C948E080C948E080C948E080C94B41B8F
:100060000C948E080C948E080C948E080C948E08B8
:100070000C948E080C948E080C948E080C948E08A8
:100080000C948E080C948E080C948E080C948E0898
:100090000C948E080C948E080C948E080C948E0888
:1000A0000C948E080C948E080C948E084E414E4988
:1000B0004E495459494E46CDCCCC3D0AD7233C1726
:1000C000B7D13877CC2B329595E6241FB14F0A0073
:1000D0000020410000C84200401C4620BCBE4CCA63
:1000E0001B0E5AAEC59D7400407A10F35A00A072E0
:1000F0004E18090010A5D4E80000E8764817000063
:10010000E40B54020000CA9A3B000000E1F5050030
:100110000080969800000040420F000000A0860179
:10012000000000102700000000E803000000006449
:1001300000000000000A00000000000100000000B4
:10014000002C76D888DC674F0823DFC1DFAE59E189
:10015000B1B796E5E3E453C63AE651997696E8E6F8
:10016000C28426EB898C9B62ED407C6FFCEFBC9CCB
:100170009F40F2BAA56FA5F490055A2AF75C936BDD
:100180006CF9676DC11BFCE0E40D47FEF520E6B598
:1001900000D0ED902E0300943577050080841E0872
:1001A0000000204E0A000000C80C333333330F9890
:1001B0006E12831141EF8D2114893BE65516CFFE57
:1001C000E6DB18D1844B381BF77C1D901DA4BBE4E3
:1001D00024203284725E228100C9F124ECA1E53D25
:1001E00027000000000000000000F80402020202E4
:1001F0000202020202E2121212121212E2020202BF
:1002000002020202020204F80000000000000000E6
:1002100000000000000000000000000000000000DE
:1002200000000000000000000000000000000000CE
:1002300000000000000000000000000000000000BE
:1002400000000000000000000000000000000000AE
:10025000000000000000000000000000000000009E
:1002600000000000000000000000FF0000E010108F
:100270001010101008078040202040800708101040
:1002800010101010E00000FF00000000000000004F
:10029000000000000000000000000000000000005E
:1002A000000000000000000000000000000000004E
:1002B000000000000000000000000000000000003E
:1002C000000000000000000000000000000000002E
:1002D000000000000000000000000000000000001E
:1002E00000000000000000000000FF0000070808F8
:1002F0000808080810E0010204040201E0100808E0
:1003000008080808070000FF0000000000000000C7
:1003100000000000000000000000000000000000DD
:1003200000000000000000000000000000000000CD
:1003300000000000000000000000000000000000BD
:1003400000000000000000000000000000000000AD
:10035000000000000000000000000000000000009D
:10036000000000000000000000001F20404040404E
:10037000404040404047484848484848474040403F
:10038000404040404040201F0000000000000000AE
:10039000000000000000000000000000000000005D
:1003A000000000000000000000000000000000004D
:1003B000000000000000000000000000000000003D
:1003C000000000000000000000000000000000002D
:1005E00000000000000000000000F804F20A0A0AFF
:1005F0000A0A0A0A0A0A0A0A0A0A0A0A0A0A0A0A5B
:100600000A0A0A0A0AF204F80000000000000000CA
:100610000000800000000000063C804040202024B4
:10062000202040404884000060603010000000003E
:1006300000000000000000000000000000804020DA
:10064000100808080484C4C28282C2C48404080852
:1006500008102040800000000000000000000000A2
:1006600000000000000000000000FF00F805054544
:1006700045F5F545450505F90101F90505454545EA
:100680004545450505F800FF00000000000000009A
:10069000000000010002007C8201000000E81C084C
:1006A00088780E00000041C23C00002000000000DD
:1006B00000000000000000000000C038070000003B
:1006C00000003C62C1C1FFFF8181FFFF0103060FF3
:1006D00000000000000738C000000000000000001B
:1006E00000000000000000000000FF00E3141454AC
:1006F000D49515D4541414E30000E31414141454C2
:100700005414141414E300FF000000000000000063
:1007100000000000000000000001020202E3108857
:100720004F2C24940402010002060400000000FE85
:1007300000000000000000000000031CE0000000BA
:100740000000E0C08000FFFF0303FFFF06068C7877
:100750000000000000E01C0300000000000000009A
:10076000000000000000000000003F404F505054C7
:10077000565153565450504F40404F505051515580
:1007800055515150504F403F000000000000000004
:1007900000000C102040404040404040404955542B
:1007A0005249454240404040404040404020100FA8
:1007B0000000000000000000000000000001020432
:1007C00008101110212327474343472723211010E6
:1007D00010080402010000000000000000000000FA
:1007E00000000000000000000000000060904828A9
:1007F0001008080804040402061E02040404080881
:100800000810284890600000000000000000000070
:100810000000F804F21A2A4A0A0A0A0A0A0A0A0A0C
:100820000A0A0A0A0A0A0A0A0A0A4A2A1AF204F8E8
:1008300000000000000000000000FC0202020202B2
:100840000202020202020202020202020202020288
:1008500002020202020202FC00000000000000008E
:1008600000000000000000000000C0B88780000009
:100870000000000000000080C0E0F0F8783C0E07A7
:10088000030000000007B8C00000000000000000E6
:100890000000FF000110F8F80000F8F888888800D0
:1008A000C000F0F808F8F000F0F808F8F00100FFD8
:1008B00000000000000000000000FF010101010134
:1008C000010101013129E50505050505FD010101CC
:1008D00001010101010101FF000000000000000012
:1008E00000000000000000000000031DE000000008
:1008F00000000000000000030303010000000000EE
:100900000000000001E11D030000000000000000E5
:100910000000FF0000407F7F40003878407F3F00AC
:100920000C003F7F407F3F003F7F407F3F0000FF44
:1009300000000000000000000000FF0000000000B8
:10094000000000000000FF0000000000FF000000A9
:1009500000000000000000FF000000000000000098
:100960000000000000000000000000000001020480
:100970000810101020202040786040202020101007
:100980001008040201000000000000000000000048
:1009900000001F204E58545250505050505050504C
:1009A000505050505050505050505254584E201F9C
:1009B000000000000000000000007F404040404078
:1009C0004040404058545750505050505754584051
:1009D000404040404040407F0000000000000000D8
:1009E0000000000000003E5B4F5B3E3E6B4F6B3EE5
:1009F0001C3E7C3E1C183C7E3C181C577D571C1C22
:100A00005E7F5E1C00183C1800FFE7C3E7FF00187C
:100A1000241800FFE7DBE7FF30483A060E26297965
:100A20002926407F050507407F05253F5A3CE73CC6
:100A30005A7F3E1C1C08081C1C3E7F14227F221477
:100A40005F5F005F5F06097F017F006689956A60CE
:100A50006060606094A2FFA29408047E04081020E5
:100A60007E201008082A1C08081C2A08081E1010DE
:100A700010100C1E0C1E0C30383E3830060E3E0E88
:100A800006000000000000005F00000007000700F3
:100A9000147F147F14242A7F2A12231308646236D9
:100AA000495620500008070300001C224100004165
:100AB000221C002A1C7F1C2A08083E08080080709F
:100AC00030000808080808000060600020100804D2
:100AD000023E5149453E00427F4000724949494625
:100AE0002141494D331814127F1027454545393CA3
:100AF0004A49493141211109073649494936464990
:100B000049291E00001400000040340000000814B1
:100B1000224114141414140041221408020159092A
:100B2000063E415D594E7C1211127C7F494949367F
:100B30003E414141227F4141413E7F494949417FF8
:100B4000090909013E414151737F0808087F0041AE
:100B50007F41002040413F017F081422417F4040F7
:100B600040407F021C027F7F0408107F3E414141CC
:100B70003E7F090909063E4151215E7F0919294638
:100B8000264949493203017F01033F4040403F1F4E
:100B90002040201F3F4038403F6314081463030483
:100BA0007804036159494D43007F414141020408E3
:100BB0001020004141417F040201020440404040B6
:100BC00040000307080020545478407F28444438EC
:100BD0003844444428384444287F38545454180036
:100BE000087E090218A4A49C787F080404780044B5
:100BF0007D40002040403D007F1028440000417FA0
:100C000040007C047804787C080404783844444428
:100C100038FC1824241818242418FC7C0804040820
:100C2000485454542404043F44243C4040207C1C39
:100C30002040201C3C4030403C44281028444C902C
:100C400090907C4464544C44000836410000007786
:100C50000000004136080002010204023C2623265F
:100C60003C1EA1A161123A4040207A385454555993
:100C700021555579412154547841215554784020CB
:100C8000545579400C1E52721239555555593954E4
:100C900054545939555454580000457C410002457C
:100CA0007D420001457C40F0292429F0F0282528C8
:100CB000F07C545545002054547C547C0A097F49EB
:100CC00032494949323248484832324A4848303A33
:100CD0004141217A3A42402078009DA0A07D3944CC
:100CE0004444393D4040403D3C24FF2424487E4953
:100CF00043662B2FFC2F2BFF0929F620C0887E0985
:100D00000320545479410000447D413048484A3220
:100D1000384040227A007A0A0A727D0D19317D2608
:100D200029292F28262929292630484D40203808EE
:100D300008080808080808382F10C8ACBA2F10286F
:100D400034FA00007B000008142A142222142A140A
:100D5000089500220095AA005500AAAA55AA55AAEE
:100D6000000000FF00101010FF00141414FF00100A
:100D700010FF00FF1010F010F0141414FC001414F5
:100D8000F700FF0000FF00FF1414F404FC14141714
:100D9000101F10101F101F1414141F00101010F03B
:100DA000000000001F101010101F10101010F01085
:100DB000000000FF101010101010101010FF100095
:100DC0000000FF140000FF00FF00001F10170000CC
:100DD000FC04F414141710171414F404F40000FFA6
:100DE00000F714141414141414F700F7141414173F
:100DF0001410101F101F141414F4141010F010F01D
:100E000000001F101F0000001F14000000FC140051
:100E100000F010F01010FF10FF141414FF14101045
:100E2000101F00000000F010FFFFFFFFFFF0F0F0C8
:100E3000F0F0FFFFFF0000000000FFFF0F0F0F0F9B
:100E40000F38444438447C2A2A3E147E02020606A7
:100E5000027E027E0263554941633844443C0440AB
:100E60007E201E2006027E020299A5E7A5991C2A73
:100E7000492A1C4C7201724C304A4D4D3030487832
:100E80004830BC625A463D3E494949007E01010155
:100E90007E2A2A2A2A2A44445F444440514A444034
:100EA00040444A51400000FF0103E080FF00000879
:100EB000086B6B083612362436060F090F06000041
:100EC00018180000001010003040FF0101001F0141
:100ED000011E00191D1712003C3C3C3C00000000A4
:100EE00000080B00020202000009040000010202D7
:100EF000000005240010010524010101042402065C
:100F000005240600010705810310004009040100C3
:100F1000020A0000000705020240000007058302E4
:100F20004000000403090412010002EF02014041E5
:100F300023368000010102030141726475696E6FFE
:100F4000204C4C430041726475626F7900F0F89C4C
:100F50008E8783878E9CF8F00000FEFF0303030357
:100F600003070EFCF80000FEFF0303030303070E54
:100F7000FCF80000FFFF00000000000000FFFF0081
:100F800000FEFF8383838383C7EE7C380000F8FC78
:100F90000E07030303070EFCF800003F7FE0C0804C
:100FA00080C0E07F3FFFFF01010101010101FFFF60
:100FB0000000FFFF0C0C0C0C1C3E77E3C100007F0F
:100FC000FFC0C0C0C0C0E0703F1F00001F3F70E006
:100FD000C0C0C0E0703F1F00007FFFC1C1C1C1C1E0
:100FE000E3773E1C00001F3F70E0C0C0C0E0703FD0
:100FF0001F000000000001FFFF01000000D5F08D80
:1010000014A1C881CFD9F1AF200000061E7E7E1E3C
:1010100006000060787E7E7860000000000000001E
:1010200000002A2B28000000000000000000000043
:10103000000000000000000000002C9EB4A0A1A24F
:10104000A434A6A7A5AE362D3738271E1F2021228F
:1010500023242526B333B62EB7B89F848586878888
:10106000898A8B8C8D8E8F90919293949596979878
:10107000999A9B9C9D2F3130A3AD35040506070836
:10108000090A0B0C0D0E0F10111213141516171858
:10109000191A1B1C1DAFB1B0B50005010906A1014D
:1010A0008502050719E029E7150025017501950856
:1010B0008102950175088103950675081500257351
:1010C0000507190029738100C000311C11241FBEBF
:1010D000CFEFDAE0DEBFCDBF12E0A0E0B1E0EEE29C
:1010E000F7E602C005900D92AC37B107D9F727E0BB
:1010F000ACE7B2E001C01D92AA37B207E1F718E0F1
:10110000C6E6D8E004C02197FE010E947231C536C0
:10111000D107C9F70E94DC1C0C9495330C94000095
:10112000E4EAF2E0A0E0B8E000800EBC8111012CFE
:101130001197A0FDFDCF0192B9F70DB4089580E09D
:10114000E4EAF2E081118FEF00248193819381938F
:1011500081930394D1F708950F931F93482F209103
:101160006C0730916D0790917307923009F447C076
:1011700050F59923D9F18AE0913009F441C080916A
:101180006C0790916D0797FF4DC020E030E0A901FA
:1011900060916E0770916F07809170079091710751
:1011A0000E943D2C10926D0710926C07882341F02D
:1011B00010926E0710926F071092700710927107CD
:1011C0001F910F910895943051F1F8F09530B9F6D0
:1011D00000E11EE04003B001419F700D11244AE080
:1011E000469FC001479F900D112416C0280F311D46
:1011F00087FD3A9530936D0720936C07C0CF8CE341
:101200004802200D311D1124F5CF68E572E0460338
:10121000C001479F900D1124280F391FEBCF60E1CB
:101220007EE0F5CF813890475CF280E890E79093BC
:101230006D0780936C07BCCF480F592F511D1416B2
:10124000150684F5803891056CF597FF02C090E093
:1012500080E04138510514F040E850E0481BFB01A4
:10126000E770FF2721E001C0220FEA95EAF777FF38
:1012700002C0695F7F4FFB0133E0F595E7953A9532
:10128000E1F7F695FE2FEE27F795E795E80FF91FA2
:10129000EC55FD4F415030F08191DF011197822BC9
:1012A0008C93F8CF0895CF93DF93FC0181819091C7
:1012B000F806482F490F5527551F483051059CF512
:1012C000A281B381109709F524EF36E0338322839E
:1012D00020812093F6068093F7068091F906820F0D
:1012E00080832091FA06A22FB091FB068A2F821BE1
:1012F0008917E8F481813D91C82FD0E0C25FDE4FAD
:1013000038838F5F8183F2CFD90118962D913C915C
:10131000199721153105C1F724EF36E019963C9352
:101320002E931897D5CF80E0DF91CF91089581E07B
:10133000FBCF4F925F926F927F928F929F92AF926C
:10134000BF92CF92DF92EF92FF920F931F93CF93B2
:10135000DF93FB01E00FF11D1E161F060CF08AC083
:10136000603471050CF086C0DB0177FF04C0AA274A
:10137000BB27A61BB70BA770BB27EB0177FD2796F2
:10138000E3E0D595C795EA95E1F777FF07C0219788
:1013900068E070E0FB01EA1BFB0BDF0130E0069523
:1013A00006950695802E912C8A01AE015695542FF4
:1013B000442757954795480F591F4C555D4FBE011F
:1013C000E0E8F0E07F01E81AF90A88E090E03C01EB
:1013D0006A1A7B0A6F3FFFEF7F070CF43BC090E077
:1013E00080E05A01E0E8AE0EB11C6F3F760709F4C9
:1013F00052C0FC01E00FF11FE4916A01C80ED91E32
:10140000F0E02F010A2E01C0440C0A94EAF7F6011D
:101410005080452840821097B1F06730710599F0EF
:10142000F801E80FF91FE4916501C80ED91EF0E03C
:101430002F01062C02C0559447940A94E2F7F60156
:101440005080452840820196821793071CF4E816C5
:10145000F90659F66F5F7F4F020F131F40585F4F19
:10146000CB018C1B9D0B8815990524F46830710500
:1014700009F0B0CFDF91CF911F910F91FF90EF90C6
:10148000DF90CF90BF90AF909F908F907F906F90A4
:101490005F904F900895109709F0C2CFD4CFFC0110
:1014A0008091A302882311F13FB7F89482E08093E2
:1014B000E9002091F200822F90E01816190614F42A
:1014C00081E090E0882339F0289844E64093A20216
:1014D0004091F1004083222339F02091F200211144
:1014E00003C02BE62093E8003FBF08958FEF9FEFE6
:1014F0000895089540918F025091900220918D029D
:1015000030918E0242175307B4F49091E800957021
:10151000E1F39091E80092FD19C08093F100809171
:101520008F029091900201968F739927892B19F45D
:101530008EEF8093E80080918F0290919002019647
:101540009093900280938F0281E0089580E0089547
:10155000DF92EF92FF920F931F93CF93DF93D82EDA
:101560008A01EB017B01E40EF51ECE15DF0559F073
:10157000D7FE12C0FE0184910E947A0A2196811141
:10158000F4CF0FEF1FEFC801DF91CF911F910F91A3
:10159000FF90EF90DF9008958881EECF2FB7F894F9
:1015A00087708093E9009091E800892F807295FF01
:1015B00004C09091F20080E4891B2FBF0895615010
:1015C00030F02091F100FC0120830196F8CF28989B
:1015D00084E68093A2020895AF92BF92CF92DF92E9
:1015E000EF92FF920F931F93CF93DF936C017B01D8
:1015F0008B01040F151FEB015E01AE18BF08C01769
:10160000D10759F06991D601ED91FC910190F081DB
:10161000E02DC6010995892B79F7C501DF91CF919E
:101620001F910F91FF90EF90DF90CF90BF90AF9000
:1016300008958091850281110DC082E0809381021E
:1016400084E080938202109284021092830281E0EF
:101650008093850281E892E008950F931F93CF93C2
:10166000DF931F92CDB7DEB782E0898342E450E07A
:1016700061EE7EE080E80E94A80A0E94190BDC015E
:1016800012960D911C910115110589F0D801ED916B
:10169000FC910280F381E02DBE016F5F7F4FC80196
:1016A000099597FD04C0F80100851185ECCF89816B
:1016B0000F90DF91CF911F910F910895CF93DF93FA
:1016C0001F92CDB7DEB76983DC01ED91FC910280FA
:1016D000F381E02D41E050E0BE016F5F7F4F09953F
:1016E0000F90DF91CF91089583E08093E90080917E
:1016F000F200882319F08AE38093E800089583E0DC
:101700000E94CE0A90E00895CF93DF931F92CDB749
:10171000DEB7FC018485958597FD08C02FEF3FEF6C
:10172000358724870F90DF91CF910895CE010196E0
:101730000E944F0A019719F4898190E0F3CF8FEF4F
:101740009FEFF0CF0F931F93CF93DF931F92CDB7EF
:10175000DEB78C01FC018485958597FF0BC0CE0117
:1017600001960E944F0A019771F4898190E0F80177
:1017700095878487F801848595850F90DF91CF91B7
:101780001F910F9108958FEF9FEFF1CFFC0184859A
:10179000958597FD0BC09FB7F89482E08093E90090
:1017A0008091F2009FBF90E0019608959FB7F89452
:1017B00082E08093E9008091F2009FBF90E008955D
:1017C0003FB7F89480917D0290917E02A0917F02B4
:1017D000B091800226B5A89B05C02F3F19F0019655
:1017E000A11DB11D3FBFBA2FA92F982F8827BC017B
:1017F000CD01620F711D811D911D42E0660F771FA3
:10180000881F991F4A95D1F708958F929F92AF92A2
:10181000BF92CF92DF92EF92FF926B017C010E9408
:10182000E00B4B015C01C114D104E104F104B9F0F7
:101830000E94E00B681979098A099B09683E734088
:101840008105910580F321E0C21AD108E108F10871
:1018500088EE880E83E0981EA11CB11CE4CFFF9097
:10186000EF90DF90CF90BF90AF909F908F900895B2
:101870007F928F929F92AF92BF92CF92DF92EF9220
:10188000FF920F931F93CF93DF93C82E8B017A01A2
:101890008091A302811110C08FEF9FEFDF91CF9154
:1018A0001F910F91FF90EF90DF90CF90BF90AF907E
:1018B0009F908F907F9008958091930280FF05C044
:1018C0008091E00082608093E000CE2DDF2DD12C4E
:1018D0008AEFB82E8C2D8770982E8C2D8072882ED2
:1018E0008C2D8074782E9AE3A92E209719F4DD2090
:1018F00009F452C08C2D0E94CE0A81110AC0BA94FC
:10190000BB2051F261E070E080E090E00E94050CA5
:10191000ECCF8C171D0611F00CF08C2F9FB7F894AC
:101920009092E9002091E80025FD02C09FBFDDCF25
:10193000282F30E0C21BD30B882029F08150A0F063
:101940001092F100FBCFF801C7FC0AC0815050F0A3
:1019500041914093F100FACF44914093F1003196C8
:101960008150D0F7020F131FDD2021F0A092E80074
:10197000D12CDCCF8091E80085FD07C0A092E80063
:10198000DD24D394209791F2F3CF209779F6772036
:1019900069F2A092E800CACF5D9884E68093920233
:1019A000C7017CCFEF92FF921F93CF93DF931F92DB
:1019B000CDB7DEB77C018091050781112AC011E007
:1019C0001093F8061093F9068EEF96E09093FB06BD
:1019D0008093FA061092FD061092FC0683E991E0CE
:1019E0009093F5068093F406109200071092FF067C
:1019F0001092020710920107109303071093040737
:101A000081EC8093FE060E94190B0E9453091093EB
:101A1000050782E0898341E050E0BE016F5F7F4FA0
:101A20008091F7060E94380C97FD08C08091F70658
:101A300048E050E0B70180640E94380C0F90DF91BD
:101A4000CF911F91FF90EF900895CF93DF93EC011A
:101A500080910B01882331F083E00E94380C181626
:101A6000190634F081E090E09B838A8380E090E067
:101A7000DF91CF910895DC01FB0112962C91129712
:101A8000848195812817190641F491818081813ADA
:101A900031F49D7F81E0913009F080E0089581323A
:101AA000E1F79B3029F482811F968C9381E00895A1
:101AB0009A3099F7828150968C93F8CFDC01FB0124
:101AC00088E4808389E4818384E482831D969C91E9
:101AD0001D979F709F5B93831D968D919C9124E031
:101AE000969587952A95E1F78F708F5B848385E0C3
:101AF0000895EF92FF920F931F93CF93DF93FB0113
:101B00002081213871F52381223259F5DC011296AA
:101B10004C91248135814217130619F5EC010B8590
:101B20001C85F12CE12C0115110589F0F801448187
:101B300055816281738180E80E94A80A8F3F9807CF
:101B400049F0E80EF91ED8010D911C91ECCF81E00F
:101B50008F87C701DF91CF911F910F91FF90EF9079
:101B6000089590E080E0F6CFCF93DF93CDB7DEB756
:101B700069970FB6F894DEBF0FBECDBFFC01DB0145
:101B80008C918F5F8C939E012D5F3F4F8DE0D9012B
:101B90001D928A95E9F729E0298384E08A8391E000
:101BA0009D8383E08E832A8721E22B879C879D87F4
:101BB0009F8722E2288B27E02B8B25E02C8B8E8BB6
:101BC00020E430E0388F2F8B998F82818B8395852D
:101BD0008685998B8A8B838180688D8B49E150E063
:101BE000BE016F5F7F4F80E00E94A80A69960FB622
:101BF000F894DEBF0FBECDBFDF91CF910895CF9295
:101C0000DF92EF92FF920F931F93CF93DF936C01BC
:101C1000EB017B01E40EF51E10E000E0CE15DF05C0
:101C200081F069916D30D1F3D601ED91FC91019075
:101C3000F081E02DC6010995892B19F00F5F1F4F28
:101C4000EDCFC801DF91CF911F910F91FF90EF90E1
:101C5000DF90CF900895DC016838A0F06858FD014E
:101C600086E0662321F09681961301C0168281508A
:101C700031968111F6CFCD0104960E94D20C81E0FD
:101C800090E00895862F90E067FF13C0FC01E058B4
:101C9000F10981E090E001C0880FEA95EAF78095AC
:101CA00014969C911497892314968C93149760E052
:101CB000D6CF1C96ED91FC911D97E80FF91F64910A
:101CC0006623E1F0862F807C803C69F414968C9129
:101CD00014978F7B14968C9314976F73623309F06B
:101CE000BECF64E6BCCF67FFF9CF14968C911497F2
:101CF0008D7F14968C9314976F77F0CF90E080E0EF
:101D00000895DC01683888F1685816968C9116970A
:101D1000861721F117968C9117978617F9F0189668
:101D20008C9118978617D1F019968C911997861770
:101D3000A9F01A968C911A97861781F01B968C91B0
:101D40001B97861759F0FD01369690E080E02191AF
:101D500021114FC08A0F9B1FFC016683CD010496A1
:101D60000E94D20C81E090E00895862F90E067FFFA
:101D700012C0FC01E058F10921E030E001C0220F5F
:101D8000EA95EAF714968C911497822B14968C930B
:101D9000149760E0BACF1C96ED91FC911D97E80F67
:101DA000F91F6491611109C081E090E013969C9342
:101DB0008E93129790E080E00895862F807C803C7F
:101DC00069F414968C911497806414968C931497EC
:101DD0006F73623309F099CF64E697CF67FFF9CF4D
:101DE00014968C911497826014968C9314976F7745
:101DF000F0CF01968630910509F0A9CFD5CFEF92AB
:101E0000FF921F93CF93DF93EC01162F0E94810E58
:101E10007C01612FCE010E942B0EC7019927DF9113
:101E2000CF911F91FF90EF9008952D9A0895BC01D6
:101E300090E080E00C94050C8FB18095807F669BCC
:101E400088601C9B84600895CF93C82F0E941C0F4C
:101E5000982F9C2381E09C1380E0CF91089580E02F
:101E60000C94900880389105B8F460347105A0F4A2
:101E700020E191E061FD94E060FD990F62FD929593
:101E8000687F269FD0011124A80FAC55BD4F8C91BF
:101E900040FF03C0892B8C93089590958923FBCF35
:101EA0002F923F924F925F926F927F928F929F926A
:101EB000AF92BF92CF92DF92EF92FF920F931F9358
:101EC000CF93DF937C016B0188248394912CD0E025
:101ED000C0E003E010E09AEF692E77247A942EEFA9
:101EE000A22EBB24BA94842F8470582E842F827023
:101EF000482E842F8870382E4170242E219682E03F
:101F0000880E911CA80CB91C552091F041E0B80135
:101F10006C0D7D1DC7018C0F9D1F0E94320F41E08B
:101F2000B6016C0F7D1FC8018E0D9F1D0E94320FE0
:101F3000442091F041E0B601601B710BC7018C0F8A
:101F40009D1F0E94320F41E0B6016C1B7D0BC80142
:101F50008E0D9F1D0E94320F332091F041E0B6019B
:101F60006C0F7D1FC701801B910B0E94320F41E057
:101F7000B8016C0D7D1DC7018C1B9D0B0E94320F9B
:101F8000222091F041E0B6016C1B7D0BC701801B44
:101F9000910B0E94320F41E0B601601B710BC7012B
:101FA0008C1B9D0B0E94320FC017D1076CF48FEF72
:101FB000A816B80609F4A2CF0150110982E0680EF4
:101FC000711CA60CB71C9ACFDF91CF911F910F9176
:101FD000FF90EF90DF90CF90BF90AF909F908F9049
:101FE0007F906F905F904F903F902F9008952F9229
:101FF0003F924F925F926F927F928F929F92AF9299
:10200000BF92CF92DF92EF92FF920F931F93CF93E5
:10201000DF9300D000D000D0CDB7DEB76B837C83D8
:10202000298325E0429FA0011124FA01EF51F64FC8
:102030002F01F12C3C0110E0312C153029F0C201A8
:102040000196F20134902C01FB81FD832C812E83BB
:1020500088E0282E30FE1DC039813A8301C00A83F2
:10206000D12CC12CEC14FD04B9F04601860C971C50
:10207000B12CA12CAE14BF04C1F16D817E816A0D1B
:102080007B1D4A81C4010E94320F9FEFA91AB90A31
:10209000F1CF89810813E3CF36942A942D813E81B4
:1020A0002E0D3F1D3E832D832110D4CF1F5F6E0C5C
:1020B0007F1C163009F0C0CF26960FB6F894DEBF0D
:1020C0000FBECDBFDF91CF911F910F91FF90EF9089
:1020D000DF90CF90BF90AF909F908F907F906F9048
:1020E0005F904F903F902F900895EFEFCE1ADE0A49
:1020F000B9CFEF920F93CF93DF93462F6D3081F0DE
:102100006091A0027091A1024A3089F410929F025E
:1021100010929E02685F7F4F7093A1026093A002AD
:1021200081E090E0DF91CF910F91EF900895C09101
:102130009E02D0919F02EE24E39400919D02209193
:102140000D01CE010E94F70F2696D0939F02C093F7
:102150009E02E6CFDF92EF92FF920F931F93CF93F1
:10216000DF937C01D22E8B01040F111DEB0177FF51
:1021700002C0D0E0C0E0C8010134110514F080E4D1
:1021800090E0C817D9073CF44D2DBE01C7010E944D
:10219000320F2196F0CFDF91CF911F910F91FF90D9
:1021A000EF90DF900895EF92FF920F931F93CF93DC
:1021B000DF937C018B01C42FD22F6034710510F4A2
:1021C0000E941C09B8016D0F711D615071096034C6
:1021D000710520F44C2FC7010E941C0921E04D2FEE
:1021E000B801C7010E94AA10C7018C0F911D21E000
:1021F0004D2FB8010197DF91CF911F910F91FF9063
:10220000EF900C94AA102F923F924F925F926F9290
:102210007F928F929F92AF92BF92CF92DF92EF9276
:10222000FF920F931F93CF93DF9300D01F92CDB7F0
:10223000DEB74C013B01842F90E09B838A8381E0D1
:1022400090E05C01EA81FB81AE1ABF0A1F01319464
:1022500021943108220C331CD12CC12C44244394EA
:10226000512CF22FF170F983FF24F394F00E122F0A
:102270001270B7FC0AC08A819B8101979B838A8375
:1022800092E0290E311CA20CB31CEFEFCE1ADE0A2D
:10229000F2E04F0E511CA40CB51C49814423D1F02F
:1022A0004A81440F4F0D2E2DB3018A819B81681BFB
:1022B000790BC4018C0D9D1D0E94AA102E2D402F5C
:1022C000440DB3016C197D098A819B81880D991D8C
:1022D0000E94AA101123D9F04A81440F4F0D2E2DD0
:1022E000B301EA81FB816E1B7F0BC4018C199D0930
:1022F0000E94AA102E2D402F440DB3016C197D09A8
:10230000C401EA81FB818E1B9F0B0E94AA104A81A7
:102310005B81C416D5060CF4ACCF0F900F900F90D4
:10232000DF91CF911F910F91FF90EF90DF90CF90B1
:10233000BF90AF909F908F907F906F905F904F90E5
:102340003F902F9008951F93CF93DF93EC01892B3B
:1023500009F018828091290781FD22C080E40E9443
:10236000240F8823E9F08091290782608093290750
:1023700010E48091290780FF28C08091290780FF01
:102380002FC00E941C0F85FD2BC0809129078E7FD6
:1023900080932907209721F18881805E888320C05F
:1023A0008091290781FD02C010E0E3CF0E941C0F3D
:1023B00086FDFACF809129078D7F8093290720978A
:1023C00099F38881805C8883EFCF80E20E94240F9C
:1023D000882399F280912907816080932907105EF4
:1023E0008091290782FF13C08091290782FF1AC0BC
:1023F0000E941C0F87FD16C0809129078B7F809358
:102400002907209779F08881805888830BC080E85D
:102410000E94240F882341F38091290784608093D0
:10242000290710588091290783FF13C0809129073D
:1024300083FF1AC00E941C0F84FD16C080912907DB
:10244000877F80932907209779F08881805F888330
:102450000BC080E10E94240F882341F3809129075B
:10246000886080932907105F8091290784FF13C03B
:102470008091290784FF1AC00E941C0F83FD16C09B
:10248000809129078F7E80932907209779F0888192
:10249000885F88830BC088E00E94240F882341F363
:1024A00080912907806180932907185F809129070F
:1024B00085FF13C08091290785FF1AC00E941C0F59
:1024C00082FD16C0809129078F7D80932907209770
:1024D00079F088818C5F88830BC084E00E94240F90
:1024E000882341F3809129078062809329071C5F2C
:1024F000812FDF91CF911F91089590E080E00895A2
:102500000C94A32F0C949B2FFB0101900020E9F762
:102510003197AF01461B570BDC01ED91FC91028016
:10252000F381E02D09948F929F92AF92BF92EF9228
:10253000FF920F931F93CF93DF93CDB7DEB7A19791
:102540000FB6F894DEBF0FBECDBF7C01FA01CB0100
:1025500019A2223008F42AE08E010F5D1F4F822E4F
:10256000912CB12CA12CBF01A50194010E941A301D
:10257000F901CA016A300CF5605DD8016E938D01D6
:10258000232B242B252B79F790E080E0109721F066
:10259000BD01C7010E948412A1960FB6F894DEBF58
:1025A0000FBECDBFDF91CF911F910F91FF90EF90A4
:1025B000BF90AF909F908F900895695CDECF462FBB
:1025C00050E070E060E02AE00C9493122AE040E0D2
:1025D00050E0BA010C9493120C948412FC012481F3
:1025E0003581232B39F421E0FB018081882349F0D8
:1025F00020E007C0808191810E94773321E0892B00
:10260000B9F7822F08958F929F92AF92BF92CF9287
:10261000DF92EF92FF920F931F936B017C014901B0
:102620005A0162ED71E0C8010E94EE12882389F020
:10263000A5019401C701B6010E944C301F910F9172
:10264000FF90EF90DF90CF90BF90AF909F908F90D2
:10265000089563EB71E0C8010E94EE12882339F0FF
:10266000A5019401C701B6010E944B30E7CF65EB8D
:1026700071E0C8010E94EE12882339F0A50194018F
:10268000C701B6010E94A32CD9CF67EB71E0C80146
:102690000E94EE12882339F0A5019401C701B6010A
:1026A0000E94B830CBCF60E070E0CB01C7CF0F9372
:1026B0001F93CF93DF938C01EB01FC01808191810B
:1026C0000097E1F06881798161157105A9F0428177
:1026D00053812C813D814217530770F00E94803353
:1026E0008C819D81F801958384831D821C82DF91FA
:1026F000CF911F910F9108950E942832888199816E
:10270000F801918380838A819B81938382838C816A
:102710009D8195838483198218821B821A82E5CF5A
:10272000CF93DF93EC0188819981009711F00E948B
:102730002832198218821D821C821B821A82DF9124
:10274000CF910895FC0180819181009711F00C9444
:10275000283208950F931F93CF93DF93EC01888164
:102760009981009759F02A813B812617370730F06D
:1027700081E0DF91CF911F910F9108958B016F5FE1
:102780007F4F0E94B132009759F0998388831B8351
:102790000A832C813D81232B59F7FC011082E8CF5D
:1027A00080E0E7CFEF92FF920F931F93CF93DF93D9
:1027B0006115710541F480E0DF91CF911F910F9178
:1027C000FF90EF90089541155105B1F07B01EC01A8
:1027D0000C811D81040F151FB8010E94AA138823C4
:1027E00051F3288139818C819D81B701820F931F1C
:1027F0000E9480331D830C8381E0DECFCF93DF9373
:1028000000D0CDB7DEB769831A8241E050E0BE0147
:102810006F5F7F4F0E94D2130F900F90DF91CF9187
:102820000895EF92FF920F931F93CF93DF93EC01E4
:102830007B018A01BA010E94AA1381110BC0CE014B
:102840000E949013CE01DF91CF911F910F91FF90C5
:10285000EF9008951D830C83B701888199810E94B0
:102860008033F0CFFB0101900020E9F73197AF01F1
:10287000461B570B0C941114CF93DF93EC01FB0113
:102880008617970749F0608171816115710541F0E4
:10289000448155810E941114CE01DF91CF9108959A
:1028A0000E949013F9CFFF920F931F93CF93DF9362
:1028B0008C01F62E81E0F80183A7E80168966CECA4
:1028C00071E0CE010E94EE12882329F06FE472E0DD
:1028D000CE010E9432146F2DCE010E94FE13BE0164
:1028E000C801DF91CF911F910F91FF900C943C1480
:1028F000CB0169E30C945314CB0168E30C9453149B
:10290000CB0167E30C945314CB0166E30C9453148E
:10291000CB0165E30C945314CB0164E30C94531482
:10292000CB0163E30C945314CB0162E30C94531476
:10293000CB0161E30C9453140F931F93CF93DF9358
:10294000EB0181E08BA78B01085E1F4F6CEC71E0FF
:10295000C8010E94EE12811107C042E050E069EB0D
:1029600071E0C8010E94D213B801CE01DF91CF916E
:102970001F910F910C943C14EF92FF921F93CF93F1
:10298000DF93EB0111E01BA78AA581110DC07B012C
:1029900088E1E80EF11C6EE2C7010E94FE13B70148
:1029A000CE010E943C141AA7DF91CF911F91FF9096
:1029B000EF9008950F931F93CF93DF93EB0181E086
:1029C0008BA78B01085E1F4F6CEC71E0C8010E9461
:1029D000EE12811104C060E3C8010E94FE13B80129
:1029E000CE01DF91CF911F910F910C943C140F9366
:1029F0001F93CF93DF93EC016FE472E042960E9445
:102A000032146FE472E0CE010C960E9432146FE42F
:102A100072E0CE0106960E9432141EA21FA218A6D2
:102A200019A61AA21BA21CA21DA21E8E1F8E18A2DE
:102A300019A28E01085E1F4F6CEC71E0C8010E9464
:102A400032141AA61BA6B801CE01DF91CF911F91B7
:102A50000F910C943C14CB010C94F714FC011182DF
:102A600010821382128215821482FB0101900020D1
:102A7000E9F73197AF01461B570B0C941114EF92F5
:102A8000FF920F931F93CF93DF93CDB7DEB7A79736
:102A90000FB6F894DEBF0FBECDBF7A011BA21AA2FB
:102AA0001DA21CA21FA21EA28E010F5F1F4F22E0BB
:102AB00044E00E940A2A0097E1F0BC01CE01829610
:102AC0000E943214BE016E5D7F4FC7010E945713F2
:102AD000CE0182960E94A213A7960FB6F894DEBF8D
:102AE0000FBECDBFDF91CF911F910F91FF90EF905F
:102AF0000895CE0182960E949013E4CF70E060E0CA
:102B0000FC01808191810C94CC2ACF92DF92EF92CC
:102B1000FF920F931F93CF93DF9300D000D000D08C
:102B2000CDB7DEB76B0181E0FB0183A77B01F8E144
:102B3000EF0EF11C6CEC71E0C7010E94EE128111E6
:102B40001CC067EB71E0CE0101960E942E15C701F3
:102B50000E947E158E010F5F1F4F20E030E048EC91
:102B600052E40E940313A7010E943F15C8010E946E
:102B7000A213B701C6010E943C1426960FB6F89422
:102B8000DEBF0FBECDBFDF91CF911F910F91FF90A0
:102B9000EF90DF90CF900895CF92DF92EF92FF9267
:102BA0000F931F93CF93DF93EB016B0186E0C80E69
:102BB000D11C6FE472E0C6010E94EE127E0198E122
:102BC000E90EF11C8E010E5E1F4F811154C01AA632
:102BD0001BA6C7010E947E156EA37FA388A799A795
:102BE000B601C8010E943C14C7010E947E159B01DA
:102BF000AC016E8D7F8D88A199A186010E9403137F
:102C00006E8F7F8F88A399A36FE472E0C6010E9444
:102C100032146E018CE0C80ED11C6FE472E0C60164
:102C20000E94EE12811114C02E8D3F8D48A159A132
:102C30006AA17BA18CA19DA186010E9403136E8FC6
:102C40007F8F88A399A36FE472E0C6010E943214BB
:102C50006E8D7F8D88A199A1A7010E943F15B701B4
:102C6000CE01DF91CF911F910F91FF90EF90DF90F8
:102C7000CF900C943C146FE472E0C8010E94EE12F5
:102C80008111E6CF2EA13FA148A559A56E8D7F8D5C
:102C900088A199A10E9403136E8F7F8F88A399A3A7
:102CA000D7CFAF92BF92CF92DF92EF92FF920F9366
:102CB0001F93CF93DF93EC016B017C0186E0E80E5C
:102CC000F11C6FE472E0C7010E94EE128823F9F054
:102CD0001AA65E0188E1A80EB11CC5010E947E15EE
:102CE0006E8F7F8F88A399A36CEC71E0C5010E9461
:102CF0003214B601C701DF91CF911F910F91FF9060
:102D0000EF90DF90CF90BF90AF900C943C1462EDA9
:102D100071E0C7010E94EE12811107C063EB71E000
:102D2000C7010E94EE12882319F18BA5882309F3AD
:102D30001BA61AA68E8D9F8DA8A1B9A18AA39BA3BD
:102D4000ACA3BDA35E0188E1A80EB11CC5010E9421
:102D50007E156E8F7F8F88A399A36CEC71E0C501FF
:102D60000E943214B701CE010C960E943C14C1CFD0
:102D700065EB71E0C7010E94EE12811107C067EB9D
:102D800071E0C7010E94EE12882339F18BA58823D8
:102D900009F4AFCF1BA61AA65E0188E1A80EB11CEC
:102DA000C5010E947E159B01AC016E8D7F8D88A1AF
:102DB00099A187010E9403136E8F7F8F88A399A327
:102DC0006CEC71E0C5010E9432146E8D7F8D88A17C
:102DD00099A1AE010E943F158CCFDF91CF911F9139
:102DE0000F91FF90EF90DF90CF90BF90AF9008953C
:102DF0000F931F93CF93DF9300D000D000D0CDB7B7
:102E0000DEB78B0167EB71E0CE0101960E942E15B3
:102E1000BE016F5F7F4FC8010E945116CE0101961F
:102E20000E94A21326960FB6F894DEBF0FBECDBF48
:102E3000DF91CF911F910F9108950F931F93CF931F
:102E4000DF9300D000D000D0CDB7DEB78B0165EBAB
:102E500071E0CE0101960E942E15BE016F5F7F4F7B
:102E6000C8010E945116CE0101960E94A213269617
:102E70000FB6F894DEBF0FBECDBFDF91CF911F918B
:102E80000F910895AF92BF92CF92DF92EF92FF928F
:102E90000F931F93CF93DF93EC016B017C0186E0CE
:102EA000E80EF11C6FE472E0C7010E94EE12882365
:102EB000F9F01AA65E0188E1A80EB11CC5010E94B6
:102EC0007E156E8F7F8F88A399A36CEC71E0C5018E
:102ED0000E943214B601C701DF91CF911F910F916B
:102EE000FF90EF90DF90CF90BF90AF900C943C1488
:102EF00062ED71E0C7010E94EE12811107C063EB21
:102F000071E0C7010E94EE12882331F18BA588235E
:102F100009F31BA61AA65E0188E1A80EB11CC50123
:102F20000E947E159B01AC016E8D7F8D88A199A1B9
:102F300087010E9403136E8F7F8F88A399A36CEC87
:102F400071E0C5010E9432146E8D7F8D88A199A118
:102F5000AE010E943F15BECF65EB71E0C7010E9434
:102F6000EE12811107C067EB71E0C7010E94EE12FB
:102F70008823E1F18BA5882309F4ACCF1BA61AA600
:102F80005E0188E1A80EB11CC5010E947E159B015F
:102F9000AC016E8D7F8D88A199A187010E940313DA
:102FA0006E8F7F8F88A399A36CEC71E0C5010E949E
:102FB00032145E018CE0A80EB11C6FE472E0C50112
:102FC0000E94EE128111C0CF2E8D3F8D48A159A1D4
:102FD0006AA17BA18CA19DA185010E9403136E8F24
:102FE0007F8F88A399A36FE472E0ABCFDF91CF917D
:102FF0001F910F91FF90EF90DF90CF90BF90AF9017
:1030000008950F931F93CF93DF9300D000D000D08B
:10301000CDB7DEB78B0163EB71E0CE0101960E9464
:103020002E15BE016F5F7F4FC8010E944217CE016F
:1030300001960E94A21326960FB6F894DEBF0FBE2B
:10304000CDBFDF91CF911F910F9108950F931F93E3
:10305000CF93DF9300D000D000D0CDB7DEB78B0187
:1030600062ED71E0CE0101960E942E15BE016F5FE8
:103070007F4FC8010E944217CE0101960E94A21301
:1030800026960FB6F894DEBF0FBECDBFDF91CF916D
:103090001F910F9108958F929F92AF92BF92CF92FE
:1030A000DF92EF92FF920F931F93CF93DF9300D0A5
:1030B00000D000D0CDB7DEB78B016B0188E1C80E20
:1030C000D11C6CEC71E0C6010E94EE12811175C03A
:1030D000D8015C968D919C91892B09F484C063EB97
:1030E00071E0CE0101960E942E154D815E81F8019E
:1030F000848D958D8417950778F0808D918D00973C
:1031000059F069817A816115710531F00E94873328
:10311000FF24F394892B09F0F12CCE0101960E9433
:10312000A213FF2009F45FC0D8015C968D909C909B
:10313000AA24A394B12C8114910429F4B12CA12CBC
:1031400088248394912C6FE472E0CE0101960E9452
:103150002E15F801E48CF58CAE14BF0400F58E1426
:103160009F0408F47401D8015896ED91FC91599789
:10317000EE0DFF1D9080108258966D917C916A0D26
:103180007B1DCE0101966115710551F10E9432142B
:10319000F801808D918DE80EF91ED7019C92BE0139
:1031A0006F5F7F4FC6010E945713CE0101960E94A8
:1031B000A213B601C8010E943C1426960FB6F894DB
:1031C000DEBF0FBECDBFDF91CF911F910F91FF905A
:1031D000EF90DF90CF90BF90AF909F908F90089529
:1031E0000E949013D5CF63EB71E0CE0101960E944F
:1031F0002E15F801448D558D608D718DCE0101968F
:103200000E94D213811104C0CE0101960E94901336
:10321000BE016F5F7F4FC6010E943C14CE01019634
:103220000E94A213C6CF1F920F920FB60F921124C5
:103230008F939F938091E1009091E100937F909311
:10324000E10083FF0FC01092E90091E09093EB0042
:103250001092EC0092E39093ED001092A30298E09C
:103260009093F00082FF22C093E09093E900909148
:10327000F200992319F09AE39093E800909192025A
:10328000992341F090919202915090939202911162
:1032900001C05D9A9091A202992341F09091A202FF
:1032A00091509093A202911101C0289A84FF18C0F6
:1032B0008091E2008E7E81608093E2008091E10047
:1032C0008F7E8093E100809193028E7E8061809357
:1032D00093029F918F910F900FBE0F901F901895A2
:1032E00080FFF7CF8091E2008E7E80618093E200C4
:1032F0008091E1008E7E8093E100809193028E7E2A
:103300008160E5CF1F920F920FB60F921124CF92DA
:10331000DF92EF92FF920F931F932F933F934F9360
:103320005F936F937F938F939F93AF93BF93EF932D
:10333000FF93CF93DF93CDB7DEB76C97DEBFCDBFE2
:103340001092E9008091E80083FF25C068E0CE017B
:1033500045960E94DF0A82EF8093E8008D8987FFFF
:1033600039C09091E80090FFFCCF982F907609F03B
:1033700034C19E894F89588D2F89F88C911131C0A5
:10338000803861F5809194028093F1001092F100F1
:103390008EEF8093E8006C960FB6F894DEBF0FBEF8
:1033A000CDBFDF91CF91FF91EF91BF91AF919F91F1
:1033B0008F917F916F915F914F913F912F911F91CD
:1033C0000F91FF90EF90DF90CF900F900FBE0F9076
:1033D0001F9018959EEF9093E800C7CF1092F100D0
:1033E000D5CF913059F48111D3CF4130510581F6B9
:1033F000809194028D7F80939402CACF933049F4D8
:103400008111C6CF4130510519F680919402826036
:10341000F2CF953041F48091E80080FFFCCF206826
:103420002093E300B5CF963009F0A9C00B8D1C8D19
:1034300022E01092E9001092900210928F02F21294
:103440002EC010928E0210928D020E942D0B1F82B0
:1034500099E09983FA8291E09E8390EA98879AEFA7
:10346000998720918F0230919002275F3F4F3C83D4
:103470002B838D831092E9001092900210928F029C
:1034800010938E0200938D0249E050E0BE016F5F01
:103490007F4F80E00E94A80A0E942D0B79CF1093E5
:1034A0008E0200938D020E94190BDC0112960D9181
:1034B0001C910115110509F451C1D801ED91FC9140
:1034C0000480F581E02DBE016B5E7F4FC801099538
:1034D000009709F03EC1F80100851185EACFF3E0BD
:1034E000FF120EC08F89882309F440C0823061F436
:1034F00040E867E085E49FE00E94FE1B811148CF11
:1035000081E28093EB0047CF813029F440E86BE003
:1035100089E39FE0F1CF833099F70E94190BDC011A
:103520001296ED90FC908E010F5F1F4F6801E11421
:10353000F10479F0D701ED91FC910680F781E02D3F
:10354000B801C7010995080F111DF701E084F18446
:10355000EECFD8011C92F60101900020E9F73197D7
:10356000BF016C197D0940E0C601C6CF63E27FE070
:10357000FB01449150E080E80E94A80A09CF9730EF
:1035800009F4BECF983021F481E08093F10000CFA0
:10359000993009F0FDCE837009F0B2CFEFE0F1E091
:1035A00081E031E096E32191222371F08093E900DC
:1035B0003093EB00DF0111972C912093EC00909356
:1035C000ED008F5F873079F78EE78093EA001092E5
:1035D000EA008F898093A302DBCE8B8D9C8D1092A5
:1035E000E9001092900210928F0290938E028093C5
:1035F0008D02898D811192C08E899D89913A49F4FD
:10360000813209F07DCF47E050E064E071E080E076
:10361000B3CF913209F074CF833269F48F89988DDA
:10362000B0E0A0E08093000190930101A09302011B
:10363000B0930301ADCE803269F48091E80082FF3F
:10364000FCCF67E084E091E00E94DF0A8BEF80937B
:10365000E8009ECE823209F09BCE8F8980930B01C9
:10366000EEEFFFE7859194918B3F9C4D51F1E0E0A7
:10367000F8E08091040190910501A0910601B091BC
:103680000701803B9440A105B105F1F480910B0145
:1036900080FD1AC0EE3F8AE0F80789F587E797E7D3
:1036A00091838083809160008093910288E19BE008
:1036B0000FB6F894A895809360000FBE90936000B9
:1036C00067CEEEEFFAE0D5CF8081918187379747BB
:1036D00009F05ECEA89580916000886180936000BB
:1036E0008091910280936000EE3F2AE0F20789F01A
:1036F0008091FE0A9091FF0A9183808349CE808158
:1037000091818737980751F29093FF0A8093FE0AC0
:10371000C5CF1092FF0A1092FE0A3ACE0E94190BF2
:10372000DC0112960D911C910115110509F4E8CEEA
:10373000D801ED91FC910190F081E02DBE016B5E0E
:103740007F4FC8010995811123CEF80100851185AD
:10375000EBCF181619060CF41BCED2CEF1E0FF12F7
:10376000BECE67E27FE004CF1F920F920FB60F929A
:1037700011242F933F938F939F93AF93BF93809187
:10378000950290919602A0919702B0919802309183
:103790007C0223E0230F2D3758F50196A11DB11DA2
:1037A00020937C028093950290939602A0939702B7
:1037B000B093980280917D0290917E02A0917F0249
:1037C000B09180020196A11DB11D80937D0290935E
:1037D0007E02A0937F02B0938002BF91AF919F9130
:1037E0008F913F912F910F900FBE0F901F901895C2
:1037F00026E8230F0296A11DB11DD2CFEF92FF92B2
:103800000F931F93CF93DF93F82E192FE62E042FDB
:1038100081E0860F880F0E947A0A83E00E947A0A6C
:10382000CF2DD12FEC0EFD2EF11CCE15DF05B9F0FA
:1038300007FF13C0FE0184910E947A0A182F80E0CE
:103840000E947A0A812321968111EFCFDF91CF91D7
:103850001F910F91FF90EF9008958881EDCF81E047
:10386000F5CFCF931092A7061092A60688EE93E0AC
:10387000A0E0B0E08093A8069093A906A093AA06C2
:10388000B093AB0681E891E09093A5068093A406DF
:103890008FEF9FEF9093B1068093B00610921E07B2
:1038A00010921D078FE991E090931C0780931B07EE
:1038B00080911307811113C010920E0710920D070B
:1038C0008AE990E19093100780930F078FE290E0D0
:1038D000909312078093110781E0809313078091E2
:1038E000050781112AC0C1E0C093F806C093F9060C
:1038F0008EEF96E09093FB068093FA061092FD06F9
:103900001092FC0683E991E09093F5068093F4060B
:10391000109200071092FF06109202071092010702
:10392000C0930307C093040781EC8093FE060E94B6
:10393000190B0E945309C0930507E091FF06F0910F
:103940000007309781F58DE097E090930007809312
:10395000FF06809101079091020720911107309195
:103960001207820F931F90930207809301078AE149
:1039700090E190932807809327078FEF8093320779
:1039800010922D0710922C078BEA91E090932B0751
:1039900080932A0780912907817C8E7F8093290755
:1039A000CF910895FC01808191810097D9F78DE036
:1039B00097E091838083CDCFCF93DF93CDB7DEB7F0
:1039C000C454D1090FB6F894DEBF0FBECDBF7894B2
:1039D00084B5826084BD84B5816084BD85B5826014
:1039E00085BD85B5816085BD80916E0081608093C5
:1039F0006E0010928100809181008260809381002E
:103A0000809181008160809381008091800081603D
:103A100080938000809191008260809391008091DA
:103A200091008160809391008091900081608093EB
:103A300090008091C10084608093C1008091C1009A
:103A400082608093C1008091C10081608093C10039
:103A50008091C30081608093C3008091C000826028
:103A60008093C0008091C20081608093C2008091E9
:103A70007A00846080937A0080917A0082608093DB
:103A80007A0080917A00816080937A0080917A0038
:103A9000806880937A001092A30210929402109290
:103AA00093028091D70081608093D70080EA809351
:103AB000D80089B5806189BD89B5826089BD09B4A6
:103AC00000FEFDCF61E070E080E090E00E94050C18
:103AD0008091D8008F7C80618093D8008091E00035
:103AE000807F8093E0008091E1008E7E8093E100F2
:103AF0008DE08093E200559A209A8FEF9FEF90938C
:103B0000B1068093B00681EC80937C0085B1806F14
:103B100085B984B1877E84B984B1876E84B95E9A91
:103B20005F988AB1806D8AB9769A6E9881B3806FFA
:103B300081BB899880B38D7080BB80E58CBD81E0AE
:103B40008DBD85E090E00E94170F5F9A85E090E0C0
:103B50000E94170F5E985C98EDEFFFE08AE090E11D
:103B600024912EBD00000DB407FEFDCF31968E17B7
:103B70009F07B1F75C9A81E88093640080916500AB
:103B80008160809365000E942F0F80E80E94240FBF
:103B90008823A9F05C9885EA8EBD00000DB407FE6D
:103BA000FDCF5C9A2E982F982D98809164008062AA
:103BB0008093640081E083BF889513BEFCCF84E0CE
:103BC0000E94240F882309F448C02D9884E80E949D
:103BD000240F8823E1F00E94150F88EC90E00E94EA
:103BE000170F2F9882E090E00E949B2F8F3F29F0C3
:103BF0006FEF82E090E00E94A32F84EF91E00E949B
:103C0000170F2F9A84E80E94240F8111FBCF84E1C3
:103C10000E94240F8823E1F00E94150F88EC90E0A9
:103C20000E94170F2E9882E090E00E949B2F88231D
:103C300029F060E082E090E00E94A32F84EF91E001
:103C40000E94170F2E9A84E10E94240F8111FBCF4E
:103C500088EC90E00E94170FB2CF0E94150F82E00F
:103C600090E00E948212882309F4E8C03E9A3F9AAD
:103C700081E090E00E948212182F147081FF10C022
:103C800011112E9831EFE32EFF24FA9480E40E9464
:103C9000240F882309F4D5C02E9A2F9A0E94150F5D
:103CA00082E390E00E94170F0E941C0F8111F8CF51
:103CB000809164008E7F8093640080917A0080649C
:103CC00080937A0080917A0086FDFCCF0091780085
:103CD000109179000E94E00BAB01BC01C801B0E07B
:103CE000A0E0DC01992788278C019D01040F151F96
:103CF000261F371FC901B80120916400216020935D
:103D00006400611571058105910511F00E94C32AB7
:103D100081E280930C0108EF1FEFB2E2CB2ED12C91
:103D20008EE2E82EF12C0E949F08D0929F02C09252
:103D30009E021093A1020093A0026CEB71E08AE254
:103D400097E00E94EC12F0929F02E0929E02C8015E
:103D500008969093A1028093A00267EC71E08AE23A
:103D600097E00E94EC1264E170E080E090E00E9435
:103D7000050C0E942F0F0E5F1F4F0C31110599F695
:103D800068EE73E080E090E00E94050C8AE297E024
:103D900090932F0780932E0789E297E09093310745
:103DA00080933007109263071092640710926507A2
:103DB00010926607109267071092680710926907C1
:103DC00010926A0781E080936B0724E833E0309318
:103DD0006D0720936C0710926E0710926F07109278
:103DE00070071092710780937207109273072091E9
:103DF0001F0130912001409121015091220125960F
:103E00002CAF3DAF4EAF5FAF25978FB7F894409181
:103E100095025091960260919702709198028FBF1F
:103E200080919B02882309F469C010929B0280E074
:103E300090E0892B51F30E940000E7CF3E983F9815
:103E400017CF112331F004E0E016F10411F42E9A9B
:103E50002F9881E00E94900800E128E54DE45FE0A2
:103E6000B70184E190E00E9499090E942F0F8FE032
:103E700090E00E94170F2FEFE21AF20A39E1E316E1
:103E8000F10409F003CF112311F02F9A2D9880E946
:103E900091E00E94170F0E94150F81E090E00E94B0
:103EA000821280FFFDCE8AE090E00E9482129FEF96
:103EB000980F9E3F08F0F4CE22E330E030939F024B
:103EC00020939E0228E330E03093A1022093A002C9
:103ED0000BE010E0682F8AE297E00E947910C80199
:103EE0000E9482120F5F1F4F0131110599F70E9446
:103EF0002F0F88EE93E00E94170FD2CE80919C0284
:103F0000342F381B832F90910C01391748F48F5FA1
:103F1000891708F08CCF81E083BF889513BE87CFC7
:103F200081E080939B0240939C0280919902909142
:103F30009A02019690939A02809399020E949F0898
:103F40001092A1021092A00210929F0210929E0263
:103F5000E0913207E150E93010F00C940B280E2E5E
:103F6000000CFF0BEA54F04E0C947231BF1F10216D
:103F70002222762269236B244B266521652188E263
:103F8000E3E2F1E0DE01119601900D928A95E1F7EE
:103F900090E080E00E94A311803109F4BEC008F0D7
:103FA0008AC0843009F4F8C0883009F4C3C02DE019
:103FB00046E765E070E085E090E00E94D31088E07D
:103FC00090E090939F0280939E029093A102809331
:103FD000A00280912E0790912F07409137075091B2
:103FE00038076091330770913407DC01ED91FC9143
:103FF0000280F381E02D099584E1EBE4F1E0DE013C
:10400000119601900D928A95E1F7FE0131966F01AC
:10401000F4E1EF2EF12C5701FFEFAF1ABF0A460172
:104020000AE010E0D4016D914D0180912E0790912E
:104030002F0798016F3509F0D2C02F5F3F4F3093A3
:104040009F0220939E02B092A102A092A00260ED76
:1040500071E00E94EC1229E044E1B701C8010E941E
:10406000D3100A5E1F4F08371105E1F6BBE0EB0ED7
:10407000F11CE5E0CE0ED11CF0E4EF16F10459F688
:1040800080916107909162072BE0289FB001299FE2
:10409000700D11246D5E7F4F20915F073091600796
:1040A00046E1429FC001439F900D11242BE00996E9
:1040B0000E94D3100AC18034A1F08038F9F0803218
:1040C00009F075CF80915F0790916007019797FD88
:1040D00005C09093600780935F0769CF84E090E00C
:1040E000F8CF80915F079091600701968530910528
:1040F00084F31092600710925F0759CF8091610797
:1041000090916207019797FD05C090936207809395
:1041100061074DCF83E090E0F8CF809161079091E7
:10412000620701968430910584F310926207109221
:1041300061073DCF809161079091620725E0289F3C
:10414000F001299FF00D112480915F079091600785
:10415000E80FF91FEE0FFF1F41E050E04C0F5D1F0D
:10416000E40FF51F0190F081E02D63E377E08EE22C
:1041700097E009958091370790913807439708F4A5
:1041800016CF83E397E00E94F7146EEC71E083E3AF
:1041900097E00E9432140BCF6FE472E089E397E05E
:1041A0000E94EE128823B1F06FE472E08BE497E096
:1041B0000E94EE12811108C06CEC71E08BE497E074
:1041C0000E94EE12882331F080913207819580930E
:1041D0003207EDCE83E397E00E94F714E8CE633216
:1041E00069F42C5F3F4F30939F0220939E02B09260
:1041F000A102A092A00269EB71E02BCF295F3F4F93
:1042000030939F0220939E02B092A102A092A0023E
:10421000DC01ED91FC910190F081E02D09951BCF1F
:1042200080913307811114C0809136079091370730
:104230000196909337078093360720913407309189
:1042400035078217930724F010923707109236072C
:1042500090E080E00E94A311883009F49DC008F02E
:104260007AC0843009F4A3C080913307882309F40D
:10427000A4C010E000E021E040E470E060E0C8018C
:104280000E94AA100F5F1F4F00381105A1F710926E
:104290000D0181E080939D0287E090E090939F0262
:1042A00080939E028CE190E09093A1028093A00203
:1042B00064ED71E080912E0790912F070E94EC121F
:1042C00081E080930D0110929D0280916B07811116
:1042D0000C94A22925E535E545E550E46091670792
:1042E000709168078091690790916A070E944C302D
:1042F0004B015C01809163079091640720916507F1
:10430000309166076C01790120E030E048EC52E41E
:10431000C501B4010E94593187FF02C00C94922953
:1043200020E030E048EC52E4C501B4010E944B307B
:104330004B015C015FEFC51AD50AE50AF50A80E07A
:1043400090E020E030E060E4C6166EE7D606E104B7
:10435000F104D0F2D7CF8031A1F0803809F084CFBA
:10436000809134079091350705968D3201E09007D2
:104370002CF4909335078093340776CF8CE291E04C
:10438000F8CF8091340790913507059718161906D4
:1043900084F385E090E0EDCF8091330791E08927A9
:1043A0008093330710923707109236075DCF8091C4
:1043B000320781958093320757CF809134079091CF
:1043C000350797FD01969595879520913607309191
:1043D0003707821793079CF410E000E021E040E4E7
:1043E00070E060E0C8010E94AA100F5F1F4F003804
:1043F0001105A1F710920D0181E080939D0286E1E5
:1044000090E090939F0280939E0288E190E09093C9
:10441000A1028093A00268EE71E080912E07909136
:104420002F070E94EC1283E190E090939F0280930B
:104430009E0280E290E09093A1028093A00267EF39
:1044400071E038CF90E080E00E94A311843029F41D
:104450008091320781958093320700E110E010933C
:104460009F0200939E021093A1020093A00267E0B6
:1044700072E080912E0790912F070E94EC1210930A
:104480009F0200939E0288E190E09093A1028093A6
:10449000A00268E172E080912E0790912F070E94A0
:1044A000EC1210939F0200939E0280E290E09093A2
:1044B000A1028093A00269E272E080912E079091A0
:1044C0002F070E94EC1210939F0200939E0288E235
:1044D00090E09093A1028093A0026AE372E0809141
:1044E0002E0790912F070E94EC12EFCE90E080E013
:1044F0000E94A311843009F4B6C0883031F4809151
:104500006B0791E0892780936B07C0906307D09079
:104510006407E0906507F0906607C701B60120E1E7
:104520003EE040E050E00E941A30122F20E13EE0D1
:10453000129FC001139F900D1124092E000CAA0B8D
:10454000BB0BA7019601281B390B4A0B5B0BCA0159
:10455000B9012CE330E040E050E00E941A30022F15
:10456000B22E812F8295807FC81A3CE3039FC0182A
:1045700011248FE190E090939F0280939E028CE142
:1045800090E09093A1028093A0021A3030F48091C1
:104590002E0790912F070E94E612612F80912E071F
:1045A00090912F070E94DF126BE472E080912E073A
:1045B00090912F070E94EC1249E04B1530F080914A
:1045C0002E0790912F070E94E612602F80912E07F0
:1045D00090912F070E94DF126BE472E080912E070A
:1045E00090912F070E94EC1259E05C1530F08091F9
:1045F0002E0790912F070E94E6126C2D80912E07B6
:1046000090912F070E94DF126BE472E080912E07D9
:1046100090912F070E94EC1220E030E040E251E43C
:1046200060916707709168078091690790916A07A8
:104630000E943D2C87FF06C080912E0790912F0786
:104640000E94E61260916707709168078091690780
:1046500090916A070E942A3180912E0790912F072E
:104660000E94DF1232CE80916B07882361F1809126
:10467000630790916407A0916507B0916607892B45
:104680008A2B8B2B79F420E030E0A9016091670739
:10469000709168078091690790916A070E943D2C8C
:1046A000882389F0109263071092640710926507BF
:1046B00010926607109267071092680710926907B8
:1046C00010926A0722CF809132078195809332073A
:1046D0001CCF90E080E00E94A311803109F4E7C074
:1046E00008F0B8C0843009F4F0C0883009F4E6C09E
:1046F00020916C0730916D07C90160E17EE00E9456
:104700005E31062F40EF51EF649FC001659F900D11
:104710001124820F931F6CE370E00E945E31F62E2D
:10472000E62E122F60EF069F100D112474ECF79EF9
:10473000100D11248FE190E090939F0280939E02D0
:104740008CE190E09093A1028093A0020A3030F4B3
:1047500080912E0790912F070E94E612602F809182
:104760002E0790912F070E94DF126BE472E0809178
:104770002E0790912F070E94EC1289E08E1530F0E1
:1047800080912E0790912F070E94E6126F2D809145
:104790002E0790912F070E94DF126BE472E0809148
:1047A0002E0790912F070E94EC121A3030F480915E
:1047B0002E0790912F070E94E612612F80912E07FD
:1047C00090912F070E94DF126BE472E080912E0718
:1047D00090912F070E94EC1220E030E040E251E47B
:1047E00060916E0770916F078091700790917107CB
:1047F0000E943D2C87FF06C080912E0790912F07C5
:104800000E94E61260916E0770916F0780917007A9
:10481000909171070E942A3180912E0790912F0765
:104820000E94DF1280917207882309F44ECD3091E7
:1048300073072AEF2303C0011124885B9F4F36952D
:104840002303F001112429E047E06BE170E08E0FB3
:104850009F1F2ECC8034A9F0803801F1803209F0FE
:1048600047CF80917207882309F442CF8091730764
:104870008F5F863018F4809373073ACF10927307D6
:1048800037CF80917207882309F432CF8091730764
:10489000811102C085E0EFCF8150EDCF809172078A
:1048A000882309F425CF81E00E94AC0821CF8091B4
:1048B0007207882309F41CCF8FEFF6CF809172071F
:1048C00091E089278093720713CF809132078195F9
:1048D000809332070DCF90E080E00E94A311C0903A
:1048E0003307D0903407E0903507F09036078032D8
:1048F00009F462C090F5843009F4C5C0803109F430
:1049000096C000913707409033075090340760906D
:10491000350770903607802F90E0023009F09EC175
:10492000C301B20124E630E040E050E00E941A30BA
:10493000672B682B692B09F4CEC0C301B20120E9B3
:1049400031E040E050E00E941A3011E0672B682B04
:10495000692B09F4CCC010E0CAC0803409F44EC001
:10496000803879F6809137078F5F809337078D30D5
:1049700040F25FEFC51AD50AE50AF50AC09233077F
:10498000D0923407E0923507F092360768E9C616F0
:1049900068E0D606E104F10408F471C087E998E004
:1049A000A0E0B0E08093330790933407A0933507DD
:1049B000B09336078CE064C091E0C91AD108E108D1
:1049C000F108A2EBCA16A7E0DA06E104F10448F008
:1049D000C0923307D0923407E0923507F092360741
:1049E00090CF02EB17E020E030E000933307109304
:1049F0003407209335073093360783CF1FEFC11A52
:104A0000D10AE10AF10A28E9C21628E0D206E10437
:104A1000F104F0F247E958E060E070E040933307BA
:104A20005093340760933507709336076ACF8091AF
:104A30003707815080933707811163CF91E0C91AFE
:104A4000D108E108F108C0923307D0923407E09210
:104A50003507F0923607A2EBCA16A7E0DA06E104A2
:104A6000F10408F0A7CF02EB17E020E030E000935C
:104A7000330710933407209335073093360781E0CE
:104A8000809337073ECF6C2D88E592E00E9480121C
:104A900099278F2D7E2D6D2D89E592E00E94801241
:104AA000B701882799278AE592E00E9480126F2D2E
:104AB0007727882799278BE592E00E9480126091E2
:104AC00037078CE592E00E94801280913207819531
:104AD0008093320716CF11E0D301C201837099276A
:104AE000AA27BB27892B8A2B8B2B09F034CF145E86
:104AF000A3019201215031094109510929A73AA77F
:104B00004BA75CA7620147E1049FC001112469E043
:104B100070E00E945E31C3944B018C0C911C54E0F8
:104B2000850E911C092C000CAA08BB08C9A4DAA4A4
:104B3000EBA4FCA432E0F694E794D794C7943A959A
:104B4000D1F769A57AA58BA59CA520E931E040E0C5
:104B500050E00E941A30C20ED31EE41EF51E69A555
:104B60007AA58BA59CA524E630E040E050E00E94A9
:104B70001A30C21AD30AE40AF50AC501B4016C0D51
:104B80007D1D8E1D9F1D27E030E040E050E00E941B
:104B90001A30062F88E290E090939F0280939E0245
:104BA0001092A1021092A0022AE0B301A20180910A
:104BB0002E0790912F070E9493126DE472E080916E
:104BC0002E0790912F070E94EC1260913707809179
:104BD0002E0790912F070E94DF1284E090E09093BF
:104BE0009F0280939E0288E090E09093A1028093C0
:104BF000A00260E572E080912E0790912F070E943D
:104C0000EC12E12CFF24F39442E1D42E8E2D90E09F
:104C1000029623E0880F991F2A95E1F70D9D9001D8
:104C2000112469E06F15A0F1265F3F4F30939F027A
:104C300020939E029093A1028093A0026F2D8091F9
:104C40002E0790912F070E94DF120F5F073011F49B
:104C5000E39400E0F3941F15C8F637CB019767E0A3
:104C600070E00E945E3162E070E00E945E311FE100
:104C7000181B033008F43CCF7301620132E0C31A01
:104C8000D108E108F10849A65AA66BA67CA63BCF3D
:104C90002C5F3F4FCBCF1982CE0101960E94A3110A
:104CA0008EAF8CEF0E94240F8823B9F080913207D9
:104CB0008195809332070FE511E0BDE7EB2EB1E05F
:104CC000FB2ED8016C918BE197E00E942B0E0B5FBD
:104CD0001F4FE016F106A9F7F8CAEFE5F1E0FAA7D1
:104CE000E9A7A9A5BAA51196BC91BCAB8B2F0E94D0
:104CF000240F8111FCC01FA6E1E0EDAFA9A5BAA564
:104D000013968C90139714969C90E92DF0E0FEA7D3
:104D1000EDA7282C312CFCA9F83019F0F43009F05B
:104D2000FBC00DA51EA50150110919AB08AB21014F
:104D300011E0411A51082FA543E1CDA4DEA43AE0C9
:104D4000C31AD108B601C2010E94AA10EFA410E054
:104D500000E023E049E068A979A9C2010E9403119B
:104D600041E06DA57EA5685F7F4FC2010E94320FB2
:104D700041E0B601C2010E94320F41E068A979A961
:104D8000C10108960E94320F41E068A979A9C101CA
:104D90000A970E94320F510142E0A41AB108D12CA7
:104DA000C12C01E010E01EAB0DAB09E010E02EEECF
:104DB0003FEF3BAB2AABA8EFEA2EFF24FA94482D35
:104DC00050E05CAF4BAF692D70E07AAF69AF641B08
:104DD000750B21967FAF6EAF2197D6011196B8AFB4
:104DE000AFABEDA9FEA93296FEABEDABEE0EFF1E0A
:104DF0006BAC7CAC6C0C7D1C41E088A899A8800E43
:104E0000911EB401C3010E94320F41E0B401C501FB
:104E10000E94320F41E088A899A8801A910AB40133
:104E2000C3010E94320F41E0B401C5010E94320F5C
:104E300029AD3AADC20ED31E41E0B6013201600E7B
:104E4000711EC3010E94320F41E0B6016201C01A17
:104E5000D10AC6010E94320F41E021968EAC9FAC70
:104E600021978A0C9B1CB401C3010E94320F41E0C0
:104E7000B401C6010E94320F4FA958AD4017510727
:104E8000D4F16DA57EA564507109EE24E3940FA5BD
:104E90002DADE9A5FAA54281C10103970E94F70F44
:104EA0008EADFCA98F2309F4A9C0A9A5BAA56C9160
:104EB0008BE197E00E94810E09A51AA50B5F1F4F99
:104EC0001AA709A72DE731E02017310709F009CF0C
:104ED00081E090E090939F0280939E0288E390E0AF
:104EE0009093A1028093A00265E672E0F8CA1DAE1D
:104EF000F1E0FFA703CFF7FC09C0015011098AA90F
:104F00009BA902969BAB8AABE80EF91E91E0A91A09
:104F1000B108CFA8D8AC61CF6DA47EA459E0651AC2
:104F20007108210169E0461A5108510176E0A71A7B
:104F3000B1080DE010E0610187E0C80ED11CC60188
:104F4000801B910B0150110931F02FA542E1B301F3
:104F50000E94AA10F4CFCDA4DEA496E0C91AD1080D
:104F60004101A5E08A0E911CEFA40BE010E021E0C6
:104F700043E0B601C4010E940311EFA422E043E024
:104F8000B601C5010E940311B0E46B16710428F448
:104F90004CE0B301C5010E941C096DA57EA5685FA8
:104FA0007F4F6034710524F44CE0C5010E941C0958
:104FB00021E04CE0B601C2010E94AA1021E04CE0C1
:104FC000B601C10108960E94AA1041E0B601C501D0
:104FD0000E94500F42E0B601C4010E94500F44E00D
:104FE0000DA51EA50B5F1F4FB801C4010E94500FF5
:104FF00048E0B801C5010E94500F43CF8981BCA988
:105000008B2309F459CFE9A5FAA560818BE197E0DC
:105010000E942B0E51CF90E080E00E94A31190914E
:105020003207803209F465C008F058C0883009F4AE
:1050300078C0803109F46FC025962CAD3DAD4EADE2
:105040005FAD259729833A834B835C83E0903207D9
:10505000E1940E2C000CFF0831E0E31AF108C701BF
:1050600066E070E00E945E31162F660F771FE1E068
:10507000F0E0EC0FFD1FE60FF71F4081518100E4C7
:1050800020E870E060E090E080E00E949909111152
:105090003BC108E028E04AE050E168E370E088E7BF
:1050A00090E00E949909C70163E070E00E945E31C0
:1050B000282FCB0162E070E00E945E31BC017727AF
:1050C00085E0660F771F8A95E1F748E2249FC001CB
:1050D000112420E240E208960C945820803499F084
:1050E000803809F0A9CF9D5F9093320797FF07C0E2
:1050F000A3CF81E0890F8093320781119DCF89EF83
:105100008093320799CF915090933207983F09F0DE
:1051100093CF8FEFF5CF935090933207993FCCF315
:105120008BCF919590933207933009F470C098F427
:10513000913031F1923009F0C8C881E08093330793
:105140008CE390E0909335078093340710923707F3
:1051500010923607BAC8963009F46EC0973009F03D
:10516000B4C8E0913007F09131078081817C8E7F57
:1051700080838AE190E19093280780932707A5C850
:10518000E3E3F7E080E3DF011D928A95E9F76CEC39
:1051900071E0CF010E9432146FE472E08BE497E07B
:1051A0000E9432146BE477E085E497E00E943C149F
:1051B000BC018FE397E00E943C14BC0189E397E0B7
:1051C0000E943C141092590710925A0710925B07E4
:1051D00010925C07109255071092560710925707CD
:1051E00010925807109251071092520710925307CD
:1051F0001092540710925E0710925D07109262079A
:10520000109261071092600710925F075EC81092BB
:105210003707109238071092390710923A07109208
:105220003307109234071092350710923607109208
:105230003B0710923C0749C888E592E00E94821221
:10524000F82E89E592E00E948212182F8AE592E0FA
:105250000E948212082F8BE592E00E948212412F59
:1052600050E070E060E0762F652F542F442710E067
:1052700030E020E0980111270027040F151F261F9A
:10528000371FB901A8014F0D511D611D711D6A0124
:105290007B0190E0B0E0A0E0B82FAA2799278827EB
:1052A000C80ED91EEA1EFB1EC0923307D0923407E7
:1052B000E0923507F09236078CE592E00E94821268
:1052C0008093370751E0C51AD108E108F1086EEF65
:1052D000C6166FEFD606E606F60660F001EE17E09A
:1052E00020E030E000933307109334072093350714
:1052F0003093360781508E3F10F40C94652181E085
:10530000809337070C94652108E028E042E150E1E2
:1053100070E060E088E790E00E949909113009F49C
:10532000C2CEB7CE8092670790926807A0926907B5
:10533000B0926A07C0926307D0926407E092650753
:10534000F092660780917207811129C025E535E545
:1053500045E550E460916E0770916F07809170078A
:10536000909171070E944B306B017C0100916C079A
:1053700010916D0720E030E0A901C701B6010E943D
:105380003D2C1816C4F410936D0700936C07C0925F
:105390006E07D0926F07E0927007F092710740E0BD
:1053A00054E064EA72E084EA96E00E94250D0E94CF
:1053B0002F0F0C94171F101611066CF420E030E02C
:1053C00046EC52E4C701B6010E944C306B017C01EF
:1053D00001501109CFCF10936D0700936C07109205
:1053E0006E0710926F07109270071092710781E09C
:1053F0008093720782E0809332078CE390E0909371
:1054000035078093340710923707109236071092B1
:105410003307C5CFEF920F931F93CF93DF93E8012C
:1054200034E047FD34E1042E000C550B57FF03C058
:10543000519541955109E32E022F242FAE010E9470
:10544000102DCE01DF91CF911F910F91EF90089514
:105450008F929F92AF92BF92CF92DF92EF92FF9284
:10546000CF93DF93EC01688179818A819B816115FB
:1054700071058105910521F464E279ED8BE597E0F2
:105480002DE133EF41E050E00E94B12F49015A0174
:105490009B01AC01A7EAB1E40E94D02F6B017C0113
:1054A000ACEEB4EFA50194010E94DE2FC60ED71E0C
:1054B000E81EF91EF7FE06C081E0C81AD108E1080F
:1054C00080E8F80AC882D982EA82FB82C701B60165
:1054D0009F77DF91CF91FF90EF90DF90CF90BF90BB
:1054E000AF909F908F9008958F929F92AF92BF92AE
:1054F000CF92DF92EF92FF926091150170911601A9
:105500008091170190911801611571058105910530
:1055100021F464E279ED8BE597E02DE133EF41E092
:1055200050E00E94B12F49015A019B01AC01A7EA4A
:10553000B1E40E94D02F6B017C01ACEEB4EFA50169
:1055400094010E94DE2FC60ED71EE81EF91EF7FE3C
:1055500006C081E0C81AD108E10880E8F80AC092C4
:105560001501D0921601E0921701F0921801C701BF
:10557000B6019F77FF90EF90DF90CF90BF90AF90F4
:105580009F908F90089560931501709316018093FA
:105590001701909318010895B0E0A0E0E2EDFAE25F
:1055A0000C94E92F5C017B016115710519F0DB0199
:1055B0008D939C9385010F5F1F4FF501D0818D2F37
:1055C00090E00E941C2C6C01892BB9F5DD32B9F5F5
:1055D0000F5F1F4FD5011196DC91C1E05801F1E03A
:1055E000AF1AB10843E050E064EB70E0C5010E94DF
:1055F000252C892B69F5680182E0C80ED11C45E095
:1056000050E06FEA70E0C6010E94252C892B21F43E
:10561000680197E0C90ED11CE114F10419F0D7011B
:10562000CD92DC9260E070E080E89FEFC111FFC096
:1056300060E070E080E89FE7FAC05801BBCFDB3242
:1056400029F485010E5F1F4FF501D181C0E0C6CF5F
:1056500043E050E06CEA70E0C5010E94252C892BE4
:10566000E9F0F80110E000E020E030E0A9015F017E
:10567000B0ED8B2E8D0E89E08815C8F19C2E6894B4
:1056800091F88C2F8870C2FF16C0811102C00F5F85
:105690001F4F3196D501DC91C92DE9CFE114F104FA
:1056A00029F00E5F1F4FF7011183008360E070E067
:1056B00080EC9FE7BCC0882311F001501109A5E0E0
:1056C000B0E00E94D02F9B01AC01220F331F441F7A
:1056D000551F280D311D411D511D283999E93907E4
:1056E000490799E15907A8F2C6609C2ED2CFAEEFC8
:1056F0008A1206C0C3FD3CC09C2E689493F8C9CFA3
:10570000DF7DD534A9F580818D3239F4C061DF01A8
:105710001296818162E070E006C0DF018B32C1F336
:10572000119661E070E080535D01A61AB70A8A30D5
:10573000F8F4E0E8CE16ECE0DE065CF4B601660FA5
:10574000771F660F771FC60ED71ECC0CDD1CC80E48
:10575000D11C5D01FFEFAF1ABF0A8C9180538A30D4
:10576000A8F1C4FF03C0D194C194D1080C0D1D1D34
:10577000C1FF09C0E114F10431F081E0A81AB108B9
:10578000D701AD92BC92CA01B9010E94422CC370EC
:10579000C33009F490584B015C0120E030E0A901CE
:1057A0000E943D2C882309F440C0C3EED0E017FFCF
:1057B00005C0119501951109CBECD0E06E01B8E15F
:1057C000CB1AD10880E2E82EF12C0FC0D501B1CF61
:1057D000FE0125913591459154910E191F09C5017E
:1057E000B4010E94A32C4B015C01D501C4010E152C
:1057F0001F0574F72497F594E794CC16DD06A9F7F6
:105800008A2F880F8B2F881F8F3F49F020E030E0D0
:10581000A901C501B4010E943D2C811106C082E29C
:1058200090E09093750780937407C501B401CDB7DC
:10583000DEB7ECE00C94053091110C94472F8032C8
:1058400019F089508550C8F70895FB01DC014150DB
:10585000504088F08D9181341CF08B350CF4805EC3
:10586000659161341CF06B350CF4605E861B611130
:1058700071F3990B0895881BFCCF0E947F2C08F4CC
:1058800081E00895E89409C097FB3EF490958095D7
:10589000709561957F4F8F4F9F4F9923A9F0F92FF6
:1058A00096E9BB279395F695879577956795B79574
:1058B000F111F8CFFAF4BB0F11F460FF1BC06F5F5A
:1058C0007F4F8F4F9F4F16C0882311F096E911C06C
:1058D000772321F09EE8872F762F05C0662371F08D
:1058E00096E8862F70E060E02AF09A95660F771FA1
:1058F000881FDAF7880F9695879597F90895990F7D
:105900000008550FAA0BE0E8FEEF16161706E80789
:10591000F907C0F012161306E407F50798F0621BAA
:10592000730B840B950B39F40A2661F0232B242B7F
:10593000252B21F408950A2609F4A140A6958FEF9E
:10594000811D811D08950E94B62C0C94612F0E9428
:10595000532F38F00E945A2F20F0952311F00C9409
:105960004A2F0C94502F11240C94952F0E94722FC3
:1059700070F3959FC1F3950F50E0551F629FF001A2
:10598000729FBB27F00DB11D639FAA27F00DB11DBB
:10599000AA1F649F6627B00DA11D661F829F222744
:1059A000B00DA11D621F739FB00DA11D621F839FCB
:1059B000A00D611D221F749F3327A00D611D231FA1
:1059C000849F600D211D822F762F6A2F11249F57EF
:1059D00050409AF0F1F088234AF0EE0FFF1FBB1FF2
:1059E000661F771F881F91505040A9F79E3F5105B1
:1059F00080F00C944A2F0C94952F5F3FE4F3983E6F
:105A0000D4F3869577956795B795F795E7959F5F5A
:105A1000C1F7FE2B880F911D9695879597F90895EC
:105A2000A9E0B0E0E6E1FDE20C94E92F6A01F22E74
:105A3000B02E102FFBE3AF2EA01608F41BE31F5F60
:105A4000012F27E0AE014F5F5F4F0E946F2EBC0118
:105A50008981982F9970913009F43FC09BE2E1FC55
:105A600004C09E2D9170E0FC3AC05E2D5071E82F6D
:105A7000E87083FF46C084E0911101C083E0EF2D00
:105A8000E81B8F1508F0E0E0D6018E2F20E25523A9
:105A900051F1992329F0D6019C93C60101966C011E
:105AA00096012D5F3F4FE2FE24C08EE4D6018C9319
:105AB00091E411969C93119712968C93D9018E2F95
:105AC00090E281111BC0E20FF32FF11D10828EEFC7
:105AD0009FEF2996ECE00C9405309DE2C6CF90E252
:105AE000C4CF2D9381508111FCCFCE0ED11CE0E0AC
:105AF000D0CF8EE6D6018C9391E6DBCF9D9381507B
:105B0000E0CF482F447082FF3DC084E0911101C076
:105B100083E08F1510F4EF2DE81BD6018E2F20E2C5
:105B2000552309F1992329F0D6019C93C6010196CA
:105B30006C0196012D5F3F4FE2FE1BC089E4D60148
:105B40008C938EE411968C93119786E412968C9325
:105B5000D9018E2F90E2882309F4B5CF9D9381500F
:105B6000FACF2D9381508111FCCFCE0ED11CE0E0F5
:105B7000D9CF89E6D6018C938EE611968C93119736
:105B800086E6E4CF9B0177FF02C030E020E0A1E091
:105B9000B0E0911102C0B0E0A0E0F9013196AE0F83
:105BA000BF1F8B2C912CBB2009F461C05401EFEF77
:105BB000AE1ABE0AAA0DBB1DFA161B0619F014F088
:105BC0004F2D4A1B511188C0E3FC59C07601A42F08
:105BD000B0E2A1114FC0C40ED11C992309F45BC0DF
:105BE00040E0D6011196F60190836D01552309F42A
:105BF00048C0012F060F9A81582F507184FF03C0AF
:105C0000913309F4015010160CF047C0093008F028
:105C100008E0EEE2FE2E5B01A01AB1088501919426
:105C2000819491082F3F320729F4D601FC92F601A6
:105C300031966F016217730794F1021713077CF511
:105C4000DB01A21BB30BAA24A394B12CAC0EBD1E86
:105C5000AA0DBB1D11968C9121503109D6011196C8
:105C600028153905F4F0F60180836D01DBCFB12CE6
:105C7000A12CA0CFF701B1937F01A150AACF911120
:105C8000B0CFD601942F50E302C05D939150911193
:105C9000FCCFC40ED11C40E0ACCF01E0BACF80E312
:105CA000DBCF6217730731F4963388F4953311F420
:105CB000552369F0F6018083FD01842F90E2811164
:105CC00008C0A40FB11D1C9290E080E002CF81E3D8
:105CD000F1CF91938150F3CF911183CF8ACF2830A8
:105CE00008F027E03327DA01990F311D87FD916015
