:100000000C9493180C94BB180C94BB180C94BB184C
:100010000C94BB180C94BB180C94BB180C94BB1814
:100020000C94BB180C94BB180C94312C0C94A02C81
:100030000C94BB180C94BB180C94BB180C94BB18F4
:100040000C94BB180C941C2F0C94BB180C94BB186C
:100050000C94BB180C94BB180C94BB180C94D22EA7
:100060000C94BB180C94BB180C94BB180C94BB18C4
:100070000C94BB180C94BB180C94BB180C94BB18B4
:100080000C94BB180C94BB180C94BB180C94BB18A4
:100090000C94BB180C94BB180C94BB180C94BB1894
:1000A0000C94BB180C94BB180C94BB180008430CA0
:1000B0004673300008623398EA1B2A418A329D0356
:1000C00052A1B43B2E4BF13B6F8F43C9F9AD8ED893
:1000D0008A572AE87FA649DD7AD72D4FD368FA3DA3
:1000E000C9B9755F0CA1154AE10008430C4673308D
:1000F0000008623398EA2B442088313D0F68ACF445
:100100007A8B61AAF47D1FE7FC7B4B93A85CABF173
:10011000603FDE8F61FF7A3E5953E87F168E1F2BBA
:100120005B9EE908CE666008430C467330000862A7
:100130003398CD53DDC1090842022A8C249A9EA52A
:10014000B4340FA75AD0EA2F8EBFA9F5FF9E21F92C
:10015000FE4A9300F9F4520021F67F9914153817DE
:10016000538430C46733004B08430C467330C631A8
:100170008C5192E3A1042210A908A63C1842421017
:1001800080190831C3134341507D0DA805515D35D9
:100190000887A04F3AC084417C553D43A17C5E0650
:1001A0008F9837E1054BA0885F16C7B803E024702D
:1001B000320000F876868425296188CE63084D8850
:1001C00065119CC2608430C46733000708430C4645
:1001D0007330C6218A219147508E188CE63A9C6371
:1001E000294AD00000F8239984318765508C11008A
:1001F000C20922AAF81234C414C8AABD142668C4BD
:10020000210DB5383DA5E8FA97D5ED7C3180C44283
:1002100010206E600D62A3B24252946368EA1BE143
:10022000B7803E800F430C3119CCC01F084D0C46DF
:1002300073285A000218048A0684C018C70C467333
:10024000080C100F47E64600D421D7E7AF80011114
:1002500008422E28177260B76825554C127AF81A92
:1002600019C69A24F5F1507B4FC7500C6108C71985
:10027000E33648010C01B21F71F0633154A7F05FFF
:1002800099EF001084D0C46732801B08430C46737A
:1002900030C4230C6318D7190C24A8AC018AC08C75
:1002A000268A9EA0AE2A5CA0210C93F3C8341000CD
:1002B000A0001F0E021D409A668FC8E8FC4D97D023
:1002C0007602F665B094A52946305D2210842FE0B1
:1002D0001F06F1516045A8BA01C521B82F8D09A0AC
:1002E0006EC0408430C46733002808430C46733026
:1002F0008421082310C431086000815355753E8164
:100300008C68FA30E181FC9F486A65FD1500461053
:10031000814A00000DCF14F9AA7D4021284B379463
:10032000A5080016C404210840CE00861A00D60194
:1003300020882154CD09EB0168FB0F13A090C10860
:100340006188CE661408430C467330C638602210AC
:10035000842082705D40218AA798834C8B479874D3
:10036000407C40F86A18E7E1FE0295000008411C55
:10037000F0011441ECE8DB9F49538B20887A10840C
:10038000A5297B8286309202100010C024154B8173
:10039000254F7CD8150557A1E12608430C4673303C
:1003A0002108430C467330C6386233988D500142A1
:1003B000108401001108003D0123210841906314BD
:1003C000403A8813C8EA0A6B18A8C42A829BD1BD98
:1003D00088A2C8F9FE4AAEA7A86ABF944216D5FC07
:1003E000FCA427A1A97CC218A20F0251F856007FD5
:1003F00011001B2A0421862339981408430C4673E4
:1004000030C638623398EA010C510C8A3104221D3F
:10041000763294A500230A808410C1FFFC242108B1
:100420003055D7804329D4FA0800A00010C4618455
:100430000066D0032C27E20903F18650DA29A210C6
:1004400029A8880204BA3E82412C44FE3EA8CC2250
:1004500011218FC010C462AF83F88CE6601C084382
:100460000C4673308422086118C70C46419B027009
:100470000010C0060004206CE2121090C465A208AF
:1004800020D3741C3F47188628846004A810D3B674
:10049000E887A00C70C467318420ABEA638C8B00C2
:1004A000010C466006824A7EA430BEFF9430C467C9
:1004B00033000208430C467330C4318E1834773C45
:1004C0005413248A3A9EDFD1F7FF9DAD437E7FAD62
:1004D00084233E7D1084D1FE66FCFF2789F3D8FF7C
:1004E0003ECFF3FF2BF9C218623399802908430CE1
:1004F00046733000086003908810185505A7C10C9A
:1005000063086A2212F88C853406B88E6A29E6A13F
:10051000F23E1A8FB8A919EC102BF848305A1A2657
:10052000A3BC0E5907C2318E682000050340A8A65F
:10053000800E61022492F922D288308822883E12ED
:1005400008934D90521485FA33820C84B249C08EC0
:1005500068F83F88CE662208430C467331062100B6
:10056000000800310E48962A01CB21A7F410034859
:10057000088399E83C0EA0126A18C043F0780AACD0
:100580000150000425B1695F5510C5510040144168
:10059000510AA418C43F634039043F01B508CA5149
:1005A0008FE1A23C9084800000025446A96A9254D4
:1005B0007A355110057C0862AB82219168202208AF
:1005C000430C4673300001000D8CA609E2A008C25E
:1005D0004B8726084F390C8009824212A2E8E600B8
:1005E000844216860DC0001848118C631847F070BD
:1005F0001A12FB04791F086B8D0C822089F112AA54
:100600008C7E33D48120C2008F48902A5F4003271C
:10061000F1F3EB29910A3F800057000002188CB2D9
:10062000CD939C2D08430C467330800110848623A3
:1006300010001982C40188628864408401008631F8
:10064000C31191475152C2F4000D084426944192BF
:10065000A62084321084E62A7FB2A326875605217D
:10066000EE2E0F807A4104417C06A809F0B74CF8C1
:10067000341A872808008003980034301072C4713F
:10068000FC1070C6E1C44673300E08430C4673304C
:10069000C8320C8421C00043000661108E430493CD
:1006A00051E241CE5720E857C9382D0B8A05203238
:1006B00046041907F1F0F392B42B0AD8B8F49F421C
:1006C0008CE4076D04031DE388FE1B1E87DC2BF3FF
:1006D000A8541D03D3F2B4118C70C0C9E8AAD9374D
:1006E000D1B04673301508430C4673311A408C76EE
:1006F000E80813042D2342000171000010571A016D
:100700000928E677854F9BE8FA8FA3A3F12DA8F57A
:100710001F9F47F93D8CD7E018C798E91F0B6A6CFB
:10072000EB520E101B4334917E310C5144673477E9
:10073000D275200F08430C46733340063231000057
:1007400018C5A10926B18863A8C15055402124CA03
:10075000843758C7A052ADBD32CF8803EE060318C8
:10076000C696072C543DD5472D681F3FF6D086B45A
:10077000193B0C0696000421139CF8063182328E38
:1007800075368D7C4774DEA9BF8C4322D0400B08A0
:10079000430C4673301A008842108918840069A2FD
:1007A000800679A62B09EAA2CAC84112A7F03D2DFE
:1007B000149A17C3A00A7A08C638623398EA7B9F56
:1007C0004300010C463A22EA7A9430C68F4237D071
:1007D000886456E4357DD7F1F273300708430C4640
:1007E00073334000004C10851C4C200841388EB8F3
:1007F0008E8425D4231CB0030846D02686681F0E9D
:1008000080C8EFE20C30114793E14A52947194781A
:1008100010F40C00A328F0210000000E328F2A41B2
:100820005471DE8FBFE8FBFE8FBF84218623399889
:100830002D08430C46733000003629000632088428
:100840001540318E188C2A121084A872B902A1D2D8
:100850002A2CD3E0F62A5E63D06FC42A94C4A43451
:10086000310AA7F8A90F9EA5FA3E418C7A2D4AD0ED
:100870000000F88554842BCCB596FCF956A7F108F6
:10088000210C3119CCC01808430C4673318631C392
:100890001198C5386735480006801548AA00547677
:1008A00050C1A1AEA7B2BE107F048CB9800000A2D7
:1008B000229A8002001A125482A8B432553F3B5B40
:1008C000516A175D4F54D4FD45464F8E3397271C10
:1008D00024006324B6B5B6AE2BD5001008430C46F1
:1008E00073308428606390E71A980018C70C461A82
:1008F0003D3D53D5FA062FF514A5A9FF70840000DD
:10090000003192429AAA7ABF47ABC2118C210C7374
:10091000209638A01AD6C3118719521A9EA800BF74
:100920000BEA95C24208430C4673308822431141BA
:10093000053088410D3B445C36C68320CD559E83EF
:1009400042DD7F8689E05536568010847194AE1062
:100950000010C0245000D53D4C0D1EA7F987A3FC04
:10096000E010042F916221082206389401380421F6
:10097000862339981108430C4673300006846310AF
:10098000C6419A73A84150888318E7309348A6B5AA
:100990000D82A2FE0211933120E7CF81BF0631C83C
:1009A0004E750803F07A239CC378006310E31FE2BE
:1009B000A2FE03F0DA021CFC41D423D0BE06E304FD
:1009C000A93D90FB1F04FBFC7C151AFA008043191B
:1009D00024926841862339980608430C467330C632
:1009E00038623398EA7B9F42001B1434031B411486
:1009F0005493C455297C44BC62A94BE2FE23398E32
:100A0000A7B9FE207C3154A5F136A26D94DF909AEF
:100A10000C552803E3FE23398C2132EB7A9430C441
:100A20006733000808430C4673301A0002188F27FA
:100A30000A806318C6210A1896AA5A6EABD10422FE
:100A40001221D4AA7A9F46FBC6D085BF055D30FC33
:100A50009F818C63535F2017F853153E85F94A75C3
:100A60003EA1267C20680008623C6FC01862339962
:100A7000801908430C46733182418C241104210CE7
:100A80008100881A44600C50410470C79248C2B873
:100A90008A58CC025BC67D8207B00800BD47801D26
:100AA000B5BCF340054008C021DC7A8F9420D222E7
:100AB0001B87C808C84F8C3208B43A287CC5C410BC
:100AC00080400003CD4813C7904D82C008884DD2A6
:100AD000A09C45D67A24E67B9916821708430C46DB
:100AE00073300006C411E4E3506A23DFE890044445
:100AF00014303E4080022A236823A839BF25A12252
:100B0000C641C31150BE3D080318E18212A3000282
:100B10002A801600AA70134106602105B520C6AFD1
:100B2000245A3B5B88532427CA10C31190E61D0149
:100B3000BEC7E11E4E397EFE100108430C467330DD
:100B400086120463180678C24810678D62A204B446
:100B50001A0042CC4798542A00320D03A2D0FF9FBE
:100B6000845D46B51E685D4086288790154A50947E
:100B7000310943E47C0209040002188C7C1F848440
:100B80001104168444036A3DE3908CFD8FE7BD5742
:100B9000FE132E6E022A4F7FFE3908430C46733037
:100BA0001800006168C63088421049504D15000693
:100BB0002A9041C20D519061294A5D1EA300343034
:100BC000000068C21092E8C007A04E140109D0CC02
:100BD000610884210EA4B4042D044418331E83C07C
:100BE000A8AC858391A9F43EC482D1EA418884B43B
:100BF0003461545DC1063D83E888645A081808438F
:100C00000C467332C00000228C40118C842063811A
:100C1000C304AAA621548210B53AE340FE22A08262
:100C200067C20630E46111082D009F493D2186907E
:100C300020BE521341BE7A80C764AA6A6EA1A0DEAC
:100C400062AF0F7BF43E808803113409006307C252
:100C50004FA6A120EA009A3810BACFE62A95C2170B
:100C600008430C467330C638623318000110218ED9
:100C70000153D30208484A8A39CC0841541FC0475F
:100C80001DC9D8113DDDA42117C0420C4315802A8F
:100C90008C841531A1D524D03F808E3B93B9058338
:100CA0002C17C9DF7C64A8C82159C4AA0210795640
:100CB0000DA2410CC1086188CE661708430C46732B
:100CC000384266800C001A18C420CE8842430408BB
:100CD000014CD454FD35A0E6E000F5AE2B0CF459E0
:100CE000ECD38108FA0F603A2DBDF8FC77D771E09C
:100CF00054BBC585E493ABFE06D88253F8B70CB35A
:100D0000A1D0BE86F97FD0C0BA82B88CE6601F0839
:100D1000430C467332C2A00010C4647210810806EE
:100D2000420E400C804103C28C47487F221E235054
:100D3000902408C7645B138FC55828000431D80B72
:100D4000421DC3F0E85519350D13502683F04503B5
:100D500018F618C388D0337D6F19B62FAC664206DB
:100D60006FA32426D04842106209081273FF78400E
:100D70000E08430C467330C8320C8421C000430077
:100D80000661108E43049351AAF2CE5720E857C94A
:100D9000382D0B8A05203246041907F1F0F39274BE
:100DA0002B0AD8B8F49F428CE4076D04031DE38836
:100DB000FE1B1E87DC2BF3A8521D03D3F2B4118C4B
:100DC00070C0C9E8A6D937D1B04673301B08430CB0
:100DD0004673310848608200C0338000003381EBE5
:100DE000600802021062A800220C6425F158E31981
:100DF00026E7F80464F04641CD000431F872150F7F
:100E0000F1AACBA4BE04020C879478847C1CC44154
:100E1000B88C631FE1A18F4018079D347A02469079
:100E2000924805B24203A10F01EC1341FC2A15AB15
:100E300091BC3E06FD26D0761916822608430C4644
:100E40007338C6020C230848419084212992027805
:100E50003DF5915E1A04516084000000808452C503
:100E60004633E85F090299001E4035826F1545E15F
:100E700040584120B59500000009F0806411067AC1
:100E8000C7408ABA116E59C23F12006318F08A83B4
:100E9000409AB00BE008D126426181098242136179
:100EA00048C2AD406BF86F9916821E08430C46731A
:100EB000308428604218000860016042320C9108BA
:100EC000F9300C01094A6294B700484B2001A83957
:100ED000DD0AA02680AAA8631C303D1098010811E5
:100EE000673AC7C5598C6002F920682318841184B9
:100EF0007A58C7244C12067184080027B2000804EF
:100F00009A241A8BE0C27299C44CA9081200426854
:100F100025027A1A0FF1154AE12608430C4673336D
:100F20004000000158442143118042008E2920488E
:100F3000424311854263597740E21D0748D00000C3
:100F40004311823E09A5BA16B119CC23184838A01E
:100F500022108428EA80FC2D0B02DA06124A8658F9
:100F600020C8320425F62A0A6360294A5A20000064
:100F70003B9A8A69E43E2112A7A80842102320E385
:100F800004CD44E43A88CE662D08430C467330887D
:100F9000018C6320641108421042418361204200A9
:100FA000D318068290909A05405294A4BC03A200E4
:100FB000003800418B904CD0007C40EE03F08FF065
:100FC00016835080841590420E401907C8041A1EDB
:100FD000F1C8DF03D6BE11085E40C442461A0109BB
:100FE000890E61E400007156013B12742190341A9D
:100FF00084890917580CE6A8BB28F2741808430C1A
:1010000046733188118C03004812340000179C4E3F
:10101000208C87D503D8A433018E4120C551687E2A
:1010200085C16C02A3D07830907FD7A2927C1F95A7
:1010300045655D322D43F10D310483385434A56A82
:101040009A8A76E0FE0EDB65F8024092219142100A
:10105000C3119CCE1108430C46733000008491826A
:10106000E509A49501AB01D8180E31516C2406A1F5
:10107000CCE89C5625A4FC5D166DA35F378C9411BB
:10108000C984B080160403D07531EE3B17152DD6F8
:10109000170DB5E0691FA8389D13ABD23F26E7585E
:1010A000501A109084CB364E702208430C46733091
:1010B000C638A092404710925820C000022A9241A0
:1010C000700491C81A0E4760AC421B43D0088420BC
:1010D000F83405433C52150621A47C231908422C00
:1010E00084F43E8B2826294B0C0423C0341DA40015
:1010F00004303A886DF807536502BE2A3210841115
:10110000044127B1F8071E07E0087A8AA42DF8E306
:101110003A4ABA95FD801E08430C467330C63180AA
:10112000421431198AA4B22EA8C82121081A9C6B36
:10113000192A0C6001860219A728D0D20002188C47
:101140002A3FA03780425294BC8CD51C0C61D683B8
:10115000A461249E0714D4F90541C6689C9049ED0A
:10116000007785426A846127F230704DD012127385
:1011700063492E0B0A3399802808430C4673388440
:101180002104242102000218184231D443A86780A8
:10119000809510EDA1D40320F439E289001A20884B
:1011A0007A1F223C03900E89A9840419218902A187
:1011B0000002CF206210BA8D0CA50F100A9F4300C9
:1011C0006B827C1A007E3180440700518C2327C338
:1011D0006400950001780482F817508426A88242A2
:1011E0006819CC6733002A08430C46733106718CAA
:1011F000848608422C751D012908429448296415EB
:101200001DC35092A40001680C4188345A9823F8F9
:1012100071810850C4635004351761E4467F153F5F
:101220006DFC25286762530427C21084230E103AF0
:101230009C10C590421B92C62A6DE63399EB7060F4
:1012400008430C467332C631C3119CC41092182453
:10125000532149950D83FC4555FE2FD1F6F97D3577
:10126000B5E8F53FCFF2E8FB97CF46FF3F3E5FF38F
:1012700084631C3119CC61086188CE643040170842
:10128000430C4673300006C411E4E3506A23DFE8E0
:1012900090044410C621F204001151E8350F37E4E0
:1012A000B4C458C838622A168E300C6386084F8C36
:1012B0000008AA005802A9C04D0419808416D483DE
:1012C0001ABC9168ED6E214C909F28430C464398C0
:1012D0007406FB1F847938E5FBF8401A08430C4676
:1012E0007333400000018C2500908400430C04946B
:1012F0004475D8D4399479D1F5198009848063185C
:10130000C72CF0219C05408C84BE2E2ACEC015B17E
:10131000F0A80017F10C00951F0032040308368E68
:10132000E2315D303F42A046E771611281AC81C37A
:10133000138B6F0190840B651000988D614C1251D6
:10134000A42E8FB64EF6000908430C467330863142
:1013500008411908208000036A318C2118AA121054
:101360008404D1508D63228C19E03148C8305B056C
:101370009EBE9B27C8BC783EC42155B78D8008C44B
:10138000ADBA2FE4D12FA8F33AD20E3FE74AC3807B
:10139000308F008A6681085B0545E584222089C874
:1013A000814009AE8D83EE95C21808430C46733018
:1013B000C6386042BB65100000B2C0A00311A8236C
:1013C0001DAECCD05B187ABA1F521213D8190988F7
:1013D0006860D06A1DF81B893480451F2688119EDD
:1013E000321AB78CE01A09347D183B9ABE2B440A96
:1013F00000F61D186BF8B6AF80DD97B52B84020898
:10140000430C467330C6010C638E06000001862A29
:10141000018EAA980006D73A0671A8E33A8E802179
:101420008AABEE49518C9F8FF070F5238C3E098674
:1014300080F9EE900E21F83218CA70A46A2036D3D3
:1014400038CE3887E0180DC0E8FA10343F13E2EECA
:101450003E15EC63CCDBA8DB519CCC0208430C4668
:101460007331860080110C863304231D215446609D
:1014700000C7EC01B55363CE63C1D3F9AA986318D2
:10148000E9DA9884A92AFD1FE7DF2A56FF4D8F3D30
:10149000FDDFE118FF7FE463085750EE3C8F6033B7
:1014A0007D10C46733000A08430C4673300008609F
:1014B0000054AAACE16118C618A832079FFE5499DF
:1014C00040C6216C5C8801D0D0318926AA6038C022
:1014D000860B24210443FDCD3B5643A08008000029
:1014E00000E719001BA2FC1BDCB1DD663A82B603E3
:1014F000D49A114BA3108109B4BF94350ECB2B8421
:101500001108430C467330C635C411C4B33812A059
:1015100010850C54F50E57A11064189B53D4631812
:10152000B46F07E3A8430C6E7D04F029C44286061D
:10153000529793B845C0886000072D705217C001BC
:10154000104418C951585505E820840108618B0AD8
:101550005C08000860C12000844D56AE2BD50016F3
:1015600008430C467330C62308631C31300C8425B5
:1015700040210AA008882A9F20AA2A5DE741268FD9
:101580005267174FC2296398D02A7A685F01341CCA
:101590008347F8463F07419ABE2AA6A7D03A0DC214
:1015A00042D1F41178BF28844F808427C6BEC7D1AA
:1015B0009168201408430C467330C4318842862356
:1015C00019807500C70C46731E860000085463A27C
:1015D000FD1B7FE010DB54FF51516AFCCD467FF4C8
:1015E00052C689FEF9353FF5E568E3184A50D4FA4A
:1015F0001FC3A326A459AA4484218623399812081C
:10160000430C46733000D03400088631C311854145
:101610004CD51538424212182686002AA7A93E400A
:10162000C3118FCE10DFA200010C02A310842E2E56
:10163000B9F478D9F0213042BFB0199681A817B219
:10164000D03330D42217A3F1211A98692AC3D3FECC
:101650001BC6F9BFD01708430C46733000000111B8
:10166000810840884210B3F08F98A9342DA8153016
:10167000C7C40C7DD54E386072104A5294B53DC92E
:101680007C854A00000054F5006188CFA09F1AD6DF
:10169000C30DF9323F4800E6FE418EB2D097610497
:1016A00026A933EE2A7A93B5800E08430C46733090
:1016B0000008623208C4310C5505BE1A6875090865
:1016C000420404268FC80C630806394E60A9BE1870
:1016D000A6380B34410AA008425284260AB1AF87CB
:1016E00053B203F4FCD586D02AC6D19132AE07A1FD
:1016F00090908479779C79EC66FC22F1FDBC200AFD
:1017000008430C467332C6318C6168000046610D97
:1017100034308064180364D40A90C04212A1368F1A
:10172000A00C601E89BD23B26D44DD1B5808618882
:10173000C86210A18B6654D1773E92A7A9C23D5FC3
:1017400033A8821860252C99F0B400043119CC1903
:101750006EC9CE000608430C467330C00001B14884
:101760000631C303A865C926E2A8895AE055093F96
:101770002CE1A0E8175178B48E899154DCCE83CC4B
:101780007719A771F0501CC92A52681DD4E7EC8F55
:10179000E1EE66927A55174199C79A10CD9D376A46
:1017A000FC4210C3119CCC0F08430C467330C6306A
:1017B0000010C014001AA410EDCE69B53D44000419
:1017C000201AF4506855087B8EAEA118EA79CB43F5
:1017D00007F1DC97D8EC639093C8B8557454B906F8
:1017E000838D763E07004D080318EE9DA6A3E3C245
:1017F000D084E12103106723982721D43AACAE109E
:101800000E08430C467332C6318C5150850C08616A
:101810000D3351CA58854A0056E10F06211360EA7C
:10182000FE024E348F621863E2A0B2CD0FD90000E1
:101830002C9B4406D1A3D49B007A8084A5D8884DE4
:1018400006A08ABE41FC1908BC1DE400001BA018BC
:101850002126177CE3322D040D08430C467331809A
:101860000043005482318C63CF48424304A9FFFDFA
:1018700013DC8EAA520C4317060C29B536F03A83B6
:10188000E8054EB98350DC74668024D1FE2CA2A0FA
:1018900068000E04611C401210840E703C02D1B826
:1018A000E719E6A5E8552E7C1FC4673300090843F5
:1018B0000C4673300008623398426A8357C6A89D6D
:1018C00011B8854C121090C461A3FBFC9FCF3DFE64
:1018D0009AFEAFA3F778BF59580002D1F43F93871F
:1018E00008075269FA8800BCBF7F080B08430C4602
:1018F000733000086233988C108F57D1DBAAC9BFB0
:10190000068FC9B740C3B47CFF8B1F8042109B4E2B
:1019100012218862154BC080631C31A44653D02D20
:10192000BF82A3D082A00000E838AF86682F66157A
:10193000FC2DD0AFAA87B18CE6600A08430C467331
:10194000310800340004311990210041B3E5551EDF
:101950007FC4E824D5788F22493670101229FE17EB
:10196000766E5C47CF19802DEEB2DDEF35F3393B53
:1019700097E026E84CD344DCB35F335803739F40B1
:1019800097E65733001008430C467332C00000023C
:101990008CA391033F084631C303A83381882210EA
:1019A000BF92FF1A010000882421218C267809AA01
:1019B0002D035CD06C9D148318863F8398104639A4
:1019C000863A9078816E3C0535A061220884216EAC
:1019D000753E8FA18002EB3D22FC43A93DB004215E
:1019E000862339980C08430C467330C42143118078
:1019F000C6386024A825B8F2A7B1F435E9FF18FE6F
:101A0000110C431038FF9AA1AF2A6A26A7E83F1DA0
:101A100004A52C31A3F520002180C80802A6CA9491
:101A200063BC6B2D18C32009FD13E60C3119CCC023
:101A30000508430C467330C000B1810302C0066044
:101A400010EA1A22B8A2AA59DB40E234158C638648
:101A500023398BE78C24AF8A8CF8EA496340D62B74
:101A6000BD0430C467327C00002188CE62A875FEB8
:101A7000ACB508B5FEABE11FF46A9FD7FFC0010803
:101A8000430C4673300E0002188CE61A9ED7D00124
:101A9000ABD4FFBE8FABFCABA9FFB2689AB8006AAB
:101AA0009EA7D1B55E02A7A9F47D4B62F9FF8180A4
:101AB00075186188CE662408430C467332C0004313
:101AC000119CC260841A88E2AE980121020245117D
:101AD000C302C065151511510218A8863C622AE49C
:101AE00059A1461A2543F1F21F27200033E7F86871
:101AF0000D13BA66D3E054F3D54FF10E2A947E3D10
:101B0000C221917E10C3119CCC1A08430C4673303D
:101B10008421040000A208EEA71D471C6824D04CB5
:101B20006343118D4CC31084860843302108461D41
:101B30001F4300160002188CE60084C62640221BB4
:101B400099EE7D81088230EA0FDAA509064210DF9E
:101B5000C92A7A80C0AA6A216886212A9A9C83A60B
:101B60002AAF8030C46733002D08430C467332C05F
:101B70000000631C3119108108AA7A6C410E73A30E
:101B8000909A0D4F4E0F47A7AA7A7F4017CD4E0B64
:101B9000E7CD7E7A7EA7CDFE117045F44B529BEACD
:101BA00007B32998210C3119CCC027318D0C46730D
:101BB00032C02100008CE623180218EA88CE623178
:101BC000863294621467315405000B6446730E80AC
:101BD0000055164467845426357319CC0CF8290334
:101BE0001AC18CE61F8BD1917C0A9EA718084D66FE
:101BF00033987E0212A98CE62A92C19148631A1882
:101C00008CE6602C08430C467332C00000E10041B2
:101C10001085800042486036056B50D011052F3D7D
:101C200054FB95478BFC4DEEBE8B8A3908E6B00419
:101C3000842430426F586548CA93C80059A3D45FC2
:101C40003E80739CFA3E8FF27B9F01BE10C3119CB5
:101C5000CC5A08430C467333000043000864C6CADC
:101C6000D53DEA2030216CA7C80D6318E1819A4464
:101C70001842CB65989C75C806ED14B94C10848643
:101C8000084A8255A9EA7D1F47F998267CFF3FCF75
:101C9000F3FCC1862339982D08430C467332C000EB
:101CA0004300648800042000842862D81005105482
:101CB00045A94C6318D53E8262108409B47A9024F9
:101CC000A859F0FF1A210CCF88A5862A6F881FC457
:101CD000626F42A7A9299D1F42018C63181F2ED550
:101CE0002AD4ECA9C218623399801308430C4673B6
:101CF00032C0000042143023088220821A64031884
:101D0000E18A6C95132C20539A2D3FA2E6FA3FE30B
:101D10009B0F40180210C3119F803F805987F7CD59
:101D20000B2018C70C46731842220A2191680A9E9C
:101D3000E7D1F8708430C467330041304218623311
:101D400098CC13300158C638623103730698000DE1
:101D500040218A99019A10C6154FF54CE2122021B4
:101D600088C7A8BE097518C68629A2541551084807
:101D7000629AA87E8A9EA3A6BE7F8A9AF6C84AAABD
:101D8000A1A7EABD0337D50211E6FFD8C2608430AF
:101D9000C46731981608430C467332C000004014E3
:101DA0007449A42188441044356542408F601D4326
:101DB000A96864D0220FEC9A197E0882AB16878935
:101DC0005498C6842F8220A6F441F703F8C82F0840
:101DD000812681105375104210B628A7342F204059
:101DE0009A69BA94661DB751FA319CCC1A08430C13
:101DF000467332C63188628864008C600C5153D4BB
:101E0000E31974718744ADEA40876AD8F4510AB780
:101E1000F819F25D7B07C7ED040CACFE3210974851
:101E2000000D86A7A85954FC8310BE008618D186E1
:101E300031C3119CC21361BA6F140F08430C46736F
:101E400032C631C3119CC59FF17518CC208831086A
:101E5000823A9696A9EA7D0C5A172119FC22F88637
:101E6000018221903A0F8EA7C6298D1F72EC7D8FBB
:101E70009EA10300007C01284B10C818C4421B22FD
:101E8000E08CC7355BD936D03708430C4673301A1F
:101E9000000218647734541A8AEE9E607DC36A1279
:101EA0001090C4C121E823A8C776481A3DD9A0FFE5
:101EB000011C41D0C84CF80006C411C4AB7D697246
:101EC0004C880090848607261B411D4616497E4B90
:101ED0003DCF864500010C462C8CFE0C6633998064
:101EE0001E08430C4673308631C30B8EE6810433E3
:101EF000355D53DCFA3F0FF3FFFF0114320C90C441
:101F0000664254241D609860646491526803DA3715
:101F10004A9BFBD007F14955F54431C3119CC75387
:101F20001AE708430C4673302908430C46733108FE
:101F30004088429023C2544318E188CEA2FA580048
:101F400000638C7FBCB021160798AF20CE3480F898
:101F50001EC7C1A3789F2D93504977C8BC1A90E043
:101F60009E383EEBE1A10842770DDA000D8279A997
:101F70002D093B433EE06A9FF98AA570801408430F
:101F80000C467332C631C303184601822060434CAD
:101F900082A210040886A3D0CA0280AC2D44C000DF
:101FA0000CD1F42F47F0D0730D0C033545A3E8F99D
:101FB0009E86C0000CD1FE2CE2290E67A1D4BA3E49
:101FC000820D1F47FEC1744401086188CE661A085D
:101FD000430C46733084212E2808000862300846DE
:101FE00031C303184011886294425294A38A2A1B79
:101FF000D02DE56A2068518FCB31842210A1815405
:102000005F2E7953D4FF0B000FC4212E8E10F704DE
:10201000204368D4B40545F18841002A7F907501BA
:10202000806F8830C46733001C08430C467330004F
:1020300008623398EA7B9F40FDFE7A844221090CB6
:10204000465F20C7FFFC03D97FDA20631EC14BCF58
:10205000151340C0442D0546BCA007002A80019CF2
:10206000C74042102CD02B0A0679A8BCCFA2A718D3
:10207000C70C4621368218623399801408430C46F7
:1020800073310216921818E58190841D42300C308D
:10209000C54F53E82218F80D1E79A9FE31713A3F59
:1020A000C0127E3EC7517DD420CCFE11AEF9A89A55
:1020B0001034000042508430C4673203E0632F8C38
:1020C0004328EA2A3B222190EA11D4F5298210C341
:1020D000119CC61208430C46733084286042580095
:1020E00008623008657BD42128CA52C317BE8FCB43
:1020F000FCFC87143E5DBF38421862336FCC318ED2
:10210000188C2FFA87E22049A4DD55202A0F86A7D4
:10211000654062473A3E8FF106188CE6601408432A
:102120000C467332C40008115022A1042300C031B0
:1021300046528CE010CDE488718D189B10B91D07B4
:1021400001D1F47FF252D0737BAF42CD774D17317E
:10215000D4F4104BBB1809A01420002188CC00A295
:10216000291ADC06AC4218623399801808430C46E1
:102170007331C00200008E2309802708690886CACF
:10218000B8288A80328CD1651F08D031FB2AA4D4AC
:102190007E7FE731EE2CD1D75AAFF751747B91F99E
:1021A000008EA3F73920AF4127B7A97F3F08799D5B
:1021B00046E925437CFB7F218210C3119CCC1E087D
:1021C000430C46733000008043862319E831D0C5A4
:1021D0000C46384E80BD6346D2747D18C1FA3F0D5F
:1021E0001B3AA6B47F9F47EA747D1FEC296188C61D
:1021F0009C0819D0F71C037E4003A0ACE4A08484A3
:1022000026E3A97713DD2119CCC01208430C4673CD
:1022100032C0310850C466300021000631C3119825
:10222000EA40430024793C6821086188CE83CBF6DC
:10223000DF8B4FD28216E4FBA7C39FE623D641FC77
:10224000E5C4A90A52C31198747D782317C4618C20
:1022500070C46750FF1154AE101708430C4673301A
:102260000006C411E4E3506A23DFE890044410C67A
:1022700021F2040011511B41A879BF25A122C641BA
:10228000C31150BE3D080318E18212A300022A8048
:102290001600AA70134106602105B520C6AF245A66
:1022A0003B5B88532427CA10C31190E61D01BEC7AB
:1022B000E11E4E397EFE101A08430C46733340006F
:1022C00000018C2500908400430C04944475D8D4FC
:1022D000399479D1F519800984806318C72CF021CD
:1022E0009C05408C84BE2E2ACEC015B1F0A80017E4
:1022F000F10C0368A8780190201841B477118AE99D
:1023000081FA1502373B8B08940D640E189C5B789C
:102310000C84205B288004C46B0A60928D21747D3C
:10232000B277B00A08430C467331822108421C3050
:10233000318C8D0B42100661A024221023A870AAB4
:1023400090633D45F554C0A200BFB2A7D07E7A98F5
:1023500000001A306C41CAAA021080A809B010957A
:102360002723A01E88D619F0B7E91B463237460846
:102370006188CE61F87318AA55CBF7F08001084345
:102380000C46733086120463180678C24810678DB5
:1023900062A204B41A0042CC4798542A00320D03BA
:1023A000A2D0FF9F845D46B51E685D4086288708E1
:1023B000154A5094310943E47C0209040002188C48
:1023C0007C1F8484110416844402AA3DE3908CFD92
:1023D0008FE7BD57FE132E6E022A4F7FFE0708437C
:1023E0000C467330C6210800048039800010422A50
:1023F00086791CB21B82A121084AE43A8049607C9C
:1024000001086180D41F07F01080000003A1E438A8
:102410008802088318CC3C0C26A06D43FC6B039A01
:10242000342D846125323D03E2D1AA1CE7E007C2C6
:102430004184440B400012A6D044100C60E6160202
:1024400003E018C44207386E81FC454697C00B086C
:10245000430C467330000880920CB118D4521DF022
:10246000102AA33D93A31F98F855BC06F23FB582EE
:10247000E79EC68398721A9F17A3F1212687899F2A
:10248000F85681AD68FC81EE0D055AB607A3CE5D06
:102490001680626A1782F91CC09F07951E4E801431
:1024A00008430C4673308428604208E5318C2118BB
:1024B000C70C4A15385A000063212EEA8644A9E663
:1024C00009E03A1CA5F0DCE30B5B14548010484E85
:1024D000A2A206D40A8893C02A50543F3E834C7C63
:1024E0000AB4368F8E99F8C953817529A18185A1C7
:1024F000086188CE661108426882388CE62108633C
:1025000018844210220B48D2373850AC0A80231866
:1025100069926803A90813E8B50F91F08347104248
:1025200018603504A9F080008623810842C63C1A51
:102530008ED018E7808461184631C303F9A826F7C6
:1025400023DF2D310854C689B8613F168E11104B18
:1025500019070C7C2DF9A339980908430C467330F0
:10256000863108411908208000036A318C2118AA9D
:1025700012108404D1508D63234C19E03148C830C7
:102580005B059EBE9B27C8BC783EC42155B78D8095
:1025900008C4ADBA2FE4D12FA8F33AD20E3FE74AD0
:1025A000C380308F008A6681085B0545E584222060
:1025B00089C8814009AE8D83EE95C20908430C4657
:1025C0007331042110821C70218C63182A2B04346F
:1025D000006B0306A00CA21112B090378D001A27D1
:1025E000C1B1682DE4099268DD87A5907E3A084262
:1025F0003AC691ACB4268FF0D1360D0413B6C5A1FE
:1026000083B4F4B70F8034BFE7F02C6D002188C08D
:1026100010C461A0EC322D041B08430C46733084B7
:1026200021082D0480318C4311AA5054C31D4F94AE
:102630004F3F386921F442084A5294B5091A000202
:102640001800714EEA5655E442740004D5A3EA1707
:10265000DFC1260342D4B4520C6208430C463F3813
:1026600046218A20085753EF2419387F5C201F0821
:10267000430C4673308428623118C822460108C6CC
:10268000386231C2423154F50B6A06E82B20C83853
:102690008743213E1094A58C3E027C14484E1000C6
:1026A00015083F8863E11D4E418A20F8B80A9F440F
:1026B0002109F2D4F519F47D1421E83E0113E0DE7E
:1026C00046ACA350F83A8C0A33D60DBD000C084333
:1026D0000C46733008100C6118C00960421882164D
:1026E0005701A82E805B2BA82F8A8DA3A8BFCF47A8
:1026F00040BAA5108C5E85D44E2042D244408C81D5
:1027000024403D045F8885F56B3F003E227300EC5A
:102710000944461F1637B000269C47E0665ADD92F2
:102720002A8B3BFE462DA26B210246EF42EA15960C
:102730006B73301408430C4673308428842318C606
:1027400069A27808D63B080050309A88152815FCF5
:102750001084A9C0040291A9FE04000118C631FC2E
:102760001148821A62A0254B7948954682425E350F
:10277000BE8C218B32D12A7FAC210C3118CBE10ADF
:10278000000043000108486230D1F970801408430A
:102790000C467330C44108630884118C72812A2965
:1027A000806B18C000007A28422A203514F4317654
:1027B0000200041A23F2F834AC22501ABF017F5EE3
:1027C000813982046040343DE08210AA202B41FE12
:1027D00036AE474510F20E4084DA3A81FC05950684
:1027E00048EF4120C880000000A2118882A801CCD7
:1027F000640218006A6481086188CE661E08430C72
:1028000046733000000C8410C6310C510843345418
:10281000248C2A1B2021C4000A8743A88551042147
:10282000F9EA2A6338A9C2100021F66B9B67E00819
:10283000044112D0043118D45B4908150010C011AE
:10284000E82C144D40102100468210AB30D03F855B
:1028500001485773C454160E419C7C01318D98FD7C
:102860000A00010C7C310C8B41001708430C4673A5
:102870003340D0000300E21904810908421001AD81
:10288000EA0FAAA7D0BC8F80291A4710B2A2D73965
:10289000408B470988418C630C3199D5219E2A4D84
:1028A000149A0713516B9A081B52692BCE747CEB58
:1028B0006BD1F4AD1F46DF3B401408430C46733028
:1028C000C431443228C410D3F76541A3F29FC7BF77
:1028D000FDD43EFD37A3F9FEC06D0BA23398EA5B31
:1028E0007EA70841C5800DA9C1CEFC0BA98BF31BA7
:1028F00046CF3A00C3119CCC0C08430C467330C43D
:1029000021431180C6386022A825B8F2A7B1F4355A
:10291000E9FF18FE110C431038FF9AA1AF2A6A2470
:102920002300060D13F1D04A52C31A3F5200021879
:102930000C80802A6CA96B10567A31824013FA26DB
:102940008FACC793A00008430C467330C23886454D
:10295000A02A605CC6D1015056A0F8A93ACEF0F882
:102960003236DAF525235AB7429DB83F83B7D93EB0
:10297000400E45A9C3505EDA152759DE010AE97BEE
:10298000934888645A0C1B08430C467330C638625F
:102990003398EA7B9F47E1FE7FFFE7FFFE7FFFE77B
:1029A000FFFE7FFC216B5B0C35A00000018AA7A90C
:1029B000402AA02121090C466427C66ABEA35842BA
:1029C00018623399800F08430C467330C638606133
:1029D00060000862300854002000270134450AA82E
:1029E00032A1D2191E85CC202CCE2C0D60FF0E8575
:1029F00031663F1E71309084212A1D1EA257C08F60
:102A00008738D1FE4D1021863E5DA2529A28157C52
:102A10003A1679A8E82BF84DA77C593EEC0B0843F1
:102A20000C467330C638623318853C540218A2191C
:102A300002FC0869FAB7FA8AA5000CBA18C4214347
:102A4000118943F2719E082A7A7AA7A7F47A7FE760
:102A5000FBC7F3FEA210421F20215E9FCE1ADAC0F0
:102A6000A5701A08430C4673308428604221084040
:102A7000B18C6182118C70C0CB533021500008633F
:102A8000430547A3D4384FCDA18AA7D80210C3026B
:102A90008ED5706C9B85F6290ABCA9C953E8A42180
:102AA000347F905FC7CFF08D7DCA7E3DC8210C3149
:102AB00019CCC01208430C462697C60002180324FE
:102AC00040102186367CAB40090631C31199329201
:102AD00059386E63A10C20000006463DCE860D528B
:102AE00048D1F5021330D1FE1AC23AD1BDDFE3441A
:102AF00020C6386233EE7365EEBA08000862339878
:102B000072DC97A31408430C4673308222106318BA
:102B1000C6121080008610AE82204240DA00086A99
:102B200000041104B030800004835213A101EA1C98
:102B30000344D6422DA09F01FF217F22B6B0AD09EC
:102B40002118C64080DF4C81F813F9CA47ACC5355F
:102B500000C5509004D0C7E4043A008241773FC7D3
:102B6000E0015E1E05C3A1102420C9A01060180753
:102B7000A07751E4E81408430C467331084860819B
:102B800020882884820840003220902399C00108C0
:102B90008428604118C70C4606A9A9E18C21294B5D
:102BA0000C6657207A7A8082254F907558D043C49E
:102BB0008BB8E0FB817C6BF02B21044326F3C968C2
:102BC000442049F0CF3E47C340FC44C4BD1FE05CF5
:102BD00087CB1E4E802408430C4673308428623312
:102BE00014E410800318E188CAA7ABC25294BA104B
:102BF00043AE0B995FCB59906418CDF3E562190889
:102C00001097C4FF3A1F802409022C0430C463507B
:102C1000563508000863E0A9368A9EE9D43F8CEE59
:102C2000A5D8024212188C4210C3119CCC2A08432A
:102C30000C467332C0200C638623000002167550C8
:102C40006F2208C84210810DE3504B150715501034
:102C500044154BF2643E8687F37804887E7D0AA192
:102C6000F86A7DE7F8D1F61FA4C317B7F15531DE36
:102C7000F0318AA29C724A62A20026311084860931
:102C8000C17552B8403508430C4673310631C30252
:102C90003086196424084130042310AA7082DAA90E
:102CA0003CAA849BCF724FCAA321380093C918C590
:102CB00030F05584C5A1884216B3509360D084414A
:102CC0008331E807520844583F0A9F44EC347D0A98
:102CD000A2188648C346154E31FC3FC46733000135
:102CE00001FF030101F7034C6576656C20646F7783
:102CF0006E004C6576656C207570005361766500DA
:102D00004C6F616400526573756D65004E65772088
:102D100047616D6500080670E8F86070D8080670B5
:102D2000F8702070D8080670B8F83070D80806001F
:102D30002050B87020080620702070A82408067063
:102D4000A8702070D80806205824702058080670F3
:102D5000F8F87020D80806106890381068080670D7
:102D6000A8F87020D808067848485848480806004F
:102D7000FC844830FC08060020508850200806904B
:102D800024885004480806007078F8F8700806FC9B
:102D900084FCFC30FC080600000000000005003840
:102DA0000168010000050068013801000045006865
:102DB000010000E32CDF2C00000000240027002A83
:102DC000002D003000D5F08D14A1C881CFD9F1AF0E
:102DD000200000000000250028002B002E003100FC
:102DE00003053F213F1208120A100A0E1C0E0C1E8A
:102DF0000C141A14161F161E131E1E1B1E1E1F1E39
:102E00003F213F3A2F3A173D173F213F181F020439
:102E10000A041F0E04040E1F0A1F0A0E0E1F0411BF
:102E20000E2E252E2F2A2E262929021F02081F08C2
:102E3000150E04040E150E15151B151B04060404AF
:102E40000C040000000017000300031F0A1F1637C0
:102E50001A1904130A153A000300000E11110E008E
:102E60000A040A040E0400300004040400100018D0
:102E700004031F111F121F101D151711151F070422
:102E80001F17151D1F151D01011F1F151F17151FCA
:102E9000000A00003200040A110A0A0A110A040199
:102EA00015020E11171E051E1F150A0E110A1F11FD
:102EB0000E1F15111F05010E111D1F041F111F11DB
:102EC00008100F1F041B1F10101F061F1E040F0EDB
:102ED000110E1F09060E112E1F051A121509011FCA
:102EE000011F101F0F180F1F0C1F1B041B031C03B7
:102EF000191513001F11030418111F0002010220ED
:102F000020200001020C121E1F120C0C12120C12B7
:102F10001F0C1A14041E05242A1E1F021C141D1047
:102F200020201D1F0814111F101E041E1E021C0C41
:102F3000120C3E0A040C123E1E040214160A020F62
:102F4000120E101E0E100E1E081E120C1226281E27
:102F5000322A26041E21001F00211E040102013F07
:102F6000213F0500893008023802497868140000C2
:102F700044494747455200444947474552000C2DB4
:102F8000052D002DFB2CF22CE72C300030300020DA
:102F90004C4556454C3A0020033A002F00043A00B5
:102FA000080B0002020200000904000001020200F6
:102FB0000005240010010524010101042402060576
:102FC00024060001070581031000400904010002E6
:102FD0000A000000070502024000000705830240C6
:102FE00000000403090412010002EF020140412322
:102FF000368000010102030141726475696E6F2021
:103000004C4C430041726475696E6F204C656F6E65
:103010006172646F001613780016131400151020E7
:103020000015201000540A03E181867F3E186D834D
:103030000F0F0E0183866033186DC3198F1803C3F9
:103040008E6033186DE330CF1803C39E603630CDE9
:10305000E360CF3006C79E7E3E30CDB360CF300CEC
:10306000C6F6603330D9B660CF33CFCCF66061B0EE
:10307000DB1E60CF30D86CE6C061B0DB1E618F19FB
:10308000986CC6C063B19B0E330F0FB078C6FF7E3D
:103090001F1B061E0FF6E8DBCFC3B8AEA49B928AB7
:1030A000827B746E68625C57524E4945413E3A37A6
:1030B00034312E2C2927252321000000002300264F
:1030C0000029002C002F000404040404030405025A
:1030D00002020204030202020206060606060604B3
:1030E000040202020404040802011040804010207F
:1030F00040804080080204018040201002011080BE
:1031000010204040200000000200090F00000304CE
:1031100001000C00000000000000000000000000A2
:1031200000000000BF2F11241FBECFEFDAE0DEBF8A
:10313000CDBF12E0A0E0B1E0ECE1FDE602C00590F9
:103140000D92A636B107D9F728E0A6E6B2E001C095
:103150001D92AF3DB207E1F718E1C3E9D8E104C021
:103160002197FE010E947236C239D107C9F70E9429
:10317000DE2F0C948C360C940000CF93DF93E2EC9E
:10318000F8E0C081D1818881A6ECB8E09C91892BC0
:103190008883C091C408D091C50898818091C708E0
:1031A0008095892388830190F081E02D90818C9116
:1031B000809589238083DF91CF91089570E0AB01E2
:1031C000440F551F495E574FDA01979690E0880FDC
:1031D000991F9596ED91FC91E80FF91F2591349177
:1031E000495A5F4FFA0136A325A3F90185919491BD
:1031F00090914808989F802D1124695E774FFB01BC
:10320000EE57FF4F8083F901A591B4914B2F50E009
:103210008417150629F020F0F90125913491832FA8
:103220006B577F4F989F802D1124FB018083089559
:10323000FC018091B303882311F13FB7F89482E039
:103240008093E9002091F200822F90E01816190671
:1032500014F481E090E0882339F0289844E6409304
:10326000B2034091F1004083222339F02091F20013
:10327000211103C02BE62093E8003FBF08958FEF94
:103280009FEF08952FB7F89483E08093E900909121
:10329000E800892F807295FF04C09091F20080E4CD
:1032A000891B2FBF08958091AA0381110DC082E070
:1032B0008093A60384E08093A7031092A903109241
:1032C000A80381E08093AA0386EA93E00895CF9350
:1032D000DF931F92CDB7DEB76983DC01ED91FC91DE
:1032E0000280F381E02D41E050E0BE016F5F7F4F2F
:1032F00009950F90DF91CF91089583E08093E900C5
:103300008091F200882319F08AE38093E800089501
:103310000E94421990E00895CF93DF931F92CDB79A
:10332000DEB7FC018485958597FD08C02FEF3FEF40
:10333000358724870F90DF91CF910895CE010196B4
:103340000E941819019719F4898190E0F3CF8FEF4B
:103350009FEFF0CF0F931F93CF93DF931F92CDB7C3
:10336000DEB78C01FC018485958597FF0BC0CE01EB
:1033700001960E941819019771F4898190E0F80173
:1033800095878487F801848595850F90DF91CF918B
:103390001F910F9108958FEF9FEFF1CFFC0184856E
:1033A000958597FD0BC09FB7F89482E08093E90064
:1033B0008091F2009FBF90E0019608959FB7F89426
:1033C00082E08093E9008091F2009FBF90E0089531
:1033D0004091A0035091A10320919E0330919F033F
:1033E00042175307B4F49091E8009570E1F390917F
:1033F000E80092FD19C08093F1008091A0039091A4
:10340000A10301968F739927892B19F48EEF80936E
:10341000E8008091A0039091A10301969093A103ED
:103420008093A00381E0089580E00895EF92FF92D9
:103430000F931F93CF93DF93F82E192FE62E042FAF
:1034400081E0860F880F0E94E81983E00E94E81946
:10345000CF2DD12FEC0EFD2EF11CCE15DF05B9F0CE
:1034600007FF13C0FE0184910E94E819182F80E025
:103470000E94E819812321968111EFCFDF91CF912E
:103480001F910F91FF90EF9008958881EDCF81E01B
:10349000F5CFDF92EF92FF920F931F93CF93DF93BD
:1034A000D82E8A01EB017B01E40EF51ECE15DF0557
:1034B00059F0D7FE12C0FE0184910E94E8192196AE
:1034C0008111F4CF0FEF1FEFC801DF91CF911F9152
:1034D0000F91FF90EF90DF9008958881EECF0F93CA
:1034E0001F93CF93DF931F92CDB7DEB782E089831E
:1034F00042E450E060EA7FE280E80E94491A0E94BC
:103500005319DC0112960D911C910115110589F0DA
:10351000D801ED91FC910280F381E02DBE016F5F37
:103520007F4FC801099597FD04C0F80100851185FA
:10353000ECCF89810F90DF91CF911F910F9108956A
:10354000615030F02091F100FC0120830196F8CF0A
:10355000289884E68093B2030895AF92BF92CF92E9
:10356000DF92EF92FF920F931F93CF93DF936C0143
:103570007B018B01040F151FEB015E01AE18BF0824
:10358000C017D10759F06991D601ED91FC910190D6
:10359000F081E02DC6010995892B79F7C501DF91EE
:1035A000CF911F910F91FF90EF90DF90CF90BF9040
:1035B000AF90089581508F3008F047C0E82FF0E0B9
:1035C000EC51F54E0C947236011B051BF31AF91AD7
:1035D000FD1A251B251B251B081B0E1B121B161B6A
:1035E0001C1B251B201B809180008F7780938000FF
:1035F0000895809180008F7DF9CF80918000877F32
:10360000F5CF84B58F7784BD089584B58F7DFBCFCA
:10361000809190008F778093900008958091900022
:103620008F7DF9CF80919000877FF5CF8091C0008A
:103630008F778093C00008958091C0008F7DF9CF6F
:103640008091C200877F8093C20008951F93CF931B
:10365000DF93282F30E0F901EB5FFE4C8491F901F4
:10366000EA51FF4CD491F901E953FF4CC491CC23AA
:10367000A9F0162F81110E94DA1AEC2FF0E0EE0F5C
:10368000FF1FEE52F24DA591B4918FB7F894EC91D3
:10369000111108C0D095DE23DC938FBFDF91CF914D
:1036A0001F910895DE2BF8CFCF93DF9390E0FC01BC
:1036B000EA51FF4C249189539F4CFC01849188234B
:1036C000C9F090E0880F991FFC01E954F24DA591D3
:1036D000B491FC01EE52F24DC591D49161110DC02F
:1036E0009FB7F8948C91209582238C93888128230E
:1036F00028839FBFDF91CF910895623051F49FB727
:10370000F8943C91822F809583238C93E8812E2B13
:10371000EFCF8FB7F894EC912E2B2C938FBFEACF7D
:10372000DF92EF92FF920F931F93CF93DF93C7E146
:10373000D8E00DE118E0EE24EA9462E08A850E9468
:10374000541B2A8530E0F901EB5FFE4C8491F901AE
:10375000EA51FF4CF490F901E953FF4CD490DD207D
:1037600029F181110E94DA1AED2DF0E0EE0FFF1F12
:10377000E754FF4CA591B491EC918989FE22B1F0F8
:1037800081111CC021960C171D07B9F680912E08D7
:103790009091280891509E3FB8F490912A0891503A
:1037A0009E3F90F48F5F80932E0814C089898F5FAD
:1037B000898B60E08A850E94541BE4CF8F3F11F40F
:1037C000198AF7CFE98AF5CF882321F08F3F51F48A
:1037D00010922E08DF91CF911F910F91FF90EF90E3
:1037E000DF9008958FEFDFCF3FB7F89480916E029E
:1037F00090916F02A0917002B091710226B5A89BC2
:1038000005C02F3F19F00196A11DB11D3FBFBA2F72
:10381000A92F982F8827BC01CD01620F711D811D32
:10382000911D42E0660F771F881F991F4A95D1F7B7
:1038300008958F929F92AF92BF92CF92DF92EF92B4
:10384000FF924B015C010E94F41B6B017C010E9402
:10385000F41B6C197D098E099F09683E7340810530
:103860009105A8F321E0821A9108A108B10888EE19
:10387000C80E83E0D81EE11CF11C81149104A10440
:10388000B10429F7FF90EF90DF90CF90BF90AF90F9
:103890009F908F9008958F929F92AF92BF92CF92F8
:1038A000DF92EF92FF920F931F93CF93DF936C0100
:1038B0007B018A0180910E01882309F45CC080910C
:1038C000B303882309F457C08091A50380FF05C086
:1038D0008091E00082608093E000E801B12C8AEFE3
:1038E000A82E93E0892E2AE3922E209711F4BB2074
:1038F000D9F10E94421981110AC0AA94AA20D9F1D3
:1039000061E070E080E090E00E94191CEECF8C171F
:103910001D0611F00CF08C2F9FB7F8948092E900EF
:103920002091E80025FD02C09FBFDFCF282F30E0A7
:10393000C21BD30BF701815020F041914093F1005D
:10394000FACFE20EF31EBB2021F09092E800B12CDA
:10395000EBCF8091E80085FDE7CF9092E800BB2493
:10396000B394209709F3F3CF5D9884E68093A40382
:10397000101611063CF081E090E0F60193838283FB
:1039800010E000E0C801DF91CF911F910F91FF90EF
:10399000EF90DF90CF90BF90AF909F908F90089561
:1039A0008091C0078823B1F08091B4079091C1073E
:1039B000992319F09091B507890F9091C207992327
:1039C00019F09091B607890F90E090939900809339
:1039D0009800089580E0EACF633021F170E0DC01C7
:1039E000A60FB71FDF961C92DF97D9961C92D99726
:1039F000FB01EE0FFF1FE80FF91FED59FF4F11827A
:103A00001082AE5BBF4F1C92FB01EC54F84F10824A
:103A1000FB01E954F84F10826054784FFB0110828B
:103A20000C94D01C0895EF92FF920F931F93CF93A5
:103A3000DF93EC017B01042F10E0433019F0642F79
:103A40000E94EC1CF801EE0FFF1FEC0FFD1FF2A20D
:103A5000E1A2F8017896EE0FFF1FEC0FFD1F118217
:103A60001082FE01E00FF11F81E0838389E084AFC3
:103A7000DF01AB5BBF4F1C9216961C92EF5AFF4FB3
:103A80001082DF91CF911F910F91FF90EF900895D9
:103A9000CF93DF93682F70E0EB01C95ED74F9DA1F4
:103AA0009923C1F098A5911115C0DB01AA0FBB1F86
:103AB000AA5DB74FEAAD2E2F30E0220F331F959647
:103AC000ED91FC91E20FF31F259134912F3F3207C6
:103AD00021F41DA2DF91CF910895FE01ED5BFF4F10
:103AE0003083660F771FFB01E15DF74F3327220F0D
:103AF000331F05A0F6A1E02DE20FF31F659174912D
:103B0000833029F0482F8CE398E00E94131D8AAD82
:103B10008F5F8AAFDFCF40E06DEA7DE20C94131D2A
:103B200040E065EA7DE20C94131D40E06DE97DE222
:103B30000C94131D2F923F925F926F927F928F92FF
:103B40009F92AF92BF92CF92DF92EF92FF920F932C
:103B50001F93CF93DF93EC01F901E49031968491A8
:103B600040340CF012C10E2C000CFF08062F062E5C
:103B7000000C110BF701E00FF11F1E161F060CF0D1
:103B800004C1A82FC42E042E000CDD085601A80E77
:103B9000B11C87FDBA941A141B040CF0F6C02E5FFA
:103BA0003F4F570197E0A90EB11CB7FE04C0570163
:103BB000BEE0AB0EB11CB3E0B594A794BA95E1F7A3
:103BC00047FF0AC0A42FA80FAC9CC001AD9C900D6C
:103BD0001124281B390B40E08A2F0A2E000C990B68
:103BE000840F911D47FD9A958134910514F0A0E44E
:103BF000A41BFF8467FD60E0E138F10514F0E0E804
:103C0000F0E09E2FCC85C427C62E062E000CDD08C2
:103C1000F601E01BF10B8F014F01F7E08F22992491
:103C2000E0E8F0E002C0F595E7958A94E2F77E2F90
:103C300017FF02C0095F1F4FF3E015950795FA952E
:103C4000E1F7200F311F542F577081E001C0880F1A
:103C50005A95EAF745954595459510E84103A00129
:103C600011244C0D5D1D4C545C4FD0E02A2EAA0F40
:103C70003308EE24E394BB24D21513040CF085C062
:103C8000F9015490F1E0FF121AC0962E8A01E72F35
:103C90006901991608F057C08E2E852021F0D801B1
:103CA0008C90882A8C92E69531F4BFEFCB1ADB0A10
:103CB000F6015490E0E893940F5F1F4FEACFF110A4
:103CC0001CC0782E7094962E8A01E72F69019916F0
:103CD00008F039C08E2E852021F0D8018C908720E5
:103CE0008C92E69531F4BFEFCB1ADB0AF6015490C3
:103CF000E0E893940F5F1F4FEACFF3E0FF122CC070
:103D0000782E7094862E8A01972E69018916D0F438
:103D1000E92DE52141F0D801EC916C2E682460FE7C
:103D20000FC0E82BEC93969439F4BFEFCB1ADB0A63
:103D3000F6015490E0E89E2E83940F5F1F4FE6CF6C
:103D4000E721F0CFCE25880F19F440585F4F81E06E
:103D5000DF5F2A0D3B1D90CF962E8A01E72F690168
:103D6000991688F78E2E852021F0D8018C90882610
:103D70008C92E69531F4BFEFCB1ADB0AF601549032
:103D8000E0E893940F5F1F4FEBCFDF91CF911F912E
:103D90000F91FF90EF90DF90CF90BF90AF909F90EA
:103DA0008F907F906F905F903F902F900895CF936A
:103DB000DF93FC0167FD38C04034B0F52785542FF0
:103DC0005770942F969596959695C62FD0E02230F1
:103DD00071F545954595459520E84203D00111249C
:103DE000AC54BC4FA60FB11D67FDBA952C9130E0C5
:103DF000052E02C0359527950A94E2F7209521708B
:103E000021111EC080E8989FF0011124EC0FFD1FC6
:103E1000EC54FC4F81E090E001C0880F5A95EAF71E
:103E20008095908189238083DF91CF9108952330FD
:103E300039F7848581704627409541708413E2CF1D
:103E400020E8929FF0011124EC0FFD1FEC54FC4F71
:103E500021E030E001C0220F5A95EAF78081822BE1
:103E6000E2CFAF92BF92CF92DF92EF92FF920F9389
:103E70001F93CF93DF93182F062FC0E0D3E08AEF74
:103E8000D82E9EEFE92E842F8470C82E842F827046
:103E9000B82E842F8870A82E4170F42ECF5F8C2FFF
:103EA000880F8F5FE80ECC2081F0402F4D0F612FDF
:103EB0006C0F81EB98E00E94D71E402F4C0F6D2FA6
:103EC000610F81EB98E00E94D71EBB2081F0402F4C
:103ED0004D1B612F6C0F81EB98E00E94D71E402F85
:103EE0004C1B6D2F610F81EB98E00E94D71EAA201A
:103EF00081F0402F4C0F612F6D1B81EB98E00E94E9
:103F0000D71E402F4D0F612F6C1B81EB98E00E9454
:103F1000D71EFF2081F0402F4C1B612F6D1B81EBC2
:103F200098E00E94D71E402F4D1B612F6C1B81EB28
:103F300098E00E94D71ECD173CF4E7FCAFCFD150DC
:103F4000D394D394ED0CAACFDF91CF911F910F9111
:103F5000FF90EF90DF90CF90BF90AF9008950F93B8
:103F60001F93CF93DF93D82F162F042FC0E0C017D5
:103F70004CF4412F4C0F6D2F81EB98E00E94D71E1F
:103F8000CF5FF5CFDF91CF911F910F9108958F9261
:103F90009F92AF92BF92CF92DF92EF92FF920F93D8
:103FA0001F93CF93DF93082FA62E842E922E83E0AB
:103FB000F82ED0E0C3E09AEFE92E1EEFBB24B394B5
:103FC000B20EDF5F1F0D4C2F440F6A2D6C1BC92CE6
:103FD000CF0CDA2CDD1A81E04B0D881215C0802F32
:103FE0008D0F0E94AF1F4C2D6D2D8C2F800F0E94C6
:103FF000AF1FDC1794F417FD04C0C150E394E394A1
:104000001E0DF394F394DDCF802F8D1B0E94AF1F04
:104010004C2D6D2D802F8C1BEACFDF91CF911F91FE
:104020000F91FF90EF90DF90CF90BF90AF909F9057
:104030008F900895FF920F931F93CF93DF938C017E
:10404000C62FF42ED22FD60FCD1739F04F2D6C2F4F
:10405000C8010E94D71ECF5FF7CFDF91CF911F918C
:104060000F91FF900895FF920F931F93CF93DF93CB
:10407000C82FD62F042F8AEFF82EF60E2F2D4C2F97
:1040800063E081EB98E00E941A201C2F100F4FEF85
:10409000410F2F2D63E081EB98E00E941A2006501B
:1040A000CD5F402F6C2F80E00E94AF1F402F6C2F00
:1040B0008FEF8D0F0E94AF1F41E06C2F83E00E94B5
:1040C000311FD45042E06C2F8D2F0E94311F1450AD
:1040D00044E0612F8D2F0E94311F48E0612F83E063
:1040E000DF91CF911F910F91FF900C94311F2F9270
:1040F0003F924F925F926F927F928F929F92AF9278
:10410000BF92CF92DF92EF92FF920F931F93CF93C4
:10411000DF9300D000D0CDB7DEB79C838B836A30AD
:1041200099F4DC0116962C91169718969C91189785
:104130001A968C911A97299F800D11241A968C93A8
:104140001A9719961C92E6C06D3009F4E3C0EB8112
:10415000FC817284FFE3F7150CF4B9C0AB81BC811C
:1041600016961C91169719963C901997C12ED12C32
:1041700017962C9117972150330B2C9DC0012D9D24
:10418000900D3C9D900D1124830D911D37FC9A9547
:10419000181619060CF09BC018962C911897872DAD
:1041A000072C000C990B129F800D911D11241816DD
:1041B00019060CF08CC01F96BC91B983532C412C6E
:1041C000E62EF12CE42D042C000CFF0BAB81BC81FE
:1041D00017968C91179790E0E817F9070CF072C0CA
:1041E0000197E817F907A1F1E89E5001E99EB00C8C
:1041F000F89EB00C1124AE0EBF1E1D96ED91FC91E1
:10420000EA0DFB1DE491072D612CB42DB30DBA838B
:10421000AB81BC8118962C911897862D062C000C2A
:10422000990B2817190609F00CF449C0AE2EB12CD1
:10423000E0FF20C0113071F4462D470D6A81CD0199
:104240000E94D71EF501F595E7956394010FE0CF25
:10425000E0E0D9CF202E4601800E911C28141904CD
:104260008CF7212F422D652D8B819C810E941A2075
:104270002394F4CFEB81FC8180899785891711F312
:104280008787113061F4462D470D6A81CF010E9466
:10429000D71EE981AB81BC811F96EC93D3CF202E32
:1042A0004601800E911C281419049CF7212F422DE1
:1042B000652D8B819C810E941A202394F4CF439416
:1042C000510E80CFE981AB81BC811F96EC93AB810D
:1042D000BC8116962C91169717963C9117971996B4
:1042E0008C911997239F800D112419968C931997FF
:1042F00015969C911597992369F0082E000C990B3F
:1043000040E850E0239F40195109112448175907EC
:104310000CF40BCF81E090E00F900F900F900F9076
:10432000DF91CF911F910F91FF90EF90DF90CF9091
:10433000BF90AF909F908F907F906F905F904F90C5
:104340003F902F900895EF92FF920F931F93CF937A
:10435000DF938C017B01D0E0C0E0F701EC0FFD1F83
:104360006491662339F0C8010E947720892B11F0EF
:104370002196F3CFCE01DF91CF911F910F91FF9046
:10438000EF9008958EBD00000DB407FEFDCF8EB5F1
:10439000089580917902209177023EE0839FC001C9
:1043A000112480589D4F820F911D2CE0FC01208329
:1043B00081E080939C0380910201815080930201EF
:1043C00008952091790230917A02E0917702F0917C
:1043D00078024EE0429FD001439FB00D1124A058B7
:1043E000BD4FAE0FBF1F1C92280F311D87FD3A95A0
:1043F00030937A0220937902CF01860F911D67FDD9
:104400009A959093780280937702429FF001439FA0
:10441000F00D1124E058FD4FE80FF91F8BE0808369
:1044200008950F931F93CF93DF93483009F443C04F
:1044300038F4C62FD0E021964730D9F081E036C05D
:10444000493099F0082F10E00F5F1F4F4A30B1F745
:10445000C62FD0E08EE0809FF001819FF00D1124E7
:10446000E058FD4FEC0FFD1F0EC0262F2150330BDF
:10447000E901082F10E0FE013EE0839FE00DF11DF1
:104480001124E058FD4F80818B3011F40E94C92126
:104490008EE0809FB001819F700D112460587D4F88
:1044A000C60FD71F81E09881911180E0DF91CF91F5
:1044B0001F910F910895282F2150330B8901C8CFE8
:1044C0000F931F93CF93DF939EE0899FF0011124F8
:1044D000E058FD4FE60FF11DC081DC2FD07CCF707E
:1044E000D03401F148F4DD23C9F08C2F8D0FDF911A
:1044F000CF911F910F910895062F182FD038B1F04A
:10450000D03C99F74C2F602F812F0E9411228111EE
:10451000ECCFC150C730B0F7CAE0F4CFC73091F04C
:10452000C7E0E3CFCA3081F0CAE0DFCF4C2F602F65
:10453000812F0E9411228111D8CFCF5FCB30B0F3F1
:10454000C7E0F4CFC9E0D1CFC8E0CFCF9FEF980F3D
:10455000923170F49FEF960F9C3050F42EE0829FC2
:10456000C001112480589D4F860F911DFC0140838E
:104570000895EF92FF920F931F93CF93DF93C82F6D
:10458000D62F142F6091C8087091C9088091CA086D
:104590009091CB082AE030E040E050E00E943036B5
:1045A000672B682B692BF1F5412F6D2F8C2F0C2F6A
:1045B00010E0780151E0E51AF108CD2FD0E05EE07F
:1045C0005E9DF0015F9DF00D1124E058FD4FEC0F52
:1045D000FD1F9081992369F198012F5F3F4F529FF2
:1045E000F001539FF00D1124E058FD4FEC0FFD1F1B
:1045F00020812223F1F0509F9001519F300D112412
:1046000020583D4FF901EC0FFD1F31975081552384
:1046100081F0FE0131962E0F3F1FD9012C912223EC
:1046200009F479C0DF91CF911F910F91FF90EF9026
:1046300008954730E1F4FE0131969EE0909F90018D
:10464000919F300D1124A90140585D4F7A01DA0184
:10465000AE0FBF1F9C919F7009F460C09B3009F49E
:104660004CC00E946022CE0DDF1D8883DBCF493015
:10467000F1F49EE0909F9001919F300D11248901EB
:1046800000581D4FFE013197E00FF11F90819F7080
:1046900039F09B3091F10E946022C00FD11FE5CF0D
:1046A000C00FD11F8881806280831882BBCF4830C1
:1046B00009F041C09F7079F09B30F9F00E946022B0
:1046C0009EE0909F9001919F300D112420583D4F06
:1046D000C20FD31FCACF2EE02E9DF0012F9DF00DEB
:1046E0001124E058FD4FEC0FFD1F209FC001219FBA
:1046F000900D112480589D4F1BC0DF91CF911F91C9
:104700000F91FF90EF900C94C921F09EC001F19E93
:10471000900D1124EFCF473009F0A9CF2EE0209F54
:10472000C001219F900D112480589D4FE80FF91F63
:10473000C80FD91FB7CF4A3009F074CF98012F5F47
:104740003F4F9EE0F92EF29EF001F39EF00D1124F2
:10475000E058FD4FEC0FFD1F90819F70B1F29B3030
:1047600061F20E946022F09E9001F19E300D1124B2
:10477000ADCFBF92CF92DF92EF92FF920F931F9334
:10478000CF93DF93D82FC62FE82EF12CC7010197C6
:10479000062F10E0A80141505109EEE0E89F90017A
:1047A000E99F300D112420583D4FD901A40FB51FAA
:1047B0008C918B30F1F1D901A00FB11F8C918B300E
:1047C000C1F1B8016F5F7F4F260F371FD9018C9160
:1047D0008B3079F1EE9D9001EF9D300D1124205822
:1047E0003D4FD901A40FB51F8C918B3011F1260FCD
:1047F000371FD9018C918B30E1F097012F5F3F4F2C
:10480000E29FC001E39F900D112480589D4F480FF7
:10481000591FFA0120812B3061F0FC01E00FF11FDC
:1048200020812B3031F0860F971FDC018C918B306B
:1048300011F40E94C921BB24BA94BD0E40E0DD24CE
:10484000D394DC0E6D2D8B2D0E94A62240E06D2DA1
:104850008D2F0E94A622CC24C394CD0E40E06D2D56
:104860008C2D0E94A622DD24DA94DC0E80917E023B
:104870002EE081112EC02E9DC0012F9D900D112480
:1048800080589D4F080F191F84E0F801808344E091
:104890006D2D8B2D0E94A62244E06C2F8B2D0E9443
:1048A000A62244E06D2D8D2F0E94A62244E06D2D9E
:1048B0008C2D0E94A62244E06C2F8C2DDF91CF918D
:1048C0001F910F91FF90EF90DF90CF90BF900C94CD
:1048D000A6222E9DC0012F9D900D112480589D4F22
:1048E000080F191FD8011C9240E06D2D8B2D0E94DE
:1048F000A62240E06C2F8B2D0E94A62240E06D2D59
:104900008D2F0E94A62240E06D2D8C2D0E94A622A4
:1049100040E0D2CFDF92EF92FF920F931F93CF939D
:10492000DF93D42EC62FD0E08E010F5F1F4FE82EED
:10493000F12C9EE0899F9001112420583D4FF901F0
:10494000EC0FFD1F908194FF0DC0200F311FD90186
:104950009C919F70973030F09B3028F19B3011F480
:104960000E94C9212EE02E9DC0012F9D900D112483
:1049700080589D4FFC01EC0FFD1F20812F7E20836E
:10498000DC01A00FB11F2C91211117C0DC92108205
:104990008C9180618C93DF91CF911F910F91FF904B
:1049A000EF90DF9008956F5FDF91CF911F910F918E
:1049B000FF90EF90DF900C94B923223011F0243057
:1049C000D9F5A7014F5F5F4F2EE0249FC001259FBF
:1049D000900D112480589D4FFC01E00FF11F308194
:1049E000311112C08C0F9D1FDC018C9181110CC004
:1049F000D0822E9DC0012F9D900D112480589D4F77
:104A0000C80FD91F1882C7CFA701415051092EE006
:104A1000249FC001259F900D112480589D4FFC01BB
:104A2000E00FF11F30813111B6CF8C0F9D1FDC01DB
:104A30008C918111B0CFDCCFB2E0DB12ACCF25304E
:104A400009F0A9CF2296C80FD91F88818111A3CF61
:104A5000108284E188839FCF282F809168029091F3
:104A6000690264E170E00E945E3699277727293059
:104A700009F449C0E0F4273009F445C0283009F4AE
:104A80004FC03EE0389FF001399FF00D1124E058EF
:104A9000FD4FE60FF71F20832B3041F490937A02ED
:104AA00080937902709378026093770208952C3096
:104AB00081F02D30E1F02A3021F74EE0489F90013F
:104AC000499F300D112420583D4F620F731F8AE417
:104AD0000BC04EE0489F9001499F300D1124205893
:104AE0003D4F620F731F8AE8FB01808308954EE0FB
:104AF000489F9001499F300D112420583D4F620F6F
:104B0000731F88ECF1CF3EE0389FA001399F500D14
:104B1000112440585D4F640F751FFB0120830895D9
:104B20004EE0489F9001499F300D112420583D4F81
:104B3000620F731F88E4D8CFCF93DF93462F209165
:104B4000660230916702A82FB0E0AA0FBB1FA15FD9
:104B5000BE4FC90137FD079653E0959587955A9545
:104B6000E1F7ED91FC91E80FF91F84913196E49102
:104B700090E0982F8827E80FF92FF11DC42FD0E07F
:104B8000C90168E070E00E945E36BC0180E190E0FF
:104B9000861B970B8C1B9D0B02C0F595E7958A959C
:104BA000E2F72C0F3D1F309367022093660281E0ED
:104BB00090E002C0880F991F4A95E2F701978E2373
:104BC000DF91CF910895AF92BF92CF92DF92EF9293
:104BD000FF920F931F93CF93DF93C82F10927D0204
:104BE0001092670210926602109269021092680297
:104BF00068E00E949C2580937C0224E1C22ED12C87
:104C0000DEE00091680210916902083181E0180726
:104C10000CF045C061E08C2F0E949C25882391F107
:104C200066E08C2F0E949C25E82E63E08C2F0E946A
:104C30009C2593E0A92EA80EB12CF12C00916802BE
:104C400010916902BA14E8F6083181E01807C4F43B
:104C5000C8018E199F09B6010E945E36D89FF001E7
:104C6000D99FF00D1124E058FD4FE60FF71F80810A
:104C70000E942C250F5F1F4F10936902009368025A
:104C8000B394DCCF64E08C2F0E949C250E942C25DD
:104C90000F5F1F4F1093690200936802B2CFDF913C
:104CA000CF911F910F91FF90EF90DF90CF90BF9029
:104CB000AF90089580917B028F37F0F490917E023F
:104CC00091111EC0909174029F5F90937402209185
:104CD000740290917602921708F4922F90937602C4
:104CE0002091730290917502921708F4922F90937D
:104CF00075028F5F80937B0280917B020C94E32589
:104D0000909173029F5F90937302E1CF982F990F58
:104D100027E0260F920F9093010195E090937F0278
:104D20002091790230917A02409177025091780275
:104D3000D901A80FB11D87FDBA959EE09A9FF00199
:104D40009B9FF00D1124E058FD4FE40FF51FE60F77
:104D5000F11D67FDFA95E081EF7EE73008F06FC046
:104D6000F0E0EB54F94D0C947236BC26C026BE26FA
:104D7000BC260527C02610270C94E121662321F0CC
:104D80008CE398E00C948B1D80912A088930C9F43B
:104D90002E5F3F4F8EE0829FF001839FF00D112424
:104DA000E058FD4FE40FF51F808181110AC082E0B9
:104DB000808360E081E00E94E1218CE398E00E9422
:104DC000901D809128088930E1F5809179029091B9
:104DD0007A02029720917702309178024EE0489F44
:104DE000F001499FF00D1124E058FD4FE20FF31F31
:104DF0008081811126C082E0808360E08FEF0E9475
:104E0000E1218CE398E00C94901D0E94E1218091B7
:104E10007D028F5F80937D028CE398E00C94951D5A
:104E200020917C0290917D02921708F4A9CF0E94F4
:104E3000E1218CE398E00E94951D0C945A260C9475
:104E4000C921089510927B0284E68093020110929A
:104E500076021092740210927502109273021092F0
:104E60009D0310929C030895089590E080E00895BA
:104E70002F923F924F925F926F927F928F929F926A
:104E8000AF92BF92CF92DF92EF92FF920F931F9358
:104E9000CF93DF9300D01F92CDB7DEB74091D808F3
:104EA0005091D9086091DA087091DB082FB7F89417
:104EB0008091C3079091C407A091C507B091C60720
:104EC0002FBF481B590B6A0B7B0B8091D70890E0D2
:104ED000B0E0A0E00091D0081091D1082091D20854
:104EE0003091D30884179507A607B70708F05DC06F
:104EF000011511052105310509F457C02FB7F894A4
:104F00008091C3079091C407A091C507B091C607CF
:104F10002FBF2091D708820F911DA11DB11D809335
:104F2000D8089093D908A093DA08B093DB08809151
:104F3000C8089091C908A091CA08B091CB08019601
:104F4000A11DB11D8093C8089093C908A093CA08F9
:104F5000B093CB081092D0081092D1081092D208CA
:104F60001092D3080E94F41B6093CC087093CD0874
:104F70008093CE089093CF080E94901B81E00F9001
:104F80000F900F90DF91CF911F910F91FF90EF90B5
:104F9000DF90CF90BF90AF909F908F907F906F9059
:104FA0005F904F903F902F90089580E0012B022B4F
:104FB000032B29F70E94481D81E00E94481D82E0D2
:104FC0000E94481D2CE338E03B832A830DE518E05E
:104FD000F12CE12CE982AA81BB8113968C91139765
:104FE000882309F48DC0D9968C91D997811188C0F6
:104FF000F801808191810784F089E02DEE0FFF1F79
:10500000E80FF91F259134912115310569F49D961A
:105010002C91222309F45AC0D80150961C921E925A
:105020001F97FC01259134912A803B80B5E42B0E1B
:10503000311C4A805B80E8E44E0E511C6A807B8004
:10504000FBE46F0E711CCA80DB808EE4C80ED11C9D
:10505000AA80BB8091E5A90EB11C8A809B80A4E543
:105060008A0E911CA9015695479556954795842F10
:1050700020FFD7C0C90156E0969587955A95E1F76C
:105080008F71932F96959695969590514F704230CB
:1050900009F4B4C008F099C0442309F4A4C0413015
:1050A00009F4A8C0D8011F96ED91FC915097319654
:1050B0005096FC93EE931F97CF01880F991FED91A7
:1050C000FC91E80FF91F25913491CCCFEA81FB8147
:1050D00013828081882379F08E2D0E94481DD8018B
:1050E0001F968D919C915097880F991FED91FC917F
:1050F000E80FF91F97CF6E2D8CE398E00E94EC1C0F
:10510000BFEFEB1AFB0AEA81FB813196FB83EA834E
:105110000E5F1F4FF3E0EF16F10409F05BCFE2E4FE
:105120008E2EE8E09E2E04E818E0F12CE12CF4E24B
:10513000CF2ED12CA2E0AA2EB12CD401D9968C91DD
:10514000D997882349F0D3968C91811196C06E2D02
:105150008CE398E00E94EC1CBFEFEB1AFB0AEFEF28
:105160008E1A9E0A0F5F1F4FF3E0EF16F10429F726
:105170008091DC08882309F49CC18C3008F060C160
:105180002CE0281B298381E08093B7081092C00887
:105190001092C1083091B9083A83832F8D5F19812D
:1051A000131B0DE3010FA02FA80FBB27BB1F7D0111
:1051B0000E151F040CF046C12EE4402F63E081EB76
:1051C00098E00E941A200F5FF3CF433009F144307A
:1051D00009F068CF20914808289F802D1124D5011F
:1051E0008C93F40113C08B3008F08AE0EA81FB81D4
:1051F00084AF58CF69810E94DE1854CF20914808AF
:10520000289F802D1124D1018C93F20190834ACFE5
:1052100020914808289F802D1124D3018C93F601FA
:10522000F5CF8F73EA81FB8186AB80914808839F1D
:10523000802D112481AFE759FF4F1082F801EE5BFA
:10524000FF4F11821082E1E0AA81BB81DF96EC93CF
:10525000DF97F701E054F84F21E02083FD01EE5B7A
:10526000FF4F1082D8011F968D919C915097019607
:1052700050969C938E931F9743CF8150F40183AB3C
:10528000D80191968C91811146C09701220F331F4E
:10529000295E374FD901A857BF4F8D919C91119727
:1052A000019624583F4FAC01440F551FF90120814E
:1052B0003181F901E40FF51F25913491422F477098
:1052C000F80144A3432F4695469547A3A90174E0EE
:1052D000569547957A95E1F74F7330914808439F6B
:1052E000402D112441A3F701E354F84F23FB22275B
:1052F00020F9208311969C938E93F801258930E044
:105300008217930740F0808D882309F491C0281BF1
:1053100031092D933C93D80191968C9191978150AE
:1053200091968C939197F40184AD31E0380F34AFAE
:1053300040A997962C919797240F808D280F208352
:1053400013966C91662371F070E0832F032E000C8E
:10535000990B0E945E36D80116968C91869F200D7F
:1053600011242083F401808190E08496B6010E948C
:105370005E36808326A9238367AD662379F0062EE7
:10538000000C770B832F032E000C990B0E945E36C6
:10539000D8018C91869F200D11242383F80161850B
:1053A0006623A1F0832F330F990B70E00E945E36C5
:1053B000CB01B5010E945E362485D40113969C91E1
:1053C0001397289F900D112413969C93F4014F334B
:1053D000A9F183818A300CF089E087FD80E0D40157
:1053E00013968C93F894D401EC91F0E0EB56FF4CBB
:1053F000E491D701A654B84FEC9380914908F80185
:1054000092A5899F802D1124D40113969C91899F88
:10541000802D112494A1899F802D1124F701E95436
:10542000F84F8083F701EC54F84F8083789494CE42
:105430006E2D8CE398E00E94EC1C6DCF1382D2CFCE
:105440001982A1CEBA81B450BA83105C2B2F41E0EF
:10545000612F80E50E94C71F2A8142E0612F83E00F
:105460000E94C71F81E08093C0088093C10880918B
:10547000B90843E0480FE981E81B8E2F64E5835C9F
:105480000E94332084E08093BA088091B908F981A2
:10549000F81BF15CF093BB086091DD087091DE08A9
:1054A00081EB98E00E94A3218091DC0881508093D9
:1054B000DC088091BD088F5F8093BD0804EB13E08A
:1054C00019820E94BD1882E20E94C22189810E9435
:1054D000C22187E00E94C22181E20E94C22180E0B5
:1054E0000E94C2218FE70E94C221E091C408F0917E
:1054F000C50880819091C708892B8083E091C208FC
:10550000F091C30890818091C6088095892380839B
:1055100078011A82D7018D917D010E94C221BA8142
:10552000BF5FBA83B038B1F7E981EF5FE983005814
:105530001F4FE83031F68091B50881110EC0E4EBC1
:10554000F3E080E094E0DF019C011D9221503040A7
:10555000E1F71092BA081092BB080E94F41B609306
:10556000D0087093D1088093D2089093D3082091EB
:10557000CC083091CD08621B730B7093D5086093F3
:10558000D40880E0FCCC8F929F92AF92BF920F9391
:105590001F93CF93DF93CDB7DEB7A1970FB6F894E3
:1055A000DEBF0FBECDBF19A2423008F44AE08E0123
:1055B0000F5D1F4F842E912CB12CA12CA5019401BD
:1055C0000E943036E62FB901CA01EA3044F5E05DA9
:1055D000D801EE938D01232B242B252B79F790E016
:1055E00080E0109769F0FD0101900020E9F7319704
:1055F000AF014A1B5B0BBD0181EB98E00E94AD1A25
:10560000A1960FB6F894DEBF0FBECDBFDF91CF914C
:105610001F910F91BF90AF909F908F900895E95C7C
:10562000D7CFCF93DF93BC0181EB98E00E94A321F9
:10563000EC0142E050E062E672E081EB98E00E940B
:10564000AD1A8C0F9D1FDF91CF910895CF92DF92FD
:10565000EF92FF921F93CF93DF93EC0110922F08EC
:1056600081E08093B7081092B6081092B508809335
:10567000C0088093C1081CE00E9438278823E1F30A
:10568000FE01849125E230E340E060E081EB98E0A8
:105690000E949A1D1092BA081093BB08BE0181EBBC
:1056A00098E00E94A3218091B808982F990F990F34
:1056B000891B81588093BA088091B908982F990F57
:1056C000990F891B825C8093BB088091C80884FF76
:1056D00066C081E290E30E94112B8091B808982F58
:1056E000990F990F891B81588093BA088091BB0844
:1056F0008F5F8093BB0880914908882309F452C0CA
:1057000089E190E30E94112B80912D08813099F45A
:10571000809149088F5F082E000C990B60914A0810
:1057200070E06F5F7F4F0E945E36809349088CE384
:1057300098E00E948B1D80912C088130B9F08091F7
:10574000D608482F50E070E060E0C090C808D090C4
:10575000C908E090CA08F090CB08C416D506E60642
:10576000F70608F489CF8F3F09F486CF8FEF809337
:10577000D60860E08CE398E00E94EC1C10923F0891
:105780008CE398E00E94951D81E080932F08DF91C3
:10579000CF911F91FF90EF90DF90CF9008958DE112
:1057A00090E399CF85E190E3ADCF0C9422360C9431
:1057B0001A360F931F93CF93DF9380E190E00E94FE
:1057C000D72B813D09F048C081E190E00E94D72BA2
:1057D000863609F041C082E190E00E94D72B8933E0
:1057E000D9F583E190E00E94D72B082F81E00111C9
:1057F00001C080E080937E0284E190E00E94D72B7C
:10580000D82F8093740285E190E00E94D72B182F47
:105810008093760286E190E00E94D72B809302016C
:1058200088E190E00E94D72BC82F8093730289E112
:1058300090E00E94D72B9D2FD11708F4912F9093C1
:1058400076029C2FC81708F4982F909375020111C7
:1058500001C0CD2FC0937B02DF91CF911F910F919B
:1058600008951F920F920FB60F9211248F939F935A
:105870008091E1009091E100937F9093E10083FF9C
:105880000FC01092E90091E09093EB001092EC00B1
:1058900092E39093ED001092B30398E09093F000A0
:1058A00082FF22C093E09093E9009091F200992347
:1058B00019F09AE39093E8009091A403992341F0A2
:1058C0009091A40391509093A403911101C05D9A0B
:1058D0009091B203992341F09091B203915090932B
:1058E000B203911101C0289A84FF18C08091E20090
:1058F0008E7E81608093E2008091E1008F7E8093B4
:10590000E1008091A5038E7E80618093A5039F9125
:105910008F910F900FBE0F901F90189580FFF7CFBB
:105920008091E2008E7E80618093E2008091E100B0
:105930008E7E8093E1008091A5038E7E8160E5CF0D
:105940001F920F920FB60F921124CF92DF92EF9217
:10595000FF920F931F932F933F934F935F936F93F8
:105960007F938F939F93AF93BF93EF93FF93CF93C7
:10597000DF93CDB7DEB76C97DEBFCDBF1092E900E5
:105980008091E80083FF25C068E0CE0145960E9423
:10599000A01A82EF8093E8008D8987FF39C090912B
:1059A000E80090FFFCCF982F907609F034C19E89D3
:1059B0004F89588D2F89F88C911131C0803861F54D
:1059C0008091A3038093F1001092F1008EEF8093F9
:1059D000E8006C960FB6F894DEBF0FBECDBFDF9126
:1059E000CF91FF91EF91BF91AF919F918F917F9157
:1059F0006F915F914F913F912F911F910F91FF9068
:105A0000EF90DF90CF900F900FBE0F901F901895E2
:105A10009EEF9093E800C7CF1092F100D5CF913060
:105A200059F48111D3CF4130510581F68091A30300
:105A30008D7F8093A303CACF933049F48111C6CFE1
:105A40004130510519F68091A3038260F2CF953061
:105A500041F48091E80080FFFCCF20682093E300B0
:105A6000B5CF963009F0A9C00B8D1C8D22E01092A5
:105A7000E9001092A1031092A003F2122EC010921E
:105A80009F0310929E030E946F1A1F8299E09983D0
:105A9000FA8291E09E8390EA98879AEF9987209105
:105AA000A0033091A103275F3F4F3C832B838D835D
:105AB0001092E9001092A1031092A00310939F038B
:105AC00000939E0349E050E0BE016F5F7F4F80E08E
:105AD0000E94491A0E946F1A79CF10939F03009376
