:100000000C9403030C942B030C942B030C942B03E0
:100010000C942B030C942B030C942B030C942B03A8
:100020000C942B030C942B030C94211A0C94901A0F
:100030000C942B030C942B030C942B030C942B0388
:100040000C942B030C940C1D0C942B030C942B037D
:100050000C942B030C942B030C942B030C94C21CB8
:100060000C942B030C942B030C942B030C942B0358
:100070000C942B030C942B030C942B030C942B0348
:100080000C942B030C942B030C942B030C942B0338
:100090000C942B030C942B030C942B030C942B0328
:1000A0000C942B030C942B030C942B034E6577209C
:1000B000686172642067616D65004E6577206561D7
:1000C00073792067616D65000101FF030101F7038A
:1000D000556E646F206C617374206D6F766500538C
:1000E00061766520666F72206C617465720047618D
:1000F0006D652073746174697374696373005175FD
:1001000069742067616D6500526573756D65206760
:10011000616D650017534400161378001613140020
:100120001510200015201000540A03E181867F3E3F
:10013000186D830F0F0E0183866033186DC3198FFE
:100140001803C38E6033186DE330CF1803C39E606D
:100150003630CDE360CF3006C79E7E3E30CDB360F3
:10016000CF300CC6F6603330D9B660CF33CFCCF683
:100170006061B0DB1E60CF30D86CE6C061B0DB1EC2
:10018000618F19986CC6C063B19B0E330F0FB078A6
:10019000C6FF7E1F1B061E0FBA00AC00EE004024F7
:1001A00000008000012400000084800001040000A1
:1001B000008880000104000000908F161D24CE00EE
:1001C00000A099993325990000C090912125110034
:1001D00000A0909121261F000090909121251000F1
:1001E000008899913325980000848F111D24CF0039
:1001F00000000000000000000000000000000000FF
:1002000000101C700E00100000103EF83F8010001F
:1002100000383EF83F803800007C3FF83F807C008B
:1002200000FE3FF9DF70FE0001FF1FF3FFF9FF0042
:1002300003FF8FF3FFFBFF8003FF8FE3FFF9FF0056
:1002400003FF87C3F5F8FE0001D70381E4F07C00CB
:100250000010038004003800003801000E00100078
:1002600000FE01003F8010000000000000000000C0
:100270000000009000400000003C008200000000F0
:100280000044008200000000004078979C4B38003A
:100290000060CC92024C6400001884920248440032
:1002A000000C84921E487C00000484922248400086
:1002B0000044CC9222486000007878939E483C002D
:1002C000004500180100004861726420776F6E3AA3
:1002D00020202020200048617264207374617274B1
:1002E00065643A20004561737920776F6E3A20206B
:1002F00020202000456173792073746172746564F5
:100300003A2000CC00C80000000000240027002A8A
:10031000002D003000D5F08D14A1C881CFD9F1AFE8
:10032000200000000000250028002B002E003100D6
:1003300003053F213F1208120A100A0E1C0E0C1E64
:100340000C141A14161F161E131E1E1B1E1E1F1E13
:100350003F213F3A2F3A173D173F213F181F020414
:100360000A041F0E04040E1F0A1F0A0E0E1F04119A
:100370000E2E252E2F2A2E262929021F02081F089D
:10038000150E04040E150E15151B151B040604048A
:100390000C040000000017000300031F0A1F16379B
:1003A0001A1904130A153A000300000E11110E0069
:1003B0000A040A040E0400300004040400100018AB
:1003C00004031F111F121F101D151711151F0704FD
:1003D0001F17151D1F151D01011F1F151F17151FA5
:1003E000000A00003200040A110A0A0A110A040174
:1003F00015020E11171E051E1F150A0E110A1F11D8
:100400000E1F15111F05010E111D1F041F111F11B5
:1004100008100F1F041B1F10101F061F1E040F0EB5
:10042000110E1F09060E112E1F051A121509011FA4
:10043000011F101F0F180F1F0C1F1B041B031C0391
:10044000191513001F11030418111F0002010220C7
:1004500020200001020C121E1F120C0C12120C1292
:100460001F0C1A14041E05242A1E1F021C141D1022
:1004700020201D1F0814111F101E041E1E021C0C1C
:10048000120C3E0A040C123E1E040214160A020F3D
:10049000120E101E0E100E1E081E120C1226281E02
:1004A000322A26041E21001F00211E040102013FE2
:1004B000213F05008930080238024978681400009D
:1004C0000801FE00EE00DF00D0004500080100003A
:1004D000080B0002020200000904000001020200F1
:1004E0000005240010010524010101042402060571
:1004F00024060001070581031000400904010002E1
:100500000A000000070502024000000705830240C0
:1005100000000403090412010002EF02014041231C
:10052000368000010102030141726475696E6F201B
:100530004C4C430041726475696E6F204C656F6E60
:100540006172646F004500680100000500680138B1
:100550000100000500380168010000F6E8DBCFC3A8
:10056000B8AEA49B928A827B746E68625C57524ECE
:100570004945413E3A3734312E2C29272523211F66
:100580001D1C1A1917161514131211100F0E0D0C2D
:100590000B0A0908070600000000230026002900B6
:1005A0002C002F00040404040403040502020202C8
:1005B00004030202020206060606060604040202FC
:1005C00002040404080201104080401020408040D2
:1005D0008008020401804020100201108010204099
:1005E00040200000000200090F0000030401000C7D
:1005F00000000000000000000000000000000000FB
:100600000000501D422711241FBECFEFDAE0DEBFED
:10061000CDBF11E0A0E0B1E0EAEEF3E502C0059045
:100620000D92A234B107D9F725E0A2E4B1E001C0F0
:100630001D92AB38B207E1F713E0C2E0D3E004C08B
:100640002197FE010E94CE29C130D107C9F70E942F
:10065000E01D0C94E8290C940000CF93DF93EAE6A8
:10066000F5E0C081D1818881AEE6B5E09C91892B0F
:100670008883C0916C05D0916D05988180916F053C
:100680008095892388830190F081E02D90818C9161
:10069000809589238083DF91CF9108957F928F92F7
:1006A0009F92AF92BF92CF92DF92EF92FF920F9301
:1006B0001F93CF93DF93FB012491319644918033B4
:1006C0000CF0D4C0022E000C330B121613060CF0E3
:1006D000CDC0E82F082E000CFF0BDF01A40FB11DC9
:1006E00047FDBA951A161B060CF0C0C06E5F7F4F0F
:1006F0008901095F1F4FA3E015950795AA95E1F7BA
:1007000087FF0BC0480F0E9FC0010F9F900D1E9FCB
:10071000900D1124681B790B80E0A42F042E000C8F
:10072000BB0BA80FB11D87FDBA95D19714F040E31C
:10073000481BF09068052535310514F024E530E0BC
:10074000A0916505A827982F977031E001C0330F5D
:100750009A95EAF7859585958595F4E58F02C00110
:10076000112484589E4FB0E0042E000C550BEE244B
:10077000E394B41715060CF079C0FB017490F1E016
:10078000FF121FC06B01EC01E0E8BE2EB72019F08C
:10079000B880B32AB882E69531F4EFEFCE1ADE0ABC
:1007A000F6017490E0E82196BC2EB81AB21668F3F0
:1007B000330F19F48C5A9F4F31E0BF5F600F711FE8
:1007C000D8CFF11019C0A32EA0946B01EC01E0E882
:1007D000BE2EB72019F0B880BA20B882E69531F461
:1007E000FFEFCF1ADF0AF6017490E0E82196BC2EE5
:1007F000B81AB21668F3DCCFF3E06B01EC01E0E865
:10080000FF1220C0932E9094F0E8BF2EA12CEB2D68
:10081000E72139F0E8818A2E8A2480FE11C0E32B7B
:10082000E883B69439F4EFEFCE1ADE0AF60174903D
:10083000E0E8BE2EA3942196A21648F3AE25B8CFC9
:10084000E921EECFBE2EB72019F0B880B326B882CA
:10085000E69531F4FFEFCF1ADF0AF6017490E0E875
:100860002196BC2EB81AB21668F3A2CFDF91CF91B1
:100870001F910F91FF90EF90DF90CF90BF90AF90BE
:100880009F908F907F90089590E0880F991FE0913E
:100890003F05F0914005E80FF91F25913491309301
:1008A000500520934F05F90185919491909134055D
:1008B000989F802D112480935105F90165917491C1
:1008C000472F50E08417150629F020F0F9012591F3
:1008D0003491832F989F802D112480935205089581
:1008E000CF93DF9300D000D01F92CDB7DEB74983FE
:1008F0005A836B837C838D83A091A70491E09A0F28
:100900009093A70485E08A9FD0011124AB58BB4F78
:10091000FE01319601900D928A95E1F79A3010F020
:100920001092A7048091A8048F5F8B3050F48093BD
:10093000A8040F900F900F900F900F90DF91CF9120
:1009400008958AE0F4CFFC0180917201882311F1AF
:100950003FB7F89482E08093E9002091F200822F63
:1009600090E01816190614F481E090E0882339F01D
:10097000289844E6409371014091F100408322237E
:1009800039F02091F200211103C02BE62093E800FA
:100990003FBF08958FEF9FEF08952FB7F89483E03E
:1009A0008093E9009091E800892F807295FF04C040
:1009B0009091F20080E4891B2FBF08958091690116
:1009C00081110DC082E08093650184E0809366010F
:1009D000109268011092670181E08093690185E6B9
:1009E00091E00895CF93DF931F92CDB7DEB769836F
:1009F000DC01ED91FC910280F381E02D41E050E0BB
:100A0000BE016F5F7F4F09950F90DF91CF910895E1
:100A100083E08093E9008091F200882319F08AE353
:100A20008093E80008950E94CD0490E00895CF934C
:100A3000DF931F92CDB7DEB7FC018485958597FDC6
:100A400008C02FEF3FEF358724870F90DF91CF91BC
:100A50000895CE0101960E94A304019719F489819B
:100A600090E0F3CF8FEF9FEFF0CF0F931F93CF93D3
:100A7000DF931F92CDB7DEB78C01FC01848595858D
:100A800097FF0BC0CE0101960E94A304019771F459
:100A9000898190E0F80195878487F80184859585A0
:100AA0000F90DF91CF911F910F9108958FEF9FEFDE
:100AB000F1CFFC018485958597FD0BC09FB7F89415
:100AC00082E08093E9008091F2009FBF90E0019660
:100AD00008959FB7F89482E08093E9008091F20036
:100AE0009FBF90E0089540915F0150916001209177
:100AF0005D0130915E0142175307B4F49091E80014
:100B00009570E1F39091E80092FD19C08093F10097
:100B100080915F019091600101968F739927892BD5
:100B200019F48EEF8093E80080915F01909160014D
:100B300001969093600180935F0181E0089580E0C9
:100B40000895EF92FF920F931F93CF93DF93F82EA8
:100B5000192FE62E042F81E0860F880F0E9473055F
:100B600083E00E947305CF2DD12FEC0EFD2EF11CDA
:100B7000CE15DF05B9F007FF13C0FE0184910E9476
:100B80007305182F80E00E9473058123219681113F
:100B9000EFCFDF91CF911F910F91FF90EF900895CC
:100BA0008881EDCF81E0F5CFDF92EF92FF920F9336
:100BB0001F93CF93DF93D82E8A01EB017B01E40EC4
:100BC000F51ECE15DF0559F0D7FE12C0FE01849147
:100BD0000E94730521968111F4CF0FEF1FEFC8011A
:100BE000DF91CF911F910F91FF90EF90DF900895CB
:100BF0008881EECF0F931F93CF93DF931F92CDB7D2
:100C0000DEB782E0898342E450E060ED74E080E882
:100C10000E94D4050E94DE04DC0112960D911C9105
:100C20000115110589F0D801ED91FC910280F38145
:100C3000E02DBE016F5F7F4FC801099597FD04C08D
:100C4000F80100851185ECCF89810F90DF91CF915C
:100C50001F910F910895615030F02091F100FC0137
:100C600020830196F8CF289884E680937101089537
:100C7000AF92BF92CF92DF92EF92FF920F931F93AA
:100C8000CF93DF936C017B018B01040F151FEB01E8
:100C90005E01AE18BF08C017D10759F06991D6019F
:100CA000ED91FC910190F081E02DC6010995892B11
:100CB00079F7C501DF91CF911F910F91FF90EF90D0
:100CC000DF90CF90BF90AF90089581508F3008F0A3
:100CD00047C0E82FF0E0E159F94F0C94CE298C067B
:100CE00090067E0684068806B006B006B006930617
:100CF00099069D06A106A706B006AB068091800066
:100D00008F77809380000895809180008F7DF9CF48
:100D100080918000877FF5CF84B58F7784BD08955B
:100D200084B58F7DFBCF809190008F77809390006A
:100D30000895809190008F7DF9CF80919000877FFA
:100D4000F5CF8091C0008F778093C0000895809187
:100D5000C0008F7DF9CF8091C200877F8093C20051
:100D600008951F93CF93DF93282F30E0F901EE51C0
:100D7000FA4F8491F901ED53FA4FD491F901EC55F2
:100D8000FA4FC491CC23A9F0162F81110E94650659
:100D9000EC2FF0E0EE0FFF1FEE5DFC4FA591B4913C
:100DA0008FB7F894EC91111108C0D095DE23DC9335
:100DB0008FBFDF91CF911F910895DE2BF8CFCF9396
:100DC000DF9390E0FC01ED53FA4F24918C559A4F3C
:100DD000FC0184918823C9F090E0880F991FFC01E1
:100DE000E95FFC4FA591B491FC01EE5DFC4FC5910C
:100DF000D49161110DC09FB7F8948C9120958223F6
:100E00008C938881282328839FBFDF91CF910895F9
:100E1000623051F49FB7F8943C91822F80958323E0
:100E20008C93E8812E2BEFCF8FB7F894EC912E2B7B
:100E30002C938FBFEACFDF92EF92FF920F931F9315
:100E4000CF93DF93CBE0D5E001E115E0EE24EA9407
:100E500062E08A850E94DF062A8530E0F901EE51C2
:100E6000FA4F8491F901ED53FA4FF490F901EC55E2
:100E7000FA4FD490DD2029F181110E946506ED2DF5
:100E8000F0E0EE0FFF1FEA56FA4FA591B491EC91F6
:100E90008989FE22B1F081111CC021960C171D0713
:100EA000B9F68091220590911C0591509E3FB8F4AF
:100EB00090911E0591509E3F90F48F5F8093220584
:100EC00014C089898F5F898B60E08A850E94DF0664
:100ED000E4CF8F3F11F4198AF7CFE98AF5CF882341
:100EE00021F08F3F51F410922205DF91CF911F9195
:100EF0000F91FF90EF90DF9008958FEFDFCF3FB716
:100F0000F89480914D0190914E01A0914F01B091C4
:100F1000500126B5A89B05C02F3F19F00196A11DD1
:100F2000B11D3FBFBA2FA92F982F8827BC01CD0133
:100F3000620F711D811D911D42E0660F771F881F92
:100F4000991F4A95D1F708958F929F92AF92BF92C1
:100F5000CF92DF92EF92FF924B015C010E947F07DC
:100F60006B017C010E947F076C197D098E099F0926
:100F7000683E734081059105A8F321E0821A91082B
:100F8000A108B10888EEC80E83E0D81EE11CF11C50
:100F900081149104A104B10429F7FF90EF90DF9030
:100FA000CF90BF90AF909F908F9008958F929F9217
:100FB000AF92BF92CF92DF92EF92FF920F931F9367
:100FC000CF93DF936C017B018A0180910E0188230E
:100FD00009F45CC080917201882309F457C08091A4
:100FE000640180FF05C08091E00082608093E00092
:100FF000E801B12C8AEFA82E93E0892E2AE3922EE5
:10100000209711F4BB20D9F10E94CD0481110AC0B0
:10101000AA94AA20D9F161E070E080E090E00E94FB
:10102000A407EECF8C171D0611F00CF08C2F9FB784
:10103000F8948092E9002091E80025FD02C09FBF4E
:10104000DFCF282F30E0C21BD30BF701815020F0F7
:1010500041914093F100FACFE20EF31EBB2021F044
:101060009092E800B12CEBCF8091E80085FDE7CFAE
:101070009092E800BB24B394209709F3F3CF5D98D6
:1010800084E680936301101611063CF081E090E045
:10109000F6019383828310E000E0C801DF91CF91D5
:1010A0001F910F91FF90EF90DF90CF90BF90AF9086
:1010B0009F908F9008951F93CF93DF93182FD62F73
:1010C000861719F1262F281B330BC90163E070E046
:1010D0000E94BA29C62F611116C0609170057091E7
:1010E0007105809172059091730523E030E040E036
:1010F00050E00E947D29672B682B692B21F4CFEFEC
:101100001D1708F4C1E0D12FDC0F8D2FDF91CF9197
:101110001F91089580915B0190915C01863091054B
:1011200040F482309105B0F40097F9F0019779F01E
:1011300008958D309105E0F7069747E0489F9001AC
:10114000499F300D1124C90187559B4F089586EFA3
:1011500094E00895029747E0489F9001499F300D21
:101160001124C90186529B4F08958DEF94E0089594
:10117000FC0181819281992361F06A3050F42681CB
:101180002A3008F02AE0261B330B21503109220FA8
:10119000820F0895EF92FF920F931F93CF93DF93E7
:1011A0007C018B01EA010E948A08DC01E0915B016D
:1011B000F0915C01ED30F105D8F4EE51F74F9C91C0
:1011C0000C94CE29EF08FF080D090D090D090D0932
:1011D0001809180918092809280928092809965FF3
:1011E000F701908311968C918C5FF80180831882AF
:1011F000DF91CF911F910F91FF90EF900895169678
:101200002C911697222321F0243028F42158220F04
:10121000965F920FE5CF24E0FBCF9750F7019083C4
:1012200011968C918C5FF801808381E08883E0CFF8
:10123000965FF701908360915A013EEFF32E6111A2
:1012400002C024E0F22ECD010E94B8088F0DCDCF50
:101250009750F701908360915A019EEFF92E61112A
:1012600002C084E0F82ECD010E94B8088F0DDBCFBC
:10127000DC011696EC911697EE2361F013968D9192
:101280009C911497E1501696EC93E80FF92FF11DFD
:101290008081089581E00895DC0116962C911697BF
:1012A00030E06217730754F4261B370B1396ED9149
:1012B000FC91E20FF31F31978081089581E008953A
:1012C000DC011696EC91169715968C911597E817F8
:1012D00060F413968D919C91149721E02E0F169631
:1012E0002C93E80FF92FF11D608308950F931F933E
:1012F000CF93DF938C01C0910A05C150DD0BCF3F26
:10130000DC0759F0BE0184E095E00E944C09682F8B
:10131000C8010E9460092197F2CFDF91CF911F9100
:101320000F910895FC01178A158A14A213A2108E3A
:10133000109273011092740110927701109299002B
:101340001092980008950F931F93CF93DF93EC01B1
:101350008B010E9492091E870D871B8A1A8A81E0E1
:10136000898389E08E8B198E1B8E1D8EDF91CF9124
:101370001F910F910895E09139058E2F90E0880F0D
:10138000991FE0913705F0913805E80FF91F859115
:1013900094918F3F980719F4109230050895909317
:1013A0003C059927880F991FE0913A05F0913B057C
:1013B000E80FF91F6591749180E395E00E94A309FD
:1013C000809139058F5F80933905089561EC72E053
:1013D00080E395E00C94A309DC01643570F540339B
:1013E00060F51F968C911F97E62F062E000CFF0BC1
:1013F000242F25952595259594E52902E00DF11DCD
:101400001124E458FE4F2081342F37708230B1F41C
:10141000822F90E0032E02C0959587950A94E2F7FB
:1014200080958170811114C081E090E001C0880F27
:101430003A95EAF78095822380830895833091F767
:101440001C968C9181706427609561708613ECCF37
:1014500081E090E001C0880F3A95EAF7822BECCF4B
:10146000AF92BF92CF92DF92EF92FF920F931F93B2
:10147000CF93DF93182F062FC0E0D3E08AEFD82E4A
:101480009EEFE92E842F8470C82E842F8270B82E90
:10149000842F8870A82E4170F42ECF5F8C2F880F78
:1014A0008F5FE80ECC2081F0402F4D0F612F6C0F25
:1014B00089E595E00E94EC09402F4C0F6D2F610FDC
:1014C00089E595E00E94EC09BB2081F0402F4D1B7F
:1014D000612F6C0F89E595E00E94EC09402F4C1BB1
:1014E0006D2F610F89E595E00E94EC09AA2081F03B
:1014F000402F4C0F612F6D1B89E595E00E94EC0990
:10150000402F4D0F612F6C1B89E595E00E94EC097F
:10151000FF2081F0402F4C1B612F6D1B89E595E06A
:101520000E94EC09402F4D1B612F6C1B89E595E053
:101530000E94EC09CD173CF4E7FCAFCFD150D39417
:10154000D394ED0CAACFDF91CF911F910F91FF9013
:10155000EF90DF90CF90BF90AF900895EF92FF9201
:101560000F931F93CF93DF938C01F62ED42FE22E8F
:10157000C0E0CE1544F46F2D6C0F4D2FC8010E94B2
:10158000EC09CF5FF6CFDF91CF911F910F91FF90C4
:10159000EF90089542E0460F23E0682F89E595E03B
:1015A0000C94AE0A44E0460F23E0682F89E595E0ED
:1015B0000C94AE0A462F23E0682F89E595E00C9441
:1015C000AE0ADF92EF92FF920F931F93CF93DF93B8
:1015D0007C01D62FD22EC42F002E000C110B040F2D
:1015E000111D47FD1A958C2F0C2E000C990B80179E
:1015F000910744F42D2D4C2F6D2FC7010E94AE0A88
:10160000CF5FF1CFDF91CF911F910F91FF90EF90BE
:10161000DF9008954F925F926F927F928F929F9288
:10162000AF92BF92CF92DF92EF92FF920F931F93F0
:10163000CF93DF93EC016A3049F42E8198858A8537
:10164000299F800D11248A871986A6C06D3009F460
:10165000A3C0898483E588150CF487C0DA848FE2FF
:101660008D150CF482C01E812F812150330B129FE7
:10167000C001139F900D1124880D911D87FC9A9530
:10168000181619060CF071C028858D2D0D2C000C34
:10169000990B129F800D911D1124181619060CF03C
:1016A00064C07F84C82C912CE62EF12C292D092CA6
:1016B000000C330B8F8190E0281739070CF054C0D1
:1016C0000197E0E02817390771F0E89EF001E99EE4
:1016D000F00DF89EF00D11242E0F3F1FED85FE85B5
:1016E000E20FF31FE4915D2C612C492C480C2885F6
:1016F000862D062C000C990B2817190691F18CF1F8
:10170000AE2EB12CE0FF16C0113061F4462D4D0D08
:10171000642DCE010E94EC09F501F595E7956394DF
:10172000510EE5CF012F212F452D6C2DCE010E94AA
:10173000E10AF2CF88899F85891771F38F8711306D
:1017400041F4462D4D0D642DCE010E94EC097F869B
:10175000E3CF012F212F452D6C2DCE010E94E10AF0
:10176000F6CF9394C10EA2CF7F862E813F818985CB
:10177000239F800D112489879D81992369F0082E6C
:10178000000C990B44E550E0239F401951091124A6
:10179000481759070CF452CF81E090E0DF91CF91C8
:1017A0001F910F91FF90EF90DF90CF90BF90AF907F
:1017B0009F908F907F906F905F904F900895EF92E1
:1017C000FF920F931F93CF93DF938C017B01D0E0A7
:1017D000C0E0F701EC0FFD1F6491662339F0C801EA
:1017E0000E940A0B892B11F02196F3CFCE01DF91D5
:1017F000CF911F910F91FF90EF900895EF92FF927C
:101800000F931F93CF93DF938C01D62FF42EE22EEC
:10181000C0E0CE1544F44F2D4C0F6D2FC8010E942F
:10182000EC09CF5FF6CFDF91CF911F910F91FF9021
:10183000EF9008950F931F93CF93DF93182FD62F18
:10184000C42F022F242F462F682F89E595E00E9490
:10185000AE0A4FEF400F4D0F2C2F612F89E595E019
:101860000E94AE0A202F4D2F612F89E595E00E943E
:10187000FE0B6FEF6C0F610F202F4D2F89E595E068
:10188000DF91CF911F910F910C94FE0B8F929F923D
:10189000AF92BF92CF92DF92EF92FF920F931F937E
:1018A000CF93DF93082FB62E942EA22E83E0F82E2E
:1018B000D0E0C3E09AEFE92E1EEFCC24C394C20E11
:1018C000DF5F1F0D2C2F220F4B2D4C1B8A2C8F0CF2
:1018D000DB2CDD1A81E02C0D602F981218C06D0FE3
:1018E00089E595E00E94FE0B282D4D2D6C2F600F91
:1018F00089E595E00E94FE0BDC179CF417FD04C0FF
:10190000C150E394E3941E0DF394F394D9CF6D1B6F
:1019100089E595E00E94FE0B282D4D2D602F6C1B54
:10192000E7CFDF91CF911F910F91FF90EF90DF9064
:10193000CF90BF90AF909F908F9008951F93CF93BB
:10194000DF93C82F162F2EE4482F63E089E595E03A
:101950000E94AE0ADC2FD10F4FEF4D0F2EE463E053
:1019600089E595E00E94AE0A1650CD5F212F4C2FDD
:1019700060E089E595E00E94FE0B212F4C2F63E586
:1019800089E595E00E94FE0B41E06C2F83E00E9408
:10199000300A42E06C2F80E50E94300AD45044E0C7
:1019A0006D2F80E50E94300A48E06D2F83E0DF91C3
:1019B000CF911F910C94300A462F23E0682F89E5C0
:1019C00095E00C94FE0B42E0460F23E0682F89E57A
:1019D00095E00C94FE0B42E0460F62E0680F23E0B6
:1019E00089E595E00C94FE0BCF93DF93C82FD62F9B
:1019F0000E94DA0A6D2F8C2F0E94DC0C6D2F8C2F29
:101A00000E94CA0A6D2F8C2F0E94EB0C6D2F8C2F19
:101A1000DF91CF910C94D20A462F62E0680F23E049
:101A200089E595E00C94FE0BCF93DF93C82FD62F5A
:101A30000E94DC0C6D2F8C2F0E94CA0A6D2F8C2FF8
:101A40000E940C0D6D2F8C2FDF91CF910C94EB0C1D
:101A50000F931F93CF93DF93FA013197ED30F10588
:101A600008F0FAC0D62FC82FE85CF24F0C94CE29AC
:101A7000450D690D7F0D8E0D940D9A0DA40DB20DBF
:101A8000C00DCA0DEC0DFA0D110E11E0180F462F06
:101A9000612F89E595E00E94EC0901E00D0F24E03B
:101AA000402F6C2F89E595E00E94FE0B62E06C0FE1
:101AB00024E0402F89E595E00E94FE0B42E04D0FA7
:101AC000612F89E595E0DF91CF911F910F910C94E3
:101AD000EC090E94DA0A6D2F8C2F0E940C0D6D2FDD
:101AE0008C2F0E94CA0A6D2F8C2F0E94E30C6D2F41
:101AF0008C2FDF91CF911F910F910C94D20A0E94ED
:101B0000DA0A6D2F8C2F0E940C0D6D2F8C2F0E94E6
:101B1000CA0A6D2F8C2F0E94EB0CE9CFDF91CF9179
:101B20001F910F910C94140DDF91CF911F910F9184
:101B30000C94F40C0E94F40C6D2F8C2FDF91CF913C
:101B40001F910F910C94E30C0E94DA0A6D2F8C2FD9
:101B50000E940C0D6D2F8C2FDF91CF911F910F9153
:101B60000C94EB0C0E94F40C6D2F8C2F0E94E30C54
:101B70006D2F8C2FDF91CF911F910F910C940C0D35
:101B80000E94140D6D2F8C2FDF91CF911F910F911B
:101B90000C94DA0A0E94DA0A6D2F8C2F0E940C0D29
:101BA0006D2F8C2F0E94EB0C6D2F8C2F0E94D20A70
:101BB0006D2F8C2F0E94E30C6D2F8C2F0E94DC0C5C
:101BC0006EEF6C0F25E04D2F89E595E0DF91CF9109
:101BD0001F910F910C94FE0B0E940C0D6D2F8C2FFA
:101BE0000E94EB0C6D2F8C2F0E94D20A43E04D0F08
:101BF0006C2F67CF0E94DA0A6D2F8C2F0E940C0D7C
:101C00006D2F8C2F0E94DC0C43E04D0F23E06C2FD6
:101C100089E595E00E94AE0A44E04D0F61E06C0F4B
:101C200050CF0E94DC0C6D2F8C2F0E94E30C42E001
:101C30004D0F61E06C0F89E595E00E94EC09CE5FE5
:101C400022E04D2F6C2F89E595E00E94FE0B43E0CA
:101C50004D0F22E06C2FB8CFDF91CF911F910F91E4
:101C600008950F931F93CF93DF93082FC62F413012
:101C7000510599F168F04230510509F45BC04330D9
:101C8000510509F48AC0DF91CF911F910F910895FA
:101C9000D2E0D80F462F6D2F89E595E00E94EC0920
:101CA00041E04C0F61E0600F23E089E595E00E9480
:101CB000AE0A42E04C0F25E0602F89E595E00E94D6
:101CC000AE0A43E04C0F25E0602F89E595E00E94C5
:101CD000AE0A44E04C0F6D2F58C0D1E0D80F23E07E
:101CE000462F6D2F89E595E00E94AE0A42E04C0F29
:101CF00023E06D2F89E595E00E94AE0ACF5F23E0D7
:101D00004C2F602F89E595E00E94FE0B64E0600F88
:101D100023E04C2F89E595E00E94FE0B62E0600F06
:101D200024E04C2F89E595E0DF91CF911F910F9131
:101D30000C94FE0BD1E0D80F462F6D2F89E595E06E
:101D40000E94EC0963E0600F4C2F89E595E00E944A
:101D5000EC0941E04C0F25E0602F89E595E00E94F9
:101D6000AE0A42E04C0F25E0602F89E595E00E9425
:101D7000AE0A43E04C0F23E06D2F89E595E00E9409
:101D8000AE0A44E04C0F62E0600F89E595E0DF9118
:101D9000CF911F910F910C94EC09D2E0D80F462FF0
:101DA0006D2F89E595E00E94EC0911E0100F41E0EC
:101DB0004C0F23E0612F89E595E00E94AE0A42E0D6
:101DC0004C0F25E0602F89E595E00E94AE0A43E0C4
:101DD0004C0F23E0612F79CFDF92EF92FF920F93A8
:101DE0001F93CF93DF93182FC62FD42FD42EDD1C33
:101DF000DD24DD1C83E009F480E080936805809396
:101E000069050CE028E0FF24F394FC0E4F2DEE242E
:101E1000E394E10E6E2D89E595E00E94E10A81E0F0
:101E2000809368058093690528E04C2F6E2D89E525
:101E300095E00E94AE0A28E04DE04C0F6E2D89E53A
:101E400095E00E94AE0A2CE04F2D612F89E595E0C8
:101E50000E94FE0B2CE04F2D69E0610F89E595E0B3
:101E60000E94FE0BD1101FC04D2F50E084E055950D
:101E700047958A95E1F74370552762E06C0F82E041
:101E8000810F0E94310EDF704D2F50E067E06C0F24
:101E900085E0810FDF91CF911F910F91FF90EF901F
:101EA000DF900C94280DDF91CF911F910F91FF903F
:101EB000EF90DF900895EF92FF920F931F93CF93CF
:101EC000DF938C01FC018681F12CE12C8A3020F01B
:101ED000282F2A50330B7901D0E0C0E0F801668149
:101EE0008AE06A3008F4862F8C171D06B1F0ACF03A
:101EF00070E06C1B7D0B615071096E197F09C80180
:101F00000E944C096C2F660FF8019181690F482FD0
:101F100080810E94EC0E2196E1CFDF91CF911F913D
:101F20000F91FF90EF9008951F93CF93DF938091CF
:101F30000305882339F041E86091FE048091FD0497
:101F40000E94EC0ED0E0C0E06091FC04643090F59B
:101F500070E0C617D7079CF1CAEDD4E013E08E817C
:101F60008823E9F070E060E0CE010E944C09482F20
:101F7000698188810E94EC0E279684E0C63FD807CD
:101F800071F7C9EAD4E0CE010E945B0F279684E086
:101F9000CA3DD807C1F7DF91CF911F9108951093E3
:101FA0006805109369052EE04AE0698188810E94E6
:101FB0001A0CE2CFC330D1057CF663E070E06C1BF5
:101FC0007D0B6150710986EF94E00E944C092C2F23
:101FD000220F9091F604482F6091F704822F890F09
:101FE0000E94EC0E2196B0CF8EBD00000DB407FE0E
:101FF000FDCF8EB50895089590E080E00895FC012E
:10200000908197FF03C09F77908308959068FCCFDD
:102010000F931F93CF93DF931F92CDB7DEB78B0142
:102020000E9438098983CE0101960E94FF0F6981C1
:10203000C8010E9460090F90DF91CF911F910F910D
:102040000895FC01208130E084E0359527958A953C
:10205000E1F7237033272250310981E02230310526
:1020600008F080E00895EF92FF920F931F93CF93B3
:10207000DF934091800550918105609182057091B8
:1020800083052FB7F8948091780190917901A09100
:102090007A01B0917B012FBF481B590B6A0B7B0B58
:1020A00080917F0590E0B0E0A0E00091780510916C
:1020B000790520917A0530917B0584179507A6074D
:1020C000B70708F04EC0011511052105310509F4C7
:1020D00048C02FB7F8948091780190917901A09130
:1020E0007A01B0917B012FBF20917F05820F911D56
:1020F000A11DB11D8093800590938105A093820559
:10210000B09383058091700590917105A09172053F
:10211000B09173050196A11DB11D80937005909338
:102120007105A0937205B093730510927805109213
:10213000790510927A0510927B050E947F076093C3
:1021400074057093750580937605909377050E94CA
:102150001B0781E0DF91CF911F910F91FF90EF90CE
:102160000895012B022B032B09F00FC1809130053C
:10217000882331F080913105811102C00E94BB0992
:1021800080913105882309F43EC080914505811175
:102190003AC080913D0590913E05E0914205F09155
:1021A0004305EE0FFF1FE80FF91F2591349121150C
:1021B000310509F441C1A9015695479556954795B2
:1021C000842F20FDE4C08F738093440580913405F3
:1021D000839F802D11248093450510925505109200
:1021E00054051092530581E0809347058093770151
:1021F0001092480580914205909143050196909375
:1022000043058093420580914705882341F08091E2
:10221000450581112DC180E395E00E9492098091CE
:102220008405882309F44DC0CCE0C81B8C3008F02D
:10223000C0E0FF24F394F0925F05109268051092BD
:102240006905D09161051C2F1D1B03E00D0F4DE2A8
:10225000410F2EE463E089E595E00E94E10AD45045
:10226000105D2D2F41E0612F80E50E94460C2D2F3F
:1022700042E0612F83E00E94460CF0926805F092E4
:1022800069058091610563E0680F2C2F281B822F60
:10229000835D0E949E0C84E08093620580916105BD
:1022A000C81BC15DC093630560918505709186056B
:1022B00089E595E00E94DF0B809184058150809331
:1022C0008405809165058F5F809365050CE711E0BB
:1022D000C0E00E942D0382E20E94F40FCF5F8C2F9A
:1022E0000E94F40F87E00E94F40F81E20E94F40F35
:1022F00086E10E94F40F8FE70E94F40FE0916C05D5
:10230000F0916D05808190916F05892B8083E0911C
:102310006A05F0916B05908180916E058095892307
:1023200080837801D0E0D7018D917D010E94F40F68
:10233000DF5FD435C1F70C5A1F4FC63051F680917C
:102340005D0581110EC0ECE7F1E088EF91E0DF015F
:102350009C011D9221503040E1F7109262051092CD
:1023600063050E947F0760937805709379058093D9
:102370007A0590937B052091740530917505621B59
:10238000730B70937D0560937C0580E0E3CEC901FB
:10239000E6E096958795EA95E1F78F71932F9695EC
:1023A0009695969590514F70423099F1D0F4442310
:1023B00009F43CC04130B9F1E0914205F091430588
:1023C0003196F0934305E0934205CF01880F991FA2
:1023D000E0913D05F0913E05E80FF91F25913491FC
:1023E000EACE433061F0443039F720913405289F1C
:1023F000802D112480934D0590934E05DDCF2091C3
:102400003405289F802D112480934B0590934C0513
:10241000D3CF20913405289F802D11248093490526
:1024200090934A05C9CF0E944404C6CF8B3008F070
:102430008AE080934605C0CF20914105211112C04A
:102440001092310580913005811105C080E395E03F
:102450000E949209D8CE0E94BB09809142059091BA
:102460004305B4CF1092430510924205FC01B6CF4C
:1024700081508093450580915505811142C020917E
:102480005305309154052F5F3F4FC901880F991FA5
:10249000E0914F05F0915005E80FF91F8591949157
:1024A000482F477040935605492F469546954093CF
:1024B0005705AC0164E0569547956A95E1F74F736F
:1024C00090913405499F402D11244093550583FB7D
:1024D000882780F980937601309354052093530523
:1024E0008091510590E02817390758F02091520546
:1024F000222309F492C0821B910990935405809382
:10250000530580915505815080935505809148056C
:1025100031E0380F3093480540914405209157052C
:10252000240F80913C05280F2093320560914B05C4
:10253000662371F070E0832F032E000C990B0E942C
:10254000BA2980914C05869F200D112420933205D5
:102550008091320590E0CB966BE370E00E94BA293F
:1025600080933205209146052093330560914905FB
:10257000662381F0062E000C770B832F032E000CB0
:10258000990B0E94BA2980914A05869F200D11243B
:102590002093330560914D056623A1F0832F330FFF
:1025A000990B70E00E94BA29CB0162E070E00E94B2
:1025B000BA2920914E0590913305289F900D112442
:1025C000909333054F3371F1809133058A300CF0CD
:1025D00089E087FD80E080933305F894E09132052F
:1025E000F0E0E55AFA4FE491E093750180913505EA
:1025F00090915805899F802D112490913305899FD2
:10260000802D112490915605899F802D112480934F
:10261000740180937301789402CE80E395E00E9468
:1026200092096FCF10923305D8CF8F929F92AF92BD
:10263000BF920F931F93CF93DF93CDB7DEB7A197D0
:102640000FB6F894DEBF0FBECDBF19A2423008F41A
:102650004AE08E010F5D1F4F842E912CB12CA12CCE
:10266000A50194010E947D29E62FB901CA01EA3033
:1026700044F5E05DD801EE938D01232B242B252B0F
:1026800079F790E080E0109769F0FD01019000205B
:10269000E9F73197AF014A1B5B0BBD0189E595E076
:1026A0000E943806A1960FB6F894DEBF0FBECDBFCC
:1026B000DF91CF911F910F91BF90AF909F908F901E
:1026C0000895E95CD7CF42E050E06EE371E00C94EE
:1026D0003806CF93DF93BC0189E595E00E94DF0BBC
:1026E000EC0189E595E00E9463138C0F9D1FDF913B
:1026F000CF9108952F923F924F925F926F927F9267
:102700008F929F92AF92BF92CF92DF92EF92FF9201
:102710000F931F93CF93DF93382E292ED62E10922E
:102720005D0555245A94412CD0E000E3C0E0CC2450
:10273000C394862E912C0E9433108823E1F380915C
:102740002005002E000C110B813041F090912105E5
:10275000913021F090912205913011F5D0916105D1
:10276000D195DD9DD02D1124D250813091F463E5B7
:1027700075E080E395E00E94A3095C2EC8018D1BE3
:102780009109D7FD939502970CF496C04424439485
:1027900038C06BE475E080E395E00E94A309EECFBA
:1027A0004110ECCF80911F058F3F51F08370813035
:1027B00039F4CF5F65E475E080E395E00E94A309FA
:1027C00080911D058F3F51F08370813039F4C150E5
:1027D00065E475E080E395E00E94A3098C2F0C2E40
:1027E000000C990B8815990509F464C0C7FF02C055
:1027F000CFEFCD0D80916105D4E0D80F8C9FD0191B
:1028000011240D0F111DD7FD1A9517FF02C00F5F80
:102810001F4FC80195958795182F082F10926205B4
:1028200080936305C0925F0510925E05E32CF22C45
:10283000B12CA12C6C2E0C2E000C77086A147B0492
:1028400059F483E08093620580916105912FC89FC0
:10285000900D112490936305F701859194910E9446
:1028600069138FEFA81AB80A92E0E90EF11CAD14B3
:1028700028F3109268051092690580916105412F37
:10288000C89F400D1124415024E560E089E595E0A2
:102890000E94AE0AC0926805C092690580916105E8
:1028A00063E0680FC89F100D1124812F82500E9491
:1028B0009E0C41CFC0E09ECF852DDF91CF911F911F
:1028C0000F91FF90EF90DF90CF90BF90AF909F90CF
:1028D0008F907F906F905F904F903F902F900895D2
:1028E000CF92DF92EF92FF92CF93DF936C01990F1B
:1028F000EE08FF08F7FE1FC06DE289E595E00E9433
:102900000A0BEC0166277727CB016C197D098E092C
:102910009F094AE00E941513C80FD91F89E595E069
:102920000E9463138C0F9D1FDF91CF91FF90EF905A
:10293000DF90CF9008954AE0C701B6010E941513B9
:10294000EC01ECCF0E9433108823E1F31092620572
:102950001092630564EF72E089E595E00E94DF0B59
:1029600080914A0190914B010E94701465EE72E0D3
:1029700089E595E00E94DF0B809148019091490123
:102980000E94701466ED72E089E595E00E94DF0B0D
:1029900080914601909147010E94701467EC72E0AB
:1029A00089E595E00E94DF0B8091440190914501FB
:1029B0000E94701480912005813049F0809121059A
:1029C000813029F080912205813009F0BBCF089534
:1029D0000F931F93CF93DF938C01EB010E94352956
:1029E0008883C80101960E9435298983CE01DF9131
:1029F000CF911F910F910895EF92FF920F931F9324
:102A0000CF93DF93EC018B01FB01168240960E946D
:102A10003529E82E6196F12CFE1451F0CE010E946A
:102A20003529682FC8010E946009F3942196F4CFDC
:102A3000F801858190E00196DF91CF911F910F9170
:102A4000FF90EF900895CF93DF93C091520187E0FC
:102A5000C89FE0011124C652DB4FCE010E94380905
:102A60008093C40388811092C5038093C603898133
:102A70001092C7038093C8030E94DD2822E030E053
:102A800040E050E00E944B29CFEFDFEF672B682B2F
:102A9000692B11F0C1E0D0E00E94DD2820E031E098
:102AA00040E050E00E944B297F5F8F4F9F4FC69FB1
:102AB0009001C79F300DD69F300D11243093CA036B
:102AC0002093C9030E94DD2820E032E040E050E07E
:102AD0000E944B297195619571097093CC036093A5
:102AE000CB038091520190E00196837099278093E7
:102AF000520181E0DF91CF910895FF920F931F93D0
:102B0000CF93DF93EC01F62E08811981C8010E9452
:102B10003529F81621F06F2DC8010E943D29CE01FC
:102B2000DF91CF911F910F91FF900895EF92FF9247
:102B30000F931F93CF93DF9300D0CDB7DEB78C01F7
:102B40007B019A838983FB016081CE0101960E94FB
:102B50007D150F5F1F4F1A830983F7016181CE0135
:102B600001960E947D15C7010F900F90DF91CF91C4
:102B70001F910F91FF90EF900895CF92DF92EF9207
:102B8000FF920F931F93CF93DF9300D0CDB7DEB7A3
:102B90006C017B01FB01668140969A838983CE019B
:102BA00001960E947D1510E000E0F1E1CF0ED11CEE
:102BB000F701858190E008171907CCF4668170E071
:102BC000061717078CF4601B710B61507109C70160
:102BD0000E944C099601200F311F3A832983682FE8
:102BE000CE0101960E947D150F5F1F4FE1CF019628
:102BF0000F900F90DF91CF911F910F91FF90EF9069
:102C0000DF90CF900895CF92DF92EF92FF920F93D3
:102C10001F93CF93DF9300D0CDB7DEB7182F80E19D
:102C200090E09A8389836AEACE0101960E947D151D
:102C30006AE471E081E190E00E94961568E471E039
:102C400083E190E00E94961566E471E085E190E0F2
:102C50000E94961564E471E087E190E00E94961569
:102C600089E190E09A838983612FCE0101960E94C9
:102C70007D15112309F440C08AE190E09A8389838D
:102C800060915701CE0101960E947D156DEF74E0B1
:102C90008BE090E00E94BD158C01055F1F4F66EF31
:102CA00074E0C8010E94BD15080F191F2AEDE22E1D
:102CB00024E0F22EB701C8010E94BD15080F191FAC
:102CC00087E0E80EF11C86EFE81684E0F80691F73D
:102CD00089EAE82E84E0F82E9AEDC92E94E0D92EE8
:102CE000B701C8010E94BD15080F191F87E0E80E43
:102CF000F11CCE14DF04A1F70F900F90DF91CF915C
:102D00001F910F91FF90EF90DF90CF9008958091E9
:102D1000E0048D3061F58091E7048D3041F58091BC
:102D2000EE048D3021F58091F5048D3001F586E0BB
:102D300090E09093020180930101809157018130CE
:102D400061F4809148019091490101969093490165
:102D50008093480180E00C94031680914401909187
:102D6000450101969093450180934401F3CF089566
:102D7000EF92FF920F931F93CF93DF931F92CDB7E4
:102D8000DEB709EA14E0E12CF8018681882391F08E
:102D9000C8010E9438098983F82EFF1CFF24FF1CFC
:102DA00029F0CE0101960E94FF0FEF2C6981C80126
:102DB0000E946009095F1F4FF4E00A3D1F0721F7D9
:102DC0000E94871610925A01AE014F5F5F4F63E574
:102DD00071E084E591E00E94CA088E2D0F90DF918A
:102DE000CF911F910F91FF90EF9008951F93CF9374
:102DF000DF9300D000D01F92CDB7DEB70E948A08C3
:102E000020915801309159013B832A839D838C8303
:102E100010910A051F7019830E94760981E090E0E5
:102E200090930201809301010E94B816882311F04B
:102E30001068198349815A816B817C818D810F9043
:102E40000F900F900F900F90DF91CF911F910C94E6
:102E500070042F923F924F925F926F927F928F9267
:102E60009F92AF92BF92CF92DF92EF92FF920F9319
:102E70001F93CF93DF93CDB7DEB728970FB6F894A3
:102E8000DEBF0FBECDBF3324339450EC452E52E04D
:102E9000552ECE0101963C0130925D0580917E0554
:102EA000882309F4B3C01092230530925F05109275
:102EB0005E0510925D0530926805309269050E94AA
:102EC00033108823E1F3F20114911111109161057F
:102ED00068E271E080E00E944E036EE971E08CE0F0
:102EE000810F0E944E0310926205FCE0F09363058F
:102EF00060EC72E089E595E00E94DF0B809160054F
:102F0000982F990F990F891B8D5A80936205809194
:102F10006105982F990F990F891B835D8093630535
:102F20008091700584FF08C284E291E00E946913D9
:102F300080916005982F990F990F891B8D5A809366
:102F40006205809163058F5F8093630580913505ED
:102F5000882309F4F4C18CE191E00E946913809107
:102F60006005982F990F990F891B8D5A80936205E0
:102F7000809163058F5F8093630584E191E00E94F7
:102F80006913809121058130A9F4809135058F5F07
:102F9000082E000C990B6091360570E06F5F7F4F33
:102FA0000E94BA298093350565E475E080E395E0D9
:102FB0000E94A309809120058130B9F080917E059F
:102FC000482F50E070E060E00091700510917105AD
:102FD00020917205309173050417150726073707EE
:102FE00008F46DCF8F3F09F46ACF4FEF40937E0511
:102FF00080E395E00E9492091092310563E575E047
:1030000080E395E00E94A30930922305809164003B
:103010008E7F8093640087EC80937C0090E2909395
:103020007B0062E070E080E090E00E94A407809165
:103030007A00806480937A0080917A0086FDFCCFCC
:10304000009178001091790000951095EEE5E093DD
:103050007C0062E070E080E090E00E94A407809134
:103060007A00806480937A0080917A0086FDFCCF9C
:10307000E0907800F09079000E947F07E094F0944F
:10308000E09ED001E19EB00DF09EB00D11249B0199
:10309000AC0120953095409550950E946A296B01AE
:1030A0007C010E947F076C0D7D1D8E1D9F1D61158B
:1030B00071058105910511F00E942C298091640011
:1030C0008160809364001092230510927504109221
:1030D0007A0410927F041092840410928904109252
:1030E0008E04109293041092980410929D041092F2
:1030F000A2041092A7041092A80410925C011092EE
:103100005B0110925A018BE08093540184E080931C
:1031100053011092FC041092030510E0F12E689404
:10312000F7F801E0602F6F298DEF94E00E946009AD
:103130000F5F0E30B9F7105F103481F7F12CE12CDE
:103140000091030510E0E016F1060CF4FBC01092AC
:10315000E0041092E7041092EE041092F50410922D
:10316000AF041092B6041092BD041092C4041092E1
:10317000CB041092D2041092D9041092550139EA6E
:10318000C32E34E0D32E460110E000E046E0242EAA
:10319000402F440F4887540178018DEF94E00E943E
:1031A00038098F830E151F0521F4CE0107960E9462
:1031B000FF0FF301422D11924A95E9F72091550135
:1031C0003982229EC001112483539C4FF301DC01FC
:1031D000322D01900D923A95E1F7FC013282F50112
:1031E0003081FC013483F5013181F8853F0FFC010A
:1031F0003583E1823F8130832F5F20935501FFEFBC
:10320000EF1AFF0A47E0A40EB11C87E0E816F104AC
:1032100021F60F5F1F4F97E0890E911C07301105B3
:1032200009F0B6CF109255011092020110920101DF
:1032300080E190E00E9435298A3A09F0AAC06AE448
:1032400071E081E190E00E94E81468E471E083E1BC
:1032500090E00E94E81466E471E085E190E00E944D
:10326000E81464E471E087E190E00E94E81489E1E9
:1032700090E00E943529882309F489C030924301E7
:103280008AE190E00E943529809357016DEF74E048
:103290008BE090E00E94FC148C01055F1F4F66EFED
:1032A00074E0C8010E94FC14080F191F9AEDE92E62
:1032B00094E0F92E26EFA22E24E0B22EB701C80129
:1032C0000E94FC14080F191FE7E0EE0EF11CAE146B
:1032D000BF04A1F78AEDE82E84E0F82EB601C801FC
:1032E0000E94FC14080F191FF7E0CF0ED11CEC143C
:1032F000FD04A1F780E00E94031681E090E0909326
:1033000002018093010128960FB6F894DEBF0FBE2C
:10331000CDBFDF91CF911F910F91FF90EF90DF9084
:10332000CF90BF90AF909F908F907F906F905F9065
:103330004F903F902F90089580E291E0F7CD88E183
:1033400091E00BCE0E191F0960E070E0CB0141F057
:103350000E94DD289801110F440B550B0E944B2948
:10336000E0910005F0910105DF01A60FB71F4C9118
:103370008091030590E08E199F090197E80FF91FCE
:1033800080818C934083FFEFEF1AFF0AD9CE109211
:103390004301809143018111ADCF63E088E991E061
:1033A0000E947A138F3F09F477CD811110C081E01C
:1033B0008093570180914A0190914B01019690931F
:1033C0004B0180934A0180E00E9403169CCF81301C
:1033D00069F483E080935701809146019091470101
:1033E00001969093470180934601EDCF0E94A2146D
:1033F000D4CFFC0183819481009711F00C940828AC
:1034000008950F931F93CF93DF938C01FC011682D5
:103410006583C62FD0E0CE010E946C272197FC0166
:1034200041E0C80FD91F41939E012E1B3F0B37FF70
:10343000FACFF80194838383DF91CF911F910F918D
:1034400008951F920F920FB60F9211248F939F939E
:103450008091E1009091E100937F9093E10083FFE0
:103460000FC01092E90091E09093EB001092EC00F5
:1034700092E39093ED001092720198E09093F00027
:1034800082FF22C093E09093E9009091F20099238B
:1034900019F09AE39093E80090916301992341F029
:1034A00090916301915090936301911101C05D9AD5
:1034B00090917101992341F09091710191509093F5
:1034C0007101911101C0289A84FF18C08091E20017
:1034D0008E7E81608093E2008091E1008F7E8093F8
:1034E000E100809164018E7E8061809364019F91F0
:1034F0008F910F900FBE0F901F90189580FFF7CF00
:103500008091E2008E7E80618093E2008091E100F4
:103510008E7E8093E100809164018E7E8160E5CF94
:103520001F920F920FB60F921124CF92DF92EF925B
:10353000FF920F931F932F933F934F935F936F933C
:103540007F938F939F93AF93BF93EF93FF93CF930B
:10355000DF93CDB7DEB76C97DEBFCDBF1092E90029
:103560008091E80083FF25C068E0CE0145960E9467
:103570002B0682EF8093E8008D8987FF39C09091F8
:10358000E80090FFFCCF982F907609F034C19E8917
:103590004F89588D2F89F88C911131C0803861F591
:1035A000809162018093F1001092F1008EEF809380
:1035B000E8006C960FB6F894DEBF0FBECDBFDF916A
:1035C000CF91FF91EF91BF91AF919F918F917F919B
:1035D0006F915F914F913F912F911F910F91FF90AC
:1035E000EF90DF90CF900F900FBE0F901F90189527
:1035F0009EEF9093E800C7CF1092F100D5CF9130A5
:1036000059F48111D3CF4130510581F68091620187
:103610008D7F80936201CACF933049F48111C6CF68
:103620004130510519F6809162018260F2CF9530E8
:1036300041F48091E80080FFFCCF20682093E300F4
:10364000B5CF963009F0A9C00B8D1C8D22E01092E9
:10365000E9001092600110925F01F2122EC01092E8
:103660005E0110925D010E94FA051F8299E0998324
:10367000FA8291E09E8390EA98879AEF9987209149
:103680005F0130916001275F3F4F3C832B838D8327
:103690001092E9001092600110925F0110935E0198
:1036A00000935D0149E050E0BE016F5F7F4F80E015
:1036B0000E94D4050E94FA0579CF10935E01009311
:1036C0005D010E94DE04DC0112960D911C91011532
:1036D000110509F451C1D801ED91FC910480F581E7
:1036E000E02DBE016B5E7F4FC8010995009709F080
:1036F0003EC1F80100851185EACFF3E0FF120EC04C
:103700008F89882309F440C0823061F440E860E189
:1037100084E395E00E94A105811148CF81E2809366
:10372000EB0047CF813029F440E86BE088E295E078
:10373000F1CF833099F70E94DE04DC011296ED9000
:10374000FC908E010F5F1F4F6801E114F10479F0C6
:10375000D701ED91FC910680F781E02DB801C701FA
:103760000995080F111DF701E084F184EECFD8010F
:103770001C92F60101900020E9F73197BF016C1906
:103780007D0940E0C601C6CF62E175E0FB014491CE
:1037900050E080E80E94D40509CF973009F4BECFED
:1037A000983021F481E08093F10000CF993009F046
:1037B000FDCE837009F0B2CFEAE1F1E081E031E0C3
:1037C00096E32191222371F08093E9003093EB007E
:1037D000DF0111972C912093EC009093ED008F5F07
:1037E000873079F78EE78093EA001092EA008F899C
:1037F00080937201DBCE8B8D9C8D1092E90010922C
:10380000600110925F0190935E0180935D01898D4C
:10381000811192C08E899D89913A49F4813209F0D3
:103820007DCF47E050E067E071E080E0B3CF9132B8
:1038300009F074CF833269F48F89988DB0E0A0E0ED
:103840008093030190930401A0930501B0930601B6
:10385000ADCE803269F48091E80082FFFCCF67E052
:1038600087E091E00E942B068BEF8093E8009ECECC
:10387000823209F09BCE8F8980930E01EEEFFFE735
:10388000859194918B3F9C4D51F1E0E0F8E080915F
:10389000070190910801A0910901B0910A01803BB4
:1038A0009440A105B105F1F480910E0180FD1AC08C
:1038B000EE3F8AE0F80789F587E797E791838083F1
:1038C000809160008093610188E19BE00FB6F894DD
:1038D000A895809360000FBE9093600067CEEEEFD6
:1038E000FAE0D5CF808191818737974709F05ECE86
:1038F000A89580916000886180936000809161014B
:1039000080936000EE3F2AE0F20789F08091FE0A82
:103910009091FF0A9183808349CE8081918187377E
:10392000980751F29093FF0A8093FE0AC5CF109238
:10393000FF0A1092FE0A3ACE0E94DE04DC011296C3
:103940000D911C910115110509F4E8CED801ED91F6
:10395000FC910190F081E02DBE016B5E7F4FC801AC
:103960000995811123CEF80100851185EBCF18163A
:1039700019060CF41BCED2CEF1E0FF12BECE66E1EA
:1039800075E004CF1F920F920FB60F9211242F9360
:103990003F938F939F93AF93BF93809178019091C2
:1039A0007901A0917A01B0917B0130914C0123E023
:1039B000230F2D3758F50196A11DB11D20934C0101
:1039C0008093780190937901A0937A01B0937B0161
:1039D00080914D0190914E01A0914F01B091500105
:1039E0000196A11DB11D80934D0190934E01A093AE
:1039F0004F01B0935001BF91AF919F918F913F9133
:103A00002F910F900FBE0F901F90189526E8230F4F
:103A10000296A11DB11DD2CF1F920F920FB60F9229
:103A200011242F936F937F938F939F9360917401D1
:103A3000662361F1809142018F5F809342019091F2
:103A40007501891718F12091770181E028272093CB
:103A500077011092420180917601882369F080916C
:103A6000000193E4899F802D1124895B80930001DC
:103A70000E94AE299093730180917301211101C0BE
:103A800080E090E090939900809398009F918F91AF
:103A90007F916F912F910F900FBE0F901F901895EF
:103AA000109277031092760388EE93E0A0E0B0E0E6
:103AB0008093780390937903A0937A03B0937B0368
:103AC00084E291E090937503809374038FEF9FEFEE
:103AD000909381038093800310925C0510925B05A4
:103AE00086E391E090935A05809359056DE084E058
:103AF00095E00E94011A64E38DEF94E00E94011AA0
:103B000068E186EF94E00E94011A6DE08AED94E08E
:103B10000E94011A6DE081EE94E00E94011A6DE0AE
:103B200088EE94E00E94011A6DE08FEE94E00E940E
:103B3000011A64E189EA94E00E94011A64E180EBD1
:103B400094E00E94011A64E187EB94E00E94011A5C
:103B500064E18EEB94E00E94011A64E185EC94E04C
:103B60000E94011A64E18CEC94E00E94011A64E165
:103B700083ED94E00E94011A1092750410927A0469
:103B800010927F04109284041092890410928E0483
:103B9000109293041092980410929D041092A20423
:103BA0001092A8041092A704EDECF3E081E080836A
:103BB000369694E0E537F907D1F78093C40308956A
:103BC000CF93DF93CDB7DEB72D970FB6F894DEBF56
:103BD0000FBECDBF789484B5826084BD84B581600A
:103BE00084BD85B5826085BD85B5816085BD8091C8
:103BF0006E00816080936E00109281008091810040
:103C00008260809381008091810081608093810037
:103C1000809180008160809380008091910082601B
:103C200080939100809191008160809391008091B8
:103C300090008160809390008091C10084608093A7
:103C4000C1008091C10082608093C1008091C10059
:103C500081608093C1008091C30081608093C30024
:103C60008091C00082608093C0008091C20081601A
:103C70008093C20080917A00846080937A00809162
:103C80007A00826080937A0080917A0081608093CC
:103C90007A0080917A00806880937A001092720195
:103CA00010926201109264018091D700816080932C
:103CB000D70080EA8093D80089B5806189BD89B535
:103CC000826089BD09B400FEFDCF61E070E080E054
:103CD00090E00E94A4078091D8008F7C806180933F
:103CE000D8008091E000807F8093E0008091E10027
:103CF0008E7E8093E1008DE08093E200559A209AB9
:103D000082E380937F0581E090E0A0E0B0E08093C3
:103D1000780590937905A0937A05B0937B0511E01F
:103D200010933605109335058FEF80937E0584E15F
:103D30008093150582E18093160583E18093170532
:103D400085E18093180587E08093190588E08093CA
:103D50001A0510921B050E941B071093680510920C
:103D6000690510935E0510935F05E0E3F3E0E491CD
:103D7000EF5FE0936005E1E3F3E0E491EF5FE09350
:103D8000610582E393E090936705809366051FB712
:103D9000F89480915101811127C0E5EBF5E0849101
:103DA000E4EDF5E09491E82FF0E0EE0FFF1FE95FFE
:103DB000FC4FA591B491EC91E92321F461E081E1FC
:103DC0000E94B10661E081E10E94DF068CB580614E
:103DD0008CBD8CB580648CBD61E08FE00E94DF06F5
:103DE00061E080E10E94DF06809151018F5F809346
:103DF00051011FBF8CB58C7F8CBD8DB581608DBD91
:103E000061E084E00E94DF0661E08CE00E94DF0652
:103E100061E086E00E94DF0661E086E00E94B10674
:103E200061E070E080E090E00E94A40760E086E03E
:103E30000E94B1066AE070E080E090E00E94A40772
:103E400061E086E00E94B106E0EBF5E0E491F0E08D
:103E5000EE0FFF1FEE5DFC4F8591949190936B05E3
:103E600080936A05E8EAF5E0E491F0E0EE0FFF1FC9
:103E7000EE5DFC4F8591949190936D0580936C0558
:103E8000EFECF5E0E491E0936E05E7ECF5E0E4910A
:103E9000E0936F050E942D0305E113E0B2E2EB2EE3
:103EA000B3E0FB2EF80184910E94F40F0F5F1F4FC7
:103EB000E016F106B9F7E0916C05F0916D0580818F
:103EC00090916F05892B8083E0916A05F0916B05D5
:103ED000908180916E0580958923808300E014E0B5
:103EE00080E00E94F40F01501109D1F781E0809326
:103EF000340584E08093580583E093E09093400577
:103F000080933F0580E00E94440461E085E00E94C8
:103F1000DF0661E08DE00E94DF0661E085E00E943F
:103F2000DF06E7EEF5E0E491E150EF3008F01DC167
:103F3000F0E0E356F04E0C94CE29AC1F422048200E
:103F400054206020B520B520B5206C207820842036
:103F500090209E20B520A72084B5806884BD81E094
:103F600087BD80919100887F816080939100F89453
:103F700010928000109281001092850010928400AF
:103F800088E191E09093890080938800809181007E
:103F9000886080938100809181008160809381009E
:103FA00080916F00826080936F00789480912105EA
:103FB000813009F0DFC01092350585E28093DA0484
:103FC0001092DB041092DC0481E38093E1041092F0
:103FD000E2041092E3048DE38093E8041092E90474
:103FE0001092EA0489E48093EF041092F004109296
:103FF000F104E9EAF4E081E020E191E080832183AB
:104000009283845F37968535C9F79093FD041092AB
:10401000FE041092FF048DE08093F6041092F704E2
:104020000E942917CC24C394D12C65E0462E512C34
:1040300047E0742E0E9433108823E9F08091220516
:10404000813009F02BC1809101019091020163E060
:10405000019729F48091A80464E0811165E080EC67
:1040600094E00E947A13823009F4C6C00CF089C033
:10407000813009F4C7C080E090E0892BD9F20E941A
:104080000000D6CF84B5806284BD81E088BD69CF51
:104090008091800080688093800081E090E0909320
:1040A0008900809388005DCF80918000806280933A
:1040B000800081E090E090938B0080938A0051CF44
:1040C0008091800088608093800081E090E09093F0
:1040D0008D0080938C0045CF809190008068809304
:1040E000900081E090E0909399008093980039CF00
:1040F0008091900080628093900081E090E09093A6
:104100009B0080939A002DCF8091900088608093CF
:10411000900081E090E090939D0080939C0021CFDF
:104120008091C00080688093C0008091C0008F7B28
:104130008093C00081E08093CF0013CF8091C000B6
:1041400080628093C00081E08093D0000ACF80918C
:10415000C20088608093C2008091C2008B7F8093F0
:10416000C20081E08093D200FCCE60E085E00E9436
:10417000B106F7CE62EB74E080E395E00E94A309FC
:104180001CCF8330E1F1843009F075CF8091A80411
:10419000882309F470CF2091010130910201213070
:1041A000310509F068CF9091A70491112EC099E0D4
:1041B0009093A70481508093A804E091A70485E020
:1041C0008E9FF0011124EB58FB4FDE0116960190F3
:1041D0000D928A95E1F70E8106FF19C010E08091DB
:1041E0005701181708F057C06DEF74E086EF94E0A0
:1041F0000E9408101F5FF3CF0E94A21424CF81E019
:104200000E9403160E94291736CF9150D1CF05FF87
:104210000BC0809103058823F1F166EF74E08DEF08
:1042200094E00E940810F5CFAF80B884E984FA8446
:1042300007FF04C0B501C5010E94081010920A05CD
:10424000D70116968C910F70282F30E010E02017C0
:1042500031070CF48901801BF7018683912C812C96
:1042600008151905A9F0D7011696EC911697139623
:104270008D919C91880D991DE80FF92FF11D60819A
:1042800084E095E00E946009BFEF8B1A9B0AE8CF9B
:10429000C5010E9476090E94B816EDCE80910101F9
:1042A0009091020181309105E9F0039709F4AFC1C3
:1042B00000910101109102010630110509F46CC54D
:1042C0000E94940F0730110508F0D5CEF801E5598A
:1042D000FE4D0C94CE29FF2371240C2653267B26F9
:1042E0007B26CC26A0905B01B0905C0180911E05DE
:1042F000813071F4E5E0AE16B10451F0FCE0AF1688
:10430000B10431F0C501019690935C0180935B018B
:1043100080911C05813071F480915B0190915C016A
:10432000009741F08630910529F0019790935C0148
:1043300080935B0180911F05813041F480915A0187
:10434000882309F478C0815080935A0180911D051B
:10435000813021F500915B0110915C01780126E02C
:10436000E21AF10837E0E316F10408F077C00E9482
:104370008A0890905A01692D70E06F5F7F4FDC01D1
:1043800016962C912617170609F00CF467C00E94A8
:104390004C0987FD63C0939490925A0180915B0110
:1043A00090915C0120912105213009F0A6C0863052
:1043B00091051CF4019709F095C00E948A088C01B0
:1043C000FC018681882309F48DC070E060E0C8019B
:1043D0000E944C092AED822E24E0922E36EFE32E25
:1043E00034E0F32E8F70382ED40116968C91811103
:1043F00048C0B1E03B126FC010920A05D8018C9101
:104400008093040560E0C8010E94B8088093050508
:10441000C8010E943809682F84E095E00E94600975
:1044200090925901809258015092020140920101EC
:104430000E94E60957C080915B0190915C01823037
:10444000910534F4069690935C0180935B017ECFD6
:10445000863091050CF07ACF0796F5CF083011051C
:104460003CF00750110910935C0100935B0196CF5B
:10447000063011050CF492CFF0925C01E0925B01E2
:104480008DCF70E060E0C4010E944C09682E70E09E
:1044900060E0C8010E944C09482F50E0B4E05595F7
:1044A0004795BA95E1F743705527262D30E094E003
:1044B000359527959A95E1F72370332742175307CF
:1044C00051F4262D2F7030E02F5F3F4F8F708217F1
:1044D000130609F491CFE7E08E0E911CE814F9045D
:1044E00009F082CF80915B0190915C01A816B9061A
:1044F00009F4DECE10925A01DBCE20912005213046
:1045000089F7009709F446C00D9760F70E948A0862
:104510008C019093590180935801FC018681882376
:1045200009F310920A0580818093040560E0C801B8
:104530000E94B80880930505D80116968C91E090EA
:104540005A01F12C482F50E0F70131967F014E17A8
:104550005F070CF47A018E19D80116968C93912C72
:10456000812CE814F90409F44FC0D8011696EC9197
:10457000169713968D919C91880D991DE80FF92F30
:10458000F11D608184E095E00E946009BFEF8B1A05
:104590009B0AE7CF80910305882309F110920A0551
:1045A00064E075E08DEF94E00E9408108091FD04B6
:1045B000809304058091FE04809305058091030596
:1045C00090915701891710F08FEF890F8093560152
:1045D00082E090E0909302018093010129CF8091C5
:1045E000FC04882339F06DEF74E086EF94E00E94BC
:1045F0000810F5CF80E2898340E25A816B817C818B
:104600008D810E9470046ECF83E090E0E3CF8091B3
:104610001E05813079F480915B0190915C018530B9
:10462000910541F08C30910529F0019690935C0141
:1046300080935B0180911C05813079F480915B014E
:1046400090915C018130910541F08630910529F00F
:10465000019790935C0180935B0180911F058130ED
:1046600069F480915B0190915C0181309105C1F505
:1046700087E090E090935C0180935B0180911D0541
:10468000813061F480915B0190915C0189309105EA
:1046900064F1079790935C0180935B018091200502
:1046A00003E010E0813009F00BCE6AEC74E080E3A7
:1046B00095E00E94A30980915B0190915C01863096
:1046C0009105D0F48230910508F048C0019709F0B7
:1046D000EFCD84E090E09093020180930101E8CD5A
:1046E000863091055CF60796C5CF0697BCF2D0924E
:1046F0005C01C0925B01D2CF0D9708F0D9CD0E942A
:104700008A08DC0116962C91222309F46BC070E014
:1047100060E00E944C098B8760910A056150770B1D
:1047200084E095E00E944C09182F8983CE010B96F6
:104730000E942110082FCE0101960E942110081717
:1047400041F22B852F701F70812F90E00196281762
:10475000190609F0BECF0E94F616AACD80910A056F
:10476000813009F0B6CF0E948A08FC01268170E0F2
:1047700060E021110DC084E095E00E944C098F702B
:10478000813009F0A6CF0E94F6160E94871690CDC0
:104790000E944C09182F70E060E084E095E00E94D0
:1047A0004C09482F50E0F4E055954795FA95E1F70C
:1047B00043705527212F30E0A4E035952795AA9521
:1047C000E1F7237033274217530709F082CF1F7098
:1047D000212F30E02F5F3F4F8F708217130609F0B3
:1047E00078CFD1CF60910A056150770B84E095E0D6
:1047F0000E944C098F708D3009F06BCFACCF809147
:1048000055018C31A8F4409170055091710560916B
:104810007205709173054370552766277727452BDE
:10482000462B472B29F48F5F809355010E94E609A0
:104830008091550191E08C3109F090E00DEC13E08E
:10484000F12CE12CA82EB12CEA14FB040CF041C091
:10485000F801828163812481821303C02581261798
:1048600091F1F6E0FE9D9001FF9D300D1124A9010C
:1048700043535C4F4A01DA014C910E94EC0EF8015F
:104880002480622D82810E945B08382ED801129606
:104890008C93129715966C901597662D13968C91A4
:1048A0000E945B08F801838323100CC068120AC0C1
:1048B0008181879DC0011124D4016C9187559B4F44
:1048C0000E94600990E0BFEFEB1AFB0A0A5F1F4FDE
:1048D000BBCF992309F4CFCBD0920201C092010142
:1048E000CACBAE01435F5F4FBE01655F7F4FCE0114
:1048F0000C960E94CA086C85809154010E945B0846
:10490000B82E809354016B85809153010E945B08FF
:10491000182F809353018D8503E00B0DE6E0AE2E3A
:10492000A10EF12CEE24E394882309F4B8C0E092A0
:104930006805E0926905812E8F0C602E6F0C482D62
:10494000662D89E595E00E94EC099A2C9F18492D67
:10495000662D89E595E00E94EC0910926805109299
:1049600069052F2D482D602F89E595E00E94AE0A3C
:104970002F2D492D602F89E595E00E94AE0AF39412
:10498000E4E0FE12D4CFE0926805E092690527E0EA
:10499000412F62E06B0D89E595E00E94FE0B22E05D
:1049A00042E0410F6B2D89E595E00E94AE0A22E0BE
:1049B00044E0410F6B2D89E595E00E94AE0A73E05B
:1049C000872E810E482D6B2D89E595E00E94EC091C
:1049D000109268051092690522E0482D61E06B0D88
:1049E00089E595E00E94AE0A00915A01002309F47E
:1049F00042CB0E948A08602F70E00E944C09A82ECA
:104A000089838F70E82EF12C02E08A3009F000E0F3
:104A100081E080936805809369059B2C901A4DE096
:104A2000400F29E06FEF610F84EF890D0E941A0C8F
:104A30001092680510926905482D6B2D89E595E067
:104A40000E94EC092BE0200F65EF690D07E0412F74
:104A500089E595E00E94E10ACE0101960E942110AD
:104A60008823D9F083E080936805809369051F5FF0
:104A7000A701612F86EF8B0D0E94280D4A2D50E073
:104A800064E0559547956A95E1F743705527612F86
:104A90008AEF8B0D0E94310EEECA81E0E4CFE092E6
:104AA0006805E09269056F2C610E462D602F89E53F
:104AB00095E00E94EC098A2C8F18482D602F89E51B
:104AC00095E00E94EC0910926805109269059924FE
:104AD0009394900E2F2D462D692D89E595E00E9427
:104AE000AE0A2F2D482D692D89E595E00E94AE0A6A
:104AF0000150F394F4E0FF12D2CFE0926805E09207
:104B0000690527E0412F34E0F32EFB0C6F2D89E57A
:104B100095E00E94FE0B22E042E0410F05E00B0D04
:104B2000602F89E595E00E94AE0A22E044E0410F43
:104B3000602F89E595E00E94AE0A43E0842E810E45
:104B400006E00B0D482D602F89E595E00E94EC09E9
:104B5000109268051092690522E0482D6F2D89E5B5
:104B600095E00E94AE0AF0905A01FF2009F483CA32
:104B70000E948A086F2D70E00E944C09A82E89833C
:104B80008F70E82EF12C22E0922E8A3009F0912CC1
:104B900081E0809368058093690529E04DE0490D27
:104BA0006FEF610F802F0E941A0C1092680510920F
:104BB0006905482D602F89E595E00E94EC0907E022
:104BC0002BE0290D412F67E06B0D89E595E00E94F0
:104BD000E10ACE0101960E9421108823D9F083E0DA
:104BE00080936805809369051F5F0B2D090DA70150
:104BF000612F88E0800F0E94280D4A2D50E094E03C
:104C0000559547959A95E1F743705527612F8CE0AC
:104C1000800F40CF81E0E4CF84E095E00E945B0FFD
:104C200061E1809104050E945B08182F80930405C0
:104C300060E0809105050E945B08809305051131B5
:104C400009F019CA811117CA70E060E084E095E0AC
:104C50000E944C09682F86EF94E00E9460098091C1
:104C600056018823B1F081508093560110920A05B5
:104C700064E075E08DEF94E00E9408108091FD04DF
:104C8000809304058091FE04809305050E94E60947
:104C9000F2C980E4898340E45A816B817C818D81F3
:104CA0000E94700419CE84E095E00E945B0F0E9480
:104CB0008A088C01DC0112968C9112978823C1F02E
:104CC0001696FC90FF0CF394F394F80160818091A8
:104CD00004050E945B0880930405D80111966C912D
:104CE0006F0D809105050E945B0880930505C3C97F
:104CF00082E0F82EEACF0091580110915901F80195
:104D00008281F12C882311F0F680FF0CD8016C9180
:104D1000809104050E945B0880930405F80161817D
:104D20006F0D809105050E945B088093050584E066
:104D300095E00E945B0F90910405D8018C91981327
:104D40009AC92091050511968C918F0D9927991F6D
:104D50002817190609F08FC9C8010E9476090E9418
:104D6000B816182F809101019091020185309105AC
:104D700079F40E948A089B838A83809158019091DC
:104D800059019D838C8341E0111141E8498384CF0F
:104D9000069709F0A1CD6FC980915D05811110C002
:104DA00081E080935D050E94940FE09152017E9E08
:104DB000F0011124E652FB4F868181110E942315D8
:104DC0002091CB033091CC0320583F4F3093CC033C
:104DD0002093CB038091C5039091C6034091C903F2
:104DE0005091CA03840F951F9093C6038093C50307
:104DF0008091C7039091C803820F931F8130B2E264
:104E00009B072CF59093C8038093C7036091C80358
:104E10004091C4038091C6030E94EC0E8091C503AB
:104E20009091C603965F81309E4508F424C9E091B5
:104E300052017E9EF0011124E652FB4F86818823A9
:104E400009F4E0C90E942315811115C9DBC9E0E00E
:104E5000F2E2F093C803E093C7034CEF4203C001B2
:104E6000439F900D112465E070E00E94BA29709371
:104E7000CC036093CB036AEC74E080E395E00E947E
:104E8000A309C4CFCF93DF93CAEDD4E02797CE0117
:104E90000E94F91984E0C93AD807C1F78FEE94E06F
:104EA0000E94F91988EE94E00E94F91981EE94E0CD
:104EB0000E94F9198AED94E00E94F91986EF94E0B6
:104EC0000E94F9198DEF94E00E94F91984E095E0B1
:104ED000DF91CF910C94F9190F931F93CF93DF9328
:104EE0008230910510F482E090E0E0918905F09124
:104EF0008A0530E020E0B0E0A0E0309799F4211579
:104F0000310509F44AC0281B390B24303105D8F586
:104F10008A819B816115710589F1FB0193838283ED
:104F2000FE0111C040815181028113814817590748
:104F3000E0F04817590799F4109761F012960C9316
:104F4000129713961C933296CF01DF91CF911F9148
:104F50000F9108950093890510938A05F4CF2115C8
:104F6000310551F04217530738F0A901DB019A01CE
:104F7000BD01DF01F801C1CFEF01F9CF90938A05A0
:104F800080938905CDCFFE01E20FF31F81939193AA
:104F90002250310939832883D7CF2091870530915A
:104FA0008805232B41F42091110130911201309397
:104FB00088052093870520910F013091100121155C
:104FC000310541F42DB73EB74091130150911401C2
:104FD000241B350BE0918705F0918805E217F30754
:104FE000A0F42E1B3F0B2817390778F0AC014E5F59
:104FF0005F4F2417350748F04E0F5F1F5093880509
:1050000040938705819391939FCFF0E0E0E09CCFA0
:10501000CF93DF930097E9F0FC013297138212825D
:10502000A0918905B0918A05ED0130E020E010974C
:10503000A1F420813181820F931F20918705309147
:1050400088052817390709F061C0F0938805E093B7
:105050008705DF91CF910895EA01CE17DF07E8F5C4
:105060004A815B819E0141155105B1F7E901FB833E
:10507000EA8349915991C40FD51FEC17FD0761F4DC
:10508000808191810296840F951FE901998388831D
:10509000828193819B838A83F0E0E0E012968D9178
:1050A0009C9113970097B9F52D913C911197CD01E3
:1050B0000296820F931F209187053091880528174B
:1050C000390739F6309751F510928A051092890503
:1050D000B0938805A0938705BCCFD383C28340815A
:1050E0005181840F951FC817D90761F44E5F5F4F38
:1050F00088819981480F591F518340838A819B8100
:10510000938382832115310509F0B0CFF0938A058E
:10511000E09389059ECFFD01DC01C0CF138212828E
:10512000D7CF8F929F92AF92BF92CF92DF92EF92A2
:10513000FF92CF93DF93EC01688179818A819B8113
:10514000611571058105910521F464E279ED8BE526
:1051500097E02DE133EF41E050E00E944B294901F7
:105160005A019B01AC01A7EAB1E40E946A296B01D4
:105170007C01ACEEB4EFA50194010E947829C60E23
:10518000D71EE81EF91EF7FE06C081E0C81AD10836
:10519000E10880E8F80AC882D982EA82FB82C70166
:1051A000B6019F77DF91CF91FF90EF90DF90CF9086
:1051B000BF90AF909F908F9008958F929F92AF92E3
:1051C000BF92CF92DF92EF92FF92609115017091A2
:1051D00016018091170190911801611571058105E3
:1051E000910521F464E279ED8BE597E02DE133EF51
:1051F00041E050E00E944B2949015A019B01AC015A
:10520000A7EAB1E40E946A296B017C01ACEEB4EF1D
:10521000A50194010E947829C60ED71EE81EF91E2A
:10522000F7FE06C081E0C81AD108E10880E8F80A54
:10523000C0921501D0921601E0921701F092180168
:10524000C701B6019F77FF90EF90DF90CF90BF909E
:10525000AF909F908F900895609315017093160101
:1052600080931701909318010895F999FECF92BD8C
:1052700081BDF89A992780B50895262FF999FECF18
:105280001FBA92BD81BD20BD0FB6F894FA9AF99A63
:105290000FBE01960895052E97FB1EF400940E9400
:1052A000622957FD07D00E947D2907FC03D04EF4E8
:1052B0000C94622950954095309521953F4F4F4F62
:1052C0005F4F089590958095709561957F4F8F4FB2
:1052D0009F4F08950E949F29A59F900DB49F900D08
:1052E000A49F800D911D11240895B7FF0C946A2985
:1052F0000E946A29821B930B0895A1E21A2EAA1B11
:10530000BB1BFD010DC0AA1FBB1FEE1FFF1FA21775
:10531000B307E407F50720F0A21BB30BE40BF50B72
:10532000661F771F881F991F1A9469F760957095FB
:10533000809590959B01AC01BD01CF010895A29F7E
:10534000B001B39FC001A39F700D811D1124911D59
:10535000B29F700D811D1124911D0895991B79E054
:1053600004C0991F961708F0961B881F7A95C9F7F5
:105370008095089597FB072E16F4009407D077FDCB
:1053800009D00E94D42907FC05D03EF49095819560
:105390009F4F0895709561957F4F0895EE0FFF1F01
:1053A0000590F491E02D0994AA1BBB1B51E107C0A5
:1053B000AA1FBB1FA617B70710F0A61BB70B881FA5
:1053C000991F5A95A9F780959095BC01CD01089534
:1053D00013E0C2E0D3E004C0FE010E94CE29219672
:0A53E000C330D107C9F7F894FFCFDE
:1053EA00010100FFFFFFFF00E100000000000000D4
:1053FA00008B0580000100000000C18081000000D0
:10540A0000000000F204D607130508055905170520
:10541A003505000000000A0B3806FC0FFB0F0D0AC9
:02542A00000080
:00000001FF
