:100000000C9488060C94B0060C94B0060C94B006C0
:100010000C94B0060C94B0060C94B0060C94B00688
:100020000C94B0060C94B0060C94B8140C942715DC
:100030000C94B0060C94B0060C94B0060C94B00668
:100040000C94B0060C94A3170C94B0060C94B00654
:100050000C94B0060C94B0060C94B0060C9459178E
:100060000C94B0060C94B0060C94B0060C94B00638
:100070000C94B0060C94B0060C94B0060C94B00628
:100080000C94B0060C94B0060C94B0060C94B00618
:100090000C94B0060C94B0060C94B0060C94B00608
:1000A0000C94B0060C94B0060C94B00605A84CCD88
:1000B000B2D44EB93836A9020C50B9918688083CA2
:1000C000A6AAAA2ABE000000803F0101FF03010189
:1000D000F703101098181819981818199818181963
:1000E000981818199818181998181819981818198C
:1000F000981818191010AAAA00000000FFFFFFFFAF
:10010000000000000000000000000000FFFFFFFFF3
:100110000000000055551010AAAA000180000FF140
:100120009FF81C3998181819981818199818181940
:1001300098181819981818191010AAAA0000800009
:100140000FFF9FFF1C0098001800980018009C00EB
:100150001FFF8FFF000080005555101098181819C8
:10016000981818199818181998181819981818190B
:100170009C381FF98FF00001800055551010AAAA75
:1001800000010000FFF1FFF8003900180019001805
:1001900000190038FFF9FFF000010000555510105C
:1001A000AAAA000180000FF19FF81C3998181819AD
:1001B000981818199C381FF98FF0000180005555C8
:1001C0001010AAAA000180000FF19FF81C3999981D
:1001D0001A599A5819999C381FF98FF0000180001C
:1001E000555510100000000000001998199806607D
:1001F0000660199819980660066019981998000009
:1002000000000000101000000410082010402080A2
:1002100041008008001100220440088010002010D6
:100220000020004000801010002020020480800880
:100230000000104402004022000008880001420033
:10024000004000088400108010100000018002406F
:1002500004200810100820043C3C04200420042042
:100260000420042007E0000000001010000000003F
:1002700003000500090011FC200440044004200490
:1002800011FC090005000300000000001010000030
:10029000000007E0042004200420042004203C3C4B
:1002A00020041008081004200240018000001010F3
:1002B0000000000000C000A000903F882004200241
:1002C000200220043F88009000A000C00000000031
:1002D000101000002002000000000000104000008C
:1002E0000000000000800000400000000008040042
:1002F00000004D61696E204D656E75005379737411
:10030000656D20496E666F00486967682073636F8A
:1003100072657300506C6179000500380168010056
:1003200000450068010000424553542054494D45A2
:100330005300DCEEEEEEEEEEEEEEEEEEEEEEEEEE78
:10034000EEADF0017100000000D000000DD0000003
:10035000055FF00CEEEEEEEA00F00D000FF000008D
:10036000005FF000D555005D00F00FD00FF00D508C
:10037000000FF080F500000F00F00FF00FF00FCA33
:10038000800FF000F000D00B00F04FF00FF00F5591
:10039000000FF080F0D0F50005F44FF00BB00F50D7
:1003A000005FF000F0B0F55555F46FF000000F005D
:1003B000005FF080F000BCEEEAB66FF000000F00C6
:1003C0008CAFF000F500000066666FBCEEEEAF503B
:1003D000005FF040B555000666666F0000000B55E3
:1003E000000FF5000CEEEEEEEEEEAB000000CEEAF4
:1003F000000FF55000CEEEEEEEEEEEEEEEEEEEEA93
:10040000005FF5550000000055CEEA5508888800C9
:10041000005FF555500000000003300000000000B0
:10042000055FBCEEEEEEEEEEEEEEEEEEA88888CEC8
:10043000EEAB000000000000000000000000000023
:1004400000000000000000000000000000000000AC
:10045000000000000000000000000000000000009C
:10046000000000000000000000000000000000008C
:10047000000000000000000000000000000000007C
:10048000000000000000000000000000000000006C
:10049000000000000000000000000000000000005C
:1004A000000000000000000000000000000000004C
:1004B000000000000000000000000000000000003C
:1004C000000000000000000000000000000000002C
:1004D000000000000000000000000000000000001C
:1004E000000000000000000000000000000000000C
:1004F00000000000000000000000000000000000FC
:1005000000000000000000000000000000000000EB
:1005100000000000000000000000000000000000DB
:1005200000000000000000000000000000000000CB
:100530000000CE00CA0000000000240027002A00AE
:100540002D003000D5F08D14A1C881CFD9F1AF2096
:100550000000000000250028002B002E00310005BF
:10056000008930080238024978681400002F0056CC
:100570006F6C756D653A004261636B6C6967687496
:100580003A004C696768743A002F34004261742065
:100590006C766C3A006D56004261743A00153A531D
:1005A00061766520173A45786974000A576F72734F
:1005B000742020202020000A42657374202020200F
:1005C000202000596F75722074696D6520004E45BA
:1005D00057204849474853434F52450005004001C2
:1005E00050015C01700180016C01540160017401D3
:1005F00084014C015C0168017C018C010000050054
:100600006801380100001773617665001662616346
:100610006B001574797065000A0A0A153A6F6B61F0
:100620007920163A6564697400596F7520656E7497
:10063000657265640A004E4557204C415021000503
:10064000077F4141417F3E5B4F5B3E3E6B4F6B3EC0
:10065000183C783C18183C7E3C181C577D571C1CD5
:100660005E7F5E1C007E43437E007E73737E007E51
:100670007F7F7E7F4141417F30483A060E062979CF
:1006800029067F4141417F60703F02042A1C361CCD
:100690002A7F3E1C080000081C3E7F14227F221483
:1006A0003C3C3C7EFF18423C817E3E6375633E3E8F
:1006B000616B633E3E636B6B3E04027F020410205D
:1006C0007F201008082A1C08081C2A0808143E5518
:1006D0004122637569756310181C1810040C1C0CFA
:1006E00004000000000000005F0000000700070099
:1006F000147F147F14042A7F2A102313086462369F
:10070000495620500008070300001C224100004108
:10071000221C002A1C3E1C2A08083E080800E06033
:100720000000080808080800606000006010080465
:10073000033E5149453E00427F40006251494946CF
:100740002141494D331814127F1027454545393C46
:100750004A49493041211109073649494936064974
:1007600049291E00002400000080640000081422B3
:1007700041001414141414004122140802015909F0
:10078000063E415D594E7C1211127C7F4949493623
:100790003E414141227F4141221C7F494949417FDD
:1007A000090909013E414151327F0808087F004193
:1007B0007F41002041413F017F081422417F40409A
:1007C00040407F020C027F7F0204087F3E4141418E
:1007D0003E7F090909063E416141BE7F091929464C
:1007E000264949493201017F01013F4040403F1FF6
:1007F0002040201F3F4038403F6314081463030427
:100800007804036151494543007F414100030408D6
:1008100010600041417F000402010204808080805A
:1008200080000307080020545478407F284444384F
:100830003844444428384444287F385454541808D1
:100840007E09090218A4A49C787F08040478004457
:100850007D4000006080847D7F1010284400417F2F
:1008600040007C047804787C0804047838444444CC
:1008700038FC1824241818242418FC7C08040408C4
:100880000854545420043F4444203C4040207C1CE5
:100890002040201C3C4020403C44281028444C90E0
:1008A00090907C4464544C44000836410000007F22
:1008B00000000041360800180408100C7F41414137
:1008C0007F03053F213F1208120A100A0E1C0E0C6E
:1008D0001E0C141A14161F161E131E1E1B1E1E1F7E
:1008E0001E3F213F3A2F3A173D173F213F181F0265
:1008F000040A041F0E04040E1F0A1F0A0E0E1F0412
:10090000110E2E252E2F2A2E262929021F02081FFE
:1009100008150E04040E150E15151B151B040604F0
:10092000040C040000000017000300031F0A1F1638
:10093000371A1904130A153A000300000E11110E9C
:10094000000A040A040E040030000404040010002D
:100950001804031F111F121F101D151711151F0753
:10096000041F17151D1F151D01011F1F151F17152A
:100970001F000A00003200040A110A0A0A110A04C0
:100980000115020E11171E051E1F150A0E110A1F52
:10099000110E1F15111F05010E111D1F041F111F20
:1009A0001108100F1F041B1F10101F061F1E040F1D
:1009B0000E110E1F09060E112E1F051A1215090120
:1009C0001F011F101F0F180F1F0C1F1B041B031CE0
:1009D00003191513001F11030418111F000201024F
:1009E0002020200001020C121E1F120C0C12120CEF
:1009F000121F0C1A14041E05242A1E1F021C141D8B
:100A00001020201D1F0814111F101E041E1E021C82
:100A10000C120C3E0A040C123E1E040214160A02AA
:100A20000F120E101E0E100E1E081E120C1226287B
:100A30001E322A26041E21001F00211E040102016D
:100A40003F213F14030803FC02F202080B000202DC
:100A50000200000904000001020200000524001049
:100A600001052401010104240206052406000107F2
:100A700005810310004009040100020A000000077C
:100A8000050202400000070583024000000403093C
:100A90000412010002EF02014041233680000101EF
:100AA00002030141726475696E6F204C4C43004132
:100AB000726475696E6F204C656F6E6172646F0051
:100AC0004024FFFFFFFFFFFFFFFF8000000000301A
:100AD0004001800000000060E001819BE78000C1D0
:100AE000F001819BEFC001C1F801819B0CC003FDA7
:100AF000F001819B0CC003FCE401819B0CC007F852
:100B00004001819BECC00FF00001819BECC01818E4
:100B1000C201819B0CC0383CE601819B0CC0307F38
:100B2000E701819B0CC07FFDFF01819B0CC0FF3D55
:100B3000FF81819B0CC1FE18CF8181FB0FC1FC009E
:100B4000CE4180F3078304100621800000060E3892
:100B5000841F800000000F79843F9F060F3E1FFB1B
:100B6000CE3F9F861FBE1F7FDF7F998F19B00E7B00
:100B7000FF01998F19B00633DE01998F19B0042156
:100B80008E019F8F1830020104119F9F99BE026051
:100B900007E19F1F9B3E00738FC19B19983001F79F
:100BA000DFC19B1999B000FFFF819B1F99B000F72F
:100BB000C0019BBFD9B000E3800199B0DFBE0061E6
:100BC000040199B0CF3E00000001800000006533B1
:100BD000B3B980018000723AAA91FFFFFFFF722B28
:100BE000B39300175344001613780016131400151E
:100BF00010200015201000540A03E181867F3E1862
:100C00006D830F0F0E0183866033186DC3198F1823
:100C100003C38E6033186DE330CF1803C39E603674
:100C200030CDE360CF3006C79E7E3E30CDB360CF7F
:100C3000300CC6F6603330D9B660CF33CFCCF66017
:100C400061B0DB1E60CF30D86CE6C061B0DB1E61E6
:100C50008F19986CC6C063B19B0E330F0FB078C666
:100C6000FF7E1F1B061E0FF6E8DBCFC3B8AEA49BAA
:100C7000928A827B746E68625C57524E4945413E4F
:100C80003A3734312E2C29272523211F1D1C1A19F0
:100C900017161514131211100F0E0D0C0B0A09085C
:100CA0000706000000002300260029002C002F006A
:100CB0000404040404030405020202020403020201
:100CC00002020606060606060404020202040404E2
:100CD000080201104080401020408040800802043B
:100CE00001804020100201108010204040200000B0
:100CF000000200090F0000030401000C00000000C6
:100D00000000000000000000000000000000E717E5
:100D100011241FBECFEFDAE0DEBFCDBF11E0A0E0AF
:100D2000B1E0E6E3F2E502C005900D92AA35B10705
:100D3000D9F724E0AAE5B1E001C01D92A53AB207B7
:100D4000E1F716E0C8E8D6E004C02197FE010E9452
:100D5000F828C738D107C9F70E9406180C9419293A
:100D60000C940000CF93DF93E8E8F4E0C081D181D8
:100D70008881ACE8B4E09C91892B8883C0918A0477
:100D8000D0918B04988180918D04809589238883EC
:100D90000190F081E02D90818C9180958923808352
:100DA000DF91CF91089590E0880F991FE0915D0445
:100DB000F0915E04E80FF91F2591349130936E0491
:100DC00020936D04F9018591949190915204989F1C
:100DD000802D112480936F04F90165917491472F40
:100DE00050E08417150629F020F0F901259134917F
:100DF000832F989F802D1124809370040895FC0107
:100E00008091D701882311F13FB7F89482E0809355
:100E1000E9002091F200822F90E01816190614F4D0
:100E200081E090E0882339F0289844E64093D60189
:100E30004091F1004083222339F02091F2002111EA
:100E400003C02BE62093E8003FBF08958FEF9FEF8C
:100E500008952FB7F89483E08093E9009091E8001B
:100E6000892F807295FF04C09091F20080E4891B65
:100E70002FBF08958091CE0181110DC082E0809333
:100E8000CA0184E08093CB011092CD011092CC0175
:100E900081E08093CE018AEC91E00895CF93DF93B7
:100EA0001F92CDB7DEB76983DC01ED91FC91028022
:100EB000F381E02D41E050E0BE016F5F7F4F099567
:100EC0000F90DF91CF91089583E08093E9008091A6
:100ED000F200882319F08AE38093E80008950E94C5
:100EE000290790E00895CF93DF931F92CDB7DEB727
:100EF000FC018485958597FD08C02FEF3FEF35876E
:100F000024870F90DF91CF910895CE0101960E9422
:100F1000FF06019719F4898190E0F3CF8FEF9FEFDF
:100F2000F0CF0F931F93CF93DF931F92CDB7DEB710
:100F30008C01FC018485958597FF0BC0CE0101963D
:100F40000E94FF06019771F4898190E0F80195876E
:100F50008487F801848595850F90DF91CF911F914B
:100F60000F9108958FEF9FEFF1CFFC018485958558
:100F700097FD0BC09FB7F89482E08093E9008091C1
:100F8000F2009FBF90E0019608959FB7F89482E029
:100F90008093E9008091F2009FBF90E00895409116
:100FA000C4015091C5012091C2013091C301421783
:100FB0005307B4F49091E8009570E1F39091E80044
:100FC00092FD19C08093F1008091C4019091C501F8
:100FD00001968F739927892B19F48EEF8093E8007F
:100FE0008091C4019091C50101969093C5018093B1
:100FF000C40181E0089580E00895EF92FF920F937D
:101000001F93CF93DF93F82E192FE62E042F81E044
:10101000860F880F0E94CF0783E00E94CF07CF2D55
:10102000D12FEC0EFD2EF11CCE15DF05B9F007FF18
:1010300013C0FE0184910E94CF07182F80E00E9408
:10104000CF07812321968111EFCFDF91CF911F919F
:101050000F91FF90EF9008958881EDCF81E0F5CF5B
:10106000DF92EF92FF920F931F93CF93DF93D82ECF
:101070008A01EB017B01E40EF51ECE15DF0559F068
:10108000D7FE12C0FE0184910E94CF0721968111E4
:10109000F4CF0FEF1FEFC801DF91CF911F910F9198
:1010A000FF90EF90DF9008958881EECF0F931F930C
:1010B000CF93DF931F92CDB7DEB782E0898342E4FE
:1010C00050E06BE47AE080E80E9430080E943A0722
:1010D000DC0112960D911C910115110589F0D801C2
:1010E000ED91FC910280F381E02DBE016F5F7F4F97
:1010F000C801099597FD04C0F80100851185ECCF62
:1011000089810F90DF91CF911F910F9108956150C8
:1011100030F02091F100FC0120830196F8CF28984F
:1011200084E68093D6010895AF92BF92CF92DF926A
:10113000EF92FF920F931F93CF93DF936C017B018C
:101140008B01040F151FEB015E01AE18BF08C0171D
:10115000D10759F06991D601ED91FC910190F08190
:10116000E02DC6010995892B79F7C501DF91CF9153
:101170001F910F91FF90EF90DF90CF90BF90AF90B5
:10118000089581508F3008F047C0E82FF0E0E55314
:10119000F74F0C94F828E808EC08DA08E008E408AF
:1011A0000C090C090C09EF08F508F908FD080309FA
:1011B0000C090709809180008F7780938000089543
:1011C000809180008F7DF9CF80918000877FF5CF5F
:1011D00084B58F7784BD089584B58F7DFBCF8091D2
:1011E00090008F77809390000895809190008F7D7C
:1011F000F9CF80919000877FF5CF8091C0008F77E5
:101200008093C00008958091C0008F7DF9CF8091B8
:10121000C200877F8093C20008951F93CF93DF930E
:10122000282F30E0F901E251F34F8491F901E153A5
:10123000F34FD491F901E055F34FC491CC23A9F0B9
:10124000162F81110E94C108EC2FF0E0EE0FFF1F56
:10125000EF5AFA4FA591B4918FB7F894EC91111110
:1012600008C0D095DE23DC938FBFDF91CF911F9113
:101270000895DE2BF8CFCF93DF9390E0FC01E1538C
:10128000F34F24918055934FFC0184918823C9F03A
:1012900090E0880F991FFC01EA5CFA4FA591B49188
:1012A000FC01EF5AFA4FC591D49161110DC09FB75F
:1012B000F8948C91209582238C938881282328830D
:1012C0009FBFDF91CF910895623051F49FB7F8949A
:1012D0003C91822F809583238C93E8812E2BEFCF36
:1012E0008FB7F894EC912E2B2C938FBFEACFDF921F
:1012F000EF92FF920F931F93CF93DF93C9E2D4E055
:101300000FE214E0EE24EA9462E08A850E943B0931
:101310002A8530E0F901E251F34F8491F901E1535C
:10132000F34FF490F901E055F34FD490DD2029F10B
:1013300081110E94C108ED2DF0E0EE0FFF1FEE5568
:10134000F34FA591B491EC918989FE22B1F08111FE
:101350001CC021960C171D07B9F68091400490918E
:101360003A0491509E3FB8F490913C0491509E3FB6
:1013700090F48F5F8093400414C089898F5F898BBC
:1013800060E08A850E943B09E4CF8F3F11F4198AFF
:10139000F7CFE98AF5CF882321F08F3F51F41092DF
:1013A0004004DF91CF911F910F91FF90EF90DF905C
:1013B00008958FEFDFCF3FB7F89480915C01909153
:1013C0005D01A0915E01B0915F0126B5A89B05C0AB
:1013D0002F3F19F00196A11DB11D3FBFBA2FA92FB4
:1013E000982F8827BC01CD01620F711D811D911DB1
:1013F00042E0660F771F881F991F4A95D1F708951D
:101400008F929F92AF92BF92CF92DF92EF92FF9214
:101410004B015C010E94DB096B017C010E94DB092E
:101420006C197D098E099F09683E734081059105FD
:10143000A8F321E0821A9108A108B10888EEC80E2D
:1014400083E0D81EE11CF11C81149104A104B104B5
:1014500029F7FF90EF90DF90CF90BF90AF909F90D3
:101460008F9008958F929F92AF92BF92CF92DF920A
:10147000EF92FF920F931F93CF93DF936C017B0149
:101480008A0180910C01882309F45CC08091D70106
:10149000882309F457C08091C90180FF05C080915D
:1014A000E00082608093E000E801B12C8AEFA82E72
:1014B00093E0892E2AE3922E209711F4BB20D9F1D4
:1014C0000E94290781110AC0AA94AA20D9F161E0DB
:1014D00070E080E090E00E94000AEECF8C171D06BD
:1014E00011F00CF08C2F9FB7F8948092E9002091B6
:1014F000E80025FD02C09FBFDFCF282F30E0C21BD0
:10150000D30BF701815020F041914093F100FACFC5
:10151000E20EF31EBB2021F09092E800B12CEBCF3D
:101520008091E80085FDE7CF9092E800BB24B3945A
:10153000209709F3F3CF5D9884E68093C8011016D5
:1015400011063CF081E090E0F6019383828310E085
:1015500000E0C801DF91CF911F910F91FF90EF90B4
:10156000DF90CF90BF90AF909F908F90089590E1C3
:10157000699FB0011124E82FE695E60FF72FF11DC2
:10158000EE5CFC4F80FF03C084918F7008958491BE
:101590008295FBCFE9EAF1E083E0808F80E090E084
:1015A000A0EAB1E480839183A283B383848395838B
:1015B000A683B78310861186128613861486158635
:1015C00016861786108A118A128A138A148A158A37
:1015D000168A178A0895FC01178A158A14A213A285
:1015E000108E1092D0031092D1031092D403109257
:1015F00099001092980008950F931F93CF93DF9353
:10160000EC018B010E94EB0A1E870D871B8A1A8A48
:1016100081E0898389E08E8B198E1B8E1D8EDF9170
:10162000CF911F910F910895E09157048E2F90E074
:10163000880F991FE0915504F0915604E80FF91FA7
:10164000859194918F3F980719F410924E04089554
:1016500090935A049927880F991FE0915804F091AC
:101660005904E80FF91F659174918EE494E00E948B
:10167000FC0A809157048F5F80935704089561E2BC
:1016800073E00C94FC0A69E173E00C94FC0ADC0141
:10169000FB0184918F5F17968C9317973196E49195
:1016A000EF5F1896EC9318976E5F7F4F1E967C93B2
:1016B0006E931D9708952F923F925F926F927F9243
:1016C0008F929F92AF92BF92CF92DF92EF92FF9252
:1016D0000F931F93CF93DF93EC01F901E4903196C0
:1016E000849164350CF015C140330CF012C10E2CFE
:1016F000000CFF08062F062E000C110BF701E00F5F
:10170000F11F1E161F060CF004C1A82FC42E042EB4
:10171000000CDD085601A80EB11C87FDBA941A14FE
:101720001B040CF0F6C02E5F3F4F570197E0A90E47
:10173000B11CB7FE04C05701BEE0AB0EB11CB3E054
:10174000B594A794BA95E1F747FF0AC0A42FA80F54
:10175000AC9CC001AD9C900D1124281B390B40E0BE
:101760008A2F0A2E000C990B840F911D47FD9A9524
:10177000C19714F0A0E3A41BFF8467FD60E0E5358A
:10178000F10514F0E4E5F0E09E2FCC85C427C62EC9
:10179000062E000CDD08F601E01BF10B8F014F0156
:1017A000F7E08F229924E0E8F0E002C0F595E79594
:1017B0008A94E2F77E2F17FF02C0095F1F4FF3E004
:1017C00015950795FA95E1F7200F311F542F5770A3
:1017D00081E001C0880F5A95EAF7459545954595F2
:1017E000F601B4E54B02E00DF11D1124AF014852A2
:1017F0005E4FD0E02A2EAA0F3308EE24E394BB24D8
:10180000D21513040CF085C0F9015490F1E0FF12D9
:101810001AC0962E8A01E72F6901991608F057C061
:101820008E2E852021F0D8018C90882A8C92E69506
:1018300031F4BFEFCB1ADB0AF6015490E0E8939441
:101840000F5F1F4FEACFF1101CC0782E7094962EB8
:101850008A01E72F6901991608F039C08E2E85207C
:1018600021F0D8018C9087208C92E69531F4BFEF5F
:10187000CB1ADB0AF6015490E0E893940F5F1F4FF8
:10188000EACFF3E0FF122CC0782E7094862E8A01E6
:10189000972E69018916D0F4E92DE52141F0D80190
:1018A000EC916C2E682460FE0FC0E82BEC939694AC
:1018B00039F4BFEFCB1ADB0AF6015490E0E89E2E14
:1018C00083940F5F1F4FE6CFE721F0CFCE25880F1F
:1018D00019F44C5A5F4F81E0DF5F2A0D3B1D90CF1A
:1018E000962E8A01E72F6901991688F78E2E85209A
:1018F00021F0D8018C9088268C92E69531F4BFEFC8
:10190000CB1ADB0AF6015490E0E893940F5F1F4F67
:10191000EBCFDF91CF911F910F91FF90EF90DF9070
:10192000CF90BF90AF909F908F907F906F905F907F
:101930003F902F900895DC01643570F5403360F5D9
:101940001F968C911F97E62F062E000CFF0B242F5D
:1019500025952595259594E52902E00DF11D112485
:10196000E852FE4F2081342F37708230B1F4822F3D
:1019700090E0032E02C0959587950A94E2F7809532
:101980008170811114C081E090E001C0880F3A9508
:10199000EAF78095822380830895833091F71C961F
:1019A0008C9181706427609561708613ECCF81E023
:1019B00090E001C0880F3A95EAF7822BECCFAF9206
:1019C000BF92CF92DF92EF92FF920F931F93CF932C
:1019D000DF93182F062FC0E0D3E08AEFD82E9EEFBA
:1019E000E92E842F8470C82E842F8270B82E842F05
:1019F0008870A82E4170F42ECF5F8C2F880F8F5FD8
:101A0000E80ECC2081F0402F4D0F612F6C0F87E73F
:101A100094E00E949B0C402F4C0F6D2F610F87E7C5
:101A200094E00E949B0CBB2081F0402F4D1B612F46
:101A30006C0F87E794E00E949B0C402F4C1B6D2F8E
:101A4000610F87E794E00E949B0CAA2081F0402F51
:101A50004C0F612F6D1B87E794E00E949B0C402F79
:101A60004D0F612F6C1B87E794E00E949B0CFF20B9
:101A700081F0402F4C1B612F6D1B87E794E00E9483
:101A80009B0C402F4D1B612F6C1B87E794E00E943D
:101A90009B0CCD173CF4E7FCAFCFD150D394D3943B
:101AA000ED0CAACFDF91CF911F910F91FF90EF9096
:101AB000DF90CF90BF90AF900895EF92FF920F9379
:101AC0001F93CF93DF938C01F62ED42FE22EC0E02C
:101AD000CE1544F46F2D6C0F4D2FC8010E949B0C46
:101AE000CF5FF6CFDF91CF911F910F91FF90EF90D5
:101AF0000895DF92EF92FF920F931F93CF93DF939E
:101B00007C01D62FD22EC42F002E000C110B040FF7
:101B1000111D47FD1A958C2F0C2E000C990B801768
:101B2000910744F42D2D4C2F6D2FC7010E945D0DA0
:101B3000CF5FF1CFDF91CF911F910F91FF90EF9089
:101B4000DF9008954F925F926F927F928F929F9253
:101B5000AF92BF92CF92DF92EF92FF920F931F93BB
:101B6000CF93DF93EC0164350CF087C040330CF069
:101B700084C0EF81E150FF0B0E9FC0010F9F900DBD
:101B80001124860F911D67FD9A95181619060CF001
:101B900074C03885842F042E000C990B039F800D90
:101BA000911D1124181619060CF067C0102FF42E81
:101BB000E62E7F84962E812CC22ED12C282D082C27
:101BC000000C330B8F8190E0281739070CF054C0BC
:101BD0000197E0E02817390771F0C89EF001C99E0F
:101BE000F00DD89EF00D11242E0F3F1FED85FE85C0
:101BF000E20FF31FE4915F2C612C482C4E0C2885DA
:101C0000862D062C000C990B2817190691F18CF1E2
:101C1000AE2EB12CE0FF16C0113061F4462D4F0DF1
:101C2000642DCE010E949B0CF501F595E795639418
:101C3000510EE5CF012F212F452D692DCE010E9498
:101C4000790DF2CF88899F85891771F38F871130BD
:101C500041F4462D4F0D642DCE010E949B0C7F86D2
:101C6000E3CF012F212F452D692DCE010E94790D43
:101C7000F6CF8394910EA2CF7F86DF91CF911F91F3
:101C80000F91FF90EF90DF90CF90BF90AF909F901B
:101C90008F907F906F905F904F9008950F93CF93A8
:101CA000DF93EC016A3049F42E8198858A85299F5B
:101CB000800D11248A8719861EC06D30E1F0262F11
:101CC0000E814A8569850E94A20D2E813F818985FA
:101CD000239F800D112489879D81992361F0082E0F
:101CE000000C990B44E550E0239F40195109112441
:101CF00048175907D4F281E090E0DF91CF910F911E
:101D00000895EF92FF920F931F93CF93DF938C016F
:101D10007B01D0E0C0E0F701EC0FFD1F649166236A
:101D200039F0C8010E944E0E892B11F02196F3CF95
:101D3000CE01DF91CF911F910F91FF90EF90089509
:101D4000EF92FF920F931F93CF93DF938C01D62FC7
:101D5000F42EE22EC0E0CE1544F44F2D4C0F6D2F23
:101D6000C8010E949B0CCF5FF6CFDF91CF911F91EE
:101D70000F91FF90EF900895DF92EF92FF920F93F3
:101D80001F93CF93DF93E82ED62FC42F022F8AEF15
:101D9000D82ED40E93E0F92EFE0C2D2D462F6F2D4C
:101DA00087E794E00E945D0D1D2F100F4FEF410F4C
:101DB0002D2D6F2D87E794E00E945D0D0650DD5FAD
:101DC000202F4D2F6E2D87E794E00E94A00ECE0DA0
:101DD0006FEF6C0F202F4D2F87E794E00E94A00E2D
:101DE00041E06D2F8F2D0E94DF0CC45042E06D2F1B
:101DF0008C2F0E94DF0C145044E0612F8C2F0E9426
:101E0000DF0C48E0612F8F2DDF91CF911F910F9153
:101E1000FF90EF90DF900C94DF0C7F928F929F9257
:101E2000AF92BF92CF92DF92EF92FF920F931F93E8
:101E3000CF93DF935C01C62E942EC22F11E0121BAC
:101E4000D22ED194DD0C83E0F82ED0E0802F81706B
:101E5000782E882483948E0C0270DC17ACF517FD65
:101E600004C0C150D394D3941D0DDF5F1F0D7720A4
:101E700099F02C2F220F280D492D4C1B6C2D6D0F26
:101E8000C5010E94A00E2E2D2F0D492D4D1B6C2F2C
:101E90006C0DC5010E94A00E002399F02C2F220F7B
:101EA000280D492D4C1B6C2D6D1BC5010E94A00EE9
:101EB0002E2D2F0D492D4D1B6C2D6C1BC5010E9425
:101EC000A00EF394F394C9CFDF91CF911F910F919E
:101ED000FF90EF90DF90CF90BF90AF909F908F904A
:101EE0007F9008958EBD00000DB407FEFDCF8EB526
:101EF0000895089590E080E00895CF92DF92EF92E8
:101F0000FF92809164008E7F8093640087EC8093C1
:101F10007C0080E280937B0062E070E080E090E0F3
:101F20000E94000A80917A00806480937A008091F8
:101F30007A0086FDFCCFE0907800F0907900E09484
:101F4000F0948EE580937C0062E070E080E090E0A9
:101F50000E94000A80917A00806480937A008091C8
:101F60007A0086FDFCCFC0907800D09079000E9466
:101F7000DB09C094D094CE9CD001CF9CB00DDE9CE8
:101F8000B00D11249B01AC012095309540955095E2
:101F90000E9438266B017C010E94DB096C0D7D1DBF
:101FA0008E1D9F1D611571058105910511F00E941F
:101FB000FA2580916400816080936400FF90EF9027
:101FC000DF90CF900895EF92FF920F931F93CF93DE
:101FD000DF9340919E0450919F046091A004709102
:101FE000A1042FB7F8948091D5039091D603A091C6
:101FF000D703B091D8032FBF481B590B6A0B7B0B3B
:1020000080919D0490E0B0E0A0E0009196041091D2
:102010009704209198043091990484179507A60796
:10202000B70708F04EC0011511052105310509F467
:1020300048C02FB7F8948091D5039091D603A09112
:10204000D703B091D8032FBF20919D04820F911D1B
:10205000A11DB11D80939E0490939F04A093A004A2
:10206000B093A10480918E0490918F04A09190046C
:10207000B09191040196A11DB11D80938E0490939F
:102080008F04A0939004B093910410929604109240
:10209000970410929804109299040E94DB096093AF
:1020A00092047093930480939404909395040E94F7
:1020B000770981E0DF91CF911F910F91FF90EF9011
:1020C0000895012B022B032B09F015C180914E04BA
:1020D000882331F080914F04811102C00E94140BBB
:1020E00080914F04882309F43EC0809163048111DC
:1020F0003AC080915B0490915C04E0916004F0919F
:102100006104EE0FFF1FE80FF91F2591349121158F
:10211000310509F447C1A90156954795569547954C
:10212000842F20FDEAC08F73809362048091520453
:10213000839F802D11248093630410927304109266
:1021400072041092710481E0809365048093D4033B
:1021500010926604809160049091610401969093BE
:1021600061048093600480916504882341F080912C
:102170006304811133C18EE494E00E94EB0A8091E4
:10218000A204882309F453C0CCE0C81B8C3008F0AB
:10219000C0E0FF24F394F0927D0410928604109224
:1021A0008704D0917F041C2F1D1B03E00D0F4DE20F
:1021B000410F2EE463E087E794E00E94790DD4504C
:1021C000105DED2E01E023E0412F60E587E794E00C
:1021D0000E940D0F02E023E0412F63E087E794E0C7
:1021E0000E940D0FF0928604F092870480917F0484
:1021F00023E0280F6C2F681B635D44E580E00E949C
:10220000BC0E84E08093800480917F04C81BC15D74
:10221000C09381046091A3047091A40487E794E0C3
:102220000E94810E8091A20481508093A20480912B
:1022300083048F5F8093830408ED11E0C0E00E9467
:10224000B20682E20E94720FCF5F8C2F0E94720F43
:1022500087E00E94720F81E20E94720F86E10E9465
:10226000720F8FE70E94720FE0918A04F0918B0445
:10227000808190918D04892B8083E0918804F09176
:102280008904908180918C048095892380837801D2
:10229000D0E0D7018D917D010E94720FDF5FD435B0
:1022A000C1F70C5A1F4FC63051F680917B04811143
:1022B0000EC0E8EDF1E088EF91E0DF019C011D9296
:1022C00021503040E1F710928004109281040E9466
:1022D000DB0960939604709397048093980490931D
:1022E00099042091920430919304621B730B7093B4
:1022F0009B0460939A0480E0DDCEC901E6E09695E8
:102300008795EA95E1F78F71932F96959695969517
:1023100090514F70423099F1D0F4442309F43CC0FD
:102320004130B9F1E0916004F09161043196F0938D
:102330006104E0936004CF01880F991FE0915B0472
:10234000F0915C04E80FF91F25913491E4CE4330FD
:1023500061F0443039F720915204289F802D1124D8
:1023600080936B0490936C04DDCF20915204289FDE
:10237000802D11248093690490936A04D3CF209117
:102380005204289F802D1124809367049093680441
:10239000C9CF0E94D306C6CF8B3008F08AE0809365
:1023A0006404C0CF20915F04211112C010924F0429
:1023B00080914E04811105C08EE494E00E94EB0AE6
:1023C000D2CE0E94140B8091600490916104B4CF2E
:1023D0001092610410926004FC01B6CF815080938A
:1023E000630480917304811142C020917104309183
:1023F00072042F5F3F4FC901880F991FE0916D0450
:10240000F0916E04E80FF91F85919491482F477061
:1024100040937404492F4695469540937504AC014A
:1024200064E0569547956A95E1F74F739091520491
:10243000499F402D11244093730483FB882780F922
:102440008093D303309372042093710480916F04BE
:1024500090E02817390758F020917004222309F4DE
:1024600092C0821B910990937204809371048091B1
:1024700073048150809373048091660431E0380FB7
:10248000309366044091620420917504240F80917A
:102490005A04280F2093500460916904662371F058
:1024A00070E0832F032E000C990B0E94E42880918A
:1024B0006A04869F200D11242093500480915004BB
:1024C00090E0CB966BE370E00E94E4288093500488
:1024D000209164042093510460916704662381F085
:1024E000062E000C770B832F032E000C990B0E94F5
:1024F000E42880916804869F200D112420935104C4
:1025000060916B046623A1F0832F330F990B70E069
:102510000E94E428CB0162E070E00E94E428209150
:102520006C0490915104289F900D112490935104B4
:102530004F3371F1809151048A300CF089E087FDAE
:1025400080E080935104F894E0915004F0E0E95960
:10255000F34FE491E093D203809153049091760479
:10256000899F802D112490915104899F802D1124E1
:1025700090917404899F802D11248093D1038093BE
:10258000D0037894FCCD8EE494E00E94EB0A6FCFE8
:1025900010925104D8CFFB0101900020E9F7319748
:1025A000AF01461B570B0C9494088F929F92AF92E9
:1025B000BF920F931F93CF93DF93CDB7DEB7A19751
:1025C0000FB6F894DEBF0FBECDBF19A2423008F49B
:1025D0004AE08E010F5D1F4F842E912CB12CA12C4F
:1025E000A50194010E944B26E62FB901CA01EA30E9
:1025F00004F5E05DD801EE938D01232B242B252BD0
:1026000079F790E080E0109729F0BD0187E794E02A
:102610000E94CB12A1960FB6F894DEBF0FBECDBFBD
:10262000DF91CF911F910F91BF90AF909F908F90AE
:102630000895E95CDFCFCF92DF92EF92FF92CF93C4
:10264000DF936B017C016DE287E794E00E944E0E00
:10265000EC0166277727CB016C197D098E099F094C
:102660004AE00E94D5128C0F9D1FDF91CF91FF9001
:10267000EF90DF90CF9008950F931F93CF93DF9348
:10268000EC010E94810E8C0166E571E0CE010E9492
:10269000CB12800F911FDF91CF911F910F91089561
:1026A000CF92DF92EF92FF920F931F93CF93DF931E
:1026B0001092410481E080937D0410927C0410927A
:1026C0007B048093860480938704C2EEDBE01CE0E9
:1026D0000E94E30F8823E1F3FE01049101110091B0
:1026E0007F0427EF3BE040E060E087E794E00E9452
:1026F0005B0B4CE0400F20EC3AE060E087E794E0B1
:102700000E945B0B109280041093810462EE7BE0C8
:1027100087E794E00E94810E80917E04982F990FA4
:10272000990F891B8D5A8093800480917F04982F84
:10273000990F990F891B835D8093810480918E048A
:1027400063EF7BE084FD02C06FEE7BE087E794E0FF
:102750000E943C1380917E04982F990F990F891B3A
:102760008D5A80938004809181048F5F80938104CF
:10277000809153046BEE7BE0811102C067EE7BE039
:1027800087E794E00E943C1380917E04982F990F74
:10279000990F891B8D5A80938004809181048F5FEB
:1027A0008093810463EE7BE087E794E00E943C1312
:1027B00080913F04813099F4809153048F5F082EFB
:1027C000000C990B6091540470E06F5F7F4F0E9482
:1027D000E428809353048EE494E00E943F0B8091A0
:1027E0003E048130B9F080919C04482F50E070E0A5
:1027F00060E0C0908E04D0908F04E0909004F09040
:102800009104C416D506E606F70608F461CF8F3F9B
:1028100009F45ECF8FEF80939C048EE494E00E94D5
:10282000EB0A10924F048EE494E00E94430B81E087
:1028300080934104DF91CF911F910F91FF90EF9012
:10284000DF90CF9008958F929F92AF92BF92DF92C8
:10285000EF92FF920F931F93CF93DF9382E0882E26
:10286000912CA12CB12C95E1E92EF12C0E94E30FC3
:102870008823E1F30E94AB25A50194010E9419264B
:10288000675F609380040E94AB25A50194010E94BC
:1028900019266093810467E273E087E794E00E9461
:1028A0003C1310927C041092800480917F048093EA
:1028B000810408E911E0C1E6D1E0D12CF801819151
:1028C00091918F01892B09F049C06DE287E794E06F
:1028D0000E944E0E80917E049701281B3109C90188
:1028E000880F880F80938004D39480917F048D9DFE
:1028F000802D112480938104F801329760817181C9
:10290000072E000C880B990B97FF2EC00E941B13FB
:1029100066E571E087E794E00E94CB122B9635E0E4
:10292000D312CCCF80913E04813049F080913F0496
:10293000813029F080914004813009F097CF8EE4F6
:1029400094E0DF91CF911F910F91FF90EF90DF9076
:10295000BF90AF909F908F900C94430BBE0187E780
:1029600094E00E94CB12B6CF4AE00E94D512D0CF9D
:102970001F920F920FB60F9211248F939F93809105
:10298000E1009091E100937F9093E10083FF0FC0FD
:102990001092E90091E09093EB001092EC0092E32A
:1029A0009093ED001092D70198E09093F00082FF91
:1029B00022C093E09093E9009091F200992319F0DE
:1029C0009AE39093E8009091C801992341F0909187
:1029D000C80191509093C801911101C05D9A9091E6
:1029E000D601992341F09091D60191509093D60150
:1029F000911101C0289A84FF18C08091E2008E7E58
:102A000081608093E2008091E1008F7E8093E100FD
:102A10008091C9018E7E80618093C9019F918F91C1
:102A20000F900FBE0F901F90189580FFF7CF8091E9
:102A3000E2008E7E80618093E2008091E1008E7ED4
:102A40008093E1008091C9018E7E8160E5CF1F9265
:102A50000F920FB60F921124CF92DF92EF92FF9256
:102A60000F931F932F933F934F935F936F937F9396
:102A70008F939F93AF93BF93EF93FF93CF93DF9386
:102A8000CDB7DEB76C97DEBFCDBF1092E900809165
:102A9000E80083FF25C068E0CE0145960E948708C4
:102AA00082EF8093E8008D8987FF39C09091E8001C
:102AB00090FFFCCF982F907609F034C19E894F8902
:102AC000588D2F89F88C911131C0803861F5809133
:102AD000C7018093F1001092F1008EEF8093E8001F
:102AE0006C960FB6F894DEBF0FBECDBFDF91CF91CD
:102AF000FF91EF91BF91AF919F918F917F916F91D6
:102B00005F914F913F912F911F910F91FF90EF9007
:102B1000DF90CF900F900FBE0F901F9018959EEFF3
:102B20009093E800C7CF1092F100D5CF913059F4BF
:102B30008111D3CF4130510581F68091C7018D7F3E
:102B40008093C701CACF933049F48111C6CF413079
:102B5000510519F68091C7018260F2CF953041F49A
:102B60008091E80080FFFCCF20682093E300B5CF80
:102B7000963009F0A9C00B8D1C8D22E01092E9005F
:102B80001092C5011092C401F2122EC01092C3011E
:102B90001092C2010E9456081F8299E09983FA821E
:102BA00091E09E8390EA98879AEF99872091C401DB
:102BB0003091C501275F3F4F3C832B838D8310925B
:102BC000E9001092C5011092C4011093C301009353
:102BD000C20149E050E0BE016F5F7F4F80E00E947C
:102BE00030080E94560879CF1093C3010093C201A8
:102BF0000E943A07DC0112960D911C9101151105F6
:102C000009F451C1D801ED91FC910480F581E02DCA
:102C1000BE016B5E7F4FC8010995009709F03EC168
:102C2000F80100851185EACFF3E0FF120EC08F890D
:102C3000882309F440C0823061F440E860E18FEA03
:102C40009AE00E94FD07811148CF81E28093EB005A
:102C500047CF813029F440E86BE083EA9AE0F1CF76
:102C6000833099F70E943A07DC011296ED90FC90B0
:102C70008E010F5F1F4F6801E114F10479F0D70155
:102C8000ED91FC910680F781E02DB801C70109950F
:102C9000080F111DF701E084F184EECFD8011C92DA
:102CA000F60101900020E9F73197BF016C197D0909
:102CB00040E0C601C6CF6DE87AE0FB01449150E0E8
:102CC00080E80E94300809CF973009F4BECF9830D1
:102CD00021F481E08093F10000CF993009F0FDCE1E
:102CE000837009F0B2CFE2E3F1E081E031E096E3F6
:102CF0002191222371F08093E9003093EB00DF01F2
:102D000011972C912093EC009093ED008F5F87300A
:102D100079F78EE78093EA001092EA008F8980931A
:102D2000D701DBCE8B8D9C8D1092E9001092C501EE
:102D30001092C4019093C3018093C201898D8111C7
:102D400092C08E899D89913A49F4813209F07DCFF4
:102D500047E050E065E071E080E0B3CF913209F0E8
:102D600074CF833269F48F89988DB0E0A0E08093AE
:102D7000010190930201A0930301B0930401ADCE31
:102D8000803269F48091E80082FFFCCF67E085E043
:102D900091E00E9487088BEF8093E8009ECE8232FC
:102DA00009F09BCE8F8980930C01EEEFFFE78591B0
:102DB00094918B3F9C4D51F1E0E0F8E0809105014A
:102DC00090910601A0910701B0910801803B9440C9
:102DD000A105B105F1F480910C0180FD1AC0EE3F10
:102DE0008AE0F80789F587E797E7918380838091E8
:102DF00060008093C60188E19BE00FB6F894A89527
:102E0000809360000FBE9093600067CEEEEFFAE013
:102E1000D5CF808191818737974709F05ECEA895FD
:102E2000809160008861809360008091C6018093EA
:102E30006000EE3F2AE0F20789F08091FE0A90914F
:102E4000FF0A9183808349CE8081918187379807DB
:102E500051F29093FF0A8093FE0AC5CF1092FF0AA9
:102E60001092FE0A3ACE0E943A07DC0112960D91AA
:102E70001C910115110509F4E8CED801ED91FC91E2
:102E80000190F081E02DBE016B5E7F4FC801099576
:102E9000811123CEF80100851185EBCF1816190694
:102EA0000CF41BCED2CEF1E0FF12BECE61E97AE087
:102EB00004CF1F920F920FB60F9211242F933F93BE
:102EC0008F939F93AF93BF938091D5039091D60337
:102ED000A091D703B091D80330915B0123E0230F79
:102EE0002D3758F50196A11DB11D20935B018093EC
:102EF000D5039093D603A093D703B093D8038091C2
:102F00005C0190915D01A0915E01B0915F0101961D
:102F1000A11DB11D80935C0190935D01A0935E01A2
:102F2000B0935F01BF91AF919F918F913F912F918E
:102F30000F900FBE0F901F90189526E8230F029652
:102F4000A11DB11DD2CF1F920F920FB60F92112467
:102F50002F936F937F938F939F936091D1036623F9
:102F600061F180915A018F5F80935A019091D20351
:102F7000891718F12091D40381E028272093D403E6
:102F800010925A018091D303882369F08091000147
:102F900093E4899F802D1124895B809300010E9416
:102FA000D8289093D0038091D003211101C080E0F4
:102FB00090E090939900809398009F918F917F91DA
:102FC0006F912F910F900FBE0F901F901895E9ED04
:102FD000F3E01382128288EE93E0A0E0B0E08483F5
:102FE0009583A683B7838CE391E0918380838FEFF1
:102FF0009FEF9587848710927A04109279048EE46B
:1030000091E090937804809377040895CF93DF93B1
:10301000CDB7DEB763970FB6F894DEBF0FBECDBF56
:10302000789484B5826084BD84B5816084BD85B5A3
:10303000826085BD85B5816085BD80916E008160AF
:1030400080936E0010928100809181008260809355
:103050008100809181008160809381008091800057
:1030600081608093800080919100826080939100C4
:1030700080919100816080939100809190008160A7
:10308000809390008091C10084608093C100809102
:10309000C10082608093C1008091C10081608093F3
:1030A000C1008091C30081608093C3008091C00003
:1030B00082608093C0008091C20081608093C200D2
:1030C00080917A00846080937A0080917A00826097
:1030D00080937A0080917A00816080937A00809159
:1030E0007A00806880937A001092D7011092C7010D
:1030F0001092C9018091D70081608093D70080EA47
:103100008093D80089B5806189BD89B5826089BD09
:1031100089B5282F21702B8B80FFFACF61E070E0FA
:1031200080E090E00E94000A8091D8008F7C80614E
:103130008093D8008091E000807F8093E0008091B0
:10314000E1008E7E8093E1008DE08093E200559A4D
:10315000209A82E380939D0481E090E0A0E0B0E0BB
:103160008093960490939704A0939804B093990445
:1031700011E010935404109353048FEF80939C0438
:1031800084E18093330482E18093340483E180936B
:10319000350485E18093360487E08093370488E026
:1031A00080933804109239040E94770910938604A2
:1031B0001092870410937C0410937D0461EC78E0F6
:1031C00087E794E00E94470B1FB7F8948091600155
:1031D000811127C0E1ECFCE08491E0EEFCE09491E9
:1031E000E82FF0E0EE0FFF1FEA5CFA4FA591B491D3
:1031F000EC91E92321F461E081E10E940D0961E095
:1032000081E10E943B098CB580618CBD8CB58064E6
:103210008CBD61E08FE00E943B0961E080E10E948B
:103220003B09809160018F5F809360011FBF8CB567
:103230008C7F8CBD8DB581608DBD61E084E00E9486
:103240003B0961E08CE00E943B0961E086E00E945E
:103250003B0961E086E00E940D0961E070E080E0DA
:1032600090E00E94000A60E086E00E940D096AE09A
:1032700070E080E090E00E94000A61E086E00E9439
:103280000D09ECEBFCE0E491F0E0EE0FFF1FEF5ACC
:10329000FA4F859194919093890480938804E4EB8C
:1032A000FCE0E491F0E0EE0FFF1FEF5AFA4F85913A
:1032B000949190938B0480938A04EBEDFCE0E4916D
:1032C000E0938C04E3EDFCE0E491E0938D040E9434
:1032D000B20604E415E0E1E5EE2EE5E0FE2EF8018D
:1032E00084910E94720F0F5F1F4FE016F106B9F72D
:1032F000E0918A04F0918B04808190918D04892B58
:103300008083E0918804F0918904908180918C04FD
:1033100080958923808300E014E080E00E94720F92
:1033200001501109D1F781E08093520484E0809329
:10333000760482E395E090935E0480935D0480E0E0
:103340000E94D30661E085E00E943B0961E08DE0C8
:103350000E943B0961E085E00E943B09E3EFFCE04D
:10336000E491E150EF3008F06AC1F0E0E654F64E27
:103370000C94F828C919AC1AB21ABE1ACA1A1F1B23
:103380001F1B1F1BD61AE21AEE1AFA1A081B1F1B64
:10339000111B84B5806884BD81E087BD8091910058
:1033A000887F816080939100F89410928000109241
:1033B0008100109285001092840088E191E0909342
:1033C00089008093880080918100886080938100CB
:1033D0008091810081608093810080916F00826084
:1033E00080936F00789480913F04813009F02CC164
:1033F000109253046FE376E087E794E00E94470B56
:1034000041E6E42E41E0F42E58E9C52E51E0D52ED8
:103410000AE110E0912C812C5801FAE0AF1AB108B2
:10342000C501880D991D0E940326F701E80DF91DBD
:1034300080832FEF821A920A4AE08416910481F762
:10344000C8010E940326A82EB12CD601AD92BC92D1
:10345000C80101960E94032690E0982F88278A0DC4
:103460009B1D009711F48FE097E2F60181939193F1
:103470006F01045F1F4FFBE0EF0EF11C06351105D5
:1034800049F680919C0481110E9450130E947D0F87
:1034900010927B04EE24EA94412CF12C90E3C92E87
:1034A00010E05524539423E0322E0E94E30F88232A
:1034B000E1F380913E040C2C000CDD08813049F0D2
:1034C00090913F04913029F090914004913009F09F
:1034D000C9C0F0907F04FF0CFF0CF194FA94FA94A9
:1034E000813009F0B8C08EE494E00E94430BE12ED5
:1034F000C6018F199109F7FC939502970CF03CC116
:1035000021E0E21611F40C94462542E0E41609F499
:10351000AAC1E1100C944A25109241040E94CA0AE3
:103520001092A4011092A3011092A20161EC78E024
:1035300087E794E00E94470B0E94E30F8823E1F3A2
:1035400080914004813009F0A5C16FE376E087E700
:1035500094E00E94470B96C184B5806284BD81E0EF
:1035600088BD1CCF8091800080688093800081E0BE
:1035700090E0909389008093880010CF8091800024
:1035800080628093800081E090E090938B00809334
:103590008A0004CF8091800088608093800081E061
:1035A00090E090938D0080938C00F8CE80919000F5
:1035B00080688093900081E090E0909399008093E0
:1035C0009800ECCE8091900080628093900081E022
:1035D00090E090939B0080939A00E0CE80919000C1
:1035E00088608093900081E090E090939D008093AC
:1035F0009C00D4CE8091C00080688093C0008091F0
:10360000C0008F7B8093C00081E08093CF00C6CE46
:103610008091C00080628093C00081E08093D000E0
:10362000BDCE8091C20088608093C2008091C200AC
:103630008B7F8093C20081E08093D200AFCE60E0A8
:1036400085E00E940D09AACE6FE575E08EE494E056
:103650000E94FC0ACFCE6EEF75E08EE494E00E94EB
:10366000FC0A46CF411044CF80913D048F3F41F08A
:103670008370813029F41F5F8EE494E00E943F0B39
:1036800080913B048F3F11F40C945325837081305B
:1036900011F00C94532511508EE494E00E943F0BDE
:1036A0001F3F09F413E080917F0494E0980FF92EF6
:1036B000819FF0181124CF0CD11CF7FCDA94D7FEAF
:1036C00003C05FEFC51AD50AC60195958795082FE7
:1036D000C82E109280048093810450927D04109231
:1036E0007C0483E4682E8AE0782EB12CA12C812EF4
:1036F000012E000C99088A149B0451F43092800426
:1037000080917F04902F189F900D11249093810435
:10371000F3016591749187E794E00E943C13AFEF49
:10372000AA1ABA0AB2E06B0E711CE4E0AE16B1043C
:1037300011F7109286041092870480917F04402F25
:10374000189F400D1124415024E560E087E794E084
:103750000E945D0D509286045092870480917F04F0
:1037600023E0280F602F819F600D1124625044E5F3
:1037700080E00E94BC0E99CE442443949CCF68E91B
:1037800075E087E794E00E94810E60914304709198
:10379000440490E080E04AE00E94D51265E975E0BB
:1037A00087E794E00E943C136CE875E087E794E0BB
:1037B0000E94810E6091420470E090E080E04AE057
:1037C0000E94D51269E875E087E794E00E943C13F7
:1037D00062E875E087E794E00E94810E60912A0418
:1037E00070912B0490E080E04AE00E94D51266E5DB
:1037F00071E087E794E00E94CB1267E775E087E706
:1038000094E00E94810E60912C0470E090E080E0D2
:103810004AE00E94D51266E571E087E794E00E94D5
:10382000CB126FE675E087E794E00E94810E60910D
:10383000530470E090E080E04AE00E94D5126DE60B
:1038400075E087E794E00E94810E6091540470E077
:1038500090E080E04AE00E94D51266E571E087E7DB
:1038600094E00E94CB120E94E30F8823E1F3809141
:103870004004813009F083CF6EEF75E08EE494E070
:103880000E94FC0A80E090E0892B09F401CE0E949E
:103890000000FECD80913C0481508E3FB0F425E4C1
:1038A00038ED40E25EE36091BD017091BE01809110
:1038B000BF019091C0010E947D266093BD0170936D
:1038C000BE018093BF019093C00180913A04815062
:1038D0008E3FB0F425E438ED40E25EE36091BD0137
:1038E0007091BE018091BF019091C0010E947C2621
:1038F0006093BD017093BE018093BF019093C0019E
:1039000080913E0481508E3FB0F42AE037ED43EAC7
:103910005CE36091B1017091B2018091B30190912B
:10392000B4010E947D266093B1017093B20180932F
:10393000B3019093B40180913F0481508E3F08F011
:1039400046C08090B5019090B601A090B701B090AC
:10395000B801C090B901D090BA01E090BB01F090DD
:10396000BC012DEC3CEC4CE45FE36091B101709143
:10397000B2018091B3019091B4010E94F627609347
:10398000B1017093B2018093B3019093B4012DEC17
:103990003CEC4CE45FE3C501B4010E94F627609360
:1039A000B5017093B6018093B7019093B8012DECE7
:1039B0003CEC4CE45FE3C701B6010E94F62760933C
:1039C000B9017093BA018093BB019093BC0120E0D0
:1039D00030E040E85DE36091AD017091AE0180910F
:1039E000AF019091B0010E94F6270E94F526162F94
:1039F0008091A9019091AA01A091AB01B091AC0175
:103A00008B879C87AD87BE8720E030E040E85DE390
:103A1000BC01CD010E94F6270E94F526862F612F5A
:103A20000E94B70A082FC090B501D090B601E0906F
:103A3000B701F090B8018090B9019090BA01A090C0
:103A4000BB01B090BC016091B1017091B201809155
:103A5000B3019091B4010530A1F1063009F454C0CE
:103A600023E333E343E75FE30111D2C20E94F62769
:103A70006093B1017093B2018093B3019093B4014C
:103A800026E636E646E65FE3C701B6010E94F62762
:103A90006093B5017093B6018093B7019093B8011C
:103AA00026E636E646E65FE3C501B4010E94F62746
:103AB0006093B9017093BA018093BB019093BC01EC
:103AC00031C026E636E646E65FE30E94F6276093BD
:103AD000B1017093B2018093B3019093B4012DECC6
:103AE0003CEC4CE45FE3C701B6010E94F62760930B
:103AF000B5017093B6018093B7019093B8012DEC96
:103B00003CEC4CE45FE3D0CF23E333E343E35FE3F8
:103B10000E94F6276093B1017093B2018093B301C4
:103B20009093B4014090BD015090BE016090BF01E0
:103B30007090C001C301B2010E94E9268090B101DA
:103B40009090B201A090B301B090B401A50194018E
:103B50000E94F6272091B5013091B6014091B7013E
:103B60005091B8010E947D266B017C01C092B50185
:103B7000D092B601E092B701F092B801C301B20150
:103B80000E9463289B01AC01C501B4010E94F62785
:103B90009B01AC016091B9017091BA018091BB01A8
:103BA0009091BC010E947D266093B9017093BA0187
:103BB0008093BB019093BC01A70196016B857C8526
:103BC0008D859E850E947D262B013C014092A90196
:103BD0005092AA016092AB017092AC0120E030E0FB
:103BE00040E85DE30E94F6270E94F526862F612FAC
:103BF0000E94B70A182F8830D0F1A7019601C3019F
:103C0000B2010E947C266093A9017093AA0180935F
:103C1000AB019093AC01183009F060C220E030E0B5
:103C2000A901C701B6010E94F12787FD52C280E0B9
:103C300090E0A0ECB0EC8093B5019093B601A09316
:103C4000B701B093B8018EE494E00E94430B20E0EA
:103C500030E040E05FE3C501B4010E94F6276093C5
:103C6000B1017093B2018093B3019093B401C090FD
:103C7000B901D090BA01E090BB01F090BC01209155
:103C8000AD013091AE014091AF015091B001C7013B
:103C9000B6010E947D264B015C018092AD0190929D
:103CA000AE01A092AF01B092B00120E030E040E858
:103CB0005DE30E94F6270E94F526162F20E030E0F3
:103CC00040E85DE36091A9017091AA018091AB0188
:103CD0009091AC010E94F6270E94F526862F612F55
:103CE0000E94B70A182F883008F440C0A701960137
:103CF000C501B4010E947C266093AD017093AE01B2
:103D00008093AF019093B001183009F001C220E018
:103D100030E0A901C701B6010E94F12787FDF3C178
:103D200080E090E0A0ECB0EC8093B9019093BA01F0
:103D3000A093BB01B093BC018EE494E00E94430BBE
:103D400020E030E040E05FE36091B1017091B201AA
:103D50008091B3019091B4010E94F6276093B10164
:103D60007093B2018093B3019093B4014090A90184
:103D70005090AA016090AB017090AC018090BD01A1
:103D80009090BE01A090BF01B090C001C501B401E8
:103D90000E94E9266F87788B898B9A8BC090B1013E
:103DA000D090B201E090B301F090B4018091AD01E8
:103DB0009091AE01A091AF01B091B0018B879C872B
:103DC000AD87BE87C501B4010E9463284B015C0129
:103DD000A70196016F85788989899A890E94F627BB
:103DE00020E030E040E852E40E94F627A30192016F
:103DF0000E947D2620E030E048E252E40E947C26CA
:103E00000E94EE262091A7013091A801A901440F3C
:103E1000551F240F351F620F731F77FF02C06D5FA0
:103E20007F4F75956795759567957093A801609319
:103E3000A701A5019401C701B6010E94F62720E061
:103E400030E040E852E40E94F6272B853C854D8502
:103E50005E850E947D2620E030E040EC51E40E9427
:103E60007C260E94EE262091A5013091A601A90191
:103E7000440F551F240F351F620F731F77FF02C0B9
:103E80006D5F7F4F75956795759567957093A601E2
:103E90006093A50120E030E040E85DE36B857C8520
:103EA0008D859E850E94F6270E94F526162F20E01C
:103EB00030E040E85DE3C301B2010E94F6270E94B2
:103EC000F526862F612F0E94B70A873059F480911A
:103ED000A201811132C181E08093A2011092A4015C
:103EE0001092A3018091A201882349F08091A3013F
:103EF0009091A40101969093A4018093A301C09096
:103F0000A501D090A60110E081EFC8168FEFD8066A
:103F10004CF0C601D7FC0F96E4E095958795EA959D
:103F2000E1F7182F60E2A62EB12C90EDC91691E0B2
:103F3000D90694F45601A0E3AA0EB11CB7FE04C042
:103F40005601BFE3AB0EB11C74E0B594A7947A950B
:103F5000E1F7EFEFAE1ABE0A812F90E08A159B05BC
:103F60000CF000C48090A7019090A801512CF1EFB3
:103F70008F16FFEF9F065CF0940197FE02C0215F51
:103F80003F4F54E0359527955A95E1F7522E30E290
:103F9000E32EF12C2CEA821621E092068CF47401B7
:103FA00044E5E40EF11CF7FE03C05FE0E50EF11CF2
:103FB00044E0F594E7944A95E1F7AFEFEA1AFA0A7C
:103FC00024E0880F991F2A95E1F7082F0C19652C1A
:103FD000712C6E147F040CF0C3C3612F852D0E94D9
:103FE000B70AE82FF0E0EE0FFF1FEF5EFE4F2081D3
:103FF0003181B30194E0660F771F9A95E1F7681954
:104000007909402F87E794E00E945B0B5394DFCF40
:104010000E94F6276093B1017093B2018093B301BF
:104020009093B40126E636E646E65FE3C701B601A3
:104030000E94F6276B017C01C092B501D092B601B7
:10404000E092B701F092B80126E636E646E65FE375
:10405000C501B4010E94F6276093B9017093BA01BB
:104060008093BB019093BC01033019F160F40130DF
:1040700079F0023009F056CD20E030E040E85FE30F
:104080000E947D2615CD0430E9F0073009F04ACDB5
:1040900020E030E040E85FE3C701B6010E947D26E2
:1040A0006093B5017093B6018093B7019093B80106
:1040B00039CD20E030E040E85FE3C701B6010E945F
:1040C0007C26EECF20E030E040E85FE30E947C26D3
:1040D000EFCC80E090E0A0ECB0E4ADCD20E030E0AB
:1040E00040E05FEBC701B6010E94F6276093B5017F
:1040F0007093B6018093B7019093B8018EE494E079
:104100000E943F0BA4CD80E090E0A0ECB0E40CCE88
:1041100020E030E040E05FEBC701B6010E94F627E7
:104120006093B9017093BA018093BB019093BC0175
:104130008EE494E00E943F0B03CE4090A301509088
:10414000A40195E64916510408F4CCCE6FE376E05D
:1041500087E794E00E94470B8091A0019091A10114
:104160004816590608F0F2C26CED75E08EE494E052
:104170000E94FC0A1CE06201F12CE12C08E20E9482
:10418000E30F8823E1F30E94AB2522E030E040E01A
:1041900050E00E9419266E5F609380040E94AB2558
:1041A00022E030E040E050E00E9419266093810454
:1041B0006EEC75E087E794E00E94810E1092800417
:1041C0001093810463EC75E087E794E00E94810E10
:1041D0004AE0C701B6010E94D51267EB75E087E798
:1041E00094E00E94810E6091980170919901072ED0
:1041F000000C880B990B97FF74C00E941B136BEA8D
:1042000075E087E794E00E94810E6091A0017091B3
:10421000A101072E000C880B990B97FF66C00E9426
:104220001B1310928004009381046DE975E087E709
:1042300094E00E94810E80913E04813009F059C0C3
:104240008EE494E00E94430B10927B04109297013D
:1042500010E0E12C40E3C42E54E5D52E62E0F62EAA
:104260000E94E30F8823E1F380913D048F3F41F0EA
:104270008370813029F4F3948EE494E00E943F0B24
:1042800080913B048F3F41F08370813029F4FA9490
:104290008EE494E00E943F0B80913C048F3F41F0FC
:1042A0008370813029F41F5F8EE494E00E943F0BFD
:1042B00080913A048F3F09F4FDC38370813009F087
:1042C000F9C311508EE494E00E943F0B1F3F09F4A4
:1042D0001FE0A8E0FA1639F1F7FE26C037E0F32E0A
:1042E00023C04AE00E94D5128ACF4AE00E94D5122C
:1042F00098CF80914004813009F041CF6EEF75E096
:104300008EE494E00E94FC0A61EC78E087E794E098
:104310000E94470B1092A4011092A3011092A201D7
:104320000E94CA0ADFCDF12C90917F0480917E0417
:104330008095819F802D1124895DAD2CDD0CBB08FB
:10434000A80EB11C87FDBA94B7FE03C0BFEFAB1A2D
:10435000BB0AB594A7943A2CDA2C292F209584E136
:10436000891B2F9D800D11248C2CCC0C9908880E54
:10437000911C87FD9A9497FE03C0EFEF8E1A9E0A58
:1043800095948794282CC82C80913E04813029F57F
:10439000F9E0FE15C4F08F2D8295807F810F09F41E
:1043A0005FCF8A3009F45CCF8D3009F459CF2E2DC0
:1043B0000E2C000C330BF901E357FE4F808322577C
:1043C0003E4FD9011C92E3948EE494E00E94430B8B
:1043D000BBE0BE1510F40BE0E02E80913F0481306D
:1043E00091F4EA946EEF75E08EE494E00E94FC0A8A
:1043F000EFEFEE1609F480C0EE2D0E2C000CFF0B33
:10440000E357FE4F108280914004813009F081C053
:104410008EE494E00E94430B0E94E30F8823E1F3B3
:1044200069E276E087E794E00E943C136DE871E072
:1044300087E794E00E94CB1268E176E087E794E09A
:104440000E943C1380913E04813009F057C08EE4F5
:1044500094E00E94430B5092A1014092A001BDE85C
:10446000EB2EB1E0FB2E08E911E0D8011696AD90D5
:10447000BC90179718968D909C908A149B040CF40E
:1044800043C1F1E6AF2EF1E0BF2EA8E9CA2EA1E0AC
:10449000DA2E10E000E0F12CE12C480150E1850E0D
:1044A000911CF501EE0DFF1D6081C4018E0D9F1D55
:1044B0000E940B268FEFE81AF80A9AE0E916F10439
:1044C00081F7D6016C91B2E0CB0ED11CC8014A969F
:1044D0000E940B26F60132976181C8014B960E941B
:1044E0000B26045F1F4FEBE0AE0EB11C0C33110521
:1044F00091F60E94231408CFE12C85CF80913F04D0
:10450000813009F089CF6EEF75E08EE494E00E946F
:10451000FC0A612C1B86712C2B85270D80917F0452
:10452000462D869D400D1124420D80917E04672DFD
:10453000879D600D1124630D01E087E794E00E94E0
:10454000A20D7394F0E17F12E7CF2B85205F2B87BC
:10455000639448E06412DFCF80917E04982F990F16
:10456000990F891B880F82508A0D80938004809157
:104570007F048F5F880D8093810462E176E087E796
:1045800094E00E94810E80917E04982F990F990FDC
:10459000891B880F82508A0D8093800480917F044C
:1045A0008F5F880F880D809381046CE076E087E749
:1045B00094E00E94810E80917E04982F990F990FAC
:1045C000891B880F82508A0D8093800480917F041C
:1045D00091E0980F892F880F890F880D80938104AF
:1045E00066E076E087E794E00E94810E10928604F0
:1045F0001092870480917F044F2D8F9D400D1124D0
:104600004250480D80917E04612F819F600D1124DE
:1046100061506A0D27E087E794E00E945D0DBB249E
:10462000B394B0928604B0928704E0917F043091F5
:104630007E0425E02E0FA32FA150BB0BCD0162E01D
:1046400070E00E94E42842E0430F480F6F2DEF9D79
:10465000600D11246350680D812F319F800D11244E
:1046600082508A0D0E94BC0E80917F044EE2481B4E
:1046700024E560E087E794E00E945D0D10928604D7
:104680001092870480917F04080F4FE2481B24E5B5
:1046900060E087E794E00E94790D10928004809199
:1046A0007F04B0E3B81BB0938104B0928604B0924B
:1046B00087046DE871E087E794E00E94CB12809157
:1046C0008E0490918F04A0919004B0919104877012
:1046D0009927AA27BB270497A105B10508F0C0CDEB
:1046E000E9E0EE150CF4BCCD80917F0440E3481B5B
:1046F00060917E04E69E602D112401E02FE587E79E
:1047000094E00E94A20DACCD6701BBE0CB1AD108AA
:10471000B601CE0101960E941229B701C6010E947E
:104720001229BE016F5F7F4FC7010E941229F80155
:1047300097828682B186A08602501109760141E6F1
:1047400051E04C155D0509F090CE9BCE46E356E056
:104750005093A4044093A30450E25093A204D4CDF8
:104760001F5FFACB02E122E140E060E087E794E0DE
:104770000E94790D1092860410928704DB88F12C38
:10478000E12C10E000E047010F2C000CAA08BB0848
:1047900020E030E040E85DE36091A9017091AA015A
:1047A0008091AB019091AC010E94F6272B013C0156
:1047B000B801012E000C880B990B0E9426279B0143
:1047C000AC01C301B2010E947D2620E030E040E050
:1047D00051E40E947C260E94EE26C62EB0E2B61757
:1047E00080F120E030E040E85DE36091AD01709140
:1047F000AE018091AF019091B0010E94F6272B018C
:104800003C01C501B4010E9426279B01AC01C301F4
:10481000B2010E947D2620E030E040E051E40E9499
:104820007C260E94EE26613260F48C2D0E94B70A2D
:10483000883038F44D2D61E0600F87E794E00E94E6
:104840009B0C0F5F1F4F0031110509F0A1CFEFEF57
:10485000EE1AFE0AD394F0E1EF16F10409F091CFBD
:1048600011E0109386041093870449E069E087E71C
:1048700094E00E949B0C1092800490917F0480E34E
:10488000891B8093810410938604109287046091A1
:10489000A3017091A40190E080E04AE00E94D5124B
:1048A0006091A9017091AA018091AB019091AC0136
:1048B0000E94EE262091A7013091A8011B01221A27
:1048C000330AC10140968536910510F00C949C1A6C
:1048D0006091AD017091AE018091AF019091B001F6
:1048E0000E94EE262091A5013091A6016B01C21A0B
:1048F000D30AC60140968134910510F00C949C1A9D
:104900001091C101FC2C2B86212F220F2F5F4C2DE3
:10491000411B622D87E794E00E94A00EE12C03E08A
:10492000212F4C2D622D87E794E00E940D0F1092ED
:104930008604109287048090BD019090BE01A090E3
:10494000BF01B090C001C501B4010E9463286F8708
:10495000788B898B9A8BB6010D2C000C880B990BE8
:104960000E9426272B013C0120E030E040E850E483
:104970006F85788989899A890E94F6279B01AC0105
:10498000C301B2010E947D260E94EE26162FC501AA
:10499000B4010E94E9262B013C01B101032C000C5B
:1049A000880B990B0E9426274B015C0120E030E028
:1049B00040E850E4C301B2010E94F6279B01AC011C
:1049C000C501B4010E947D260E94EE26062FA12E6D
:1049D000012E000CBB08AC18BD08B7FE03C0B19493
:1049E000A194B108802E002E000C9908821893081B
:1049F00097FE03C09194819491088A149B042CF033
:104A0000812F102F082FF22CCB861F1534F0802F0A
:104A10000B858B87812F1F2DF82E7F2C711A2B85EC
:104A2000822F220F990B801B910907FD939597FF09
:104A300003C0919581959109C82EE72C77FE03C09C
:104A4000EE24E394E70CE5944B85DD24D39404171E
:104A500014F0DD24DA94F11694F0412F602F8A14BB
:104A60009B0414F0402F612F87E794E00E949B0C79
:104A7000EC18E7FE02C00D0DE70C1F5FECCF81E0E4
:104A800080938604809387040C949C1A0E942314BC
:104A90000C94421C80919C0481110E9450130E942E
:104AA0007D0F0C94421C143011F00C94531B10E039
:104AB0000C94531B103109F00CCC10E00ACC8F92EF
:104AC0009F92AF92BF92CF92DF92EF92FF92CF93DD
:104AD000DF93EC01688179818A819B816115710581
:104AE0008105910521F464E279ED8BE597E02DE1F4
:104AF00033EF41E050E00E94192649015A019B0121
:104B0000AC01A7EAB1E40E9438266B017C01ACEE4F
:104B1000B4EFA50194010E944626C60ED71EE81EDA
:104B2000F91EF7FE06C081E0C81AD108E10880E846
:104B3000F80AC882D982EA82FB82C701B6019F7750
:104B4000DF91CF91FF90EF90DF90CF90BF90AF902B
:104B50009F908F9008958F929F92AF92BF92CF9225
:104B6000DF92EF92FF9260910D0170910E018091A2
:104B70000F0190911001611571058105910521F4D6
:104B800064E279ED8BE597E02DE133EF41E050E011
:104B90000E94192649015A019B01AC01A7EAB1E420
:104BA0000E9438266B017C01ACEEB4EFA5019401A4
:104BB0000E944626C60ED71EE81EF91EF7FE06C046
:104BC00081E0C81AD108E10880E8F80AC0920D0116
:104BD000D0920E01E0920F01F0921001C701B601D0
:104BE0009F77FF90EF90DF90CF90BF90AF909F9016
:104BF0008F90089560930D0170930E0180930F01C3
:104C0000909310010895F999FECF92BD81BDF89A55
:104C1000992780B50895262FF999FECF1FBA92BD26
:104C200081BD20BD0FB6F894FA9AF99A0FBE01968D
:104C30000895052E97FB1EF400940E94302657FD20
:104C400007D00E944B2607FC03D04EF40C9430266C
:104C500050954095309521953F4F4F4F5F4F0895A8
:104C600090958095709561957F4F8F4F9F4F0895D8
:104C70000E946D26A59F900DB49F900DA49F800D5E
:104C8000911D11240895B7FF0C9438260E943826F0
:104C9000821B930B0895A1E21A2EAA1BBB1BFD01D8
:104CA0000DC0AA1FBB1FEE1FFF1FA217B307E4070B
:104CB000F50720F0A21BB30BE40BF50B661F771F63
:104CC000881F991F1A9469F7609570958095909543
:104CD0009B01AC01BD01CF010895A29FB001B39F1C
:104CE000C001A39F700D811D1124911DB29F700DF5
:104CF000811D1124911D08955058BB27AA270E9499
:104D000094260C94A3270E946A2738F00E947127EA
:104D100020F039F49F3F19F426F40C9467270EF421
:104D2000E095E7FB0C946127E92F0E94C82758F310
:104D3000BA17620773078407950720F079F4A6F580
:104D40000C94EA270EF4E0950B2EBA2FA02D0B0140
:104D5000B90190010C01CA01A0011124FF27591BC0
:104D600099F0593F50F4503E68F11A16F040A22FC6
:104D7000232F342F4427585FF3CF46953795279537
:104D8000A795F0405395C9F77EF41F16BA0B620B36
:104D9000730B840BBAF09150A1F0FF0FBB1F661F7D
:104DA000771F881FC2F70EC0BA0F621F731F841FC0
:104DB00048F4879577956795B795F7959E3F08F0E6
:104DC000B0CF9395880F08F09927EE0F97958795A8
:104DD00008950E947A27E3950C94B4270E94F52643
:104DE0006894B1110C94EB2708950E94D02788F0A5
:104DF0009F5798F0B92F9927B751B0F0E1F0660F9F
:104E0000771F881F991F1AF0BA95C9F714C0B130DF
:104E100091F00E94EA27B1E008950C94EA27672FE9
:104E2000782F8827B85F39F0B93FCCF3869577950E
:104E30006795B395D9F73EF49095809570956195F7
:104E40007F4F8F4F9F4F0895E89409C097FB3EF422
:104E500090958095709561957F4F8F4F9F4F9923C7
:104E6000A9F0F92F96E9BB279395F6958795779545
:104E70006795B795F111F8CFFAF4BB0F11F460FF05
:104E80001BC06F5F7F4F8F4F9F4F16C0882311F05D
:104E900096E911C0772321F09EE8872F762F05C071
:104EA000662371F096E8862F70E060E02AF09A950C
:104EB000660F771F881FDAF7880F9695879597F901
:104EC000089597F99F6780E870E060E008959FEF8C
:104ED00080EC089500240A94161617061806090691
:104EE000089500240A941216130614060506089560
:104EF0000C9467270E94D027D8F3E894E0E0BB2702
:104F00009F57F0F02AED3FE049EC06C0EE0FBB0FD3
:104F1000661F771F881F28F0B23A6207730784075D
:104F200028F0B25A620B730B840BE3959A9572F7D3
:104F3000803830F49A95BB0F661F771F881FD2F711
:104F400090480C949128092E0394000C11F48823A6
:104F500052F0BB0F40F4BF2B11F460FF04C06F5F31
:104F60007F4F8F4F9F4F0895EF93E0FF07C0A2EA56
:104F70002AED3FE049EC5FEB0E9494260E94A327B4
:104F80000F90039401FC9058ECEAF0E00C949D28FB
:104F900057FD9058440F551F59F05F3F71F04795EA
:104FA000880F97FB991F61F09F3F79F087950895CF
:104FB000121613061406551FF2CF4695F1DF08C0EE
:104FC000161617061806991FF1CF8695710561050B
:104FD00008940895E894BB2766277727CB0197F9B3
:104FE00008950E946B2808F48FEF08950E94092805
:104FF0000C94A3270E946A2738F00E94712720F0A2
:10500000952311F00C9461270C94672711240C94BC
:10501000EB270E94C82770F3959FC1F3950F50E0CE
:10502000551F629FF001729FBB27F00DB11D639F5A
:10503000AA27F00DB11DAA1F649F6627B00DA11D00
:10504000661F829F2227B00DA11D621F739FB00DA6
:10505000A11D621F839FA00D611D221F749F332716
:10506000A00D611D231F849F600D211D822F762FAF
:105070006A2F11249F5750409AF0F1F088234AF08C
:10508000EE0FFF1FBB1F661F771F881F91505040F8
:10509000A9F79E3F510580F00C9461270C94EB27F3
:1050A0005F3FE4F3983ED4F3869577956795B7957F
:1050B000F795E7959F5FC1F7FE2B880F911D969599
:1050C000879597F908959F930E947A270F9007FC80
:1050D000EE5F0C94B427990F0008550FAA0BE0E877
:1050E000FEEF16161706E807F907C0F012161306AA
:1050F000E407F50798F0621B730B840B950B39F4EA
:105100000A2661F0232B242B252B21F408950A264F
:1051100009F4A140A6958FEF811D811D08959F3F41
:1051200031F0915020F4879577956795B795880F62
:10513000911D9695879597F908959F938F937F93E7
:105140006F93FF93EF939B01AC010E94F627EF91C1
:10515000FF910E94B1282F913F914F915F910C9444
:10516000F627DF93CF931F930F93FF92EF92DF9277
:105170007B018C01689406C0DA2EEF010E94092899
:10518000FE01E894A5912591359145915591A6F39D
:10519000EF010E949426FE019701A801DA9469F7B5
:1051A000DF90EF90FF900F911F91CF91DF910895C5
:1051B000991B79E004C0991F961708F0961B881F69
:1051C0007A95C9F78095089597FB072E16F40094F9
:1051D00007D077FD09D00E94FE2807FC05D03EF4D9
:1051E000909581959F4F0895709561957F4F089593
:1051F000EE0FFF1F0590F491E02D0994AA1BBB1B35
:1052000051E107C0AA1FBB1FA617B70710F0A61BC6
:10521000B70B881F991F5A95A9F780959095BC01E7
:10522000CD010895FB01DC0101900D920020E1F712
:065230000895F894FFCF81
:1052360001FFFFFFFF00E100000000000001000089
:1052460000D002AE028C026A02480226020402E282
:1052560001C0019E017C015A0138011601F400D2F9
:105266000000C18081000000000000004E07320AE5
:105276006F076407B50773079107000000004E0E1D
:0A52860094087A0F790F0D0A00005A
:00000001FF
