:100000000C94CA070C94F2070C94F2070C94F207B4
:100010000C94F2070C94F2070C94F2070C94F2077C
:100020000C94F2070C94F2070C9437160C94A61655
:100030000C94F2070C94F2070C94F2070C94F2075C
:100040000C94F2070C94F2070C94F2070C94F2074C
:100050000C94F2070C94F2070C94F2070C94971886
:100060000C94F2070C94F2070C94F2070C94F2072C
:100070000C94F2070C94F2070C94F2070C94F2071C
:100080000C94F2070C94F2070C94F2070C94F2070C
:100090000C94F2070C94F2070C94F2070C94F207FC
:1000A0000C94F2070C94641C0C94F20705A84CCD38
:1000B000B2D44EB93836A9020C50B9918688083CA2
:1000C000A6AAAA2ABE000000803F3C38000000001B
:1000D0000080F8FE0FE3FB1B0B0B8BFBF3F7F6F630
:1000E000F60606ECECECECECECECECECECECECEC12
:1000F000ECEEE6F6F6F6F7F3FBFBCBCBFBE30FFEFD
:10010000F8801E332121339E00000080F8FF0FE0AD
:10011000F8F9F9F9F9F9F9F9F1F3F3F3F3F0F0FF7C
:10012000FFFFFFFFFFFFFFFFFFFFFFFFFFFFFFFFDF
:10013000FFFFFFFFFFFFFFFF7F7FFEE00FFFF88065
:10014000060600000000000F3FF0C6070404070782
:1001500007070707070707070707FFFFFFFFFFFF5F
:10016000FFFFFFFFFFFFFFFFFFFF0707070707076F
:100170008787070726860707C6F03F1F0080800095
:10018000000000000000030784C4E4E4E4E4E4E4C5
:10019000E4E4C49C000FE7E7E7E7E7E7E7E7E7E722
:1001A000C7870F1F0FC7E7E0ECE4E4E4E5E5E4C42C
:1001B000040404070300C040C30311000000000052
:1001C00000000000FFFFFFFFFF393939FFFFFF0F7D
:1001D000E0E0EFEF0FFFFF183879FFFFF703E0E0F3
:1001E000EFEF0FFFF9F0F0FCFDFDFD0DECE0E0E0BE
:1001F0000000012101000000000080C0602060C0FC
:1002000080000000000C0C007EFE803C3E1C1C1C8C
:100210001C1C0C0C0E0C0C0C0C0E1E1C1C1C1C3C78
:100220003E80FE7E00000000C0E0E0C00000000054
:10023000030300000E1B3166C680D060311B0E0028
:10024000003828380001471E3820202020301010A8
:10025000D0D0101090103020202020381E07010030
:100260000006060000010100000000000000000080
:1002700009080000001E0C3F1E3F123F1E3F0C3FAE
:10028000001E00000000000000FC78FECCFE78FE9E
:1002900000FC0000000000E040F060F0A0F0A0F0E2
:1002A000A0F060F040F000E000010200000000005B
:1002B00000000001000000001708007F417777412F
:1002C0007F4155555D7F415F50507F417515111F2E
:1002D00000007F417515117F415F50507F416D6D6A
:1002E000417F117747711F0000775D415D7F417B42
:1002F000366F417F4175151D7F415D5D417F000077
:100300007F415D55577F415D5D417F413A77417F38
:100310004175151D07004040FFFFFF0707E7E7672E
:100320006767676767E7E70707FFFF1F1F67677F65
:100330007F1F1F0707E7E7E7E707079F9F7F7F8785
:10034000876767FFFFFFFF0707E7E767676767677D
:1003500067E7E70707FFFFFFFFFFFF00007F7F6002
:1003600060606060607F7F0000FFFF0606989878FD
:100370007898987E7E8787797986867F7F868607BC
:100380000798987979FFFF00007F7F606060606068
:10039000607F7F0000FFFFFFFFFFFF060606067E6F
:1003A0007E66669E9E9E9E6666E7E7787879790609
:1003B000069F9FF8F86767E6E6E1E10606191978F7
:1003C00078616118181F1F8686E6E666661E1E663F
:1003D0006666669E9EFFFFFFFFFFFF98981E1E78D1
:1003E0007806066161E1E166667F7FE6E61E1E9E95
:1003F0009E9F9F070780807F7FF9F9E6E606061E2D
:100400001E86866666868667676161FEFEE0E01886
:100410001860606767FFFFFFFFFFFF79799E9E7896
:100420007800001E1E61616666F8F867671E1E9FF1
:100430009FE7E7F8F861618686F9F901010000FE9F
:10044000FEE7E7606007079E9E7E7EF9F96161FE28
:10045000FE60601E1EFFFFFFFFFFFF66667F7F6678
:10046000666060787866666666FFFF00009898E1CF
:10047000E10101070718186767E7E706069898196A
:1004800019F9F90606E6E66161E6E60707FEFE876A
:100490008718189898FFFFFFFFFFFF0000FEFE0679
:1004A0000606060606FEFE0000FFFF9E9E9F9FE1D9
:1004B000E10000F8F818180606F9F9E6E66767E6BD
:1004C000E69F9FE0E087878686E7E70000070779D9
:1004D0007998987F7FFFFFFFFFFFFFE0E0E7E7E607
:1004E000E6E6E6E6E6E7E7E0E0FFFFE1E1E7E7E191
:1004F000E1F8F8E7E7E6E6FEFEE1E1F9F9E0E0F928
:10050000F9F9F9E1E1E7E7F9F9E7E7E0E0FEFEFEF6
:10051000FEE1E1FEFEFFFFFF50087F4555517F41A0
:100520005D417F417F4155417F0000000000007F19
:10053000415D55457F416D6D417F615F5F617F41E9
:1005400055555D7F417B77417F415D5D417F001C5B
:100550001414141C0070505F417F415D5D417F5D4C
:1005600055417F416D6D517F417F1910FF010101A0
:10057000010101010101010101010101010101016B
:1005800001010101FF070404040404040404040439
:100590000404040404040404040404040407130805
:1005A000007F515555457F4175151D7F5D49634954
:1005B0005D7700007F415D5D417F4175151D7F4185
:1005C00075151D070000007F415D5D417F417B3651
:1005D0006F417F0000000000008040000080C040AC
:1005E00060A0A0A0A0A0A07008F4F4F4F404FC049F
:1005F000F4F4F4F4E416FAFAFA7AFAFAF6F4CC0C13
:1006000074F6FAFAFA7AFAFAF6F4CC0868E8E8E846
:100610001830E060A0B0D0D0D0D0D0D0D0B060E062
:10062000C0E0A0F050F0B8F8381C8CCCC662323272
:1006300032222664C4CC8818302030188CC6E331AE
:1006400019999999993979F1F3C2061CF4FCA8F823
:1006500050F8A8F850F0A0E0800000FE03FDFE1F57
:10066000FFFF8F8FA7CFFFFF7F3C0187FF00FF7841
:1006700087FFFFFFFF00FF18189A9C3FEFF7E3C0CA
:10068000307FFF18189A9C3FEFF7E3C0387FFF03D5
:1006900000F8F007FFFFFFFFC3DB97776FDFDFCEC8
:1006A00061FFAAFF55FFFF0000FEFFFD3C8EE73310
:1006B0001B1B9A3AF307FFFFFFFFFFFF0773194D5C
:1006C0000D8D1D39F3E78E3CFFFFFE80007FEAFFB2
:1006D00055FFEA9F81011103676600FF7FC2BC7F5F
:1006E000FFFFE1E1D9D9E3FEFF7E3C03079C9D9E1D
:1006F0009F8FCFC7E1E8CFDE9E9D9D9E9F8FC7C392
:1007000060E0CFDE9E9D9D9E9F8FC7C360D0DFBE01
:10071000BC3D3C3E3E1E1E8681E37170787B3A17DD
:100720000DFFAAFF557F7F0000FFFFFFF0E760602D
:10073000E3E0F0F0F8ECFF777D777D777FEEFCF873
:10074000F8F1F0707077F3F8FF7F3F9F80C0CFCF54
:10075000CD8F9A1F357FECF870C00003070F0B1F79
:10076000167CEDF959F9A9F958FCACFEF73FCFF723
:10077000FBFBFD3D7D7DFDFDFBF7CE1F6DF7F6F725
:10078000F5F7F6F7EDDF8E77FBFBFD3D7D7DFDFD9B
:10079000FBF7CF1F77FEAEFC54FCACFC54FEAAFE68
:1007A0000703F1F8FCFEFEFEFEFCF9FFE3DCE73B8D
:1007B0000C07030101001C1E0E000E0E0C000000B1
:1007C0000103060D3BF7EEEDF3FEFFFFFFFFFFFF1A
:1007D000FFFF7F3F0080FFFF55FF0000000000008B
:1007E00000000183FFFFAAFF55FFAAFF57FCFB078C
:1007F000F8FFFFE0E0F7F8FF7F3F0F00C0FF03E1E5
:10080000F9FC7D83FFFFFF0000FFFFE0E0F7F8FF4A
:100810007F3F0F00C0FFEA7F1D0F0607050F8A1FED
:100820001E383163C78F9F9F9F9F8FCF0F3FFFF869
:10083000E0C89C3C7E7EFEFEFCF8FCFEFEFE7E7E5A
:100840003C9CC8E0F8FFFFFFFF3F1F87C1F1B9F9EB
:1008500059F86C7E573F1A0F0F030000000000C0CC
:10086000E0F86E7F353F2A3F353F2A7F55FFB8F7C6
:100870006FCFCFCC41FDACFC54FEAEF977EFCEDDAF
:100880009D9D9E8FCFC3E0F06ECFCFCC41FDACFCE1
:1008900054FEAAFF55FFBFE040C0C080808080C0EA
:1008A000C3C118180001023FD5FFFE0701F0FCF993
:1008B000F1F3E7E7CFCE4E1E1E9E9E9E9E9E9E1F8C
:1008C0000F4FCFE7E7F3F3F9FCF8F1E3070FFA1F57
:1008D00001000018188280000000000000000001E4
:1008E00081808080C0E0E0E0F0F0F0F0F8FCF7FFFD
:1008F000F5FFFAFFF5FFFEFFFDFFFEFFFDFFFAFF2C
:10090000F5FFFAFFF5FFFAFFF5FFFAFFF5FFFAFF33
:10091000FDF7F2F3F3F1F1F1F1F1F1F1F1F1F1F1B0
:10092000F0F0F0F0F0F0F8FCF7FFFBFEF8F0E3E792
:10093000E7E7E3F3F3F1F8FEF7FFFAFFF5FFFBFF5C
:10094000FCF8F1E3C7CF8F9F9F8FC7E3F0FCFFF860
:10095000F8F8F0F0F8F9FFFFFCF0F0FCFEFFFFFF05
:10096000FFFFFFFFFFFFFFFFFFFFFFFFFFFFFFFF97
:10097000FFFFFFFFFFFFFFFFFFFFFFFFFFFFFFFF87
:10098000FFFFFFFFFFFFFFFFFFFFFFFFFFFFFFFF77
:10099000FFFFFFFFFFFFFFFFFFFFFFFFFFFFFFFF67
:1009A000FFFFFFFFFFFFFFFFFFFFFFFFFFFFFFFF57
:1009B000FFFFFFFFFFFFFFFFFFFFFFFFFFFFFFFF47
:1009C000FFFFFFFFFFFFFFFFFFFFFFFFFFFFFFFF37
:1009D000FFFFFFFFFFFFFFFFFFFFFF080800FF0013
:1009E000FF00FF00FF00FF00FF00FF00FF4C103C76
:1009F0003C667EDAFE4BFF8DFFFDFFFDFFFDFF1D18
:100A0000FFBDFF01FF85FFFDFFF3FFCEFE03FFFDEE
:100A1000FFFDFFFDFF05FF13FFFBFFEDFF1DFFDDEA
:100A2000FFDDFFBDFFBBFF86FEDAFE4BFF8DFFFD46
:100A3000FFFDFFFDFF1DFFBDFF01FF85FFFDFFF374
:100A4000FFCEFE03FFFDFFFDFFFDFF05FFD3FF4BC4
:100A5000FF8DFFFDFFFDFFFDFF1DFFBDFF83FF02BB
:100A6000FE3BFF1DFFFDFF9DFF3DFFBDFFBBFF02E6
:100A7000FE8BFFFDFFFDFF8DFFADFF5DFFBDFFBDE9
:100A8000FF9BFFC6FE7C7C3F3F617FDDFFB8FFBF61
:100A9000FFBFFFBFFFBFFFB8FFDBFFC0FFA3FFBC6F
:100AA000FFBBFF87FFDEFFBFFFBFFFBFFFC0FFDF52
:100AB000FFBFFFBFFF87FF92FFF0FF191F3F3F619E
:100AC0007FDDFFB8FFBFFFBFFFBFFFBFFFB8FFDB8A
:100AD000FFC0FFA3FFBCFFBBFF87FFDEFFBFFFBF61
:100AE000FFBFFFC0FFDDFFB8FFBFFFBFFFBFFFBFFE
:100AF000FFB8FFDBFF4D7F637FCFFFB0FFBFFFBFBE
:100B0000FF80FFC7FF7F7F607F5F7FDFFFBFFFB991
:100B1000FFB9FF98FF9CFF9BFFC2FE667E3C3C3CFA
:100B200010F8F80EFEF3FFFDFF7DFF3DFFBDFF7DDA
:100B3000FFFBFFF2FE06FE06FE1BFFFDFFFDFF0DA5
:100B4000FF0DFFFDFFFBFFF6FE04FC0AFEFBFF0DA1
:100B5000FF9DFF7DFFFDFFFBFF76FE0EFEF3FFFD19
:100B6000FF7DFF3DFFBDFF7DFFFBFFF2FE06FE03A5
:100B7000FF3DFFBDFFFDFFFDFF3DFF7BFFFAFEE6F2
:100B8000FE02FE0BFFFDFFFDFF8DFFADFF5DFFBD14
:100B9000FFBDFF9BFFC6FE7C7C3F3F607FDFFFBF4A
:100BA000FF8CFFE8FF6B7FC8FFBFFF9FFF80FFC088
:100BB000FFDCFFBFFFBFFF83FFDBFF677FDFFFB807
:100BC000FFB0FF86FFDFFFB8FFB7FFB7FFB8FF9E9C
:100BD000FFC6FF607FDFFFBFFF8CFFE8FF6B7FC8B2
:100BE000FFBFFF9FFF80FFC0FF687FDFFFBFFFBF2A
:100BF000FFB0FFB8FF9FFFCFFF407F507FDFFFBFF9
:100C0000FFB9FFB9FF98FF9CFF9BFFC2FE667E3CC9
:100C10003C01000200030103020203010300020081
:100C2000012D10F80CF6FB3DDDDDBD3DBB830D9DB8
:100C30007DFDFB060AFB3D9DDD3DFBF2061BFDFD38
:100C40000D0DFDFB620BFDFD8DAD5DBDBD9BC67C3D
:100C50003F66D9BBBBB6BDBDD047DFB8B7B7B89EFE
:100C6000C061DFB8B7BBBC9FC760D0BFBF83DB67C5
:100C7000DFB0B68FBFB9B9989C9BC2663C0808FF2D
:100C8000FFFFFFFFFFFFFF050800FF77FF33FF11A6
:100C9000FF00FF0D10E0E010F0E8F8F4FCF4FCF4C5
:100CA000FCF4FCF4FCFAFEFAFE3AFEC4FC3838030D
:100CB0000304070B0F171F2F3F2F3F5F7F5F7F2F0F
:100CC0003F131F0C0F03030000E0E010F0E8F8E80A
:100CD000F8F4FCFAFEFDFFFEFFFEFFFEFFC1FF3E43
:100CE000FEC0C00000030304070B0F0B0F0B0F1710
:100CF0001F171F171F171F0B0F04070303C0C02068
:100D0000E0D0F0EEFEF1FFFEFFFEFFFEFFF1FFEE92
:100D1000FED0F020E0C0C0030304070B0F0B0F1739
:100D20001F171F171F171F171F0B0F0B0F0407038A
:100D300003C0C03EFEC1FFFEFFFEFFFEFFFDFFFA47
:100D4000FEF4FCE8F8E8F810F0E0E0030304070B19
:100D50000F171F171F171F171F0B0F0B0F0B0F045A
:100D600007030300003838C4FC3AFEFAFEFAFEF42A
:100D7000FCF4FCF4FCF4FCF4FCE8F810F0E0E00017
:100D80000003030C0F131F2F3F5F7F5F7F2F3F2F49
:100D90003F171F0B0F0407030305080E1111110E57
:100DA0000E151F150E0E111F110E0E191D1F0E0E02
:100DB0001115110E0E1B151B0E0E1F1F1F0E0708FF
:100DC0001C1C3E3E7F7F7F7F7F7F3E3E1C1C0000C1
:100DD00006011501260137014A015D0172018801F2
:100DE0009F01B801D201EE010B022A024B026E02F2
:100DF0009302BA02E40210033F037003A403DC036E
:100E0000170455049704DD0427057505C805200659
:100E10007D06E0064907B8072D08A9082D09B9097C
:100E20004D0AEA0A900B400CFA0CC00D910E6F0FA0
:100E30005A1053115B1272139A14D415201780188C
:100E4000F519801B231DDE1EB420A622B524D5F083
:100E50008D14A1C881CFD9F1AF20005810F0F89CB3
:100E60008E8783878E9CF8F00000FEFF0303030348
:100E700003070EFCF80000FEFF0303030303070E45
:100E8000FCF80000FFFF00000000000000FFFF0072
:100E900000FEFF8383838383C7EE7C380000F8FC69
:100EA0000E07030303070EFCF800003F7FE0C0803D
:100EB00080C0E07F3FFFFF01010101010101FFFF51
:100EC0000000FFFF0C0C0C0C1C3E77E3C100007F00
:100ED000FFC0C0C0C0C0E0703F1F00001F3F70E0F7
:100EE000C0C0C0E0703F1F00007FFFC1C1C1C1C1D1
:100EF000E3773E1C00001F3F70E0C0C0C0E0703FC1
:100F00001F000000000001FFFF01000000D2105A86
:100F10001049105D152F10D215F70CFB0CCA0C7779
:100F200011C10CBA0C080B000202020100090400F6
:100F30000001020200000524001001052401010146
:100F40000424020605240600010705810310004061
:100F500009040100020A0000000705020240000027
:100F6000070583024000000403090412010002EF98
:100F700002014041233680000101020301417264F5
:100F800075696E6F204C4C430041726475626F79D5
:100F90000000301D11241FBECFEFDAE0DEBFCDBF51
:100FA00011E0A0E0B1E0E4E9F5E402C005900D92A3
:100FB000A833B107D9F727E0A8E3B1E001C01D923B
:100FC000A734B207E1F717E0CAECD7E004C02197D5
:100FD000FE010E94C222C93CD107C9F70E94521DDE
:100FE0000C94C8220C9400006F927F928F929F9273
:100FF000AF92BF92CF92DF92EF92FF920F931F9327
:10100000CF93DF937C01B0E0A0E0FA01802F90E065
:10101000C590B590211511F49115B1F047E04B0D35
:10102000479546954695833009F4440F4C9DA001A1
:10103000249FE00DF11D259FF00D109629F0949F3F
:10104000A00DB11D959FB00D11248F3F21F4109676
:1010500082E009F081E0CC2DD0E0A7014C0F5D1FAC
:10106000141615060CF06FC090E8E916F1040CF0A8
:101070006AC09B012B0D311D121613060CF063C0C4
:10108000603471050CF05FC0309709F45CC0362FF6
:1010900037708B0177FF02C0095F1F4F93E01595F2
:1010A00007959A95E1F7202F77FF04C0332311F0BD
:1010B0002FEF200F002711270E191F09F7FC02C080
:1010C00010E000E090E89E19403851050CF49C2D8A
:1010D000901B422F022E000C550BA42EA0942F3FE4
:1010E0000CF0A12CDD24D3946B2D677009F4D12C66
:1010F000B694B694B694DB0C4D0D511D4930510594
:101100001CF048E0D42ED21ADA182A0D40E8240345
:10111000B00111246E0D7F1D600F711FCA9C000D60
:10112000111D1124AF01400F511FE32E032E000C9F
:10113000FF08833009F410C1A8F4813009F4C3C05A
:10114000823009F471C0DF91CF911F910F91FF9010
:10115000EF90DF90CF90BF90AF909F908F907F9057
:101160006F9008958A3F91F1BD2CB20E8B3F59F7D5
:101170002B1549F3DB01A451BD4F10E000E0091726
:1011800008F09BC0FA01E00FF11FE491F0E00E2C93
:1011900002C0EE0FFF1F0A94E2F727FD05C08C91F5
:1011A000DE2ED0948D218C93332361F0273054F4BC
:1011B0006D0180E8C80ED11CAF2EA094F60180818D
:1011C0008A2180830F5F1F4F1196D9CFBD2CB20E9D
:1011D0002B1509F4B8CFDB01A451BD4F10E000E09E
:1011E000091708F064C0FA01E00FF11FE491F0E084
:1011F0004F010E2C02C0880C991C0A94E2F727FDBF
:1012000003C08C9188298C93332351F0273044F408
:101210006D0180E8C80ED11CF60180818929808388
:101220000F5F1F4F1196DCCFAFEFB0E0032E02C06F
:10123000AA0FBB1F0A94E2F7A095B0959B2E8D2CA8
:10124000820E281509F47FCF8B0104511D4FD12C3C
:10125000C12CC91630F5FA01EC0DFD1DE491F0E04A
:101260003F010E2C02C0660C771C0A94E2F727FDA2
:1012700005C0F80180818A2386298083332359F0B1
:1012800027304CF45801F0E8AF0EB11CF501808115
:10129000892187298083FFEFCF1ADF0A0F5F1F4F55
:1012A000D8CF2F5F4C0F5D1F60587F4FCACF2F5F85
:1012B0004C0F5D1F60587F4F8BCF2F5F4C0F5D1F12
:1012C00060587F4F55CFA00FB11F8D2D820F28176B
:1012D00009F439CF8B0104511D4FD12CC12CC916F3
:1012E00098F5FD01EC0DFD1DA490B12C0E2C02C053
:1012F000AA0CBB1C0A94E2F7A094B094FA01EC0D7E
:10130000FD1D8490912C0E2C02C0880C991C0A940F
:10131000E2F727FD08C0F8017080E72DEA217E2E54
:101320007828F8017082332349F027303CF4F80123
:10133000E058FF4FA080BA20B928B082FFEFCF1A43
:10134000DF0A0F5F1F4FCBCF2F5F4C0F5D1FAC0F1E
:10135000BD1F60587F4FBBCFE92EF12CFA01E00F83
:10136000F11FDB01A451BD4F00E810E00E191F0969
:10137000CE19DF09BE01660F771F41E050E07A0108
:10138000032E01C0EE0C0A94EAF7592F4D2D892E39
:10139000932ECF93DF93ED01EF96EF962296A590D3
:1013A000C590992059F0AE9C5001CE9C6001273029
:1013B0002CF4F880D094FD20FB28F99222233AF0F7
:1013C000FC90C094FC20FA28FD920C94E809119638
:1013D0005A9529F74A9551F0582D23951124E60F77
:1013E000F11DA00FB11DC00FD11DD9CFDF91CF913D
:1013F0001124A9CE0F930AEF20E00E94F4070F9169
:10140000089590914207982329F4909141079823D9
:1014100081E009F480E00895982FECEEF2E091115C
:101420009FEF8FEF91939193919391938150D0F788
:101430000895ECEEF2E0A0E0B8E000800EBC81116F
:10144000012C1197A0FDFDCF0192B9F70DB40895BD
:1014500080913F079091EB02890F8093EB022CE380
:10146000829FC001112460E07AE00E949A22862FB8
:101470000895CF93DF93D091130181E08D2780935E
:10148000130123E630E0B901655F7F4F4AE0842F06
:1014900090E08E589D4FFC01E60FF71F820F931FBF
:1014A000DC018C918083415090F72B503109253F0E
:1014B000BFEF3B0741F7CAE00E94280AEC2FF0E09B
:1014C000EE58FD4F80668083C150B0F7D13029F4CB
:1014D00080917C028F7D80937C02DF91CF91089573
:1014E000FC0180917102882311F13FB7F89482E0EA
:1014F0008093E9002091F200822F90E018161906DF
:1015000014F481E090E0882339F0289844E6409371
:1015100070024091F1004083222339F02091F200C3
:10152000211103C02BE62093E8003FBF08958FEF01
:101530009FEF08952FB7F89483E08093E90090918E
:10154000E800892F807295FF04C09091F20080E43A
:10155000891B2FBF08958091680281110DC082E020
:101560008093640284E08093650210926702109277
:10157000660281E08093680284E692E00895CF934A
:10158000DF931F92CDB7DEB76983DC01ED91FC914B
:101590000280F381E02D41E050E0BE016F5F7F4F9C
:1015A00009950F90DF91CF91089583E08093E90032
:1015B0008091F200882319F08AE38093E80008956F
:1015C0000E949A0A90E00895CF93DF931F92CDB7BF
:1015D000DEB7FC018485958597FD08C02FEF3FEFAE
:1015E000358724870F90DF91CF910895CE01019622
:1015F0000E94700A019719F4898190E0F3CF8FEF70
:101600009FEFF0CF0F931F93CF93DF931F92CDB730
:10161000DEB78C01FC018485958597FF0BC0CE0158
:1016200001960E94700A019771F4898190E0F80197
:1016300095878487F801848595850F90DF91CF91F8
:101640001F910F9108958FEF9FEFF1CFFC018485DB
:10165000958597FD0BC09FB7F89482E08093E900D1
:101660008091F2009FBF90E0019608959FB7F89493
:1016700082E08093E9008091F2009FBF90E008959E
:1016800040915E0250915F0220915C0230915D02B8
:1016900042175307B4F49091E8009570E1F39091EC
:1016A000E80092FD19C08093F10080915E02909154
:1016B0005F0201968F739927892B19F48EEF80931F
:1016C000E80080915E0290915F02019690935F0224
:1016D00080935E0281E0089580E00895DF92EF92AA
:1016E000FF920F931F93CF93DF93D82E8A01EB01C4
:1016F0007B01E40EF51ECE15DF0559F0D7FE12C0B2
:10170000FE0184910E94400B21968111F4CF0FEFCE
:101710001FEFC801DF91CF911F910F91FF90EF90C4
:10172000DF9008958881EECF0F931F93CF93DF93BF
:101730001F92CDB7DEB782E0898342E450E065E2D4
:101740007FE080E80E946E0B0E94AB0ADC011296DB
:101750000D911C910115110589F0D801ED91FC91B5
:101760000280F381E02DBE016F5F7F4FC8010995B4
:1017700097FD04C0F80100851185ECCF89810F9099
:10178000DF91CF911F910F910895615030F020911A
:10179000F100FC0120830196F8CF289884E680931D
:1017A000700208950895FC010E946A0C319728F098
:1017B00068517C4F8F4F9F4FF9CFAB01FC010E94C6
:1017C0006A0C641775078E079F07C8F308958F92F8
:1017D0009F92AF92BF92CF92DF92EF92FF920F93C0
:1017E0001F93CF93DF936C017B018A0180911201DB
:1017F000882309F45AC080917102882309F455C0E6
:101800008091630280FF05C08091E0008260809338
:10181000E000E801B12C8AEFA82E93E0892E2AE39C
:10182000922E209711F4BB20C9F10E949A0A8111CF
:1018300008C0AA94AA20C9F181E090E00E94D30BCD
:10184000F0CF8C171D0611F00CF08C2F9FB7F89479
:101850008092E9002091E80025FD02C09FBFE1CF02
:10186000282F30E0C21BD30BF701815020F04191AB
:101870004093F100FACFE20EF31EBB2021F09092CC
:10188000E800B12CEBCF8091E80085FDE7CF909286
:10189000E800BB24B394209709F3F3CF5D9884E666
:1018A00080936202101611063CF081E090E0F60190
:1018B0009383828310E000E0C801DF91CF911F91F4
:1018C0000F91FF90EF90DF90CF90BF90AF909F90DF
:1018D0008F900895A3E5B2E02FB7F8947D918D9194
:1018E0009C9166B52FBFA89B05C06F3F18F47F5F22
:1018F0008F4F9F4F22E0660F771F881F991F2A95F1
:10190000D1F70895E82FF0E0EE0FFF1F8591949135
:1019100008950F9303E00E94F4070F9108950F9329
:101920000BEF0E94F4070F9108950C94D30B1092C3
:1019300075013E983F9808953E9A3F9A81E08093C2
:101940007501089520E191E061FD94E060FD990F3B
:1019500062FD9295687F269FD0011124A80FA451A3
:10196000BD4F8C9140FF03C0892B8C9308959095B7
:101970008923FBCF84E00E94010A811110925B024F
:10198000089588E00E94010A882319F089E0809375
:101990005B0208950F931F93CF93DF9388E7E82F9F
:1019A000F0E0EE58FD4F10828150C8F7C1E6D1E05B
:1019B00007E611E00E94280A89930C171D07D1F74A
:1019C0000E94390A0E94390A88EE93E090937401CC
:1019D0008093730180915A018F5F80935A0189E04F
:1019E00080935B02DF91CF911F910F91089588E062
:1019F00080935B02089588E080935B0208958B30AA
:101A000080F46B3070F420911301982F9170921331
:101A100002C06A3031F09BE0899F600D1124862F4F
:101A200008958FEF0895EF92FF920F931F93CF9336
:101A3000DF931BE0E82FF0E0EE58FD4F90819064BB
:101A40009083612F0E948E22EC019C2F917081E087
:101A500020911301291301C080E00D2F081BEE24F3
:101A6000EA94EC0E602F8E2D0E94FF0C8F3F71F0D8
:101A7000E82FF0E0EE58FD4F908195FF07C096FDEE
:101A800005C09F70963011F00E94130DFF24F3944F
:101A9000F00E6F2D8E2D0E94FF0C8F3F71F0E82FFE
:101AA000F0E0EE58FD4F908195FF07C096FD05C010
:101AB0009F70963011F00E94130D6FEF6D0F8C2FF9
:101AC0000E94FF0C8F3F71F0E82FF0E0EE58FD4FC1
:101AD000908195FF07C096FD05C09F70963011F06C
:101AE0000E94130D61E06D0F8C2F0E94FF0C8F3F41
:101AF00071F0E82FF0E0EE58FD4F908195FF07C0A0
:101B000096FD05C09F70963011F00E94130DCF5FB7
:101B10006F2D8C2F0E94FF0C8F3F71F0E82FF0E0AB
:101B2000EE58FD4F908195FF07C096FD05C09F7050
:101B3000963011F00E94130D602F8C2F0E94FF0C25
:101B40008F3F69F0E82FF0E0EE58FD4F908195FF50
:101B500006C096FD04C09F70963009F06BCFDF91F0
:101B6000CF911F910F91FF90EF900895282F862F0E
:101B70009AEF920F9E33A0F465E00E948E22382FD8
:101B8000422F4650550BCA0166E070E00E94AE221B
:101B9000232F217090911301291304C06A3011F48E
:101BA0008FEF08953B30E0F7862F5BE0359F800D87
:101BB00011240895673008F060E0E82FF0E0EE5857
:101BC000FD4F8081807F682B60830895CF93DF93E2
:101BD00088E7E82FF0E0EE58FD4F90819F7B9083DF
:101BE0008150B8F7CAE0EC2FF0E0EE58FD4F80814D
:101BF00085FF37C0982F9F70963099F191E0209122
:101C00001301211101C090E080648083DC2FD91B77
:101C100061E06D0F81E00E94FF0C8F3F71F0E82FB3
:101C2000F0E0EE58FD4F908195FF07C096FD05C08E
:101C30009F70963011F00E94130D6D2F81E00E946D
:101C4000FF0C8F3F71F0E82FF0E0EE58FD4F9081D0
:101C500095FF07C096FD05C09F70963011F00E9459
:101C6000130DC15000F6C8E7EC2FF0E0EE58FD4F21
:101C7000808186FD04C066E08C2F0E94DA0DC15081
:101C800098F7DF91CF910895DF92EF92FF920F9333
:101C90001F93CF93DF93D82F8BE0F82EED2FF0E03A
:101CA000EE58FD4FC081CF7066E08D2F0E94DA0D97
:101CB0008D2F6F2D0E948E22D82F192F982F917063
:101CC00081E020911301291301C080E0012F081B3E
:101CD000DD24DA94DD0E602F8D2D0E94FF0C8F3FE6
:101CE00061F0E82FF0E0EE58FD4F9081292F2F7022
:101CF0002C1303C095FD0E94440EEE24E394E00EE5
:101D00006E2D8D2D0E94FF0C8F3F61F0E82FF0E0CB
:101D1000EE58FD4F9081292F2F702C1303C095FD95
:101D20000E94440E6FEF610F8D2F0E94FF0C8F3FBA
:101D300061F0E82FF0E0EE58FD4F9081292F2F70D1
:101D40002C1303C095FD0E94440E61E0610F8D2F9E
:101D50000E94FF0C8F3F61F0E82FF0E0EE58FD4F3E
:101D60009081292F2F70C21303C095FD0E94440E4D
:101D7000DF5F6E2D8D2F0E94FF0C8F3F61F0E82FEB
:101D8000F0E0EE58FD4F9081292F2F70C21303C051
:101D900095FD0E94440E602F8D2F0E94FF0CD82FBE
:101DA0008F3F59F0E82FF0E0EE58FD4F8081982FDB
:101DB0009F70C91302C085FD71CFDF91CF911F9134
:101DC0000F91FF90EF90DF900895CF92DF92EF9206
:101DD000FF920F931F93CF93DF93082FE82FF0E02C
:101DE000EE58FD4FD081D5FF8FC0DF706BE00E94B1
:101DF0008E22182FD92E982F917081E020911301F7
:101E0000291301C080E0FD2CF81ACC24CA94C10E1D
:101E10006F2D8C2D0E94FF0C8F3F59F0E82FF0E0C2
:101E2000EE58FD4FC0818C2F8F70C5FBCC27C0F9B9
:101E30008D13C0E0EE24E394EF0C6E2D8C2D0E94E8
:101E4000FF0C8F3F59F0E82FF0E0EE58FD4F8081F6
:101E5000982F9F709D1302C085FDCF5F6FEF6D0DB2
:101E6000812F0E94FF0C8F3F59F0E82FF0E0EE58D1
:101E7000FD4F8081982F9F709D1302C085FDCF5F1D
:101E800061E06D0D812F0E94FF0C8F3F59F0E82F0C
:101E9000F0E0EE58FD4F8081982F9F70D91302C05B
:101EA00085FDCF5F1F5F6E2D812F0E94FF0C8F3F3E
:101EB00059F0E82FF0E0EE58FD4F8081982F9F7089
:101EC000D91302C085FDCF5F6F2D812F0E94FF0CBB
:101ED0008F3F59F0E82FF0E0EE58FD4F8081982FAA
:101EE0009F70D91302C085FDCF5FC23068F0802F8C
:101EF0000E94440E81E0DF91CF911F910F91FF90DE
:101F0000EF90DF90CF90089580E0F5CFDF92EF92D1
:101F1000FF920F931F93CF93DF93E82FF0E0EE58DB
:101F2000FD4FD081DF706BE00E948E22182F092FA9
:101F3000282F217081E090911301291301C080E0C6
:101F4000F02EF81ADD24DA94D10E6F2D8D2D0E941B
:101F5000FF0C8F3F09F481C0E82FF0E0EE58FD4FF1
:101F60009081292F2F70D21378C095FF76C00E94E0
:101F7000E50EC82FEE24E394EF0C6E2D8D2D0E94FC
:101F8000FF0C8F3F71F0E82FF0E0EE58FD4F90818D
:101F9000292F2F70D21305C095FF03C00E94E50EB4
:101FA000C82B6FEF600F812F0E94FF0C8F3F71F0E5
:101FB000E82FF0E0EE58FD4F9081292F2F70D213BB
:101FC00005C095FF03C00E94E50EC82B61E0600FBD
:101FD000812F0E94FF0C8F3F71F0E82FF0E0EE5848
:101FE000FD4F9081292F2F70D21305C095FF03C09C
:101FF0000E94E50EC82B1F5F6E2D812F0E94FF0CE3
:102000008F3F71F0E82FF0E0EE58FD4F9081292FBF
:102010002F70D21305C095FF03C00E94E50EC82B98
:102020006F2D812F0E94FF0C8F3F71F0E82FF0E0A1
:10203000EE58FD4F9081292F2F70D21305C095FFC8
:1020400003C00E94E50EC82B8C2FDF91CF911F910A
:102050000F91FF90EF90DF900895C0E08BCF49ED96
:1020600055E070E060E090E080E00E94FA0920E036
:1020700048E155E067E370E088E190E00E948F0C52
:102080008CE00E94010A882319F081E080935B02B2
:10209000089546E153E070E060E080E290E00E9445
:1020A000FA098CE00E94010A882319F081E08093EC
:1020B0005B0208950F931F93CF9380913F079091F8
:1020C000400765E070E00E949A22892B31F48091EC
:1020D00052018F5F87708093520149ED55E070E0A7
:1020E00060E090E080E00E94FA0903E110E0C0E0C7
:1020F0002C2F48EB52E067E370E0C8010E948F0C80
:10210000CF5F085E1F4FC43099F7C09101012C2F9B
:102110002250330BC90128E1289F8001299F100D0F
:10212000112420E04AE655E065E370E0C8014296DC
:102130000E948F0C8091520190E0FC01E855FD4F08
:10214000249180559D4FFC0184916DE270E0681BE5
:10215000710940E752E0C8014A960E94890C80E468
:102160000E94010A882329F0C53018F4CF5FC0937C
:10217000010180E20E94010A882339F08091010167
:10218000833018F081508093010184E00E94010A9D
:10219000882321F08091010180935B02CF911F91F0
:1021A0000F910895809151018F5F809351014AEC06
:1021B00050E064E070E082E290E00E94FA0981E081
:1021C00080935B020895CF92DF92EF92FF920F937C
:1021D0001F93CF93DF9380913F0780FD4BC0C0904A
:1021E0005401D0905501E0905601F0905701A7019D
:1021F0009601C701B6010E94BC1F0E943D2220E04B
:1022000030E040E452E40E94D02120E030E040E49D
:1022100052E40E94BC1F0E94AB2060930301C701DF
:10222000B60190580E943D2220E030E040E452E4A4
:102230000E94D02120E030E040E452E40E94BC1F24
:102240000E94AB2060930201809153018F5F8770E1
:10225000809353012AE037ED43E25CE3C701B60106
:102260000E94BC1F609354017093550180935601E6
:1022700090935701D0E0C0E008E2F12CE12C10E08F
:10228000D12C2D2D30E0BE01620F731F83E0660F4D
:10229000771F8A95E1F780910201681B7109029FFF
:1022A000C001039F900D921B11248E0D9F1D309134
:1022B000030120E04BED59E0831B91090E94890C3A
:1022C0001F5F1C3169F42296C431D105B1F6DF914C
:1022D000CF911F910F91FF90EF90DF90CF900895D5
:1022E0001E3009F4D39480E1E80EF11CCACF2F927E
:1022F0003F924F925F926F927F928F929F92AF9296
:10230000BF92CF92DF92EF92FF920F931F93CF93E2
:10231000DF93CDB7DEB728970FB6F894DEBF0FBEB8
:10232000CDBF8091730190917401019790937401D6
:1023300080937301892B41F40E94390A88EE93E05F
:102340009093740180937301EBEEF2E08FED92E0D5
:10235000229125FD95C38E179F07D1F70E94F4188F
:1023600085FF0AC08091040191E0980F8E5F903A3A
:1023700008F080EA809304010E94F41886FF0AC0E6
:10238000809104019FEF980F8250953108F484E109
:1023900080930401209104012E83622F70E090E06D
:1023A00080E00E94DA202BED3FE049E450E40E94F7
:1023B000D02120E030E044E353E40E9432206B015E
:1023C0007C01C0926F01D0927001E0927101F09295
:1023D000720184E00E94010A90915B01882309F454
:1023E0003AC2809105018F3F09F035C2911136C282
:1023F000809161018630D1F1909162018093050155
:1024000090936101809163018093620180916401E6
:1024100080936301809165018093640180916601DE
:10242000809365010E94280A8093660180E090E015
:10243000A8E1B2E48093670190936801A0936901D9
:10244000B0936A0180E090E0A8E6B2E480936B016B
:1024500090936C01A0936D01B0936E01C0925C01EA
:10246000D0925D01E0925E01F0925F013090050133
:102470003FEF331609F424C1409067015090680182
:102480006090690170906A0120E030E040E051E422
:10249000C301B2010E942820181654F420E030E055
:1024A00048E852E4C301B2010E94CB2187FD16C067
:1024B00020915C0130915D0140915E0150915F017E
:1024C0006BED7FE089E490E40E94BB1F60935C01A8
:1024D00070935D0180935E0190935F0180905C0139
:1024E00090905D01A0905E01B0905F01C501B401C4
:1024F0000E942D209B01AC01C301B2010E94BC1FB0
:102500002B013C0140926701509268016092690181
:1025100070926A01C501B4010E943D229B01AC0189
:1025200060916B0170916C0180916D0190916E01D1
:102530000E94BB1F4B015C0180926B0190926C0169
:10254000A0926D01B0926E0120E030E0A9010E94DE
:10255000BC1F0E94AB20162F20E030E040E85FE374
:10256000C301B2010E94BC1F0E94AB20862F612FC5
:102570000E94B60D8C8320E030E040E85FE3C301A9
:10258000B2010E94BB1F0E94AB20862F612F0E94C8
:10259000B60D8B8320E030E0A901C301B2010E9497
:1025A000BC1F0E94AB20162F20E030E040E85FE324
:1025B000C501B4010E94BB1F0E94AB20812F0E9465
:1025C000B60D8A8320E030E040E85FE3C501B40146
:1025D0000E94BC1F0E94AB20812F0E94B60D8983F0
:1025E0008FEF13E0E1E0F0E0EC0FFD1FE10FF11DD4
:1025F00090819F3F39F0E92FF0E0EE58FD4F2081A8
:1026000025FD8923115070F78F3F31F1C501B401C9
:102610000E94AB20062FC301B2010E94AB20862F7F
:10262000602F0E94B60D082F632D0E94DA0DE02F57
:10263000F0E0EE58FD4F80818F7B806280831093A5
:102640000501802F0E94E50E882309F422C181E054
:1026500080935B010E94E60D20E030E040E450E40E
:10266000C501B4010E942820181654F1C501B40117
:102670000E94AB20162FC301B2010E94AB20862F0F
:10268000612F0E94B60D182F8F3F61F060910501F8
:102690000E94DA0DE12FF0E0EE58FD4F80818F7B34
:1026A000806280838FEF80930501812F0E94E50E69
:1026B000882309F4F5C081E080935B010E94E60D58
:1026C00081E00E940C0A0E94E31010E000E020E08C
:1026D00047E85CE0B80190E080E00E94890C20E0CF
:1026E00047E85CE0B80188E490E00E94890CFDE4D2
:1026F000AF2EB12C20E04DE75CE0B801C5010E948F
:102700008F0C88E0A80EB11C95E8A916B10491F7CA
:10271000085F1F4F00341105D1F641E25CE063E031
:1027200070E080E590E00E94FA09E0910501ED83F8
:10273000EF3F09F0D3C0C701B6010E943D2220E05F
:1027400030E040EA51E40E94D0219B01AC0160E0FE
:1027500070E088E692E40E94BB1F0E94A4201B0147
:102760008B01C701B6010E942D2020E030E040EA35
:1027700051E40E94D02120E030E048E152E40E9480
:10278000BC1F0E94A4207B013101FAE36F1A71087B
:1027900077FE03C07194619471085B0126E2A21A6E
:1027A000B108B7FE03C0B194A194B108A614B70450
:1027B0000CF47DC08B0171018AE390E0E6E2CE2E3D
:1027C000D12C0C151D0554F03E2D2F2D7C01832F8F
:1027D000922F302F212F8601C32ED22E4601801A30
:1027E000910A1C012E183F0837FE03C03194219432
:1027F0003108240197FE03C03FEF431A530A559452
:102800004794E816F9060CF058C081E0E82F880FCD
:10281000FF0BF887EF83C016D1060CF45FC0A61437
:10282000B7040CF04CC0F0E8EF16F10438F440E0C7
:10283000B801C7010034110508F44DC0421853080F
:1028400057FE06C08F819885E80EF91E480C591C6A
:102850000F5F1F4FE0CF992309F408CE80916001EC
:10286000803420F48E5F8093600100CE10925B0173
:102870001092600188E7E82FF0E0EE58FD4F90815C
:10288000292F2F70263011F49F7D9083815098F767
:10289000EDCD802F0E94860F882309F4DDCED7CEA0
:1028A000812F0E94860F882309F40ACF04CF86E285
:1028B00090E07AE3C72ED12C84CF8FEFA7CF0038DA
:1028C000110508F0BBCF20E4E216F10408F0B6CF02
:1028D00040E0B701C8010E94A20CB0CF28E7922EB9
:1028E0003BE0732E45E0642E56E0552EE92DF0E0D6
:1028F000EE58FD4F208125FF39C0892D672D0E949C
:102900008E22869D700111242F70822EE6E0C090E9
:102910006001D12C2E1711F0D12CC12CB7016C0DF8
:102920007D1D959D80011124F8013596817090914F
:102930001301B12CA12C891303C093E0A92EB12C53
:1029400020E04EEB5DE0CF018A0D9B1D0E94890CBB
:10295000B7016F5F7F4F6C0D7D1DC8010696282D56
:1029600049E95DE08A0D9B1D0E948F0C9A94FFEF50
:102970009F12BCCF2D812F3F61F160916B0170914F
:102980006C0180916D0190916E010E94AB20062F29
:1029900010E06091670170916801809169019091E8
:1029A0006A010E94AB20E62EF12CB8016350710938
:1029B00020E04EEB5DE0C70103970E94890CB8014F
:1029C000625071092D8149E95DE0C70102970E94BB
:1029D0008F0C82E6C82E81E0D82E00E210E0F601CE
:1029E000F1906F01FFEFFF1649F020E04EEB5DE044
:1029F0006AE370E0C80101970E94890C2F2D49E914
:102A00005DE06BE370E0C8010E948F0C0650110975
:102A10000230110521F72E812651330BC9016CE1DB
:102A200070E00E94AE22262F43E95CE062E370E092
:102A300080E290E00E94890C209161012F3F21F1FA
:102A400049E95DE067E370E084E290E028960FB624
:102A5000F894DEBF0FBECDBFDF91CF911F910F91D4
:102A6000FF90EF90DF90CF90BF90AF909F908F90AE
:102A70007F906F905F904F903F902F900C948F0CB1
:102A80008BE080935B026ACC28960FB6F894DEBF89
:102A90000FBECDBFDF91CF911F910F91FF90EF90AF
:102AA000DF90CF90BF90AF909F908F907F906F906E
:102AB0005F904F903F902F900895CF92DF92EF92CA
:102AC000FF920F931F93CF93DF9381E00E940C0A34
:102AD0000E94E31080913F079091400783709927EF
:102AE000892B31F4809159018F5F87708093590150
:102AF000C0915901D0E0CC0FDD1FFE01EF5EF34F16
:102B00000491CE5ED34FFE01C491D0E020915801D4
:102B10002150330BC29F6001C39FD00CD29FD00CB9
:102B2000112410E0209F7001219FF00C309FF00CC9
:102B30001124B601645F7F4F20E04FE15BE0C701E5
:102B400082960E94890CBE016C0D7D1D6C5D7F4FCD
:102B5000C8018E0D9F1D20E04DEE59E04A960E945F
:102B6000890C80E80E94010A81111092580180E1CD
:102B70000E94010A882319F081E08093580184E0C3
:102B80000E94010A882329F0809158018A5F80936E
:102B90005B02DF91CF911F910F91FF90EF90DF903B
:102BA000CF900895CF9380913F079091400765E0C3
:102BB00070E00E949A22892B31F4809152018F5F3C
:102BC00087708093520149ED55E070E060E090E03D
:102BD00080E00E94FA0920E04EE955E067E370E0EA
:102BE00082E290E00E948F0C21E04EE955E067E31D
:102BF00070E08BE390E00E948F0C22E04EE955E0FC
:102C000067E370E084E590E00E948F0C809175018D
:102C100028E1829FC001112420E04AE655E065E3E7
:102C200070E0C7960E948F0C80E40E94010A811117
:102C30000E949C0C80E20E94010A81110E94970C64
:102C40008CE00E94010A882381F0C091750182E026
:102C500090E00E94421FC81729F06C2F82E090E09C
:102C60000E944A1F81E080935B02CF9108951F92DA
:102C70000F920FB60F9211248F939F938091E100D2
:102C80009091E100937F9093E10083FF0FC0109239
:102C9000E90091E09093EB001092EC0092E39093A6
:102CA000ED001092710298E09093F00082FF22C034
:102CB00093E09093E9009091F200992319F09AE340
:102CC0009093E80090916202992341F09091620202
:102CD000915090936202911101C05D9A909170029F
:102CE000992341F09091700291509093700291114C
:102CF00001C0289A84FF18C08091E2008E7E816016
:102D00008093E2008091E1008F7E8093E1008091CA
:102D100063028E7E8061809363029F918F910F90FA
:102D20000FBE0F901F90189580FFF7CF8091E200A3
:102D30008E7E80618093E2008091E1008E7E8093A0
:102D4000E100809163028E7E8160E5CF1F920F9239
:102D50000FB60F921124CF92DF92EF92FF920F9352
:102D60001F932F933F934F935F936F937F938F9313
:102D70009F93AF93BF93EF93FF93CF93DF93CDB721
:102D8000DEB76C97DEBFCDBF1092E9008091E800FE
:102D900083FF25C068E0CE0145960E94C50B82EFF7
:102DA0008093E8008D8987FF39C09091E80090FFFB
:102DB000FCCF982F907609F034C19E894F89588DA9
:102DC0002F89F88C911131C0803861F580916102B2
:102DD0008093F1001092F1008EEF8093E8006C96E2
:102DE0000FB6F894DEBF0FBECDBFDF91CF91FF913C
:102DF000EF91BF91AF919F918F917F916F915F9173
:102E00004F913F912F911F910F91FF90EF90DF9085
:102E1000CF900F900FBE0F901F9018959EEF90933C
:102E2000E800C7CF1092F100D5CF913059F481114D
:102E3000D3CF4130510581F6809161028D7F80931F
:102E40006102CACF933049F48111C6CF4130510598
:102E500019F6809161028260F2CF953041F4809141
:102E6000E80080FFFCCF20682093E300B5CF9630C8
:102E700009F0A9C00B8D1C8D22E01092E900109280
:102E80005F0210925E02F2122EC010925D0210924A
:102E90005C020E94940B1F8299E09983FA8291E070
:102EA0009E8390EA98879AEF998720915E023091ED
:102EB0005F02275F3F4F3C832B838D831092E90095
:102EC00010925F0210925E0210935D0200935C020A
:102ED00049E050E0BE016F5F7F4F80E00E946E0BC3
:102EE0000E94940B79CF10935D0200935C020E94C4
:102EF000AB0ADC0112960D911C910115110509F424
:102F000010C1D801ED91FC910480F581E02DBE0146
:102F10006B5E7F4FC8010995009709F0FDC0F8016D
:102F200000851185EACFF3E0FF120EC08F89882358
:102F300009F440C0823061F440E867E089E89FE02E
:102F40000E94FD1C811148CF81E28093EB0047CFA6
:102F5000813029F440E86BE08DE79FE0F1CF8330CA
:102F600099F70E94AB0ADC011296ED90FC908E015D
:102F70000F5F1F4F6801E114F10479F0D701ED9163
:102F8000FC910680F781E02DB801C7010995080F73
:102F9000111DF701E084F184EECFD8011C92F601F7
:102FA00001900020E9F73197BF016C197D0940E0DD
:102FB000C601C6CF67E67FE0FB01449150E080E8A0
:102FC0000E946E0B09CF973009F4BECF983021F4E0
:102FD00081E08093F10000CF993009F0FDCE83703D
:102FE00009F0B2CFE9E1F1E081E031E096E321912F
:102FF000222371F08093E9003093EB00DF011197F9
:103000002C912093EC009093ED008F5F873079F73F
:103010008EE78093EA001092EA008F898093710214
:10302000DBCE8B8D9C8D1092E90010925F02109286
:103030005E0290935D0280935C02898D811151C084
:103040008E899D89913A49F4813209F07DCF47E01C
:1030500050E06BE071E080E0B3CF913209F074CFC3
:10306000833269F48F89988DB0E0A0E080930701E6
:1030700090930801A0930901B0930A01ADCE80326C
:1030800069F48091E80082FFFCCF67E08BE091E07B
:103090000E94C50B8BEF8093E8009ECE823209F030
:1030A0009BCE8F898093120180910B0190910C012E
:1030B000A0910D01B0910E01803B9440A105B10596
:1030C00069F48091120180FD09C088E78093600255
:1030D000809164008F7D809364007ECE10926002A8
:1030E0007BCE0E94AB0ADC0112960D911C9101155A
:1030F000110509F429CFD801ED91FC910190F081DF
:10310000E02DBE016B5E7F4FC8010995811164CE31
:10311000F80100851185EBCF181619060CF45CCE6A
:1031200013CFF1E0FF12FFCE6BE67FE045CF0F93A8
:103130000FB70F931F9211248F939F93EF93FF93D9
:10314000E7E5F2E08091520291E08D5F8D3710F05B
:103150008D579395809352028081890F808391814E
:10316000911D91830281011D02838381811D8383CF
:1031700009270F70092702950093510235D081115C
:1031800000934F02803989F400915002901B9630D1
:1031900070F087E7809300088093010888E198E049
:1031A0008093600090936000FFCF909350028091D5
:1031B0006002815018F08093600259F3E3E5F2E079
:1031C0008081918101968083918382819381811D89
:1031D000911D82839383FF91EF919F918F911F9017
:1031E0000F910FBF0F9118958FB18095807F669BCF
:1031F00088601C9B846008952F923F924F925F924B
:103200006F927F928F929F92AF92BF92CF92DF92F6
:10321000EF92FF920F931F93CF93DF933DE3C32E63
:1032200031E0D32EC7E7D1E010E000E077247394BB
:103230004BE1942E56E3852E69E0462E6DE3562E23
:1032400022242A94322CEEA5EE23A9F08FA59E2FDE
:103250009370891708F49BC0F0E0F595E795F59514
:10326000E795EE0FFF1FE253F24F85919491F6011F
:10327000928381831FA69CA99923F9F08DA9292FF8
:103280002F77022E000C330B821713060CF489C023
:103290008A8197FF7FC081508A838A8181117CC097
:1032A00081E08A83EA81F0E0EE0FFF1FE253F24FE4
:1032B000859194919EA38DA31DAA58A5552321F114
:1032C0003AA529A5311119C0422F407426FF6CC0C0
:1032D0008DA19EA1850F911D57FD9A9527FD69C06F
:1032E00097FD65C0442309F466C0863BF4E29F075E
:1032F00014F085EB94E29EA38DA381E0830F8AA74F
:103300002F73321708F01AA69BA5992371F0EA8152
:10331000EE2359F08DA52CA5482F4F71322F3F7108
:10332000431708F04AC08F5F8DA749A9442311F1C4
:103330003AA9632F607436FF6CC08DA19EA12BA9A2
:1033400050E027FF69C0840F951F97FD68C0662372
:1033500009F469C0863B44E2940714F085EB94E2DB
:103360009EA38DA33F71822F8F71831708F05DC0DC
:103370002F5F2BAB89A19AA1009709F45DC08F3F05
:10338000980709F49AC001979AA389A396C08F5F02
:103390008FA771CF8F5F80CF803408F483CF8FE306
:1033A00080CF8F5F8DAB89CF8FA190E093CF90E0DE
:1033B00080E04111A0CF8FA3A0CF807EF1F480E206
:1033C0008DA78DA5807E51F09F3F09F1292F229571
:1033D0002F70E20F803411F49F70E90F88A9F0E09C
:1033E000E80FF11D87FDFA95EE0FFF1FE253F24F34
:1033F000859194919EA38DA398CF803231F426FDC0
:1034000004C09F3F11F080E4DBCF1DA6DACFE0E0DF
:10341000E1CF8FA190E093CF841B950B96CF90E0E6
:1034200080E061119DCF8FA39DCF27FF02C01BAA13
:10343000A1CF80E88BAB9ECFC8010496672C01C05A
:10344000660C8A95EAF7909E5001919EB00C11246B
:10345000809EC001819E900D11249C0129583E4FF1
:10346000790188819981BC016F5F7F4F798368837F
:10347000FC014491403408F07CC04A83442319F095
:1034800088A9480F4A83EA81F0E0EE0FFF1FE2535C
:10349000F24F859194919EA38DA389A5811102C0BD
:1034A0008FA58FA38CA585FD1DA689A19AA1009744
:1034B000C1F28F3F980709F066CF20910601822F55
:1034C00090E0002E02C0959587950A94E2F780FD62
:1034D0000AC0033009F0E7C18091400290E0959561
:1034E000879580934C01207F39F5809197019091C9
:1034F000CD01890F90910302890F90913902890FB4
:1035000009F4D9C18FE4A82E82E0B82E97E7E92EFE
:1035100091E0F92EF70180A10E94820CF7019183BE
:10352000808312A211A2F6E3EF0EF11CAE14BF04C9
:1035300089F780EF809306010F5F1F4FE696F5E055
:10354000CF0ED11C0430110509F07DCEDF91CF9153
:103550001F910F91FF90EF90DF90CF90BF90AF90B1
:103560009F908F907F906F905F904F903F902F90A3
:103570000895403A08F009C1E42FE054FF0BEC3005
:10358000F10509F4BFC00CF04CC0E530F10509F4B9
:10359000A2C0F4F4E230F10509F49DC094F4309730
:1035A00009F491C0319709F080CF029699838883FE
:1035B000FB01649168A780E0413409F080E489A7A9
:1035C00074CFE330F10509F493C0349771F36DCFF4
:1035D000E830F10509F462C0A4F4E630F10509F41D
:1035E00087C0379709F061CFFB0164916BA79C01FD
:1035F0002D5F3F4F39832883FC013296E491ECA77D
:1036000054CFEA30F10509F47BC002963B970CF4E5
:1036100071C099838883FB01849168A9680F68ABA6
:1036200044CFE331F10509F477C064F5EF30F105DB
:1036300009F470C0DCF4ED30F10509F469C03E977F
:1036400009F033CFFB012591349129AB9C012D5F0B
:103650003F4F39832883FC0132962591349180E0D5
:103660004E3409F080E4820F8AAB1FCFE131F105BF
:1036700009F450C03CF3029699838883FB0164915E
:103680006CAB13CFEC35F10509F451C04CF4E431C7
:10369000F10509F443C0759709F007CF1BA605CFC4
:1036A000EE35F10509F45CC00CF454C0EF35F105BA
:1036B00009F0FBCE809106018625809306011FA2AA
:1036C0003AA229A2F2CE029699838883FB016491E3
:1036D0006FA36FA7EACEFB01649168A79C012D5FE1
:1036E0003F4F39832883FC013296E491E9A7DDCE70
:1036F00018A6DBCE99838883FB0164916EA7D5CE93
:103700001EA6D3CE029699838883FB01649187CF4E
:1037100018AACBCE19AAC9CE1CAAC7CEFFEFFBA709
:10372000029699838883FB0164916CA7BECE0296B2
:1037300099838883FB016491E09176016E0F609319
:10374000760170E0C2010E94AE2270933C0160934A
:103750003B01ABCE029699838883FB016491EFCF46
:10376000A7E7B1E021E030E0FC01E20FF31FE491B4
:103770009096EC9390972F5F3F4FD696253031056A
:1037800099F705969983888390CE403E28F44F5947
:10379000550B5AA349A389CE403EA9F4DE0190E01F
:1037A00080E09695982F882797958795ED91FD91C4
:1037B000E4912E2F2F77822BE7FDF3CF8F5B9F4F66
:1037C0009AA389A372CE4C3F08F46FCE24E0240F55
:1037D000223098F54C3F79F1029699838883FB015A
:1037E0006491E881F9819F012F5F3F4F39832883DE
:1037F000E4915CA15E17D1F04F8D842F90E07BA106
:10380000D701A80FB91F51967C93519758965C9396
:10381000D501A80FB91FAA0FBB1FA958BE4F1496F8
:103820003C932E9313974F5F4F8FECA36BA38CA108
:103830000E94820CA7CF60E0D4CFDE0190E080E050
:103840004E3FF9F48BA1811119C0EF8DEE2379F36E
:10385000E150EF8FF0E0D501AE0FBF1FAA0FBB1FE5
:10386000A958BE4F13968D919C9199838883EE0D34
:10387000FF1D81898BA3808D8CA317CE81508BA3D4
:10388000D6CF9695982F882797958795ED91FD919E
:10389000E4913E2F3F77832BE7FDF3CF680F791F2D
:1038A0007983688302CE8DA19EA1F60192838183E4
:1038B0008FA1808318CE88EDE7E7F1E011928A9519
:1038C000E9F71092720038CE2F922FB62F932091E5
:1038D0003A01209520933A0109F08BC0BF93AF9332
:1038E0000F921F922091480100904A01020E00920F
:1038F0004A012091490110904B01121E10924B0178
:10390000B12DB7FDB095BB0FA0914701B058BA02D9
:10391000110CA12D20913E0100904001020E009259
:10392000400120913F0110904101121E109241016F
:10393000212D220F2121B0913D0127FDB195AB0F23
:103940002091430100904501020E00924501209113
:10395000440110904601121E10924601B09142019E
:1039600017FCB195AB0FB1E000904D0110904E01E6
:10397000000C111C17FC0B2616FC0B2600924D01A7
:1039800010924E01B0914C0117FCB195AB0FB09164
:103990000001AB0FA093CF00B0913901A091380185
:1039A000119729F0B0933901A09338011EC0B0914E
:1039B0003C01A0913B01B0933901A0933801789468
:1039C0003F934F935F936F937F938F939F93EF9367
:1039D000FF9311240E94FC18FF91EF919F918F910A
:1039E0007F916F915F914F913F911F900F90AF9199
:1039F000BF912F912FBE2F901895EF92FF920F93AA
:103A00001F93CF93DF93F82E192FE62E042F81E01A
:103A1000860F880F0E94400B83E00E94400BCF2D41
:103A2000D12FEC0EFD2EF11CCE15DF05B9F007FFEE
:103A300013C0FE0184910E94400B182F80E00E9469
:103A4000400B812321968111EFCFDF91CF911F9100
:103A50000F91FF90EF9008958881EDCF81E0F5CF31
:103A6000ECEEF6E01382128288EE93E0A0E0B0E084
:103A700084839583A683B78383E291E091838083D7
:103A80008FEF9FEF95878487ECE3F7E085E391E084
:103A9000918380831582168280E18783148213824A
:103AA00011860895789483E084BD83E085BD81E02C
:103AB00080936E00E1E8F0E083E08083E0E881E05D
:103AC0008083E1E983E08083E0E981E08083E1ECC9
:103AD00087E08083E3EC81E08083E0EC82E0808318
:103AE000E2EC81E08083EAE787E08083806880837E
:103AF0001092710210926102109263028091D700BD
:103B000081608093D70080EA8093D80089B5806176
:103B100089BD89B5826089BD09B400FEFDCF81E011
:103B200090E00E94D30B8091D8008F7C80618093BD
:103B3000D8008091E000807F8093E0008091E100D8
:103B40008E7E8093E1008DE08093E200559A209A6A
:103B500081EC80937C0081EF85B987EE84B984E3A2
:103B60008BB984EF8AB9769A6E9880EF81BB10BAD0
:103B700080E58CBD81E08DBD85E090E00E94950CD4
:103B80005F9902C05F9AF8CF5C98EEE4FEE09DE09A
:103B900085918EBD00000DB407FEFDCF8EB59A95C0
:103BA000B9F75C9A81E88093640081E080936500B6
:103BB00082E090E00E94421F882309F464C00E94C2
:103BC0009C0C81E090E00E94421F182F147081E04D
:103BD00090E00E94421F81FF0BC011112E98C0EF90
:103BE000DFEF0E94F41886FF51C02E9A2F9A2D9A6B
:103BF00080E180934307809164008E7F809364000E
:103C000080917A00806480937A0080917A0086FDAA
:103C1000FCCFC0917800D09179000E946A0CAB0172
:103C2000BC01CE01B0E0A0E0DC01992788278C011F
:103C30009D01040F151F261F371FC901B8012091D0
:103C40006400216020936400611571058105910570
:103C500011F00E94391F11E0C0E0D0E001E0909126
:103C6000570280914407292F281B822F2091450756
:103C7000222391F18093460710924507209779F30C
:103C80000E940000ECCF0E94970C9BCF112329F0DB
:103C9000C430D10511F42E9A2F9881E00E94190AA0
:103CA0004BE55EE0BE0184E190E00E94FA0980E00D
:103CB0000E94190A8FE090E00E94950C2196C9316C
:103CC000D10509F08ECF112311F02F9A2D9880E99C
:103CD00091E00E94950C8BCF20914307821738F416
:103CE0008F5F821758F613BF889513BEC7CF009316
:103CF00045079093440780913F07909140070196B4
:103D00009093400780933F0780914107809342073B
:103D10000E94F4188093410780E00E940C0AE09111
:103D20005B02F0E0EE0FFF1FE35FF04F859194918F
:103D3000FC01099580E00E94190AA0CF8F929F9202
:103D4000AF92BF92CF92DF92EF92FF92CF93DF9329
:103D5000EC01688179818A819B81611571058105FA
:103D6000910521F464E279ED8BE597E02DE133EFE5
:103D700041E050E00E94581F49015A019B01AC01EB
:103D8000A7EAB1E40E94771F6B017C01ACEEB4EFAF
:103D9000A50194010E94851FC60ED71EE81EF91EBC
:103DA000F7FE06C081E0C81AD108E10880E8F80AE9
:103DB000C882D982EA82FB82C701B6019F77DF9170
:103DC000CF91FF90EF90DF90CF90BF90AF909F90FA
:103DD0008F9008958F929F92AF92BF92CF92DF9271
:103DE000EF92FF926091140170911501809116017C
:103DF00090911701611571058105910521F464E227
:103E000079ED8BE597E02DE133EF41E050E00E9442
:103E1000581F49015A019B01AC01A7EAB1E40E9475
:103E2000771F6B017C01ACEEB4EFA50194010E94F9
:103E3000851FC60ED71EE81EF91EF7FE06C081E0DC
:103E4000C81AD108E10880E8F80AC0921401D0929B
:103E50001501E0921601F0921701C701B6019F7794
:103E6000FF90EF90DF90CF90BF90AF909F908F909A
:103E70000895609314017093150180931601909337
:103E800017010895F999FECF92BD81BDF89A99273F
:103E900080B50895262FF999FECF1FBA92BD81BD36
:103EA00020BD0FB6F894FA9AF99A0FBE01960895BC
:103EB000052E97FB1EF400940E946F1F57FD07D03C
:103EC0000E948A1F07FC03D04EF40C946F1F50957C
:103ED0004095309521953F4F4F4F5F4F08959095F6
:103EE0008095709561957F4F8F4F9F4F08950E94E9
:103EF000AC1FA59F900DB49F900DA49F800D911DA8
:103F000011240895B7FF0C94771F0E94771F821B1E
:103F1000930B0895A1E21A2EAA1BBB1BFD010DC035
:103F2000AA1FBB1FEE1FFF1FA217B307E407F50769
:103F300020F0A21BB30BE40BF50B661F771F881F45
:103F4000991F1A9469F760957095809590959B01DB
:103F5000AC01BD01CF010895A29FB001B39FC00184
:103F6000A39F700D811D1124911DB29F700D811DA5
:103F70001124911D08955058BB27AA270E94D31FD2
:103F80000C947D210E94442138F00E944B2120F0A6
:103F900039F49F3F19F426F40C9441210EF4E09576
:103FA000E7FB0C943B21E92F0E94A22158F3BA179A
:103FB000620773078407950720F079F4A6F50C943F
:103FC000C4210EF4E0950B2EBA2FA02D0B01B901E0
:103FD00090010C01CA01A0011124FF27591B99F07F
:103FE000593F50F4503E68F11A16F040A22F232F8B
:103FF000342F4427585FF3CF469537952795A795DB
:10400000F0405395C9F77EF41F16BA0B620B730B81
:10401000840BBAF09150A1F0FF0FBB1F661F771FF2
:10402000881FC2F70EC0BA0F621F731F841F48F4A7
:10403000879577956795B795F7959E3F08F0B0CF30
:104040009395880F08F09927EE0F97958795089517
:104050000E94172108F481E008950E945421E395FD
:104060000C948E210E9446200C947D210E944B21AD
:1040700058F00E94442140F029F45F3F29F00C944D
:104080003B2151110C94C5210C9441210E94A22185
:1040900068F39923B1F3552391F3951B550BBB2777
:1040A000AA2762177307840738F09F5F5F4F220FBC
:1040B000331F441FAA1FA9F335D00E2E3AF0E0E8B3
:1040C00032D091505040E695001CCAF72BD0FE2FFD
:1040D00029D0660F771F881FBB1F26173707480791
:1040E000AB07B0E809F0BB0B802DBF01FF27935849
:1040F0005F4F3AF09E3F510578F00C943B210C94B1
:10410000C5215F3FE4F3983ED4F386957795679594
:10411000B795F7959F5FC9F7880F911D969587957D
:1041200097F90895E1E0660F771F881FBB1F62179C
:1041300073078407BA0720F0621B730B840BBA0B5A
:10414000EE1F88F7E09508950E94AB206894B111A6
:104150000C94C52108950E94AA2188F09F5798F0D9
:10416000B92F9927B751B0F0E1F0660F771F881F7C
:10417000991F1AF0BA95C9F714C0B13091F00E9496
:10418000C421B1E008950C94C421672F782F8827AB
:10419000B85F39F0B93FCCF3869577956795B395BD
:1041A000D9F73EF490958095709561957F4F8F4F2C
:1041B0009F4F0895E89409C097FB3EF49095809531
:1041C000709561957F4F8F4F9F4F9923A9F0F92FDD
:1041D00096E9BB279395F695879577956795B7955B
:1041E000F111F8CFFAF4BB0F11F460FF1BC06F5F41
:1041F0007F4F8F4F9F4F16C0882311F096E911C053
:10420000772321F09EE8872F762F05C0662371F073
:1042100096E8862F70E060E02AF09A95660F771F87
:10422000881FDAF7880F9695879597F90895990F63
:104230000008550FAA0BE0E8FEEF16161706E80770
:10424000F907C0F012161306E407F50798F0621B91
:10425000730B840B950B39F40A2661F0232B242B66
:10426000252B21F408950A2609F4A140A6958FEF85
:10427000811D811D089597F99F6780E870E060E0D7
:1042800008959FEF80EC089500240A9416161706EF
:1042900018060906089500240A9412161306140637
:1042A000050608950C9441210E94AA21D8F3E894B0
:1042B000E0E0BB279F57F0F02AED3FE049EC06C055
:1042C000EE0FBB0F661F771F881F28F0B23A6207F8
:1042D0007307840728F0B25A620B730B840BE395C3
:1042E0009A9572F7803830F49A95BB0F661F771F46
:1042F000881FD2F790480C944722092E0394000C93
:1043000011F4882352F0BB0F40F4BF2B11F460FF6F
:1043100004C06F5F7F4F8F4F9F4F0895EF93E0FF73
:1043200007C0A2EA2AED3FE049EC5FEB0E94D31FF1
:104330000E947D210F90039401FC9058ECEAF0E07C
:104340000C94532257FD9058440F551F59F05F3F6E
:1043500071F04795880F97FB991F61F09F3F79F0A7
:1043600087950895121613061406551FF2CF469529
:10437000F1DF08C0161617061806991FF1CF8695AB
:104380007105610508940895E894BB27662777278F
:10439000CB0197F908950E94172108F48FEF089533
:1043A0000E94E3210C947D210E94442138F00E9458
:1043B0004B2120F0952311F00C943B210C944121CA
:1043C00011240C94C5210E94A22170F3959FC1F382
:1043D000950F50E0551F629FF001729FBB27F00DB3
:1043E000B11D639FAA27F00DB11DAA1F649F662708
:1043F000B00DA11D661F829F2227B00DA11D621F57
:10440000739FB00DA11D621F839FA00D611D221F10
:10441000749F3327A00D611D231F849F600D211DF4
:10442000822F762F6A2F11249F5750409AF0F1F077
:1044300088234AF0EE0FFF1FBB1F661F771F881FE0
:1044400091505040A9F79E3F510580F00C943B21BC
:104450000C94C5215F3FE4F3983ED4F3869577959D
:104460006795B795F795E7959F5FC1F7FE2B880F86
:10447000911D9695879597F908959F930E945421D1
:104480000F9007FCEE5F0C948E219F3F31F091500E
:1044900020F4879577956795B795880F911D969528
:1044A000879597F908959F938F937F936F93FF93C9
:1044B000EF939B01AC010E94D021EF91FF910E94EC
:1044C00067222F913F914F915F910C94D021DF9300
:1044D000CF931F930F93FF92EF92DF927B018C019A
:1044E000689406C0DA2EEF010E94E321FE01E894F1
:1044F000A5912591359145915591A6F3EF010E9423
:10450000D31FFE019701A801DA9469F7DF90EF90BD
:10451000FF900F911F91CF91DF910895991B79E042
:1045200004C0991F961708F0961B881F7A95C9F743
:1045300080950895AA1BBB1B51E107C0AA1FBB1F92
:10454000A617B70710F0A61BB70B881F991F5A951F
:10455000A9F780959095BC01CD01089597FB072E92
:1045600016F4009407D077FD09D00E949A2207FC28
:1045700005D03EF4909581959F4F08957095619573
:104580007F4F0895EE0FFF1F0590F491E02D0994E1
:04459000F894FFCFCD
:10459400800330605AFFF0FFFFFFFF00E1000000DE
:1045A400000000010100000000C180810000000043
:1045B400000000BF0AE70BE00AD50A260BE40A0252
:0845C4000B00000000D20B0007
:00000001FF
