:100000000C94BF010C94E7010C94E7010C94E701F8
:100010000C94E7010C94E7010C94E7010C94E701C0
:100020000C94E7010C94E7010C940E040C947D04ED
:100030000C94E7010C94E7010C94E7010C94E701A0
:100040000C94E7010C94E7010C94E7010C94E70190
:100050000C94E7010C94E7010C94E7010C946E06F4
:100060000C94E7010C94E7010C94E7010C94E70170
:100070000C94E7010C94E7010C94E7010C94E70160
:100080000C94E7010C94E7010C94E7010C94E70150
:100090000C94E7010C94E7010C94E7010C94E70140
:1000A0000C94E7010C94E7010C94E701F0F89C8EA6
:1000B0008783878E9CF8F00000FEFF030303030391
:1000C000070EFCF80000FEFF0303030303070EFC0A
:1000D000F80000FFFF00000000000000FFFF00002C
:1000E000FEFF8383838383C7EE7C380000F8FC0E19
:1000F00007030303070EFCF800003F7FE0C0808089
:10010000C0E07F3FFFFF01010101010101FFFF008E
:1001100000FFFF0C0C0C0C1C3E77E3C100007FFFBE
:10012000C0C0C0C0C0E0703F1F00001F3F70E0C0F3
:10013000C0C0E0703F1F00007FFFC1C1C1C1C1E36B
:10014000773E1C00001F3F70E0C0C0C0E0703F1F42
:10015000000000000001FFFF01000000D5F08D1439
:10016000A1C881CFD9F1AF20003C380000000000C9
:1001700080F8FE0FE3FB1B0B0B8BFBF3F7F6F6F699
:100180000606ECECECECECECECECECECECECECEC7B
:10019000EEE6F6F6F6F7F3FBFBCBCBFBE30FFEF850
:1001A000801E332121339E00000080F8FF0FE0F80D
:1001B000F9F9F9F9F9F9F9F1F3F3F3F3F0F0FFFFD5
:1001C000FFFFFFFFFFFFFFFFFFFFFFFFFFFFFFFF3F
:1001D000FFFFFFFFFFFFFF7F7FFEE00FFFF88006BE
:1001E0000600000000000F3FF0C6070404070707E1
:1001F000070707070707070707FFFFFFFFFFFFFFC7
:10020000FFFFFFFFFFFFFFFFFF0707070707078746
:1002100087070726860707C6F03F1F00808000007B
:100220000000000000030784C4E4E4E4E4E4E4E440
:10023000E4C49C003FE7E7E7E7E7E7E7E7E7E7C76E
:10024000870F1F0FC7E7E0ECE4E4E4E5E5E4C4044E
:100250000404070300C040C30311000000000000B5
:10026000000000FFFFFFFFFF393939FFFFFF0FE0FC
:10027000E0EFEF0FFFFF183879FFFFF703E0E0EF43
:10028000EF0FFFF9F0F0FCFDFDFD0DECE0E0E0000C
:1002900000012101000000000080C0602060C080DB
:1002A000000000000C0C007EFE803C3E1C1C1C1C50
:1002B0001C0C0C0E0C0C0C0C0E1E1C1C1C1C3C3EB6
:1002C00080FE7E00000000C0E0E0C00000000003EF
:1002D0000300000E1B3166C680D060311B0E00008B
:1002E0003828380001471E3820202020301010D038
:1002F000D0101090103020202020381E0701000060
:1003000006060000010100000000000000000008D7
:100310000B000202020100090400000102020000B9
:10032000052400100105240101010424020605240E
:100330000600010705810310004009040100020ABC
:10034000000000070502024000000705830240008C
:10035000000403090412010002EF020140412336A8
:100360008000010102030141726475696E6F204CC7
:100370004C430041726475626F79000006071124D6
:100380001FBECFEFDAE0DEBFCDBF11E0A0E0B1E0ED
:10039000E4E3F5E102C005900D92AC32B107D9F764
:1003A00025E0ACE2B1E001C01D92A93AB207E1F745
:1003B00011E0CFEBD1E004C02197FE010E94920A28
:1003C000CE3BD107C9F70E9428070C94980A0C94D9
:1003D0000000EEE4F1E0A0E0B8E000800EBC811186
:1003E000012C1197A0FDFDCF0192B9F70DB408952E
:1003F000FC0180914D01882311F13FB7F89482E010
:100400008093E9002091F200822F90E018161906DF
:1004100014F481E090E0882339F0289844E6409372
:100420004C014091F1004083222339F02091F200E9
:10043000211103C02BE62093E8003FBF08958FEF02
:100440009FEF08952FB7F89483E08093E90090918F
:10045000E800892F807295FF04C09091F20080E43B
:10046000891B2FBF08958091440181110DC082E046
:100470008093400184E080934101109243011092E7
:10048000420181E08093440180E491E00895CF939C
:10049000DF931F92CDB7DEB76983DC01ED91FC914C
:1004A0000280F381E02D41E050E0BE016F5F7F4F9D
:1004B00009950F90DF91CF91089583E08093E90033
:1004C0008091F200882319F08AE38093E800089570
:1004D0000E94220290E00895CF93DF931F92CDB740
:1004E000DEB7FC018485958597FD08C02FEF3FEFAF
:1004F000358724870F90DF91CF910895CE01019623
:100500000E94F801019719F4898190E0F3CF8FEFF1
:100510009FEFF0CF0F931F93CF93DF931F92CDB731
:10052000DEB78C01FC018485958597FF0BC0CE0159
:1005300001960E94F801019771F4898190E0F80119
:1005400095878487F801848595850F90DF91CF91F9
:100550001F910F9108958FEF9FEFF1CFFC018485DC
:10056000958597FD0BC09FB7F89482E08093E900D2
:100570008091F2009FBF90E0019608959FB7F89494
:1005800082E08093E9008091F2009FBF90E008959F
:1005900040913A0150913B0120913801309139014D
:1005A00042175307B4F49091E8009570E1F39091ED
:1005B000E80092FD19C08093F10080913A0190917A
:1005C0003B0101968F739927892B19F48EEF809345
:1005D000E80080913A0190913B01019690933B0194
:1005E00080933A0181E0089580E00895DF92EF92D0
:1005F000FF920F931F93CF93DF93D82E8A01EB01C5
:100600007B01E40EF51ECE15DF0559F0D7FE12C0B2
:10061000FE0184910E94C80221968111F4CF0FEF50
:100620001FEFC801DF91CF911F910F91FF90EF90C5
:10063000DF9008958881EECF0F931F93CF93DF93C0
:100640001F92CDB7DEB782E0898342E450E06FE0CD
:1006500073E080E80E94F6020E943302DC011296E9
:100660000D911C910115110589F0D801ED91FC91B6
:100670000280F381E02DBE016F5F7F4FC8010995B5
:1006800097FD04C0F80100851185ECCF89810F909A
:10069000DF91CF911F910F910895615030F020911B
:1006A000F100FC0120830196F8CF289884E680931E
:1006B0004C0108950895FC010E94F203319728F03F
:1006C00068517C4F8F4F9F4FF9CFAB01FC010E94C7
:1006D000F203641775078E079F07C8F308958F927A
:1006E0009F92AF92BF92CF92DF92EF92FF920F93C1
:1006F0001F93CF93DF936C017B018A0180910B01E3
:10070000882309F45AC080914D01882309F455C00B
:1007100080913F0180FF05C08091E000826080935E
:10072000E000E801B12C8AEFA82E93E0892E2AE39D
:10073000922E209711F4BB20C9F10E942202811150
:1007400008C0AA94AA20C9F181E090E00E945B034E
:10075000F0CF8C171D0611F00CF08C2F9FB7F8947A
:100760008092E9002091E80025FD02C09FBFE1CF03
:10077000282F30E0C21BD30BF701815020F04191AC
:100780004093F100FACFE20EF31EBB2021F09092CD
:10079000E800B12CEBCF8091E80085FDE7CF909287
:1007A000E800BB24B394209709F3F3CF5D9884E667
:1007B00080933E01101611063CF081E090E0F601B6
:1007C0009383828310E000E0C801DF91CF911F91F5
:1007D0000F91FF90EF90DF90CF90BF90AF909F90E0
:1007E0008F900895A0E3B1E02FB7F8947D918D919B
:1007F0009C9166B52FBFA89B05C06F3F18F47F5F23
:100800008F4F9F4F22E0660F771F881F991F2A95F1
:10081000D1F708952D9A08950C945B031F920F92BF
:100820000FB60F9211248F939F938091E1009091C6
:10083000E100937F9093E10083FF0FC01092E900E5
:1008400091E09093EB001092EC0092E39093ED0016
:1008500010924D0198E09093F00082FF22C093E047
:100860009093E9009091F200992319F09AE3909304
:10087000E80090913E01992341F090913E01915002
:1008800090933E01911101C05D9A90914C01992382
:1008900041F090914C01915090934C01911101C005
:1008A000289A84FF18C08091E2008E7E8160809338
:1008B000E2008091E1008F7E8093E10080913F0112
:1008C0008E7E806180933F019F918F910F900FBE2C
:1008D0000F901F90189580FFF7CF8091E2008E7ED9
:1008E00080618093E2008091E1008E7E8093E10040
:1008F00080913F018E7E8160E5CF1F920F920FB6EF
:100900000F921124CF92DF92EF92FF920F931F93D9
:100910002F933F934F935F936F937F938F939F9307
:10092000AF93BF93EF93FF93CF93DF93CDB7DEB732
:100930006C97DEBFCDBF1092E9008091E80083FF85
:1009400025C068E0CE0145960E944D0382EF80935A
:10095000E8008D8987FF39C09091E80090FFFCCFB7
:10096000982F907609F034C19E894F89588D2F8930
:10097000F88C911131C0803861F580913D018093F0
:10098000F1001092F1008EEF8093E8006C960FB6A4
:10099000F894DEBF0FBECDBFDF91CF91FF91EF91F5
:1009A000BF91AF919F918F917F916F915F914F9187
:1009B0003F912F911F910F91FF90EF90DF90CF907B
:1009C0000F900FBE0F901F9018959EEF9093E80028
:1009D000C7CF1092F100D5CF913059F48111D3CF08
:1009E0004130510581F680913D018D7F80933D011D
:1009F000CACF933049F48111C6CF4130510519F661
:100A000080913D018260F2CF953041F48091E80001
:100A100080FFFCCF20682093E300B5CF963009F02B
:100A2000A9C00B8D1C8D22E01092E90010923B01B1
:100A300010923A01F2122EC0109239011092380130
:100A40000E941C031F8299E09983FA8291E09E83A1
:100A500090EA98879AEF998720913A0130913B016B
:100A6000275F3F4F3C832B838D831092E9001092C8
:100A70003B0110923A01109339010093380149E08B
:100A800050E0BE016F5F7F4F80E00E94F6020E943F
:100A90001C0379CF10933901009338010E9433026F
:100AA000DC0112960D911C910115110509F410C17C
:100AB000D801ED91FC910480F581E02DBE016B5EC3
:100AC0007F4FC8010995009709F0FDC0F801008526
:100AD0001185EACFF3E0FF120EC08F89882309F455
:100AE00040C0823061F440E867E083E793E00E9411
:100AF000D306811148CF81E28093EB0047CF81304C
:100B000029F440E86BE087E693E0F1CF833099F772
:100B10000E943302DC011296ED90FC908E010F5F73
:100B20001F4F6801E114F10479F0D701ED91FC91B8
:100B30000680F781E02DB801C7010995080F111D46
:100B4000F701E084F184EECFD8011C92F601019008
:100B50000020E9F73197BF016C197D0940E0C6011B
:100B6000C6CF61E573E0FB01449150E080E80E944C
:100B7000F60209CF973009F4BECF983021F481E016
:100B80008093F10000CF993009F0FDCE837009F019
:100B9000B2CFEDE0F1E081E031E096E32191222354
:100BA00071F08093E9003093EB00DF0111972C91F5
:100BB0002093EC009093ED008F5F873079F78EE7FC
:100BC0008093EA001092EA008F8980934D01DBCE7A
:100BD0008B8D9C8D1092E90010923B0110923A018E
:100BE0009093390180933801898D811151C08E898C
:100BF0009D89913A49F4813209F07DCF47E050E078
:100C000064E071E080E0B3CF913209F074CF8332B9
:100C100069F48F89988DB0E0A0E0809300019093F3
:100C20000101A0930201B0930301ADCE803269F4BB
:100C30008091E80082FFFCCF67E084E091E00E94B1
:100C40004D038BEF8093E8009ECE823209F09BCE5D
:100C50008F8980930B018091040190910501A091EF
:100C60000601B0910701803B9440A105B10569F4EC
:100C700080910B0180FD09C088E780933C01809141
:100C800064008F7D809364007ECE10923C017BCE09
:100C90000E943302DC0112960D911C910115110581
:100CA00009F429CFD801ED91FC910190F081E02D5C
:100CB000BE016B5E7F4FC8010995811164CEF801BA
:100CC00000851185EBCF181619060CF45CCE13CFF6
:100CD000F1E0FF12FFCE65E573E045CF0F930FB74C
:100CE0000F931F9211248F939F93EF93FF93E4E34D
:100CF000F1E080912F0191E08D5F8D3710F08D57DD
:100D0000939580932F018081890F80839181911D1C
:100D100091830281011D02838381811D83830927C1
:100D20000F700927029500932E0135D08111009391
:100D30002C01803989F400912D01901B963070F0C0
:100D400087E7809300088093010888E198E080930A
:100D5000600090936000FFCF90932D0180913C0143
:100D6000815018F080933C0159F3E0E3F1E0808179
:100D7000918101968083918382819381811D911D50
:100D800082839383FF91EF919F918F911F900F9199
:100D90000FBF0F9118958FB18095807F669B8860FB
:100DA0001C9B84600895EF92FF920F931F93CF9343
:100DB000DF93F82E192FE62E042F81E0860F880F7F
:100DC0000E94C80283E00E94C802CF2DD12FEC0EF2
:100DD000FD2EF11CCE15DF05B9F007FF13C0FE0193
:100DE00084910E94C802182F80E00E94C8028123CB
:100DF00021968111EFCFDF91CF911F910F91FF903D
:100E0000EF9008958881EDCF81E0F5CFEEE4F5E035
:100E10001382128288EE93E0A0E0B0E08483958391
:100E2000A683B78387E191E0918380838FEF9FEF63
:100E300095878487EEE9F5E089E291E091838083EC
:100E40001582168280E187831482138211860895A9
:100E500000D000D0CDB7DEB7789483E084BD83E0C6
:100E600085BD81E080936E00E1E8F0E083E080835F
:100E7000E0E881E08083E1E983E08083E0E981E0EC
:100E80008083E1EC87E08083E3EC81E08083E0EC29
:100E900082E08083E2EC81E08083EAE787E0808380
:100EA0008068808310924D0110923D0110923F01A5
:100EB0008091D70081608093D70080EA8093D8002A
:100EC00089B5806189BD89B5826089BD09B400FE9C
:100ED000FDCF81E090E00E945B038091D8008F7C81
:100EE00080618093D8008091E000807F8093E00053
:100EF0008091E1008E7E8093E1008DE08093E2009E
:100F0000559A209A81EC80937C0081EF85B987EE19
:100F100084B984E38BB984EF8AB9769A6E9880EFAE
:100F200081BB10BA80E58CBD81E08DBD85E090E08D
:100F30000E940C045F9902C05F9AF8CF5C98ECE5C0
:100F4000F1E09DE085918EBD00000DB407FEFDCF60
:100F50008EB59A95B9F75C9A81E88093640081E038
:100F6000809365000E94E9010E94CB0687FF11C0B3
:100F70005C9885EA8EBD00000DB407FEFDCF8EB5EE
:100F80005C9A2E982F982D9881E083BF889513BE88
:100F9000FCCF0E94CB0682FF48C02D980E94CB0652
:100FA00084788438E1F40E940A0488EC90E00E947E
:100FB0000C042F9882E090E00E947C0A8F3F29F079
:100FC0006FEF82E090E00E94840A84EF91E00E943B
:100FD0000C042F9A0E94CB0684788438D9F30E949F
:100FE000CB0684718431E1F40E940A0488EC90E01D
:100FF0000E940C042E9882E090E00E947C0A8823D4
:1010000029F060E082E090E00E94840A84EF91E0A1
:101010000E940C042E9A0E94CB0684718431D9F36D
:1010200088EC90E00E940C04B4CF0E940A0482E095
:1010300090E00E947C0A882309F448C03E9A3F9AB7
:1010400081E090E00E947C0A182F147081E090E00B
:101050000E947C0A81FF0EC011112E9840EF5FEFB5
:101060005A8349830E94CB0686FF33C02E9A2F9A5B
:101070000E940A0482E390E00E940C040E94CB06C6
:101080008111F8CF80E18093A50509E6202E01E0CB
:10109000302E80E8682E712C90E0A92E90E0B92EB9
:1010A000209134018091A605522F581B852F9091D5
:1010B000A705992309F482C05093A8051092A705AB
:1010C000A114B10469F30E940000EACF3E983F9852
:1010D000B7CF112331F089819A81049711F42E9AA8
:1010E0002F9881E00E94E90199819770A92E49818A
:1010F0005A8123E0559547952A95E1F7CA019695BF
:10110000982F882797958795825B9E4F70E060E0C7
:101110004E3FAFEF5A0769F130E020E0DB01A45504
:10112000BF4F7C01E0E8EE0EF11CFD01E20FF31F62
:10113000E491F0E04F010A2C02C0880C991C0A943B
:10114000E2F74F3F540739F06C01C20ED31EF6018F
:10115000B488B828B48AAA2039F06701C20ED31E19
:10116000F60104890929048B2F5F3F4F283531058B
:10117000E1F64F5F5F4F80589F4F685A7F4F603B4B
:10118000710531F680E00E94E9018FE090E00E9455
:101190000C0449815A814F5F5F4F5A83498349311B
:1011A000510509F05FCF112311F02F9A2D9880E996
:1011B00091E00E940C040E940A045CCF3091A505C6
:1011C000531748F48F5F831708F07ACF81E083BF0D
:1011D000889513BE75CFA1E0A093A7052093A6051F
:1011E0002091A1053091A2052F5F3F4F3093A205BA
:1011F0002093A105292FEEE4F1E021112FEF8FEFCD
:1012000021932193219321938150D0F7B0E0A0E066
:10121000F1016AEF95907591911511F49115B1F066
:1012200047E0470F479546954695633009F4440FCC
:10123000499DA001949FE00DF11D959FF00D109622
:1012400029F0949FA00DB11D959FB00D11246F3F03
:1012500021F4109662E009F061E09F01892D90E091
:101260003097F1F08E35910514F01EE5912E51E086
:10127000472F477009F450E0769576957695852E40
:10128000870E58E0452E481410F448E0842E633051
:1012900009F4EDC048F4613009F4A1C0623071F185
:1012A00080E00E94E9010CCF6A3F09F45AC06B3F0D
:1012B000B9F710E062E270E0811691F3DB01A25B06
:1012C000BE4F50E040E0491508F083C0F901E40F3B
:1012D000F51FE491F0E1EF9F2001112417FF70C08A
:1012E0006D0100E8C00ED11C052D0095F60150805F
:1012F000052100834F5F5F4F1196E5CF10E062E25A
:1013000070E0811669F2DB01A25BBE4F50E040E065
:10131000491508F5F901E40FF51FE49100E1E09F9C
:101320002001112417FF10C06D01E0E8CE0ED11C82
:10133000F6010081E02FE07F0E2F0529F6010083E2
:101340004F5F5F4F1196E4CFFC91FF70F429FC933F
:101350001730B4F7E9CF280F391F60587F4F1F5F50
:10136000D0CF10E062E270E0811609F499CFDB0182
:10137000A25BBE4F50E040E04915E0F4F901E40FF4
:10138000F51FE491F0E1EF9F2001112417FF0CC03D
:101390006D0100E8C00ED11CF60100810529008313
:1013A0004F5F5F4F1196E8CFFC91F429FC93173003
:1013B000BCF7EECF280F391F60587F4F1F5FD4CF87
:1013C000DC90042D00950D210C9317300CF092CF7A
:1013D00087CF280F391F60587F4F1F5F6DCF512C6B
:1013E00002E210E0851409F45BCFA801425B5E4F76
:1013F0007A0170E060E0691590F5FD01E60FF71FD6
:101400004491E0E14E9FA001112440955095F901CF
:10141000E60FF71FF491E0E1FE9F60011124DA82EC
:10142000C98257FE11C06701F0E8CF0ED11CF6014A
:1014300040814523FA814F2BF60140836F5F7F4F38
:101440004FEFE41AF40AD7CFF701D080D422F98104
:10145000DF2AF701D082F6E0F51584F3E4CF280FF8
:10146000391FA80FB91F00581F4F5394BBCF492DE8
:1014700050E09301241B350B841B950BAC01440FEA
:10148000551F692D782D10E0D92CA0E7B1E094E02C
:10149000E92E00E1F02ECF93DF93ED01EF96EF966A
:1014A000229685904590EE2059F08F9C40014F9CEC
:1014B000200117302CF4C8805094C520C928C99247
:1014C00011233AF0CC904094C420C828CD920C94BB
:1014D0006A0A11966A9529F77A9551F06D2D139540
:1014E0001124E40FF11DA20FB11DC20FD11DD9CFE0
:1014F000DF91CF911124D4CEF999FECF92BD81BD59
:10150000F89A992780B50895262FF999FECF1FBA2A
:1015100092BD81BD20BD0FB6F894FA9AF99A0FBE1C
:1015200001960895EE0FFF1F0590F491E02D0994A8
:04153000F894FFCF5D
:10153400FFFFFFFF00E100000000000000C1808108
:101544000000000000000047026F0368025D02AE65
:0C155400026C028A02000000005A030032
:00000001FF
