:100000000C9413140C943B140C943B140C943B145C
:100010000C943B140C943B140C943B140C943B1424
:100020000C943B140C943B140C947B250C94EA2503
:100030000C943B140C943B140C943B140C943B1404
:100040000C943B140C943B140C943B140C943B14F4
:100050000C943B140C943B140C943B140C94DB2731
:100060000C943B140C943B140C943B140C943B14D4
:100070000C943B140C943B140C943B140C943B14C4
:100080000C943B140C943B140C943B140C943B14B4
:100090000C943B140C943B140C943B140C943B14A4
:1000A0000C943B140C943B140C943B140401038FEC
:1000B00080C000400000000000000000FF40404001
:1000C000404040404040404040FF40404040404071
:1000D000404040404040FF40404040404040404061
:1000E0004040400101030301010303041F08020310
:1000F000F9000F0400000000020A121A22C0020BCD
:10010000000020C1660931000000900E00000500CB
:1001100000A17B83AB00003000000801C200650035
:100120000000000040000B00000000000000000084
:100130000050000F0005000000000000000050000B
:100140001300090000000000000000100000000D76
:100150000000000000000000050501010303041F6A
:10016000101800F0F0F8F0F8F8FCF8FCFCFEFCFECB
:10017000FEFFFEFFFCFEFCFEF8FCF8FCF0F8F0F8D9
:1001800000F0006363FF7FFFFFFF9FFFE7FFF9FFC2
:10019000FFFFFFFFFFFFFFFFFFFFFFFF7FFF7FFF6F
:1001A000007F000E0C1E0C1F183F1A3F357F357F55
:1001B0006BFF6BFF357F357F1A3F183F0C1F0C1EFE
:1001C000000E00F0F0F8F0F8F8FCF8FCFCFEFCFE85
:1001D000FEFFFEFFFCFEFCFEF8FCF8FCF0F8F0F879
:1001E00000F0007F7FFF7FFFFFFFFFFFFFFFFFFFAC
:1001F000FFFFFFFFF9FFE7FF9FFFFFFF7FFF63FFA9
:100200000063000E0C1E0C1F183F1A3F357F357F10
:100210006BFF6BFF357F357F1A3F183F0C1F0C1E9D
:10022000000E00F0F0F8F0F8F8FCF8FCFCFEFCFE24
:10023000FEFFFEFF7CFE7CFE38FCB8FC10F8F0F8F8
:1002400000F0007F7FFF7FFFF9FFE7FF9FFFFFFFC9
:10025000FFFFF0FFF9FFF8FFFCFFFCFF7EFF63FFED
:100260000063000E0C1E0C1F183F1A3F357F357FB0
:100270006BFF6BFF357F357F1A3F183F0C1F0C1E3D
:10028000000E00F0F0F810F8B8FC38FC7CFE7CFEA4
:10029000FEFFFEFFFCFEFCFEF8FCF8FCF0F8F0F8B8
:1002A00000F0006363FF7EFFFCFFFCFFF8FFF9FF37
:1002B000F0FFFFFFFFFF9FFFE7FFF9FF7FFF7FFFDB
:1002C000007F000E0C1E0C1F183F1A3F357F357F34
:1002D0006BFF6BFF357F357F1A3F183F0C1F0C1EDD
:1002E000000E101800F0F0F8F0F8F8FCF8FCFCFE36
:1002F000FCFEFEFFFEFFFCFEFCFEF8FC80F800802A
:100300000000000000FFFFFFFFFF7FFFBFFF3FFF78
:10031000FFFFFFFFFFFFFFFFFFFFFFFFFFFFFFFFED
:10032000FCFF00FC000F0F1F0F1F1C3F1D3F3E7FF7
:100330003F7F7FFF7FFF3F7F3F7F1F3F1F3F0F1F9D
:100340000F1F000F00000000008080F8F8FCFCFE8A
:10035000FCFEFEFFFEFFFCFEFCFEF8FCF8FCF0F8E5
:10036000F0F800F000FCFCFFFFFFFFFFFFFFFFFFC6
:10037000FFFFFFFFFFFFFFFF3FFFBFFF7FFFFFFF0D
:10038000FFFF00FF000F0F1F0F1F1F3F1F3F3F7F8B
:100390003F7F7FFF7FFF3F7F3E7F1D3F1C3F0F1F43
:1003A0000F1F000F000000000000008080C0C0E0B0
:1003B000C0E0E0F0E0F0F0F8F0F8F8FC78FC70F85D
:1003C000F0F800F000E0E0F8F8FCFCFF7FFF7FFFB2
:1003D000FFFFFFFFFFFF41FF6CFF20FF36FF10FF15
:1003E000FFFF00FF000F0F1F0F1F1F3F1C3F3B7F32
:1003F000387F7FFF7FFF207F377F163F1A3F081F20
:100400000F1F000F00F0F0F870F878FCF8FCF0F81F
:10041000F0F8E0F0E0F0C0E0C0E080C00080000054
:100420000000000000FFFFFF10FF36FF20FF6CFF01
:1004300041FFFFFFFFFFFFFF7FFF7FFFFCFFF8FC97
:10044000E0F800E0000F0F1F081F1A3F163F377F2C
:10045000207F7FFF7FFF387F3B7F1C3F1F3F0F1FA9
:100460000F1F000F0000000000000000000000004F
:10047000000000000000000000000000000000007C
:100480000000000000E0E0F0F0F8F8FCF8FCFCFEF2
:10049000FCFEECFED4FEB4FEB4FEA8FCD8FCF0F8E2
:1004A000E0F000E00009010B031F071F073F0F3FAB
:1004B0000F3F0F3F0F3F0F3F0F3F073F071F031F28
:1004C000010B000900000000008080C0C0E0E0F0E7
:1004D000E0F060F0A0F0A0F060F0C0E080C000802C
:1004E000000000000000003F3F7F7FFFFFFFFFFF95
:1004F000FFFFFEFFF9FFF7FFF7FFF8FF7FFF3F7FEA
:10050000003F0000000000080008001C001D013F23
:10051000013F013F013F013F013F001D001C00085A
:10052000000800000000000000E0E0F8F8FCFCFE1D
:10053000FEFFE6FF1AFFF6FF0CFEF8FCE0F800E015
:1005400000000000000000000007071F1F3F3F7F62
:100550007FFF7FFF7FFF7EFF3F7F1F3F071F00075B
:10056000000000000000000000080008001C001C43
:10057000003E003E003E003E001C001C000800083B
:10058000000000000000000000000000008080C0AB
:1005900080C080C080C080C080C00080000000009B
:1005A00000000000000000FCFCFEFEFFFFFFFFFF5C
:1005B000FFFFF9FFE6FFDEFFDDFFE3FFFEFFFCFECE
:1005C00000FC0000000000080009011F031F073F96
:1005D000073F073F073F073F073F031F011F000972
:1005E0000008000000F0D0F8D0F8B0FCB0FC70FEBD
:1005F00060FEE0FFE6FF7CFE7CFEB8FCB8FCD0F8B5
:10060000D0F800F000E0A0F1A0F171FB41FFBBFFCA
:10061000BBFF76FF76FFBBFFBBFF41FF71FBA0F185
:10062000A0F100E0000F0F1F0F1F173F173F327F91
:10063000327F7DFF7DFF3E7F3E7F1F3F1F3F0F1FAD
:100640000F1F000F00F0D0F8D0F8B8FCB8FC7CFE0B
:100650007CFEE6FFE0FF60FE70FEB0FCB0FCD0F870
:10066000D0F800F000E0A0F1A0F171FB41FFBBFF6A
:10067000BBFF76FF76FFBBFFBBFF41FF71FBA0F125
:10068000A0F100E0000F0F1F0F1F1F3F1F3F3E7F15
:100690003E7F7DFF7DFF327F327F173F173F0F1F69
:1006A0000F1F000F00F0D0F8D0F8B8FCB8FC7CFEAB
:1006B0007CFECEFF0EFF0CFE1CFE98FC18FCD0F852
:1006C000D0F800F000E0A0F1A0F171FB41FFBBFF0A
:1006D000BBFF76FF76FFBBFFB8FF41FF70FBA0F1C9
:1006E000A0F100E0000F0F1F0F1F193F193F367FC9
:1006F000367F7DFF7DFF3E7F3E7F1F3F1F3F0F1FE9
:100700000F1F000F00F0D0F8D0F818FC98FC1CFE6A
:100710000CFE0EFFCEFF7CFE7CFEB8FCB8FCD0F8D1
:10072000D0F800F000E0A0F1A0F170FB41FFB8FFAD
:10073000BBFF76FF76FFBBFFBBFF41FF71FBA0F164
:10074000A0F100E0000F0F1F0F1F1F3F1F3F3E7F54
:100750003E7F7DFF7DFF367F367F193F193F0F1F9C
:100760000F1F000F081000FE00FE38FE38FE38FE96
:1007700000FE00FE000000270027022700270227B6
:10078000002700270000000000FF1CFF38FE38FE95
:1007900000FC000000000000001301270027024FAA
:1007A000004F000000000000000000FF1CFF00FCE4
:1007B000000000000000000000000013012F004FA7
:1007C00000000000000000000000000000FF00002A
:1007D000000000000000000000000000004F0000CA
:1007E0000000000000000000000000FC1CFF00FFF3
:1007F00000000000000000000000004F012F001367
:10080000000000000000000000FC38FE38FE1CFF65
:1008100000FF000000000000004F024F00270127EA
:1008200000130000000000FEFCFE3CFE3CFE3CFE0F
:10083000FCFE00FE000000270327022702270227F4
:10084000032700270000000000FFFEFF3CFEF8FE2B
:1008500000FC000000000000001301270227074FE2
:10086000004F000000000000000000FFFCFF00FC43
:10087000000000000000000000000013012F004FE6
:1008800000000000000000000000000000FF000069
:10089000000000000000000000000000004F000009
:1008A0000000000000000000000000FCFEFF00FF50
:1008B00000000000000000000000004F012F0013A6
:1008C000000000000000000000FCF8FE3CFEFEFFFF
:1008D00000FF000000000000004F074F0227012723
:1008E00000130000000000FCA8FCA8FEA0FE80FE93
:1008F00000FC00FC00000027022702270227022735
:10090000022700270000000000FE54FEA0FE00FEAB
:1009100000F8000000000000001301270227044F28
:10092000004F000000000000000000FE00FE00F884
:10093000000000000000000000000013002F004F26
:1009400000000000000000000000000000FE0000A9
:10095000000000000000000000000000004F000048
:100960000000000000000000000000F800FE00FE93
:1009700000000000000000000000004F002F0013E6
:10098000000000000000000000F800FEA0FE54FE81
:1009900000FE000000000000004F044F0227012766
:1009A0000013000000000038007C00FE08FE08FE76
:1009B000107C0038000000200020002000200020D3
:1009C0000020002000000000001C00FE08FE20FEA9
:1009D0000070000000000000001000200020004017
:1009E00000400000000000000000001C00FE00703D
:1009F0000000000000000000000000100020004087
:100A000000000000000000000000000000FE0000E8
:100A10000000000000000000000000000040000096
:100A200000000000000000000000007000FE001C3C
:100A30000000000000000000000000400020001046
:100A40000000000000000000007000FE08FE08FE2C
:100A5000001C0000000000000040004000200020BA
:100A600000100000000000FCF8FC00FCA8FCA8FC42
:100A7000F8FC00FC000000270327002702270227BC
:100A8000032700270000000000FEFCFEA8FCF0FC8D
:100A900000F8000000000000001301270227074FA4
:100AA000004F000000000000000000FEF0FE00F813
:100AB000000000000000000000000013032F004FA2
:100AC00000000000000000000000000000FE000028
:100AD000000000000000000000000000004F0000C7
:100AE0000000000000000000000000F8F0FE00FE22
:100AF00000000000000000000000004F032F001362
:100B0000000000000000000000F8F0FCA8FCFCFE63
:100B100000FE000000000000004F074F02270127E1
:100B200000130000000000F848FC48FC9CFE9CFEFE
:100B300048FC48FC00F8003F017F017F02FF02FFF4
:100B4000017F017F003F00F888FC88FC1CFE1CFE32
:100B500088FC88FC00F8003F027F027F05FF05FF4C
:100B6000027F027F003F00F808FC08FC1CFE1CFE10
:100B700008FC08FC00F8003F057F057F0AFF0AFF1C
:100B8000057F057F003F00F808FC08FC1CFE1CFEEA
:100B900008FC08FC00F8003F0A7F0A7F14FF14FFDE
:100BA0000A7F0A7F003F00F808FC08FC1CFE1CFEC0
:100BB00008FC08FC00F8003F147F147F28FF28FF82
:100BC000147F147F003F00F808FC08FC1CFE1CFE8C
:100BD00008FC08FC00F8003F287F287F50FF50FFEA
:100BE000287F287F003F007858FC5CFEBEFFBEFFD8
:100BF0005CFE58FC0078003C307E307E60FF60FF79
:100C0000307E307E003C007858FC5CFEBEFFBEFFAC
:100C10005CFE58FC0078003C307E307E60FF60FF58
:100C2000307E307E003C007858FC5CFEBEFFBEFF8C
:100C30005CFE58FC0078003C307E307E60FF60FF38
:100C4000307E307E003C007840FC40FE80FF80FF1C
:100C500040FE40FC0078003C307E307E60FF60FF4C
:100C6000307E307E003C007840FC40FE80FF80FFFC
:100C700040FE40FC0078003C307E307E60FF60FF2C
:100C8000307E307E003C007840FC40FE80FF80FFDC
:100C900040FE40FC0078003C307E307E60FF60FF0C
:100CA000307E307E003C008080C0C0E0E0F0E0F0AC
:100CB000C0E080C00080003F3D7F3D7F7BFF7BFF29
:100CC0003D7F3D7F003F008080C0C0E0E0F0E0F06D
:100CD000C0E080C00080003F3D7F3D7F7BFF7BFF09
:100CE0003D7F3D7F003F008080C0C0E0E0F0E0F04D
:100CF000C0E080C00080003F3D7F3D7F7BFF7BFFE9
:100D00003D7F3D7F003F008000C000E000F000F02C
:100D100000E000C00080003F027F027F04FF04FF6C
:100D2000027F027F003F008000C000E000F000F082
:100D300000E000C00080003F027F027F04FF04FF4C
:100D4000027F027F003F008000C000E000F000F062
:100D500000E000C00080003F027F027F04FF04FF2C
:100D6000027F027F003F171000000000000000809B
:100D700080C0C0E0C0E0E0F0E0F070F878FCB8FCC3
:100D8000BCFEDCFEEEFFECFE74FE70FC78FCF0F8BE
:100D9000F0F8E0F000E000F8F8FCFCFFFFFF1FFFB8
:100DA000EFFFF3FF3DFF1EFF0FFF07FF03FF03FFF2
:100DB00001FFFEFFFEFFFFFFFFFFFFFF00FFFFFF42
:100DC000FFFF00FF00E0E0F0F0F8F0F878FC70FCC6
:100DD00074FEECFEEEFFDCFEBCFEB8FC78FC70F8A6
:100DE000E0F0E0F0C0E0C0E080C000800000000063
:100DF000000000FFFFFFFFFF00FFFFFFFFFFFFFFFF
:100E0000FEFFFEFF01FF03FF03FF07FF0FFF1EFFB3
:100E10003DFFF3FFEFFF1FFFFFFFFCFFF8FC00F8B3
:100E2000000000000000008080C0C0E0C0E0E0F0F2
:100E3000E0F070F878FCB8FCBCFEDCFEEEFFECFEE7
:100E400074FE70FC78FCF0F8F0F8E0F000E000F8D8
:100E5000F8FCFCFFFFFF1FFFEFFFF3FF3DFF1E3F0E
:100E60000F1F070F0307030701FFFEFFFEFFFFFF32
:100E7000FFFFFFFF00FFFFFFFFFF00FF00E0E0F0CC
:100E8000F0F8F0F878FC70FC74FEECFEEEFFDCFE8F
:100E9000BCFEB8FC78FC70F8E0F0E0F0C0E0C0E028
:100EA00080C0008000000000000000FFFFFFFFFF87
:100EB00000FFFFFFFFFFFFFFFEFFFEFF01FF030735
:100EC0000307070F0F1F1E3F3DFFF3FFEFFF1FFF3D
:100ED000FFFFFCFFF8FC00F80F2000FF00FF00FF01
:100EE00000FF00FF00FFFFFF8FFF4FFF1FFFFFFF0F
:100EF00000FFFFFFFFFF00FF00FF00FF00FF00FFFC
:100F000000FF00FFFFFFFFFFFFFFFFFFFFFF00FFEE
:100F1000FFFFFFFF00FF80FFC0FFC0FFE0FFE0FF1B
:100F2000F0FFF7FFEFFFEFFF5FFF5FFF007F3F7F07
:100F30001F3F003F0F1F070F070F030703070103A2
:100F4000010300010001000000000000000000009B
:100F5000000000FFFFFFFFFF00FFFFFF1FFF4FFF2D
:100F60008FFFFFFF00FF00FF00FF00FF00FF00FFFB
:100F700000FFFFFFFFFF00FFFFFFFFFFFFFFFFFF7F
:100F8000FFFF00FF00FF00FF00FF00FF00FF003F2A
:100F90001F3F3F7F007F5FFF5FFFEFFFEFFFF7FF28
:100FA000F0FFE0FFE0FFC0FFC0FF80FF0000000097
:100FB0000000000000000000000100010103010327
:100FC00003070307070F070F0F1F000000000000B3
:100FD0000000000000FFFFFF8FFF4FFF1FFFFFFF1C
:100FE00000FFFFFFFFFF00FF000000000000000007
:100FF000000000FFFFFFFFFFFFFFFFFFFFFF00FFFD
:10100000FFFFFFFF00FF80C0C0E0C0E0E0F0E0F0C5
:10101000F0FFF7FFEFFFEFFF5FFF5FFF007F3F7F16
:101020001F3F003F0F1F070F070F030703070103B1
:1010300001030001000100000000000000000000AA
:10104000000000FFFFFFFFFF00FFFFFF1FFF4FFF3C
:101050008FFFFFFF00FF0000000000000000000005
:1010600000FFFFFFFFFF00FFFFFFFFFFFFFFFFFF8E
:10107000FFFF00FF00000000000000000000003F34
:101080001F3F3F7F007F5FFF5FFFEFFFEFFFF7FF37
:10109000F0FFE0F0E0F0C0E0C0E080C00000000041
:1010A0000000000000000000000100010103010336
:1010B00003070307070F070F0F1F0820FDFFFCFFA3
:1010C000FEFF7CFF00FFFFFFFFFF00FF03FF7BFF32
:1010D0007CFFFEFF00FFFFFFFFFF00FF7FFF3EFFE3
:1010E000DEFFC0FF00FFFFFFFFFF00FF3EFF7FFFAF
:1010F0003FFF3F7F007F1F3F1F3F001F00FFFFFF9D
:10110000FFFF00FF7DFFFEFFFCFFFDFF00FFFFFF75
:10111000FFFF00FFFEFF7CFF7BFF03FF00FFFFFFE1
:10112000FFFF00FFC0FFDEFF3EFF7FFF001F1F3FEE
:101130001F3F003FBFFF3FFF7FFF3EFF00FFFFFF5E
:10114000FFFFFFFF00FFFFFFFFFF00FF00FFFFFFAC
:10115000FFFFFFFF00FFFFFFFFFF00FF00FFFFFF9C
:10116000FFFFFFFF00FFFFFFFFFF00FF0007070F6C
:10117000070F0F1F003F1F3F1F3F001F00FFFFFF14
:10118000FFFF00FFFFFFFFFFFFFF00FF00FFFFFF6C
:10119000FFFF00FFFFFFFFFFFFFF00FF00FFFFFF5C
:1011A000FFFF00FFFFFFFFFFFFFF00FF001F1F3FCC
:1011B0001F3F003F0F1F070F070F00070A20808007
:1011C000000050500000A8A80000000000AA000085
:1011D0000055AAAA000055550000AAAA0000000068
:1011E00000AA00200055AAAA000055550000AAAA8E
:1011F0000000000000AA000000550A0A00000505D2
:101200000000020200000000000A00000005005576
:10121000000000AA00000000A8A800005050000034
:1012200080800055002000AA00000000AAAA00004B
:1012300055550000AAAA0055000000AA00000000B1
:10124000AAAA000055550000AAAA00050000000A3D
:101250000000000002020000050500000A0A00006C
:101260000040000000A0000000000000000000009E
:10127000000000000055000000AA0000000000006F
:1012800000000020000000000055000000AA00003F
:101290000000000000000000000000000005000049
:1012A000000200000000000000000000000000003C
:1012B0000000000000000000000000A80000004046
:1012C000000000000020000000000000000000AA54
:1012D00000000055000000000000000000000000B9
:1012E000000000AA000000550000000000000000FF
:1012F00000000000000000020000000500000A28B5
:101300002040402090CCE2FAF9FD9FEFE0F0E7E7C3
:101310000F07F7F93F1FDFE7F3FDFCFE7CBCF0F899
:10132000F3F307037B7CFE7F0F030106020300003B
:101330000000FDF9FAE2CC9020404020F9F7070FB9
:10134000E7E7F0E0EF9FBC7CFEFCFDF3E7DF1F3F2B
:101350007FFE7C7B0307F3F3F8F00000000003023C
:101360000601030F1610000000000000000000003E
:10137000000080808080C0C0C0C0E0E0E0E0C0C06D
:10138000C0C08080808000000000000000000000DD
:101390000000040404040E0E0E0E1F1F1F1F3F3F0B
:1013A0003F3F7F7F7F7FFFFFFFFF7F7F7F7F3F3F4D
:1013B0003F3F1F1F1F1F0E0E0E0E040404040000EB
:1013C000000000F0E0F010F8D0F838FCB8FC7CFE2B
:1013D0007CFEFEFFFEFF7CFE7CFEB8FCB8FC50F8F5
:1013E00050F8A0F000F0000000000000000000072E
:1013F0000307000F070F001F0F1F003F1F3F007F55
:101400002A7F153F153F0A1F0A1F050F050F020708
:10141000000700000000F0F008F8D0F0A0E040C0A5
:10142000FEFE01FFC6FE38F806FEF9FFC6FE38F8DC
:1014300070F08CFC02FEFCFCC0C030F0CCFC02FE64
:10144000FCFC04040707080F0F0F1E1F1D1F203F81
:101450003F3F7C7F437FFFFF8FFF717F7E7F3F3F5A
:10146000203F1B1F1C1F0F0F080F0707040400005D
:1014700000000000808040C020E010F008F804FC6C
:1014800002FEABFF55FF02FE04FC08F810F020E05E
:1014900040C0808000000000000004040606090F20
:1014A000080F101F101F203F203F407F407FAAFFE2
:1014B000D5FF407F407F203F203F101F101F080FA7
:1014C000090F060604040000000000000000008070
:1014D000008000C080C000E0C0E000E0E0E000E08C
:1014E000C0E000C080C0008000800000000000005C
:1014F0000000000E040E001F0E1F003F1F3F207F44
:101500002F7F70FF77FFF8FFFBFF70FF77FF207FD3
:101510002F7F003F1F3F001F0E1F000E040EC01E36
:10152000BD1E5F1E4A1E351E201E0B1EF61DF51D1C
:10153000C31E011CF41BE71BDA1BCD1BC01BB31B16
:10154000A61B991B8C1B7F1B721B651B581B4B1BFF
:101550003E1B311B021C03081F111F121F101D15FB
:101560001711151F07041F17151D1F151D01011F3A
:101570001F151F17151F03087F417F427F407949C0
:101580004F41497F0F087F4F49797F497901017F9A
:101590007F497F4F497F050800007E00007D7D0068
:1015A000007F06067670707676760000F0F0F70021
:1015B0000070707606060000760606FEFEFE00004D
:1015C000000076000070707600000508FEFFFFFF47
:1015D000FEFEBFBFBFFEFEAFAFAFFEFEABABABFECE
:1015E00007081F11151511111F07081F19191F1FB3
:1015F0001F1F05080E1F1D190E020800FFFFFF5DCB
:101600000880BE8888BE80BEAAAAA280BEA0AFAF56
:1016100080BE8AEAEEE0FFFFFF80BE8AEAEE80BE6F
:10162000A0AFAF80BE9292BE80EE88B88EE0FFFF82
:10163000FF88A2BEA280BE84C990BE80BE8AEAE2B4
:1016400080BEA2A2BE80FFFFFF80BEA2A280BEA27B
:10165000A2BE80BE84C990BE80BE8AEAE2F8FFFFC7
:10166000FFFFFFFFFFFFFFFFFFFFFFFF80AEAAAA04
:10167000BA80BEA2A2BE80BEA0A0BE80BE84C99019
:10168000BE80BEA2A29CC1FFFFFFFFFF80BEA2A240
:10169000BE80BE8AEAE280BE8AEAE2F8FFFFFFFF70
:1016A000FF80BEA2A2BE80BE848890BE80FFFFFFE6
:1016B000FFFFFFFFFFFFFFFFFFFFFF804000000075
:1016C000000000000000000000000000000000001A
:1016D0000000000000C0603058CC647266ECD8B0E6
:1016E00060C0E038C8EC7474747474747474747486
:1016F000E4ECECE8E8D8D090B0206040C0808000F6
:1017000000008020202020202020202020202020B9
:1017100020202020800000000000000000000000C9
:1017200000000000000000000000000000000000B9
:1017300000000000000000000000000000000000A9
:101740000000000000000000000000000000000099
:1017500080C0406020A0B19B9E8C2E73F87F3F9F7D
:10176000DE04F00EE3FC3E1F0F2F2F2F5F3FFFFE26
:10177000FEFE7E7C3DBDB97BFBF7F7E6EE0CFD3B44
:1017800082F6ECE8DAB262CA82028282828282AA9D
:1017900082AA00002A800000000000000000000073
:1017A00000A0080888888888888888888888888829
:1017B0008888080808A000000000000000000080E1
:1017C000E030C8ECE4F4F6767676746448D8D8EC69
:1017D000E7F0FA7B3B93C79FBF3F4FE03E03017C9E
:1017E00083387F70E7EFEFEFCFDEDEDEDEDE9FBF18
:1017F000BFBCBC7C7C78787370FF7F1FC3388FE0E0
:10180000FFFFFFFFFFFFFF7C81FE380000000000AC
:1018100000802008A8AA28282828A828282828A83E
:10182000088A280A08A08A8080808080808080AA18
:101830008080AA0000AA0000000000000080807FD5
:10184000C01E7FFFFFE1CC9EB3A1A1B192DCC1FF1E
:10185000FF83FCB8E79F7FFFFFFFFEFDFAFA3A899E
:10186000E5E6E8CEDEDEDEDDBDBDBD797B7BFBF3EC
:10187000F77767EFEFEFCF5F5E5E5E4F617C7F478C
:101880007379FDFDFDFD7D787B7A7A7A7274E4C808
:1018900090B2C0888A20202020222220202802A066
:1018A00028020000000228A08000000000000000C4
:1018B0000000000000AA00808080808080808080FE
:1018C0008103F2FE05F5F7FBFBFBFBFDFDFDCDCE35
:1018D000E666666666680FECF5FBFBFDFDFDEDCD8B
:1018E000CD8D8B37C7FBFDFDFEFEFEFF03E7E6CE89
:1018F0009E9DC23EDAE5F6F7F7F3F37373FFFFFF41
:10190000FFFFFEFEF900FFFFFFFFFFFFFF0FE626D0
:10191000C6FEFEFEFEFDFAF408D0E8F4FAFAFAFA82
:10192000FA1AFAFAF4E8907088F6F4F4E8E8E8E8CD
:10193000D0A0A0A0A0AAA04080008080802020206D
:101940002020231FFEE11FFFFFFFFFFFFFFFFFE03F
:101950001C6642424242A7AC3BD3C7CFCFDFFFFF5A
:10196000FF7F7FFE19171F1FDFDFBF3FF0B7FB1D93
:101970001E1E11D05FDFBF7FFFBFFF3C3C1FDFDFBC
:10198000BF3FFFBFFD101F1F1FFFFF1F1F1C1BD8E6
:10199000DFBF3FFF9FCFCF63F0CF3F7FFFFFFFFF52
:1019A000C7C6C7E7777703F0FFFFFFFFFFFFFF071B
:1019B000F3190919131313180F20202020A2A2A233
:1019C000A2A2A2A2A18F3EF1CFCFCFCF4FC7A7A790
:1019D000A6A7B3B3B3B3B3B9A9ACA4A4A4A4A4A455
:1019E000A4A6A2FF80808080BFB2DBCFF0BFFF80C3
:1019F000808080F7CE8CB7F8AFBFF0C0C080BFB298
:101A0000DBCFF0AFFF80808080FFFF80808080BFD1
:101A1000B4DBCFF0BFA2A2A2A2A3A3A2A4A4A4A4B9
:101A2000A4A4A4A4A2AEB0B3B3A7A7A7A727B89FA6
:101A3000A7A0A2A2A2A2A2A2A2A2A2A2A2AAAAAA6B
:101A4000AAAAAAAAAAAAAAAAAAAAA8873CFF000088
:101A50000000000000000000000000000000000086
:101A60000000000000000000000000000000000076
:101A70000000000000000000000000000000000066
:101A80000000000000000000000000000000000056
:101A90000000000000000000000000000000000046
:101AA00000000000000000000000000FA0AAAAAA89
:101AB000AAAAAAAAAAAAAAAAAAAAAAAAAA3C380010
:101AC0000000000080F8FE0FE3FB1B0B0B8BFBF309
:101AD000F7F6F6F60606ECECECECECECECECECECE9
:101AE000ECECECECEEE6F6F6F6F7F3FBFBCBCBFB1F
:101AF000E30FFEF8801E332121339E00000080F8A2
:101B0000FF0FE0F8F9F9F9F9F9F9F9F1F3F3F3F363
:101B1000F0F0FFFFFFFFFFFFFFFFFFFFFFFFFFFFF3
:101B2000FFFFFFFFFFFFFFFFFFFFFF7F7FFEE00FD5
:101B3000FFF880060600000000000F3FF0C6070413
:101B400004070707070707070707070707FFFFFF40
:101B5000FFFFFFFFFFFFFFFFFFFFFFFFFF0707077D
:101B60000707078787070726860707C6F03F1F0076
:101B7000808000000000000000030784C4E4E4E467
:101B8000E4E4E4E4E4C49C000FE7E7E7E7E7E7E721
:101B9000E7E7E7C7870F1F0FC7E7E0ECE4E4E4E5FA
:101BA000E5E4C4040404070300C040C303110000BB
:101BB00000000000000000FFFFFFFFFF393939FF80
:101BC000FFFF0FE0E0EFEF0FFFFF183879FFFFF79F
:101BD00003E0E0EFEF0FFFF9F0F0FCFDFDFD0DEC91
:101BE000E0E0E00000012101000000000080C06092
:101BF0002060C080000000000C0C007EFE803C3E97
:101C00001C1C1C1C1C0C0C0E0C0C0C0C0E1E1C1C8E
:101C10001C1C3C3E80FE7E00000000C0E0E0C000D6
:101C2000000000030300000E1B3166C680D0603147
:101C30001B0E00003828380001471E3820202020C5
:101C4000301010D0D0101090103020202020381EDE
:101C5000070100000606000001010000000000006E
:101C60000000004040FFFFFF0707E7E7676767677F
:101C70006767E7E70707FFFF9F9FFFFF8787FFFF74
:101C80006767E7E7FFFF9F9F67679F9FE7E76767D4
:101C9000E7E7FFFF0707E7E7676767676767E7E764
:101CA0000707FFFFFFFFFFFF00007F7F60606060AE
:101CB00060607F7F0000FFFF1919818179799F9F04
:101CC0001818F9F901019F9F7E7E81816161E6E626
:101CD0000101FFFF00007F7F6060606060607F7FC8
:101CE0000000FFFFFFFFFFFF66666666868686864A
:101CF00086861E1E666607076666E1E11818E1E142
:101D00009E9E8787666679791818E7E79E9E81818F
:101D1000989887879E9E86861E1EE6E6FEFEE6E66D
:101D20009E9EFFFFFFFFFFFF98988686616181817D
:101D3000FFFFE0E06666E6E6E0E08787E6E67F7FB5
:101D400061618787606060601E1E67677F7F818139
:101D500079791F1F9F9F81819898E7E70707F9F915
:101D60009F9FFFFFFFFFFFFF0707E7E7606019196D
:101D70006767676766666161E7E799990707E0E06B
:101D80009E9E1F1F7E7E6060808066661E1E9999E3
:101D900098989E9E1F1F79799F9F1F1F0606F9F92D
:101DA0009F9FFFFFFFFFFFFF60607F7F7E7E606081
:101DB000787878786666FEFE1F1F999980807F7F0D
:101DC0006161F8F8E6E67E7E1919E6E69E9E19192D
:101DD0000707E7E76666E0E001011E1E060681814F
:101DE0008787FFFFFFFFFFFF0000FEFE06060606D7
:101DF0000606FEFE0000FFFF060687876161E0E041
:101E00009E9E1F1F191960601E1E878781819898EA
:101E1000E0E007076666070760600000666601018C
:101E20008787FFFFFFFFFFFFE0E0E7E7E6E6E6E684
:101E3000E6E6E7E7E0E0FFFFE0E0F9F9E6E6FFFFCE
:101E4000E1E1F8F8E6E6F8F8F8F8E7E7FFFFE7E79A
:101E5000F9F9FEFEF8F8E0E0E6E6E0E0E6E6F8F89C
:101E6000FFFFFFFFFF6018000000000000000000FF
:101E70000000000000000000000000000000007FE3
:101E8000415D55577F416D6D517F4155555D7F4196
:101E90006D6D417F057D417D057F4155555D7F41DC
:101EA0005D5D633E007F415D55497F117747711F3E
:101EB0000000000000000000000000000000000022
:101EC000000000000000000000000000007F416DE5
:101ED0006D417F007F4175151D7F417F51555545EF
:101EE0007F417777417F007F415D55577F416D6D21
:101EF000417F415F50507F415F50507F4155555D5C
:101F00007F415D5D633E007F415F685F417F416D62
:101F10006D417F417B77417F415D5D637F416D6DA9
:101F2000417F0000000000007F416D6D417F417BDB
:101F300077417F415D5D633E007F417D137D417F41
:101F4000416D6D417F417B77417F117747711F0064
:101F50007F417D137D417F416D6D417F417B7741A5
:101F60007F117747711F007F415D5D417F057D4196
:101F70007D057F417777417F4155555D7F416D6D8F
:101F8000517F515555457F0308007F3E7F007F807C
:101F90004000000000000000000000000000000001
:101FA000000000000000000000008080C0C0406011
:101FB0006020B0B0D0D8D8D8D8D8581898D8D8D8A9
:101FC000D8D8B0B0B0706060C0C0808000000000A1
:101FD00000000000000000000000000000000040C1
:101FE00040404040101010101050501010101010B1
:101FF0005000000000000000000000000000000091
:1020000000000000000000000000000000000000D0
:1020100000000000000000000000000000000000C0
:1020200000000000000080F03C87F3FDFCFEFEFF96
:10203000FFFFFFFFFFFF7F8FE3790EE3FDFEDE5D15
:102040005D1B9BFBFBF7F7E6EEECCDDDD99B3BFA86
:10205000E60CF8E0005404044414111111111104A9
:102060000444444441010550400001144000000074
:1020700000010504104040000000000000000000C6
:102080000000000000000000000000000000000050
:102090000000000000000000000000000000000040
:1020A000000000C0F83EC3FCFEFFFFFF1FDFDFDFC4
:1020B000DF9F3FFFFF1FC0FFC3D8DF9FBDB93A7A44
:1020C0007B7BFFFFCFCEC6D6DABCFCFF1FC1FC0F67
:1020D000E17C070100011440015440011115111069
:1020E00040404445444410101114000001144000C5
:1020F00000000000000000010104040010101000A6
:10210000404000000000000000000000000000004F
:1021100000808080808080808080808080808000BF
:1021200080F07F8FF1FCFFFFFFFFFFF0877FFFFF55
:10213000FFFFFEC11CBEBEBCBD7D797B7BF3F7F704
:10214000E7EFEECEDEDDDDDDD99BBB39BC9FC07F86
:1021500007808080808080154000014141414141DD
:102160001010101010100404040414400000055056
:10217000000000000000000000000000000000005F
:10218000000550400080808080808080808080803A
:10219000808080808080808080800000008080F847
:1021A0009FC1FCFF7F7F7F7F7F7F7F7FFFF8E31FE3
:1021B000FFFFFFFFF08FFFFFFF7F7F7F7F7E7EFEB1
:1021C000FEFDFD7D7D7B7BBBBBA7B07EF147BCA048
:1021D000A0A0A0A0A0A060E0D54040415440404055
:1021E0004040C0C0808080808080808194808085D5
:1021F000540000000000000000000000008080800B
:1022000080808081849040000080808080808080F9
:10221000802020202020202020007EFFC33DFDFEC6
:10222000FEFEFEFEFFFFE313F3F313E7E64EBDFBF6
:10223000047FA7DBDDFEEEE6E6E7E7FFFFFFFFFE3C
:10224000FEFDF201FFFFFFFFFFFFFF00FF00FFFFAA
:10225000FFFFFFFFFFFF009D7EFFFFFFFFFFFBFB78
:10226000F3E7C609F7FBFDFEFEFEFE8EE6FEFDFD72
:10227000F30F1EECF6F6FAFAFAFA3A9A3BF3FDFE81
:10228000FEFEFEFEFD7D83FFFE002020202020209C
:1022900020A2A2A2A2A2A2A2A2A2A007FFFC837FC8
:1022A000FFFFFFFFFFFFFFF837373B9B9D4E4F338C
:1022B0003C70CF9F3F7F7F7F3FDCE8ED2F2F2F2F9C
:1022C0002FEF2F20272F2FEF2F2F2F2C2BE82F2F03
:1022D0002F2F2FEF2F2F202D2CE8292B2F2F2FEFF3
:1022E0002F2F2F2027EFEFDF3F7F7F713131399D77
:1022F000CDF0C73F7FFFFFFFFFCFD0DFE0FFFFFF45
:10230000FFFFFFFF07F8FF0FA0A2A2A2A2A2A2A2B6
:10231000A2AAAAAAAAAAAAAAAAAAAAAAA08F9FB847
:10232000A7A7B393939389A9A6A7A3A8AAAAAAAA81
:10233000AAAAA8A9A9AAAAAA80BF7F7F4040404014
:10234000407F40404040407F40404040407F4040D0
:102350004040407F40404040407F40404040407FC0
:1023600040404040407F7FBF80AAAAAAA9A9A9A84F
:10237000AAA8A9ABA2A4A4A4A9A9A9AC8993939340
:10238000939397989F8FA1A8AAAAAAAAAAAAAAAA31
:10239000AA804000000000000000000000000000D3
:1023A00000000000500404040444444444444444F1
:1023B0004444444444444444444444040404946031
:1023C00010C8E8E4F4F4F4F4F6F2FAFAFAFAFAFAD5
:1023D000FAFAFAFAFAFAFAFAFAFAFAFAFAFAFAFA5D
:1023E000FAFAFAFAF2F6F4C810E000101010101021
:1023F00010101010101010101010101010101040AD
:1024000000000000000000000000000000000000CC
:102410000000000000000000500404444444444410
:102420004444045005000050050000540000000022
:1024300000000000000000005400001500FF01E64D
:10244000F30B050505258585050506060E8E8E2EE2
:102450000E0E0E06060606060606268686060606E4
:1024600006A62606060EFCFDFB00FF000151010139
:102470000101010101010101510101544000005518
:102480000044444444444444444444040404500048
:10249000000000000000005401005540444040404E
:1024A0004040005500000005040404040404040432
:1024B00004040404040404040404040400FF00FFEE
:1024C000FFE0000000002020000A0A0A222000008D
:1024D00000000000000000000000200808020202C6
:1024E0000808200000FEFFFF1FC0FF0010111010A1
:1024F0001010101010101010111010101500000006
:102500005500444040404040404440550000550084
:102510000000008080000055000050040404040402
:102520000404500500005401010181C161B1B1D919
:10253000D9E96969696969E9D9D9B171E0CFFC81E3
:1025400077B7B7D7D6D6D6D6D6D6D6D6D6B67A1AFF
:10255000EAEAEAEAEAEAEAEADADAD6D6D6D6D6D673
:10256000D6D6B7B7B7B3DBDBD0BFA1A464C4C484ED
:1025700084848484848484848484040404500000D7
:102580005500040404040404040404045000015429
:102590000080808080809580808095808080808091
:1025A0008000550000005500F89E63FCFFFFFFFF10
:1025B000FFFFFC820E6E6E7434B1B1B4B78F8FB46E
:1025C0007B7BFDFDFCFC1C39FFFFFF7F7FFFFF00D5
:1025D000FFFFFFFFFFFF7FFF00FC00FFFFFFFFFF8C
:1025E000FFFF7F81F900FFFFFFFFFFFFFF3E01FBC1
:1025F000FDFDFEFEFEFE9EE6FEFEFDF30EF8000073
:1026000000550080808080808080808095808095CB
:10261000808080202020202020202020202020209A
:102620002020252020202020212F1C3367CF9F9F92
:102630003F3F1FE7F8FCFEFFFFFFFFE119F9B97309
:1026400063C7CE1CFAE60E3E7EFEFEFFFFFEFDF8DF
:10265000E3C7E7F33D9EE702F0FBFCFEFEFEFE8EC5
:10266000E6FEFCFDF9C007FBFDFDFDFDFDFCF87776
:10267000373737777773013139399BC37C0F202087
:102680002025202020202020202020202020202045
:10269000202020A2A2A2A2A2A2A2A2A2A2A2A2A2A0
:1026A000A2A2A2A2A2A2A2A2A2A2A2A2A2A2A2A10B
:1026B000A19F78E79F3F3F7F7FFF3FDFE8E72F2C19
:1026C0002E2729EE2F232C2F26EC2923272F2FEF1F
:1026D0002F27292C27E32F28272F2FEF2F2F2F21CC
:1026E00021E1292D2D2128EFEFDF3FFFFF7F81FE24
:1026F00007A3A3A2A2A2A3A1A1A1A1A2A2A2A2A256
:10270000A2A2A2A2A2A2A2A2A2A2A2A2A2A2A2A2A9
:10271000A2A2A2AAAAAAAAAAAAAAAAAAAAAAAAAA31
:10272000AAAAAAAAAAAAAAAAAAAAAAAAAAAAAAAA09
:10273000AAAAAAAAA9A9ABAAA6A480BF7F7F404043
:102740004040407F40404040407F40404040407FCC
:1027500040404040407F40404040407F40404040FB
:10276000407F40404040407F7F3F80A9A9AEA7A95D
:10277000AAAAAAAAAAAAAAAAAAAAAAAAAAAAAAAAB9
:10278000AAAAAAAAAAAAAAAAAAAAAAAAAAAAAAAAA9
:10279000AAAAAA080B000202020100090400000113
:1027A0000202000005240010010524010101042497
:1027B00002060524060001070581031000400904F4
:1027C0000100020A000000070502024000000705A0
:1027D00083024000000403090412010002EF020119
:1027E0004041233680000101020301417264756992
:1027F0006E6F204C4C430041726475626F7900D556
:10280000F08D14A1C881CFD9F1AF2000331A5C1A22
:10281000211AEA180F1A07200C22F221C21C4221A9
:102820002121801C402811241FBECFEFDAE0DEBF3B
:10283000CDBF11E0A0E0B1E0EAECF3E502C0059005
:102840000D92A233B107D9F726E0A2E3B1E001C0AF
:102850001D92A53CB207E1F714E1C3E1D4E104C045
:102860002197FE010E94D629C231D107C9F70E94E3
:102870006C280C94E3290C9400006F927F928F9245
:102880009F92AF92BF92CF92DF92EF92FF920F93FF
:102890001F93CF93DF937C01B0E0A0E0FA01802F7B
:1028A00090E0C590B590211511F49115B1F047E075
:1028B0004B0D479546954695833009F4440F4C9D42
:1028C000A001249FE00DF11D259FF00D109629F029
:1028D000949FA00DB11D959FB00D11248F3F21F441
:1028E000109682E009F081E0CC2DD0E0A7014C0FDA
:1028F0005D1F141615060CF06FC090E8E916F10480
:102900000CF06AC09B012B0D311D121613060CF042
:1029100063C0603471050CF05FC0309709F45CC08F
:10292000362F37708B0177FF02C0095F1F4F93E08E
:10293000159507959A95E1F7202F77FF04C033236B
:1029400011F02FEF200F002711270E191F09F7FC98
:1029500002C010E000E090E89E19403851050CF4E8
:102960009C2D901B422F022E000C550BA42EA094E0
:102970002F3F0CF0A12CDD24D3946B2D677009F44C
:10298000D12CB694B694B694DB0C4D0D511D493044
:1029900051051CF048E0D42ED21ADA182A0D40E86E
:1029A0002403B00111246E0D7F1D600F711FCA9C9E
:1029B000000D111D1124AF01400F511FE32E032EF6
:1029C000000CFF08833009F410C1A8F4813009F429
:1029D000C3C0823009F471C0DF91CF911F910F9174
:1029E000FF90EF90DF90CF90BF90AF909F908F902F
:1029F0007F906F9008958A3F91F1BD2CB20E8B3F6E
:102A000059F72B1549F3DB01A65CBD4F10E000E040
:102A1000091708F09BC0FA01E00FF11FE491F0E004
:102A20000E2C02C0EE0FFF1F0A94E2F727FD05C02F
:102A30008C91DE2ED0948D218C93332361F027303E
:102A400054F46D0180E8C80ED11CAF2EA094F6019D
:102A500080818A2180830F5F1F4F1196D9CFBD2CB3
:102A6000B20E2B1509F4B8CFDB01A65CBD4F10E008
:102A700000E0091708F064C0FA01E00FF11FE491CB
:102A8000F0E04F010E2C02C0880C991C0A94E2F76A
:102A900027FD03C08C9188298C93332351F0273074
:102AA00044F46D0180E8C80ED11CF60180818929AB
:102AB00080830F5F1F4F1196DCCFAFEFB0E0032E86
:102AC00002C0AA0FBB1F0A94E2F7A095B0959B2EF7
:102AD0008D2C820E281509F47FCF8B01065C1D4FCB
:102AE000D12CC12CC91630F5FA01EC0DFD1DE49175
:102AF000F0E03F010E2C02C0660C771C0A94E2F74E
:102B000027FD05C0F80180818A238629808333232D
:102B100059F027304CF45801F0E8AF0EB11CF50124
:102B20008081892187298083FFEFCF1ADF0A0F5F19
:102B30001F4FD8CF2F5F4C0F5D1F60587F4FCACFFC
:102B40002F5F4C0F5D1F60587F4F8BCF2F5F4C0F57
:102B50005D1F60587F4F55CFA00FB11F8D2D820F85
:102B6000281709F439CF8B01065C1D4FD12CC12CDD
:102B7000C91698F5FD01EC0DFD1DA490B12C0E2C8D
:102B800002C0AA0CBB1C0A94E2F7A094B094FA010C
:102B9000EC0DFD1D8490912C0E2C02C0880C991C0C
:102BA0000A94E2F727FD08C0F8017080E72DEA21BA
:102BB0007E2E7828F8017082332349F027303CF4C8
:102BC000F801E058FF4FA080BA20B928B082FFEF8B
:102BD000CF1ADF0A0F5F1F4FCBCF2F5F4C0F5D1F48
:102BE000AC0FBD1F60587F4FBBCFE92EF12CFA010F
:102BF000E00FF11FDB01A65CBD4F00E810E00E19ED
:102C00001F09CE19DF09BE01660F771F41E050E0B2
:102C10007A01032E01C0EE0C0A94EAF7592F4D2DCC
:102C2000892E932ECF93DF93ED01EF96EF962296A8
:102C3000A590C590992059F0AE9C5001CE9C6001A2
:102C400027302CF4F880D094FD20FB28F992222321
:102C50003AF0FC90C094FC20FA28FD920C943116B6
:102C600011965A9529F74A9551F0582D239511241C
:102C7000E60FF11DA00FB11DC00FD11DD9CFDF91FF
:102C8000CF911124A9CE9091C006982329F4909158
:102C9000BF06982381E009F480E008958130A9F00F
:102CA00028F0823019F1833059F1089586E0689F49
:102CB000F0011124E657F94F8281938101979383A4
:102CC00082838081918102970EC086E0689FF00127
:102CD0001124E657F94F8281938101979383828370
:102CE00080819181029691838083089586E0689F18
:102CF000F0011124E657F94F828193810196EECFBE
:102D000086E0689FF0011124E657F94F8281938194
:102D10000196D5CFFC0180915F01882311F13FB767
:102D2000F89482E08093E9002091F200822F90E0F5
:102D30001816190614F481E090E0882339F02898D9
:102D400044E640935E014091F1004083222339F034
:102D50002091F200211103C02BE62093E8003FBF31
:102D600008958FEF9FEF08952FB7F89483E0809335
:102D7000E9009091E800892F807295FF04C090913E
:102D8000F20080E4891B2FBF0895809156018111C4
:102D90000DC082E08093520184E080935301109231
:102DA00055011092540181E08093560182E591E033
:102DB000089540914701509148012091450130917B
:102DC000460142175307B4F49091E8009570E1F37F
:102DD0009091E80092FD19C08093F1008091470125
:102DE0009091480101968F739927892B19F48EEFE2
:102DF0008093E8008091470190914801019690935B
:102E000048018093470181E0089580E00895EF92A2
:102E1000FF920F931F93CF93DF93F82E192FE62E77
:102E2000042F81E0860F880F0E94D91683E00E944C
:102E3000D916CF2DD12FEC0EFD2EF11CCE15DF05AE
:102E4000B9F007FF13C0FE0184910E94D916182F14
:102E500080E00E94D916812321968111EFCFDF9166
:102E6000CF911F910F91FF90EF9008958881EDCF42
:102E700081E0F5CFDF92EF92FF920F931F93CF93F4
:102E8000DF93D82E8A01EB017B01E40EF51ECE15EF
:102E9000DF0559F0D7FE12C0FE0184910E94D916B9
:102EA00021968111F4CF0FEF1FEFC801DF91CF9171
:102EB0001F910F91FF90EF90DF9008958881EECFE2
:102EC0000F931F93CF93DF931F92CDB7DEB782E0AE
:102ED000898342E450E063E977E280E80E943A1790
:102EE0000E94C516DC0112960D911C910115110569
:102EF00089F0D801ED91FC910280F381E02DBE01B3
:102F00006F5F7F4FC801099597FD04C0F8010085E8
:102F10001185ECCF89810F90DF91CF911F910F9197
:102F20000895615030F02091F100FC01208301965A
:102F3000F8CF289884E680935E010895CF93DF93BD
:102F40001F92CDB7DEB76983DC01ED91FC91028061
:102F5000F381E02D41E050E0BE016F5F7F4F0995A6
:102F60000F90DF91CF91089583E08093E9008091E5
:102F7000F200882319F08AE38093E80008950E9404
:102F8000B41690E00895CF93DF931F92CDB7DEB7CC
:102F9000FC018485958597FD08C02FEF3FEF3587AD
:102FA00024870F90DF91CF910895CE0101960E9462
:102FB0008A16019719F4898190E0F3CF8FEF9FEF84
:102FC000F0CF0F931F93CF93DF931F92CDB7DEB750
:102FD0008C01FC018485958597FF0BC0CE0101967D
:102FE0000E948A16019771F4898190E0F801958713
:102FF0008487F801848595850F90DF91CF911F918B
:103000000F9108958FEF9FEFF1CFFC018485958597
:1030100097FD0BC09FB7F89482E08093E900809100
:10302000F2009FBF90E0019608959FB7F89482E068
:103030008093E9008091F2009FBF90E00895FC0129
:103040000E94BA18319728F068517C4F8F4F9F4FDC
:10305000F9CFAB01FC010E94BA18641775078E07FF
:103060009F07C8F3089585E090E00C941F188F9295
:103070009F92AF92BF92CF92DF92EF92FF920F9307
:103080001F93CF93DF936C017B018A0180910E0126
:10309000882309F45AC080915F01882309F455C040
:1030A00080914B0180FF05C08091E0008260809399
:1030B000E000E801B12C8AEFA82E93E0892E2AE3E4
:1030C000922E209711F4BB20C9F10E94B4168111F1
:1030D00008C0AA94AA20C9F181E090E00E941F18BC
:1030E000F0CF8C171D0611F00CF08C2F9FB7F894C1
:1030F0008092E9002091E80025FD02C09FBFE1CF4A
:10310000282F30E0C21BD30BF701815020F04191F2
:103110004093F100FACFE20EF31EBB2021F0909213
:10312000E800B12CEBCF8091E80085FDE7CF9092CD
:10313000E800BB24B394209709F3F3CF5D9884E6AD
:1031400080934A01101611063CF081E090E0F601F0
:103150009383828310E000E0C801DF91CF911F913B
:103160000F91FF90EF90DF90CF90BF90AF909F9026
:103170008F900895A1E4B1E02FB7F8947D918D91DF
:103180009C9166B52FBFA89B05C06F3F18F47F5F69
:103190008F4F9F4F22E0660F771F881F991F2A9538
:1031A000D1F708950F9303E00E943D140F91089505
:1031B0000F930AEF0E943D140F91089510923C0165
:1031C0003E983F9808953E9A3F9A81E080933C0153
:1031D000089508951092350110923601109237012A
:1031E00010923801E0E6F1E086E886838EE187837D
:1031F000108682E090E09583848311868CE082873C
:10320000109234011092390188E0809351010895A1
:1032100096E0899FF0011124E657F94F8481282F09
:1032200030E093E0359527959A95E1F72370660F86
:103230006150260F220F220F220F2871877E282B24
:1032400024830895E0910B0285E0E89FF0011124AA
:10325000E559FE4F81818F7D8183089580913301EF
:10326000823009F093C080919A068770823009F409
:103270004AC028F4882361F0813061F108958430D8
:1032800009F472C008F459C0853009F47CC008956F
:10329000809169018076803609F478C00E942219F5
:1032A00080916901805E80936901809135019091E0
:1032B0003601A0913701B09138018C599F4FAF4F23
:1032C000BF4F8093350190933601A0933701B0939F
:1032D00038010895809169018871883109F456C0D8
:1032E0000E94221980916901885F80936901809111
:1032F000350190913601A0913701B09138010A96BD
:10330000A11DB11DDECF80916401909165018330D4
:1033100091052CF4019690936501809364010E94BD
:1033200022198091350190913601A0913701B09119
:1033300038014496A11DB11DC4CF80916901982F19
:103340009770973019F18F5F809369010E9422195D
:103350008091350190913601A0913701B0913801EB
:103360004E96A11DB11DADCF0E942219809135014D
:1033700090913601A0913701B091380188539F4F49
:10338000AF4FBF4F9ECF8BE0809351010895A09126
:103390003A01B0913B01AA0FBB1F2A9FF0012B9F5E
:1033A000F00D1124660F771F57FD2CC044305105D6
:1033B0004CF442305105E9F04330510519F14130E8
:1033C000510551F0680F791FE75AFF4F81E0E6176A
:1033D000F70774F480E00CC09C01261B370BB90181
:1033E0002FE030E02E1B3F0B81E06217730794F350
:1033F0000895EA54FF4F680F791F81E0E617F70739
:10340000BCF3E8CF9C01261B370BB9012FEA3FEF35
:103410002E1B3F0B81E02617370754F7DBCF20E048
:1034200045E65EE164E170E080E190E00E94D8183A
:103430008CE00E944316882319F081E080935101AB
:10344000089520E043E65CE170E060E080E290E017
:103450000E94D8188CE00E944316882319F081E05E
:10346000809351010895809134018F5F80933401DE
:1034700020E04DEB5AE164E070E082E290E00E94CF
:10348000D81881E080935101089520E04BEB56E17C
:1034900070E060E090E080E00E94D81880915101D7
:1034A00065E00E94B629282F4FEF55E168E370E0F0
:1034B00081E190E00C94D8180F931F93CF930E9452
:1034C000451A8091BD0680FD0AC08091010190914E
:1034D00002019F5F909302018150809301018091CE
:1034E0000201833218F081E1809302018091010191
:1034F000823118F483E280930101C09100012C2FE6
:103500002250330BC90128E1289F8001299F100D0B
:1035100011248091020120E047E85FE168E370E058
:10352000800F912F911D0E94D2188091010120E0FF
:1035300047E85FE168E370E0800F912F911D0E94E2
:10354000D21880E40E944316882329F0C53018F46D
:10355000CF5FC093000180E20E944316882339F0B8
:1035600080910001833018F08150809300018CE03D
:103570000E944316882321F080910001809351011D
:10358000CF911F910F910895AF92BF92CF92DF928A
:10359000EF92FF920F931F93CF93DF939EEFE92E4D
:1035A000FF24FA9410E000E0C0913A01D0913B0171
:1035B000BE01675E7F4F600F711F20E04EEF52E14A
:1035C000C7010E94D818BE01601B710B21E04EEFAD
:1035D00052E1C701CE960E94D818055011098AE021
:1035E000E80EF11C023EEFEF1E07F1F66B9600E3CA
:1035F00010E05801FCE3AF1AB1086E01780120E039
:1036000044E653E1B601C7010E94D2188CE0E81AE3
:10361000F108E6E0CE0ED11CEA14FB0481F7045F4A
:103620001F4F26960C36110521F7CCE0D2E00AE3B5
:1036300012E0E991F0E0EE0FFF1FE25EFA4E859195
:103640009491FC0109950C171D0799F7DF91CF9113
:103650001F910F91FF90EF90DF90CF90BF90AF90B0
:10366000089560913A0170913B01615D7F4F23E0C5
:103670004CEB51E183E190E00C94D21860913A0157
:1036800070913B016A5C7F4F23E04AEB50E18DE192
:1036900090E00C94D21860913A0170913B016A5C01
:1036A0007F4F23E048ED5EE08EE090E00C94D2186E
:1036B00060913A0170913B016A5D7F4F23E046E6DD
:1036C0005DE08EE090E00C94D21860913A01709128
:1036D0003B01615D7F4F22E04CEB51E189E590E0D9
:1036E0000C94D21860913A0170913B016A5C7F4F53
:1036F00022E04AEB50E181E590E00C94D218609111
:103700003A0170913B016A5C7F4F22E048ED5EE038
:1037100089E590E00C94D21860913A0170913B01D8
:103720006A5D7F4F22E046E65DE081E590E00C9423
:10373000D21860913A0170913B01625F7F4F21E0A6
:103740004CEB51E185E590E00C94D21860913A0180
:1037500070913B016B5E7F4F21E04AEB50E18FE5BA
:1037600090E00C94D21860913A0170913B016B5E2D
:103770007F4F21E048ED5EE080E590E00C94D218A8
:1037800060913A0170913B016B5F7F4F21E046E60B
:103790005DE080E590E00C94D21860913A01709160
:1037A0003B01625F7F4F20E04CEB51E188E190E00C
:1037B0000C94D21860913A0170913B016B5E7F4F7F
:1037C00020E04AEB50E180E190E00C94D218609147
:1037D0003A0170913B016B5E7F4F20E048ED5EE067
:1037E00088E190E00C94D21860913A0170913B010D
:1037F0006B5F7F4F20E046E65DE080E190E00C9457
:10380000D218089508959F92AF92BF92CF92DF92FF
:10381000EF92FF920F931F93CF93DF9325E0829F48
:10382000F0011124E559FE4FE180F12C3DE0839F2A
:10383000A0011124CAE8D6E007E010E0862F8150ED
:10384000990BDC01AA0FBB1FA15FBE4F415F5F4F09
:1038500025E0A22E36E0B32E6CE0962E1C82C70126
:10386000002E02C0959587950A94E2F780FF37C035
:103870008D919C911197FA01E01BF10BE80FF91F54
:10388000249130E083E0359527958A95E1F7822FE2
:103890006A2D0E94B6298B9DB00111246C5F7F4F69
:1038A000621B730B969E6001979ED00C112493E0CF
:1038B000C90ED11CD982C882B29EB001B39E700DD0
:1038C00011246E5E7F4F28EE382F2303C001112490
:1038D000860F971F9B838A83E491E770EC8326967B
:1038E0000150110908F0BACFDF91CF911F910F91CC
:1038F000FF90EF90DF90CF90BF90AF909F90089592
:10390000CF93E0910B0265E06E9FF0011124E55921
:10391000FE4FA281A0930B02E0E6F1E02285822F08
:103920000E94B629C6E08C9FA00111244C5F5F4F16
:10393000421B51099CE0949FB001959F700D11248A
:103940006D5F7F4F718360832C9F900111242E5EE9
:103950003F4F482F58EE5403C0011124820F931F8C
:1039600020913A0130913B01820F931F9383828310
:103970001086609139018A2F0E94031CC093510167
:10398000CF9108953F924F925F926F927F928F9264
:103990009F92AF92BF92CF92DF92EF92FF920F93DE
:1039A0001F93CF93DF93609139016F5F609339016B
:1039B00010920B028CE080936A0182EF9FEF90934C
:1039C0003B0180933A0183E390E0909361018093FF
:1039D00060018CE190E09093630180936201862FF7
:1039E0008150990BFC01EE0FFF1FE15FFE4F20811C
:1039F000318140E050E095E0392E7DE079019FE093
:103A0000E90EF11C812C912C54018394F9018491CD
:103A1000481708F05AC0042F10E0309ED001319EA4
:103A2000B00D1124A559BE4FED01219611961C929F
:103A3000119712961C92129713961C921397149634
:103A40001C921497479FC0011124FC013396E20F8A
:103A5000F31FE491EC93A7E0B0E06701C80ED91E14
:103A6000F601EA1BFB0BE491EE2369F0E8812401E7
:103A700035010A2E04C0440C551C661C771C0A94A0
:103A8000D2F74E2A4882119758F7FC013A96E20F76
:103A9000F31F849187708530B1F4F9019491979F59
:103AA000E02D1124ED5FE50FFF27FF1FE20FF31F4D
:103AB000E491809FD001819FB00D1124A559BE4F84
:103AC0001296EC935F5F4F5FA1CF80E00E94031CD2
:103AD00086E080935101DF91CF911F910F91FF906C
:103AE000EF90DF90CF90BF90AF909F908F907F909E
:103AF0006F905F904F903F9008959AEA899FA00140
:103B0000112485E591E0689F9001699F300D112493
:103B1000CA01820F931F8FEC890F90E064E09595A6
:103B200087956A95E1F7982F990F990F890F241BB4
:103B3000350B92E1930F92959F70890F08950F9323
:103B4000CF93C22F57FD20C0443051054CF4423072
:103B50005105B9F043305105B9F04130510571F0CC
:103B6000645088500E947D1D80933201E0913201A3
:103B7000E93168F080E0CF910F9108956450885F3B
:103B8000F1CF6D5F8A5FEECF6D5F8650EBCFF0E0D7
:103B9000E45FFD4F8285809333018B3159F3CC2351
:103BA00021F0893039F381E0E6CF011119C0882373
:103BB00009F38930C1F78091660183FDF4CF20912C
:103BC00064013091650121503109309365012093E2
:103BD0006401121613063CF4886080936601E3CFFB
:103BE000813039F7C7CF8861F8CF0895EAE8F6E069
:103BF00026A5277064A575A580913A0190913B0197
:103C0000680F791F675F7F4F82A593A544E653E154
:103C100003970C94D218EAE8F6E020A5277066A175
:103C200077A180913A0190913B01680F791F675FFE
:103C30007F4F84A195A144E653E103970C94D218D9
:103C4000EAE8F6E022A1277060A171A180913A0113
:103C500090913B01680F791F675F7F4F868D978D2D
:103C600044E653E103970C94D218EAE8F6E0248D79
:103C70002770628D738D80913A0190913B01680F9E
:103C8000791F675F7F4F808D918D44E653E10397E5
:103C90000C94D218EAE8F6E02689277064897589C1
:103CA00080913A0190913B01680F791F675F7F4FC8
:103CB0008289938944E653E103970C94D21880914A
:103CC000BD069091BE0687709927892B41F480919B
:103CD0009B068F5F66E00E94B62990939B068091B9
:103CE0009A068770282F220F280F220F80919B069B
:103CF000280F609198067091990680913A019091F1
:103D00003B01680F791F6A5F7F4F80919606909103
:103D1000970644E657E004960C94D21896E0899FE3
:103D2000F0011124E657F94F8481282F30E0877085
:103D30008130C1F018F08230C1F0089593E03595DC
:103D400027959A95E1F723706281738180913A01FA
:103D500090913B01680F791F42EE52E08081918182
:103D60000C94D21825812C5FEFCF83E035952795F1
:103D70008A95E1F72370285FE7CF81E00C948E1ECF
:103D800080E00C948E1E2091660122FF0DC02370EE
:103D9000609162017091630140E651E080916001A1
:103DA000909161010C94D218089540916601842F7E
:103DB000807629F0809168018F5F809368018091FF
:103DC0003A0190913B014370209160013091610173
:103DD000423081F14330D1F14130A1F097FF08C06A
:103DE000019690933B0180933A012250310913C010
:103DF0008091620190916301019790936301809398
:103E00006201F3CF97FF0CC0019690933B01809322
:103E10003A012E5F3F4F3093610120936001089576
:103E20008091620190916301019790936301809367
:103E30006201EFCF833E4FEF940714F00197E5CF77
:103E400080916201909163010196EFCF833E4FEF25
:103E5000940714F00197C5CF80916201909163019E
:103E60000196CBCFCF92DF92EF92FF920F931F93E9
:103E7000CF93DF934EE250E06BE170E08CE092E094
:103E80000E94DC29E0910B024E2F50E025E0E29FDA
:103E9000F0011124E559FE4F808187FF09C09BE0A6
:103EA00090930C029CE090930D029DE090930F0282
:103EB00083FF03C09EE09093100286FF09C09FE03D
:103EC0009093110290E19093120291E19093140269
:103ED00082FF03C092E19093150285FF09C093E130
:103EE00090932F0294E19093300295E190933202E7
:103EF00081FF03C096E19093330284FF09C097E1EC
:103F00009093340298E19093350299E190933702AF
:103F100080FF03C08AE18093380280916601982F68
:103F2000907609F03FC0E0916A01F0E0E45FFD4F58
:103F300089E0828785E0849FF001859FF00D112440
:103F4000E559FE4F018110E08AE8C82E86E0D82EA0
:103F5000D0E0C0E097E0E92EF12CC7018C1B9D0B4F
:103F6000F80102C0F595E7958A95E2F7E0FF0AC0EF
:103F7000F601628180810E947D1DE82FF0E0E45F00
:103F8000FD4FC287219636E0C30ED11CC830D10543
:103F900021F7DF91CF911F910F91FF90EF90DF906C
:103FA000CF900895282F2072982F907483708230BC
:103FB000B1F0833001F1813061F0222319F089E002
:103FC00080930E02992309F4B5CF89E080933102E2
:103FD000B1CF2223B9F389E080931302F3CF2223D8
:103FE00019F089E080933102992309F4A3CF89E085
:103FF00080930E029FCF222319F089E0809336022E
:10400000992309F497CF89E08093130293CFCF933C
:10401000DF930E94451A8091BD0680FD0AC0809101
:104020000101909102019F5F909302018150809362
:10403000010180910201833218F081E18093020135
:1040400080910101823118F483E280930101C091D3
:104050003C0188E1C89FE0011124809102018C0F8E
:104060009D2F911D20E047E85FE168E370E08896AE
:104070000E94D218809101018C0F9D2F911D20E08C
:1040800047E85FE168E370E088960E94D21880E418
:104090000E94431681110E94E31880E20E94431699
:1040A00081110E94DE188CE00E944316882381F063
:1040B000C0913C0182E090E00E94A029C81729F03D
:1040C0006C2F82E090E00E94A82981E0809351014A
:1040D000DF91CF9108953F924F925F926F927F92BE
:1040E0008F929F92AF92BF92CF92DF92EF92FF9208
:1040F0000F931F93CF93DF93CDB7DEB72A970FB6F9
:10410000F894DEBF0FBECDBFE82E862ECA01B901DE
:104110002AE0AE014F5F5F4F5A010E945F29F5010F
:1041200001900020E9F73197EA19FB096E2E8BEF19
:10413000089F802D1124895F8E1B482E082E000CAD
:104140005508011113C010E0E6E0FE2E1415150409
:10415000C4F41F9DC001112420E046E955E166E347
:1041600070E08B960E94D8181F5FF0CF18164CF4A1
:1041700020E046E755E170E060E089E790E00E94CA
:10418000D818F12C6201CC0CDD1CCC0CDD1CCE0C43
:10419000DF1C440C551C4C0C5D1C10E0062C000C64
:1041A0007708912C76E0372E812F90E086159705C1
:1041B00084F5F501E80FF91F20812133A4F0205385
:1041C0002A3088F4013089F00230C9F046E955E11F
:1041D00066E370E0C201139D800D911D11240E94C1
:1041E000D8181F5FE1CF20E0EDCF880F991F880F0F
:1041F000991F46E755E1B4018C0D9D1DF0CF880F46
:10420000991F880F991F46E555E1B4018E0D9F1D3A
:10421000E6CF2A960FB6F894DEBF0FBECDBFDF9172
:10422000CF911F910F91FF90EF90DF90CF90BF90B3
:10423000AF909F908F907F906F905F904F903F9046
:1042400008950F9320E041E953E270E060E090E0D0
:1042500080E00E94D81820913501309136014091BC
:1042600037015091380100E066E38BE20E946B2039
:104270008CE00E944316882319F081E0809351015D
:104280000F9108950F9320E04FE85FE170E060E048
:1042900090E080E00E94D8182091350130913601DD
:1042A000409137015091380100E066E38BE20E94B3
:1042B0006B208CE00E944316882319F086E08093DF
:1042C00051010F9108950F93CF93DF93D0E0C0E099
:1042D00020E049EF55E1BE0186E790E00E94D21848
:1042E0002896C034D105A1F720910B0230E050E0B0
:1042F00040E001E060E089E70E946B2020916901C5
:10430000277030E050E040E002E067E18BE70E9478
:104310006B2020E042EF55E16DE170E08AE790E02C
:104320000E94D8182091690130E083E035952795E7
:104330008A95E1F723703327032E000C440B550BAD
:1043400066E28BE70E946B2020E049EE55E16CE2CB
:1043500070E089E790E00E94D8182091690130E070
:1043600095E0359527959A95E1F723703327032E2D
:10437000000C440B550B65E38BE70E946B2020E09B
:1043800040EE55E16BE370E089E790E00E94D818B9
:104390008091BD069091BE0664E170E00E94C22942
:1043A000892B59F4809164019091650102972CF456
:1043B000809166018058809366018091660187FF35
:1043C0000DC0209164014AEC55E16BE070E08AE792
:1043D00090E0DF91CF910F910C94D818DF91CF919D
:1043E0000F9108950E94321F0E94C41A80916801A3
:1043F000853038F48091BD0680FF0E94D51E0C9454
:10440000632110926801809166018F7B8093660121
:1044100086E080935101F3CF6F927F928F929F92AB
:10442000AF92BF92CF92DF92EF92FF920F931F93C2
:10443000CF93DF930E94321F0E94C41AC09166017D
:10444000C5FD90C1C4FD6DC08091BD0680FD61C0F9
:104450006091620180913A01681B809160010E9425
:104460007D1D893110F480936A010E94382887FFEE
:104470009FC0CC7FC09366010091620110916301DF
:10448000D0916001D090610121E050E040E0B8019E
:104490008D2F9D2D0E94C719E0903A01F0903B01AD
:1044A000811110C0B8016E197F0900E021E050E0D1
:1044B00040E08D2F9D2D0E949F1D811128C00E94DC
:1044C000D51E27C0602F6E198D2F0E947D1D823052
:1044D00001F5A0910B0225E0A29FD0011124A5595E
:1044E000BE4F8C9187FF15C083FD13C0C062C0937F
:1044F00066018BE190E090936101809360013EE161
:10450000E30EF11CF0926301E092620102C00E948E
:104510002E1988E00E944316882319F089E08093C1
:1045200051018091660183FFE6C12091BD06309163
:10453000BE0623703327232B49F4909167019150D5
:104540009093670194E089278093660180916701C9
:10455000811108C0809166019EE190936701877F79
:10456000809366018091660184FD12C08091BD0632
:104570009091BE0666E070E00E94C229CAE8D6E0CB
:10458000F8E0AF2EB12CADE08A2E892B09F4C2C120
:10459000DF91CF911F910F91FF90EF90DF90CF901F
:1045A000BF90AF909F908F907F906F900C946321FD
:1045B0000E94382886FF45C0CD7F8C2F8160809374
:1045C00066010091620110916301D0916001D09069
:1045D000610121E041E050E0B8018D2F9D2D0E9446
:1045E000C719E0903A01F0903B01882311F1602F48
:1045F0006E198D2F0E947D1D8A3009F08ACFA091FF
:104600000B0265E0A69FD0011124A559BE4F8C91E5
:1046100086FF7FCF82FD7DCFC162C09366018BE4B0
:1046200090E090936101809360017EE1E70EF11CC0
:1046300069CFB8016E197F0900E021E041E050E048
:1046400038CF0E94382884FF45C0CE7F8C2F8260EF
:10465000809366010091620110916301D091600125
:10466000D090610121E042E050E0B8018D2F9D2DF6
:104670000E94C719E0903A01F0903B01882311F1A4
:10468000602F6E198D2F0E947D1D863109F041CF5C
:10469000A0910B0285E0A89FD0011124A559BE4F1F
:1046A0008C9185FF36CF81FD34CFC262C093660105
:1046B0008BE490E0909361018093600196E3E90EB2
:1046C000F11C20CFB8016E197F0900E021E042E023
:1046D00050E0EFCE0E94382885FF1BCF8C2F8360DF
:1046E000809366010091620110916301D091600195
:1046F000D090610121E043E050E0B8018D2F9D2D65
:104700000E94C719E0903A01F0903B01882311F113
:10471000602F6E198D2F0E947D1D8E3009F0F9CE0D
:10472000E0910B02A5E0EA9FF0011124E559FE4F4C
:10473000808184FFEECE80FDECCEC362C093660123
:104740008BE190E0909361018093600126E3E20E9B
:10475000F11CD8CEB8016E197F0900E021E043E0DA
:1047600050E0A7CE80916801853038F48091BD0675
:1047700080FDD7CE0E94D51ED4CED09139016D2FA9
:104780006150770BDB01AA0FBB1FA15FBE4FC37047
:10479000EC2FF0E0349680910B027DE0879FE00DD6
:1047A000F11D11248D919C91E80FF91F8491837064
:1047B000823059F0833009F479C0813009F07BC030
:1047C0008AE080936A012AE07AC086E180936A01D8
:1047D00026E14DED5FEF50933B0140933A01E491A8
:1047E000F0E0F595E795F595E795E0930B02822FBC
:1047F00065E00E94B629C82ED12CA6E08A9FC00190
:1048000011240496821B9109CCE0C89FD001C99F56
:10481000B00D112413962A3009F459C008F052C083
:10482000223009F458C0EA0EFB1EF0926101E092BA
:10483000600136E0239FC00111244296C8EE3C2F50
:10484000B6013603D001379FB00D11248A0F9B1F8C
:104850002A3009F44DC008F043C0223009F448C0A2
:10486000080F191F040F151F1093630100936201B5
:10487000109268016D2F8E2F0E94031C809166019B
:104880008F7D80648093660187E080935101DF9182
:10489000CF911F910F91FF90EF90DF90CF90BF903D
:1048A000AF909F908F907F906F9008958EE080934F
:1048B0006A012EE08ECF82E080936A0122E047EF0A
:1048C0005FEF89CF2E3039F0263109F0ACCF8AE086
:1048D000E82EF12CA8CFC6EFEC2EFF24FA94A3CF3C
:1048E0002E3019F0263109F0BBCF05E010E0B8CF2B
:1048F0000BEF1FEFB5CF8091640190916501181601
:1049000019060CF42FCE8AE0809351012BCEE9E0FA
:10491000AE2EB12C8D818F5F83708D83A091390174
:10492000A150BB0BAA0FBB1FA15FBE4F80910B0212
:10493000B501889D600D711D1124ED91FC91E60F6C
:10494000F71FE491EE2351F08C81E82EF12C877053
:104950008130C1F148F0823009F48BC0269629E0FD
:10496000A216B104A1F614CE63E0F594E7946A951B
:10497000E1F773E0E722FF246A807B80C880D9805A
:1049800020E0A701B301C6010E94C7191A2D1170BA
:10499000811115C0012F20E0A701B301C6010E94BB
:1049A0009F1D81110CC08C8190E023E09595879527
:1049B0002A95E1F7612F83700E944E16CFCF61E0F8
:1049C000812F19C053E0F594E7945A95E1F783E0FD
:1049D000E822FF246A807B80C880D98020E0A7017C
:1049E000B301C6010E94C7199A2D9170992E882390
:1049F00029F061E0892D0E940819B0CF092F20E02D
:104A0000A701B301C6010E949F1D8111F2CF8C81C5
:104A100090E043E0959587954A95E1F7692D83707D
:104A20000E944E16EA80FB80C880D98043E350E0A4
:104A30008EE190E0F601FF27D701BB279C012E51A4
:104A40003109BA01E617F70731F489010E5E1F4FED
:104A5000A017B10781F16C5071092A5F3F4F82178F
:104A6000930781F70696445F5F4F8C33910531F7CA
:104A700075CF33E0F594E7943A95E1F7A3E0EA22A5
:104A8000FF246A807B80C880D98020E0A701B30121
:104A9000C6010E94C7191A2D1170882311F060E019
:104AA0008FCF012F20E0A701B301C6010E949F1DF7
:104AB0008111F5CF78CF6C80712C83E07594679469
:104AC0008A95E1F733E06322772461E0661A710882
:104AD00020E0A301B701C6010E94C71981113ECF92
:104AE000092D20E0A301B701C6010E949F1D81117D
:104AF00035CF60E07FCF1F920F920FB60F92112437
:104B00008F939F938091E1009091E100937F909328
:104B1000E10083FF0FC01092E90091E09093EB0059
:104B20001092EC0092E39093ED0010925F0198E0F8
:104B30009093F00082FF22C093E09093E90090915F
:104B4000F200992319F09AE39093E80090914A01BA
:104B5000992341F090914A01915090934A0191110B
:104B600001C05D9A90915E01992341F090915E01A0
:104B7000915090935E01911101C0289A84FF18C052
:104B80008091E2008E7E81608093E2008091E1005E
:104B90008F7E8093E10080914B018E7E80618093B7
:104BA0004B019F918F910F900FBE0F901F90189502
:104BB00080FFF7CF8091E2008E7E80618093E200DB
:104BC0008091E1008E7E8093E10080914B018E7E8A
:104BD0008160E5CF1F920F920FB60F921124CF92F2
:104BE000DF92EF92FF920F931F932F933F934F9378
:104BF0005F936F937F938F939F93AF93BF93EF9345
:104C0000FF93CF93DF93CDB7DEB76C97DEBFCDBFF9
:104C10001092E9008091E80083FF25C068E0CE0192
:104C200045960E94911782EF8093E8008D8987FF57
:104C300039C09091E80090FFFCCF982F907609F052
:104C400034C19E894F89588D2F89F88C911131C0BC
:104C5000803861F580914C018093F1001092F10051
:104C60008EEF8093E8006C960FB6F894DEBF0FBE0F
:104C7000CDBFDF91CF91FF91EF91BF91AF919F9108
:104C80008F917F916F915F914F913F912F911F91E4
:104C90000F91FF90EF90DF90CF900F900FBE0F908D
:104CA0001F9018959EEF9093E800C7CF1092F100E7
:104CB000D5CF913059F48111D3CF4130510581F6D0
:104CC00080914C018D7F80934C01CACF933049F481
:104CD0008111C6CF4130510519F680914C01826097
:104CE000F2CF953041F48091E80080FFFCCF20683E
:104CF0002093E300B5CF963009F0A9C00B8D1C8D31
:104D000022E01092E9001092480110924701F2123D
:104D10002EC010924601109245010E9460171F821A
:104D200099E09983FA8291E09E8390EA98879AEFBE
:104D300099872091470130914801275F3F4F3C837D
:104D40002B838D831092E900109248011092470145
:104D5000109346010093450149E050E0BE016F5FAA
:104D60007F4F80E00E943A170E94601779CF10931E
:104D70004601009345010E94C516DC0112960D9173
:104D80001C910115110509F410C1D801ED91FC9198
:104D90000480F581E02DBE016B5E7F4FC80109954F
:104DA000009709F0FDC0F80100851185EACFF3E016
:104DB000FF120EC08F89882309F440C0823061F44D
:104DC00040E867E087EF97E20E940717811148CF1C
:104DD00081E28093EB0047CF813029F440E86BE01B
:104DE0008BEE97E2F1CF833099F70E94C516DC0174
:104DF0001296ED90FC908E010F5F1F4F6801E11439
:104E0000F10479F0D701ED91FC910680F781E02D56
:104E1000B801C7010995080F111DF701E084F1845D
:104E2000EECFD8011C92F60101900020E9F73197EE
:104E3000BF016C197D0940E0C601C6CF65ED77E280
:104E4000FB01449150E080E80E943A1709CF973067
:104E500009F4BECF983021F481E08093F10000CFB7
:104E6000993009F0FDCE837009F0B2CFE4E1F1E0B2
:104E700081E031E096E32191222371F08093E900F3
:104E80003093EB00DF0111972C912093EC0090936D
:104E9000ED008F5F873079F78EE78093EA001092FC
:104EA000EA008F8980935F01DBCE8B8D9C8D109201
:104EB000E9001092480110924701909346018093B7
:104EC0004501898D811151C08E899D89913A49F49E
:104ED000813209F07DCF47E050E067E071E080E08B
:104EE000B3CF913209F074CF833269F48F89988DF2
:104EF000B0E0A0E08093030190930401A09305012A
:104F0000B0930601ADCE803269F48091E80082FF53
:104F1000FCCF67E087E091E00E9491178BEF8093D0
:104F2000E8009ECE823209F09BCE8F8980930E01DD
:104F30008091070190910801A0910901B0910A01A7
:104F4000803B9440A105B10569F480910E0180FD7C
:104F500009C088E780934901809164008F7D809328
:104F600064007ECE109249017BCE0E94C516DC0102
:104F700012960D911C910115110509F429CFD80144
:104F8000ED91FC910190F081E02DBE016B5E7F4FB1
:104F9000C8010995811164CEF80100851185EBCF18
:104FA000181619060CF45CCE13CFF1E0FF12FFCEF9
:104FB00069ED77E245CF0F930FB70F931F9211243E
:104FC0008F939F93EF93FF93EDE4F1E08091400185
:104FD00091E08D5F8D3710F08D5793958093400150
:104FE0008081890F80839181911D91830281011DB0
:104FF00002838381811D838309270F70092702950E
:1050000000933F0135D0811100933D01803989F42F
:1050100000913E01901B963070F087E78093000866
:105020008093010888E198E080936000909360008D
:10503000FFCF90933E0180914901815018F08093F9
:10504000490159F3E1E4F1E0808191810196808387
:10505000918382819381811D911D82839383FF912E
:10506000EF919F918F911F900F910FBF0F91189506
:105070008FB18095807F669B88601C9B84600895BB
:10508000EAE3F6E01382128288EE93E0A0E0B0E05B
:1050900084839583A683B7838EE191E09183808397
:1050A0008FEF9FEF95878487EAEBF6E080E391E04E
:1050B000918380831582168280E187831482138214
:1050C0001186EAE8F6E014821286108A168A148E97
:1050D00012A210A616A60895789483E084BD83E0FA
:1050E00085BD81E080936E00E1E8F0E083E080839D
:1050F000E0E881E08083E1E983E08083E0E981E02A
:105100008083E1EC87E08083E3EC81E08083E0EC66
:1051100082E08083E2EC81E08083EAE787E08083BD
:105120008068808310925F0110924C0110924B01B5
:105130008091D70081608093D70080EA8093D80067
:1051400089B5806189BD89B5826089BD09B400FED9
:10515000FDCF81E090E00E941F188091D8008F7CE5
:1051600080618093D8008091E000807F8093E00090
:105170008091E1008E7E8093E1008DE08093E200DB
:10518000559A209A81EC80937C0081EF85B987EE57
:1051900084B984E38BB984EF8AB9769A6E9880EFEC
:1051A00081BB10BA80E58CBD81E08DBD0E943318B3
:1051B0005F9902C05F9AFACF5C98EFEFF7E29DE04B
:1051C00085918EBD00000DB407FEFDCF8EB59A957A
:1051D000B9F75C9A81E88093640081E08093650070
:1051E00082E090E00E94A029882311F10E94E31838
:1051F00080E18093C106EE24E394CAE3D2E000E0AC
:1052000010E0DD24D39490914D018091C206292FA6
:10521000281B822FF090C306FF2069F02093C4065C
:105220001092C3060115110571F30E940000EBCF27
:105230000E94DE18DDCF2091C106821738F48F5FFF
:10524000821780F7E3BE889513BEECCFD092C306D9
:105250009093C2068091BD069091BE0601969093F0
:10526000BE068093BD068091BF068093C0060E9453
:1052700038288093BF069F2DFE0191119FEF8FEF7D
:1052800091939193919391938150D0F7E091510133
:10529000F0E0EE0FFF1FE45FF74D85919491FC0164
:1052A0000995FE0180E098E000800EBCF110012C11
:1052B000019780FDFDCF0192B9F70DB4B3CFBB27A5
:1052C0002A3051F4992342F4BDE29095809570956F
:1052D00061957F4F8F4F9F4F0C946F29BB27FA0129
:1052E000A62F6217710581059105330B30FB66F01F
:1052F000AA27660F771F881F991FAA1FA21710F0F1
:10530000A21B63953850A9F7A05DAA3308F0A95DE8
:10531000A19336F7B111B1931082CA010C94902970
:10532000DC01FC01672F71917723E1F7329704C00C
:105330007C916D9370836291AE17BF07C8F3089597
:10534000F999FECF92BD81BDF89A992780B508954D
:10535000262FF999FECF1FBA92BD81BD20BD0FB691
:10536000F894FA9AF99A0FBE01960895991B79E07C
:1053700004C0991F961708F0961B881F7A95C9F7E5
:1053800080950895AA1BBB1B51E107C0AA1FBB1F34
:10539000A617B70710F0A61BB70B881F991F5A95C1
:1053A000A9F780959095BC01CD010895EE0FFF1FE0
:1053B0000590F491E02D0994DC0101C06D934150FA
:0A53C0005040E0F70895F894FFCF85
:1053CA00032311FFFFFFFF00E1000000000000EDD2
:1053DA0000AC0000C18081000000000000009E17A0
:1053EA003718BF17B4170518C317E11700000000D4
:0253FA00E918B0
:00000001FF
