:100000000C949A0E0C94C20E0C94C20E0C94C20E58
:100010000C94C20E0C94C20E0C94C20E0C94C20E20
:100020000C94C20E0C94C20E0C9434220C94A32295
:100030000C94C20E0C94C20E0C94C20E0C94C20E00
:100040000C94C20E0C94C20E0C94C20E0C94C20EF0
:100050000C94C20E0C94C20E0C94C20E0C949424F8
:100060000C94C20E0C94C20E0C94C20E0C94C20ED0
:100070000C94C20E0C94C20E0C94C20E0C94C20EC0
:100080000C94C20E0C94C20E0C94C20E0C94C20EB0
:100090000C94C20E0C94C20E0C94C20E0C94C20EA0
:1000A0000C94C20E0C9461280C94C20E16089D7913
:1000B000C199B1A3E3F7E6FEFEFE0EE6F7E3A3B1B6
:1000C00099C1799D9D79C191B3A3E3F7E6FEFEFE48
:1000D0000EE6F7E3A3B391C1799D9971C393B3A3DE
:1000E000E7D7E6FEFEFE0EE6D7E7A3B393C371990A
:1000F0009973E3C3C3C7C7C7EEFEFEFE0EEEC7C7C4
:10010000C7C3C3E373999373E3E3C7C7C7CFEEFED7
:10011000FEFE0EEECFC7C7C7E3E3739301020203EF
:1001200003040404030302804000008080000000F8
:1001300000000000000000000000000000000000BF
:1001400000000000000000000000FFF8E0E0C0C078
:10015000C0C000000000000000000000000000001F
:10016000000000007EFE4E0686CCFC700000000001
:10017000000000000000000000808000000000007F
:100180004040404060E0F8FF000000000000000038
:10019000000000000000000000000000000000005F
:1001A000000000000000000000000000FFFF202011
:1001B000202021FFFF0100E0F09090B0E001FFFE61
:1001C0000010F0F0101030E0F0101737F7EF1FEFCD
:1001D000F79790B0E012FEFC101060F090B0B010F5
:1001E000000060F0F89C0E070309142850A0C0908E
:1001F000381C0C04040000000000FFFF202020A099
:1002000021FFFF011EEFF7171030F0E010F0F010A3
:100210001030E0F0101031FFFE00E0F09090B0E000
:100220000060F090B0B01000000000080F0F080050
:10023000000000030706040307040406020407077E
:1002400004040707040004070704000407173473B5
:10025000F7F4F4F4E280030704040206040407033D
:10026000000000000103070E1C1C0E070200010223
:10027000070E1C18180C060000080F0F88E0F8FF86
:10028000FCFB773614030704040407030407070480
:10029000000003070404040707040307040406021C
:1002A00000020604040703000000000078FEFFFFC0
:1002B000FFFE00F0FCFEFEFEFEFCE0F8FCFCFCFC99
:1002C000F800401E3F3F3F3F3F5E404040404040BF
:1002D0004041434347870F0E1C1C18B8B87070F498
:1002E000F4EEEEEEEFEFDFDFDFDFDFDFEFEFEEEE7E
:1002F000EEF4F47070B8B8181C1C0E0F8747434317
:100300004140404040404040405E3F3F3F3F3F1EF5
:10031000403CFEFEFEFEFCF03EFFFFFFFFFEF8004D
:10032000FEFFFFFFFE7800000000F008E4F1F3F3A9
:10033000F3F1E0CF9F9F9FCFE3C09F3F3F3F1F87D9
:100340007841414141414141414141414141414166
:10035000414141417E807F000000FCFFFFFF3FDE06
:100360001DC3FF07E1E1307878308000E1E107FF4D
:10037000C31DDE37F9D9DFFC0000007F807E4141DC
:10038000414141414141414141414141414141415D
:10039000417E81770FCFCFE7F0F1E7CFCFCFC7E036
:1003A000E1F3F3F3F1E408F00000070817979797DB
:1003B0009797171707FB05F20A0A0A0A0A0A0A0A98
:1003C0000A0A0A0A0A0A0A0A0A0A0AF205F90101CD
:1003D00001010101010000000000FF03FD050426EA
:1003E000272F2F1E191B3736363636371B191E2F6F
:1003F0002F27260405FD03FF000000000001010176
:1004000001010101F905F20A0A0A0A0A0A0A0A0A9E
:100410000A0A0A0A0A0A0A0A0A0AF205FB07171751
:100420001797979797170807000000003FFFFFFFF7
:10043000FFFFFF3FCCF3F4FBFAFAFAFAFAFAFAFA02
:10044000FAFAFAFAFAFAFAFAFAFCFCFD7C7D7C7CFC
:100450007C7C38000000000000003FF8E718C080F6
:1004600040C0C0C0C0C0C0C0404080C0C0C0C0C04C
:10047000C04080C018E7F83F000000000000001CEA
:100480003E3E3E3E7E7E7DFCFCFCFAFAFAFAFAFA2B
:10049000FAFAFAFAFAFAFAFAFAFAFBF4F3CC3FFFAC
:1004A000FFFFFFFFFF3F00000000000000011BF7FF
:1004B000F7EFEFAEA3A7A72F2F2F6F6F6F6F6F6FA1
:1004C000575717070303030101808080C0C0C0A0F5
:1004D000A0A060707070F0E8E8DCDCD9B7AF988756
:1004E0009C830307070D8B9B9B9B9F8F0F07070325
:1004F000839C8798AFB7D9DCDCE8E8F07070706057
:10050000A0A0A0C0C0C08080800101030303071722
:1005100057576F6F6F6F6F6F2F2F2FA7A7A3AEEF78
:10052000EFF7F71B01000000001C241C241C090F1E
:1005300003060C3C38000000000080F8FE0FE3FBCF
:100540001B0B0B8BFBF3F7F6F6F60606ECECECEC6C
:10055000ECECECECECECECECECECEEE6F6F6F6F7B6
:10056000F3FBFBCBCBFBE30FFEF8801E33212133E3
:100570009E00000080F8FF0FE0F8F9F9F9F9F9F9A9
:10058000F9F1F3F3F3F3F0F0FFFFFFFFFFFFFFFFDD
:10059000FFFFFFFFFFFFFFFFFFFFFFFFFFFFFFFF6B
:1005A000FF7F7FFEE00FFFF88006060000000000DE
:1005B0000F3FF0C6070404070707070707070707E9
:1005C000070707FFFFFFFFFFFFFFFFFFFFFFFFFF23
:1005D000FFFFFF0707070707078787070726860725
:1005E00007C6F03F1F0080800000000000000003ED
:1005F0000784C4E4E4E4E4E4E4E4E4C49C000FE736
:10060000E7E7E7E7E7E7E7E7E7C7870F1F0FC7E792
:10061000E0ECE4E4E4E5E5E4C4040404070300C01A
:1006200040C30311000000000000000000FFFFFFB6
:10063000FFFF393939FFFFFF0FE0E0EFEF0FFFFF5A
:10064000183879FFFFF703E0E0EFEF0FFFF9F0F064
:10065000FCFDFDFD0DECE0E0E000000121010000EB
:1006600000000080C0602060C080000000000C0C12
:10067000007EFE803C3E1C1C1C1C1C0C0C0E0C0C3A
:100680000C0C0E1E1C1C1C1C3C3E80FE7E00000040
:1006900000C0E0E0C000000000030300000E1B31BA
:1006A00066C680D060311B0E000038283800014734
:1006B0001E3820202020301010D0D0101090103084
:1006C00020202020381E070100000606000001013E
:1006D0000000000000000000001308001B1B001FAA
:1006E000000A0A0E1F000F0F0F1F001A1A18001A17
:1006F0001A181F000F0F0F1F001616001F181B03DC
:10070000180E000E1F001D1B17001F001A1A1E1FB7
:10071000000E0E00000E0E0F1F000E0E001F001D1B
:100720001B001F001A1A1E4040FFFFFF0707E7E7E4
:10073000676767676767E7E70707FFFF1F1F676769
:100740007F7F1F1F0707E7E7E7E707079F9F7F7F79
:1007500087876767FFFFFFFF0707E7E76767676749
:100760006767E7E70707FFFFFFFFFFFF00007F7FE7
:100770006060606060607F7F0000FFFF0606989801
:10078000787898987E7E8787797986867F7F868637
:10079000070798987979FFFF00007F7F60606060AD
:1007A00060607F7F0000FFFFFFFFFFFFE6E60606B9
:1007B0001E1EE6E67E7E7E7E66668787F8F879797D
:1007C00006069F9FF8F86767E6E6E1E10606E1E1C5
:1007D0007878616118181F1F8686E6E666661E1E19
:1007E000666666669E9EFFFFFFFFFFFF1F1FFEFE01
:1007F0001E1EF9F99E9E1E1E66666161E1E17E7E07
:100800001E1E9F9F070780807F7FF9F9E6E61F1F66
:10081000FEFE86866666868667676161FEFEE0E0AC
:10082000181860606767FFFFFFFFFFFF7878E7E752
:1008300018181F1F19197E7E6666F8F8E7E77878A2
:100840008080E7E7F8F861618686F9F901019898F8
:100850007979E7E7606007079E9E7E7EF9F961611E
:10086000FEFE60601E1EFFFFFFFFFFFF66667F7FCC
:1008700078787E7E666678786666E1E11F1F0606F8
:100880007F7F0101070718186767E7E706066161C0
:10089000FEFEF9F90606E6E66161E6E60707FEFEFA
:1008A000878718189898FFFFFFFFFFFF0000FEFEE4
:1008B000060606060606FEFE0000FFFF9E9E8686D2
:1008C00078780000F8F818180606F9F9E6E6666682
:1008D000E1E19F9FE0E087878686E7E70000070762
:1008E000797998987F7FFFFFFFFFFFFFE0E0E7E760
:1008F000E6E6E6E6E6E6E7E7E0E0FFFFE1E1E7E778
:10090000E0E0F8F8E7E7E6E6FEFEE1E1F9F9E0E02D
:10091000F9F9F9F9E1E1E7E7F9F9E7E7E0E0FEFEE7
:10092000FEFEE1E1FEFEFFFFFF6018000000000098
:1009300000000000000000000000000000000000B7
:100940000000007F415D55577F416D6D517F4155DE
:10095000555D7F416D6D417F057D417D057F415531
:10096000555D7F415D5D633E007F415D55497F116F
:100970007747711F00000000000000000000000029
:100980000000000000000000000000000000000067
:10099000007F416D6D417F007F4175151D7F417F57
:1009A000515555457F417777417F007F415D5557D0
:1009B0007F416D6D417F415F50507F415F50507F5F
:1009C0004155555D7F415D5D633E007F415F685FDE
:1009D000417F416D6D417F417B77417F415D5D632B
:1009E0007F416D6D417F0000000000007F416D6D13
:1009F000417F417B77417F415D5D633E007F417D6B
:100A0000137D417F416D6D417F417B77417F117740
:100A100047711F007F417D137D417F416D6D417F97
:100A2000417B77417F117747711F007F415D5D41B9
:100A30007F057D417D057F417777417F4155555D3C
:100A40007F416D6D517F515555457F13081F1F081C
:100A50000A0A021F001A1A1E1F0E0411040E1F1F7D
:100A60001F1F000E0E001F001A1A1E1F001A1A1E4A
:100A70001F1F1F1F1F1F1F1F1F1F1F1F1F1F1F1F86
:100A80001F1F1F1F1F1F1F1F1F1F000E0E001F00F5
:100A90001D1B17001F1F1F1F1F340713353C370D69
:100AA0000F80809090A0A0001000100010020200A3
:100AB0000100020000E1933B3C813612B132291360
:100AC00092241E3983101000000000000000000076
:100AD0000000000000000000000000000000000016
:100AE000000000000000000004020606263030B0BE
:100AF000B080B0B030303000000301020303004189
:100B000021616061000000000000000000402060E2
:100B100060600000000000000006020406060000FD
:100B200003030303030000808000A0B03034B286CA
:100B30008686800000000001000109050C0C0D01F3
:100B400019111918180000101000000000E0F0C082
:100B5000E3F6C0C08080C0000000003C7FFFFF7F44
:100B60003F3F7FFFFF7F3D0200000000209CF8F028
:100B7000F8F9F0E0C060C000000000003EFFFF3F59
:100B80000F0F3FFFFF1F020000000000002C06C0F7
:100B9000F8F0C0800000200000000060F8FC7F7FBB
:100BA0003F3F3F7FFCF060000000000000020000BB
:100BB0001C0E100000000000000070F8FC7E7E3F5C
:100BC0003F3F7F7EFEFFFE70000A1000022AAA96B9
:100BD000A6BA2A0200000000022939020000000F14
:100BE0002000806010180C0EEA0E0C1810608000B7
:100BF00000FF0082828282FB828A9AAA00FF00C0E4
:100C00005FC0D8D0C0C0DEC0C0C0C0C05FC00002DE
:100C100000000202020202020200000200101000A4
:100C2000FC8294AE3EBEBEBEBE3EBABC82FC00009C
:100C30001E00181C1C1B1A1A1B181418001E00007A
:100C4000010203000000000202020202020010087A
:100C5000FFFFFFFFFFFFFFFFFFFFFFFFFFFFFFFFA4
:100C60001010000000C080C080C080F870F8E0F074
:100C700000E0C0F070F8B8FC80FC80C080C000C00C
:100C80000000007070F8F8FDE5FF65FF67FFAEFF3C
:100C9000BEFFBEFFAFFF67FF65FFE5FFF8FD70F821
:100CA00000700000006040E0C0E0C0FCB8FC70F8DC
:100CB00000F060F8B8FCDCFEC0FEC0E040E0006080
:100CC00000000000007070FCFCFFF2FF63FF27FFD4
:100CD0003FFF3FFF27FF62FFF2FFFCFF70FC007049
:100CE000000000000018103830F8B0FFAEFFDCFE46
:100CF000C0FCD8FECEFFB7FFB0FF30F810380018A8
:100D0000000000000000003E3EFFFCFFF8FF19FF5E
:100D10000FFF0FFF19FFF8FFFCFF3EFF003E000032
:100D200000000000006040E0C0E0C0FCB8FC70F8CB
:100D300000F060F8B8FCDCFEC0FEC0E040E00060FF
:100D400000000000007878FEFEFFF2FF63FF27FF3F
:100D5000BFFFBFFF27FF63FFF2FFFEFF78FE0078B3
:100D6000000040100E4EEEE6E0E4EEEC0E4EAEEE6D
:100D7000E2E4E2400AC6EEEEE2E4EEE60E6EAEEE2D
:100D8000E0E4EA4E0A66AE66E0CEEECC0E6CAA62F5
:100D9000E06CEEEE0E4EEECCA0C6EEEC0E6CAA6051
:100DA000E0EEEEC60A66AE66E0CEEECC0E6DA96150
:100DB000E06CEEEE0E4EEECCA0C6EEEC0E6CAA6031
:100DC000E0EEEEC60E4EEEE6E0E4EEEC0E4EAEEEDB
:100DD000E2E4E2400AC6EEEEE2E4EEE60E6EAEEECD
:100DE000E0E4EA4E0F0800606078787E7E7F787ECF
:100DF0006078187E7E7F787E6078187E7E7F787E31
:100E0000607800600610FEFF01FFFDFFFDFFBFFFE1
:100E1000FEFF070F0E0F0F0F0B0F080F070F00FE3F
:100E2000FEFF01FFBDFFFEFF00FE0007070F080FDA
:100E3000080F070F0007000000FFFFFFFFFF00FF84
:100E400000000000000F0F0F0F0F000F000000FE4A
:100E5000FEFFBDFF01FFFEFF00FE0007070F080FAA
:100E6000080F070F0007FEFFBFFFFDFFFDFF01FF9B
:100E7000FEFF070F080F0B0F0F0F0E0F070F0001DC
:100E8000020304030201101000000000000000E053
:100E9000E0F0F0F8C0FBE3F7F6FFC0FEC0E080C072
:100EA00080C0C0E000E000000000003C3C7F7FFF0D
:100EB000F3FF63FF6FFF3FFF3FFF6FFF63FFF3FF32
:100EC0007FFF3D7F023F000200000000002020FE67
:100ED0009CFEF8FCF0F8F8FDF9FFF0F960F040F046
:100EE00060F0C0E000C0000000000000003E3EFFD7
:100EF000FCFFF8FF19FF0FFF0FFF1CFFFCFFFEFFB9
:100F00001FFF021F00030000000000000000002C73
:100F10002C7E06FFC0FFF8FCF0F8C0F080C0008017
:100F200000202070002000000000006060F8F8FC45
:100F3000E4FFE7FF6FFF1FFF1FFF6FFFE7FFE4FF07
:100F4000F0FC60F000600000000000000000000203
:100F50000207000200BC1CBE0E9F10BF00100080E4
:100F60000080000000000000007070F8F8FCE4FE53
:100F7000E6FF6EFF2FFF3FFF3FFF2FFF6EFFE6FFF5
:100F8000E7FFFEFF70FE00700518007878FE8EFF08
:100F900078FE0078000000FFFFFF00FF0000000067
:100FA00000FFFFFF00FF0000130800FF76FF00FFB7
:100FB00006CF41EFC6FF90FF24FE2C7E287E2C7EBC
:100FC000247E10FFA2FFD5FF15FF031F00030000C2
:100FD00000FF76FF00FF060F018F86FFD0FFA4FE03
:100FE0002CFE287E2C7E24FED0FFA6FF01FF153F9D
:100FF000153F031F000300FF76FF00FF060F010FE0
:10100000067F10FFA4FEACFE28FE2CFEA4FED0FF3F
:1010100026FF017F051F153F133F001B2908000015
:1010200000000008081C081C1C3E143E143E143E20
:10103000081C081C081C081C081C081C081C081C90
:10104000001C0C1F011F0D7F49FFC2FF88FF28FEF7
:10105000287E287E287E287E08FFA2FFC9FF09FF80
:10106000011F0B1F081F081C081C081C081C001C63
:1010700000000008081C081C1C3E143E143E143ED0
:10108000081C081C081C081C081C081C081C081C40
:10109000001C0C1E001F0D1F091F019F8AFFC8FFA7
:1010A000A8FE28FE287E287E28FEC0FFAAFF09FF92
:1010B000011F091F0B1F081F081C081C081C001C0F
:1010C00000000008081C081C1C3E143E143E143E80
:1010D000081C081C081C081C081C081C081C081CF0
:1010E000001C0C1E001E0C1F0B1F011F091F0A3FB6
:1010F00008FFA8FEA8FE28FE28FEA0FEC8FF2AFFC3
:10110000017F091F091F0B1F081F081C081C001C5A
:1011100000000000120800000003036741EFC6FF53
:1011200090FF24FE2C7E287E2C7E247E00FF92FFE2
:10113000D5FF05FF030F000300000003031F153F49
:1011400011BF86FFD0FFA4FE2CFE287E2C7E24FE3D
:10115000D0FFA6FF01FF153F153F031F0003001B33
:10116000133F153F011F067F10FFA4FEACFE28FEB3
:101170002CFEA4FED0FF26FF017F051F153F133F65
:10118000001B1510006040E0C0E040E040E000F8C7
:1011900078FC7CFEFCFEFEFF3EFFDEFF5EFF7CFE79
:1011A000FCFE58FC40F840E0C0E040E00060000079
:1011B0000000000101030207000F0F1F0E1F163F62
:1011C000173F173F163F1E3F0F1F0F1F020F02074B
:1011D0000103000100000000071000F070FCDCFEBD
:1011E00098FE9EFFBAFFFCFF00FFAEFF78FFCFFF27
:1011F000B1FFA0FFA0FF10080004040E0E1F0A1F7D
:101200000A1F041F040E040E040E040E040E040E26
:101210000E1F0E1F0A1F001B0910CEFFB6FF96FF00
:101220009EFFDEFF7CFEFCFEF0FC00F0A0FFA0FFB6
:10123000B1FFCFFFF8FF7EFFAFFFAFFF00FF130846
:101240000018183C103C0C3E061F0C1E081C00B871
:1012500000F8A0F820F810F850F850F800F8A0F8BE
:10126000B0F830F80070081000000006023F3D7F23
:101270007DFF02FF000600000000000000000000EB
:101280000000000000000000000C040E02FFFDFF43
:10129000FDFF02FF040E000C000000000007070F16
:1012A0000F1F001F00000000101000C0C0E080E011
:1012B00020F040E000DC1DFF3FFFBFFFB3FF1FFF3A
:1012C0001FFF33FFBFFF01FF00000000000100010E
:1012D00000191038307C247F0B3F033F0B1F081F81
:1012E0000B3F207F173F173F001F14080018183CC2
:1012F000103C043E0C7E087C08FCB0FC38FCB8FCBA
:1013000080FCB8FC30FC007C087C0C7E0C1E001EAF
:101310000C1E000C19080018183C103C0C3E061F4F
:101320000E1F0C7E007C00FC90FC50FC88FCA8FC8E
:10133000A8FC50FC10FC007C047E060F030F040F79
:10134000060F000F060F0006121000C000E060F04C
:1013500060F040E000CE0EDF1FFFBFFFB9FFAFFF20
:101360002FFF39FF1FFF00DF40E060F000E00003C7
:101370000207020700030000007F297F357F287FD6
:101380000A7F0A3F153F011F061F000F070F0307C3
:10139000000317080018183C103C0C3E061F0E1FD7
:1013A0000C1E001C00FC90FC50FC88FCA8FCA8FC57
:1013B00050FC10FC003C0C1E061F0C3E103C183C60
:1013C00000181310008080C000C040E0C0E080CE54
:1013D0000EDF1FFFBFFFB9FF2FFFAFFF39FF1FFF5A
:1013E00080DF40E000E080C00080000101030103D5
:1013F00000030001000100FF6BFF337F0B3F08FF7C
:101400006BFF337F003F0001000301030103000174
:1014100012080000000E060F061F147E50FC40FC50
:1014200010FC88FCA8FCA8FC50FC10FC40FC047ECE
:10143000060F000E0000000E060F067F54FE50FC43
:1014400000FC90FC50FC88FCA8FCA8FC50FC10FCA4
:1014500040FC54FE067F060F000E000E066F46FF8E
:1014600054FE107C00FC90FC50FC88FCA8FCA8FCFE
:1014700050FC10FC007C54FE46FF066F000E0D0869
:10148000183C247E187E183C183C183C081C000CA4
:1014900000000000000000000000183C247E5AFFFD
:1014A00018FF183C183C183C183C183C183C183CD9
:1014B000081C000C16100000000000000000008056
:1014C00080E0E0F0E0F0F0F8F0F8F0F870F870F894
:1014D000F0F860F0E0F080E0008000000000000024
:1014E00000000000000000000000003F3F7F67FF99
:1014F00047EF01CF0001000100010101010100C11E
:1015000041FF3F7F003F000000000000000000C0DE
:1015100080C00080008000C0C0F0F0F870F838FC97
:10152000F8FCE8FC28FC28FCE8FCF0F830F8C0F0F7
:1015300000C00080008080C000C0000101030307DC
:101540000307033F387F7FFF60FF00E100030103D3
:1015500001030103010300E360FF3F7F003F030736
:1015600003070103000100000000000000000080EC
:1015700080E0E0F0E0F0F0F8F0F8B0F830F830F8A3
:10158000B0F8E0F0E0F080E0008000000000000033
:1015900000000000000000000000003F3F7F7FFFD0
:1015A00061FF01E341E301E341E301E341E301E3DF
:1015B00061FF3F7F003F000000000000000040E0AE
:1015C000C0E0C0FEBCFE78FC80F8E0F0E0F0F0F88F
:1015D000F0F8F0F8F0F8F0F8F0F8E0F0E0F080E083
:1015E0000080000000000000000000000001000179
:1015F0000001003F3F7F7FFF7FFF61FF40E340E34B
:1016000040E340E340E340E361FF3F7F003F0000F1
:10161000000000000000000000000000000000804A
:1016200080E0E0FFAFFF5AFF58FEB0F8B0F8B0F826
:10163000B0F858FE5AFF8FFF008F00000000000036
:1016400000000000000000000000003F3F7F7FFF1F
:1016500061FF01FB41F321F361F361F321F341F3F6
:1016600001FF3F7F003F000000000000000000007D
:1016700000000000000000C0C0E0E0F0C0FFFDFF7F
:101680007DFF70FF60F860F870FF7DFFBDFFC0FF59
:1016900000C000000000000000000000000000008A
:1016A0000000003F3F7F7FFF61FF01E30183018373
:1016B00001830183018301E361FF3F7F003F00005D
:1016C00000000000000000E040E040E040E0C0E03A
:1016D00080E060F0E0F0F0F8F0F870F830F830F802
:1016E00070F8E0F0E0F080E0008000000000000012
:1016F00000000000000101030103013F3D7F7FFF67
:1017000061FF01E30183018301830183018301E31D
:1017100061FF3F7F003F000000000000000000006C
:1017200000000000000000FCDCFEDCFEDCFEDCFF54
:10173000FDFFDDFF4DFF95FFDCFFFCFEDCFEDCFE68
:1017400000FC00000000000000000000000000009D
:101750000000003F3F7F7FFF61FF01E301830183C2
:1017600001830183018301E361FF3F7F003F0000AC
:101770000000000000000E100000000000CE8EDF10
:101780009FFF3FFFB9FF2FFFAFFF39FF9FFF00DF34
:1017900000000000000000000033317F257F143F6F
:1017A0000B1F081F0B3F337F387F103F00180000CE
:1017B0000000000000CE8EDF9FFF3FFFB9FF2FFF2C
:1017C000AFFF39FF9FFF00DF0000000000000007AF
:1017D000050F057F287F337F0B7F087F2B7F337FAB
:1017E000207F056F000700000000008080CE8EDFA4
:1017F0001FFFBFFFB9FF2FFFAFFF39FF9FFF80DF44
:10180000008000000007050F050F001F0B3F337F0E
:101810002B7F087F2B7F133F001F050F050F00074D
:101820000001020114100000000000E08000000030
:1018300000000080E0000000000000000000000147
:1018400007070E0E0E0E0707010000000000000043
:1018500000F0C080000000000000000080C0F00028
:1018600000000000000003070F0F1E1E1E1E0F0FBA
:101870000703000000007CF0C08080000000000032
:1018800000000000008080C0F07C0001070F0F1FE7
:101890001F3E3E3E3E3E3E1F1F0F0F0701000C182D
:1018A0000000008080808000000000000000000038
:1018B0000081C3FFFF3C00000000000101010100A6
:1018C000000000000000202060E0C0C08000000098
:1018D000000000000000C3FFFFFF3C000000040404
:1018E000060703030100000004040C0C1C78F8F048
:1018F000F0E0800000000000000081FFFFFFFF7E9D
:1019000020203030381E1F0F0F070100070800008D
:1019100000000000000000000000000000000000C7
:101920000008081C0008000000000008081C083E11
:101930003E7F083E081C0008081C081C1C7F7FFF17
:101940001C7F081C081C081C0008085D5DFF085D62
:101950000008081C000000000008081C0008000027
:10196000000000000000000000000000010203046D
:1019700005040B010B0502000003060E14171719CE
:1019800019191A1A1A1A1919191717140E06081004
:10199000003C3C7E64FF03E7C0E726FF3C7E003C42
:1019A000003C3C7E26FFC0E703E764FF3C7E003C32
:1019B0000810F8FC18FC08FCE8FCE8FC08FC18FC23
:1019C000F8FC1F3F183F103F173F173F103F183FCD
:1019D0001F3FF8FCF8FCD8FC08FC08FCF8FCF8FCFD
:1019E000F8FC1F3F1F3F173F103F103F173F1F3F9F
:1019F0001F3FF8FCD8FCC8FCE8FC68FC08FC98FC1D
:101A0000F8FC1F3F133F113F143F163F173F173F8E
:101A10001F3FF8FCD8FCC8FC68FC68FC08FC98FC7C
:101A2000F8FC1F3F1B3F133F173F173F103F183F66
:101A30001F3FF8FC78FC38FCF8FC08FC08FCF8FCBC
:101A4000F8FC1F3F1E3F1E3F1E3F103F103F1E3F32
:101A50001F3FF8FC08FC08FC68FC68FC68FCE8FC1C
:101A6000F8FC1F3F1B3F133F173F173F103F183F26
:101A70001F3FF8FC18FC08FC68FC68FC68FCF8FCDC
:101A8000F8FC1F3F183F103F173F173F103F183F0C
:101A90001F3FF8FCC8FCC8FCE8FC68FC08FC88FC9C
:101AA000F8FC1F3F1F3F1F3F103F103F1F3F1F3FCE
:101AB0001F3FF8FC98FC08FC68FC68FC08FC98FCDC
:101AC000F8FC1F3F183F103F173F173F103F183FCC
:101AD0001F3FF8FC98FC08FC68FC68FC08FC18FC3C
:101AE000F8FC1F3F1B3F133F173F173F103F183FA6
:101AF0001F3F081000FCFCFEFEFFFEFFFEFFF6FF8E
:101B000000FFF8FC000F0F1F133F133F173F173F55
:101B1000103F1F3FF8FCF8FCF8FCF8FCF8FCF8FC60
:101B2000F8FCF8FC1F3F1F3F1F3F1F3F1F3F1F3F99
:101B30001F3F1F3FF8FCF8FCF8FCF8FCF8FCF8FC31
:101B4000F0F800F01F3F1FFF5FFF5FFF5FFF5FFFC9
:101B50003F7F003F6813E513871468133614621340
:101B60001308001A181F0016001F000F001F080A94
:101B7000021F000A0E000006011501260137014A66
:101B8000015D01720188019F01B801D201EE010BD4
:101B9000022A024B026E029302BA02E40210033FD1
:101BA000037003A403DC03170455049704DD042722
:101BB000057505C80520067D06E0064907B8072D0E
:101BC00008A9082D09B9094D0AEA0A900B400CFA38
:101BD0000CC00D910E6F0F5A1053115B1272139AB5
:101BE00014D41520178018F519801B231DDE1EB490
:101BF00020A622B524D5F08D14A1C881CFD9F1AF8C
:101C000020005810F0F89C8E8783878E9CF8F00097
:101C100000FEFF0303030303070EFCF80000FEFFB2
:101C20000303030303070EFCF80000FFFF0000009E
:101C300000000000FFFF0000FEFF8383838383C753
:101C4000EE7C380000F8FC0E07030303070EFCF8D7
:101C500000003F7FE0C08080C0E07F3FFFFF0101C8
:101C60000101010101FFFF0000FFFF0C0C0C0C1C27
:101C70003E77E3C100007FFFC0C0C0C0C0E0703F3E
:101C80001F00001F3F70E0C0C0C0E0703F1F000099
:101C90007FFFC1C1C1C1C1E3773E1C00001F3F707F
:101CA000E0C0C0C0E0703F1F000000000001FFFF67
:101CB000010000005215191640150C212E15E221C5
:101CC000E516EA156113080B00020202010009047F
:101CD000000001020200000524001001052401019A
:101CE00001042402060524060001070581031000F3
:101CF0004009040100020A0000000705020240003A
:101D000000070583024000000403090412010002D9
:101D1000EF020140412336800001010203014172BC
:101D20006475696E6F204C4C430041726475626F3C
:101D300079002D2911241FBECFEFDAE0DEBFCDBF21
:101D400011E0A0E0B1E0EAE0F8E502C005900D92F4
:101D5000A034B107D9F727E0A0E4B1E001C01D929B
:101D6000A138B207E1F71EE0CAE9DEE004C021971E
:101D7000FE010E94FD2BC939D107C9F70E944F29E6
:101D80000C94032C0C9400006F927F928F929F9280
:101D9000AF92BF92CF92DF92EF92FF920F931F9379
:101DA000CF93DF937C01B0E0A0E0FA01802F90E0B8
:101DB000C590B590211511F49115B1F047E04B0D88
:101DC000479546954695833009F4440F4C9DA001F4
:101DD000249FE00DF11D259FF00D109629F0949F92
:101DE000A00DB11D959FB00D11248F3F21F41096C9
:101DF00082E009F081E0CC2DD0E0A7014C0F5D1FFF
:101E0000141615060CF06FC090E8E916F1040CF0FA
:101E10006AC09B012B0D311D121613060CF063C016
:101E2000603471050CF05FC0309709F45CC0362F48
:101E300037708B0177FF02C0095F1F4F93E0159544
:101E400007959A95E1F7202F77FF04C0332311F00F
:101E50002FEF200F002711270E191F09F7FC02C0D2
:101E600010E000E090E89E19403851050CF49C2DDC
:101E7000901B422F022E000C550BA42EA0942F3F36
:101E80000CF0A12CDD24D3946B2D677009F4D12CB8
:101E9000B694B694B694DB0C4D0D511D49305105E6
:101EA0001CF048E0D42ED21ADA182A0D40E8240398
:101EB000B00111246E0D7F1D600F711FCA9C000DB3
:101EC000111D1124AF01400F511FE32E032E000CF2
:101ED000FF08833009F410C1A8F4813009F4C3C0AD
:101EE000823009F471C0DF91CF911F910F91FF9063
:101EF000EF90DF90CF90BF90AF909F908F907F90AA
:101F00006F9008958A3F91F1BD2CB20E8B3F59F727
:101F10002B1549F3DB01AA5DBC4F10E000E0091767
:101F200008F09BC0FA01E00FF11FE491F0E00E2CE5
:101F300002C0EE0FFF1F0A94E2F727FD05C08C9147
:101F4000DE2ED0948D218C93332361F0273054F40E
:101F50006D0180E8C80ED11CAF2EA094F6018081DF
:101F60008A2180830F5F1F4F1196D9CFBD2CB20EEF
:101F70002B1509F4B8CFDB01AA5DBC4F10E000E0DF
:101F8000091708F064C0FA01E00FF11FE491F0E0D6
:101F90004F010E2C02C0880C991C0A94E2F727FD11
:101FA00003C08C9188298C93332351F0273044F45B
:101FB0006D0180E8C80ED11CF601808189298083DB
:101FC0000F5F1F4F1196DCCFAFEFB0E0032E02C0C2
:101FD000AA0FBB1F0A94E2F7A095B0959B2E8D2CFB
:101FE000820E281509F47FCF8B010A5D1C4FD12C7E
:101FF000C12CC91630F5FA01EC0DFD1DE491F0E09D
:102000003F010E2C02C0660C771C0A94E2F727FDF4
:1020100005C0F80180818A2386298083332359F003
:1020200027304CF45801F0E8AF0EB11CF501808167
:10203000892187298083FFEFCF1ADF0A0F5F1F4FA7
:10204000D8CF2F5F4C0F5D1F60587F4FCACF2F5FD7
:102050004C0F5D1F60587F4F8BCF2F5F4C0F5D1F64
:1020600060587F4F55CFA00FB11F8D2D820F2817BD
:1020700009F439CF8B010A5D1C4FD12CC12CC91634
:1020800098F5FD01EC0DFD1DA490B12C0E2C02C0A5
:10209000AA0CBB1C0A94E2F7A094B094FA01EC0DD0
:1020A000FD1D8490912C0E2C02C0880C991C0A9462
:1020B000E2F727FD08C0F8017080E72DEA217E2EA7
:1020C0007828F8017082332349F027303CF4F80176
:1020D000E058FF4FA080BA20B928B082FFEFCF1A96
:1020E000DF0A0F5F1F4FCBCF2F5F4C0F5D1FAC0F71
:1020F000BD1F60587F4FBBCFE92EF12CFA01E00FD6
:10210000F11FDB01AA5DBC4F00E810E00E191F09AA
:10211000CE19DF09BE01660F771F41E050E07A015A
:10212000032E01C0EE0C0A94EAF7592F4D2D892E8B
:10213000932ECF93DF93ED01EF96EF962296A59025
:10214000C590992059F0AE9C5001CE9C600127307B
:102150002CF4F880D094FD20FB28F99222233AF049
:10216000FC90C094FC20FA28FD920C94B8101196B3
:102170005A9529F74A9551F0582D23951124E60FC9
:10218000F11DA00FB11DC00FD11DD9CFDF91CF918F
:102190001124A9CE90917C07982329F490917B0774
:1021A000982381E009F480E00895E6E2F3E0A0E0FE
:1021B000B8E000800EBC8111012C1197A0FDFDCF6D
:1021C0000192B9F70DB40895FC018091250388238D
:1021D00011F13FB7F89482E08093E9002091F2007A
:1021E000822F90E01816190614F481E090E08823FD
:1021F00039F0289844E6409324034091F10040834D
:10220000222339F02091F200211103C02BE6209304
:10221000E8003FBF08958FEF9FEF08952FB7F89420
:1022200083E08093E9009091E800892F807295FF08
:1022300004C09091F20080E4891B2FBF0895809123
:102240001C0381110DC082E08093180384E0809309
:10225000190310921B0310921A0381E080931C0350
:1022600088E193E00895CF93DF931F92CDB7DEB757
:102270006983DC01ED91FC910280F381E02D41E066
:1022800050E0BE016F5F7F4F09950F90DF91CF91B6
:10229000089583E08093E9008091F200882319F08B
:1022A0008AE38093E80008950E940E1190E008955B
:1022B000CF93DF931F92CDB7DEB7FC018485958560
:1022C00097FD08C02FEF3FEF358724870F90DF91F0
:1022D000CF910895CE0101960E94E410019719F460
:1022E000898190E0F3CF8FEF9FEFF0CF0F931F9393
:1022F000CF93DF931F92CDB7DEB78C01FC018485AD
:10230000958597FF0BC0CE0101960E94E4100197BE
:1023100071F4898190E0F80195878487F8018485BC
:1023200095850F90DF91CF911F910F9108958FEFB9
:102330009FEFF1CFFC018485958597FD0BC09FB77A
:10234000F89482E08093E9008091F2009FBF90E0D2
:10235000019608959FB7F89482E08093E9008091F8
:10236000F2009FBF90E00895409112035091130333
:10237000209110033091110342175307B4F4909148
:10238000E8009570E1F39091E80092FD19C0809308
:10239000F100809112039091130301968F73992796
:1023A000892B19F48EEF8093E800809112039091AD
:1023B00013030196909313038093120381E0089511
:1023C00080E00895DF92EF92FF920F931F93CF93D7
:1023D000DF93D82E8A01EB017B01E40EF51ECE15AA
:1023E000DF0559F0D7FE12C0FE0184910E94B4119E
:1023F00021968111F4CF0FEF1FEFC801DF91CF912C
:102400001F910F91FF90EF90DF9008958881EECF9C
:102410000F931F93CF93DF931F92CDB7DEB782E068
:10242000898342E450E066EC7CE180E80E94E2119E
:102430000E941F11DC0112960D911C9101151105CE
:1024400089F0D801ED91FC910280F381E02DBE016D
:102450006F5F7F4FC801099597FD04C0F8010085A3
:102460001185ECCF89810F90DF91CF911F910F9152
:102470000895615030F02091F100FC012083019615
:10248000F8CF289884E68093240308950895FC01EA
:102490000E94DE12319728F068517C4F8F4F9F4F7A
:1024A000F9CFAB01FC010E94DE12641775078E079D
:1024B0009F07C8F308958F929F92AF92BF92CF92D9
:1024C000DF92EF92FF920F931F93CF93DF936C01F4
:1024D0007B018A0180910E01882309F45AC0809102
:1024E0002503882309F455C08091170380FF05C098
:1024F0008091E00082608093E000E801B12C8AEFD7
:10250000A82E93E0892E2AE3922E209711F4BB2067
:10251000C9F10E940E11811108C0AA94AA20C9F124
:1025200081E090E00E944712F0CF8C171D0611F059
:102530000CF08C2F9FB7F8948092E9002091E8006E
:1025400025FD02C09FBFE1CF282F30E0C21BD30B77
:10255000F701815020F041914093F100FACFE20E53
:10256000F31EBB2021F09092E800B12CEBCF8091BC
:10257000E80085FDE7CF9092E800BB24B394209754
:1025800009F3F3CF5D9884E68093160310161106C5
:102590003CF081E090E0F6019383828310E000E05C
:1025A000C801DF91CF911F910F91FF90EF90DF90C5
:1025B000CF90BF90AF909F908F900895A7E0B3E029
:1025C0002FB7F8947D918D919C9166B52FBFA89BF4
:1025D00005C06F3F18F47F5F8F4F9F4F22E0660F5B
:1025E000771F881F991F2A95D1F70895E82FF0E0EB
:1025F000EE0FFF1F8591949108950F9303E00E94C1
:10260000C40E0F9108950F930AEF0E94C40E0F910C
:1026100008950C944712109229023E983F9808950D
:102620003E9A3F9A81E0809329020895EF92FF92AB
:102630000F931F93CF93DF93CDB7DEB72C970FB6D1
:10264000F894DEBF0FBECDBF49835A836B837C8372
:102650009E83EF82F88609871A872B873C8729811A
:102660003A814F815885820F932F911D4817590742
:10267000D4F48B85840F952F911D281739079CF46E
:102680004B815C8169857A858E81840F952F911DA0
:102690006817790744F42C85260F372F311D81E008
:1026A000421753070CF080E02C960FB6F894DEBF6B
:1026B0000FBECDBFDF91CF911F910F91FF90EF9093
:1026C00008950895109228028FEF80935C01089579
:1026D0008091790790917A0783709927892B29F443
:1026E00080915B018F5F80935B0180915B01813101
:1026F00038F0809128028F5F8093280210925B014E
:102700000895E5EDF1E020EF31E090E08281881F4F
:102710008827881F980F33962E173F07B9F78091A7
:10272000CD01881F8827881F2091D001221F2227D2
:10273000221F820F2091D301221F2227221F820FE6
:102740002091CA01221F2227221F820F2091C5013A
:10275000221F2227221F820F2091C101221F222720
:10276000221F820F2091BE01221F2227221F820FCB
:102770002091BB01221F2227221F820F890FE3E92C
:10278000F1E027EB31E09381991F9927991F890F79
:1027900034962E173F07B9F790919201991F992708
:1027A000991F890F29F4809128028F5F8093280256
:1027B00008958091280290915C01891721F08093FF
:1027C0005C0181E0089580E008950E94D913882378
:1027D00079F080E890E09093900180938F0183E2FC
:1027E0008093910182E98093920187E080938E012A
:1027F0008091790780FD09C080918F0190919001AF
:1028000001979093900180938F0180918F01909117
:102810009001803F9F4F14F4109292010C94811309
:102820008091790790917A079C0127703327232B99
:1028300029F420918C012F5F20938C01E3E9F1E0D2
:1028400029E081709927009731F4408151814150EE
:1028500051095183408340815181403F5F4F0CF4C7
:102860001382215034962111EECF08950E94D9137E
:10287000882399F180ED8093CD0160E870E070933A
:10288000CC016093CB018093D00140EC50E0509399
:10289000CF014093CE018093D30120E031E030930B
:1028A000D2012093D101709394016093930194E03D
:1028B0009093950180E980939601509398014093FD
:1028C00097019093990180939A0130939C012093F2
:1028D0009B0190939D0180939E018091790780FDDB
:1028E00010C0EBECF1E080819181813E2FEF9207E7
:1028F00064F0019791838083339681E0E43DF8078B
:1029000091F70E9410140C9481131282F5CF0E944B
:10291000D913882309F448C0E5EDF1E080E491E0A3
:1029200020E92283918380833396C096803F32E0F2
:102930009307B9F7E3E9F1E020E830E09CE180E9B2
:102940003183208392838383205D3F4F34962037E9
:1029500041E03407A9F728E930E03093A80120933B
:10296000A70194E09093A9018093AA0128EC30E09C
:102970003093AC012093AB019093AD018093AE01F5
:1029800028EF30E03093B0012093AF019093B10174
:102990008093B20128E231E03093B4012093B30177
:1029A0009093B5018093B6012091790730917A0711
:1029B000C90169E070E00E94D52B892B29F4809130
:1029C000D4018F5F8093D401C90163E070E00E945D
:1029D000D52B892B81F4E5EDF1E080819181813E59
:1029E0002FEF920764F0039791838083339631E051
:1029F000E03FF30791F70E9410140C9481131282A8
:102A0000F5CF40910B02842F806880930B02942FA6
:102A10009370E9F08091FE0127E0829FF00111247C
:102A2000E051FE4F31E0358334839150928313821D
:102A30002091FF019091010246FD0AC0275E20838C
:102A40009650918336838F5F81708093FE01089545
:102A50002F5F20839E5091831682F5CF20E049E2BC
:102A600059E064E270E080E190E00E9403138CE0A2
:102A70000E94CA10882319F081E080930F03089503
:102A800020E047E257E070E060E080E290E00E94E2
:102A900003138CE00E94CA10882319F081E0809310
:102AA0000F030895CF93C0915B01CF5FC0935B018B
:102AB00020E043E355E064E070E082E290E00E94B1
:102AC0000313C93718F081E080930F03CF91089565
:102AD000CF92DF92EF92FF920F931F93CF93DF93EA
:102AE000482F262F3091790790917A07832F66E03F
:102AF00070E00E94D52B892B29F480918E018F5F85
:102B000080938E0130FD06C0809159018F5F8F77D1
:102B1000809359013BE0239F7001112432E1239FF0
:102B2000C0011124CD96489F8001499F100D1124AA
:102B300037EF3203B00111246A5E7F4F060F171F73
:102B4000D0E0C0E08FE0C82ED12CFE01E25DFA4F4C
:102B5000E49180918E018E0F9927991FB6010E94F2
:102B6000E92BFC01EE59F64E2491FE01E75DFA4F88
:102B700064916E0D7F2D711D4CE059E1C8010E94DA
:102B8000FD1221960C5F1F4FC530D105F1F6DF9184
:102B9000CF911F910F91FF90EF90DF90CF9008950C
:102BA00020E047E251E070E060E090E080E00E94C9
:102BB0000313E091590120E0EB3020F4F0E0E45EF3
:102BC000FE4F24914CEA50E06EE270E085E390E025
:102BD0000C9403130E94D01520E040E65BE161E213
:102BE00070E088E190E00E94031320E040E65BE1A2
:102BF00061E270E085E590E00E94031320E040E68A
:102C00005BE16CE270E08FE090E00E94031320E053
:102C100040E65BE16CE270E08EE590E00E94031319
:102C200080ED0E94CA10882319F086E080930F037C
:102C30000895CF93DF930E94D01520E049ED56E030
:102C400061E270E088E190E00E94031321E049ED29
:102C500056E061E270E085E590E00E94031322E017
:102C600049ED56E06CE270E08FE090E00E940313C3
:102C700023E049ED56E06CE270E08EE590E00E94C2
:102C80000313C0915A01D09101016C2F8D2F0E9426
:102C9000681580E40E94CA10882341F0D11106C053
:102CA00081E080930101DF91CF91089580E20E943D
:102CB000CA10882311F0D11115C080E10E94CA10FA
:102CC000811113C080E80E94CA10811114C08CE0E9
:102CD0000E94CA10882339F3CC0FDE5FCD0FC0935A
:102CE0000F03E1CF10920101DECFC111EBCF81E0E4
:102CF00080935A01D8CFCC2351F310925A01D3CFED
:102D0000CF930E94C32A28E030E040E050E00E94C8
:102D1000722B86E0689FA0011124ACE0B2E090E045
:102D200080E070E06756754FC8E0FC01EF55F54F45
:102D3000E491F0E01196FC93EE93FC01E955F54F18
:102D4000E4911296EC931297FB01249130E0082E47
:102D500002C0359527950A94E2F7217013962C93BB
:102D600013979A01280F391F2F31310521F038F4BC
:102D70002B31310551F41296CC93129706C02732AD
:102D80003105C9F32B323105B1F301961496863023
:102D9000910559F6CF9108950E94C32A23E030E0AF
:102DA00040E050E00E94722B97FD0CC0623071052C
:102DB0008105910544F0623071058105910511F49A
:102DC00080E00895089581E008952F923F924F92F8
:102DD0005F926F927F928F929F92AF92BF92CF92AB
:102DE000DF92EF92FF920F931F93CF93DF93CDB7B4
:102DF000DEB7AC970FB6F894DEBF0FBECDBF80ED47
:102E00000E94CA10882319F087E080930F0380E2A4
:102E10000E94CA10882319F081E080930F0388E094
:102E20000E94CA10882381F080910B0287FF0E94C4
:102E3000011580910502833039F480910B0285FDE4
:102E400003C0806280930B0284E00E94CA10882332
:102E500031F080910B028F77806480930B02209178
:102E6000790740917A07822F942F69E070E00E94E1
:102E7000D52B892B31F4809104028F5F837080936E
:102E8000040230910B0235FF1DC0822F942F63E0A6
:102E900070E00E94D52B892B49F4809108028F5F46
:102EA0008093080280E1382730930B02809108025A
:102EB0008F3140F080910B02109208028F7D80616B
:102EC00080930B0280910B0286FFBFC620FD05C0D8
:102ED000809107028F5F8093070280910502813005
:102EE00031F4809107028B3011F40E94011580911A
:102EF0000702843138F080910B02109207028F7B19
:102F000080930B0240910B022091790730917A0750
:102F100042FF1FC0C90165E070E00E94D52B892BDC
:102F200049F4809109028F5F8093090288E0482765
:102F300040930B0280910902803158F080910B027E
:102F400010920902837F80930B0280910602809386
:102F5000050280910B0287FF10C020FD05C09091F3
:102F60000A029F5F90930A0290910A029B3028F018
:102F700010920A028F7780930B02E0910B024E2F82
:102F8000437086E0489FA001112460EF662E61E047
:102F9000762E2301D20115968C9115978823E9F09E
:102FA00013968C9113978F5F13968C9313971696A5
:102FB0009C911697992309F458C69C919F5F9C9306
:102FC0008417150651F04CF0D20113961C921397FA
:102FD00015961C92159714961C92B7E04B0E511C37
:102FE000FEEF4F16F1E05F06A9F68091FF01909188
:102FF00000021816190614F01092030290910302B1
:103000008E2F8C7F933008F037C6109205029130D6
:1030100009F032C6E1E0E80FE0930B02C9018370CA
:103020009927892B31F480918D018F5F8370809374
:103030008D01C90163E070E00E94D52B892B21F539
:103040009BE7E92E91E0F92E10E000E020EAC22E85
:10305000D12C30E1832E912CA12CB12C332433942C
:10306000D7018D919C910197813BBFEF9B070CF499
:1030700012C6F701918380830F5F1F4FB2E0EB0E02
:10308000F11C0330110561F7E0912802F0E0EE0F2A
:10309000FF1FEC5AF44E85919491FC01099571E85B
:1030A000C72E71E0D72EEBE78E2EE1E09E2EFDE5D8
:1030B000AF2EF1E0BF2E25E731E03C8F2B8F48E7A4
:1030C00051E05A8F498FD6018D916D01F401E19045
:1030D000F1904F01882349F020E04FED5BE065E07F
:1030E00070E0C70140960E940313A98DBA8D8D919F
:1030F000BA8FA98F882349F020E049EC5BE064E1B6
:1031000070E0C70143960E940313EB8DFC8D819103
:10311000FC8FEB8F882351F020918D0147E45BE019
:1031200064E070E0C70140960E9403138501312CD2
:10313000D8016C9170E0832D8695B0E28B9FC00121
:103140001124F801218145EC5AE08E0D9F1D0E944B
:10315000031333940E5F1F4FF4E03F12E9CF28E0D2
:10316000A20EB11C44E851E04C155D0509F0ABCF4F
:103170008091920184FF0CC06091910170E020E089
:103180004DE15CE080918F01909190010E940313CA
:103190008091BB0184FF1BC0E091BA01F0E0E15CCB
:1031A000F34F2491E090B701F090B8016091B9011C
:1031B00070E040E65CE0C7010E94FD120BEF20E0EA
:1031C0004EE45CE060E370E0C7010E94C40E8091B1
:1031D000790780FD09C08091840190918501019754
:1031E0009093850180938401809184019091850161
:1031F00081159E4F34F480E890E090938501809390
:103200008401E0908401F090850120E040E65CE0DC
:1032100067E270E0C7010E94FD120BEF20E04EE470
:103220005CE060E370E0C7010E94C40E06E811E0B4
:103230004CE8E42E41E0F42E50E8C52ED12C8091CC
:10324000790780FD07C0D8018D919C911197019756
:103250008D939C93F80180819181813C9F4F1CF458
:10326000D801CD92DC9220E042E65DE060E370E0C0
:10327000F801819191918F010E940313E016F106EC
:10328000F1F62BEC31E03CA32BA304ED11E03AA3C3
:1032900029A3A9A1BAA112968C91129784FF09C003
:1032A00020E044EE5DE069E270E08D919C910E9427
:1032B000FD12E9A1FAA13396FAA3E9A30E171F079D
:1032C00041F733E9232E31E0332E07EB11E03C8E3A
:1032D0002B8EAB8DBC8D13968C91139784FF11C0F0
:1032E000E0918C01E770F0E0E258F14F24911296E2
:1032F0006C91129770E044E05EE08D919C910E9489
:10330000FD12EB8DFC8D3496FC8FEB8F0E171F0793
:1033100001F78091C50184FF0DC06091C40170E088
:1033200020918D0146E85EE08091C2019091C30139
:103330000E94FD128091CA0184FF0DC06091C801F6
:1033400070E020918D0146E85EE08091C601909189
:10335000C7010E94FD1225ED31E03A8F298F8901C6
:10336000912CD8011296AC90A4FE22C0B090D4014A
:10337000B90CBB2DB170BF8B188EF801E080F180C5
:103380006701F2E0CF1AD1086F89788D655E7F4FB3
:1033900020E042E851E1C6010E94FD128A2D8370AF
:1033A000813009F4C1C408F4AFC4823009F4CBC43D
:1033B00093940D5F1F4F29E09212D3CF8091C101EA
:1033C000182F107184FF0BC020E048ED51E160E23E
:1033D00070E08091BF019091C0010E94FD12809128
:1033E000BE0184FF0BC020E046EF51E168E270E0CF
:1033F0008091BC019091BD010E94FD12112361F0EA
:103400008091BF019091C00120E048E152E160E26B
:1034100070E007960E94FD12F0900B02E09005020A
:103420000091010210910202C090FF01D0900002B1
:103430008F2D807D803509F450C508F09DC4803102
:1034400009F4DBC4D30115968C9115978823B9F044
:1034500014968C91149716969C911697992309F4BB
:103460004DC6882361F011966C91119770E08C9194
:1034700012962C914EE958E190E00E940313F7E078
:103480006F0E711C46145704E9F6B0909201B6FE17
:1034900040C08091790790917A0766E070E00E94C1
:1034A000D52B892B29F480918E018F5F80938E011B
:1034B00001E719E19AE7E92E99E1F92E2FE0C22EF2
:1034C000D12CF8013296E49180918E018E0F9927CC
:1034D000991FB6010E94E92BFC01EE59F64E24918A
:1034E000F80131966491F801949170E0605E7F4F2D
:1034F000A0918F01B09190014CE059E1FD01E91BD1
:10350000F109CF010E94FD120D5F1F4FE016F10679
:10351000C1F62091FF01309100023E8F2D8FC9012D
:1035200003969A8B898B88E08D8B8EE08E8B8091B1
:1035300001029091020220910B0226FFEAC5E09160
:103540000702F0E0E658F64EE49104978E1B9109CD
:103550009C8B8B8B5091FE0147E0459FF00111241D
:10356000E051FE4F818190E0208130E03C872B8745
:103570009E878D8788E08F87888BCC24C394C51A5B
:103580006090D401509105025F8BA12CD12C4C9DF1
:10359000C0014D9D900D112480519E4FDC01159668
:1035A000B8A3AF8F10E2512EFC013496F8A7EFA319
:1035B00003E0402E8CE1782EA98DBA8D8D909C90E1
:1035C000862D8A0D81708DA31EA2C40102969A8356
:1035D00089838DA19EA14D969C838B83BEE0BD8384
:1035E000E2E1EE83AF8DB8A18C918823A1F1E98D42
:1035F000FA8D82818073803171F5E980FA800B81C8
:103600001C812EE032E14B855C856D857E858F8542
:1036100098890E9416138823F1F0A98DBA8D12960D
:103620005C92EF8DF8A11082AFA1B8A51C92809199
:10363000240290912502A0912602B09127028C507D
:103640009E4FAF4FBF4F8093240290932502A093CB
:103650002602B0932702E98DFA8D82818073803132
:1036600001F5E980FA800B811C812D813E81498919
:103670005A896B897C898D899E890E9416138823BB
:1036800081F080910B0285FD4FC5FF89F23009F46E
:103690004FC5806280930B0280910302815080931A
:1036A0000302E98DFA8D8281982F9370913009F091
:1036B00044C5F2E18F1A91089A8289822DA13EA118
:1036C000265D3F4F3C832B837D824E828073803109
:1036D000F9F4E980FA800B811C812D813E814989B2
:1036E0005A896B897C898D899E890E94161388234B
:1036F00079F080910B0285FD0BC03F89323041F09B
:10370000806280930B0280910302815080930302B8
:10371000A394498D5A8D4D5F5F4F5A8F498F59E061
:10372000A5124ACFEBE28E2E912CF6E0AF2EA8E048
:103730007A2EB0E26B2EABA1BCA18D919C9111971A
:1037400004969A8389839C828B82AD827E821296B4
:103750008C918073803101F5E980FA800B811C81A6
:1037600026E038E049895A896B897C898D899E8950
:103770000E941613882381F080910B0285FDECC412
:10378000BF89B23009F4ECC4806280930B0280914F
:103790000302815080930302EBA1FCA13396FCA3AA
:1037A000EBA329A13AA12E173F0729F68091C80162
:1037B00090E004962091C6013091C7012E5F3F4FE3
:1037C0003A8329839C838B838CE08D838E838091C5
:1037D000CA018073803101F5E980FA800B811C8178
:1037E0002CE03CE049895A896B897C898D899E89C6
:1037F0000E941613882381F080910B0285FDB5C4C9
:103800003F89323009F4B5C4806280930B02809105
:1038100003028150809303028091C40190E00496DA
:103820002091C2013091C3012E5F3F4F3A8329831B
:103830009C838B838091C5018073803101F5E98081
:10384000FA800B811C812D813E8149895A896B89BF
:103850007C898D899E890E941613882381F080912E
:103860000B0285FD8AC45F89523009F48AC48062E4
:1038700080930B0280910302815080930302809118
:10388000BF019091C0019A83898380E290E09C837C
:103890008B8381E08D8380E18E838091C101807371
:1038A000803109F5E980FA800B811C8121E030E14B
:1038B00049895A896B897C898D899E890E94161352
:1038C000882389F080910B0285FD5FC49F89923027
:1038D00009F45FC46D8C7E8CA1E06A1A7108709245
:1038E00000026092FF018091BC019091BD019A831A
:1038F000898388E290E09C838B8380E18D8384E0E0
:103900008E838091BE018073803101F5E980FA8059
:103910000B811C8120E134E049895A896B897C89BB
:103920008D899E890E941613882381F080910B0255
:1039300085FD33C4EF89E23009F433C4806280939B
:103940000B02809103028150809303028091B901A0
:1039500090E008962091B7013091B8012E5F3F4F5B
:103960003A8329839C838B838CE08D8388E08E83CC
:1039700027E02C9DC0012D9D900D11249C0120510C
:103980003E4F6901D90115968C91882379F1809178
:10399000BB018073803151F5E980FA800B811C8175
:1039A0002CE038E04B855C856D857E858F85988918
:1039B0000E9416138823D1F080E28093BB01F601A8
:1039C000158214828091240290912502A0912602F2
:1039D000B09127028C509E4FAF4FBF4F809324026F
:1039E00090932502A0932602B0932702D090BB01AA
:1039F0008D2D8073803101F5E980FA800B811C8167
:103A00002D813E8149895A896B897C898D899E895E
:103A10000E941613882381F080910B0285FDC5C397
:103A2000FF89F23009F4C5C3806280930B02809154
:103A300003028150809303026AE0D62E70E1C72E04
:103A4000D10112968C9112978250990B2D913C9135
:103A50001197225031093A8329839C838B83DD821D
:103A6000CE8213968C918073803131F5E980FA8093
:103A70000B811C812AE030E149895A896B897C8954
:103A80008D899E890E9416138823B1F080912402AB
:103A900090912502A0912602B091270288539F4F52
:103AA000AF4FBF4F8093240290932502A09326022C
:103AB000B0932702F1011382F4E02F0E311C2B8DFD
:103AC0003C8D2215330509F0BBCF8091910190E028
:103AD00020918F01309190013A8329839C838B83BD
:103AE00080E18D838EE08E838B2D8079803999F5EE
:103AF000E980FA800B811C8120E13EE049895A89E6
:103B00006B897C898D899E890E941613882319F1FF
:103B10008091240290912502A0912602B091270263
:103B20008C509E4FAF4FBF4F80932402909325023D
:103B3000A0932602B09327028B2D877080930602F4
:103B400080EC8093920180910B02846080930B0241
:103B500083E0809303020CE012E054E2E52E52E091
:103B6000F52ED8018D919C911197019711969C93F8
:103B70008E9313962C911397222341F012966C91F9
:103B800070E020E04EE859E10E94FD120C5F1F4FEB
:103B9000E016F10631F780912002909121028130E8
:103BA0009F4F14F40E94801620E042EF5AE160E338
:103BB00070E082E090E00E94FD126091240270911A
:103BC000250280912602909127022AE0FE0131967B
:103BD0007F01AF010E941B2BF70101900020E9F744
:103BE00031978F010E191F09002E000C110BC8010F
:103BF00043E0880F991F4A95E1F722E042EF5AE12E
:103C000060E370E007960E94FD12D12C8D2D90E0AC
:103C1000801791070CF0D4C2F701E80FF91F20813B
:103C200021330CF4CBC220532A3008F0C7C233E052
:103C3000880F991F3A95E1F740EB59E160E370E096
:103C40000A960E94FD12D394E1CF8091FF019091DA
:103C50000002843191050CF055C920FD53C901962D
:103C6000909300028093FF014DC911969C9111978A
:103C70009F5F11969C93A4C9E0910502F0E0E35583
:103C8000F54FE491E80FE0930B029111C7C981E071
:103C900080930F03C3C9D701CD92DC920E94C32A3F
:103CA000A50194010E94722BD80183E0AA0FBB1FCB
:103CB0008A95E1F7A35ABE4F30E020E0E62FF0E00E
:103CC000EB54F54F849190E0022E02C095958795B4
:103CD0000A94E2F7837011968C9311972E5F3F4FF1
:103CE00012962830310571F70E94CC16F801EF5773
:103CF000FE4F80838325F801E858FE4F8083F8014A
:103D0000EB58FE4F8083B8C9EB2DE370F0E0E05E26
:103D1000F74E249144E151E16F89788D695D7F4FC1
:103D2000C7010E94FD1244CBEB2DE370F0E0E05E92
:103D3000F74E24914CE150E16F89788D695D7F4F9A
:103D4000C7014297EECFEB2DE370F0E0E05EF74E57
:103D5000249148EA5FE06F89788D695D7F4FC701E4
:103D600001970E94FD1220E048E85FE06F89788D9E
:103D7000615F7F4FC601D5CF803909F409C1803D0D
:103D800009F060CBA0900702B12C95012658364E61
:103D90005901C601039732E0F501E31281C1A490F5
:103DA000B8016A19710920E048E453E10E94FD124C
:103DB000F3FC12C0E0910702F0E0E658F64EE49101
:103DC000B8016B5071096E1B71092E2D44EB54E143
:103DD000C60104970E94FD122F2D2C702C3009F083
:103DE00031CBE0910702F0E0E658F64EE491B801DD
:103DF0006B5071096E1B7109FCC090910402292F50
:103E000030E0A901405E574E5A01FA0124919170A9
:103E10009D8F1E8E8D8C9E8C800E911E46E757E1E5
:103E2000B401C6010E94FD12F3FC0EC0B801695036
:103E300071092D8D3E8D620F731F2E2D44EB54E1C1
:103E4000C60104970E94FD128F2D8C708C3079F47E
:103E5000B801695071094D8D5E8D640F751F2091F9
:103E6000060244EB54E1C60104970E94FD122F2D77
:103E7000237080910302823000F1222371F0F5015A
:103E800034912150B4016A5F7F4F4EE754E1C6017F
:103E90000D96830F911D0E94FD12F5012491B8012A
:103EA0006C5F7F4F4D8D5E8D640F751F40E154E157
:103EB000C60102970E94FD12C5CA222309F4C2CA94
:103EC000F501A4902150B4016A5F7F4FC6010C96A2
:103ED0004EE754E18A0D911DEDCFA0900702B12C61
:103EE00095012658364E5901F9018491B801625066
:103EF0007109681B710920E042EC53E1C601039788
:103F00000E94FD12F3FC0EC0F5018491B8016B50C4
:103F10007109681B71092E2D44EB54E1C601049709
:103F20000E94FD128F2D8C708C3079F4F5018491F4
:103F3000B8016B507109681B71092091060244EBAE
:103F400054E1C60104970E94FD122F2D237071F0D9
:103F5000F50184912150B8016E5F7F4F681B710994
:103F60004EE754E1C60140960E94FD128091030283
:103F7000823008F467CAF501A490B8016E5F7F4FE4
:103F80006A19710920E042E953E1C601059792CF11
:103F9000F2E0EF1235C020E048E453E1B801C60179
:103FA00003970E94FD12F3FC13C0809104028170FC
:103FB0008FA318A6B80169507109AFA1B8A56A0FFF
:103FC0007B1F2E2D44EB54E1C60104970E94FD1285
:103FD0002F2D2C702C3009F035CA8091040281708D
:103FE00089A71AA6B80169507109E9A5FAA56E0F4B
:103FF0007F1F2091060244EB54E1C60104975ACF7B
:1040000080910402E82FF0E0E05EF74E2491817089
:104010008F8F18A26F8D78A1600F711F46E757E14F
:10402000C6010E94FD12B8016C5F7F4F2F8D38A131
:10403000620F731F3F2D3370B32E8091030220E077
:104040008230B8F044E153E1C60105970E94FD12A9
:10405000BB2009F4A8CF2FEF2B0DB8016E5F7F4F67
:104060004F8D58A1640F751F4EE754E1C60143966A
:1040700098CF4AEE52E1C60103970E94FD12BB2081
:1040800009F491CF2FEF2B0DB8016D5F7F4F8F8D0E
:1040900098A1680F791F4EE754E1C601419681CF80
:1040A0002491B80162507109621B710920E048EA4D
:1040B00052E10E94FD122F2D237071F0F5018491C1
:1040C0002150B801645F7F4F681B710946E652E1D9
:1040D000C60107960E94FD1280910302823008F407
:1040E00067CEF501A490B8016F5F7F4F6A1971091F
:1040F00020E04EE352E1C601059758CE882309F42B
:10410000BEC9F301618170E08081228144E258E1FF
:10411000B3C92091040221702BA71CA602974BA5BE
:104120005CA5840F951F14CA2F89223009F0B9CAE3
:10413000A98DBA8D12965C92B4CA923009F0C6CAA3
:104140009A8289822DA13EA12F5E3F4F3C832B8313
:104150004D8228E12E83BACAEF89E23009F01CCBE8
:10416000ABA1BCA112966C9217CB4F89423009F0DB
:1041700053CB80E28093CA014FCB8F89823009F004
:104180007ECB80E28093C5017ACBBF89B23009F043
:10419000AACB80E28093C101A6CBFF89F23009F05F
:1041A000D5CB80E28093BE01D1CB2F89223009F09C
:1041B00043CC8D2D80628093BB013ECC20E037CD77
:1041C0008091240290912502A0912602B0912702AD
:1041D0000196A11DB11D8093240290932502A09306
:1041E0002602B0932702AC960FB6F894DEBF0FBE3E
:1041F000CDBFDF91CF911F910F91FF90EF90DF9096
:10420000CF90BF90AF909F908F907F906F905F9076
:104210004F903F902F9008953F924F925F926F92F0
:104220007F928F929F92AF92BF92CF92DF92EF9246
:10423000FF920F931F93CF93DF938DE0E3E1F1E0C3
:10424000AFEFB1E001900D928A95E1F71092F50180
:104250001092F4011092FC011092FB011092FE01E9
:10426000109287011092860180E490E0909389017A
:104270008093880180E890E090938B0180938A017D
:104280008BE7C82E81E0D82E91E8E92E91E0F92E37
:1042900028E7622E21E0722E35E7432E31E0532EBF
:1042A0000DE511E0D0E0C0E040E1842E912CA12C7E
:1042B000B12C33243394F601C193D1936F010E9442
:1042C000C32AA50194010E94722B27EA3AE0D80183
:1042D00090E080E070E06B54754FFB01449150E03A
:1042E000082E02C0559547950A94E2F7437011963F
:1042F0004C931197F90144914C93029612962F5FBB
:104300003F4F8830910549F70E94CC16F701819301
:104310007F018325F30181933F01F20181932F01F6
:10432000C05BDF4F085F1F4FC03FD10509F0C3CF0F
:104330000E948016E5EDF1E080EF91E01282339665
:104340008E179F07D9F71092CD011092D0011092CD
:10435000D3011092CA011092C5011092C1011092AE
:10436000BE011092BB01E3E9F1E087EB91E013821B
:1043700034968E179F07D9F7109292011092280257
:104380008FEF80935C0110925B01109224021092D7
:104390002502109226021092270286E080930F03D6
:1043A000DF91CF911F910F91FF90EF90DF90CF9011
:1043B000BF90AF909F908F907F906F905F904F9045
:1043C0003F900895CF930E94D01520E04BE45AE02F
:1043D00061E270E088E190E00E94031321E04BE489
:1043E0005AE061E270E085E590E00E94031322E06C
:1043F0004BE45AE06CE270E08FE090E00E9403131F
:1044000023E04BE45AE06CE270E08EE590E00E941D
:104410000313C09129026C2F81E00E94681580E58A
:104420000E94CA10882319F0CF910C94101380EACF
:104430000E94CA10882319F0CF910C940B138CE0C2
:104440000E94CA10882371F082E090E00E945C2BE9
:10445000C81729F06C2F82E090E00E94642B81E065
:1044600080930F03CF9108951F920F920FB60F9272
:1044700011248F939F938091E1009091E100937FAD
:104480009093E10083FF0FC01092E90091E09093B8
:10449000EB001092EC0092E39093ED001092250354
:1044A00098E09093F00082FF22C093E09093E9009F
:1044B0009091F200992319F09AE39093E80090917B
:1044C0001603992341F0909116039150909316038F
:1044D000911101C05D9A90912403992341F090912C
:1044E0002403915090932403911101C0289A84FFD2
:1044F00018C08091E2008E7E81608093E2008091FE
:10450000E1008F7E8093E100809117038E7E8061B1
:10451000809317039F918F910F900FBE0F901F9064
:10452000189580FFF7CF8091E2008E7E80618093A6
:10453000E2008091E1008E7E8093E100809117037C
:104540008E7E8160E5CF1F920F920FB60F921124DD
:10455000CF92DF92EF92FF920F931F932F933F938F
:104560004F935F936F937F938F939F93AF93BF937B
:10457000EF93FF93CF93DF93CDB7DEB76C97DEBF9A
:10458000CDBF1092E9008091E80083FF25C068E06C
:10459000CE0145960E94391282EF8093E8008D8902
:1045A00087FF39C09091E80090FFFCCF982F90765C
:1045B00009F034C19E894F89588D2F89F88C91114B
:1045C00031C0803861F5809115038093F10010921D
:1045D000F1008EEF8093E8006C960FB6F894DEBF82
:1045E0000FBECDBFDF91CF91FF91EF91BF91AF9102
:1045F0009F918F917F916F915F914F913F912F91FB
:104600001F910F91FF90EF90DF90CF900F900FBE12
:104610000F901F9018959EEF9093E800C7CF1092CF
:10462000F100D5CF913059F48111D3CF41305105EC
:1046300081F6809115038D7F80931503CACF933047
:1046400049F48111C6CF4130510519F68091150307
:104650008260F2CF953041F48091E80080FFFCCF7A
:1046600020682093E300B5CF963009F0A9C00B8DE8
:104670001C8D22E01092E900109213031092120395
:10468000F2122EC010921103109210030E94081211
:104690001F8299E09983FA8291E09E8390EA98873D
:1046A0009AEF99872091120330911303275F3F4FB0
:1046B0003C832B838D831092E90010921303109298
:1046C0001203109311030093100349E050E0BE0160
:1046D0006F5F7F4F80E00E94E2110E94081279CF45
:1046E00010931103009310030E941F11DC01129616
:1046F0000D911C910115110509F410C1D801ED911E
:10470000FC910480F581E02DBE016B5E7F4FC801F6
:104710000995009709F0FDC0F80100851185EACFE1
:10472000F3E0FF120EC08F89882309F440C0823065
:1047300061F440E867E08AE29DE10E94FA28811175
:1047400048CF81E28093EB0047CF813029F440E8E5
:104750006BE08EE19DE1F1CF833099F70E941F114C
:10476000DC011296ED90FC908E010F5F1F4F6801E7
:10477000E114F10479F0D701ED91FC910680F78105
:10478000E02DB801C7010995080F111DF701E0845C
:10479000F184EECFD8011C92F60101900020E9F7D8
:1047A0003197BF016C197D0940E0C601C6CF68E0B2
:1047B0007DE1FB01449150E080E80E94E21109CFC5
:1047C000973009F4BECF983021F481E08093F10056
:1047D00000CF993009F0FDCE837009F0B2CFE1E24D
:1047E000F1E081E031E096E32191222371F08093A2
:1047F000E9003093EB00DF0111972C912093EC003E
:104800009093ED008F5F873079F78EE78093EA0011
:104810001092EA008F8980932503DBCE8B8D9C8DCF
:104820001092E90010921303109212039093110357
:1048300080931003898D811151C08E899D89913A91
:1048400049F4813209F07DCF47E050E067E071E044
:1048500080E0B3CF913209F074CF833269F48F894D
:10486000988DB0E0A0E08093030190930401A093A1
:104870000501B0930601ADCE803269F48091E80065
:1048800082FFFCCF67E087E091E00E9439128BEF56
:104890008093E8009ECE823209F09BCE8F89809370
:1048A0000E018091070190910801A0910901B0913A
:1048B0000A01803B9440A105B10569F480910E0185
:1048C00080FD09C088E780931403809164008F7D88
:1048D000809364007ECE109214037BCE0E941F1141
:1048E000DC0112960D911C910115110509F429CFD7
:1048F000D801ED91FC910190F081E02DBE016B5E3D
:104900007F4FC8010995811164CEF801008511859A
:10491000EBCF181619060CF45CCE13CFF1E0FF12A2
:10492000FFCE6CE07DE145CF0F930FB70F931F9241
:1049300011248F939F93EF93FF93EBE0F3E080912B
:10494000060391E08D5F8D3710F08D57939580931E
:1049500006038081890F80839181911D918302815B
:10496000011D02838381811D838309270F7009271D
:1049700002950093050335D081110093030380391C
:1049800089F400910403901B963070F087E78093C0
:1049900000088093010888E198E08093600090937C
:1049A0006000FFCF9093040380911403815018F0AE
:1049B0008093140359F3E7E0F3E08081918101963D
:1049C0008083918382819381811D911D8283938352
:1049D000FF91EF919F918F911F900F910FBF0F91BA
:1049E00018958FB18095807F669B88601C9B846042
:1049F00008952F923F924F925F926F927F928F9283
:104A00009F92AF92BF92CF92DF92EF92FF920F935D
:104A10001F93CF93DF9335E4C32E31E0D32ECBE247
:104A2000D2E010E000E0772473944BE1942E56E33B
:104A3000852E69E0462E6DE3562E22242A94322CD0
:104A4000EEA5EE23A9F08FA59E2F9370891708F489
:104A50009BC0F0E0F595E795F595E795EE0FFF1F04
:104A6000EB58F44E85919491F601928381831FA6B1
:104A70009CA99923F9F08DA9292F2F77022E000CDC
:104A8000330B821713060CF489C08A8197FF7FC00D
:104A900081508A838A8181117CC081E08A83EA8186
:104AA000F0E0EE0FFF1FEB58F44E859194919EA31A
:104AB0008DA31DAA58A5552321F13AA529A5311189
:104AC00019C0422F407426FF6CC08DA19EA1850F96
:104AD000911D57FD9A9527FD69C097FD65C0442338
:104AE00009F466C0863BF4E29F0714F085EB94E27C
:104AF0009EA38DA381E0830F8AA72F73321708F03E
:104B00001AA69BA5992371F0EA81EE2359F08DA591
:104B10002CA5482F4F71322F3F71431708F04AC020
:104B20008F5F8DA749A9442311F13AA9632F6074BF
:104B300036FF6CC08DA19EA12BA950E027FF69C054
:104B4000840F951F97FD68C0662309F469C0863BF2
:104B500044E2940714F085EB94E29EA38DA33F7189
:104B6000822F8F71831708F05DC02F5F2BAB89A157
:104B70009AA1009709F45DC08F3F980709F49AC085
:104B800001979AA389A396C08F5F8FA771CF8F5F7C
:104B900080CF803408F483CF8FE380CF8F5F8DABDD
:104BA00089CF8FA190E093CF90E080E04111A0CF1A
:104BB0008FA3A0CF807EF1F480E28DA78DA5807EAB
:104BC00051F09F3F09F1292F22952F70E20F803479
:104BD00011F49F70E90F88A9F0E0E80FF11D87FD3F
:104BE000FA95EE0FFF1FEB58F44E859194919EA31A
:104BF0008DA398CF803231F426FD04C09F3F11F081
:104C000080E4DBCF1DA6DACFE0E0E1CF8FA190E01A
:104C100093CF841B950B96CF90E080E061119DCFE0
:104C20008FA39DCF27FF02C01BAAA1CF80E88BAB2B
:104C30009ECFC8010496672C01C0660C8A95EAF7DE
:104C4000909E5001919EB00C1124809EC001819EC7
:104C5000900D11249C01255D3D4F7901888199813A
:104C6000BC016F5F7F4F79836883FC0144914034BE
:104C700008F07CC04A83442319F088A9480F4A836E
:104C8000EA81F0E0EE0FFF1FEB58F44E859194910E
:104C90009EA38DA389A5811102C08FA58FA38CA58A
:104CA00085FD1DA689A19AA10097C1F28F3F9807A3
:104CB00009F066CF20910201822F90E0002E02C001
:104CC000959587950A94E2F780FD0AC0033009F0B4
:104CD000E7C18091F40290E0959587958093540107
:104CE000207F39F580914B0290918102890F90913C
:104CF000B702890F9091ED02890F09F4D9C183E0C1
:104D0000A82E83E0B82E9BE2E92E92E0F92EF7015F
:104D100080A10E94F612F7019183808312A211A252
:104D2000F6E3EF0EF11CAE14BF0489F780EF809319
:104D300002010F5F1F4FE696F5E0CF0ED11C043045
:104D4000110509F07DCEDF91CF911F910F91FF905A
:104D5000EF90DF90CF90BF90AF909F908F907F901B
:104D60006F905F904F903F902F900895403A08F0D9
:104D700009C1E42FE054FF0BEC30F10509F4BFC08A
:104D80000CF04CC0E530F10509F4A2C0F4F4E230B7
:104D9000F10509F49DC094F4309709F491C031975E
:104DA00009F080CF029699838883FB01649168A7FC
:104DB00080E0413409F080E489A774CFE330F10545
:104DC00009F493C0349771F36DCFE830F10509F41D
:104DD00062C0A4F4E630F10509F487C0379709F002
:104DE00061CFFB0164916BA79C012D5F3F4F39831D
:104DF0002883FC013296E491ECA754CFEA30F10508
:104E000009F47BC002963B970CF471C099838883A8
:104E1000FB01849168A9680F68AB44CFE331F105C9
:104E200009F477C064F5EF30F10509F470C0DCF4E3
:104E3000ED30F10509F469C03E9709F033CFFB016D
:104E40002591349129AB9C012D5F3F4F39832883F5
:104E5000FC0132962591349180E04E3409F080E4D3
:104E6000820F8AAB1FCFE131F10509F450C03CF34A
:104E7000029699838883FB0164916CAB13CFEC3568
:104E8000F10509F451C04CF4E431F10509F443C0D3
:104E9000759709F007CF1BA605CFEE35F10509F48C
:104EA0005CC00CF454C0EF35F10509F0FBCE8091E5
:104EB00002018625809302011FA23AA229A2F2CE06
:104EC000029699838883FB0164916FA36FA7EACE52
:104ED000FB01649168A79C012D5F3F4F39832883B4
:104EE000FC013296E491E9A7DDCE18A6DBCE9983CA
:104EF0008883FB0164916EA7D5CE1EA6D3CE029601
:104F000099838883FB01649187CF18AACBCE19AA15
:104F1000C9CE1CAAC7CEFFEFFBA702969983888350
:104F2000FB0164916CA7BECE029699838883FB0136
:104F30006491E0912A026E0F60932A0270E0C20130
:104F40000E94E92B7093440160934301ABCE02961B
:104F500099838883FB016491EFCFABE2B2E021E05B
:104F600030E0FC01E20FF31FE4919096EC939097F0
:104F70002F5F3F4FD6962530310599F705969983D7
:104F8000888390CE403E28F44F59550B5AA349A32D
:104F900089CE403EA9F4DE0190E080E09695982FFE
:104FA000882797958795ED91FD91E4912E2F2F7786
:104FB000822BE7FDF3CF8F5B9F4F9AA389A372CE1D
:104FC0004C3F08F46FCE24E0240F223098F54C3F7C
:104FD00079F1029699838883FB016491E881F981D4
:104FE0009F012F5F3F4F39832883E4915CA15E17B7
:104FF000D1F04F8D842F90E07BA1D701A80FB91F6E
:1050000051967C93519758965C93D501A80FB91F80
:10501000AA0FBB1FA55DBD4F14963C932E9313970B
:105020004F5F4F8FECA36BA38CA10E94F612A7CF0A
:1050300060E0D4CFDE0190E080E04E3FF9F48BA138
:10504000811119C0EF8DEE2379F3E150EF8FF0E07D
:10505000D501AE0FBF1FAA0FBB1FA55DBD4F139695
:105060008D919C9199838883EE0DFF1D81898BA37F
:10507000808D8CA317CE81508BA3D6CF9695982F79
:10508000882797958795ED91FD91E4913E2F3F7785
:10509000832BE7FDF3CF680F791F7983688302CEF6
:1050A0008DA19EA1F601928381838FA1808318CE6A
:1050B00088EDEBE2F2E011928A95E9F71092720026
:1050C00038CE2F922FB62F93209142012095209316
:1050D000420109F08BC0BF93AF930F921F922091B2
:1050E000500100905201020E009252012091510194
:1050F00010905301121E10925301B12DB7FDB095BF
:10510000BB0FA0914F01B058BA02110CA12D2091F4
:10511000460100904801020E00924801209147018B
:1051200010904901121E10924901212D220F2121B8
:10513000B091450127FDB195AB0F20914B01009037
:105140004D01020E00924D0120914C0110904E0134
:10515000121E10924E01B0914A0117FCB195AB0F8F
:10516000B1E00090550110905601000C111C17FC85
:105170000B2616FC0B260092550110925601B09199
:10518000540117FCB195AB0FB0910001AB0FA09388
:10519000CF00B0914101A0914001119729F0B09347
:1051A0004101A09340011EC0B0914401A091430170
:1051B000B0934101A093400178943F934F935F9344
:1051C0006F937F938F939F93EF93FF9311240E948C
:1051D000F924FF91EF919F918F917F916F915F9152
:1051E0004F913F911F900F90AF91BF912F912FBE84
:1051F0002F901895EF92FF920F931F93CF93DF9309
:10520000F82E192FE62E042F81E0860F880F0E94BA
:10521000B41183E00E94B411CF2DD12FEC0EFD2EDE
:10522000F11CCE15DF05B9F007FF13C0FE01849114
:105230000E94B411182F80E00E94B411812321969E
:105240008111EFCFDF91CF911F910F91FF90EF90E0
:1052500008958881EDCF81E0F5CFE6E2F7E0138293
:10526000128288EE93E0A0E0B0E084839583A68369
:10527000B7838BE291E0918380838FEF9FEF9587D7
:105280008487E6E7F7E08DE391E0918380831582E0
:10529000168280E1878314821382118608957894A0
:1052A00083E084BD83E085BD81E080936E00E1E80A
:1052B000F0E083E08083E0E881E08083E1E983E05F
:1052C0008083E0E981E08083E1EC87E08083E3ECA8
:1052D00081E08083E0EC82E08083E2EC81E0808307
:1052E000EAE787E08083806880831092250310922C
:1052F0001503109217038091D70081608093D70027
:1053000080EA8093D80089B5806189BD89B58260C3
:1053100089BD09B400FEFDCF81E090E00E944712F4
:105320008091D8008F7C80618093D8008091E000CC
:10533000807F8093E0008091E1008E7E8093E10089
:105340008DE08093E200559A209A81EC80937C0056
:1053500081EF85B987EE84B984E38BB984EF8AB98C
:10536000769A6E9880EF81BB10BA80E58CBD81E0A3
:105370008DBD85E090E00E9409135F9902C05F9A9D
:10538000F8CF5C98E5EFFBE19DE085918EBD0000D4
:105390000DB407FEFDCF8EB59A95B9F75C9A81E8FA
:1053A0008093640081E08093650082E090E00E9439
:1053B0005C2B8823C1F10E94101381E090E00E94D1
:1053C0005C2B182F147081E090E00E945C2B81FF11
:1053D0000BC011112E98C0EFDFEF0E94F12486FF61
:1053E00025C02E9A2F9A2D9A80E180937D07FF2465
:1053F000F39406E213E0C0E0D0E0EE24E3942091C1
:105400000B0380917E07922F981B892F90917F0725
:10541000992399F18093800710927F07209779F361
:105420000E940000ECCF0E940B13C7CF112329F07C
:10543000C430D10511F42E9A2F9881E00E94D51026
:1054400020E042E05CE1BE0184E190E00E940313B1
:1054500080E00E94D5108FE090E00E940913219611
:10546000C931D10509F0B9CF112311F02F9A2D9828
:1054700080E991E00E940913B6CF30917D07831730
:1054800038F48F5F831750F6F3BE889513BEC6CFEE
:10549000E0927F0720937E072091790730917A0769
:1054A0002F5F3F4F30937A072093790780917B07D6
:1054B00080937C070E94F12480937B07F80191116F
:1054C0009FEF8FEF91939193919391938150D0F7A8
:1054D000E0910F03F0E0EE0FFF1FEC54F34E8591C7
:1054E0009491FC01099580E00E94D51097CF8F928E
:1054F0009F92AF92BF92CF92DF92EF92FF92CF93A3
:10550000DF93EC01688179818A819B816115710546
:105510008105910521F464E279ED8BE597E02DE1B9
:1055200033EF41E050E00E94722B49015A019B0188
:10553000AC01A7EAB1E40E94912B6B017C01ACEEB7
:10554000B4EFA50194010E949F2BC60ED71EE81E42
:10555000F91EF7FE06C081E0C81AD108E10880E80C
:10556000F80AC882D982EA82FB82C701B6019F7716
:10557000DF91CF91FF90EF90DF90CF90BF90AF90F1
:105580009F908F9008958F929F92AF92BF92CF92EB
:10559000DF92EF92FF9260910F0170911001809164
:1055A000110190911201611571058105910521F498
:1055B00064E279ED8BE597E02DE133EF41E050E0D7
:1055C0000E94722B49015A019B01AC01A7EAB1E488
:1055D0000E94912B6B017C01ACEEB4EFA50194010C
:1055E0000E949F2BC60ED71EE81EF91EF7FE06C0AE
:1055F00081E0C81AD108E10880E8F80AC0920F01DA
:10560000D0921001E0921101F0921201C701B6018F
:105610009F77FF90EF90DF90CF90BF90AF909F90DB
:105620008F90089560930F01709310018093110182
:10563000909312010895BB272A3051F4992342F424
:10564000BDE290958095709561957F4F8F4F9F4FEC
:105650000C942B2BBB27FA01A62F6217710581052D
:105660009105330B30FB66F0AA27660F771F881F62
:10567000991FAA1FA21710F0A21B63953850A9F713
:10568000A05DAA3308F0A95DA19336F7B111B193DB
:105690001082CA010C944C2BDC01FC01672F719124
:1056A0007723E1F7329704C07C916D937083629108
:1056B000AE17BF07C8F30895F999FECF92BD81BD1B
:1056C000F89A992780B50895262FF999FECF1FBA29
:1056D00092BD81BD20BD0FB6F894FA9AF99A0FBE1B
:1056E00001960895052E97FB1EF400940E94892BC5
:1056F00057FD07D00E94A42B07FC03D04EF40C9456
:10570000892B50954095309521953F4F4F4F5F4FD6
:10571000089590958095709561957F4F8F4F9F4F1D
:1057200008950E94C62BA59F900DB49F900DA49F35
:10573000800D911D11240895B7FF0C94912B0E94A8
:10574000912B821B930B0895A1E21A2EAA1BBB1B5F
:10575000FD010DC0AA1FBB1FEE1FFF1FA217B3073D
:10576000E407F50720F0A21BB30BE40BF50B661F53
:10577000771F881F991F1A9469F760957095809517
:1057800090959B01AC01BD01CF010895A29FB0018E
:10579000B39FC001A39F700D811D1124911DB29F65
:1057A000700D811D1124911D0895AA1BBB1B51E191
:1057B00007C0AA1FBB1FA617B70710F0A61BB70B81
:1057C000881F991F5A95A9F780959095BC01CD0126
:1057D000089597FB072E16F4009407D077FD09D0A3
:1057E0000E94D52B07FC05D03EF4909581959F4FE4
:1057F0000895709561957F4F0895EE0FFF1F0590F6
:0A580000F491E02D0994F894FFCF15
:10580A008001F0FFFFFFFF00E1000000000000013F
:10581A000000001400210001000000000000003018
:10582A0000C180810000000000000033115B1254A7
:10583A001149119A11581176110000000046120000
:00000001FF
