:100000000C94F7060C941F070C941F070C941F0701
:100010000C941F070C941F070C941F070C941F07C8
:100020000C941F070C941F070C94C4130C943314E6
:100030000C941F070C941F070C941F070C941F07A8
:100040000C941F070C941F070C941F070C941F0798
:100050000C941F070C941F070C941F070C94241674
:100060000C941F070C941F070C941F070C941F0778
:100070000C941F070C941F070C941F070C941F0768
:100080000C941F070C941F070C941F070C941F0758
:100090000C941F070C941F070C941F070C941F0748
:1000A0000C941F070C94F1190C941F073C380000A6
:1000B00000000080F8FE0FE3FB1B0B0B8BFBF3F73C
:1000C000F6F6F60606ECECECECECECECECECECEC1E
:1000D000ECECECEEE6F6F6F6F7F3FBFBCBCBFBE352
:1000E0000FFEF8801E332121339E00000080F8FFB0
:1000F0000FE0F8F9F9F9F9F9F9F9F1F3F3F3F3F09D
:10010000F0FFFFFFFFFFFFFFFFFFFFFFFFFFFFFF0E
:10011000FFFFFFFFFFFFFFFFFFFF7F7FFEE00FFFFF
:10012000F880060600000000000F3FF0C607040438
:10013000070707070707070707070707FFFFFFFF6F
:10014000FFFFFFFFFFFFFFFFFFFFFFFF070707079F
:1001500007078787070726860707C6F03F1F008027
:100160008000000000000000030784C4E4E4E4E42D
:10017000E4E4E4E4C49C000FE7E7E7E7E7E7E7E748
:10018000E7E7C7870F1F0FC7E7E0ECE4E4E4E5E526
:10019000E4C4040404070300C040C30311000000CA
:1001A000000000000000FFFFFFFFFF393939FFFFAB
:1001B000FF0FE0E0EFEF0FFFFF183879FFFFF703C5
:1001C000E0E0EFEF0FFFF9F0F0FCFDFDFD0DECE0DE
:1001D000E0E00000012101000000000080C060207C
:1001E00060C080000000000C0C007EFE803C3E1CC5
:1001F0001C1C1C1C0C0C0E0C0C0C0C0E1E1C1C1CB9
:100200001C3C3E80FE7E00000000C0E0E0C000001C
:100210000000030300000E1B3166C680D060311B56
:100220000E00003828380001471E382020202030DA
:100230001010D0D0101090103020202020381E0731
:10024000010000060600000101000000000000009F
:10025000000014087F417777417F4155555D7F410C
:100260005F5F7F417575717F7F417575717F415FFC
:100270005F7F417575417F717747717F7F5D415D1C
:100280007F417B77417F4175757D7F415D5D417F1A
:100290007F415D5D5D7F415D5D417F417B77417F5A
:1002A0004175757F7F515555457F4175757D7F49F6
:1002B0007777497F000000007F415D5D417F417598
:1002C000757D7F4175757D7F000000007F415D5D1C
:1002D000417F417B77417F0000000000000000006B
:1002E0008040000000000000000000000000080046
:1002F0000000000000000000000000001000384472
:10030000549292BB929292544438003CC4BCA0A038
:10031000A0BCC43C001C0414F484F414041C00FCB1
:1003200084D434242C1800788494B4B49484780051
:1003300098A4B4B49464001C0414F484F414041C4D
:1003400000000000000000000008000000000000A5
:100350000000000000000000040000000000000099
:100360000000000000080000000000000000000085
:1003700010000000000000C0A0E050F0D0A04080BD
:10038000000000020000000000000000004000002B
:10039000000000000000008240C060E0A0E0E040FB
:1003A000C0800000000400000000C0300C7FFFF19E
:1003B000010101020602EEE4FCF8703838180C0C5A
:1003C00006021E23C1C1423C0000000000000800DC
:1003D00000000000000000400000000000000000DD
:1003E0000100000000000004000000000000000008
:1003F0000000000000F8AFF5BEFFC703011128C8D8
:100400000B1C0C8C14481830502060402020109099
:100410000804C0320C020100020042000553073DEF
:10042000FFFEEB76DCB0C000FC83C0C000000FFF15
:10043000FFF000000000000301080050101878FCD5
:10044000E48202010000000000000000000000043F
:10045000000000000000000000000000000000009C
:10046000000000000000000000000000000000008C
:100470000000000000071A3DEB5FFFFE8000000057
:10048000C13E0C2041823A4484B494443A020100B3
:10049000007E810000000000000000008400520186
:1004A000CAFFDFFFFDAAFF7601FFFFFFF08040419A
:1004B0003F3F9FF0F0F0080808280854E4050603C1
:1004C0008383808000000000008000004000000066
:1004D000000000000000000000000000000000001C
:1004E00002000000000000000020000000000000EA
:1004F000000800000000000000030D3F47601806E0
:1005000001000000000001020408101008080404A3
:100510000200077880000000000000001042F86E22
:10052000FFAD7FDF3506018060191791F0F0E078AC
:100530001C1F0F071B3148888C3562E3C390980B52
:100540001408020647A824120DA2911050D0E00012
:100550000000000000000000000400000000000097
:10056000000000000000000000000000000000008B
:10057000000000000000100000000000000000006B
:10058000000000000000000000100000000000005B
:1005900000000000033CC0000000401182FFBFFBD0
:1005A0006D1B078040304E496AFAFBF7C38100009B
:1005B0000000000000000010291E12226243454581
:1005C000662E2E7C7870634E01000009060A9A6A36
:1005D0000A0A0A06000000000000000000000000F7
:1005E000000000000000000100000000000000000A
:1005F00000000000000000000000000000000000FB
:1006000000000000000000000000000000000000EA
:10061000000000000000031C6080E27C3E0B06032B
:100620000C0A09080C0602020202060C090B0F0E46
:100630000C0000010505050D001F110E001F15110E
:10064000001F0501001F1511001F02041F001615D1
:100650000D001F1511000D0505050101000000002A
:10066000000000000000000000000000000000008A
:10067000000000000000000000000000000000007A
:10068000000000000000000000000000000000006A
:100690000000000000000000000100000000000059
:1006A000000000000000000000000000000000004A
:1006B000000000000000000000000000000000003A
:1006C000000000000000000000000000000000002A
:1006D000000000000000000000000000000000001A
:1006E00000004040FFFFFF0707E7E76767676767AE
:1006F00067E7E70707FFFF1F1F67677F7F1F1F076A
:1007000007E7E7E7E707079F9F7F7F87876767FF21
:10071000FFFFFF0707E7E7676767676767E7E707C1
:1007200007FFFFFFFFFFFF00007F7F6060606060EA
:10073000607F7F0000FFFF06069898787898987E83
:100740007E8787797986867F7F868607079898795E
:1007500079FFFF00007F7F6060606060607F7F00E6
:1007600000FFFFFFFFFFFF060606061E1E06069E91
:100770009E1E1E66666767F8F8797906069F9FF8E1
:10078000F86767E6E6E1E106067979F8F86161184D
:10079000181F1F8686E6E666661E1E666666669EED
:1007A0009EFFFFFFFFFFFFFEFE1E1E00001E1E79C4
:1007B00079181866661E1E79791E1E9E9E9F9F07D9
:1007C0000780807F7FF9F9E6E606061919868666B6
:1007D00066868667676161FEFEE0E0181860606704
:1007E00067FFFFFFFFFFFF61618686E6E69E9E06CC
:1007F0000680806666E6E678787E7E6767E7E7F8DB
:10080000F861618686F9F90101E0E0FEFEE7E76044
:100810006007079E9E7E7EF9F96161FEFE60601EA4
:100820001EFFFFFFFFFFFF66667F7F6161797966CC
:100830006679796666E7E7060600001E1E01010775
:100840000718186767E7E706069999FFFFF9F906A1
:1008500006E6E66161E6E60707FEFE878718189858
:1008600098FFFFFFFFFFFF0000FEFE0606060606DC
:1008700006FEFE0000FFFF9E9E00007E7E0000F848
:10088000F818180606F9F9E6E66767E1E19F9FE0C8
:10089000E087878686E7E700000707797998987FE1
:1008A0007FFFFFFFFFFFFFE0E0E7E7E6E6E6E6E6C3
:1008B000E6E7E7E0E0FFFFE1E1F8F8FEFEF8F8E741
:1008C000E7E6E6FEFEE1E1F9F9E0E0F9F9F9F9E140
:1008D000E1E7E7F9F9E7E7E0E0FEFEFEFEE1E1FE31
:1008E000FEFFFFFF60180000000000000000000095
:1008F00000000000000000000000000000007F4138
:100900005D55577F416D6D517F4155555D7F416DFF
:100910006D417F057D417D057F4155555D7F415D81
:100920005D633E007F415D55497F117747711F0030
:1009300000000000000000000000000000000000B7
:100940000000000000000000000000007F416D6D0D
:10095000417F007F4175151D7F417F515555457F72
:10096000417777417F007F415D55577F416D6D41F4
:100970007F415F50507F415F50507F4155555D7FB3
:10098000415D5D633E007F415F685F417F416D6D0A
:10099000417F417B77417F415D5D637F416D6D416B
:1009A0007F0000000000007F416D6D417F417B773B
:1009B000417F415D5D633E007F417D137D417F410D
:1009C0006D6D417F417B77417F117747711F007FBC
:1009D000417D137D417F416D6D417F417B77417F3B
:1009E000117747711F007F415D5D417F057D417D2E
:1009F000057F417777417F4155555D7F416D6D5151
:100A00007F515555457F00000000000000000000A8
:100A100000000000000000000000000000000000D6
:100A200000000000000000000000000000000000C6
:100A300000000000000000000000000000000000B6
:100A4000000000000000000203050100000000009B
:100A50000000000000000002040301000000020387
:100A60000403010000000303030303030303030360
:100A7000030303030303080801030103010389AA15
:100A8000AA8B010301030103010301030103010315
:100A9000030A052811A041808041A01128050A03FE
:100AA00001030101018261BEBE63810101020101F6
:100AB000010301010102010107021D8871E041806B
:100AC0008041E071881D02070808810000000000D5
:100AD0000081C3810000000081C300002418182495
:100AE000000000422400002442000808003078FC86
:100AF000FC783000003278F4E1583200003074E1C4
:100B00008AE07431040408060D04000E0D04040D7F
:100B10000608040D0E0000040D0E04000D0E0E0D4F
:100B200004000E0D000404040D030D00010F01006C
:100B30000805030D0405030D0D0305080D03050449
:100B400008082070A040A070200060F0204020F035
:100B50006000E07020402070E00000703840A0701D
:100B6000200000301858A07020001018185020F0F5
:100B70006000002070A040387000002070A058185D
:100B800030000060F020501818100808002EDAA27B
:100B90001C080800000EDAA25C08080000EE1A2209
:100BA0005C88080000EE1A629C0808000008081C17
:100BB000A2DA2E000008085CA2DA0E000008885CA9
:100BC000221AEE000008089C621AEE000E5AE29CFF
:100BD000080800142EDAA21C0808000000EE9A2271
:100BE0001C080800002EDAA21C08080014000808DF
:100BF0009CE25A0E000008081CA2DA2E0008081C0D
:100C0000229AEE000008081CA2DA2E000808000054
:100C1000A0C0C0A0000010A0C0B8C0A01000100468
:100C20001038100410000801000000000108000046
:100C300006011501260137014A015D017201880193
:100C40009F01B801D201EE010B022A024B026E0293
:100C50009302BA02E40210033F037003A403DC030F
:100C6000170455049704DD0427057505C8052006FB
:100C70007D06E0064907B8072D08A9082D09B9091E
:100C80004D0AEA0A900B400CFA0CC00D910E6F0F42
:100C90005A1053115B1272139A14D415201780182E
:100CA000F519801B231DDE1EB420A622B524F0F802
:100CB0009C8E8783878E9CF8F00000FEFF03030361
:100CC0000303070EFCF80000FEFF03030303030702
:100CD0000EFCF80000FFFF00000000000000FFFF16
:100CE0000000FEFF8383838383C7EE7C380000F817
:100CF000FC0E07030303070EFCF800003F7FE0C073
:100D00008080C0E07F3FFFFF01010101010101FF81
:100D1000FF0000FFFF0C0C0C0C1C3E77E3C1000031
:100D20007FFFC0C0C0C0C0E0703F1F00001F3F7009
:100D3000E0C0C0C0E0703F1F00007FFFC1C1C1C163
:100D4000C1E3773E1C00001F3F70E0C0C0C0E070F0
:100D50003F1F000000000001FFFF01000000D5F070
:100D60008D14A1C881CFD9F1AF20008A133A13287E
:100D7000139B0B1613A013430B0C0C3A0B390B08E7
:100D80000B0002020201000904000001020200003F
:100D90000524001001052401010104240206052494
:100DA0000600010705810310004009040100020A42
:100DB0000000000705020240000007058302400012
:100DC000000403090412010002EF0201404123362E
:100DD0008000010102030141726475696E6F204C4D
:100DE0004C430041726475626F790000BD1A112492
:100DF0001FBECFEFDAE0DEBFCDBF11E0A0E0B1E073
:100E0000E8E7FCE302C005900D92A433B107D9F7DF
:100E100027E0A4E3B1E001C01D92AA34B207E1F7D4
:100E200016E0C7EFD6E004C02197FE010E94341EF1
:100E3000C63FD107C9F70E94DF1A0C943A1E0C94E2
:100E4000000090914507982329F490914407982336
:100E500081E009F480E00895EFEEF2E0A0E0B8E070
:100E600000800EBC8111012C1197A0FDFDCF0192D5
:100E7000B9F70DB40895FC018091EE02882311F1B9
:100E80003FB7F89482E08093E9002091F200822F2E
:100E900090E01816190614F481E090E0882339F0E8
:100EA000289844E64093ED024091F10040832223CC
:100EB00039F02091F200211103C02BE62093E800C5
:100EC0003FBF08958FEF9FEF08952FB7F89483E009
:100ED0008093E9009091E800892F807295FF04C00B
:100EE0009091F20080E4891B2FBF08958091E50264
:100EF00081110DC082E08093E10284E08093E202E0
:100F00001092E4021092E30281E08093E50281EE08
:100F100092E00895CF93DF931F92CDB7DEB7698338
:100F2000DC01ED91FC910280F381E02D41E050E085
:100F3000BE016F5F7F4F09950F90DF91CF910895AC
:100F400083E08093E9008091F200882319F08AE31E
:100F50008093E80008950E94650790E00895CF937C
:100F6000DF931F92CDB7DEB7FC018485958597FD91
:100F700008C02FEF3FEF358724870F90DF91CF9187
:100F80000895CE0101960E943B07019719F48981CB
:100F900090E0F3CF8FEF9FEFF0CF0F931F93CF939E
:100FA000DF931F92CDB7DEB78C01FC018485958558
:100FB00097FF0BC0CE0101960E943B07019771F489
:100FC000898190E0F80195878487F801848595856B
:100FD0000F90DF91CF911F910F9108958FEF9FEFA9
:100FE000F1CFFC018485958597FD0BC09FB7F894E0
:100FF00082E08093E9008091F2009FBF90E001962B
:1010000008959FB7F89482E08093E9008091F20000
:101010009FBF90E008954091DB025091DC02209147
:10102000D9023091DA0242175307B4F49091E800E4
:101030009570E1F39091E80092FD19C08093F10062
:101040008091DB029091DC0201968F739927892BA6
:1010500019F48EEF8093E8008091DB029091DC021E
:1010600001969093DC028093DB0281E0089580E09A
:101070000895DF92EF92FF920F931F93CF93DF9328
:10108000D82E8A01EB017B01E40EF51ECE15DF059B
:1010900059F0D7FE12C0FE0184910E940B082196E0
:1010A0008111F4CF0FEF1FEFC801DF91CF911F9196
:1010B0000F91FF90EF90DF9008958881EECF0F930E
:1010C0001F93CF93DF931F92CDB7DEB782E0898362
:1010D00042E450E06FE77DE080E80E9439080E941A
:1010E0007607DC0112960D911C910115110589F00E
:1010F000D801ED91FC910280F381E02DBE016F5F7C
:101100007F4FC801099597FD04C0F801008511853E
:10111000ECCF89810F90DF91CF911F910F910895AE
:10112000615030F02091F100FC0120830196F8CF4E
:10113000289884E68093ED0208950895FC010E94AA
:101140003509319728F068517C4F8F4F9F4FF9CF69
:10115000AB01FC010E943509641775078E079F07D4
:10116000C8F308958F929F92AF92BF92CF92DF9271
:10117000EF92FF920F931F93CF93DF936C017B014C
:101180008A0180911001882309F45AC08091EE02EF
:10119000882309F455C08091E00280FF05C080914A
:1011A000E00082608093E000E801B12C8AEFA82E75
:1011B00093E0892E2AE3922E209711F4BB20C9F1E7
:1011C0000E946507811108C0AA94AA20C9F181E094
:1011D00090E00E949E08F0CF8C171D0611F00CF0D5
:1011E0008C2F9FB7F8948092E9002091E80025FDAC
:1011F00002C09FBFE1CF282F30E0C21BD30BF70105
:10120000815020F041914093F100FACFE20EF31E9D
:10121000BB2021F09092E800B12CEBCF8091E80048
:1012200085FDE7CF9092E800BB24B394209709F3A3
:10123000F3CF5D9884E68093DF02101611063CF030
:1012400081E090E0F6019383828310E000E0C80122
:10125000DF91CF911F910F91FF90EF90DF90CF9092
:10126000BF90AF909F908F900895A0EDB2E02FB700
:10127000F8947D918D919C9166B52FBFA89B05C078
:101280006F3F18F47F5F8F4F9F4F22E0660F771FED
:10129000881F991F2A95D1F70895E82FF0E0EE0FE7
:1012A000FF1F8591949108954F925F926F927F9264
:1012B0008F929F92AF92BF92CF92DF92EF92FF9266
:1012C0000F931F93CF93DF937C01B0E0A0E0FA016E
:1012D0008AEFC0E095913591211511F4C115B1F057
:1012E00047E0430F479546954695833009F4440FF0
:1012F000499FA001249FE00DF11D259FF00D109640
:1013000029F0C49FA00DB11DC59FB00D11248F3FC2
:1013100021F4109682E009F081E08D01AF01C92F20
:10132000D0E0D701AC0FBD1F109709F443C020E8EF
:10133000E216F1040CF03EC06B01C30ED11CCD28A7
:10134000C9F160347105B4F53097A1F1262F2770EB
:10135000922E23E0759567952A95E1F7262FA03800
:10136000B10514F090E89E19B1E0A32FA77009F41D
:10137000B0E03695369536953B0FDB01A30FB11DD6
:10138000199714F038E0361BDB01B695BA2FAA275F
:10139000B795A795AE0DBF1DE92C092C000CFF08D1
:1013A000833009F40CC1B8F4813009F4CAC082302A
:1013B00009F447C0DF91CF911F910F91FF90EF90FB
:1013C000DF90CF90BF90AF909F908F907F906F9065
:1013D0005F904F9008958A3F09F479C08B3F51F791
:1013E000822F861B831730F78D0101511D4FD12CA1
:1013F000C12CC91608F098C0FA01EC0DFD1DA4908F
:10140000B12C0E2C02C0AA0CBB1C0A94E2F727FDDB
:1014100007C0F8018081EA2DE0958E23F8018083D2
:10142000992049F027303CF4F801E058FF4FB09480
:1014300080818B218083FFEFCF1ADF0A0F5F1F4F60
:10144000D8CF66246A94712C092C02C0660C771CD4
:101450000A94E2F760947094572C822F861B8317AE
:1014600008F0A8CF8D0101511D4FD12CC12CC916F8
:1014700018F5FA01EC0DFD1DA490B12C0E2C02C044
:10148000AA0CBB1C0A94E2F727FD05C0F801808175
:1014900086218A298083992049F027303CF4F8017D
:1014A000E058FF4F808185218B298083FFEFCF1A81
:1014B000DF0A0F5F1F4FDBCF4C0F5D1FA058BF4FE0
:1014C0002F5FCBCF4C0F5D1FA058BF4F2F5F822FD8
:1014D000861B831708F06ECF8D0101511D4FD12C53
:1014E000C12CC91678F7FA01EC0DFD1DA490B12CA2
:1014F0000E2C02C0AA0CBB1C0A94E2F727FD04C004
:10150000F80180818A298083992041F0273034F4C2
:10151000F801E058FF4F80818B298083FFEFCF1ABD
:10152000DF0A0F5F1F4FDDCF4C0F5D1FA058BF4F6D
:101530002F5F56CF4C0F5D1F0C0F1D1FA058BF4FC4
:101540002F5F822F861B831708F034CFFD01E151F6
:10155000FD4F6F01B12CA12CA91660F7F801EA0D1F
:10156000FB1D6490712C0E2C02C0660C771C0A9433
:10157000E2F760947094FA01EA0DFB1D4490512C3F
:101580000E2C02C0440C551C0A94E2F727FD05C03E
:10159000F6018081862184298083992049F02730B3
:1015A0003CF4F601E058FF4F808187218529808334
:1015B000FFEFAF1ABF0A8FEFC81AD80ACDCF092F95
:1015C00010E0A151BD4F40E850E0401B510BC01B43
:1015D000D10B8E01000F111FC1E0D0E07E01092C5C
:1015E00001C0EE0C0A94EAF7292F892ECF93DF93DE
:1015F000ED01EF96EF962296A590C590992059F0AF
:10160000AE9C5001CE9C600167302CF4F880D094E1
:10161000FD20FB28F99266233AF0FC90C094FC2050
:10162000FA28FD920C94150B11962A9529F73A95F4
:1016300051F0282D63951124E00FF11DA40FB11D69
:10164000C40FD11DD9CFDF91CF911124B3CE2D9AE4
:1016500008950C949E080E94811608951092F2013C
:101660003E983F9808953E9A3F9A81E08093F20118
:101670000895089588E00E942107882319F087E0E3
:101680008093D802089587E08093D80208950F933D
:101690001F93CF93DF93CDB7DEB72A970FB6F89499
:1016A000DEBF0FBECDBF493049F1442339F18D89EA
:1016B000882321F1893011F19A89113029F0B0F095
:1016C0001B30A1F01C30C1F49130C1F081E09C309E
:1016D00011F09A3089F42A960FB6F894DEBF0FBE47
:1016E000CDBFDF91CF911F910F910895992331F0D4
:1016F0009A5081E0923078F380E0EDCF81E0EBCF3B
:10170000EF920F939091F1013AE09302F0011124CE
:10171000EF5AFE4F90838183628343831682248332
:1017200089E1878305831086E1869F5F9093F101AD
:101730000F91EF900895EF920F9386E08093D80277
:101740008AE0E82E02E027E048E060E48AE00E94B8
:10175000800BEE24E39406E024E047E260E18BE0B6
:101760000E94800B05E024E04BE260E180E00E94F3
:10177000800B0F91EF90089590E16902F001112420
:10178000E80FF11D87FDFA95EA5FF54F8491089502
:10179000FF920F931F93CF93DF938A01962F977831
:1017A00097FF03C09150986F9F5FD62FD91BC8E059
:1017B000C60F082E000C990B23E0959587952A9566
:1017C000E1F7F8018083FD2EF594F594F594CD179B
:1017D00054F06F2DF80180810E94BC0B81110AC06A
:1017E000F394D85FF4CF80E0DF91CF911F910F91F8
:1017F000FF90089581E0F8CF67FD695F6595659575
:10180000659568303CF487FD895F8595859585955C
:101810000C94BC0B80E008953F924F925F926F92C0
:101820007F928F929F92AF92BF92CF92DF92EF9270
:10183000FF920F931F93CF93DF93CDB7DEB7CF5BAC
:10184000D1090FB6F894DEBF0FBECDBFD12CC12C8D
:10185000F12C10E000E0602F8F2D0E94BC0B1816B9
:101860006CF42FEF280F46E75AE0B80183E0660FCB
:10187000771F8A95E1F7C6010E9454090F5F1F4F39
:101880000730110541F728E0C20ED11CF39430E176
:10189000F312DFCF88E00E942107882319F088E047
:1018A0008093D802809150018F5F809350018730E0
:1018B000B0F180914F018F5F823008F0BEC08093FD
:1018C0004F010E942B0B87FF07C0809103018823E3
:1018D00019F08850809303010E942B0B84FF07C0EE
:1018E00080910301883218F4885F809303010E947D
:1018F0002B0B85FF07C080910201882319F08850C7
:10190000809302010E942B0B86FF07C08091020189
:10191000883718F4885F809302011092500110926A
:101920004E0110910301F0900201612F8F2D0E9452
:10193000FC0B18161CF482E080934E0184E00E9498
:101940002107882351F0EE24E39405E024E043E0EE
:10195000410F6F2D80E00E94800B20914E018091FD
:101960004F01280F612F70E048EC5AE08F2D90E076
:101970000E94540960E01AE0F12E862F062E000C1A
:10198000990B2091F101022E000C330BA90141505B
:101990005109841795070CF055C070E00196281B7B
:1019A000390B872F072E000C990B821793070CF029
:1019B00047C0FC013196F89EA001F99E500D1124FC
:1019C0004F5A5E4FDA0113968C91B0E88B9FC0019D
:1019D0001124DA0112961C91DC01A10FB11DFE9EAB
:1019E000C001FF9E900D11248F5A9E4FFC01038170
:1019F000F0E80F9F80011124FC01E280F801EE0D58
:101A0000F11DEA17FB07BCF41AE0FA01DE0111969A
:101A100001900D921A95E1F71AE0FC01DA010190AC
:101A20000D921A95E1F74AE0FE013196DC01019032
:101A30000D924A95E1F77F5FB4CF10924F0141CFED
:101A40006F5F9BCFD12C8091F101D8160CF0D5C5DA
:101A5000AD2C0D2C000CBB082AE02A9DC0012B9D4B
:101A6000900D11248F5A9E4FDC0114965C901497B0
:101A7000552009F4D8C11D140CF0BFC113967C90F9
:101A80004501B1E08B1A9108289DF001299DF00DC8
:101A90001124EF5AFE4FE3804E2D50E0272D072CE6
:101AA000000C330BBA01685F7F4F621773070CF4A9
:101AB000A4C1285F3F4F241735070CF49EC1DC01F9
:101AC00012966C90C2804C2D50E0262D062C000CF6
:101AD000330BF480BA01685F7F4F621773070CF411
:101AE00002C1285F3F4F241735070CF474C02AE069
:101AF000DE01A758BF4F01900D922A95E1F72AE029
:101B0000FC01DE01A159BF4F01900D922A95E1F72A
:101B1000EC96CFAEEC97EE96FFAEEE9700D000D0ED
:101B200000D000D000D0ADB7BEB711968AE0FE015C
:101B3000E159FF4F01900D928A95E1F7EA960FADBA
:101B4000EA97EB961FADEB97EC962FADEC97ED96E1
:101B50003FADED97EE964FADEE97EF965FADEF97F9
:101B6000C158DF4F6881CF57D040C058DF4F7881D0
:101B7000C058D040CF57DF4F8881C158D040CE5792
:101B8000DF4F9881C258D0400E94470B0FB6F8949F
:101B9000DEBF0FBECDBF882309F473C18AE0FE010A
:101BA000E758FF4FDE01AB59BF4F01900D928A9568
:101BB000E1F7A896CFAEA897AA96FFAEAA978AE0BB
:101BC000889DD001899DB00D1124AF5ABE4FFE01F2
:101BD000EB59FF4F0EC12AE0DE01A956BF4F01901D
:101BE0000D922A95E1F72AE0FC01DE01A357BF4FD1
:101BF00001900D922A95E1F7C656DF4FE882CA5947
:101C0000D040C556DF4FF882CB59D04000D000D02D
:101C100000D000D000D0ADB7BEB711968AE0FE016B
:101C2000E357FF4F01900D928A95E1F7C956DF4FB8
:101C30000881C759D040C856DF4F1881C859D040D5
:101C4000C756DF4F2881C959D040C656DF4F38816B
:101C5000CA59D040C556DF4F4881CB59D040C456F1
:101C6000DF4F5881CC59D040C356DF4F6881CD59E2
:101C7000D040C256DF4F7881CE59D040C156DF4F99
:101C80008881CF59D040C056DF4F9881C05AD0408C
:101C90000E94470B0FB6F894DEBF0FBECDBF88235E
:101CA00009F4D9C08AE0FE01E956FF4FDE01AD57C5
:101CB000BF4F01900D928A95E1F7CA57DF4FE88236
:101CC000C658D040C957DF4FF882C758D0408AE085
:101CD000889DD001899DB00D1124AF5ABE4FFE01E1
:101CE000ED57FF4F86C02AE0DE01AB54BF4F019095
:101CF0000D922A95E1F72AE0FC01DE01A555BF4FC0
:101D000001900D922A95E1F7C854DF4FE882C85B35
:101D1000D040C754DF4FF882C95BD04000D000D01C
:101D200000D000D000D0ADB7BEB711968AE0FE015A
:101D3000E555FF4F01900D928A95E1F7CB54DF4FA7
:101D40000881C55BD040CA54DF4F1881C65BD040C4
:101D5000C954DF4F2881C75BD040C854DF4F38815A
:101D6000C85BD040C754DF4F4881C95BD040C654E0
:101D7000DF4F5881CA5BD040C554DF4F6881CB5BD1
:101D8000D040C454DF4F7881CC5BD040C354DF4F88
:101D90008881CD5BD040C254DF4F9881CE5BD0406C
:101DA0000E94470B0FB6F894DEBF0FBECDBF88234D
:101DB000E1F18AE0FE01EB54FF4FDE01AF55BF4F6A
:101DC00001900D928A95E1F7CC55DF4FE882C45A15
:101DD000D040CB55DF4FF882C55AD0408AE0889D6D
:101DE000D001899DB00D1124AF5ABE4FFE01EF55B1
:101DF000FF4F01900D928A95E1F78AE08A9DF001EC
:101E00008B9DF00D1124EF5AFE4FC180C81609F4C6
:101E10009CC08C1508F445C0CC2009F43DC1B1E04C
:101E2000CB1609F408C2D3940ECE7E10C2CF82E046
:101E3000C754DF4F8883C95BD0408AE0FE01EB5472
:101E4000FF4FDE01AF55BF4F01900D928A95E1F72C
:101E5000B2E0FB2EB9CF7E1025CF84E0C556DF4F10
:101E60008883CB59D0408AE0FE01E956FF4FDE015E
:101E7000AD57BF4F01900D928A95E1F7A4E0FA2E7D
:101E80001CCF89EF850DE9E0FE2E823030F0F8E0BE
:101E9000FF2E6C1410F477E0F72EEE96FFAEEE975F
:101EA0007DCE2BE0C21609F4CEC23CE0C312BBCFFC
:101EB0009AE0DE015F9601900D929A95E1F7AD2DC3
:101EC000A802F0011124EF5AFE4FC280E380148172
:101ED0009580F6800085112309F48EC2091178C21D
:101EE000F394B2E0BF1550F4183009F46DC2193004
:101EF00009F49EC2F12C173009F445C2123009F4DE
:101F000042C200E0143009F063C2FDE700E012E0D5
:101F1000FC1508F490C212E01C0DAE0141545F4F55
:101F200064E06E0D812F0E94C80B813009F04EC213
:101F3000C12E14E068E06E0D88E08C0D0E94FC0B51
:101F4000853009F43CC200E076C28AE0DE01A55A81
:101F5000BF4F01900D928A95E1F78D2D9C2D89023E
:101F6000F0011124EF5AFE4FC280F38004815580A6
:101F7000768067801085002309F459C0151187C049
:101F8000083081F1093099F1073051F58C2D8778AF
:101F900087FF03C08150886F8F5F1C2D181B48E09E
:101FA000442E4C0C5AE0852E8F0C082C000C9908FE
:101FB00063E0959487946A95E1F7382CE12EE594D7
:101FC000E594E59441160CF40DC3632D8E2D0E940B
:101FD000BC0B8111FEC2E394185FF4CFF394F39429
:101FE00010E01CC0662009F454C06A94F9CF7394C1
:101FF000A2E0A715A8F7EE24E39404E022E044E071
:102000004F0D6C2D81E00E94800B06E022E04F2DE9
:102010006C2D8CE00E94800B10E000E06F2D70E0D2
:10202000272D4AEE5AE08C2D90E00E9454096E96BE
:10203000CFAE6E976F96FFAE6F97A0960FAFA0973B
:10204000A1965FAEA197A2967FAEA297A3966FAE20
:10205000A397A4961FAFA4978AE0FE01E55AFF4F0D
:10206000DE01AF5ABF4F01900D928A95E1F78AE0E9
:102070008A9DD0018B9DB00D1124AF5ABE4FFE0139
:10208000EF5AFF4F01900D928A95E1F7CCCE1F5F7A
:10209000C5CF10E009E0C2CF9AE0DE01A95BBF4FD7
:1020A00001900D929A95E1F7BD2DB802F00111242F
:1020B000EF5AFE4F0281E38014819580F68080857F
:1020C0001123E9F1981282C0F394E1E0EF1548F48E
:1020D000F12C183059F0193009F4ABC0173009F45D
:1020E00055C0123009F452C01430E1F40E3708F034
:1020F0007EC024E0822E8E0C12E0100FAE014154FF
:102100005F4F682D812F0E94C80B813009F05CC0A1
:10211000012F14E0682D84E0800F0E94FC0B8530B5
:1021200009F44DC0173009F479C008F051C01230DD
:1021300009F45DC0143009F466C081E08C0D2A9664
:102140000FAF2A972B96EFAE2B972C961FAF2C979D
:102150002D969FAE2D972E96FFAE2E9760968FAF41
:1021600060978AE0FE01E95BFF4FDE01DD9601909A
:102170000D928A95E1F78AE08A9DD0018B9DB00D82
:102180001124AF5ABE4FFE01FD967CCF0330D8F12B
:1021900034E0832E8E0C1EEF100FAE0141545F4FC2
:1021A000682D812F0E94C80B813061F4012F12E04D
:1021B000682D802F0E94FC0B843009F0B3CFEA9485
:1021C000EA94B0CF14E0F4CF12E0A4CFC82EAACF87
:1021D000183059F1193009F0B0CF6E2D70E02F2D65
:1021E0004CE05CE0802F90E00E945409A6CF6E2D59
:1021F00070E022E02F0D44E05BE0802F90E00E9431
:10220000540912E09ACF6E2D70E02F2D44E05BE070
:10221000802F90E00E94540914E08FCF6E2D70E063
:1022200024E02F0D44E05BE0DDCF6E2D70E026E072
:10223000F8CF10E082CF9AE0DE01D39601900D92A4
:102240009A95E1F72D2D2802F0011124EF5AFE4F47
:10225000E280C38014819580F6800085112309F403
:102260006BC0091155C0F39431E03F1548F41830A4
:1022700009F44AC0193009F47BC0F12C173021F160
:10228000123011F100E0143009F042C09DE700E087
:1022900012E09E1508F46FC004E00C0D12E01E0D54
:1022A000AE0141545F4F602F812F0E94C80B8130D7
:1022B00069F5E12E14E0602F84E08E0D0E94FC0B86
:1022C0008530E9F000E057C082E000E014E08E15B0
:1022D00008F051C004E00C0D1EEF1E0DAE0141547C
:1022E0005F4F602F812F0E94C80B813059F4E12E7F
:1022F00012E0602F8E2D0E94FC0B843019F7CA94D7
:10230000CA94E0CF14E0F5CFF12CC0CF12E0D3CFC8
:102310006C2D70E08E2D90E0183041F12F2D4CE0A7
:102320005CE0193031F0173031F522E02F0D46E234
:102330005BE00E9454090F5FEDAACEAA1FAB98AED6
:10234000F9AE0BAF8AE0FE01F396DE01999601909B
:102350000D928A95E1F78AE08A9DD0018B9DB00DA0
:102360001124AF5ABE4FFE01B9968CCE24E0DECFC9
:1023700000E0F12C10E06C2D70E02F2D46E25BE0C8
:102380008E2D90E0D6CFE2E000E014E0EC1508F0EE
:1023900052C01EEF1C0DAE0141545F4F64E06E0D44
:1023A000812F0E94C80B813069F4C12E12E068E0D1
:1023B0006E0D8C2D0E94FC0B843009F0C4CDEA9484
:1023C000EA94C1CD14E0F3CFF12C9FCD12E0B2CD51
:1023D0006E2D70E08C2D90E0183041F12F2D4CE0E7
:1023E0005CE0193031F0173031F523E02F0D40E477
:1023F0005BE00E9454090F5FC9A2EAA21BA39CA242
:10240000FDA20FA38AE0FE017F96DE0155960190A2
:102410000D928A95E1F78AE08A9DD0018B9DB00DDF
:102420001124AF5ABE4FFE0175962CCE26E0DECFAA
:1024300000E0F12C10E06E2D70E02F2D40E45BE009
:102440008C2D90E0D6CF9AE0DE011B9601900D9284
:102450009A95E1F72D2D2802F0011124EF5AFE4F35
:10246000F280038114819580E680C084112309F4F1
:102470003FC0C91031C0E39433E03E1550F418302A
:1024800009F46EC0193009F4A0C0E12C173009F42A
:1024900049C0123009F446C01430E9F49DE7C12C5C
:1024A0009F1508F470C012E01F0DAE0141545F4F3C
:1024B00064E0600F812F0E94C80B813009F052C088
:1024C000F12E14E068E0600F88E08F0D0E94FC0B95
:1024D000853009F441C0C12C173009F46BC008F0F5
:1024E00043C0123009F44FC0143009F458C0C394EB
:1024F000FD860E871F87988AE98ACB8A8AE0FE01CB
:102500003B96DE01119601900D928A95E1F78AE0E3
:102510008A9DD0018B9DB00D1124AF5ABE4FFE0194
:102520003196B0CD82E0C12C8F15C8F51EEF1F0D7E
:10253000AE0141545F4F64E0600F812F0E94C80BD1
:10254000813061F4F12E12E068E0600F8F2D0E945F
:10255000FC0B843009F0BFCF0250BDCF14E0F4CFA4
:10256000E12C9CCF12E0AECF183059F1193009F0B0
:10257000BECF602F70E02E2D4CE05CE08F2D90E000
:102580000E945409B4CF602F70E024E02E0D4AE879
:102590005BE08F2D90E00E94540912E0A8CF602FDD
:1025A00070E02E2D4AE85BE08F2D90E00E945409E8
:1025B00014E09DCF602F70E02CE02E0D4AE85BE028
:1025C000DDCF602F70E028E0F8CFC12CE12C10E0C7
:1025D0008ECFF82CFF0CFF0CFF0CA7EFFA0E10E0CB
:1025E00008E01CCDB1E3BF1508F0F8CC10E008E01E
:1025F0008FE2F82E98E2C92E11CDC154DF4F0FB6ED
:10260000F894DEBF0FBECDBFDF91CF911F910F9128
:10261000FF90EF90DF90CF90BF90AF909F908F9002
:102620007F906F905F904F903F90089520E044EE30
:1026300058E064E270E080E190E00E9454098CE090
:102640000E942107882319F081E08093D802089521
:1026500020E042EE56E070E060E080E290E00E9410
:1026600054098CE00E942107882319F081E08093AF
:10267000D8020895EF92FF920F931F93CF9320E01B
:1026800040EE52E070E060E090E080E00E9454098B
:1026900085E1E82EF12C02E010E02EEF200FC09132
:1026A000010142E552E068E370E0C017110611F045
:1026B0006CE370E0C7010E9454090F5F1F4F86E171
:1026C000E80EF11C0630110541F780E40E94210755
:1026D000882329F0C53018F4CF5FC093010180E250
:1026E0000E942107882339F080910101833018F07E
:1026F00081508093010184E00E942107882321F00A
:10270000809101018093D802CF911F910F91FF908A
:10271000EF900895CF93C0914D01CF5FC0934D01CD
:1027200020E04CEA50E064E070E082E290E00E9439
:102730005409C53B18F081E08093D802CF910895E9
:10274000CF9380E40E94210781110E94330B80E225
:102750000E94210781110E942E0B8CE00E9421070C
:10276000882381F0C091F20182E090E00E94931DE5
:10277000C81729F06C2F82E090E00E949B1D81E039
:102780008093D802CF9108951F920F920FB60F92A7
:1027900011248F939F938091E1009091E100937FAA
:1027A0009093E10083FF0FC01092E90091E09093B5
:1027B000EB001092EC0092E39093ED001092EE0289
:1027C00098E09093F00082FF22C093E09093E9009C
:1027D0009091F200992319F09AE39093E800909178
:1027E000DF02992341F09091DF0291509093DF0234
:1027F000911101C05D9A9091ED02992341F0909161
:10280000ED0291509093ED02911101C0289A84FF3E
:1028100018C08091E2008E7E81608093E2008091FA
:10282000E1008F7E8093E1008091E0028E7E8061E6
:102830008093E0029F918F910F900FBE0F901F9099
:10284000189580FFF7CF8091E2008E7E80618093A3
:10285000E2008091E1008E7E8093E1008091E002B1
:102860008E7E8160E5CF1F920F920FB60F921124DA
:10287000CF92DF92EF92FF920F931F932F933F938C
:102880004F935F936F937F938F939F93AF93BF9378
:10289000EF93FF93CF93DF93CDB7DEB76C97DEBF97
:1028A000CDBF1092E9008091E80083FF25C068E069
:1028B000CE0145960E94900882EF8093E8008D89B2
:1028C00087FF39C09091E80090FFFCCF982F907659
:1028D00009F034C19E894F89588D2F89F88C911148
:1028E00031C0803861F58091DE028093F100109252
:1028F000F1008EEF8093E8006C960FB6F894DEBF7F
:102900000FBECDBFDF91CF91FF91EF91BF91AF91FE
:102910009F918F917F916F915F914F913F912F91F7
:102920001F910F91FF90EF90DF90CF900F900FBE0F
:102930000F901F9018959EEF9093E800C7CF1092CC
:10294000F100D5CF913059F48111D3CF41305105E9
:1029500081F68091DE028D7F8093DE02CACF9330B4
:1029600049F48111C6CF4130510519F68091DE023C
:102970008260F2CF953041F48091E80080FFFCCF77
:1029800020682093E300B5CF963009F0A9C00B8DE5
:102990001C8D22E01092E9001092DC021092DB0202
:1029A000F2122EC01092DA021092D9020E945F0831
:1029B0001F8299E09983FA8291E09E8390EA98873A
:1029C0009AEF99872091DB023091DC02275F3F4F1D
:1029D0003C832B838D831092E9001092DC021092CD
:1029E000DB021093DA020093D90249E050E0BE0105
:1029F0006F5F7F4F80E00E9439080E945F0879CFA7
:102A00001093DA020093D9020E947607DC01129635
:102A10000D911C910115110509F410C1D801ED911A
:102A2000FC910480F581E02DBE016B5E7F4FC801F3
:102A30000995009709F0FDC0F80100851185EACFDE
:102A4000F3E0FF120EC08F89882309F440C0823062
:102A500061F440E867E083EE9DE00E948A1A8111EC
:102A600048CF81E28093EB0047CF813029F440E8E2
:102A70006BE087ED9DE0F1CF833099F70E947607F8
:102A8000DC011296ED90FC908E010F5F1F4F6801E4
:102A9000E114F10479F0D701ED91FC910680F78102
:102AA000E02DB801C7010995080F111DF701E08459
:102AB000F184EECFD8011C92F60101900020E9F7D5
:102AC0003197BF016C197D0940E0C601C6CF61ECAA
:102AD0007DE0FB01449150E080E80E94390809CF75
:102AE000973009F4BECF983021F481E08093F10053
:102AF00000CF993009F0FDCE837009F0B2CFE6E146
:102B0000F1E081E031E096E32191222371F080939E
:102B1000E9003093EB00DF0111972C912093EC003A
:102B20009093ED008F5F873079F78EE78093EA000E
:102B30001092EA008F898093EE02DBCE8B8D9C8D04
:102B40001092E9001092DC021092DB029093DA02FC
:102B50008093D902898D811151C08E899D89913AC6
:102B600049F4813209F07DCF47E050E069E071E03F
:102B700080E0B3CF913209F074CF833269F48F894A
:102B8000988DB0E0A0E08093050190930601A0939A
:102B90000701B0930801ADCE803269F48091E8005E
:102BA00082FFFCCF67E089E091E00E9490088BEF04
:102BB0008093E8009ECE823209F09BCE8F8980936D
:102BC00010018091090190910A01A0910B01B0912F
:102BD0000C01803B9440A105B10569F4809110017E
:102BE00080FD09C088E78093DD02809164008F7DBD
:102BF000809364007ECE1092DD027BCE0E94760729
:102C0000DC0112960D911C910115110509F429CFD3
:102C1000D801ED91FC910190F081E02DBE016B5E39
:102C20007F4FC8010995811164CEF8010085118597
:102C3000EBCF181619060CF45CCE13CFF1E0FF129F
:102C4000FFCE65EC7DE045CF0F930FB70F931F923A
:102C500011248F939F93EF93FF93E4EDF2E0809123
:102C6000CF0291E08D5F8D3710F08D579395809353
:102C7000CF028081890F80839181911D9183028190
:102C8000011D02838381811D838309270F7009271A
:102C900002950093CE0235D081110093CC02803989
:102CA00089F40091CD02901B963070F087E78093F5
:102CB00000088093010888E198E080936000909379
:102CC0006000FFCF9093CD028091DD02815018F01B
:102CD0008093DD0259F3E0EDF2E08081918101966D
:102CE0008083918382819381811D911D828393834F
:102CF000FF91EF919F918F911F900F910FBF0F91B7
:102D000018958FB18095807F669B88601C9B84603E
:102D100008952F923F924F925F926F927F928F927F
:102D20009F92AF92BF92CF92DF92EF92FF920F935A
:102D30001F93CF93DF9339E3C32E31E0D32EC4EF3B
:102D4000D1E010E000E0772473944BE1942E56E339
:102D5000852E69E0462E6DE3562E22242A94322CCD
:102D6000EEA5EE23A9F08FA59E2F9370891708F486
:102D70009BC0F0E0F595E795F595E795EE0FFF1F01
:102D8000E25DF34F85919491F601928381831FA6B2
:102D90009CA99923F9F08DA9292F2F77022E000CD9
:102DA000330B821713060CF489C08A8197FF7FC00A
:102DB00081508A838A8181117CC081E08A83EA8183
:102DC000F0E0EE0FFF1FE25DF34F859194919EA31B
:102DD0008DA31DAA58A5552321F13AA529A5311186
:102DE00019C0422F407426FF6CC08DA19EA1850F93
:102DF000911D57FD9A9527FD69C097FD65C0442335
:102E000009F466C0863BF4E29F0714F085EB94E278
:102E10009EA38DA381E0830F8AA72F73321708F03A
:102E20001AA69BA5992371F0EA81EE2359F08DA58E
:102E30002CA5482F4F71322F3F71431708F04AC01D
:102E40008F5F8DA749A9442311F13AA9632F6074BC
:102E500036FF6CC08DA19EA12BA950E027FF69C051
:102E6000840F951F97FD68C0662309F469C0863BEF
:102E700044E2940714F085EB94E29EA38DA33F7186
:102E8000822F8F71831708F05DC02F5F2BAB89A154
:102E90009AA1009709F45DC08F3F980709F49AC082
:102EA00001979AA389A396C08F5F8FA771CF8F5F79
:102EB00080CF803408F483CF8FE380CF8F5F8DABDA
:102EC00089CF8FA190E093CF90E080E04111A0CF17
:102ED0008FA3A0CF807EF1F480E28DA78DA5807EA8
:102EE00051F09F3F09F1292F22952F70E20F803476
:102EF00011F49F70E90F88A9F0E0E80FF11D87FD3C
:102F0000FA95EE0FFF1FE25DF34F859194919EA31A
:102F10008DA398CF803231F426FD04C09F3F11F07D
:102F200080E4DBCF1DA6DACFE0E0E1CF8FA190E017
:102F300093CF841B950B96CF90E080E061119DCFDD
:102F40008FA39DCF27FF02C01BAAA1CF80E88BAB28
:102F50009ECFC8010496672C01C0660C8A95EAF7DB
:102F6000909E5001919EB00C1124809EC001819EC4
:102F7000900D11249C012C503E4F7901888199813C
:102F8000BC016F5F7F4F79836883FC0144914034BB
:102F900008F07CC04A83442319F088A9480F4A836B
:102FA000EA81F0E0EE0FFF1FE25DF34F859194910F
:102FB0009EA38DA389A5811102C08FA58FA38CA587
:102FC00085FD1DA689A19AA10097C1F28F3F9807A0
:102FD00009F066CF20910401822F90E0002E02C0FC
:102FE000959587950A94E2F780FD0AC0033009F0B1
:102FF000E7C18091BD0290E0959587958093480147
:10300000207F39F58091140290914A02890F9091A6
:103010008002890F9091B602890F09F4D9C18CEC16
:10302000A82E82E0B82E94EFE92E91E0F92EF70158
:1030300080A10E944D09F7019183808312A211A201
:10304000F6E3EF0EF11CAE14BF0489F780EF809316
:1030500004010F5F1F4FE696F5E0CF0ED11C043040
:10306000110509F07DCEDF91CF911F910F91FF9057
:10307000EF90DF90CF90BF90AF909F908F907F9018
:103080006F905F904F903F902F900895403A08F0D6
:1030900009C1E42FE054FF0BEC30F10509F4BFC087
:1030A0000CF04CC0E530F10509F4A2C0F4F4E230B4
:1030B000F10509F49DC094F4309709F491C031975B
:1030C00009F080CF029699838883FB01649168A7F9
:1030D00080E0413409F080E489A774CFE330F10542
:1030E00009F493C0349771F36DCFE830F10509F41A
:1030F00062C0A4F4E630F10509F487C0379709F0FF
:1031000061CFFB0164916BA79C012D5F3F4F398319
:103110002883FC013296E491ECA754CFEA30F10504
:1031200009F47BC002963B970CF471C099838883A5
:10313000FB01849168A9680F68AB44CFE331F105C6
:1031400009F477C064F5EF30F10509F470C0DCF4E0
:10315000ED30F10509F469C03E9709F033CFFB016A
:103160002591349129AB9C012D5F3F4F39832883F2
:10317000FC0132962591349180E04E3409F080E4D0
:10318000820F8AAB1FCFE131F10509F450C03CF347
:10319000029699838883FB0164916CAB13CFEC3565
:1031A000F10509F451C04CF4E431F10509F443C0D0
:1031B000759709F007CF1BA605CFEE35F10509F489
:1031C0005CC00CF454C0EF35F10509F0FBCE8091E2
:1031D00004018625809304011FA23AA229A2F2CEFF
:1031E000029699838883FB0164916FA36FA7EACE4F
:1031F000FB01649168A79C012D5F3F4F39832883B1
:10320000FC013296E491E9A7DDCE18A6DBCE9983C6
:103210008883FB0164916EA7D5CE1EA6D3CE0296FD
:1032200099838883FB01649187CF18AACBCE19AA12
:10323000C9CE1CAAC7CEFFEFFBA70296998388834D
:10324000FB0164916CA7BECE029699838883FB0133
:103250006491E091F3016E0F6093F30170E0C2019D
:103260000E940C1E7093380160933701ABCE02961A
:1032700099838883FB016491EFCFA4EFB1E021E053
:1032800030E0FC01E20FF31FE4919096EC939097ED
:103290002F5F3F4FD6962530310599F705969983D4
:1032A000888390CE403E28F44F59550B5AA349A32A
:1032B00089CE403EA9F4DE0190E080E09695982FFB
:1032C000882797958795ED91FD91E4912E2F2F7783
:1032D000822BE7FDF3CF8F5B9F4F9AA389A372CE1A
:1032E0004C3F08F46FCE24E0240F223098F54C3F79
:1032F00079F1029699838883FB016491E881F981D1
:103300009F012F5F3F4F39832883E4915CA15E17B3
:10331000D1F04F8D842F90E07BA1D701A80FB91F6A
:1033200051967C93519758965C93D501A80FB91F7D
:10333000AA0FBB1FAC50BE4F14963C932E9313970D
:103340004F5F4F8FECA36BA38CA10E944D09A7CFB9
:1033500060E0D4CFDE0190E080E04E3FF9F48BA135
:10336000811119C0EF8DEE2379F3E150EF8FF0E07A
:10337000D501AE0FBF1FAA0FBB1FAC50BE4F139697
:103380008D919C9199838883EE0DFF1D81898BA37C
:10339000808D8CA317CE81508BA3D6CF9695982F76
:1033A000882797958795ED91FD91E4913E2F3F7782
:1033B000832BE7FDF3CF680F791F7983688302CEF3
:1033C0008DA19EA1F601928381838FA1808318CE67
:1033D00088EDE4EFF1E011928A95E9F7109272001E
:1033E00038CE2F922FB62F9320913601209520931F
:1033F000360109F08BC0BF93AF930F921F922091BB
:10340000440100904601020E0092460120914501C0
:1034100010904701121E10924701B12DB7FDB095D3
:10342000BB0FA0914301B058BA02110CA12D2091FD
:103430003A0100903C01020E00923C0120913B01B8
:1034400010903D01121E10923D01212D220F2121CD
:10345000B091390127FDB195AB0F20913F0100904C
:103460004101020E00924101209140011090420161
:10347000121E10924201B0913E0117FCB195AB0FA4
:10348000B1E00090490110904A01000C111C17FC9A
:103490000B2616FC0B260092490110924A01B091AE
:1034A000480117FCB195AB0FB0910001AB0FA09391
:1034B000CF00B0913501A0913401119729F0B0935C
:1034C0003501A09334011EC0B0913801A09137019D
:1034D000B0933501A093340178943F934F935F9359
:1034E0006F937F938F939F93EF93FF9311240E9489
:1034F0008916FF91EF919F918F917F916F915F91CD
:103500004F913F911F900F90AF91BF912F912FBE80
:103510002F901895EF92FF920F931F93CF93DF9305
:10352000F82E192FE62E042F81E0860F880F0E94B7
:103530000B0883E00E940B08CF2DD12FEC0EFD2E3F
:10354000F11CCE15DF05B9F007FF13C0FE01849111
:103550000E940B08182F80E00E940B0881232196FF
:103560008111EFCFDF91CF911F910F91FF90EF90DD
:1035700008958881EDCF81E0F5CFEFEEF6E013827C
:10358000128288EE93E0A0E0B0E084839583A68366
:10359000B78380E291E0918380838FEF9FEF9587DF
:1035A0008487EFE3F7E082E391E0918380831582E3
:1035B000168280E18783148213821186089578949D
:1035C00083E084BD83E085BD81E080936E00E1E807
:1035D000F0E083E08083E0E881E08083E1E983E05C
:1035E0008083E0E981E08083E1EC87E08083E3ECA5
:1035F00081E08083E0EC82E08083E2EC81E0808304
:10360000EAE787E08083806880831092EE02109260
:10361000DE021092E0028091D70081608093D70093
:1036200080EA8093D80089B5806189BD89B58260C0
:1036300089BD09B400FEFDCF81E090E00E949E08A4
:103640008091D8008F7C80618093D8008091E000C9
:10365000807F8093E0008091E1008E7E8093E10086
:103660008DE08093E200559A209A81EC80937C0053
:1036700081EF85B987EE84B984E38BB984EF8AB989
:10368000769A6E9880EF81BB10BA80E58CBD81E0A0
:103690008DBD85E090E00E94290B5F9902C05F9A82
:1036A000F8CF5C98EEE5FDE09DE085918EBD0000D1
:1036B0000DB407FEFDCF8EB59A95B9F75C9A81E8F7
:1036C0008093640081E0809365000E942C070E9433
:1036D0002B0B87FF11C05C9885EA8EBD00000DB4EE
:1036E00007FEFDCF8EB55C9A2E982F982D9881E01D
:1036F00083BF889513BEFCCF0E942B0B82FF48C06E
:103700002D980E942B0B84788438E1F40E94270BBB
:1037100088EC90E00E94290B2F9882E090E00E94B4
:10372000931D8F3F29F06FEF82E090E00E949B1D78
:1037300084EF91E00E94290B2F9A0E942B0B847832
:103740008438D9F30E942B0B84718431E1F40E94F8
:10375000270B88EC90E00E94290B2E9882E090E0E5
:103760000E94931D882329F060E082E090E00E948F
:103770009B1D84EF91E00E94290B2E9A0E942B0B37
:1037800084718431D9F388EC90E00E94290BB4CF86
:103790000E94270B82E090E00E94931D882309F489
:1037A00072C00E94330B81E090E00E94931D182F9D
:1037B000147081E090E00E94931D81FF0CC01111F4
:1037C0002E98C0EFDFEF0E942B0B86FF5FC02E9A72
:1037D0002F9A0E94270B82E390E00E94290B0E94FF
:1037E0002B0B8111F8CF80E1809346078091640014
:1037F0008E7F8093640080917A00806480937A0049
:1038000080917A0086FDFCCFC0917800D09179003C
:103810000E943509AB01BC01CE01B0E0A0E0DC01A3
:10382000992788278C019D01040F151F261F371F1C
:10383000C901B801209164002160209364006115E2
:1038400071058105910511F00E948A1DEE24E39413
:103850000FEE12E0C0E0D0E0DD24D3949091D402CA
:1038600080914707292F281B822FF0904807FF20BF
:1038700009F47AC02093490710924807209771F302
:103880000E940000EBCF0E942E0B8DCF112329F058
:10389000C430D10511F42E9A2F9881E00E942C0794
:1038A0000C2F0770A02EAE0133E0559547953A9541
:1038B000E1F7CA019695982F8827979587958151AA
:1038C0009D4F70E060E04E3F2FEF520769F130E00E
:1038D00020E0DB01A255B34F7C01E0E8EE0EF11CC5
:1038E000FD01E20FF31FE491F0E04F010A2C02C04A
:1038F000880C991C0A94E2F74F3F540739F06C0189
:10390000C20ED31EF601B488B828B48AAA2039F0B2
:103910006701C20ED31EF60104890929048B2F5FAB
:103920003F4F28353105E1F64F5F5F4F80589F4F7D
:10393000685A7F4F603B710531F680E00E942C078A
:103940008FE090E00E94290B2196C931D10509F042
:103950003ACF112311F02F9A2D9880E991E00E941F
:10396000290B0E94270B37CF20914607821740F47E
:103970008F5F821708F082CFE3BE889513BE7ECF9B
:10398000D092480790934707809142079091430750
:103990000196909343078093420780914407809358
:1039A00045070E942B0B809344079F2DF80191112E
:1039B0009FEF8FEF91939193919391938150D0F7D3
:1039C000E091D802F0E0EE0FFF1FE559F24F85912C
:1039D0009491FC01099580E00E942C074FCF8F92B3
:1039E0009F92AF92BF92CF92DF92EF92FF92CF93CE
:1039F000DF93EC01688179818A819B816115710572
:103A00008105910521F464E279ED8BE597E02DE1E4
:103A100033EF41E050E00E94A91D49015A019B018A
:103A2000AC01A7EAB1E40E94C81D6B017C01ACEEB9
:103A3000B4EFA50194010E94D61DC60ED71EE81E44
:103A4000F91EF7FE06C081E0C81AD108E10880E837
:103A5000F80AC882D982EA82FB82C701B6019F7741
:103A6000DF91CF91FF90EF90DF90CF90BF90AF901C
:103A70009F908F9008958F929F92AF92BF92CF9216
:103A8000DF92EF92FF92609111017091120180918B
:103A9000130190911401611571058105910521F4BF
:103AA00064E279ED8BE597E02DE133EF41E050E002
:103AB0000E94A91D49015A019B01AC01A7EAB1E48A
:103AC0000E94C81D6B017C01ACEEB4EFA50194010E
:103AD0000E94D61DC60ED71EE81EF91EF7FE06C0B0
:103AE00081E0C81AD108E10880E8F80AC092110103
:103AF000D0921201E0921301F0921401C701B601B5
:103B00009F77FF90EF90DF90CF90BF90AF909F9006
:103B10008F900895609311017093120180931301A7
:103B2000909314010895F999FECF92BD81BDF89A42
:103B3000992780B50895262FF999FECF1FBA92BD17
:103B400081BD20BD0FB6F894FA9AF99A0FBE01967E
:103B50000895052E97FB1EF400940E94C01D57FD8A
:103B600007D00E94DB1D07FC03D04EF40C94C01D4F
:103B700050954095309521953F4F4F4F5F4F089599
:103B800090958095709561957F4F8F4F9F4F0895C9
:103B90000E94FD1DA59F900DB49F900DA49F800DC8
:103BA000911D11240895B7FF0C94C81D0E94C81DD3
:103BB000821B930B0895A1E21A2EAA1BBB1BFD01C9
:103BC0000DC0AA1FBB1FEE1FFF1FA217B307E407FC
:103BD000F50720F0A21BB30BE40BF50B661F771F54
:103BE000881F991F1A9469F7609570958095909534
:103BF0009B01AC01BD01CF010895A29FB001B39F0D
:103C0000C001A39F700D811D1124911DB29F700DE5
:103C1000811D1124911D089597FB072E16F4009421
:103C200007D077FD09D00E94201E07FC05D03EF486
:103C3000909581959F4F0895709561957F4F089558
:103C4000AA1BBB1B51E107C0AA1FBB1FA617B707C2
:103C500010F0A61BB70B881F991F5A95A9F78095DE
:103C60009095BC01CD010895EE0FFF1F0590F491D2
:083C7000E02D0994F894FFCF48
:103C780080034020F0FFFFFFFF00E100000000008C
:103C8800000100000000C180810000000000000069
:103C98008A07B208AB07A007F107AF07CD070000F6
:043CA80000009D0873
:00000001FF
