:100000000C9450150C9478150C9478150C94781564
:100010000C9478150C9478150C9478150C9478152C
:100020000C9478150C9478150C943A230C94A9230D
:100030000C9478150C9478150C9478150C9478150C
:100040000C9478150C9478150C9478150C947815FC
:100050000C9478150C9478150C9478150C949A25BA
:100060000C9478150C9478150C9478150C947815DC
:100070000C9478150C9478150C9478150C947815CC
:100080000C9478150C9478150C9478150C947815BC
:100090000C9478150C9478150C9478150C947815AC
:1000A0000C9478150C9478150C94781505A84CCD03
:1000B000B2D44EB93836A9020C50B9918688083CA2
:1000C000A6AAAA2ABE000000803F3C38000000001B
:1000D0000080F8FE0FE3FB1B0B0B8BFBF3F7F6F630
:1000E000F60606ECECECECECECECECECECECECEC12
:1000F000ECEEE6F6F6F6F7F3FBFBCBCBFBE30FFEFD
:10010000F8801E332121339E00000080F8FF0FE0AD
:10011000F8F9F9F9F9F9F9F9F1F3F3F3F3F0F0FF7C
:10012000FFFFFFFFFFFFFFFFFFFFFFFFFFFFFFFFDF
:10013000FFFFFFFFFFFFFFFF7F7FFEE00FFFF88065
:10014000060600000000000F3FF0C6070404070782
:1001500007070707070707070707FFFFFFFFFFFF5F
:10016000FFFFFFFFFFFFFFFFFFFF0707070707076F
:100170008787070726860707C6F03F1F0080800095
:10018000000000000000030784C4E4E4E4E4E4E4C5
:10019000E4E4C49C000FE7E7E7E7E7E7E7E7E7E722
:1001A000C7870F1F0FC7E7E0ECE4E4E4E5E5E4C42C
:1001B000040404070300C040C30311000000000052
:1001C00000000000FFFFFFFFFF393939FFFFFF0F7D
:1001D000E0E0EFEF0FFFFF183879FFFFF703E0E0F3
:1001E000EFEF0FFFF9F0F0FCFDFDFD0DECE0E0E0BE
:1001F0000000012101000000000080C0602060C0FC
:1002000080000000000C0C007EFE803C3E1C1C1C8C
:100210001C1C0C0C0E0C0C0C0C0E1E1C1C1C1C3C78
:100220003E80FE7E00000000C0E0E0C00000000054
:10023000030300000E1B3166C680D060311B0E0028
:10024000003828380001471E3820202020301010A8
:10025000D0D0101090103020202020381E07010030
:100260000006060000010100000000000000000080
:1002700014087F417777417F4155555D7F415F5F2E
:100280007F417575717F7F417575717F415F5F7FBC
:10029000417575417F717747717F7F5D415D7F411A
:1002A0007B77417F4175757D7F415D5D417F7F41FA
:1002B0005D5D5D7F415D5D417F417B77417F417544
:1002C000757F7F515555457F4175757D7F4977779E
:1002D000497F000000007F415D5D417F4175757D74
:1002E0007F4175757D7F000000007F415D5D417F2E
:1002F000417B77417F00000000000000000080404B
:1003000000000000000000000000000000000000ED
:1003100000000000000000000000000000000000DD
:1003200000000000000000000000000000000000CD
:100330000000000000000000008080C0C0F0F8F85D
:10034000C0C080800000000000000000000000002D
:10035000000000000000000000000000000000009D
:10036000000000000000000000000000000000008D
:10037000000000000000000000000000000000007D
:10038000000000000000000000000000000000006D
:10039000000000000000000000000000000000005D
:1003A000000000000000000000000000000000004D
:1003B0000000000060389EDEEFE7F7F3FBF9FDF97F
:1003C000FBF3F7E7EFCF3E7880000000000000006D
:1003D000000000000000000000000000000000001D
:1003E000000000000000000000000000000000000D
:1003F00000000000000000000000000000000000FD
:1004000000000000000000000000000000000000EC
:1004100000000000000000000000000000000000DC
:1004200000008080C0E0E0E0C0C0404000E0C0804C
:1004300000000000F1F3E387276767470DF8F0F845
:100440000D4767672787E3F2F8000080C040E0E0CF
:10045000E0800060E0E0E0C0C0C08000000000007C
:10046000000000000000000000000000000000008C
:10047000000000000000000000000000000000007C
:1004800040C0C0C0C0C0C0C0C0C0C0E020F0F0F0DC
:10049000F0F0F0F0F0F0F0F0E0D80C041E1E3F3C5D
:1004A0003C1D1D1D1D1D0C0E0E0E0707070303002E
:1004B0000103060000070F9F3C600E1EBCA9ABA9FC
:1004C000BC1E0E603C9F0F07000081010007070F54
:1004D0000F1F1F1E1E1C3D3D393B3A7A78787C78F1
:1004E000787020A0E0F0F0F0F0F0F0F0F0E0E0E064
:1004F000C0C080808080808080808080808080807C
:100500007F7F7F7F7F7F3F3F3F3F03030080E0E0AF
:10051000E0E0C1C1818183C3C3C3C0C0C0C0C0C04B
:1005200000000000000000C0E0F0F0F8FCFCFEFF5E
:10053000FFFFFFFFF8F0E0030707060E1C010101B3
:100540001C0E0707070300E0F0F8FFFFFEFEFCF8B3
:10055000F0E080000000000000000000F0F0F080FB
:100560008080808707070703018383C3C3C3C1015A
:1005700001010000007F7F7F7F7F7F7F7F7F7F7F04
:10058000F8F8F8FCFC7C7E7E7E7F0000003F3F3F59
:100590003F3F3F1F1F1F1F1F1F1F0F0F0707030195
:1005A000A0F070F0F0E0000101030707078F0F0FC4
:1005B0000F1F1F1F1F3F3F3F3E3838303030303055
:1005C000303030181C1C1E1F1F1F1F0F0F0F8F8F66
:1005D00007070380A0E0E868F0604000070707070E
:1005E000031F1F1F1F1F1F1F1F1F1F1F1F3F3F3FD7
:1005F0003F0000003E3E3C3C7C7C7C7C7C787878F4
:1006000000000000000000000000000000000000EA
:1006100000000000000000000000000000000000DA
:1006200000000003070F1D1E1E1800000C3FFFFEF8
:10063000FCFCF8F8F8F8F8F8F8F8F8FCFCFCFCFC1E
:10064000FCFCFCFCFCFCFEFEFEFEFEFFFF3F1F0769
:10065000000C0E0F0707030100000000000000005F
:10066000000000000000000000000000000000008A
:10067000000000000000000000000000000000007A
:10068000000000000000000000000000000000006A
:10069000000000000000000000000000000000005A
:1006A000000000000000000000000080C0E0F8F939
:1006B000F9F9FBFBFBFFFFFFFFFFFFFFFFFFFFFF62
:1006C000FFFFFFFFFFFFFFFFFFE7C7830000000002
:1006D000000000000000000000000000000000001A
:1006E000000000000000000000000000000000000A
:1006F00000000000000000000000000000000000FA
:100700004020FFFFFF0707E7E7676767676767E75F
:10071000E70707FFFF9F9F07077F7F1F1F9F9F8799
:10072000879F9F1F1F7F7F9F9FE7E76767E7E7FF21
:10073000FF0707E7E7676767676767E7E70707FF99
:10074000FFFFFFFFFF00007F7F6060606060607FF1
:100750007F0000FFFF1919F8F80606F8F86767E14F
:10076000E179799E9E060681816161E6E60101FFDD
:10077000FF00007F7F6060606060607F7F0000FF3F
:10078000FFFFFFFFFFE6E6E6E66666868666661E14
:100790001E6666676766660707E6E67F7F6060E756
:1007A000E7060661611E1EE7E79E9E818198988795
:1007B000879E9E86861E1EE6E6FEFEE6E69E9EFF5F
:1007C000FFFFFFFFFF616187878080E7E76666784C
:1007D0007866667878F8F8E0E09999E0E09E9E8780
:1007E00087666660608080E7E7F9F9818179791F23
:1007F0001F9F9F81819898E7E70707F9F99F9FFF5F
:10080000FFFFFFFFFF0000E1E18787E1E1F8F8E685
:10081000E6666698986161E7E781817F7F6161871D
:100820008760607E7E191987879F9F999998989E07
:100830009E1F1F79799F9F1F1F0606F9F99F9FFF33
:10084000FFFFFFFFFF60607F7F7F7F7F7F7F7F797C
:10085000796666F9F900009F9FF9F9E0E09E9E1F16
:100860001F7E7E60601E1E87879F9F19190707E7FE
:10087000E76666E0E001011E1E060681818787FFAC
:10088000FFFFFFFFFF0000FEFE060606060606FE4F
:10089000FE0000FFFF06060707E1E17F7F6161F8C8
:1008A000F8E6E67878181887877F7F9898E0E00761
:1008B000076666070760600000666607078787FFB0
:1008C000FFFFFFFFFFE0E0E7E7E6E6E6E6E6E6E754
:1008D000E7E0E0FFFFE0E0FEFEE7E7E0E0FEFEFF2E
:1008E000FFF9F9F8F8F8F8E7E7E6E6E7E7F9F9FEDF
:1008F000FEF8F8E0E0E6E6E0E0E6E6F8F8FFFFFF05
:10090000FFFF601800000000000000000000000071
:100910000000000000000000000000007F415D5565
:10092000577F416D6D517F4155555D7F416D6D41E3
:100930007F057D417D057F4155555D7F415D5D634F
:100940003E007F415D55497F117747711F000000D0
:100950000000000000000000000000000000000097
:10096000000000000000000000007F416D6D417F2D
:10097000007F4175151D7F417F515555457F41775A
:1009800077417F007F415D55577F416D6D417F41CC
:100990005F50507F415F50507F4155555D7F415DB5
:1009A0005D633E007F415F685F417F416D6D417FC8
:1009B000417B77417F415D5D637F416D6D417F008C
:1009C00000000000007F416D6D417F417B77417FDA
:1009D000415D5D633E007F417D137D417F416D6DD3
:1009E000417F417B77417F117747711F007F417DB8
:1009F000137D417F416D6D417F417B77417F117751
:100A000047711F007F415D5D417F057D417D057F11
:100A1000417777417F4155555D7F416D6D517F51E4
:100A20005555457F1510008080C080C080C0008073
:100A30000080000000000000000000000000000036
:100A400000000000000000000000000000000000A6
:100A50000007070F040F0C1F0F1F0F1F1E3F1E3F25
:100A60001C3E1C3E387C387C3078307860F060F07A
:100A700040E040E000C000000000008080C080C076
:100A800080C080C080C080C080C080C080C080C066
:100A900080C080C0C0E0C0E0C0E0C0E0C0E040E096
:100AA00000E000000007070F040F040F070F070FF7
:100AB000070F0307030703070103010301030103F2
:100AC00000010001000100010000000000000080A2
:100AD00080C080C0C0E0C0E0C0E0E0F0E0F0F0F82E
:100AE00070F8387C183C0C1E040E0207000300014D
:100AF00000000000000000000007070F040F040FB3
:100B0000070F0307030701030001000000000000B6
:100B100000000000000000000000000000000000D5
:100B200000000000000000000000000000000000C5
:100B300000000000000000000000000000000000B5
:100B40000080008080C080C080C000800000000065
:100B500000C040E040E060F060F030783078387CF1
:100B6000387C1C3E1C3E1E3F1E3F0F1F0F1F0C1FDC
:100B7000040F070F0007000000E040E0C0E0C0E005
:100B8000C0E0C0E0C0E080C080C080C080C080C045
:100B900080C080C080C080C080C080C080C0008015
:100BA000000000000000000100010001000101033D
:100BB000010301030103030703070307070F070FDF
:100BC000070F040F040F070F0007000000000000CC
:100BD0000000000100030207040E0C1E183C387CC4
:100BE00070F8F0F8E0F0E0F0C0E0C0E0C0E080C0F5
:100BF00080C0008000000000000000000000000035
:100C000000000000000000000000000000010103DF
:100C100003070307070F040F040F070F00070A104D
:100C2000FFCF337BCDCD7B33CFFFFFFFFFFFFEFE3A
:100C3000FFFFFFFFCF33FDCDB6B6CDFD738FFFFFB6
:100C4000FEFEFDFDFEFEFFFF0808000E061F021F50
:100C5000001F000E00000000000080E800000000FF
:100C60000000000000000000000000000000000084
:100C700000000000000000000000008080C0C0E014
:100C8000E0F0F0F0F8F8F8F8F8F8F8F8F8F8F8F814
:100C9000F8F8F8F8F8F8F8F8F8F8F8F8F8F8F8F8D4
:100CA000F8F8F8F8F8F8F8F8F8F8F8F8F8F8F8F8C4
:100CB000F8F8F8F8F8F0F0F0E0C08000000000006C
:100CC0000000000000000000000000000000000024
:100CD0000000000000000000000000000000000014
:100CE0000000000000000000000000000000008084
:100CF000C0C0E0F0F8F8FCFEFEFFFFFFFFFFFFFFC3
:100D0000FFFFFFFFFFFF7F7F7F3F3F3F3F1F1F1F13
:100D10001F1F3FFFFFFFFFFFFFFFFFFFFFFFFFFF63
:100D2000FFFFFFFFFFFFFFFFFFFFFFFFFFFFFFFFD3
:100D3000FFFFFFFFFFFFFFFFFFFFFFFCF0F0F0F002
:100D4000F0F0F0F0F0F0F0F0E0E0C0C0C080800023
:100D50000000000000000000000000000000000093
:100D600000000000000000000080E0F0F8FCFEFF42
:100D7000FFFFFFFFFFFFFFFF7F3F3F1F0F0F070733
:100D8000030301010000000000000000000000005B
:100D9000000000FFFFFFFFFF0301010103FFFFFF52
:100DA000FFFFFFFF0F0707070FFFFFFFFFFFFFFF1B
:100DB0000301010103FFFFFFFFFFFFFF1F1F3FFFB5
:100DC000FFFFFFFFFFFFFFFFFFFFFFFFFFFFFFFF33
:100DD000FEFEFCF8F0E080000000000000000000D3
:100DE00000000000C0E0F8FCFFFFFFFFFFFFFFFF77
:100DF0007F3F1F0F070301000000000000000000FC
:100E000000000000000000000000000000000000E2
:100E1000000000FFFFFFFFFFF8F0F0F0F8FFFFFF1A
:100E2000FFFFFFFFE0C0C0C0E0FFFFFFFFFFFFFFCD
:100E3000F8F0F0F0F8FFFFFFFFFF7F1F0000C0FF9A
:100E4000FFFFFFFFFFFFFFFFFFFFFFFFFFFFFFFFB2
:100E5000FFFFFFFFFFFFFFFCE000000000000000BD
:100E60000000E0FCFFFFFFFFFFFFFFFFFFFF0703A6
:100E70000000000000000000000000000000000072
:100E80000000000000000000000000000000000062
:100E900000000001030707070F0F0F1F1F1F3F3F31
:100EA0007FFFFFFFFFFFFFFFFFFFFFFFFF7F3F3FD2
:100EB0001F0F0F8787C3E3E1F1F0F8FCFCFFFFFF92
:100EC000FFFFFFFFFFFFFFFFFFFFFFFFFFFFFFFF32
:100ED000FFFFFFFFFFFFFFFFFFFC0000000000001F
:100EE00000FEFFFFFFFFFFFFFFFFFFFFFF0100000E
:100EF00000000000000000000000000000000000F2
:100F000000000000000000000000000000000000E1
:100F100000808080C0C0C0E0E0E0F0F0F0F8F8F8B9
:100F2000FCFFFFFFFF7F3F1F0F87C3E1F0F8FCFCD2
:100F3000FEFFFFFFFFFFFFFFFFFFFFFFFFFFFFFFC2
:100F4000FFFFFFFFFFFFFFFFFFFFFFFFFFFFFFFFB1
:100F5000FFFF7F3F3FFFFFFFFFFF0000000000009B
:100F6000FFFFFFFFFFFFFFFFFFFFFFFF000000008D
:100F7000000000000000000000808080C0C0C0E0D1
:100F8000E0E0F0F0F0F8F8F8FCFCFCFEFEFEFFFFFD
:100F9000FFFFFFFFFFFFFFFFFFFFFF9F8F8F87C355
:100FA000E3E3F1F1F8F8FCFEFFFFFFFFFFFFFFFFB7
:100FB000FFFFFFFFFFFFFFFFFFFFFFFFFFFFFFFF41
:100FC000FFFFFFFFFFFFFFFFFFFFFFFFFFFFFFFF31
:100FD0000301000000FFFFFFFFFF00000000000012
:100FE000FFFFFFFFFFFFFFFFFFFFFFFFFF0000000E
:100FF000F0FCFCFEFEFEFFFFFFFFFFFFFFFFFFFF19
:10100000FFFFFFFFFFFFFFFFFFFFFFFFFFFFFFFFF0
:10101000FFFFFFFFFFFFFFFFFFFFFFFFFFFFFFFFE0
:10102000FFFFFFFFFFFFFFFFFFFFFFFFFFFFFFFFD0
:10103000FFFFFFFFFFFFFFFFFFFFFFFFFFFFFFFFC0
:10104000FFFFFFFFFFFFFFFFFFFFFFFFFFFFFFFFB0
:101050000000000000FFFFFFFFFF00000000000095
:10106000017FFFFFFFFFFFFFFFFFFFFFFFFC80008F
:10107000033FFFFFFFFFFFFFFFFFFFFFFFFFFFFF3C
:10108000FFFFFFFFFFFFFFFFFFFFFFFFFFFFFFFF70
:10109000FFFFFFFFFFFFFFFFFFFFFFFFFFFFFFFF60
:1010A000FFFFFFFFFFFFFFFFFFFFFFFFFFFFFFFF50
:1010B000FFFFFFFFFFFFFFFFFFFFFFFFFFFFFFFF40
:1010C000FFFFFFFFFFFFFFFFFFFFFFFFFFFFFFFF30
:1010D0000000000000FFFFFFFFFF00000000000015
:1010E0000000073FFFFFFFFFFFFFFFFFFFFFFFFCC9
:1010F000E080031F7FFFFFFFFFFFFFFFFFFFFFFFFA
:10110000FFFFFFFFFFFFFFFFFFFFFFFFFFFFFFFFEF
:10111000FFFFFFFFFFFFFFFFFFFFFFFFFFFFFFFFDF
:10112000FFFFFFFFFFFFFFFFFFFFFFFFFFFFFFFFCF
:10113000FFFFFFFFFFFFFFFFFFFFFFFFFFFFFFFFBF
:10114000FFFFFFFFFFFFFFFFFFFFFFFFFFFFFFFFAF
:101150000000000000FFFFFFFFFF00000000000094
:1011600000000000033FFFFFFFFFFFFFFFFFFFFF47
:10117000FFFFFEF8F0F1FFFFFFFFFFFFFFFFFFFFA4
:10118000FFFFFFFFFFFFFFFFFFFFFFFFFFFFFFFF6F
:10119000FFFFFFFFFFFFFFFFFFFFFFFFFFFFFFFF5F
:1011A000FFFFFFFFFFFFFFFFFFFFFFFFFFFFFFFF4F
:1011B000FFFFFFFFFFFFFFFFFFFFFFFFFFFF7F7F3F
:1011C0003F3F1F1F3FFFFFFFFFFFFFFFFFFFFFFF2F
:1011D0000000000000FFFFFFFFFF00000000000014
:1011E00000000000000000031F3F7FFFFFFFFFFF24
:1011F000FFFFFFFFFFFFFFFFFFFFFFFFFFFFFFFFFF
:10120000FFFFFFFFFFFFFFFFFFFFFFFFFFFFFFFFEE
:10121000FFFFFFFFFFFFFFFFFFFFFFFFFFFFFFFFDE
:10122000FFFFFFFFFFFFFFFFFFFFFFFFFFFFFFFFCE
:101230007F3F1F1F0F0F070703030101000000007E
:101240000000000000FFFFFFFFFFFFFFFFFFFFFFA9
:101250000000000000FFFFFFFFFF00000000000093
:1012600000C0E0F0F8FCFCFEFEFEFEFFFFFFFFFF0B
:10127000FFFFFFFFFFFFFFFFFFFFFFFFFFFFFFFF7E
:10128000FFFFFFFFFFFFFFFFFFFFFFFFFFFFFFFF6E
:10129000FFFFFFFFFFFFFFFFFFFFFFFFFFFF7F7F5E
:1012A0003F3F1F1F0F0F1F3F7F7FFFFFFFFFFFFF0E
:1012B000FEFCFCF8F8F0F0E0E0C0C0808000000028
:1012C0000000000000FFFFFFFFFFFFFFFFFFFFFF29
:1012D0000000000000FFFFFFFFFF00000000F0FE25
:1012E000FFFFFFFF0F070301000000010103070FCD
:1012F000FFFFFFFFFFFFFFFFFFFFFFFFFFFFFFFFFE
:10130000FFFFFFFFFFFFFFFFFFFFFFFFFFFFFFFFED
:10131000FFFFFFFFFFFFFFFFFFC301010000000011
:1013200000000000000000000000000001010303B5
:1013300007070F0F1F1F3F3F7F7FFFFFFFFFFFFECE
:10134000FEFCFCFCFEFFFFFFFFFFFFFFFFFFFFFFB8
:101350000000000000FFFFFFFFFF000000001FFF74
:10136000FFFFFFFFFFFCF0E0E0E0F0F0F8FCFEFF25
:10137000FFFFFFFFFFFFFFFFFFFFFFFFFFFFFFFF7D
:10138000FFFFFFFFFFFFFFFFFFFFFFFFFFFFFFFF6D
:10139000FFFFFFFFFFFFFFFFFFFFFFFCF0C00000AC
:1013A000000000000000000000000000000000003D
:1013B000000000000000000080C0E0F0F9FFFFFF27
:1013C000FFFFFFFFFFFFFFFFFFFFFFFFFFFFFFFF2D
:1013D0000000000000FFFFFFFFFF00000000000111
:1013E0000F3FFFFFFFFFFFFFFFFFFFFFFFFFFFFFBD
:1013F000FFFFFFFFFFFFFFFFFFFFFFFFFFFFFFFFFD
:10140000FFFFFFFFFFFFFFFFFFFFFFFFFFFFFFFFEC
:10141000FFFFFFFFFFFFFFFFFFFFFFFFFFFFFFFCDF
:10142000F0C000000000000000000000000000000C
:1014300080C0E0F0F8FCFEFFFFFFFFFFFFFFFFFFB3
:10144000FFFFFFFFFFFFFFFFFFFFFF1F0301010083
:101450000000000000FFFFFFFFFF00000000000091
:10146000000003073F7FFFFFFFFFFFFFFFFFFFFFBE
:10147000FFFFFFFFFFFFFFFFFFFFFFFFFFFFFFFF7C
:10148000FFFFFFFFFFFFFFFFFFFFFFFFFFFFFFFF6C
:10149000FFFFFFFFFFFFFFFFFFFFFFFFFFFFFFFF5C
:1014A000FFFFFFFCF0C0808080C0E0F0F8FCFEFF92
:1014B000FFFFFFFFFFFFFFFFFFFFFFFFFFFFFFFF3C
:1014C000FFFFFFFFFFFFFFFF1F0300000000000002
:1014D0000000000000FFFFFFFFFF00000000000011
:1014E00000000000000081E7FFFFFFFFFFFFFFFF9C
:1014F000FFFFFFFFFFFFFFFFFFFFFFFFFFFFFFFFFC
:10150000FFFFFFFFFFFFFFFFFFFFFFFFFFFFFFFFEB
:10151000FFFFFFFFFFFFFFFFFFFFFFFFFFFFFFFFDB
:10152000FFFFFFFFFFFFFFFFFFFFFFFFFFFFFFFFCB
:10153000FFFFFFFFFFFFFFFFFFFFFFFFFFFFFFFFBB
:10154000FFFFFFFFFF3F070000000000000000005A
:101550000000000000FFFFFFFFFF0000000000F0A0
:10156000F8F8FCFCFEFEFFFFFFFFFFFFFFFFFFFFA1
:10157000FFFFFFFFFFFFFFFFFFFFFFFFFFFFFFFF7B
:10158000FFFFFFFFFFFFFFFFFFFFFFFFFFFFFFFF6B
:10159000FFFFFFFFFFFFFFFFFFFFFFFFFFFFFFFF5B
:1015A000FFFFFFFFFFFFFFFFFFFFFFFFFFFFFFFF4B
:1015B000FFFFFFFFFFFFFFFFFFFFFFFFFFFFFFFF3B
:1015C000FFFFFFFFFFFEFCFCFCFCFCFCFCFCFCF84E
:1015D0000000000000FFFFFFFFFF0000000000FF11
:1015E000FFFFFFFF7F7FFFFFFFFFFFFFFFFFFFFF0B
:1015F000FFFFFFFFFFFFFFFFFFFFFFFFFFFFFFFFFB
:10160000FFFFFFFFFFFFFFFFFFFFFFFFFFFFFFFFEA
:10161000FFFFFFFFFFFFFFFFFFFFFFFFFFFFFFFFDA
:10162000FFFFFFFFFFFFFFFFFFFFFFFFFFFFFFFFCA
:10163000FFFFFFFFFFFFFFFFFFFFFFFFFFFFFFFFBA
:10164000FFFFFFFFFFFFFFFFFF7F7FFFFFFFFFFFAA
:101650000000000000FFFFFFFFFF0000000000FF90
:10166000FFFFFFFF0000FFFFFFFFFF030101030F6C
:101670007FFFFFFFFFFFFFFFFFFFFFFFFFFFFFFFFA
:10168000FFFFFFFFFFFFFFFFFFFFFFFFFFFFFFFF6A
:10169000FFFFFFFFFFFFFFFFFFFFFFFFFFFFFFFF5A
:1016A000FFFFFFFFFFFFFFFFFFFFFFFFFFFFFFFF4A
:1016B000FFFFFFFFFFFFFFFFFFFFFFFFFFFF7F0FAA
:1016C00003010103FFFFFFFFFF0000FFFFFFFFFF1C
:1016D0000000000000FFFFFFFFFF0000000000FF10
:1016E000FFFFFFFF0000FFFFFFFFFF000000000003
:1016F00000031FFFFFFFFFFFFFFFFFFFFFFFFFFFD5
:10170000FFFFFFFFFFFFFFFFFFFFFFFFFFFFFFFFE9
:10171000FFFFFFFFFFFFFFFFFFFFFFFFFFFFFFFFD9
:10172000FFFFFFFFFFFFFFFFFFFFFFFFFFFFFFFFC9
:10173000FFFFFFFFFFFFFFFFFFFFFFFF1F03000093
:1017400000000000FFFFFFFFFF0000FFFFFFFFFFA3
:101750000000000000FFFFFFFFFF0000000000FF8F
:10176000FFFFFFFF0000FFFFFFFFFF000000000082
:1017700000000000073FFFFFFFFFFFFFFFFFFFFF2D
:10178000FFFFFFFFFFFFFFFFFFFFFFFFFFFFFFFF69
:10179000FFFFFFFFFFFFFFFFFFFFFFFFFFFFFFFF59
:1017A000FFFFFFFFFFFFFFFFFFFFFFFFFFFFFFFF49
:1017B000FFFFFFFFFFFFFFFFFF3F070000000000EC
:1017C00000000000FFFFFFFFFF0000FFFFFFFFFF23
:1017D0000000000000FFFFFFFFFF0000000000FF0F
:1017E000FFFFFFFF0000FFFFFFFFFFE0C0C08080A2
:1017F000000000000000010F7FFFFFFFFFFFFFFF61
:10180000FFFFFFFFFFFFFFFFFFFFFFFFFFFFFFFFE8
:10181000FFFFFFFFFFFFFFFFFFFFFFFFFFFFFFFFD8
:10182000FFFFFFFFFFFFFFFFFFFFFFFFFFFFFFFFC8
:10183000FFFFFFFFFFFF7F0F01000000000000809F
:1018400080C0C0E0FFFFFFFFFF0000FFFFFFFFFFC2
:101850000000000000FFFFFFFFFF0000000000FF8E
:10186000FFFFFFFF0000FFFFFFFFFFFFFFFFFFFF86
:10187000FFFFFEFEFCFCF8F8FCFFFFFFFFFFFFFF91
:10188000FFFFFFFFFFFFFFFFFFFFFFFFFFFFFFFF68
:10189000FFFFFFFFFFFFFFFFFFFFFFFFFFFFFFFF58
:1018A000FFFFFFFFFFFFFFFFFFFFFFFFFFFFFFFF48
:1018B000FFFFFFFFFFFFFCF8F8FCFCFEFEFFFFFF51
:1018C000FFFFFFFFFFFFFFFFFF0000FFFFFFFFFF26
:1018D0000000000000FFFFFFFFFF0000000000FF0E
:1018E000FFFFFFFFF0E0E1C3C387870F0F1F1F3F1C
:1018F0003F7F7FFFFFFFFFFFFFFFFFFFFFFFFFFFB8
:10190000FFFFFFFFFFFFFFFFFFFFFFFFFFFFFFFFE7
:10191000FFFFFFFFFFFFFFFFFFFFFFFFFFFFFFFFD7
:10192000FFFFFFFFFFFFFFFFFFFFFFFFFFFFFFFFC7
:10193000FFFFFFFFFFFFFFFFFFFFFFFF7F7F3F3F37
:101940001F1F0F0F8787C3C3E1E0F0FFFFFFFFFFFB
:101950000000000000FFFFFFFFFF00000000000389
:10196000070F0F1F1F3F3F7F7FFFFFFFFFFEFEFCA4
:10197000FCF8F8F0F0E1E1C3C387870F0F1F1FFFEA
:10198000FFFFFFFFFFFFFFFFFFFFFFFFFFFFFFFF67
:10199000FFFFFFFFFFFFFFFFFFFFFFFFFFFFFFFF57
:1019A000FFFFFFFFFFFFFFFFFFFFFFFFFFFFFFFF47
:1019B0001F1F0F0F8787C3C3E1E1F0F0F8F8FCFCAD
:1019C000FEFEFFFFFFFF7F7F3F3F1F1F0F0F07033D
:1019D0000000000000FFFFFFFFFF0000000000000C
:1019E00000000000000000000000000101030307E8
:1019F000070F0F1F1F3F3F7F7FFFFFFFFFFEFEFF11
:101A0000FFFFFFFFFFFFFFFFFFFFFFFFFFFFFFFFE6
:101A1000FFFFFFFFFFFFFFFFFFFFFFFFFFFFFFFFD6
:101A2000FFFFFFFFFFFFFFFFFFFFFFFFFFFFFFFFC6
:101A3000FEFEFFFFFFFF7F7F3F3F1F1F0F0F0707C8
:101A4000030301010000000000000000000000008E
:101A500000000000003F3F3F3F3F0000000000004B
:101A60000000000000000000000000000000000076
:101A70000000000000000000000000010103030757
:101A80000F3FFFFFFFFFFFFFFFFFFFFFFFFFFFFF16
:101A9000FFFFFFFFFFFFFFFFFFFFFFFFFFFFFFFF56
:101AA000FFFFFFFFFFFFFFFFFFFFFFFFFF3F0F07EE
:101AB000030301010000000000000000000000001E
:101AC0000000000000000000000000000000000016
:101AD000000000000000000000000000080B0002F1
:101AE00002020100090400000102020000052400B6
:101AF0001001052401010104240206052406000149
:101B00000705810310004009040100020A000000DB
:101B1000070502024000000705830240000004039D
:101B2000090412010002EF02014041233680000146
:101B30000102030141726475696E6F204C4C4300D1
:101B400041726475626F7900D5F08D14A1C881CFA0
:101B5000D9F1AF20005810F0F89C8E8783878E9CB7
:101B6000F8F00000FEFF0303030303070EFCF80078
:101B700000FEFF0303030303070EFCF80000FFFF52
:101B800000000000000000FFFF0000FEFF838383D1
:101B90008383C7EE7C380000F8FC0E0703030307BD
:101BA0000EFCF800003F7FE0C08080C0E07F3FFF78
:101BB000FF01010101010101FFFF0000FFFF0C0C0B
:101BC0000C0C1C3E77E3C100007FFFC0C0C0C0C04A
:101BD000E0703F1F00001F3F70E0C0C0C0E0703FDA
:101BE0001F00007FFFC1C1C1C1C1E3773E1C0000DF
:101BF0001F3F70E0C0C0C0E0703F1F000000000049
:101C000001FFFF01000000E21A921A801AE8226E1A
:101C10001A1623F8193B1BEF19EE1980E800000093
:101C200000000000000000000000000000000000B4
:101C300000000000000000000000000000000000A4
:101C40000000000000000000000000000000000094
:101C50000000FFFFFFFFFFFF010000000000000089
:101C600000E0FFFFFFFFFFFF0F000000000000008B
:101C700000F8FFFFFFFFFFFF1F0000000000000053
:101C800000FEFFFFFFFFFFFF3F000000000000001D
:101C900080FFFFFFFFFFFFFF7F000000000000004C
:101CA000E0FFFFFFFFFFFFFF7F00000000000000DC
:101CB000F8FFFFFFFFFFFFFF7F00000000000000B4
:101CC000FCFFFFFFFFFFFFFFFF0000000000000020
:101CD000FFFFFFFFFFFFFFFFFF000000000000808D
:101CE000FFFFFFFFFFFFFFFFFFFF0F00000000C02F
:101CF000FFFFFFC1FFFFFFFFFFFF3F00000000F0FD
:101D0000FFFF1F80FFFFFFFFFFFFFF01000000F844
:101D1000FFFF0380FFFFFFFFFFFFFF07000000F84A
:101D2000FFFF0080FFFFFFFFFFFFFF0F000000FC31
:101D3000FF3F00801FFFFF1FFFFFFF3F000000FE6F
:101D4000FF0F00800FFEFF0FFEFFFF7F000000FF70
:101D5000FF0300800FFEF10FFEFFFFFF000080FF7A
:101D6000FF0000800FFEE00FFEFFFFFF0100C0FF3D
:101D70007F0000800FFEE00FFEFCFFFF0300C0FFAE
:101D80001F0000800FFEE00FFEF8FFFF0300E0FFE2
:101D90000F0000800FFEE00FFEF8FFFF0700F0FFCE
:101DA000070000800FFEE00FFEF8FFFF0700F0FFC6
:101DB000030000800FFEE00FFEF8FFFF0700F8FFB2
:101DC000010000800FFEE00FFEF8FFFF0F00FCFF98
:101DD000000000801FFFE01FFFF8FFFF0F00FC7FE7
:101DE00000000080FFFFE0FFFFF8FFFF0F00FE3F55
:101DF00000000080FFFFF1FF7FF8FFFF1F00FF1FC3
:101E000000000080FFFFFFFF7FFCFFFF1F00FF0FB0
:101E100000000080FFFFFFFF3FFCFFFF1F00FF0FE0
:101E200000000080FFFFFFFF1FFEFFFF1F00FF0FEE
:101E300000000000FFFFFFFF07FEFFFF1F80FF07FE
:101E400000000000FEFFFFFF81FFFFFF3F80FF0358
:101E500000000000F0FFFF7FC0FFFFFF3F80FF0397
:101E60000000000080FFFF1FF0FFFFFF3FC0FF03E7
:101E70000000000000FCFF0FFCFFFFFF3FC0FF035E
:101E80000000000000F0FF03FEFFFFFF3FC0FF0364
:101E90000000000000E0FF81FFFFFFFF3FC0FF03E5
:101EA0000000000000E0FFE0FFFFFFFF3FE0FF0158
:101EB0000000000000E07FF0FFFFFFFF3FE0FF01B8
:101EC0000000000000F03FFCFFFFFFFF3FE0FF01CC
:101ED0000000000000FE1FFEFFFFFFFF3FE0FF01CC
:101EE00000000000C0FF0FFFFFFFFFFF3FE0FF010A
:101EF00000000000F8FF87FFFFFFFFFF3FE0FF014A
:101F000000000000FFFFC3FFFFFFFF7F3EE0FF0177
:101F1000000000E0FFFFE1FFFFFFFF3F3EF0FF009A
:101F2000000000FCFFFFF0FFFFFFFF3F3EF0FF005F
:101F3000000080FFFF3FF8FFFFFFFF1F3EF0FF00A4
:101F40000000F0FFFF07FCFFFFFFFF0F3EF0FF0068
:101F50000000FEFFFF03FFFFFFFFFF0F3EF0FF004B
:101F600000C0FFFFFFC0FFFFFFFFFF0F3EF0FF00BD
:101F700000F8FFFF7FF0FFFFFFFFFF0F3EF0FF00C5
:101F800000FFFFFF7FF8FFFFFFFFFF0F3EF0FF00A6
:101F9000E0FFFFFFFFFFFFFFFFFFFF0F3EF0FF012E
:101FA000FCFFFFFFFFFFFFFFFFFFFF0F3EF0FF8182
:101FB000FFFFFFFFFFFFFFFFFFFFFF0F3EF0FFE10F
:101FC000FFFFFFFFFFFFFFFFFFFFFF0F3EF0FFE1FF
:101FD000FFFFFFFFFFFFFFFFFFFFFF0F3EF0FFF1DF
:101FE000FFFFFFFFFFFFFFFFFFFFFF0F3EF0FFF1CF
:101FF000FFFFFFFFFFFFFFFFFFFFFF0F3EF0FFF1BF
:10200000FFFFFFFFFFFFFFFFFFFFFF0F3EF0FFF1AE
:10201000FFFFFFFFFFFFFFFFFFFFFF0F3EF0FFF19E
:10202000FFFFFFFFFFFFFFFFFFFFFF0F3EE0FFF19E
:10203000FFFFFFFFFFFFFFFFFFFFFF0F3EE0FFE39C
:10204000FFFFFFFFFFFFFFFFFFFFFF0F3EE0FFE38C
:10205000FFFFFFFFFFFFFFFFFFFFFF0F3EE0FFE37C
:10206000FFFFFFFFFFFFFFFFFFFFFF0F3EE0FFE36C
:10207000FFFFFFFFFFFFFFFFFFFFFF0F3EE0FFC37C
:10208000FFFFFFFFFFFFFFFFFFFFFF0F3EC0FFC788
:10209000FFFFFFFFFFFFFFFFFFFFFF0F3EC0FFC778
:1020A000FFFFFFFFFFFFFFFFFFFFFF0F3EC0FFC768
:1020B000FFFFFFFFFFFFFFFFFFFFFF0F3EC0FF8F90
:1020C000FFFFFFFFFFFFFFFFFFFFFF0F3E80FF8FC0
:1020D000FFFFFFFFFFFFFFFFFFFFFF0F3E80FF8FB0
:1020E000FFFFFFFFFFFFFFFFFFFFFF0F3E80FF1F10
:1020F000FFFFFFFFFFFFFFFFFFFFFF0F3E00FF1F80
:10210000FFFFFFFFFFFFFFFFFFFFFF0F3E00FF3F4F
:10211000FEFFFFFFFFFFFFFFFFFFFF0F3E00FF3F40
:10212000FEFFFFFFFFFFFFFFFFFFFF0F3E00FF7FF0
:10213000FCFFFFFFFFFFFFFFFFFFFF0F3E00FE7FE3
:10214000FCFFFFFFFFFFFFFFFFFFFF0F3E00FEFF53
:10215000FCFFFFFFFFFFFFFFFFFFFF0F3E00FEFF43
:10216000FFFFFFFFFFFFFFFFFFFFFF0F3E00FEFF30
:10217000FFFFFFFFFFFFFFFFFF3FFF0F3E00FCFFE2
:10218000FFFFFFFFFFFFFFFFFF0FFE0F3E00FCFF03
:10219000FFFFFFFFFFFFFFFFFF03FE0F3E00F8FF03
:1021A000FFFFFFFFFFFFFFFFFF00FE0F3E00F8FFF6
:1021B000FFFFFFFFFFFFFFFF3F00FE0F3E00F0FFAE
:1021C000FFFFFFFFFFFFFFFF0F00FE0F3E00F0FFCE
:1021D000FFFFFFFFFFFFFFFF0300FE0F3E00F0FFCA
:1021E000FFFFFFFFFFFFFFFF0000FE0F3E00E0FFCD
:1021F000FFFFFFFFFFFFFF3F0000FE0F3E00C0FF9D
:10220000FFFFFFFFFFFFFF1F0000FE0F3E0080FFEC
:10221000FFFFFFFFFFFFFF0F0000FE0F3E0080FFEC
:10222000FFFFFFFFFFFFFF0F0000FE0F3E00F8FF64
:10223000FFFFFFFFFFFFFF1F0000FE0F3E00FEFF3E
:10224000FFFFFFFFFFFFFF7F0000FE0F3E00FFFFCD
:10225000FFFFFFFFFFFFFFFF0100FE0F3E80FFFFBC
:10226000FFFFFFFFFFFFFCFF0700FE0F3EC0FFFF69
:10227000FFFFFFFFFF3FF8FF1F00FE0F3EE0FFFFE5
:10228000FFFFFFFFFF0FF0FF7F00FE0F3EE0FFFFAD
:10229000FFFFFFFFFF03C0FFFF01FE0F3EF08FFFB8
:1022A000FFFFFFFFFF0000FFFF07FE0F3EF807FEE6
:1022B000FFFFFFFF3F0000FCFF1FFF0F3EF803FC86
:1022C000FFFFFFFF1F0000F0FFFFFF0F3EF801F8C8
:1022D000FFFFFFFF1F0000C0FFFFFF0F3EFC00F0ED
:1022E000FFFFFFFF1F000000FFFFFF0F3EFC00F09D
:1022F000FFFFFFFF1F000000FCFFFF0F3EFC00F090
:10230000FFFFFFFF3F000000F0FFFF0F3EFC00F06B
:10231000FFFFFFFF3F000000C0FFFF0F3EFC01F882
:10232000FFFFFFFF7F00000000FFFF0F3EFC01FCEE
:10233000FFFFFFFF7F00000000FEFF0F3EFC03FEDB
:10234000FFFFFFFFFF00000000FEFF0F3EFC03FF4A
:10235000FFFFFFFFFF00000000FFFF0F3EFCC7FF75
:10236000FFFFFFFFFF01000080FFFF0F3EF8FFFFB0
:10237000FFFFFFFFFF010000C0FFFF0F3EF8FFFF60
:10238000FFFFFFFFFF030000E0FFFF0F3EF8FFFF2E
:10239000FFFFFFFFFF030000F0FFFF0F3EF8FFFF0E
:1023A000FFFFFFFFFF070000F8FFFF073EF0FFFF02
:1023B000FFFFFFFFFF070000FCFFFF013EF0FFFFF4
:1023C000FFFFFFFFFF0F0000FEFFFF003EF0FFFFDB
:1023D000FFFFFFFFFF0F0000FFFFFF003EE0FFFFDA
:1023E000FFFFFFFFFF1F0080FFFFFF003EE0FFFF3A
:1023F000FFFFFFFFFF1F00C0FFFF7F003EC0FFFF8A
:10240000FFFFFFFFFF3F00E0FFFF7F003EC0FFFF39
:10241000FFFFFFFFFF3F00F0FFFF7F003EC0FFFF19
:10242000FFFFFFFFFF7F00F8FFFF3F003EC0FFFF01
:10243000FFFFFFFFFF7F00FCFFFF3F003E80FFFF2D
:10244000FFFFFFFFFFFF00FEFFFF1F003E00FFFF3B
:10245000FFFFFFFFFFFF00FFFFFF1F003E00FFFF2A
:10246000FFFFFFFFFFFF81FFFFFF1F003E00FFFF99
:10247000FFFFFFFFFFFFC1FFFFFF0F003E00FEFF5A
:10248000FFFFFFFFFFFFE3FFFFFF0F003E00FCFF2A
:10249000FFFFFFFFFFFFFFFFFFFF0F003E00FCFFFE
:1024A000FFFFFFFFFFFFFFFFFFFF07003E00F8FFFA
:1024B000FFFFFFFFFFFFFFFFFFFF07003E00F8FFEA
:1024C000FFFFFFFFFFFFFFFFFFFF07003E00F0FFE2
:1024D000FFFFFFFFFFFFFFFFFFFF03003E00F0FFD6
:1024E000FFFFFFFFFFFFFFFFFFFF03003E00F8FFBE
:1024F000FFFFFFFFFFFFFFFFFFFF03003E00F8FFAE
:10250000FFFFFFFFFFFFFFFFFFFF01003E00FCFF9B
:10251000FFFFFFFFFFFFFFFFFFFF01003E00FCFF8B
:10252000FFFFFFFFFFFFFFFFFFFF01003E00FFFF78
:10253000FFFFFFFFFFFFFFFFFFFF03003EC0FFFFA6
:10254000FFFFFFFFFFFFFFFFFFFFFF073EF0FFFF63
:10255000FFFFFFFFFFFFFFFFFFFFFF0F3EF8FFFF43
:10256000FFFFFFFFFFFFFFFFFFFFFF0F3EF8FFFF33
:10257000FFFFFFFFFFFFFFFFFFFFFF0F3EF8FFFF23
:10258000FFFFFFFFFFFFFFFFFFFFFF0F3EF8FFFF13
:10259000FFFFFFFFFFFFFFFFFFFFFF0F3EF8FFFF03
:1025A000FFFFFFFFFFFFFFFFFFFFFF0F3EF8FFFFF3
:1025B000FFFFFFFFFFFFFFFFFFFFFF0F3EF8FFFFE3
:1025C000FFFFFFFFFFFFFFFFFFFFFF0F3EF8FFFFD3
:1025D000FFFFFFFFFFFFFFFFFFFFFF0F3EF8FFFFC3
:1025E000FFFFFFFFFFFFFFFFFFFFFF0F3EF8FFFFB3
:1025F000FFFFFFFFFFFFFFFFFFFFFF0F3EF8FFFFA3
:10260000FFFFFFFFFFFFFFFFFFFFFF0F3EF8FCFF95
:10261000FFFFFFFFFFFFFFFFFFFF9F0F3EF8FCFFE5
:10262000FFFFFFFFFFFFFFFFFFFF9F0F3EF8FCFCD8
:10263000FFFFFFFFFFFFFFFFFF9F9F0F3EF87CF8AC
:10264000FFFFFFFFFFFFFFFFFF0F9F0F3EF87CF82C
:10265000FFFFFFFFFFFFFFFFFF0F9F0F3EF87CF024
:10266000FFFFFFFFFFFFFFFFFF079F0F3EF87CF01C
:10267000FFFFFFFFFFFFFFFFFF079F0F3EF87CF00C
:10268000FFFFFFFFFFFFFFFFFF079F0F3EF87CE00C
:10269000FFFFFFFFFFFFFFFFFF039F0F3EF87CE000
:1026A000FFFFFFFFFFFFFFFFFF039F0F3EF87CE0F0
:1026B000FFFFFFFFFFFFFFFFFF039F0F3EF87CC000
:1026C000FFFFFFFFFFFFFFFFFF019F0F3EF87CC0F2
:1026D000FFFFFFFFFFFFFFFFFF019F0F3EF87CC0E2
:1026E000FFFFFFFFFFFFFFFFFF019F0F3EF87C8012
:1026F000FFFFFFFFFFFFFFFFFF009F0F3EF87C8003
:10270000FFFFFFFFFFFFFFFFFF009F0F3EF87C80F2
:10271000FFFFFFFFFFFFFFFFFF009F0F3EF87C0062
:10272000FFFFFFFFFFFFFFFF7F009F0F3EF87C00D2
:10273000FFFFFFFFFFFFFFFF7F009F0F3EF87C00C2
:10274000FFFFFFFFFFFFFFFF7F009F0F3EF87C00B2
:10275000FEFFFFFFFFFFFFFF3F009F0F3EF87C00E3
:10276000FEFFFFFFFFFFFFFF3F009F0F3EF87C00D3
:10277000FEFFFFFFFFFFFFFF3F009F0F3EF87C00C3
:10278000FCFFFFFFFFFFFFFF1F009F0F3EF87C00D5
:10279000FCFFFFFFFFFFFFFF1F009F0F3EF87C00C5
:1027A000FCFFFFFFFFFFFFFF1F009F0F3EF87C00B5
:1027B000F8FFFFFFFFFFFFFF0F009F0F3EF87C00B9
:1027C000F8FFFFFFFFFFFFFF0F009F0F3EF87C00A9
:1027D000F8FFFFFFFFFFFFFF0F009F0F3EF87C0099
:1027E000F0FFFFFFFFFFFFFF07009F0F3EF8FC0019
:1027F000F0FFFFFFFFFFFFFF07809F0F3EF8FC0386
:10280000F0FFFFFFFFFFFFFF07E09F0F3EF8FC0F09
:10281000E0FFFFFFFFFFFFFF03F89F0F3EF8FC3FC5
:10282000E0FFFFFFFFFFFFFF03FE9F0F3EF8FCFFEF
:10283000E0FFFFFFFFFFFFFF83FF9F0F3EF8FCFF5E
:10284000F3FFFFFFFFFFFFFFE7FF9F0F3EF8FCFFD7
:10285000FFFFFFFFFFFFFFFFFFFF9F0F3EF8FCFFA3
:10286000FFFFFFFFFFFFFFFFFFFF9F0F3EF8FCFF93
:10287000FFFFFFFFFFFFFFFFFFFF9F0F3EF8FCFF83
:10288000FFFFFFFFFFFFFFFFFFFF9F0F3EF8FCFF73
:10289000FFFFFFFFFFFFFFFFFFFF9F0F3EF8FCFF63
:1028A000FFFFFFFFFFFFFFFFFFFF9F0F3EF8F8FF57
:1028B000FFFFFFFFFFFFFFFFFFFF8F0F3EF8E0FF6F
:1028C000FFFFFFFFFFFFFFFFFFFF830F3EF880FFCB
:1028D000FFFFFFFFFFFFFFFFFFFF800F3EF801FE3E
:1028E000FFFFFFFFFFFFFFFFFF3FC00F3EF807F8AE
:1028F000FFFFFFFFFFFFFFFFFF0FF00F3EF81FE09E
:10290000FFFFFFFFFFFFFFFFFF03FC0F3EF87F808D
:10291000FFFFFFFFFFFFFFFFFF00FF0F3EF8FF017C
:10292000FEFFFFFFFFFFFFFF3FC0FF0F3EF8FF0767
:10293000F8FFFFFFFFFFFFFF0FF0FF0F3EF0FF1F4D
:10294000E0FFFFFFFFFFFFFF03FCFF073EE0FF7F0D
:1029500080FFFFFFFFFFFFFF00FFFF033E80FFFF41
:1029600001FEFFFFFFFFFF3FC0FFFF003E00FEFF35
:1029700007F8FFFFFFFFFF0FF0FF3F003E00F8FFEB
:102980001FF8FFFFFFFFFF0FFCFF0F003E00E0FFFF
:102990007FF8FFFFFFFFFF0FFFFF03003E0080FFF8
:1029A000FFF9FFFFFFFFFFCFFFFF00003E0000FE2B
:1029B000FFFFFFFFFFFFFFFFFF3F00003E0000F8AB
:1029C000FFFFFFFFFFFFFFFFFF0F00003E0000E0E3
:1029D000FFFFFFFFFFFFFFFFFF0300003E0000803F
:1029E000FFFFFFFFFFFFFFFFFF0000003E000000B2
:1029F000FEFFFFFFFFFFFFFF3F0000003E00000063
:102A0000F8FFFFFFFFFFFFFF0F00000000000000C6
:102A1000E0FFFFFFFFFFFFFF0300000000000000DA
:102A200080FFFFFFFFFFFFFF00000000000000002D
:102A300000FEFFFFFFFFFF3F00000000000000005E
:102A400000F8FFFFFFFFFF0F000000000000000084
:102A500000F0FFFFFFFFFF07000000000000000084
:102A600000E0FFFFFFFFFF03000000000000000088
:102A700000E0FFFFFFFFFF03000000000000000078
:102A800000C0FFFFFFFFFF0100000000000000008A
:102A900000C0FFFFFFFFFF010000000000003C2618
:102AA00011241FBECFEFDAE0DEBFCDBF11E0A0E002
:102AB000B1E0E2EFFBE502C005900D92AC32B10748
:102AC000D9F726E0ACE2B1E001C01D92A534B2070F
:102AD000E1F715E1C0E5D5E104C02197FE010E94B0
:102AE000F12DCF34D107C9F70E9423270C94F72D7D
:102AF0000C9400006F927F928F929F92AF92BF9240
:102B0000CF92DF92EF92FF920F931F93CF93DF93B9
:102B10007C01B0E0A0E0FA01802F90E0C590B59074
:102B2000211511F49115B1F047E04B0D47954695ED
:102B30004695833009F4440F4C9DA001249FE00D7D
:102B4000F11D259FF00D109629F0949FA00DB11D49
:102B5000959FB00D11248F3F21F4109682E009F06B
:102B600081E0CC2DD0E0A7014C0F5D1F1416150697
:102B70000CF06FC090E8E916F1040CF06AC09B01FC
:102B80002B0D311D121613060CF063C06034710555
:102B90000CF05FC0309709F45CC0362F37708B01A2
:102BA00077FF02C0095F1F4F93E0159507959A952F
:102BB000E1F7202F77FF04C0332311F02FEF200F10
:102BC000002711270E191F09F7FC02C010E000E0D2
:102BD00090E89E19403851050CF49C2D901B422F13
:102BE000022E000C550BA42EA0942F3F0CF0A12C0C
:102BF000DD24D3946B2D677009F4D12CB694B69470
:102C0000B694DB0C4D0D511D493051051CF048E0C8
:102C1000D42ED21ADA182A0D40E82403B001112468
:102C20006E0D7F1D600F711FCA9C000D111D1124B8
:102C3000AF01400F511FE32E032E000CFF0883301D
:102C400009F410C1A8F4813009F4C3C0823009F43A
:102C500071C0DF91CF911F910F91FF90EF90DF90A6
:102C6000CF90BF90AF909F908F907F906F9008957E
:102C70008A3F91F1BD2CB20E8B3F59F72B1549F3CA
:102C8000DB01AD5ABE4F10E000E0091708F09BC011
:102C9000FA01E00FF11FE491F0E00E2C02C0EE0FFC
:102CA000FF1F0A94E2F727FD05C08C91DE2ED09419
:102CB0008D218C93332361F0273054F46D0180E82B
:102CC000C80ED11CAF2EA094F60180818A2180838A
:102CD0000F5F1F4F1196D9CFBD2CB20E2B1509F4E3
:102CE000B8CFDB01AD5ABE4F10E000E0091708F085
:102CF00064C0FA01E00FF11FE491F0E04F010E2CE7
:102D000002C0880C991C0A94E2F727FD03C08C913D
:102D100088298C93332351F0273044F46D0180E8E7
:102D2000C80ED11CF6018081892980830F5F1F4F57
:102D30001196DCCFAFEFB0E0032E02C0AA0FBB1F8D
:102D40000A94E2F7A095B0959B2E8D2C820E281543
:102D500009F47FCF8B010D5A1E4FD12CC12CC916FF
:102D600030F5FA01EC0DFD1DE491F0E03F010E2C71
:102D700002C0660C771C0A94E2F727FD05C0F80133
:102D800080818A2386298083332359F027304CF4AD
:102D90005801F0E8AF0EB11CF50180818921872927
:102DA0008083FFEFCF1ADF0A0F5F1F4FD8CF2F5F4F
:102DB0004C0F5D1F60587F4FCACF2F5F4C0F5D1FB8
:102DC00060587F4F8BCF2F5F4C0F5D1F60587F4F38
:102DD00055CFA00FB11F8D2D820F281709F439CFC1
:102DE0008B010D5A1E4FD12CC12CC91698F5FD012F
:102DF000EC0DFD1DA490B12C0E2C02C0AA0CBB1C26
:102E00000A94E2F7A094B094FA01EC0DFD1D8490B1
:102E1000912C0E2C02C0880C991C0A94E2F727FD15
:102E200008C0F8017080E72DEA217E2E7828F8018D
:102E30007082332349F027303CF4F801E058FF4F0B
:102E4000A080BA20B928B082FFEFCF1ADF0A0F5F47
:102E50001F4FCBCF2F5F4C0F5D1FAC0FBD1F6058B6
:102E60007F4FBBCFE92EF12CFA01E00FF11FDB0100
:102E7000AD5ABE4F00E810E00E191F09CE19DF0948
:102E8000BE01660F771F41E050E07A01032E01C0BA
:102E9000EE0C0A94EAF7592F4D2D892E932ECF93DD
:102EA000DF93ED01EF96EF962296A590C5909920BD
:102EB00059F0AE9C5001CE9C600127302CF4F88074
:102EC000D094FD20FB28F99222233AF0FC90C09484
:102ED000FC20FA28FD920C946E1711965A9529F74A
:102EE0004A9551F0582D23951124E60FF11DA00F9E
:102EF000B11DC00FD11DD9CFDF91CF911124A9CE23
:102F000090914006982329F490913F06982381E000
:102F100009F480E00895E3E5F1E0A0E0B8E0008086
:102F20000EBC8111012C1197A0FDFDCF0192B9F7C4
:102F30000DB40895EBE1FCE12491ECE1FCE1E491B6
:102F400097FD25C030E0821793070CF5E6171706AA
:102F5000F1F0E8F0269FF001279FF00D369FF00D6D
:102F60001124E80FF91F23E0F595E7952A95E1F77D
:102F7000E35EF34EE491F0E0877099279F0102C071
:102F8000359527958A95E2F7C9018170089581E00A
:102F90000895FC0180915201882311F13FB7F89404
:102FA00082E08093E9002091F200822F90E01816D1
:102FB000190614F481E090E0882339F0289844E65B
:102FC000409351014091F1004083222339F0209138
:102FD000F200211103C02BE62093E8003FBF0895C3
:102FE0008FEF9FEF08952FB7F89483E08093E90067
:102FF0009091E800892F807295FF04C09091F200B3
:1030000080E4891B2FBF08958091490181110DC073
:1030100082E08093450184E080934601109248014C
:103020001092470181E08093490185E491E0089581
:10303000089540913A0150913B012091380130911F
:10304000390142175307B4F49091E8009570E1F309
:103050009091E80092FD19C08093F10080913A01AF
:1030600090913B0101968F739927892B19F48EEF6C
:103070008093E80080913A0190913B0101969093F2
:103080003B0180933A0181E0089580E00895DF924A
:10309000EF92FF920F931F93CF93DF93D82E8A0165
:1030A000EB017B01E40EF51ECE15DF0559F0D7FECE
:1030B00012C0FE0184910E94191821968111F4CF4B
:1030C0000FEF1FEFC801DF91CF911F910F91FF907C
:1030D000EF90DF9008958881EECF0F931F93CF93E9
:1030E000DF931F92CDB7DEB782E0898342E450E0E0
:1030F0006CED7AE180E80E9447180E940418DC0118
:1031000012960D911C910115110589F0D801ED91D0
:10311000FC910280F381E02DBE016F5F7F4FC801FB
:10312000099597FD04C0F80100851185ECCF8981D0
:103130000F90DF91CF911F910F910895615030F062
:103140002091F100FC0120830196F8CF289884E6B5
:10315000809351010895CF93DF931F92CDB7DEB7CF
:103160006983DC01ED91FC910280F381E02D41E067
:1031700050E0BE016F5F7F4F09950F90DF91CF91B7
:10318000089583E08093E9008091F200882319F08C
:103190008AE38093E80008950E94F31790E0089571
:1031A000CF93DF931F92CDB7DEB7FC018485958561
:1031B00097FD08C02FEF3FEF358724870F90DF91F1
:1031C000CF910895CE0101960E94C917019719F475
:1031D000898190E0F3CF8FEF9FEFF0CF0F931F9394
:1031E000CF93DF931F92CDB7DEB78C01FC018485AE
:1031F000958597FF0BC0CE0101960E94C9170197D4
:1032000071F4898190E0F80195878487F8018485BD
:1032100095850F90DF91CF911F910F9108958FEFBA
:103220009FEFF1CFFC018485958597FD0BC09FB77B
:10323000F89482E08093E9008091F2009FBF90E0D3
:10324000019608959FB7F89482E08093E9008091F9
:10325000F2009FBF90E00895FC010E94C3193197CE
:1032600028F068517C4F8F4F9F4FF9CFAB01FC0185
:103270000E94C319641775078E079F07C8F3089546
:103280008F929F92AF92BF92CF92DF92EF92FF9276
:103290000F931F93CF93DF936C017B018A01809181
:1032A0000C01882309F45AC080915201882309F443
:1032B00055C080913E0180FF05C08091E000826092
:1032C0008093E000E801B12C8AEFA82E93E0892ECC
:1032D0002AE3922E209711F4BB20C9F10E94F31724
:1032E000811108C0AA94AA20C9F181E090E00E944F
:1032F0002C19F0CF8C171D0611F00CF08C2F9FB7F6
:10330000F8948092E9002091E80025FD02C09FBF5B
:10331000E1CF282F30E0C21BD30BF701815020F002
:1033200041914093F100FACFE20EF31EBB2021F051
:103330009092E800B12CEBCF8091E80085FDE7CFBB
:103340009092E800BB24B394209709F3F3CF5D98E3
:1033500084E680933D01101611063CF081E090E078
:10336000F6019383828310E000E0C801DF91CF91E2
:103370001F910F91FF90EF90DF90CF90BF90AF9093
:103380009F908F900895A4E3B1E02FB7F8947D91BA
:103390008D919C9166B52FBFA89B05C06F3F18F417
:1033A0007F5F8F4F9F4F22E0660F771F881F991F07
:1033B0002A95D1F708950F930AEF0E947A150F917D
:1033C00008950C942C1910922F013E983F9808955F
:1033D0003E9A3F9A81E080932F010895089588E0F6
:1033E0000E948017882319F087E080934401089594
:1033F00080912D018F5F80932D0187E080934401A0
:1034000008950F93CF93DF93EC0121E08E8181111A
:1034100001C020E06A817B816250710980912E0198
:10342000681B71098881998102E04EE15CE0029796
:103430000E947A158E81813031F082508E83DF9127
:10344000CF910F91089580E0F9CFCF92DF92EF9264
:10345000FF920F93CF93DF93EC01CE80DF80E8845F
:10346000F98421E338E04CE350E4C701B6010E943F
:103470003E2B87FD31C020EB32E740E550E4C70129
:10348000B6010E943E2B881F8827881F998120E063
:1034900019160CF423E0280F6C857D8565507109A1
:1034A00080912E01681B7109AA85BB85F0E0E0E0E0
:1034B000191614F4E4E1F0E003E044E25AE0CD012F
:1034C0008E1B9F0B0E947A15DF91CF910F91FF9079
:1034D000EF90DF90CF90089582E0D8CF20E042E0D7
:1034E00059E064E270E080E190E00E94DB198CE03A
:1034F0000E948017882319F081E080934401089589
:1035000020E040E057E070E060E080E290E00E9460
:10351000DB198CE00E948017882319F081E08093EA
:1035200044010895EF92FF920F931F93CF9320E0F1
:103530004EEF52E070E060E090E080E00E94DB1926
:1035400085E1E82EF12C02E010E02EEF200FC09173
:10355000000140E752E068E370E0C017110611F087
:103560006CE370E0C7010E94DB190F5F1F4F86E11B
:10357000E80EF11C0630110541F780E40E94801727
:10358000882329F0C53018F4CF5FC093000180E292
:103590000E948017882339F080910001833018F051
:1035A00081508093000184E00E948017882321F0DD
:1035B0008091000180934401CF911F910F91FF9062
:1035C000EF900895CF93C0912C01CF5FC0932C0151
:1035D00020E04AEC50E064E070E082E290E00E947B
:1035E000DB19C93718F081E080934401CF91089529
:1035F0000F931F93CF93DF93EC018B01FB0120818D
:10360000318142815381688179818A819B810E94C5
:10361000D22A688379838A839B83F8012481358148
:10362000468157816C817D818E819F810E94D22A43
:103630006C837D838E839F83CE01DF91CF911F9119
:103640000F9108950F931F93FB0100811181228137
:103650003381FC010083118322833383FB01448186
:10366000558166817781FC01448355836683778326
:103670001F910F9108958F929F92AF92BF92EF92F8
:10368000FF920F931F93CF93DF93CDB7DEB7C05652
:10369000D1090FB6F894DEBF0FBECDBF88E00E94FF
:1036A0008017882309F44FC06CED75E0CE010196B8
:1036B0000E94221B20E030E040EF52E469817A81D1
:1036C0008B819C810E94E12C1816ECF520E030E003
:1036D0004AE553E46D817E818F8198850E94E12CBB
:1036E00018168CF56CED75E0CE0109960E94221B30
:1036F00020E030E04EEF52E469857A858B859C8529
:103700000E943E2B87FF1FC020E030E040E653E4DC
:103710006D857E858F8598890E943E2B87FF13C01B
:1037200019821A821B821C8280E090E0A0ECBFEB21
:103730008D839E83AF83B887BE016F5F7F4F84EE1A
:1037400095E00E94F81A0E94F72582FF92C081E05E
:103750008093B8050E94F72585FF8EC081E0809395
:10376000CA0520E030E04AE653E46091E00570913C
:10377000E1058091E2059091E3050E94E12C181685
:1037800044F580E090E0A6EFB2E48093DC059093EE
:10379000DD05A093DE05B093DF0580E090E0ABE5AA
:1037A000B3E48093E0059093E105A093E205B09324
:1037B000E3051092E4051092E5051092E6051092DB
:1037C000E7051092E8051092E9051092EA051092BB
:1037D000EB056CED75E0CE01875A9F4F0E94221BCE
:1037E00020E030E0A901A1966CAD7DAD8EAD9FAD1E
:1037F000A1970E94E12C6CED75E087FD40C0CE01E1
:103800008F5A9F4F0E94221B20E030E040E05FE390
:1038100069966CAD7DAD8EAD9FAD69970E94D22A41
:103820000E94BA2B6930714081059105D4F16CED8D
:1038300075E0CE0189960E94221B20E030E0A901AC
:103840006DA57EA58FA598A90E94E12C87FFE0C0F9
:103850006CED75E0CE0149960E94221B20E030E01D
:1038600040E05FE36D8D7E8D8F8D98A10E94D12AFF
:10387000DFC01092B8056ECF1092CA0572CFCE018C
:10388000875B9F4F0E94221B20E030E040E05FE317
:1038900061966CAD7DAD8EAD9FAD61970E94D12AD2
:1038A000BFCF6CED75E0CE018F5B9F4F0E94221B56
:1038B00020E030E0A90129966CAD7DAD8EAD9FADC5
:1038C00029970E94E12C6CED75E087FD92C0CE0136
:1038D000C9960E94221B20E030E040E05FE3219681
:1038E0006CAD7DAD8EAD9FAD21970E94D22A0E9416
:1038F000BA2B61327105810591050CF098CF60E01B
:1039000060932E01062F10E066277727601B710B4E
:1039100020E04AE55CE090E080E00E94DB198AEC60
:1039200095E00E94251A88EB95E00E94251A81EB0C
:1039300095E00E94011A8AEA95E00E94011A83EA42
:1039400095E00E94011A8090E0059090E105A0901A
:10395000E205B090E30520E030E0A901C501B40123
:103960000E94E12C20E030E040E05FE387FD9DC055
:10397000C501B4010E94D22A0E94BA2B625071097B
:103980007B01E01AF10A8090DC059090DD05A090A3
:10399000DE05B090DF0520E030E0A901C501B401EB
:1039A0000E94E12C20E030E040E05FE387FD82C030
:1039B000C501B4010E94D22A0E94BA2BCB01029702
:1039C00003E020E048E45CE0B7010E947A15C05AA9
:1039D000DF4F0FB6F894DEBF0FBECDBFDF91CF91A2
:1039E0001F910F91FF90EF90BF90AF909F908F909D
:1039F0000895CE01C1960E94221B20E030E040E0F5
:103A00005FE36DA97EA98FA998AD0E94D12A6FCFDF
:103A10006CED75E0CE0181960E94221B20E030E023
:103A200040E05FE36DA17EA18FA198A50E94D22AFC
:103A30000E94BA2B6930714081059105A4F56CEDA7
:103A400075E0CE0141960E94221B20E030E0A901E2
:103A50006D897E898F89988D0E94E12C6CED75E0CF
:103A600087FD12C0CE0109960E94221B20E030E0A3
:103A700040E05FE36D857E858F8598890E94D22A1C
:103A80000E94BA2B60523CCFCE0101960E94221BAD
:103A900020E030E040E05FE36D817E818F8198859A
:103AA0000E94D12AEDCF68EE2BCFC501B4010E9450
:103AB000D12A62CFC501B4010E94D12A7DCFCF9215
:103AC000DF92EF92FF920F931F93CF93DF938C01BE
:103AD000EB01FA01C080D180E280F380A70196015A
:103AE000688179818A819B810E94E62C6883798331
:103AF0008A839B83A70196016C817D818E819F8142
:103B00000E94E62C6C837D838E839F83BE01C80157
:103B10000E94221BC801DF91CF911F910F91FF904E
:103B2000EF90DF90CF900895CF92DF92EF92FF92C7
:103B30000F931F93CF93DF93CDB7DEB7A8970FB640
:103B4000F894DEBF0FBECDBF8C0164EE75E0CE01F0
:103B500009960E94221BF801208131814281538104
:103B600069857A858B859C850E94E62C6B017C019A
:103B7000C986DA86EB86FC86F80124813581468188
:103B800057816D857E858F8598890E94E62C9B01E3
:103B9000AC012D873E874F87588BC701B6010E9425
:103BA000D22A69A37AA38BA39CA386E696E6A6EA0B
:103BB000BFE38DA39EA3AFA3B8A7B801CE014996DA
:103BC0000E94221BAE014B5D5F4FBE01675E7F4FBF
:103BD000CE0141960E945F1DAE014F5D5F4FBE0159
:103BE0006F5E7F4FCE0101960E945F1D0CED15E0C8
:103BF00029813A814B815C81F801608571858285DC
:103C000093850E94D12AF801608771878287938704
:103C10002D813E814F815885648575858685978580
:103C20000E94D12AF8016487758786879787A896AE
:103C30000FB6F894DEBF0FBECDBFDF91CF911F91BD
:103C40000F91FF90EF90DF90CF9008958F929F9209
:103C5000AF92BF92CF92DF92EF92FF920F931F939A
:103C6000CF93DF93EC018B012BED3FE049EC5FE359
:103C7000FB0166817781808591850E94D12A4B0165
:103C80005C010E94532D6B017C01C501B4010E94AF
:103C9000432B4B015C01F8016181062E000C770B70
:103CA000880B990B0E94F22BA50194010E94E62C2F
:103CB000688379838A839B83F7FAF094F7F8F0940A
:103CC000CC82DD82EE82FF82CE01DF91CF911F9107
:103CD0000F91FF90EF90DF90CF90BF90AF909F90AB
:103CE0008F9008952F923F924F925F926F927F92A2
:103CF0008F929F92AF92BF92CF92DF92EF92FF92FC
:103D00000F931F93CF93DF93CDB7DEB7E6970FB630
:103D1000F894DEBF0FBECDBF8C01FC0162817381C0
:103D2000848195812081222309F462C226EA3BE93D
:103D300044E45BE30E94D22AF801628373838483A4
:103D40009583228133814481558166817781808585
:103D500091850E94D12AF8016683778380879187B5
:103D600020E53DE847E250E40E943E2B87FF0DC06E
:103D7000F801128213821482158280E59DE8A7E281
:103D8000B0E486839783A087B18721E93DEE44E6BE
:103D900050E4F80166817781808591850E94E12C4D
:103DA00018166CF4F801128213821482158281E9CC
:103DB0009DEEA4E6B0E486839783A087B187F801DF
:103DC000C680D780E084F184C701B6010E94432BEE
:103DD0004B015C01F8016181062E000C770B880B0A
:103DE000990B0E94F22BA50194010E94E62C20E081
:103DF00030E040EB51E40E94E62C4B015C01F801FD
:103E000062857385072E000C880B990B0E94F22B9C
:103E10009B01AC01C501B4010E94D22A0E94BA2BB9
:103E2000F80177876687C701B6010E94532D6B01A1
:103E30007C01F80164857585072E000C880B990BB1
:103E40000E94F22B4B015C0120E030E040EB51E49A
:103E5000C701B6010E94E62C9B01AC01C501B4016B
:103E60000E94D12A0E94BA2BF801718B608B6CEDF5
:103E700075E0CE0101960E94221BC980DA80EB809A
:103E8000FC806CED75E0CE0101960E94221B8D80B6
:103E90009E80AF80B884F80122843384668477845E
:103EA000261437040CF0ABC1B101032C000C880BB5
:103EB000990B0E94F22B9B01AC01C701B6010E9435
:103EC000E12C18160CF0A7C1621473040CF09DC10C
:103ED000B101032C000C880B990B0E94F22B9B0163
:103EE000AC01C701B6010E943E2B87FF94C1F801C7
:103EF0000484F585E02DFAABE9ABF801608971899E
:103F000029A93AA9621B730B072E000C880B990B89
:103F10000E94F22B6BAB7CAB8DAB9EABB3016219F5
:103F20007309072E000C880B990B0E94F22B9B0142
:103F3000AC016BA97CA98DA99EA90E94482B2B01DD
:103F40003C01B101330C880B990B0E94F22B9B01B1
:103F5000AC01C701B6010E94D12A9B01AC01C3018B
:103F6000B2010E94E62C2B013C01E9A9FAA9BF018C
:103F7000FF0F880B990B0E94F22B9B01AC01C30130
:103F8000B2010E94D22A2B013C01AC019B01C50168
:103F9000B4010E94E12C87FD3EC120E030E040EA00
:103FA00050E4C301B2010E94D22A9B01AC01C501B9
:103FB000B4010E943E2B87FF2EC1C9A2DAA2EBA258
:103FC000FCA24DA25EA26FA278A620E030E0A9017B
:103FD00069A17AA18BA19CA10E943E2B81110CC0EA
:103FE00020E030E0A9016DA17EA18FA198A50E94DB
:103FF0003E2B882309F4E3C0B801CE0101960E944C
:10400000261ECE0101960E94941D80E090E0A0E063
:10401000BFE38DA79EA7AFA7B8AB6CED75E0CE014F
:1040200001960E94221BF80162857385072E000C01
:10403000880B990B0E94F22B9B01AC0169817A815C
:104040008B819C810E94D12A9B01AC010E94E62CAD
:104050002B013C016CED75E0CE0109960E94221BFC
:10406000F801A484B58422843384B5010B2C000CA0
:10407000880B990B0E94F22B6B017C01F80160897F
:1040800071896A197B09072E000C880B990B0E9415
:10409000F22B4B015C01F801668577856219730983
:1040A000072E000C880B990B0E94F22B9B01AC0190
:1040B000C501B4010E94482B4B015C01B101330CD6
:1040C000880B990B0E94F22B9B01AC016D857E85BC
:1040D0008F8598890E94D12A9B01AC01C501B4014A
:1040E0000E94E62CA70196010E94D22AA701960100
:1040F0000E94D12A9B01AC010E94E62CA3019201EF
:104100000E94D22A0E94612D69A77AA78BA79CA73B
:10411000B801CE0109960E94261EAE01475D5F4F91
:10412000BE01675F7F4FCE0141960E945F1DA801CF
:104130004E5F5F4FBE016F5E7F4FCE0149960E947A
:104140005F1DAE01435D5F4FBE01675E7F4FCE01D5
:1041500001960E945F1DB801CE0141960E94261E65
:10416000BE016F5D7F4FCE0109960E94221BBE01EA
:104170006F5E7F4FCE0109960E94F81ABC01CE01F6
:1041800049960E94221B88E0FE017996ACEDB5E0CD
:1041900001900D928A95E1F7BE016F5F7F4FCE01CE
:1041A00009960E94221BBE01675F7F4F84EE95E057
:1041B0000E94F81AF8011282138214821582E69680
:1041C0000FB6F894DEBF0FBECDBFDF91CF911F9128
:1041D0000F91FF90EF90DF90CF90BF90AF909F90A6
:1041E0008F907F906F905F904F903F902F900895A9
:1041F00026EA3BE944E45BE30E94D12A9DCDB3016A
:10420000072C000C880B990B54CEB301072C000C23
:10421000880B990B62CE19A21AA21BA21CA21DA286
:104220001EA21FA218A6D1CE8F929F92AF92BF92CC
:10423000CF92DF92EF92FF92FC01608171818281C7
:104240009381C480D580E680F7809B01AC010E94F9
:10425000E62C4B015C01A7019601C701B6010E9443
:10426000E62C9B01AC01C501B4010E94D22A6B016E
:104270007C0120E030E0A9010E94E12C181624F016
:10428000F7FAF094F7F8F094C701B601FF90EF90B9
:10429000DF90CF90BF90AF909F908F900C94612D46
:1042A0004F925F926F927F928F929F92AF92BF9246
:1042B000CF92DF92EF92FF920F931F93CF93DF93F2
:1042C000CDB7DEB7A4970FB6F894DEBF0FBECDBF53
:1042D0008C016CED75E0CE0101960E94221B698174
:1042E0007A818B819C810E94BA2B6B016CED75E009
:1042F000CE0109960E94221B6D857E858F85988947
:10430000D801AD90BC901197CA14DB040CF46AC0BC
:1043100014962C912A0D3B2D311DC216D3060CF09C
:1043200061C00E94BA2BD8011296ED91FC911397AF
:104330006E177F070CF456C015962C912E0F3F2F49
:10434000311D621773070CF04DC02B014E1A5F0A26
:10435000B3E04B1A5108B201550C880B990B0E941F
:10436000F22B2B013C01CA18DB08E3E0CE0ED11C76
:10437000B601DD0C880B990B0E94F22B4B015C01FE
:1043800089869A86AB86BC864D865E866F86788ADD
:10439000CE0109960E9414216B017C0120E030E0DF
:1043A000A9010E943E2B882309F4CBC0A7019601E6
:1043B000C501B4010E94482B69837A838B839C8357
:1043C000A7019601C301B2010E94482B6D837E8331
:1043D0008F839887BE016F5F7F4FCE0149960E9401
:1043E000221B08C0198E1A8E1B8E1C8E1D8E1E8ECF
:1043F0001F8E18A220E030E0A901698D7A8D8B8D87
:104400009C8D0E943E2B81110CC020E030E0A90160
:104410006D8D7E8D8F8D98A10E943E2B882309F48F
:1044200079C0D80112966D917C916E5F7F4F072EF7
:10443000000C880B990B0E94F22B6B017C01F80198
:10444000608171816E5F7F4F072E000C880B990B86
:104450000E94F22B69837A838B839C83CD82DE82D8
:10446000EF82F88680E090E0A0ECB0E489A39AA304
:10447000ABA3BCA3BE01675E7F4FCE0109960E942D
:10448000221BAE014F5D5F4FBE01675F7F4FCE01C4
:1044900041960E945F1DBE016F5E7F4FCE01019667
:1044A0000E94F81A88E0FE013196ACEDB5E001906B
:1044B0000D928A95E1F7BE01675E7F4FCE010996A6
:1044C0000E94221BCE0109960E94941D8DEC9CEC4B
:1044D000ACE4BEE389A39AA3ABA3BCA3BE01675E11
:1044E0007F4FCE0109960E94221BAE014F5D5F4FA8
:1044F000BE01675F7F4FCE0141960E945F1DBE01E6
:104500006F5E7F4F84EE95E00E94F81A86E0D80136
:1045100016968C93A4960FB6F894DEBF0FBECDBF4F
:10452000DF91CF911F910F91FF90EF90DF90CF908F
:10453000BF90AF909F908F907F906F905F904F90C3
:104540000895198E1A8E1B8E1C8E80E090E0A0E8D4
:10455000BFE38D8F9E8FAF8FB8A34CCFCF92DF92EA
:10456000EF92FF92CF93DF93EC010E9414216B0135
:104570007C0120E030E0A9010E943E2B81110FC098
:10458000188219821A821B821C821D821E821F823F
:10459000DF91CF91FF90EF90DF90CF900895A7012A
:1045A0009601688179818A819B810E94482B68836A
:1045B00079838A839B83A70196016C817D818E819B
:1045C0009F810E94482B6C837D838E839F83E0CFE5
:1045D000ECEDF5E080E090E0A6EFB2E4808391831B
:1045E000A283B38380E090E0ABE5B3E4848395835A
:1045F000A683B783108611861286138614861586C5
:104600001686178684E296E00E94AE2284E196E048
:104610000E94AE228CEF95E00E94AE228CEE95E0D7
:104620000E94AE2286E0809344010895CF9380E4F7
:104630000E94801781110E94E81980E20E94801771
:1046400081110E94E3198CE00E948017882381F079
:10465000C0912F0182E090E00E94BB2AC81729F088
:104660006C2F82E090E00E94C32A81E08093440195
:10467000CF9108951F920F920FB60F9211248F932E
:104680009F938091E1009091E100937F9093E100EE
:1046900083FF0FC01092E90091E09093EB0010921D
:1046A000EC0092E39093ED001092520198E0909309
:1046B000F00082FF22C093E09093E9009091F20015
:1046C000992319F09AE39093E80090913D01992382
:1046D00041F090913D01915090933D01911101C0A5
:1046E0005D9A90915101992341F09091510191501F
:1046F00090935101911101C0289A84FF18C08091B4
:10470000E2008E7E81608093E2008091E1008F7EE6
:104710008093E10080913E018E7E806180933E0116
:104720009F918F910F900FBE0F901F90189580FF53
:10473000F7CF8091E2008E7E80618093E2008091CD
:10474000E1008E7E8093E10080913E018E7E81604B
:10475000E5CF1F920F920FB60F921124CF92DF92E6
:10476000EF92FF920F931F932F933F934F935F937B
:104770006F937F938F939F93AF93BF93EF93FF9329
:10478000CF93DF93CDB7DEB76C97DEBFCDBF10926E
:10479000E9008091E80083FF25C068E0CE014596DE
:1047A0000E949E1882EF8093E8008D8987FF39C0B0
:1047B0009091E80090FFFCCF982F907609F034C1DB
:1047C0009E894F89588D2F89F88C911131C080387E
:1047D00061F580913F018093F1001092F1008EEF1E
:1047E0008093E8006C960FB6F894DEBF0FBECDBF85
:1047F000DF91CF91FF91EF91BF91AF919F918F91F9
:104800007F916F915F914F913F912F911F910F91E8
:10481000FF90EF90DF90CF900F900FBE0F901F9002
:1048200018959EEF9093E800C7CF1092F100D5CF76
:10483000913059F48111D3CF4130510581F68091E7
:104840003F018D7F80933F01CACF933049F481119E
:10485000C6CF4130510519F680913F018260F2CFF9
:10486000953041F48091E80080FFFCCF20682093D0
:10487000E300B5CF963009F0A9C00B8D1C8D22E066
:104880001092E90010923B0110923A01F2122EC0F0
:1048900010923901109238010E946D181F8299E020
:1048A0009983FA8291E09E8390EA98879AEF99879C
:1048B00020913A0130913B01275F3F4F3C832B838E
:1048C0008D831092E90010923B0110923A011093EF
:1048D00039010093380149E050E0BE016F5F7F4F1E
:1048E00080E00E9447180E946D1879CF109339011B
:1048F000009338010E940418DC0112960D911C915E
:104900000115110509F410C1D801ED91FC91048045
:10491000F581E02DBE016B5E7F4FC80109950097C0
:1049200009F0FDC0F80100851185EACFF3E0FF1220
:104930000EC08F89882309F440C0823061F440E8BA
:1049400067E080E49BE10E94FF25811148CF81E26E
:104950008093EB0047CF813029F440E86BE084E39B
:104960009BE1F1CF833099F70E940418DC01129685
:10497000ED90FC908E010F5F1F4F6801E114F10470
:1049800079F0D701ED91FC910680F781E02DB80117
:10499000C7010995080F111DF701E084F184EECFDE
:1049A000D8011C92F60101900020E9F73197BF0170
:1049B0006C197D0940E0C601C6CF6EE17BE1FB01C9
:1049C000449150E080E80E94471809CF973009F4DD
:1049D000BECF983021F481E08093F10000CF993070
:1049E00009F0FDCE837009F0B2CFEEE0F1E081E096
:1049F00031E096E32191222371F08093E900309316
:104A0000EB00DF0111972C912093EC009093ED00C7
:104A10008F5F873079F78EE78093EA001092EA0083
:104A20008F8980935201DBCE8B8D9C8D1092E90093
:104A300010923B0110923A01909339018093380112
:104A4000898D811151C08E899D89913A49F48132B5
:104A500009F07DCF47E050E065E071E080E0B3CF42
:104A6000913209F074CF833269F48F89988DB0E068
:104A7000A0E08093010190930201A0930301B09301
:104A80000401ADCE803269F48091E80082FFFCCF52
:104A900067E085E091E00E949E188BEF8093E8002C
:104AA0009ECE823209F09BCE8F8980930C0180913B
:104AB000050190910601A0910701B0910801803B8A
:104AC0009440A105B10569F480910C0180FD09C0F5
:104AD00088E780933C01809164008F7D809364001F
:104AE0007ECE10923C017BCE0E940418DC0112960F
:104AF0000D911C910115110509F429CFD801ED91F3
:104B0000FC910190F081E02DBE016B5E7F4FC801EA
:104B10000995811164CEF80100851185EBCF181637
:104B200019060CF45CCE13CFF1E0FF12FFCE62E267
:104B30007BE145CF0F930FB70F931F9211248F93F3
:104B40009F93EF93FF93E0E4F1E08091330191E0D4
:104B50008D5F8D3710F08D57939580933301808151
:104B6000890F80839181911D91830281011D0283B0
:104B70008381811D838309270F7009270295009384
:104B8000320135D0811100933001803989F40091D0
:104B90003101901B963070F087E780930008809376
:104BA000010888E198E08093600090936000FFCF57
:104BB0009093310180913C01815018F080933C0129
:104BC00059F3E4E3F1E08081918101968083918340
:104BD00082819381811D911D82839383FF91EF9147
:104BE0009F918F911F900F910FBF0F9118958FB1CB
:104BF0008095807F669B88601C9B84600895EF92FF
:104C0000FF920F931F93CF93DF93F82E192FE62E69
:104C1000042F81E0860F880F0E94191883E00E94FC
:104C20001918CF2DD12FEC0EFD2EF11CCE15DF055E
:104C3000B9F007FF13C0FE0184910E941918182FC4
:104C400080E00E941918812321968111EFCFDF9116
:104C5000CF911F910F91FF90EF9008958881EDCF34
:104C600081E0F5CFFC01718360835383428388E048
:104C70008483858316820895E3E5F5E0138212822A
:104C800088EE93E0A0E0B0E084839583A683B783A9
:104C900088E191E0918380838FEF9FEF95878487F0
:104CA000EAE3F6E08AE291E091838083158216823E
:104CB00080E18783148213821186E4E3F6E088E5BD
:104CC00081838BE080831282138214821582ECE24E
:104CD000F6E010821182128213828FE692E1A3E83D
:104CE000BBE384839583A683B783E4E2F6E040E0E8
:104CF00050E060E87FEB4083518362837383448399
:104D0000558366837783ECE1F6E01082118212828C
:104D100013824483558366837783E4E1F6E080E081
:104D200090E0A0E8BFE380839183A283B3834483B0
:104D3000558366837783ECE0F6E04083518362839A
:104D400073831482158216821782E4E0F6E0808372
:104D50009183A283B3831482158216821782ECEFAB
:104D6000F5E0408351836283738384839583A683B4
:104D7000B783E4EFF5E010821182128213828483FC
:104D80009583A683B783ECEEF5E080839183A283BD
:104D9000B38384839583A683B783ECEDF5E0108617
:104DA000118612861386148615861686178610823B
:104DB0001182128213821482158216821782EAEC03
:104DC000F5E08FEF818312821382148215821082A4
:104DD00041E95DEE64E670E446835783608771873E
:104DE00081E290E09387828785ED90E095878487C4
:104DF000E8EBF5E021E02183128213821482158210
:104E00001082468357836087718725E530E03387BA
:104E100022879587848747E450E06BE270E081EB5E
:104E200095E00E9432264EE750E06CE370E08AEA9B
:104E300095E00E94322647E750E066E170E083EAA1
:104E400095E00C943226CDB7DEB7A897DEBFCDBF74
:104E5000789483E084BD83E085BD81E080936E001B
:104E6000E1E8F0E083E08083E0E881E08083E1E94D
:104E700083E08083E0E981E08083E1EC87E0808368
:104E8000E3EC81E08083E0EC82E08083E2EC81E08F
:104E90008083EAE787E080838068808310925201F4
:104EA00010923F0110923E018091D7008160809363
:104EB000D70080EA8093D80089B5806189BD89B523
:104EC000826089BD09B400FEFDCF81E090E00E94C0
:104ED0002C198091D8008F7C80618093D8008091BC
:104EE000E000807F8093E0008091E1008E7E8093DF
:104EF000E1008DE08093E200559A209A81EC809346
:104F00007C0081EF85B987EE84B984E38BB984EFA7
:104F10008AB9769A6E9880EF81BB10BA80E58CBD15
:104F200081E08DBD85E090E00E94E1195F9902C0AB
:104F30005F9AF8CF5C98E8E4FBE19DE085918EBD37
:104F400000000DB407FEFDCF8EB59A95B9F75C9AB7
:104F500081E88093640081E08093650082E090E0C6
:104F60000E94BB2A882309F436C10E94E81981E017
:104F700090E00E94BB2A8470F82E81E090E00E94AD
:104F8000BB2A81FF0BC0F1102E9800EF1FEF0E948B
:104F9000F72586FF23C12E9A2F9A2D9A81E28093BE
:104FA000410684E0809334068CED809335061092A0
:104FB00036061092370610923806109239068FEF97
:104FC0009FEF9093600580935F05412C512C20E862
:104FD000622E2FE3722E90E0292E90E0392E8091E0
:104FE0004401873009F0E0C02FB7F8948091400168
:104FF00090914101A0914201B09143012FBF409196
:10500000360650913706609138067091390684173C
:105010009507A607B7070CF4C7C020913406820F86
:10502000911DA11DB11D8093360690933706A09364
:105030003806B09339066CE276E084EE95E00E9483
:10504000F81A84EE95E00E94142120E030E040E060
:1050500050E40E94E12C181664F584EE95E00E945D
:10506000AE226091E4057091E5058091E60590918E
:10507000E7059B01AC010E94D22A6093E40570937E
:10508000E5058093E6059093E7056091E80570914A
:10509000E9058091EA059091EB059B01AC010E9426
:1050A000D22A6093E8057093E9058093EA0590930E
:1050B000EB056CED75E0CE0141960E94221B64EE7B
:1050C00075E0CE0141960E94F81ABC01CE014996C6
:1050D0000E94221B19861A861B861C861D861E8628
:1050E0001F86188ACD8CDE8CEF8CF8A020E030E093
:1050F000A901C701B6010E94E12C20E030E040E0A8
:105100005FE387FD93C0C701B6010E94D22A0E94C7
:10511000BA2B8B01C98CDA8CEB8CFC8C20E030E054
:10512000A901C701B6010E94E12C20E030E040E077
:105130005FE387FD80C0C701B6010E94D22A0E94AA
:10514000BA2BCB01B8010E949A17882309F478C0C2
:10515000BE01675F7F4FCE0181960E94221BCE0168
:1051600081960E94142120E030E0A9010E943E2B8C
:1051700081113BC164EE75E08CED95E00E94F81A58
:1051800088EB95E00E94721E8AEC95E00E94721EE8
:1051900081EB95E00E9450218AEA95E00E9450211F
:1051A00083EA95E00E9450212091400180914206BF
:1051B000F22FF81B8F2F90914306992309F49DC17C
:1051C000F0934406109243062114310409F407CFEA
:1051D0000E94000000CF0E94E319C9CEFF2029F0F1
:1051E0000430110511F42E9A2F9881E00E948B173C
:1051F00020E045E55BE1B80184E190E00E94DB1925
:1052000080E00E948B178FE090E00E94E1190F5F11
:105210001F4F0931110509F0BACEFF2011F02F9A66
:105220002D9880E991E00E94E119B7CEC701B6013F
:105230000E94D12A6CCFC701B6010E94D12A7FCF2C
:10524000CD8CDE8CEF8CF8A020E030E0A901C70106
:10525000B6010E94E12C20E030E040E05FE387FDF2
:10526000BAC0C701B6010E94D22A0E94BA2B8B0194
:10527000C98CDA8CEB8CFC8C20E030E0A901C701F2
:10528000B6010E94E12C20E030E040E05FE387FDC2
:10529000A7C0C701B6010E94D22A0E94BA2B7B0187
:1052A00019821A821B821C821D821E821F8218860E
:1052B000B801C7010E949A17811172C0480181E0AC
:1052C000881A9108570191E0A91AB108B401C501E3
:1052D0000E949A17882331F064E276E0CE010196AD
:1052E0000E94F81AB401C7010E949A17882331F06E
:1052F0006CE176E0CE0101960E94F81A6701EFEFAB
:10530000CE1ADE0AB401C6010E949A17882331F032
:1053100064E176E0CE0101960E94F81AB801C50159
:105320000E949A17882331F06CE076E0CE01019656
:105330000E94F81AB801C6010E949A17882331F01A
:1053400064E076E0CE0101960E94F81A0F5F1F4FCD
:10535000B801C5010E949A17882331F06CEF75E0FF
:10536000CE0101960E94F81AB801C7010E949A174F
:10537000882331F064EF75E0CE0101960E94F81A9F
:10538000B801C6010E949A17882331F06CEE75E0CF
:10539000CE0101960E94F81ACE0101960E94AE221B
:1053A000BE016F5F7F4FCE0109960E94F81ACE01B1
:1053B00009960E94142120E030E0A9010E943E2BB2
:1053C0008111C6CE19A21AA21BA21CA24DA25EA2D6
:1053D0006FA278A6C4CEC701B6010E94D12A45CFDC
:1053E000C701B6010E94D12A58CF6CED75E0CE01FD
:1053F00001960E94221B64EE75E0CE0101960E9488
:10540000F81ABC01CE0109960E94221BBE016F5DF5
:105410007F4FCE0109960E94F81ABC01CE01419639
:105420000E94221B88E0FE017196ACEDB5E0019070
:105430000D928A95E1F7C090E005D090E105E090EB
:10544000E205F090E30520E030E0A901C701B601D4
:105450000E94E12C20E030E040E05FE387FD43C0A4
:10546000C701B6010E94D22A0E94BA2B0E94F22BD9
:105470004B015C01C090DC05D090DD05E090DE05BD
:10548000F090DF0520E030E0A901C701B6010E94DD
:10549000E12C20E030E040E05FE387FD29C0C70158
:1054A000B6010E94D22A0E94BA2B0E94F22B60936E
:1054B000DC057093DD058093DE059093DF05809217
:1054C000E0059092E105A092E205B092E305BE01ED
:1054D0006F5D7F4FCE0101960E94221BCE01019687
:1054E0000E94941D4DCEC701B6010E94D12ABCCFA7
:1054F000C701B6010E94D12AD6CF30914106F317D9
:1055000048F48F5F831708F05FCE81E083BF8895F2
:1055100013BE5ACEE1E0E093430620934206209169
:105520003D0630913E062F5F3F4F30933E0620935D
:105530003D0680913F06809340060E94F7258093A8
:105540003F06E3E5F1E091119FEF8FEF9193919387
:10555000919391938150D0F7E0914401F0E0EE0FE8
:10556000FF1FE95FF34E85919491FC01099580E05E
:105570000E948B1729CEF999FECF92BD81BDF89A72
:10558000992780B50895262FF999FECF1FBA92BDAD
:1055900081BD20BD0FB6F894FA9AF99A0FBE019614
:1055A00008955058BB27AA270E94E92A0C94932CEF
:1055B0000E945A2C38F00E94612C20F039F49F3F51
:1055C00019F426F40C94572C0EF4E095E7FB0C9498
:1055D000512CE92F0E94B82C58F3BA1762077307B1
:1055E0008407950720F079F4A6F50C94DA2C0EF4D4
:1055F000E0950B2EBA2FA02D0B01B90190010C01E3
:10560000CA01A0011124FF27591B99F0593F50F4FA
:10561000503E68F11A16F040A22F232F342F442752
:10562000585FF3CF469537952795A795F04053954A
:10563000C9F77EF41F16BA0B620B730B840BBAF01A
:105640009150A1F0FF0FBB1F661F771F881FC2F785
:105650000EC0BA0F621F731F841F48F48795779599
:105660006795B795F7959E3F08F0B0CF9395880F53
:1056700008F09927EE0F9795879508950E942D2C95
:1056800008F481E008950E946A2CE3950C94A42C00
:105690000E945C2B0C94932C0E94612C58F00E9469
:1056A0005A2C40F029F45F3F29F00C94512C5111F1
:1056B0000C94DB2C0C94572C0E94B82C68F3992383
:1056C000B1F3552391F3951B550BBB27AA276217FE
:1056D0007307840738F09F5F5F4F220F331F441F0B
:1056E000AA1FA9F335D00E2E3AF0E0E832D091503F
:1056F0005040E695001CCAF72BD0FE2F29D0660F2C
:10570000771F881FBB1F261737074807AB07B0E86E
:1057100009F0BB0B802DBF01FF2793585F4F3AF074
:105720009E3F510578F00C94512C0C94DB2C5F3F7C
:10573000E4F3983ED4F3869577956795B795F795FA
:105740009F5FC9F7880F911D9695879597F90895E2
:10575000E1E0660F771F881FBB1F6217730784077E
:10576000BA0720F0621B730B840BBA0BEE1F88F78D
:10577000E09508950E94C12B6894B1110C94DB2C24
:1057800008950E94C02C88F09F5798F0B92F992750
:10579000B751B0F0E1F0660F771F881F991F1AF01C
:1057A000BA95C9F714C0B13091F00E94DA2CB1E07B
:1057B00008950C94DA2C672F782F8827B85F39F07A
:1057C000B93FCCF3869577956795B395D9F73EF4B5
:1057D00090958095709561957F4F8F4F9F4F08955D
:1057E000E89409C097FB3EF490958095709561957B
:1057F0007F4F8F4F9F4F9923A9F0F92F96E9BB2731
:105800009395F695879577956795B795F111F8CFAC
:10581000FAF4BB0F11F460FF1BC06F5F7F4F8F4F17
:105820009F4F16C0882311F096E911C0772321F00D
:105830009EE8872F762F05C0662371F096E8862FA5
:1058400070E060E02AF09A95660F771F881FDAF7FC
:10585000880F9695879597F90895990F0008550F29
:10586000AA0BE0E8FEEF16161706E807F907C0F0E6
:1058700012161306E407F50798F0621B730B840BEE
:10588000950B39F40A2661F0232B242B252B21F4C8
:1058900008950A2609F4A140A6958FEF811D811D68
:1058A000089597F99F6780E870E060E008959FEFA2
:1058B00080EC089500240A941616170618060906A7
:1058C000089500240A941216130614060506089576
:1058D0000C94572C0E94C02CD8F3E894E0E0BB272E
:1058E0009F57F0F02AED3FE049EC06C0EE0FBB0FEA
:1058F000661F771F881F28F0B23A62077307840774
:1059000028F0B25A620B730B840BE3959A9572F7E9
:10591000803830F49A95BB0F661F771F881FD2F727
:1059200090480C94A32D092E0394000C11F48823A5
:1059300052F0BB0F40F4BF2B11F460FF04C06F5F47
:105940007F4F8F4F9F4F0895EF93E0FF07C0A2EA6C
:105950002AED3FE049EC5FEB0E94E92A0E94932C7C
:105960000F90039401FC9058ECEAF0E00C94B62DF3
:1059700057FD9058440F551F59F05F3F71F0479500
:10598000880F97FB991F61F09F3F79F087950895E5
:10599000121613061406551FF2CF4695F1DF08C004
:1059A000161617061806991FF1CF86957105610521
:1059B00008940895E894BB2766277727CB0197F9C9
:1059C00008950E942D2C08F48FEF08950E94F92C61
:1059D0000C94932C0E945A2C38F00E94612C20F0D9
:1059E000952311F00C94512C0C94572C11240C94E9
:1059F000DB2C0E94B82C70F3959FC1F3950F50E0FB
:105A0000551F629FF001729FBB27F00DB11D639F70
:105A1000AA27F00DB11DAA1F649F6627B00DA11D16
:105A2000661F829F2227B00DA11D621F739FB00DBC
:105A3000A11D621F839FA00D611D221F749F33272C
:105A4000A00D611D231F849F600D211D822F762FC5
:105A50006A2F11249F5750409AF0F1F088234AF0A2
:105A6000EE0FFF1FBB1F661F771F881F915050400E
:105A7000A9F79E3F510580F00C94512C0C94DB2C1F
:105A80005F3FE4F3983ED4F3869577956795B79595
:105A9000F795E7959F5FC1F7FE2B880F911D9695AF
:105AA000879597F908959F930E946A2C0F9007FCA1
:105AB000EE5F0C94A42C19F416F40C94572C0C944F
:105AC000A12D0E94C02CB8F39923C9F3B6F39F57B8
:105AD000550B87FF0E94AF2D0024A0E640EA9001FD
