:100000000C94D3130C94FB130C94FB130C94FB1360
:100010000C94FB130C94FB130C94FB130C94FB1328
:100020000C94FB130C94FB130C94D31F0C944220E0
:100030000C94FB130C94FB130C94FB130C94FB1308
:100040000C94FB130C94FB130C94FB130C94FB13F8
:100050000C94FB130C94FB130C94FB130C943322A1
:100060000C94FB130C94FB130C94FB130C94FB13D8
:100070000C94FB130C94FB130C94FB130C94FB13C8
:100080000C9498220C94FB130C94FB130C94FB130C
:100090000C94FB130C94FB130C94FB130C94FB13A8
:1000A0000C94FB130C94FB130C94FB133C380000D2
:1000B00000000080F8FE0FE3FB1B0B0B8BFBF3F73C
:1000C000F6F6F60606ECECECECECECECECECECEC1E
:1000D000ECECECEEE6F6F6F6F7F3FBFBCBCBFBE352
:1000E0000FFEF8801E332121339E00000080F8FFB0
:1000F0000FE0F8F9F9F9F9F9F9F9F1F3F3F3F3F09D
:10010000F0FFFFFFFFFFFFFFFFFFFFFFFFFFFFFF0E
:10011000FFFFFFFFFFFFFFFFFFFF7F7FFEE00FFFFF
:10012000F880060600000000000F3FF0C607040438
:10013000070707070707070707070707FFFFFFFF6F
:10014000FFFFFFFFFFFFFFFFFFFFFFFF070707079F
:1001500007078787070726860707C6F03F1F008027
:100160008000000000000000030784C4E4E4E4E42D
:10017000E4E4E4E4C49C000FE7E7E7E7E7E7E7E748
:10018000E7E7C7870F1F0FC7E7E0ECE4E4E4E5E526
:10019000E4C4040404070300C040C30311000000CA
:1001A000000000000000FFFFFFFFFF393939FFFFAB
:1001B000FF0FE0E0EFEF0FFFFF183879FFFFF703C5
:1001C000E0E0EFEF0FFFF9F0F0FCFDFDFD0DECE0DE
:1001D000E0E00000012101000000000080C060207C
:1001E00060C080000000000C0C007EFE803C3E1CC5
:1001F0001C1C1C1C0C0C0E0C0C0C0C0E1E1C1C1CB9
:100200001C3C3E80FE7E00000000C0E0E0C000001C
:100210000000030300000E1B3166C680D060311B56
:100220000E00003828380001471E382020202030DA
:100230001010D0D0101090103020202020381E0731
:10024000010000060600000101000000000000009F
:1002500000005308C0FC0F89F83F03C0F89F8909CC
:1002600001C0F89F8300C0F81F13110F02000000A7
:10027000C07C243CC0BC8480705CFC00DC70180432
:10028000000000E01CC03CFCF00CC07C2424C0B882
:10029000847C08000000C0B8C44CC8B8847CC83C4A
:1002A000FCF00CC07C2424C078A470CCFCA424C036
:1002B000BC84C07C243C00000000C0F81F13110F58
:1002C000C2F89F8380C0703CA7FF0F000000FF7F33
:1002D0000C0601010000E01CC03CFCF00CC07C24BA
:1002E00024C0B8847C08000000C0B8C44CC8B884DE
:1002F0007CC83CFCF00CC07C2424C078A470CCFCEE
:10030000A424C0BC84C07C243C00000000C07C2429
:100310003CC0BC8480705CFC00DC701804000000F1
:1003200000C0F81FC3F80FFFE37C07C1F81F0909DD
:1003300061FC8EC1791F020000000000C0B8C44CEF
:10034000C8B8847CC83CFCF00CC07C2424C078A4D1
:1003500070CCFCA424C0BC84C07C243C0000000001
:10036000C07C243CC0BC8480705CFC00DC70180441
:10037000000000E01CC03CFCF00CC07C2424C0B891
:10038000847C0800000040FC9E8361230360FC8E97
:10039000C1791FC2F80FFFE37C07C1F81F090901EB
:1003A0004040FFFFFF0707E7E7676767676767E7A3
:1003B000E70707FFFF1F1F9F9F8787FFFFFFFFFFC5
:1003C000FF9F9F87871F1F7F7F87876767FFFFFFCD
:1003D000FF0707E7E7676767676767E7E70707FFFD
:1003E000FFFFFFFFFF00007F7F6060606060607F55
:1003F0007F0000FFFF0606E1E10707FFFF01019F05
:100400009F6161878766668686070798987979FF76
:10041000FF00007F7F6060606060607F7F0000FFA2
:10042000FFFFFFFFFF868606067E7E86867E7E1E97
:100430001E6666070778789F9FF8F8010106066731
:1004400067E0E0E7E7E6E619191818616118181F78
:100450001F8686E6E666661E1E666666669E9EFFCA
:10046000FFFFFFFFFF0707E0E0181879798686068F
:10047000066666E0E01E1EF9F9E1E10000F8F818F2
:10048000186161E1E1E1E16666FEFE8686666686E8
:100490008667676161FEFEE0E0181860606767FFCD
:1004A000FFFFFFFFFF7E7EE1E166660000E7E78079
:1004B000806666878798988181676778780707865E
:1004C000861E1EF9F99F9F80807979E7E7606007B3
:1004D000079E9E7E7EF9F96161FEFE60601E1EFF32
:1004E000FFFFFFFFFF66667F7F7E7E7E7E79797FDE
:1004F0007F6666F9F90707878798989E9EF8F8FF48
:10050000FF9898F9F99F9FF9F9E6E6F9F90606E6EA
:10051000E66161E6E60707FEFE878718189898FFF0
:10052000FFFFFFFFFF0000FEFE060606060606FEB2
:10053000FE0000FFFF9E9E1919E1E19F9F0707FF44
:10054000FFF9F9E7E7E1E16767F9F99F9FE0E087E5
:10055000878686E7E700000707797986866161FF6D
:10056000FFFFFFFFFFE0E0E7E7E6E6E6E6E6E6E7B7
:10057000E7E0E0FFFFE1E1E6E6E1E1E7E7F8F8E1E7
:10058000E1E1E1F9F9FFFFE0E0F9F9F9F9E1E1E78B
:10059000E7F9F9E7E7E0E0FEFEFEFEE1E1FEFEFF3F
:1005A000FFFF3238000000000000000000000000E3
:1005B00000000000000000000000000080D058C8CB
:1005C000F83800000080F03888F83880D058C8F833
:1005D0003800F07818F8000000000000000000006B
:1005E00000000000000080C0C04040C0C000030305
:1005F000020301000000081B131E0F010003030289
:1006000003010003030003030000000000000000DA
:10061000000000000000E0FCFF0F0080F8FF1F0357
:1006200000E0FC1C040404A0D85C44E4FC3800E0B6
:10063000F83C04F4FC1C04E0FC3C0000000000005A
:100640000000000000000006070704040603010084
:100650000000070701000000070705040707011055
:100660003337273C1F0F00000707050480D058C808
:10067000F83880F038080800E8FC0E08000080F028
:100680003F8FF83800F8F8C0701808000080F07F3D
:100690000F81F07F0780F03808F87880F038030386
:1006A0000203010003030000000203020000000037
:1006B000030302030100181F0701000080C040C1AE
:1006C000C3020203010000030300C3C3400383C24B
:1006D000000000000000000000000000000000001A
:1006E000000000000000000000000060F8888FBEDD
:1006F000FEE3B908000000E0E080E07C1F0160FC40
:100700009F817810F87880F0784878300000008079
:10071000F03F8FF83800F8F8C070180800000000AB
:1007200000000000000000000000000000000000C9
:10073000000000000003030003030203C1C04000E7
:1007400000030302030100181F87814040C0C080DE
:10075000000080804040C0C0800000000000000019
:1007600000000000000004C0FC7C0480F0FE1F03B9
:1007700000A0D85C44E4FC3800003E3F23A0F0FF1A
:100780001F83F0FE1F0B88F8F90101000000000034
:100790000000000000000000060703000407070037
:1007A0000000070705040707010003070704040307
:1007B0000300000307070404030300000000000017
:1007C0000000000000000000000088B83080F03F0A
:1007D00087F07848783000809C3EF1F1470680F041
:1007E0003888F83880F03888F83880F03808088081
:1007F000F07FE7300808F8F8C07018084340C0835D
:10080000030083C342C3C1000183C24243C18018B5
:10081000DFC1020301000303020301000303000020
:1008200000030300030300181F0701000000E07E1F
:100830000F0160E081C47C3F03C0FC3F0FF8FE075E
:10084000E1FE1F01000000000000000000000000A9
:100850000000000000000000000000000000000098
:10086000490840E08EDB713363FC8EC1791F024082
:10087000F89F83703E07C0F80FFFE37C07C1F89F25
:1008800083713F0600000060FC8EC1791F02C0F832
:100890001F0909C1F81F090901000000101000001C
:1008A00000C0B8847CC83CFCF00C0040E08EDB71DA
:1008B0003363FC8EC1791F0240F89F83703E07C0EE
:1008C000F80FFFE37C07C1F89F83713F060000002B
:1008D000C0B8847CC87C2424C07C24240000000090
:1008E000101000000060FC8EC1791F02C0F80FFFDD
:1008F000E37C07012038000000000000000020F029
:10090000787C3E3E3E1E1F0F0F0E0E0C0808080896
:1009100008080404040480F00804040203010180B0
:100920008080808080C0E0E0C0C0800000000000C7
:100930000000000000F03FE0000000000018F1C3DC
:10094000CCD8D09999151D1F1F32333B323210007D
:1009500000002040807F00010EF000000000CF7FEB
:1009600087830101010EF1010101020204E4F41484
:1009700094F46808898A0000003FE000000619E04E
:100980000000031C204080071820C0303F0F033EAA
:100990003F01383F27340000000000010618E01F27
:1009A000E000000000000001020408B1660830C049
:1009B0000000000000000000000000000006090820
:1009C0000700000000000000000000010202020415
:1009D000050A0A04000004040808080808081010A2
:1009E00010302040408080000000000000006010B7
:1009F0008848C85060C000000000000000000020CF
:100A000078C8F07800000103067880000000007FBD
:100A1000C449281E35EAC080000000000000000024
:100A2000000001909098CCC4E4E4B3B21C00000034
:100A30000001030203028C09098A92121494941291
:100A40008A8A8909040686868607058587800000CC
:100A50000080808000001703003F3F380F03383FBD
:100A600027341703383F0300003037271C0D0038A8
:100A70003F273417030000000000000000000000C2
:100A80000000000080F07F17D0F83F0780F0388822
:100A9000F83880F0388800000000000000000000F6
:100AA000000000000303000003030000030302032F
:100AB00001000303020340000000000000000000EA
:100AC0000000000000808040402030101010080816
:100AD00008080808040450C020A09830C000000096
:100AE000008078060301000078F0C878200000003C
:100AF0000000000000000202010000010300001CD1
:100B0000B2B3E4E4C4CC989090010000000000006F
:100B10000000000080C00000E070F01000C0F0F79E
:100B2000350587868606060489898A0A1294949474
:100B300092128A89090C303F073E3F1C07391F0378
:100B4000383F27341703383F030000303F07313F59
:100B500007313F07383DB83080F07FE7300888F034
:100B60007848783000F8F8C07018080000000000DD
:100B70000000000000000000030300030300030363
:100B800002030100181F0701000000000000000020
:100B90000000000000000404040408080808080815
:100BA0000C0E0E0F0F1F1E3E3E3E7C78F020000004
:100BB000000000000000F000000000000000000045
:100BC0000080C0C0E0E0C0808080808080010103A0
:100BD00002040408F0807F804020000000103232C0
:100BE0003B33321F1F1D159999D0D8CCC3F1180083
:100BF00000000000E03F8A8988880404A42404845B
:100C00008202F13101F10E01010183877FCF0000E3
:100C10000000F00E0100253C1F03383F03383F233E
:100C200038DF2318078040201E030000E01906006B
:100C300000E03F000000000000000000C030086637
:100C4000B108040201000000000000E01FE01806E7
:100C50000100000000000000040A0A05040202026C
:100C60000100000000000000000000070809060065
:100C7000000000000000101800000000000000004C
:100C8000006040F0C0F898FCB8FE30FFC6FFDCFE04
:100C900080FC008000000000008000C080E040F088
:100CA00080E080C000810081008181C343FFDBFFC1
:100CB000DDFFEEFFECFF00FC000F051F1A3F3F7F3A
:100CC000037F7CFF7FFF7FFF78FF377F0F7F1E3F13
:100CD0000D1F050F010700032040000000000080E9
:100CE000F07F17D0F81F83F038C8F81000F888603C
:100CF00018F8C0701808000080F80000000000011B
:100D00000100000101000001C1C140C0C10181C05A
:100D100041C1010080C040C001010000000000008E
:100D2000000000000000000C07000E07000E0F0975
:100D30000505000E0F090505000E0000000000006B
:100D400000000000000000000000000000000000A3
:100D50000000000000000000000000FF01A955A9EC
:100D600055A955A955A955A955A955A955A955A993
:100D700055A95501FF0155A955A900FF04A455A483
:100D800055A455A455A455A455A455A455A455A49B
:100D900055A45504FF0455A455A400FF1092559284
:100DA000559255925592559255925592559255920B
:100DB00055925510FF1055925592007F404A554A62
:100DC000554A554A554A554A554A554A554A554A2B
:100DD000554A55407F40554A554A18C8F810E8789A
:100DE00000C0F038E8780080F818C8F81800F8F863
:100DF00060380800000000E83C0E80C140E179083E
:100E000000010141E1700081C040C1800004070180
:100E1000C04000C0C00081C141800F080E03000027
:100E20000000080F0900040F090E07000000000869
:100E30000F0C03080F0E03000C0F00000000000051
:100E400000000000000000000000000000000000A2
:100E5000080C0C0C04000000000055A955A955A968
:100E600055A955A955A955A955A955A901FF01A9E4
:100E700055A955A955A955A955A955A455A455A491
:100E800055A455A455A455A455A455A404FF04A4E1
:100E900055A455A455A455A455A4559255925592C0
:100EA00055925592559255925592559210FF109227
:100EB00055925592559255925592554A554A554AD2
:100EC000554A554A554A554A554A554A407F404A1F
:100ED000554A554A554A554A554A80F03A82F818BB
:100EE000C8F810E87800C0F038A8B80080B0B8D8CA
:100EF00018000000C0F018C87C0FD111C0C141C05B
:100F0000C10001010080C141C1000000010181C098
:100F100040C0400081C141C10000010C07000E0724
:100F2000000000000E0F090F03000000203C2F38C6
:100F30001E03000E0F090F03000C00000000000844
:100F40002C3C1E0F0D0400000000000000000000FB
:100F50000000000000000000000055A955A955A997
:100F600055A955A95501FF0155A955A955A955A937
:100F700055A955A955A955A955A955A455A455A490
:100F800055A455A45504FF0455A455A455A455A42F
:100F900055A455A455A455A455A4559255925592BF
:100FA000559255925510FF10559255925592559263
:100FB00055925592559255925592554A554A554AD1
:100FC000554A554A55407F40554A554A554A554A13
:100FD000554A554A554A554A554A81F038C8F8107D
:100FE00000000000F8F860380880F038C8F810C039
:100FF000F818C0F8180000000000C0C141C18040CE
:10100000C0000084C741C00000203189E978000198
:10101000010101000000000000000F000E07080F92
:1010200003000E0F0905050000080B010000000079
:1010300000000000000000000000000000000000B0
:1010400000000000000000000000000000000000A0
:101050000000000000000000000055A955A901FF94
:1010600001A955A955A955A955A955A955A955A9E4
:1010700055A955A955A95501FF0055A455A404FF2C
:1010800004A455A455A455A455A455A455A455A4E9
:1010900055A455A455A45504FF005592559210FF30
:1010A000109255925592559255925592559255924D
:1010B0005592559255925510FF00554A554A407F1A
:1010C000404A554A554A554A554A554A554A554A3D
:1010D000554A554A554A55407F000608E09C8241D2
:1010E00039070000C239070080C4A2910907E080D7
:1010F00082C93D072030ACF22F0140CC8BC53D01A9
:10110000E0BC8EC9390380C061190503E0948A49A7
:101110003D07C09C92D139071018F8C4320AF60274
:101120000119254B4325DAA294883F409CB2529383
:101130000C08084848A118040201708846211008CC
:1011400005629A44201009060000F8C4320AF6022B
:101150000119254B4325DAA294883F409CB2529353
:101160000C080848C821180402017088462110089C
:10117000050204081021224488F0F8C4320AF6025D
:101180000119255B4B25DAA498003F409CB252938D
:101190000C08084848A1180403007088462110086C
:1011A00005629A442010090600008894A2DA2543BB
:1011B0004B25190102F60A32C4F801020418A148AD
:1011C0004808080C9352B29C403F000006091020CA
:1011D000449A62050810214688708894A2DA254353
:1011E0004B25190102F60A32C4F80102041821C87D
:1011F0004808080C9352B29C403FF08844222110CA
:10120000080402050810214688700098A4DA254BCE
:101210005B25190102F60A32C4F800030418A1483C
:101220004808080C9352B29C403F00000609102069
:10123000449A62050810214688700808187EF299C1
:10124000090B09060C06060F7B82A6786090D090E9
:10125000994F7E181E6541DEF06060302040FFFF30
:10126000FFFFFFFFFFFF1FEFF1FFFFFFFFFFFFFF8C
:10127000FFFFFFFFFFFFFFFFFFFF7F3F1F1FFFFF7E
:10128000FFFFFFFF01FEFFFFFFFFFFFFFFFFFFFF6D
:10129000FFFFFFFFFFFFFFFFFFFFFCFBF706FFFF66
:1012A000FFFFFFFFFEF9E7DF3FFFFFFFFFFFFFFF4D
:1012B000FFFFFFFFFFFFFFFFFFFFFFFF3F00FF7F7D
:1012C0003F1F9F4F87132B532B128255A54B1BF7A4
:1012D000F7F7F7F7FBFBFBF9FD7D1E00007FFFFC36
:1012E000F8F9FAF1F0F0E0C0000000083C3E3FFFE2
:1012F000FFFFFF7F7F3F3F07010000000000FFFF6F
:10130000FFFFFFFFFFFFFFFFFFFEF8F0E0C0808060
:101310000080808020802090A09048D40A24FFFF85
:10132000FFFFFFFFFFFFFFFFFFFFFFFFFF05F2FED5
:10133000FCF9FBF3EF03FCFBFBFFF00EFEFFFFFFEE
:10134000FFFFFFFFFFFFFFFFFFFFFFFFFFFFFFFFAD
:10135000FFFFFFFFF9FEFFFFFFFFFFFFFFFF1F3F44
:101360003F1F1F1F3F7FFFFFFFFFFFFFFFFFFFFF2D
:10137000FFFFFFFFFFFFFFFFFFFFFFFFC71FF7F8A4
:10138000FAF606F4FAFCFFFFFFFFFFFFFFFFFFFF87
:10139000FFFFFFFFFFFFFFFFFFFFFFFFFFFF8F4F7D
:1013A0000F4F001F5FBFBFFFFFFFFFFFFFFFFFFFEC
:1013B000FFFFFFFFFFFFFFFFFFFFFFFFFFFFBF5C20
:1013C000A854A85400FEFDFBFBF7EF07C7DFBFBF23
:1013D000BF7F7F7F7F7FBFBFBFDFEF2FF7FBAA55A8
:1013E000AA55AA05F07F7F7F3FC3FCFFFFFFFFFFE9
:1013F000FFFFFFFFFFFFFFFFFFFFFF88F1FDB03999
:1014000094B66E7676F7FBFBFBFDFBFBE7DFFF1F79
:1014100063BFDFDF1FD33FDFDF9FFF1F63BFCFF05F
:10142000FFFFFFFF1FE0FFFFFFFFFFFFFFFFF8FED3
:10143000FCF9FFF8FFF8FAFBFDFFF8FEFCF9FFFFEF
:10144000FFFFFFFFFFFFFFFFFFFFFFFFFFFFFFFFAC
:10145000FFFFFFFFFFFFFFFFFFFFFFFFFFFFFFFF9C
:10146000FFFFFFFFFFFFFFFFFFFF3F3FBFBFBF3F8C
:101470007FFFFFFFFFFF7F3F3F3FFFFFFFFFFEF9C3
:10148000C73FFFFFFFFFFFFF0F81C0DEDFDFEFE0A1
:10149000F0FF7F1F87E1F83E00C0FFFF7F0FFFFFD7
:1014A0000FF0FFFFFFFFE7E0F8FFFFFFFFFFFFEF99
:1014B000E3F1FCFEFEFEFEE0E0FFFFFFF0E07DBE9C
:1014C000BFFFFFFFFFFFFFFFFFFFFFFFFFFFFFFF6C
:1014D000FFFFFFFFFFFFFFFFFFFFFFFF3FFFFE8F4D
:1014E000B3BDCDF18FB1BD8FF1FDFFFF8FE1F9FDF0
:1014F0008FB3B5D5F18FA3B585F18FF18EF1DFDF15
:101500001FD31FDFDF1FFF3FDFDF1FDFFFFFFF5F97
:101510008FD7FF1FC3DF1FFF3F5F5F1FFFFFFFF876
:10152000FFF8FEFFF8EFE0EAE3F8FFFFFFFFFFF848
:101530003BFFF8FEFFF8FFF8FBFBFDFF7FBFFFFF5F
:10154000FFFFFFFFFFFFFFFFFFFFFF8FA3BD8DF139
:101550008EB3BDCDF18FE1FD8DF1FFFFFEFFFF3FAB
:101560003FBFFFFFFF7F3FBFFFFF7F7FBFBFBF3F8B
:101570007FFFFFFFFF3F3FBFBFBFBFBFFFFF01E0D8
:10158000FEFFFF3F03C0FCFFFFE1C0878F1F1FF876
:10159000F8FFFF0F01C0DEDFDFDFFFFFFFFFEFEF30
:1015A000EFE7F1F8FEFFF3E1E5EFEFEFF7F0FCFF17
:1015B000FFE7E0E0EFEFEFEFFFFFFFFFFFFF3FFF91
:1015C000FFFFFFFFFFFFFFFFFFFFFFFFFFFFFFFF2B
:1015D000FFFF3FFFFFFFFFFFFFFFFFFFFFFFFE01DA
:1015E000DFE7FBFDFFFF8FB3B5D5F18FE1FD8D7117
:1015F0000FE18DB3BDCDF1FF01DFE7FBFDFFFEFF86
:101600003F5FDF9FFF1FC3DF1FFF1F9FDFFF1ED254
:101610001FBF5F1FDF1F9FFE1FDFDF1FFFFFFFF9E1
:101620007BFBFCFFF8FEFFF8FFF8FEFFFFF8FFF87A
:10163000FFFBF8FFFBFCE7F07ABBBC3FFFFF85B880
:10164000FDFFFFFFFF01DFE7FB8DB3BDCDF18FB1E4
:10165000BD8FF1FDFFFFFFBDA6FBF9FEFFFF2040A0
:10166000FFFFFFFFFF7FBFFFFFFFFF3F0F0703816C
:10167000010101000000000000010FBFFFFFFFFF9C
:10168000FFFFFFFFD8D043C3C3636130381C8641DE
:1016900030080C0000000000040E0E7EFFFFFFFF6C
:1016A000FFFFFFFFFFFFEEC2D8F87C3C0E0701C032
:1016B000E000000000000000000000004367FFFFA2
:1016C000FFFFFFFFFF7F1F8FC3E1F0F8FCFE3F1F0E
:1016D0000F18304080000080FCFEFEFCF8F8F0E1BE
:1016E000FF9F07C3E080FFFFFFFFFFFFFFF0C08009
:1016F00000000000000001000001010307070F1FA8
:10170000FFFFFFFFFFFFFFFFFFFFFB0303030307D5
:10171000070F1E3E7CFCFCFCF8F8F8F0F0E0C0007F
:10172000FFFFFFFFFFFFFFFFFF7F3F38F0F0F0F804
:10173000F0F060000001070F1F1F1F1F0F0F038035
:10174000DF9F0F0F0F070301000080808183C7C751
:10175000C3E0E0F0F0F8F8FCFCFCFCFEFEFFFFFF4D
:10176000FFFFFFFFFFFFFF7F7FFFFFFF7F7FFFFF89
:10177000FFFFFFFFFFFFFFFFFFFFFFFFFFFFFFFF79
:10178000FFFFFFFFFFFFFFFF00CFF3F93E87F3FBF3
:101790001BC3FF7F07E3FF1F83FBFFFFFFFF3F0329
:1017A000FFFFFFFFFFFFFFFCFEFFFFFFFCFDFDFC57
:1017B000FEFFFFFCFDFDFCFCFFFFFFFFFFFFFCFC4D
:1017C000230F1F7FFFFF7F0F437B7F3F07F37F3F89
:1017D000DFDF1FFF1F1FFFFF3F9FFFFFFFFF7FBFD9
:1017E0003F7EE0FEFFE7F0FEFFEFE1F8FFF3E0EE03
:1017F000E6F2FE3F98E0F1FCFFFFFFFFFFE3E9EEBA
:1018000000000003FFFFFF7F1FFFFFFFFFFFFFFF41
:10181000FFFFFFFFFFFFFF3F9FFFFFFFFFFFFFFFF8
:10182000C0E0F0FCFF1FC3F80F617C3E86F0FF0FA5
:10183000617C3E86F01FC3E00339FCFEFFFFFFFF23
:10184000FFFFFFFFFFFFFFFFFFFFFFFFFFFFFFFFA8
:10185000FFFFFFFFFFFFFFFFFFFFFFFFFFFFFFFF98
:10186000FFFFFFFFFFFFFFFFFFFFFFFFFFFFFFFF88
:10187000FFFFFFFFFFFFFFFFFFFFFFFFFFFFFFFF78
:101880007F9FE7037F9FC7730BE37E07E3F71B830D
:10189000FFFFFFFFFFFFFFFFFFFFFFFFFFFFFFFF58
:1018A000FEFFFFFCFEFFFFFCFFFFFCFFFFFDFCFF58
:1018B000FFFFFFFFFDFDFFFFFDFDFFFFFDFDFFFF44
:1018C000DFDF1FFFFFDF1FC7D7FFFFFFFFFF7F0F18
:1018D000633FDFDF1FFF7FBFDFDF1FFFFF3F1FDF34
:1018E000E6E0FCFFFFE1ECFFFFFFFFFFFFE3F8F3A3
:1018F000E0EEE6F2FEE3E9EEE6E0FCFFE3EAEEE02E
:10190000FFFF3F9FFFFFFFFFFFFFFFFFFFFFFFFF07
:101910003FBFFFFF3FBFFFFFFFFFFFFFFFFFFFFFD7
:101920001F03783E86E0FF9F03713696F0FF0E603E
:10193000FEFE0E60FEFE9F03713696F01FC1F8FE9C
:10194000FFFFFFFFFFFFFFFFFFFFFFFFFFFFFFFFA7
:10195000FFFFFFFFFFFFFFFFFFFFFFFFFFFFFFFF97
:10196000FFFFFFFFFFFFFFFFFFFFFFFFFFFFFFFF87
:10197000FFFFFFFFFFFFFFFFFFFFFFFFFFFFFFFF77
:10198000FFFFFFFFFFFFFFFFFFFFFFFFFFFFFFFF67
:10199000FFFFFFFFFFFFFFFFFFFFFFFFFFFFFFFF57
:1019A000FFFFFFFFFFFFFFFFFFFFFFFFFFFFFFFF47
:1019B000FFFFFFFFFFFFFFFFFFFFFFFFFFFFFFFF37
:1019C0009F9FFFDF1FC7D7FFFFFFFF1F1FFFFF3FC7
:1019D0009FFF3F9FDFDF1FFFFF3F1FFFFF1FDFFF57
:1019E000F9FFFFE1ECFFFFFFFFFF3F98E0F1FCFF95
:1019F000FFE1ECEFE7F0FEFFE3E8EFE7E0FCFFFFDD
:101A0000FFFFFFFFFFFFFFFFFFFFFFFFFFFFFFFFE6
:101A1000FFFFFFFFFFFFFFFFFFFFFFFFFFFFFFFFD6
:101A2000FEFFFFFF1FC1F87D06E00F617C3E86F0E0
:101A3000FFFF0F009FE7F9009FE7F1FCFEFFFFFFAC
:101A4000FFFFFFFFFFFFFFFFFFFFFFFFFFFFFFFFA6
:101A5000FFFFFFFFFFFFFFFFFFFFFFFFFFFFFFFF96
:101A60002040FFFFFFFFEF0FFF7F3FCFEF7F7F7F24
:101A70007FFFFFFF7FFFFF7F7FFFFFFFFFFFFF7FF6
:101A8000FFFFFFFFFFFF9FC0F9FEFF87B0BE9FC3B0
:101A9000F8FF8FA0BC9F83F0FFFFFFFFFFFF878051
:101AA000CFF3FFFFFFFFFFFFFFFFFFFFFFFFFFFF82
:101AB000FFFFFFFFFFFFFF7FFFFFFFFFFFFFFFFFB6
:101AC000FFFFFFFF7F2FD7DB1B83FFFF3B83F8FA6E
:101AD000FFFFFFFF7F0FE17C0FC7DB5BC37F2FD7CB
:101AE000DB1BFFFFFCFDFDFCFCFFFFFFFCFDFFFF20
:101AF000FFFFFFFFFCFFFFFEFCFDFCFEFFFCFDFD0A
:101B0000FCFCFFFFFF3F9FDFDF1FFFFF3F1FBFDF2B
:101B10001FFFFF7F3FDFDF1FFFFFFFFFFF7FBFDFF5
:101B2000DF1FFFFFE1ECEFE7F0FEFFE3F8FFEFE080
:101B3000FCFFF3E0EEE6F2FEFFFFFFFFE3E9EEE677
:101B4000E0FCFFFFFFFFFFFFFFFFFFFFFFFFFFFFC7
:101B5000FFFFFFFFFFFFFFFFFFFFFFFFFFFFFFFF95
:101B6000FFFFFF7FFFFFFF7F7F7FDFFF7FFF7F7F25
:101B7000FFFFFFFFFFFFFFFFFFFFFFFFFFFFFFFF75
:101B8000FFFFFC80CFF3F88EE1FC8FE0FCBE83F01A
:101B9000FFFFFFFFFFBFBFFFFFBFBFFFFFBFBFFFD5
:101BA000FFFFFFFFFFFFFFFFFFFFFFFFFFFFFFFF45
:101BB000FFFFFFFFFFFFFFFFFFFFFFFFFFFFFFFF35
:101BC000FFFF83FF7F47C31B33F3FF3B83F8FAFF1D
:101BD000FFFFFFFF03033F9FE7F33F87F3FB1BC3B9
:101BE000FF7FFFFFFCFDFDFCFFFFFFFCFDFFFFFF94
:101BF000FFFFFFE7F3FCFEFFFFFFFCFDFDFCFEFF28
:101C0000FFFCFFFF7F3FDFDF1FDFFF7FBFDFDF1F47
:101C1000FFFF7F1FF73F1FBFDF1FFFFFFFFFFFFF1C
:101C2000FFFFBF23606F87E0FEFFE3E9EEE6E0FC25
:101C3000FFE3F8FFE3F8FFEFE0FCFFFFFFFFFFFF2C
:101C4000FBF9FFFFFFFFFFFFFFFFFFFFFFFFFFFFAE
:101C5000FFFFFFFFFFFFFFFFFFFFFFFFFFFFFBFB9C
:101C6000F9F9FF1F0FFF7F9F0FCFFF3F8FEFFF7F20
:101C70007F7FFFFF3F8FFF3F8FFFFFFFFFFFFFFFD4
:101C8000FFFF9F80C6F1FC8780C3F8FECF81B89B21
:101C9000CBF88FE1FC8FE17C1FDFFFFFFFFFFFFF31
:101CA000FFFFFFFFFFFFFFFFFFFFFF7FFFFFFFFFC4
:101CB000FFFFFFFFFFFFFFFEFFFFFFFFFFFFFFFF35
:101CC000FFFF07E3FF1F83FBFFFFFCFF7F07E3FB33
:101CD0007B0FC7DB5BC3FFFFFFFFFF3F0701000078
:101CE0000101FDFDFCFCFFFFFFFFFFFFFC7F7F3FCD
:101CF0003E1C1D1C0E0F0F0707070100000000000F
:101D00000000FF7F3F1F0F47E7E3E10100000000F5
:101D1000000000000000000080808080C0C0C0C0C3
:101D2000C0C0F8F8F0F0E060614100000000000081
:101D3000000000000080C0703F07000000000000AD
:101D40000000F9F8F8F8F8F8F8F8F8F8F0F0F0F81A
:101D5000F8F8FCF6F7F3F1F0F0F0F0F0F0F0F8F846
:101D6000F8F8FFFFFCF9F1C3830307070F0F0F1FFC
:101D70001F3F3F7F7F7FFFFFFFFFFFFFFFFFFFFF53
:101D8000FFFFFFFFFFFFFFFFFFFF9C8080C0C0C081
:101D9000C0C0C0C0C0C0C0C0C1C1C383871F7FFF57
:101DA000FFFFFFFFFFFFFFFFFFFFFFFFFFFFFFFF43
:101DB000FFFFFFFFFFFFFFFFFFFFFFFFFFFFF83FFA
:101DC00001070103030303030303010101010101EF
:101DD0002131393D3F3F1F1F0F0F0707030180C00F
:101DE00070FE000000000000000000000000000085
:101DF000000000008080C0C0603038180C0603C1AD
:101E0000F8FF4060606060203030101818080C0C3B
:101E10000606030301010000000080E0F0FCFFFF64
:101E2000FFFF000000000000000000000080808034
:101E3000C0E0E0F0F0F87C7CFEFFFFFFFFFFFFFF5B
:101E4000FFFFF8F8FCFCFCFCE6C6C68383010180BA
:101E5000C0E0F0F8FCFEFFFFFFFFFFFFFFFFFFFF0A
:101E6000FFFF2040000000F8F8C0E0381880F0F8CC
:101E700088880800E0F0988838300000000000C032
:101E8000F80800000000001F1F010000181F1710B5
:101E90001000081C14111F0F02000000001014078E
:101EA00000000000000040E0704080F878C0C000F2
:101EB00080C040C0800000000080C040C0C00080E2
:101EC000C040C08000001F17001C1F01181F030C1A
:101ED0001F131A0B01000040CC9FF17C0F01181E4C
:101EE000121E0F010000C0C00080C04080C040C072
:101EF000800080C00080C000303808C0C00080C0B2
:101F00004080C04000C0FF3F0E03000C1F111C0F9B
:101F1000011C1F11181F03000000001F1F1C0701D8
:101F20000C1F131A000080F878C0C00080C040C0A9
:101F3000800080C040C0F818C0C00080C0400000D1
:101F40000080F878001C1F111C0F010C1F111C0FC2
:101F5000011C1F111C0F01C0FF3F0E0300000000F9
:101F60001C1F111C00C0C00080C04080C040C08049
:101F70000080C00080C000303808C0C00080C04071
:101F800080C040C0C0FF3F0E03000C1F111C0F019A
:101F90001C1F11181F03000000001F1F1C07010C4D
:101FA0001F131A0B0080C040C0C000C0C00080C01A
:101FB00040C0800000000000C0F038F8F800008049
:101FC000F0F8F800181F03181F03181F030C1F1345
:101FD0001A0B010000101C0F07041C1F0000181F23
:101FE000031E1F1FC0800000000080C040C0C00052
:101FF00080C040C0800040E07040000000C0C000D1
:1020000080C040800B01000040CC9FF17C0F010C90
:102010001F111C0F01001F1700000000C0FF3F0E22
:1020200003000C1FC0C00080C040C0800080C040C2
:10203000C0800080F83880400000000000C0F80830
:10204000000000000F01181E121E0F010C1F110CC2
:1020500005011C1F071F19000000001014070000D5
:10206000000000008000000000C0C00080C0C00070
:10207000C0C00080C040C0800080C040C0C0000020
:102080000000000001000000001F1F0E031F1D0EB6
:1020900003000C1F111C0F011C1F01181F0300005F
:1020A00000000000E0F80880F0780888F870000070
:1020B0000000000000000000000000000000000020
:1020C000000000000700181F1710180F0300000081
:1020D0000000000000000000000000000000000000
:1020E00000000000C040C0800080C00080C00080B0
:1020F000C0404000000000000000000000000000A0
:1021000000000000111C0F011C1F11181F031C1FD1
:1021100001000000000000000000000000000000BE
:10212000000000C0000000000000000000000000EF
:10213000000000000000000000000000000000009F
:1021400000C0FCFF000000000000000000000000D4
:10215000000000000000000000000000000000007F
:10216000060F1F1F001038F8F8D8981898F8FEFED0
:10217000FFFFFFFEFEFCF00000000000000000007A
:1021800000000000000000000103031FFFFFF3EF49
:10219000EFEFF7FBFFFF7FFFFCE000000000000017
:1021A000000000000000000000000080DFBF7F7F13
:1021B0007FBFDF9F070100010F3F7CF0C080000060
:1021C0000000000000000000E0F8FEFFFFFFFFFF3E
:1021D000FFFFFFFFFEF8F0C0000000000103070E44
:1021E0000C1C18180080F8FFFFFFFFFFFFFFFFFF28
:1021F000FFFFFFFFFFFFFFFFFFFCF0C0000000003C
:1022000000000000FCFFFFFFFFFFFFFFFFFFFFFFDD
:10221000FFFFFFFFFFFFFFFFFFFFFFFFFFFCF0805F
:1022200000000000FFFFFFFFFFFFFFFFFFFFFFFFBA
:10223000FFFFFFFFFFFFFFFFFFFFFFFFFFFFFFFFAE
:10224000FEF8C0001F3F3F7F7F7FFFFFFFFF7F7FC4
:102250007FFFFFFFFF7F7F7F7F7F7F7F7F3F3F1F6E
:102260001F0F07032040FFFFFFFFFFFFFFFFFFFFE0
:10227000FE009FE7F37C0EE7F73787FFFF0FC7FFEE
:102280003F07F7FFFFFFFFFFFFFFFFFFFFFFFFFF1E
:10229000F9FCFFFFFFF8FBFBF9FCFFFFF8FAFBF985
:1022A000F8FFFFFFFF7FFFFFFFFFFFFFFFFFFFFFC5
:1022B000FFFF4FBF1FDBF72DF72DFBAF5BF70F576E
:1022C0000CBF88FFB849FFFF7F7F870F0F7F1B2C54
:1022D0001728176B970C1B251F6B9C73A87BCCBF13
:1022E0006FB46BDEA3387800FCCC39F828F8AC74F6
:1022F000AED82CD877007320000000000000010049
:1023000001C071D030D9FCE3E7860D03010205035B
:10231000008100C1E0A060A0C000E0E000C0E020BB
:10232000C0F6AB000100FFFFFFFFFEF8FCF8F8F07D
:102330009C071F4B360F3F567F977FAEFB0F320D2A
:102340000A070C030600FFFFFFFFFFFFFFFFFFFF71
:10235000FFFFFFFEFEFCFCFCFCF8F8F9F8F1F0F0E2
:10236000F0F0F0F0E0E0FFFF1FC3780FE7F73787EA
:10237000FFFF8F873767E7FF1F8FB7B787FFFFFF25
:10238000FFFF3F83D0DEFF78FEFFF8FBFBF9FC3F49
:10239000FFF83A7B78FE7FFCB87BF9BCFF3FFFBFBC
:1023A0007FF938FFFF7FF893F221C6B17F8E118746
:1023B000940B050B06083209360F140F040F06079D
:1023C00007170D160D0B6FB0CFBB6CD37D866DE27A
:1023D000F739EF3BCE363E0C1C080080C0C0E0F061
:1023E000F0D8BCFCEE3B7BAC5FEC33ED1BF601E1BF
:1023F000A04045C3C0F1F0FCF6FFEBFDF7FAEFFBA0
:1024000075FFBF7ECD3B00100B06010300170106D0
:1024100009B7557F7FFFFFFFFFFFFFFFFFFFFFFFB4
:10242000FFFE730D7F02000040A0F050F0B050F0AE
:1024300011E010B040D1A0A120C1018701030183A8
:10244000410681000080E0C0808D828F008F0007F0
:10245000012201060D02068102010E01060006019D
:102460001F002F003F00DEDEFE1FC7FD8F8737678E
:10247000E7FF1FC1EC7707FFFF8F873767E7FF771D
:1024800007F1F5FF1FC7FF7FF8FE7FF8FAFB78FE24
:10249000FF78FEFFFBF8FFFFF8FAFBF8FEFFFFF8FE
:1024A000FBFFFFF8FEFF9C87D96AF37ED2BFF8A935
:1024B000FAEFFCFB3FDAFF32CD7B0F201F53BF5AF0
:1024C000F31FF7BF7FCFCFFFADFFBFCD7EDBBE7366
:1024D000CF77DFB4DF375F356F004040408040C0CA
:1024E0008160CD6A7DC3EEBBEC9376DD335E250B58
:1024F000070C030201100000000000000008004269
:102500002CD03CD3FD3F1F0001000108045C34487F
:10251000B0788878B8F838F8E8F08000000000005B
:102520000000858B874300800800100C932C132C2F
:102530001B651A671CAB350F1D8356B040F030C0C9
:10254000B0D1B070F1F00E0017001F00060C800D26
:10255000A00010038007B00F020DB2053B459B069B
:102560008946B96FD3FFFD1FCFF7F7C7FF1F011CC7
:10257000CFE7F7FFFFFFFFFFFF1F81F8FFFFFFFF20
:10258000FFFFFFFFFFFFFCF8FBF9FCFFF8FEFFF881
:10259000F9FFFFFFFFFFFFFFFBFAFFFFFFFFFFFF5A
:1025A000FFFFFFFFFFFF3FCFBB2FEB9F63DF2BD76B
:1025B0007FEFFFFFFFFFFFFFFFFFFFFFFFFFFFFFBB
:1025C000FFFFFFFFFFFF84030C039C03808324D3E2
:1025D000BDFF3FFF5FFF7FFFFFFFFFFFFFFFFFFF2D
:1025E000FFFFFFFFFFFFFFEF00D8387C7CFC7EFE83
:1025F0005EDB55D991D8CDBFFF9DCFCFC7CFCFFFE1
:10260000FFFFFFFFFFFFC040C0C0C0C0C0C0C1C0CF
:10261000C1C0C1C0C1C1E1E1E1C101010100C1709E
:10262000F87FFFFFFFFFE1020100010001020D0240
:102630000D030E152B55BF55FFFF3FFCC1E3C0F73F
:10264000FEFDFFFFFFFFFFEBF0F0F0F0F0F8F8F811
:10265000F8F8F8FCFCFCFEFFFEFFFFFFFFFFFFFFAA
:10266000FFFFFFFFFFFFF0F89C8E8783878E9CF8AB
:10267000F00000FEFF0303030303070EFCF8000055
:10268000FEFF0303030303070EFCF80000FFFF0037
:10269000000000000000FFFF0000FEFF8383838333
:1026A00083C7EE7C380000F8FC0E07030303070E17
:1026B000FCF800003F7FE0C08080C0E07F3FFFFF6C
:1026C00001010101010101FFFF0000FFFF0C0C0CE3
:1026D0000C1C3E77E3C100007FFFC0C0C0C0C0E05B
:1026E000703F1F00001F3F70E0C0C0C0E0703F1F80
:1026F00000007FFFC1C1C1C1C1E3773E1C00001FC4
:102700003F70E0C0C0C0E0703F1F0000000000014B
:10271000FFFF01000000D5F08D14A1C881CFD9F1D1
:10272000AF2000161BD41AC21A4E1AA71A2E1BC5A8
:102730001FF21B2F1ACA19080B000202020100091E
:10274000040000010202000005240010010524011C
:102750000101042402060524060001070581031077
:10276000004009040100020A0000000705020240BF
:102770000000070583024000000403090412010061
:1027800002EF0201404123368000010102030141B2
:10279000726475696E6F204C4C43004172647562BF
:1027A0006F7900002C2311241FBECFEFDAE0DEBFCB
:1027B000CDBF11E0A0E0B1E0ECE0FDE402C0059087
:1027C0000D92A233B107D9F725E0A2E3B1E001C031
:1027D0001D92AF3EB207E1F713E1C3EDD3E104C0B0
:1027E0002197FE010E947E26C23DD107C9F70E94B3
:1027F0005E230C9484260C9400008091520108956D
:102800004F925F926F927F928F929F92AF92BF9200
:10281000CF92DF92EF92FF920F931F93CF93DF93AC
:102820006C01B0E0A0E0FA0180E03591159121152E
:1028300011F48115B1F047E0410F47954695469553
:10284000033009F4440F439FA001249FE00DF11DC4
:10285000259FF00D109629F0849FA00DB11D859F36
:10286000B00D11240F3F21F4109602E009F001E0B1
:102870007D01AF01C32FD0E0C6018C0F9D1F0097D3
:1028800009F444C020E8C216D1040CF03FC0DB01BB
:10289000A10FB11DAB2BD1F160347105BCF53097A0
:1028A000A9F1262F2770922E23E0759567952A951A
:1028B000E1F7262F803891050CF473C190E89C193C
:1028C00031E0812F877009F430E016951695169542
:1028D000310FDB01A30FB11D199714F038E0361B3F
:1028E000DB01B695BA2FAA27B795A795AC0DBD1DEC
:1028F000C92C092C000CDD08033009F40AC1B8F416
:10290000013009F4CAC0023009F447C0DF91CF9109
:102910001F910F91FF90EF90DF90CF90BF90AF90FD
:102920009F908F907F906F905F904F9008950A3F97
:1029300009F479C00B3F51F7822F861B831730F7BC
:102940008D010C571E4FF12CE12CE91608F098C0B0
:10295000FA01EE0DFF1DA490B12C0C2C02C0AA0CA4
:10296000BB1C0A94E2F727FD07C0F8018081EA2D1D
:10297000E0958E23F8018083992049F027303CF4BC
:10298000F801E058FF4FB09480818B218083FFEFE6
:10299000EF1AFF0A0F5F1F4FD8CF66246A94712C7D
:1029A000092C02C0660C771C0A94E2F760947094BC
:1029B000572C822F861B831708F0A8CF8D010C5748
:1029C0001E4FF12CE12CE91618F5FA01EE0DFF1D52
:1029D000A490B12C0C2C02C0AA0CBB1C0A94E2F7E8
:1029E00027FD05C0F801808186218A2980839920EE
:1029F00049F027303CF4F801E058FF4F80818521F1
:102A00008B298083FFEFEF1AFF0A0F5F1F4FDBCF89
:102A10004C0F5D1FA058BF4F2F5FCBCF4C0F5D1FDA
:102A2000A058BF4F2F5F822F861B831708F06ECFF1
:102A30008D010C571E4FF12CE12CE91678F7FA01A5
:102A4000EE0DFF1DA490B12C0C2C02C0AA0CBB1CD7
:102A50000A94E2F727FD04C0F80180818A29808367
:102A6000992041F0273034F4F801E058FF4F80817D
:102A70008B298083FFEFEF1AFF0A0F5F1F4FDDCF17
:102A80004C0F5D1FA058BF4F2F5F56CF4C0F5D1FDF
:102A9000EC0EFD1EA058BF4F2F5F822F861B8317A1
:102AA00008F034CF8D010C571E4FB12CA12CA91664
:102AB00068F7F701EA0DFB1D6490712C0C2C02C025
:102AC000660C771C0A94E2F760947094FA01EA0DA0
:102AD000FB1D4490512C0C2C02C0440C551C0A9434
:102AE000E2F727FD05C0F8018081862184298083D3
:102AF000992049F027303CF4F801E058FF4F8081DD
:102B0000872185298083FFEFAF1ABF0A0F5F1F4F10
:102B1000CECF092F10E0AC57BE4F40E850E0401B2D
:102B2000510BC01BD10B8E01000F111FC1E0D0E073
:102B30007E01092C01C0EE0C0A94EAF7292F892E98
:102B4000CF93DF93ED01EF96EF962296A590C59077
:102B5000992059F0AE9C5001CE9C600167302CF456
:102B6000F880D094FD20FB28F99266233AF0FC907F
:102B7000C094FC20FA28FD920C94BF1511962A955A
:102B800029F73A9551F0282D63951124E00FF11D96
:102B9000A40FB11DC40FD11DD9CFDF91CF91112446
:102BA000B5CE932F8DCE9091EA05982329F490917C
:102BB000E905982381E009F480E0089590E0E4E8D5
:102BC000F1E091119FEF8FEF9193919391939193F6
:102BD0008150D0F70895E4E8F1E0A0E0B8E000808B
:102BE0000EBC8111012C1197A0FDFDCF0192B9F708
:102BF0000DB40895FC0180917E01882311F13FB747
:102C0000F89482E08093E9002091F200822F90E016
:102C10001816190614F481E090E0882339F02898FA
:102C200044E640937D014091F1004083222339F036
:102C30002091F200211103C02BE62093E8003FBF52
:102C400008958FEF9FEF08952FB7F89483E0809356
:102C5000E9009091E800892F807295FF04C090915F
:102C6000F20080E4891B2FBF0895809175018111C6
:102C70000DC082E08093710184E080937201109214
:102C800074011092730181E08093750181E791E0F6
:102C90000895CF93DF931F92CDB7DEB76983DC0130
:102CA000ED91FC910280F381E02D41E050E0BE0106
:102CB0006F5F7F4F09950F90DF91CF91089583E06B
:102CC0008093E9008091F200882319F08AE38093D1
:102CD000E80008950E94241690E00895CF93DF93B2
:102CE0001F92CDB7DEB7FC018485958597FD08C09E
:102CF0002FEF3FEF358724870F90DF91CF91089515
:102D0000CE0101960E94FA15019719F4898190E08D
:102D1000F3CF8FEF9FEFF0CF0F931F93CF93DF93FE
:102D20001F92CDB7DEB78C01FC018485958597FF96
:102D30000BC0CE0101960E94FA15019771F48981AA
:102D400090E0F80195878487F801848595850F9038
:102D5000DF91CF911F910F9108958FEF9FEFF1CFEA
:102D6000FC018485958597FD0BC09FB7F89482E0A0
:102D70008093E9008091F2009FBF90E00196089552
:102D80009FB7F89482E08093E9008091F2009FBFA2
:102D900090E0089540916B0150916C012091690180
:102DA00030916A0142175307B4F49091E80095708E
:102DB000E1F39091E80092FD19C08093F1008091B9
:102DC0006B0190916C0101968F739927892B19F4EF
:102DD0008EEF8093E80080916B0190916C010196D9
:102DE00090936C0180936B0181E0089580E00895D9
:102DF000DF92EF92FF920F931F93CF93DF93D82E22
:102E00008A01EB017B01E40EF51ECE15DF0559F0BA
:102E1000D7FE12C0FE0184910E94CA16219681112C
:102E2000F4CF0FEF1FEFC801DF91CF911F910F91EA
:102E3000FF90EF90DF9008958881EECF0F931F935E
:102E4000CF93DF931F92CDB7DEB782E0898342E450
:102E500050E067E377E280E80E94F8160E9435169A
:102E6000DC0112960D911C910115110589F0D80114
:102E7000ED91FC910280F381E02DBE016F5F7F4FE9
:102E8000C801099597FD04C0F80100851185ECCFB4
:102E900089810F90DF91CF911F910F91089561501B
:102EA00030F02091F100FC0120830196F8CF2898A2
:102EB00084E680937D0108950895FC010E94F41733
:102EC000319728F068517C4F8F4F9F4FF9CFAB015E
:102ED000FC010E94F417641775078E079F07C8F35B
:102EE00008958F929F92AF92BF92CF92DF92EF920E
:102EF000FF920F931F93CF93DF936C017B018A01A5
:102F000080910D01882309F45AC080917E018823A5
:102F100009F455C08091700180FF05C08091E000E8
:102F200082608093E000E801B12C8AEFA82E93E044
:102F3000892E2AE3922E209711F4BB20C9F10E941A
:102F40002416811108C0AA94AA20C9F181E090E05A
:102F50000E945D17F0CF8C171D0611F00CF08C2F1E
:102F60009FB7F8948092E9002091E80025FD02C007
:102F70009FBFE1CF282F30E0C21BD30BF701815058
:102F800020F041914093F100FACFE20EF31EBB20F6
:102F900021F09092E800B12CEBCF8091E80085FD04
:102FA000E7CF9092E800BB24B394209709F3F3CFC6
:102FB0005D9884E680936F01101611063CF081E065
:102FC00090E0F6019383828310E000E0C801DF9176
:102FD000CF911F910F91FF90EF90DF90CF90BF9016
:102FE000AF909F908F900895A0E6B1E02FB7F8942E
:102FF0007D918D919C9166B52FBFA89B05C06F3FB9
:1030000018F47F5F8F4F9F4F22E0660F771F881F56
:10301000991F2A95D1F7089520918301E0918101AC
:10302000F0918201CF0102969093820180938101F9
:10303000222319F0859194910895808191810895BA
:10304000CF92DF92EF92FF92CF93DF930E940C1802
:10305000811520E8920791F4809171008D7F809313
:103060007100109291004698479810925501DF9197
:10307000CF91FF90EF90DF90CF90089521E02093C3
:103080005501813020E8920751F480917F019091A1
:10309000800190938201809381010E940C1897FD1A
:1030A00005C020915401222309F454C020915301FA
:1030B000211150C021E020935601EC01DF772097C9
:1030C00009F04BC081E08093570146983FE9C32E39
:1030D0003FE0D32EE12CF12CCAEFD0E0E091E205E5
:1030E000F091E3050995811103C081E080935701B8
:1030F00080915601882329F080915701882309F493
:103100003FC047980E940C180097F1F19C01DE0126
:103110000E946F26DC01CB0129E0B595A795979514
:1031200087952A95D1F7109290002AE0209391007C
:10313000D0929900C09298008093580190935901C1
:10314000A0935A01B0935B018091710082608093DB
:1031500071008DCF10925601B0CF9E0150E040E03B
:1031600060E472E48FE090E00E941B2669017A011E
:1031700081E0C81AD108E108F10810925701AECFDA
:103180004699BFCF479ABECF8FEF9FEFDC01CBCFE1
:103190009C01E1E7F0E090819D7F90831092830194
:1031A000E4EDF5E0F0938201E0938101F09380017A
:1031B000E0937F013183208384E690E093838283D0
:1031C00080E090E8958384830C9420180F930AEF95
:1031D0000E9400140F9108952D9A08950C945D1784
:1031E0000E9490220895109252013E983F980895AF
:1031F0003E9A3F9A81E0809352010895803891056C
:10320000B8F460347105A0F420E191E061FD94E030
:1032100060FD990F62FD9295687F269FD001112471
:10322000A80FAC57BE4F8C9140FF03C0892B8C93E5
:10323000089590958923FBCFEF92FF920F931F93F0
:10324000CF93DF937C018B01040F111DEB0177FFFE
:1032500002C0D0E0C0E0C8010134110514F080E4E0
:1032600090E0C817D9073CF441E0BE01C7010E94B5
:10327000FE182196F0CFDF91CF911F910F91FF9013
:10328000EF9008952F923F924F925F926F927F92AC
:103290008F929F92AF92BF92CF92DF92EF92FF9266
:1032A0000F931F93CF93DF9300D01F92CDB7DEB75C
:1032B0007C015B016C50710949E10E941C19662474
:1032C0006394712C10E000E02CE030E03B832A8313
:1032D00098EE292E33243A9425EFC22EDD24DA9479
:1032E0000F5F1F4F22E0620E711CC60CD71C8A8133
:1032F000880F8F5F8983482F25018A819B81481A17
:10330000590AB201C8018E0D9F1D0E941C1945016A
:10331000801A910A462DB4018A819B818E0D9F1DD2
:103320000E941C194981B201C701801B910B0E94A8
:103330001C19462DB401C7012A813B81821B930BC6
:103340000E941C198A819B8108171907B4F00F90FD
:103350000F900F90DF91CF911F910F91FF90EF9001
:10336000DF90CF90BF90AF909F908F907F906F90A5
:103370005F904F903F902F900895D7FCB1CF8A81F6
:103380009B8101979B838A8392E0290E311CC20C9A
:10339000D31CA6CF0F931F93CF93DF93D0915001EF
:1033A000809151018D1310C010E000E0C0E02C2F7F
:1033B00044E652E270E060E0C8010E94E618CF5F88
:1033C000005E1F4FC43099F780914F01D81307C09A
:1033D00080914E01813009F178F0823079F18CE0F2
:1033E0000E94D315882319F081E080936801DF9152
:1033F000CF911F910F91089510E000E0C0E02C2FB5
:1034000042E65EE170E060E0C8010E94E618CF5F2E
:10341000005E1F4FC43099F7E2CF10E000E0C0E03B
:103420002C2F40E65AE170E060E0C8010E94E618E7
:10343000CF5F005E1F4FC43099F7D1CF10E000E09E
:10344000C0E02C2F4EE556E170E060E0C8010E941C
:10345000E618CF5F005E1F4FC43099F7C0CF0F93BF
:103460001F93CF9310E000E0C0E02C2F4CE552E119
:1034700070E060E0C8010E94E618CF5F005E1F4F59
:10348000C43099F788E00E94D315882319F087E0AB
:1034900080936801CF911F910F910895EF92FF9251
:1034A0000F93CF93DF93F12CE12CC0E02C2F48ED4C
:1034B0005CE070E060E0C7010E94E618CF5F80E248
:1034C000E80EF11CC43091F7C09101012C2F4AED98
:1034D00050E167E170E08DE390E00E94E61885E03E
:1034E000E82EF12CD0E0CD1771F003E020E046E7A4
:1034F0005CE063E270E0C7010E940014DF5F81E1DD
:10350000E80EF11CF0CF80EC0E94D315882329F03F
:10351000C73018F4CF5FC093010180E30E94D31538
:10352000882339F080910101823018F08150809316
:10353000010184E00E94D315882319F086E080936E
:103540006801DF91CF910F91FF90EF90089520E0F7
:1035500042EA55E064E070E08EE090E00E94E618F8
:1035600021E042EA55E064E070E080E490E00E94EF
:10357000E6188CE00E94D315882319F081E080932F
:103580006801089520E040EA53E070E060E080E2E6
:1035900090E00E94E6188CE00E94D315882319F071
:1035A00081E08093680108950F931F93CF9310E0FB
:1035B00000E0C0E02C2F44EF58E070E060E0C8016C
:1035C0000E94E618CF5F005E1F4FC43099F7C0918C
:1035D00000012EEF2C0F42E552E068E370E086E137
:1035E00090E00E94E61880E40E94D315882329F019
:1035F000C53018F4CF5FC093000180E20E94D3155C
:10360000882339F080910001833018F08150809335
:1036100000018CE00E94D315882321F080910001E5
:1036200080936801CF911F910F910895CF93C0911E
:103630003201CF5FC093320120E04CEA50E064E0F9
:1036400070E082E290E00E94E618CB3528F01092FC
:10365000320181E080936801CF9108950F931F9309
:10366000CF9310E000E0C0E02C2F44EF58E070E072
:1036700060E0C8010E94E618CF5F005E1F4FC430B3
:1036800099F72091520140E658E068E370E08BE141
:1036900090E00E94E61880E40E94D31581110E94F8
:1036A000F81880E20E94D31581110E94F3188CE073
:1036B0000E94D315882381F0C091520182E090E0EE
:1036C0000E940526C81729F06C2F82E090E00E9426
:1036D0000D2681E080936801CF911F910F9108958D
:1036E000CF92DF92EF92FF92109243011092440129
:1036F00097E0C92ED12CE12CF12C80914301882335
:10370000B1F087E0C82ED12CE12CF12C809144013E
:1037100081111AC00E94AD25A70196010E941B26A7
:10372000635071098109910960934401EFCF0E94B0
:10373000AD25A70196010E941B26635071098109DE
:10374000910960934301D9CFFF90EF90DF90CF9024
:103750000895CF93DF9360E971E080E090E0AB01E2
:10376000FC010E94F41741505109E109F10928F0C8
:1037700068517C4F8F4F9F4FF6CFAB01FC010E94E9
:10378000F417641775078E079F07C8F310924D0151
:1037900010924C0110923301E6E4F1E083E084835F
:1037A000858390E19083928328E1238334E1318300
:1037B000E5E3F1E040E64083318323839283848311
:1037C00081E08583CFE3D1E08CE388838CE189833A
:1037D0001C821D820E94701B88E08A838B83DF918C
:1037E000CF9108952F923F924F925F926F927F9266
:1037F0008F929F92AF92BF92CF92DF92EF92FF9201
:103800000F931F93CF93DF9380914D01882309F489
:1038100061C0D0913F01C0914001809143018D0F63
:1038200080933F01909144019C0F9093400184301C
:1038300058F480E590E00E94C818D0933F01809131
:10384000430181958093430180913F019091410113
:10385000890F9927991F8D379105C4F080E590E075
:103860000E94C818D0933F0180913401811106C095
:103870008091430181958093430108C010923401E7
:103880000E94701B809143011816A4F3809140019F
:10389000843058F480E590E00E94C818C09340013D
:1038A00080914401819580934401809140019091E1
:1038B0004201890F9927991F813491055CF080E5B9
:1038C00090E00E94C818C093400180914401819506
:1038D000809344010E94AD2520914301D0913F0186
:1038E000C091400112162CF5D53118F123E030E0DB
:1038F00040E050E00E941B2661111BC090913601F0
:103900009C1770F4809138012CE330E0281B3109BA
:10391000921713062CF480913A01890F8093360197
:1039200080913601C81728F490913A01891B809341
:10393000360184E00E94D3150C2F10E00D5F1F4F5D
:10394000882399F180913301843179F52D2F30E06E
:103950002D5F3F4F41E040933D01809146019091A2
:103960004801890F9927991F28173907F4F04496C1
:1039700028173907D4F480914901869590E0209169
:103980004701280F392F311D0217130774F0820FDA
:10399000931F081719074CF4109233018AE08093A3
:1039A00043011092440140933401D930E8F40C30C3
:1039B00011055CF48FEA90E00E94C81880915101D3
:1039C0008F5F809351010E94A91B8FEC8C0F8C306C
:1039D00058F48FEA90E00E94C818809151018F5FDF
:1039E000809351010E94A91BD157DC30E0F40C30C8
:1039F00011055CF48FEA90E00E94C81880914F0195
:103A00008F5F80934F010E94A91BC153CC3058F4A3
:103A10008FEA90E00E94C81880914F018F5F8093D9
:103A20004F010E94A91B00913F0110E00D5F1F4F45
:103A3000C0914001D0E02396C0904601D12C0C15D6
:103A40001D050CF46BC0C6014096081719070CF051
:103A500065C0E0904701F12CCE15DF050CF45EC087
:103A6000C7014896C817D9070CF058C001978C17A2
:103A70009D0724F109978C179D0704F581E0809339
:103A80003D018AE080933E0180913301865F85315C
:103A900008F0C4C08093330184EF91E00E94C818FD
:103AA0008091430187FF03C081508093430180913F
:103AB000440187FF03C081958093440187E0E80EAD
:103AC000F11CEC16FD068CF082E390E00E94C81811
:103AD00082E080933D018FE080933E01809144011C
:103AE00018161CF4819580934401C6010A9680172C
:103AF00091073CF48091430187FF03C08195809337
:103B0000430184E0C80ED11CC016D1063CF0809160
:103B1000430118161CF4819580934301E090350110
:103B2000F12C0E151F050CF469C0C701409608174B
:103B300019070CF063C0C0903601D12CCC15DD05FF
:103B40000CF45CC0C6014896C817D9070CF056C0E3
:103B500080913401882359F0109234010E94701B27
:103B60008091430118161CF4819580934301C6018E
:103B700043968C179D07ACF081E080933B0184EF66
:103B800091E00E94C8188091430118161CF48F5FC1
:103B9000809343018091440187FF03C08195809306
:103BA000440183E0C80ED11CCC16DD0674F082E31C
:103BB00090E00E94C81882E080933B01809144010C
:103BC00018161CF4819580934401C7010A9680174A
:103BD00091073CF48091430187FF03C08195809356
:103BE000430184E0E80EF11CE016F1063CF0809100
:103BF000430118161CF4819580934301E4E8F1E039
:103C000091E8915069F4E4E0F5E091E8915071F0A9
:103C10008191DF01119780688C93F8CF84E13ACFCE
:103C20008191DF01119781608C93EBCF40E470E0CC
:103C300060E090E080E00E941C1940E470E060E0E9
:103C40008FE790E00E941C1940E470E060E080E49F
:103C500090E00E941C1940E470E060E084E290E093
:103C60000E941C1940E470E060E08CE590E00E9446
:103C70001C1941E060E370E080E490E00E94FE18CF
:103C800041E060E170E080E490E00E94FE1841E0D5
:103C900060E270E080E590E00E94FE1841E060E2A2
:103CA00070E080E390E00E94FE1810E000E0442401
:103CB0004394512CC0E1D0E030EE632E77247A9407
:103CC00041EFE42EFF24FA9450E4252E312C0F5FAF
:103CD0001F4F82E0480E511CE40CF51C480180E4A3
:103CE000880E911C41E06E0180E2C80ED11CB60125
:103CF000C4010E94FE185101A01AB10A41E0B601A8
:103D0000C5010E94FE1841E080E2C82ED12CCC1AD9
:103D1000DD0AB601C4010E94FE1841E0B601C501EA
:103D20000E94FE18680180E2C80ED11C41E0B60175
:103D30005E0180E4A80EB11CC5010E94FE1841E09E
:103D4000B6016101CC1ADD0AC6010E94FE1890E29C
:103D5000892E912C801A910A41E0B401C5010E947C
:103D6000FE1841E0B401C6010E94FE180C171D07A1
:103D70000CF4F9C070E060E090E080E00E9442192D
:103D800060E470E090E080E00E94421960E470E03E
:103D900080E890E00E94421970E060E080E890E0E6
:103DA0000E944219D0914F012D2F4AED50E166E358
:103DB00070E080E390E00E94E618C09151012C2F42
:103DC0004AED50E166E370E08BE490E00E94E61873
:103DD00080913E01882309F4CFC090913D01992341
:103DE00009F4CAC0815080933E0180913C01882330
:103DF00009F4C5C090913B01992309F4C0C08150DA
:103E000080933C016091470170E0809146012091D0
:103E10003D0148E151E190E00E94E61820913B010C
:103E20002D5F6091360170E08091350148E151E1EC
:103E300090E00E94E6188091E70580FD08C080911F
:103E400045018F5F843008F09DC0809345016091EB
:103E5000400170E080913F01209145014AE352E129
:103E600090E00E94E618809150018D1711F08C139C
:103E70000DC00E94AD2523E030E040E050E00E94FC
:103E80001B2660934E0189E0809368018091E705CD
:103E900080FD10C080914D0181110CC080914C01BA
:103EA0008F5F80934C018C3329F481E080934D0126
:103EB00010924C010E94F01886FF09C090914601B3
:103EC000943128F480914A01890F809346010E9421
:103ED000F01885FF09C080914601853028F0909147
:103EE0004A01891B809346010E94F01887FF09C090
:103EF00080914701853028F090914B01891B809378
:103F000047010E94F01884FF09C090914701943244
:103F100028F480914B01890F8093470184E00E942F
:103F2000D315882319F081E080934D0188E00E9429
:103F3000D315882329F00E94DE1588E0809368015C
:103F4000DF91CF911F910F91FF90EF90DF90CF9075
:103F5000BF90AF909F908F907F906F905F904F90A9
:103F60003F902F900895F7FCB2CE219782E0680E23
:103F7000711CE60CF71CABCE10923D0136CF1092AF
:103F80003B0140CF1092450162CF10924F01109239
:103F9000510180910101809350010E94A91B87E08B
:103FA0008093680108951F920F920FB60F9211240B
:103FB0008F939F938091E1009091E100937F909384
:103FC000E10083FF0FC01092E90091E09093EB00B5
:103FD0001092EC0092E39093ED0010927E0198E035
:103FE0009093F00082FF22C093E09093E9009091BB
:103FF000F200992319F09AE39093E80090916F01F1
:10400000992341F090916F01915090936F0191111C
:1040100001C05D9A90917D01992341F090917D01BD
:10402000915090937D01911101C0289A84FF18C08E
:104030008091E2008E7E81608093E2008091E100B9
:104040008F7E8093E100809170018E7E80618093ED
:1040500070019F918F910F900FBE0F901F90189538
:1040600080FFF7CF8091E2008E7E80618093E20036
:104070008091E1008E7E8093E100809170018E7EC0
:104080008160E5CF1F920F920FB60F921124CF924D
:10409000DF92EF92FF920F931F932F933F934F93D3
:1040A0005F936F937F938F939F93AF93BF93EF93A0
:1040B000FF93CF93DF93CDB7DEB76C97DEBFCDBF55
:1040C0001092E9008091E80083FF25C068E0CE01EE
:1040D00045960E944F1782EF8093E8008D8987FFF5
:1040E00039C09091E80090FFFCCF982F907609F0AE
:1040F00034C19E894F89588D2F89F88C911131C018
:10410000803861F580916E018093F1001092F1008A
:104110008EEF8093E8006C960FB6F894DEBF0FBE6A
:10412000CDBFDF91CF91FF91EF91BF91AF919F9163
:104130008F917F916F915F914F913F912F911F913F
:104140000F91FF90EF90DF90CF900F900FBE0F90E8
:104150001F9018959EEF9093E800C7CF1092F10042
:10416000D5CF913059F48111D3CF4130510581F62B
:1041700080916E018D7F80936E01CACF933049F498
:104180008111C6CF4130510519F680916E018260D0
:10419000F2CF953041F48091E80080FFFCCF206899
:1041A0002093E300B5CF963009F0A9C00B8D1C8D8C
:1041B00022E01092E90010926C0110926B01F21251
:1041C0002EC010926A01109269010E941E171F8270
:1041D00099E09983FA8291E09E8390EA98879AEF1A
:1041E000998720916B0130916C01275F3F4F3C8391
:1041F0002B838D831092E90010926C0110926B0159
:1042000010936A010093690149E050E0BE016F5FBD
:104210007F4F80E00E94F8160E941E1779CF1093FE
:104220006A01009369010E943516DC0112960D9116
:104230001C910115110509F410C1D801ED91FC91F3
:104240000480F581E02DBE016B5E7F4FC8010995AA
:10425000009709F0FDC0F80100851185EACFF3E071
:10426000FF120EC08F89882309F440C0823061F4A8
:1042700040E867E08BE997E20E94F922811148CF7C
:1042800081E28093EB0047CF813029F440E86BE076
:104290008FE897E2F1CF833099F70E943516DC0161
:1042A0001296ED90FC908E010F5F1F4F6801E11494
:1042B000F10479F0D701ED91FC910680F781E02DB2
:1042C000B801C7010995080F111DF701E084F184B9
:1042D000EECFD8011C92F60101900020E9F731974A
:1042E000BF016C197D0940E0C601C6CF69E777E2DE
:1042F000FB01449150E080E80E94F81609CF973006
:1043000009F4BECF983021F481E08093F10000CF12
:10431000993009F0FDCE837009F0B2CFE3E1F1E00E
:1043200081E031E096E32191222371F08093E9004E
:104330003093EB00DF0111972C912093EC009093C8
:10434000ED008F5F873079F78EE78093EA00109257
:10435000EA008F8980937E01DBCE8B8D9C8D10923D
:10436000E90010926C0110926B0190936A018093A6
:104370006901898D811151C08E899D89913A49F4D5
:10438000813209F07DCF47E050E066E071E080E0E7
:10439000B3CF913209F074CF833269F48F89988D4D
:1043A000B0E0A0E08093020190930301A093040188
:1043B000B0930501ADCE803269F48091E80082FFB0
:1043C000FCCF67E086E091E00E944F178BEF80936F
:1043D000E8009ECE823209F09BCE8F8980930D013A
:1043E0008091060190910701A0910801B091090107
:1043F000803B9440A105B10569F480910D0180FDD9
:1044000009C088E780936D01809164008F7D80935F
:1044100064007ECE10926D017BCE0E943516DC01C9
:1044200012960D911C910115110509F429CFD8019F
:10443000ED91FC910190F081E02DBE016B5E7F4F0C
:10444000C8010995811164CEF80100851185EBCF73
:10445000181619060CF45CCE13CFF1E0FF12FFCE54
:104460006DE777E245CF0F930FB70F931F9211249B
:104470008F939F93EF93FF93E4E6F1E080915F01C8
:1044800091E08D5F8D3710F08D57939580935F018C
:104490008081890F80839181911D91830281011D0B
:1044A00002838381811D838309270F700927029569
:1044B00000935E0135D0811100935C01803989F44D
:1044C00000915D01901B963070F087E780930008A3
:1044D0008093010888E198E08093600090936000E9
:1044E000FFCF90935D0180916D01815018F0809312
:1044F0006D0159F3E0E6F1E08081918101968083BE
:10450000918382819381811D911D82839383FF9189
:10451000EF919F918F911F900F910FBF0F91189561
:104520008FB18095807F669B88601C9B8460089516
:104530001F920F920FB60F9211242F933F934F9318
:104540005F936F937F938F939F93AF93BF93EF93FB
:10455000FF938091580190915901A0915A01B09117
:104560005B01892B8A2B8B2B09F440C0809157016A
:1045700081110BC088B190E4892788B980915601D8
:10458000882319F088B1805888B98091580190919A
:104590005901A0915A01B0915B01181619061A062B
:1045A0001B069CF48091580190915901A0915A01E9
:1045B000B0915B010197A109B109809358019093D3
:1045C0005901A0935A01B0935B01FF91EF91BF9104
:1045D000AF919F918F917F916F915F914F913F919B
:1045E0002F910F900FBE0F901F9018950E942018CA
:1045F000ECCFEF92FF920F931F93CF93DF93F82EA0
:10460000192FE62E042F81E0860F880F0E94CA160C
:1046100083E00E94CA16CF2DD12FEC0EFD2EF11C87
:10462000CE15DF05B9F007FF13C0FE0184910E948B
:10463000CA16182F80E00E94CA1681232196811184
:10464000EFCFDF91CF911F910F91FF90EF900895E1
:104650008881EDCF81E0F5CFE4E8F5E013821282A6
:1046600088EE93E0A0E0B0E084839583A683B783CF
:104670008DE191E0918380838FEF9FEF9587848711
:10468000E4EEF5E08FE291E091838083158216825B
:1046900080E187831482138211868DEF93E19093DA
:1046A000E3058093E20580E090E89093E105809334
:1046B000E00546983E9A47983F9A0895789483E09B
:1046C00084BD83E085BD81E080936E00E1E8F0E089
:1046D00083E08083E0E881E08083E1E983E0808318
:1046E000E0E981E08083E1EC87E08083E3EC81E036
:1046F0008083E0EC82E08083E2EC81E08083EAE783
:1047000087E080838068808310927E0110926E0122
:10471000109270018091D70081608093D70080EA69
:104720008093D80089B5806189BD89B5826089BDD3
:1047300009B400FEFDCF81E090E00E945D178091FA
:10474000D8008F7C80618093D8008091E000807FCA
:104750008093E0008091E1008E7E8093E1008DE007
:104760008093E200559A209A81EC80937C0081EF3F
:1047700085B987EE84B984E38BB984EF8AB9769AD8
:104780006E9880EF81BB10BA80E58CBD81E08DBD55
:1047900085E090E00E94EE185F9902C05F9AF8CF22
:1047A0005C98E6E1F7E29DE085918EBD00000DB4D6
:1047B00007FEFDCF8EB59A95B9F75C9A81E8809394
:1047C000640081E0809365000E94EB150E94F01860
:1047D00087FF11C05C9885EA8EBD00000DB407FE0E
:1047E000FDCF8EB55C9A2E982F982D9881E083BFCF
:1047F000889513BEFCCF0E94F01882FF48C02D9808
:104800000E94F01884788438E1F40E94EC1888EC57
:1048100090E00E94EE182F9882E090E00E9405261A
:104820008F3F29F06FEF82E090E00E940D2684EF29
:1048300091E00E94EE182F9A0E94F0188478843834
:10484000D9F30E94F01884718431E1F40E94EC18CD
:1048500088EC90E00E94EE182E9882E090E00E9492
:104860000526882329F060E082E090E00E940D2672
:1048700084EF91E00E94EE182E9A0E94F018847145
:104880008431D9F388EC90E00E94EE18B4CF0E94F6
:10489000EC1882E090E00E940526882309F46EC09F
:1048A0000E94F81881E090E00E940526182F1470ED
:1048B00081E090E00E94052681FF0CC011112E9826
:1048C000C0EFDFEF0E94F01886FF5BC02E9A2F9A90
:1048D0000E94EC1882E390E00E94EE180E94F0180B
:1048E0008111F8CF81E28093EB05809164008E7F87
:1048F0008093640080917A00806480937A00809134
:104900007A0086FDFCCFC0917800D09179000E949A
:10491000F417AB01BC01CE01B0E0A0E0DC019927A7
:1049200088278C019D01040F151F261F371FC90101
:10493000B801209164002160209364006115710525
:104940008105910511F00E94FC2511E0C0E0D0E046
:1049500001E0909164018091EC05292F281B822FA2
:104960002091ED05222309F47AC08093EE05109280
:10497000ED05209771F30E940000EBCF0E94F31821
:1049800091CF112329F0C430D10511F42E9A2F981C
:1049900081E00E94EB150C2F0770A02EAE0133E0D2
:1049A000559547953A95E1F7CA019695982F88272E
:1049B000979587958C579E4F70E060E04E3F2FEFA4
:1049C000520769F130E020E0DB01AA59B94D7C01C2
:1049D000E0E8EE0EF11CFD01E20FF31FE491F0E0C0
:1049E0004F010A2C02C0880C991C0A94E2F74F3F31
:1049F000540739F06C01C20ED31EF601B488B828F2
:104A0000B48AAA2039F06701C20ED31EF6010489C8
:104A10000929048B2F5F3F4F28353105E1F64F5FA1
:104A20005F4F80589F4F685A7F4F603B710531F64A
:104A300080E00E94EB158FE090E00E94EE18219636
:104A4000C931D10509F03ECF112311F02F9A2D98CD
:104A500080E991E00E94EE180E94EC183BCF209173
:104A6000EB05821740F48F5F821708F082CF13BFE7
:104A7000889513BE7ECF0093ED059093EC05809151
:104A8000E7059091E80501969093E8058093E70586
:104A90008091E9058093EA050E94F0188093E9056A
:104AA0000E94DE15E0916801F0E0EE0FFF1FED5D62
:104AB000F84D85919491FC01099580E00E94EB15D9
:104AC00058CF8F929F92AF92BF92CF92DF92EF9288
:104AD000FF92CF93DF93EC01688179818A819B817A
:104AE000611571058105910521F464E279ED8BE58D
:104AF00097E02DE133EF41E050E00E941B26490191
:104B00005A019B01AC01A7EAB1E40E943A266B016D
:104B10007C01ACEEB4EFA50194010E944826C60EBC
:104B2000D71EE81EF91EF7FE06C081E0C81AD1089C
:104B3000E10880E8F80AC882D982EA82FB82C701CC
:104B4000B6019F77DF91CF91FF90EF90DF90CF90EC
:104B5000BF90AF909F908F9008958F929F92AF9249
:104B6000BF92CF92DF92EF92FF9260910E0170910F
:104B70000F0180911001909111016115710581055E
:104B8000910521F464E279ED8BE597E02DE133EFB7
:104B900041E050E00E941B2649015A019B01AC01F3
:104BA000A7EAB1E40E943A266B017C01ACEEB4EFB7
:104BB000A50194010E944826C60ED71EE81EF91EC4
:104BC000F7FE06C081E0C81AD108E10880E8F80ABB
:104BD000C0920E01D0920F01E0921001F0921101EB
:104BE000C701B6019F77FF90EF90DF90CF90BF9005
:104BF000AF909F908F90089560930E0170930F0176
:104C000080931001909311010895F999FECF92BD00
:104C100081BDF89A992780B50895262FF999FECF7E
:104C20001FBA92BD81BD20BD0FB6F894FA9AF99AC9
:104C30000FBE01960895052E97FB1EF400940E9466
:104C4000322657FD07D00E944D2607FC03D04EF4B4
:104C50000C94322650954095309521953F4F4F4FFB
:104C60005F4F089590958095709561957F4F8F4F18
:104C70009F4F08950E946F26A59F900DB49F900DA1
:104C8000A49F800D911D11240895B7FF0C943A261E
:104C90000E943A26821B930B0895A1E21A2EAA1BAA
:104CA000BB1BFD010DC0AA1FBB1FEE1FFF1FA217DC
:104CB000B307E407F50720F0A21BB30BE40BF50BD9
:104CC000661F771F881F991F1A9469F76095709562
:104CD000809590959B01AC01BD01CF010895A29FE5
:104CE000B001B39FC001A39F700D811D1124911DC0
:104CF000B29F700D811D1124911D0895EE0FFF1FAD
:0C4D00000590F491E02D0994F894FFCF89
:104D0C000304FFFFFFFF00E10000000000000100B2
:104D1C00000000C1808100000000000000491671F5
:104D2C00176A165F16B0166E168C16000000005C23
:024D3C0017005E
:00000001FF
