:100000000C94150A0C943D0A0C943D0A0C943D0A7C
:100010000C943D0A0C943D0A0C943D0A0C943D0A44
:100020000C943D0A0C943D0A0C9415170C948417FB
:100030000C943D0A0C943D0A0C943D0A0C943D0A24
:100040000C943D0A0C943D0A0C943D0A0C943D0A14
:100050000C943D0A0C943D0A0C943D0A0C94C8196A
:100060000C943D0A0C943D0A0C943D0A0C943D0AF4
:100070000C943D0A0C943D0A0C943D0A0C943D0AE4
:100080000C9475190C943D0A0C943D0A0C943D0A8D
:100090000C943D0A0C943D0A0C943D0A0C943D0AC4
:1000A0000C943D0A0C943D0A0C943D0A203000004B
:1000B0000000000000000000000000000000000040
:1000C0000000000000000000000000000000000030
:1000D000000000000000000000C0E0800000000000
:1000E000000000000000808040404044404080808C
:1000F0008090F0F4D0DEF2F4BF9D909FF0F070712C
:100100004828282C163F75B1518E11132B4B030331
:1001100003030101050102060C0D06240F0E580011
:100120000008000080000000033C43BCA0500020F9
:100130007420002000000000000000000080C0804B
:1001400000000000000000000000000000000000AF
:10015000010000000000000000000000000001009D
:10016000000000000000000000000000020000008D
:10017000000000000000000000000000000000007F
:1001800000000000004000000000000000004040AF
:10019000A0A0A0A0A0A0505050106080C04040403F
:1001A000404042C0804040A0A0A0A0A46A52456543
:1001B0006562323232B299594D2C2C96730B171757
:1001C0001212222321A1A1404020202010105028EB
:1001D0002C14A665B5DCE4FAFCFFF8F7F4F47474AB
:1001E000B4B4BABA5D2C287494142929535300006E
:1001F000000F102F2F2F2F37372B2B252A2A2513AF
:10020000141A080A04050222030102020202000075
:10021000000010400010000000000000000000007E
:100220000000000010381000000000000000000076
:10023000000000000000000000000000808080003E
:1002400000000000000000000000000000004A5A0A
:100250002428282828101C12129191D128080487DC
:100260008448704060A0E000000080C0F0F8305882
:1002700058B87CFCF46A6AD1A14346ACB952D72C79
:100280003E474283810100707C4F072476BFB2AAAB
:100290004854B59A3A5D2D562E170B050201804041
:1002A000A0D0E8F4FAFDFF9D0D0505011914824266
:1002B00063938E8380404040A0A0A0A0A0A1525292
:1002C00052522A2A2A2A2A36D6D65215150D00014C
:1002D0000102020202010101000000000000000012
:1002E00000000000000000000001000B3970000059
:1002F00000008080804040C00000000000E060609E
:10030000E000000000000080800400000000F81CF5
:100310000EA753A354E8B9FF5A3CB8B8582F563B20
:10032000972800480808280F872B17AE3C78AFBEE7
:10033000BCD8A9A8A96D9FD7D69A648A154A14413A
:100340000400021038910000801000080000925252
:1003500052F232CC23ACD7D7D7AF2CD30CF000025B
:100360000040400002000001030180C0400009215C
:1003700021119CFD7EF5E850E8F5FEFFD8BF302046
:100380004000408000400000000000010000F2D466
:10039000E2F8EDB8F0FFFF4CFFFFFF004011000056
:1003A00041000000000000000008000000002C08D0
:1003B0001F1F1F1F1F0707071F1F1F011C14151DCD
:1003C000011F1F03070F1F1F1E001C14151D011FF7
:1003D0001F1E1E1F1F1F1F011D14141C202840401C
:1003E000404040404000FFFFFFFF833BFB9396F6F9
:1003F000E6ECECECECCC0C6CECECECEC2C2CFEF22B
:10040000F2FE028822007FFFFFFFFFFCE10D7D4D21
:100410004D7D7D7D7DFDFDFCFFFFFFFFFFFFFFFFAD
:10042000FFFFFEF8E28820831FFF8F83808080809B
:10043000800080E0F8E0830F3FFFFF7F7FFF4F49A0
:10044000494F4F4FCFCF6E2862C8C248424802087A
:10045000031EFFFFFFFFFFFE380803020203000038
:1004600000000E1B3166C680D060311B0E00E0A379
:10047000E300013F3F3F3330303030181878EC8CC8
:1004800038F01858D8D8D8D8D8D8D8D8D8D8D8D8B4
:10049000D8D8D8D89838F0E000000080C0E07F7F3E
:1004A0007C610000E007FFFFFFFFFFFFFFF7F7F7AA
:1004B000F7F7F7F7C70600FFE0781EC7F1FCFEF874
:1004C000E08038FFFFFEE00FFF3F3FFFFFFFFFFD33
:1004D000FDFDFD7D7D7C7973610C7F7F7F7F030156
:1004E00001C1701F073FFF80818181818180C0C071
:1004F000C0C0C0C0C0E0606666607F404040F8FC9D
:10050000670100030300010101F1F9FDFDFD3D3C20
:100510003CFCFCF8F00000FCFCFCFCFC1C1C7030FB
:10052000B098D8D8D8D8D8D8D8D8D8D898B8307023
:1005300060C0800000C0F03898D8D8D89830FEFF4E
:10054000FF7F1F070301010181E3FFFFFFFFE7E7D3
:10055000FE38033F8FE3F8FEFFFFFFFFFFFF7F1F23
:100560000707070707C7FFFF7F7FFFFFFF3F0F0357
:1005700000E0F8FEFFFFFFFF3F0F071F7FFF407007
:100580007C7CFC808383838382828383808080E081
:1005900038F8E080808080828EB8E08080E13CFC8A
:1005A000FCF8710101E1F9FDFD3D1D1D9DBDBCBCC7
:1005B000B88001010101010767610131797960C0EB
:1005C000603098CCE673393D65E5FD01FF9E1C382F
:1005D000F0E0C00040404040404040404040FEFC11
:1005E000FEFFFFFFFFFEFCE4E6FF3F80FFFFFFFF93
:1005F000FFFFFFFF008822882200FEF2F2FEFFFFCD
:100600007F3F1FFFFFFFFFFFFF7F00FFFFFFFFFF99
:10061000FFFFFF0120882208E0FFFFFFFFFFC180EE
:1006200080C0E0C3C387840C0F003F7FFFFFFFFF44
:10063000FFFF0F00024842484F4F4F49494F3F0FBD
:100640000F0F07E3A7E707070F0E0E1C1C191B1F50
:100650001F1F0006067050700000000000004020C0
:10066000FFFFFF0707E7E7676767676767E7E70772
:1006700007FFFFE7E76767E7E707079F9F0707FFB2
:10068000FF7F7F7F7FFFFFE7E79F9F7F7FFFFF0762
:1006900007E7E7676767676767E7E70707FFFFFF42
:1006A000FFFFFF00007F7F6060606060607F7F0011
:1006B00000FFFF7F7F9E9E616180806767E0E007AB
:1006C00007F8F80000F9F96161E1E11818FFFF008F
:1006D000007F7F6060606060607F7F0000FFFFFFE1
:1006E000FFFFFFE6E686869E9EE6E66666FEFE66FF
:1006F000661F1F989861619E9EFFFF6060999986B2
:100700008619198080E7E77E7E87877878FFFFE685
:10071000E61E1E1E1EFEFE1E1E9E9EE6E6FFFFFF3E
:10072000FFFFFF87876767797967677E7E1F1F6690
:10073000666060616106060707FFFF9E9EE7E707A8
:10074000071E1E878779799E9E7979000079790145
:10075000019E9E98981F1F7E7E9F9F0101FFFFFFB5
:10076000FFFFFF1F1F000066667E7E1E1E181866B4
:10077000667E7EE6E6E6E69E9E8787616179797809
:10078000780606F9F97E7E999918180606F8F8F8A1
:10079000F881819F9F9E9E98989F9F7878FFFFFF8A
:1007A000FFFFFF60606060666660607E7E7E7E66E2
:1007B00066F8F899997F7FFFFF61619E9E0000FEB9
:1007C000FE0606F9F90606818106060000E1E167EA
:1007D00067E1E101010101E1E1E7E7FEFEFFFFFF63
:1007E000FFFFFF0000FEFE060606060606FEFE00F0
:1007F00000FFFF878786869F9F6060616100009F82
:100800009F1818878798989F9F606080806767E629
:10081000E607076060F8F81F1F79790707FFFFFFF9
:10082000FFFFFFE0E0E7E7E6E6E6E6E6E6E7E7E02B
:10083000E0FFFFE1E1FFFFE7E7F8F8FEFEFEFEE77D
:10084000E7E6E6F9F9FFFFFFFFE6E6E7E7F8F8FF7E
:10085000FFF8F8E6E6E1E1F8F8FEFEF8F8FFFFFF42
:100860006018000000000000000000000000000010
:10087000000000000000000000007F415D55577F30
:10088000416D6D517F4155555D7F416D6D417F05D6
:100890007D417D057F4155555D7F415D5D633E0036
:1008A0007F415D55497F117747711F0000000000AF
:1008B0000000000000000000000000000000000038
:1008C00000000000000000007F416D6D417F007F4F
:1008D0004175151D7F417F515555457F41777741C2
:1008E0007F007F415D55577F416D6D417F415F5076
:1008F000507F415F50507F4155555D7F415D5D6345
:100900003E007F415F685F417F416D6D417F417B6C
:1009100077417F415D5D637F416D6D417F000000E8
:100920000000007F416D6D417F417B77417F415DDC
:100930005D633E007F417D137D417F416D6D417F51
:10094000417B77417F117747711F007F417D137D88
:10095000417F416D6D417F417B77417F11774771C9
:100960001F007F415D5D417F057D417D057F4177B2
:1009700077417F4155555D7F416D6D517F51555593
:10098000457F7C18F8FCFCFE8E8F070707070707DA
:10099000070707070707070707F7F7F7F707070727
:1009A00007070787E0F87E3F7FFEF0C0000000FFEA
:1009B000FFFF03E3E3E37F7F3F1E00FFFFFFE7E767
:1009C000E7070707070700FFFFFFFF000000000021
:1009D0000000FFFFFF00FFFFFF0707C7C7C7C7C72C
:1009E000C7C70700FFFFFFFF00808080FFFFFFFFFA
:1009F000000707070707F7F7F7F7070707070707CE
:100A00000080E1E1818383C3C7E7EEEEFEFEFCFCDC
:100A1000FC78381000FFFFFF7F00000060787E1F29
:100A20000701081C3C38333F3F3C001F1F1F0001DB
:100A300003070F0E0C00000F0F0F00000000000056
:100A400000001C1F1F1F1F1C1C1C1C1C1C003F3FE8
:100A50003F003F3F3F3838397171717F7F7F000021
:100A60007F7F7F7F0003070707FFFFFF0000000075
:100A70000000FFFFFFFF0000000000000007070765
:100A80000707030303030301010100000000000046
:100A90000000000000000000000000000000000056
:100AA0000000000000000000000000000000000046
:100AB0000000000000000000000000000000000036
:100AC0000000000000000000000000000000000026
:100AD0000000000000000000000000000000000016
:100AE00000000000000103030000000000000707F1
:100AF000070700000000000019087F7F18187F7F9B
:100B0000007F7F6B6B63007F7F606060007F7F1B77
:100B10001B1F1F7F7F1B1B1F1F007F7F60606000EC
:100B20007F7F1B1B7F7F001F1F187F7F637F7F637B
:100B3000007F7F0C18307F7F007F7F1B1B03007FAF
:100B40007F63637F7F7F7F636363007F7F63637FF8
:100B50007F007F7F0C187F7F007F7F1B1B036F6FE1
:100B60006B7B7B007F7F1B1B030063771C1C776301
:100B7000000000000000007F7F63637F7F007F7FB5
:100B80001B1B03007F7F1B1B0300000000000000F5
:100B90007F7F63637F7F007F7F0C18307F7F000043
:100BA0000000000000000000000810DFEFCE8E0EF5
:100BB0000604047D7B393838301010BEBEDC9C1C26
:100BC0000C08082B2B1514141808087C7CB8B838AE
:100BD0001010102B1315080C040404F0F0F0F0F0C2
:100BE00060606016161A181C0C0C0CC0C080808047
:100BF0000000000707030303010101D0D0B03070EB
:100C00006060601E1E1E1E1E0C0C0CD4C8A8103086
:100C10002020203E3E1D1D1C080808EAEAD494143A
:100C20000C08083E3E1D1C1C180808DEBDBDCDCBBF
:100C3000E7E3E13D5E5E5969736646DEBDBDCDCB3F
:100C4000E7E3E13D5E5E5969716343DEBDBDCDCB37
:100C5000C7C3C13D5E5E5969716343DEBDBDCDCB87
:100C6000C7C3C13D5E5E5969716141DEBDBDCDCB7B
:100C7000C7E3E13D5E5E5969716141DEBDBDCDCB2B
:100C8000C7E3E13D5E5E5969736343DEBDBDCDCB15
:100C9000E7B3B13D5E5E5969736343DEBDBDCDCB45
:100CA000E773713D5E5E5969736747D8B8B2878E46
:100CB0009C78F00D0E2670381C0F07B878740E1C47
:100CC00038F0E00B0D2531190D06037CF0E01838E3
:100CD00078F0E0070A02121A0A0403F4807070F038
:100CE000E0E0C01D0B0B0808080301EE04E4E4E497
:100CF000C4C0803B10131313110100DCE86808889E
:100D000088E0C0170007070703030170A8A0242C80
:100D10002890E01F07030C0E0F0703E85852464CBB
:100D200058B0E00E0F17381C0E0703DBDB0DCDE6C5
:100D3000E6C4846D6D585933331110B7D70BCDE627
:100D4000E6C4846D6D5859333311105EAE12DCEC7D
:100D5000ECC8881D1D1C0D0B0B0504F0E000E040E5
:100D6000400000090808080404000020D020E0C06A
:100D7000A040800205020301020100C88808881013
:100D800010000007030003010100005CDC1CD8E830
:100D9000E8D0903D3A241D1B1B0908DBDB0DCDE696
:100DA000E6C4847675685933331110081088CCEE88
:100DB000EF8EE1DFDF08193B7B38437D7D90D8DC87
:100DC000DE9CC3BFBE040917351467752B9098BC11
:100DD0007C700E7E7C0409132D2C2B2D2B60F0F0E3
:100DE000F008F8F8F80B1A16183935393580C0C0F4
:100DF000C020E0E0C003070707080F0F07A0B0D02E
:100E000030385838580D1E1E1E213F3F3F2090C8D5
:100E1000B434D4B4D409193D3E0E707E3E90C8F46B
:100E2000D694F3D7EA040D1D3D1C617E3E00D8FC2C
:100E3000FCFCD880C0000D1F1F1F0D000100B07802
:100E40007878B080C000050F0F0F0500010060F03A
:100E5000F0F06080C0000102020201000100C0E069
:100E6000E0E0C080C0000001010100000100C0E01E
:100E7000E0E0C080C000010303030100010080C066
:100E8000C0C08080C000010303030100010040A036
:100E9000A0A04080C0000307070703000100D0782E
:100EA0007878D080C000060F0F0F060001B0B89808
:100EB000CC00C6EFEF060E0C1900317B7BA0B09082
:100EC000D800CCDEDE0206040D00193B3BA0A0904A
:100ED000D000D8BCBC02020405000D1B1BC0C060C2
:100EE000A000B078780202060500050B0BC0C0C058
:100EF000C000C0E0E00101010100010303A0A03037
:100F0000D000D068680101030200060F0FA0A09076
:100F1000D000D8ECEC02020405000D1E1EA0B0901B
:100F2000D800CCEEEE0206040D00193D3DC2C2020F
:100F3000E2E7E702C82121202373732009C4C40417
:100F4000E4EEEE04D0111110133B3B1005C8C808A5
:100F5000E8DCDC08A00909080B1B1B0801A0A02085
:100F6000A07070200001010003030300008080A036
:100F7000A0C0C080000000020201010000C0C0004B
:100F8000E0606000000202020207070200C8C80811
:100F9000E8ECEC08C00909080B1D1D0802C4C404D4
:100FA000E4EEEE04D0111110133B3B1005100800C5
:100FB0000000000000000000000000000000000031
:100FC000000008081C001C081C081C081C00080461
:100FD0000400000808001C1C3E041E1C3E1C3E1C95
:100FE0003E183E183E1C3E1C3E0C1E040E00041013
:100FF0001000000404001C1C3E081C1C3E1C3E1C6F
:101000003E143E143E1C3E1C3E1C3E081C000808BC
:101010000800001414001C1C3E103C1C3E1C3E1C0E
:101020003E0C3E0C3E1C3E1C3E183C10380010048A
:101030000400001010001C1C3E001C1C3E1C3E1C2A
:101040003E1C3E1C3E1C3E1C3E1C3E081C0008086C
:101050001C143E227741E341E341E32277143E082A
:101060001C143E227741E341E341E32277143E140E
:101070003E227741E341E341E32277143E081C140A
:101080003E227741E341E341E32277143E081C22EC
:101090007741E341E341E32277143E081C143E22EA
:1010A0007741E341E341E32277143E081C143E41BB
:1010B000E341E341E32277143E081C143E227741CA
:1010C000E341E341E32277143E081C143E227741BA
:1010D000E341E32277143E081C143E227741E341AA
:1010E000E341E32277143E081C143E227741E3419A
:1010F000E32277143E081C143E227741E341E3418A
:10110000E32277143E081C143E227741E341E32298
:1011100077143E081C143E227741E341E341E32269
:1011200077143E083C143E227741E341E341E31447
:101130003E081C143E227741E341E341E322771449
:101140003E081C143E227741E341E34163227701CC
:1011500002041932320301020001050003071010D6
:1011600088DCD8FC3CFE5CFE6CFEECFEA0FCA8FC1F
:10117000E8FCB0F8D0F8C0F090F890F80090103883
:10118000040F060F0F1F0F1F0F1F0A1F040F0E1F44
:101190000E1F050F050F0005040F040F0004040EB9
:1011A00084CEC4EE0EDFDEFFFEFFE2FF28FC2CFE45
:1011B000ECFE28FCC8FCC0E888DC88DC0088081C41
:1011C0001039113F3C7F3E7F3E7F267F093F1D3F08
:1011D0001D3F091F091F0009081D081D0008081CE4
:1011E00082C7C6EF0FDFDFFFFFFFF1FF24FE2EFFF8
:1011F000EEFF24FEC4EEC0E484CE84CE0084040E50
:101200002071317B78FD7DFF7FFF47FF123F3A7FE2
:101210003B7F123F113B0113103910390010103879
:1012200084CEC4FE1EFFBEFFBEFFB2FF48FC5CFEC4
:10123000DCFE48FCC8FC80C888DC88DC0088081C10
:101240001039113B387D3D7F3F7F237F0A3F1A3F96
:101250001B3F0A1F091F010B081D081D0008081C61
:1012600048FCD8FC3CFEBCFEBCFED4FE48FC5CFE48
:10127000DCFE68FCE8FCC0E848FC48FC0048081CB0
:10128000040E060F0F1F0E1F0D1F0D1F010F050F60
:10129000050F030702070003020702070002020707
:1012A0000508007F1F7F117F1F7F1F7F003F123FB8
:1012B0001F3F1F3F103F003F1D3F153F173F173F88
:1012C000003F113F153F1F3F1F3F003F073F043FB7
:1012D0001F3F1F3F003F173F153F1D3F1D3F003F72
:1012E0001F3F153F1D3F1D3F003F013F013F1F3F77
:1012F0001F3F003F1F3F153F1F3F1F3F003F073F5E
:10130000053F1F3F1F3F1F1F1F1F1F1F111F1F1FB5
:10131000151F0E1F1B1F0E1F151F1D124F128112AE
:10132000A412CD12CD12A41281124F121D12000070
:10133000000200090F0000030401000C000000007F
:1013400000000000000000000000000000080B008A
:10135000020202010009040000010202000005244B
:1013600000100105240101010424020605240600E1
:10137000010705810310004009040100020A000072
:101380000007050202400000070583024000000438
:1013900003090412010002EF0201404123368000DC
:1013A000010102030141726475696E6F204C4C4368
:1013B0000041726475626F7900000000002400270C
:1013C000002A002D00300004080201104080401067
:1013D000204080408008020401804020100201105B
:1013E00080102040402000000000250028002B0035
:1013F0002E00310004040404040304050202020266
:10140000040302020202060606060606040402029D
:10141000020404331197111811E7105D138E16B5ED
:10142000108613AC10A310002D1A11241FBECFEF8D
:10143000DAE0DEBFCDBF11E0A0E0B1E0ECE7FAE317
:1014400002C005900D92A437B107D9F726E0A4E7B2
:10145000B1E001C01D92A73EB207E1F71AE0C5E175
:10146000DAE004C02197FE010E94361DC431D10785
:10147000C9F70E94901A0C943C1D0C940000CF9365
:10148000DF93ADEDB6E0CD91DC9111978881E3EE6D
:10149000F6E09081892B8883CD91DC91119788812A
:1014A0009081892B8883C091DF06D091E0069881D6
:1014B0008091E4068095892388830D90BC91A02DAE
:1014C0009C918081809589238C93DF91CF910895A1
:1014D0009C0180389105D4F460347105BCF4962FDA
:1014E00096959695969580E8989FF0011124E20FC5
:1014F000F31FEA53FD4F6770772721E030E001C00A
:10150000220F6A95EAF78389822B838B08954FB166
:101510008CB123B190E08095909533E095958795B7
:101520003A95E1F7887030E020953095359527950C
:10153000359527952470822B942F9095907F892B39
:101540000895CF93C82F0E94870A8091E6068C23C6
:1015500029F48091E506C82381E009F480E0CF9169
:1015600008955F926F927F928F929F92AF92BF92F7
:10157000CF92DF92EF92FF920F931F93CF93DF935F
:101580005901502EEC2DC02F000FDD0B6E01C80E3F
:10159000D91E1C141D040CF093C0803891050CF06A
:1015A0008FC09B012E0D311DE7FC3A9512161306D4
:1015B0000CF086C0603471050CF082C041155105F5
:1015C00009F47EC09B0177FF04C022273327261B26
:1015D000370B022F0770902E3B0177FF03C017E0F7
:1015E000610E711C33E0759467943A95E1F7F62D1E
:1015F00077FF07C0992029F0FFEFF60D28E02919A1
:10160000922E66277727681B790B97FD02C070E042
:1016100060E030E8381B20E8C216D1040CF4352D08
:10162000361BCF2E0F2E000CDD088C2C8094FF3F34
:101630000CF0812C2E2D277827FF03C02150286F16
:101640002F5FFF24F39412160CF0F12C2E2DE7FCE3
:10165000295F259525952595F20ECF0CD11C09E023
:10166000C016D1041CF028E0F22EFF1AEF2CE81867
:10167000F80D2F2F10E8210330011124860D971D3E
:10168000860F971F082D152D100360011124860168
:10169000060F171F400F511FA114B10419F0D501F7
:1016A000A00FB11FA92C092C000CBB08E33009F4D2
:1016B0003BC1B0F4E13009F487C0E23009F4D4C092
:1016C000DF91CF911F910F91FF90EF90DF90CF901E
:1016D000BF90AF909F908F907F906F905F90089594
:1016E000EA3FD9F1EB3F61F7BE0160587109481B31
:1016F000590BEF0E2E1521F3DC01EA2FE81BE3173F
:1017000008F004C1FD01E40FF51FE491F0E00A2C9C
:1017100002C0EE0FFF1F0A94E2F727FD0BC0C09135
:10172000C402D091C502CA0FDB1F18810E2F00958D
:1017300010231883992079F027306CF40091C402AB
:101740001091C502ED01C058DF4FC00FD11FF095B9
:10175000E881EF23E8831196D0CFBE01605871096C
:10176000481B590BEF0E2E1509F4AACFDC01EA2F06
:10177000E81BE31708F0C4C0FD01E40FF51FE49176
:10178000F0E00A2C02C0EE0FFF1F0A94E2F727FDDB
:1017900009C0C091C402D091C502CA0FDB1F1881D5
:1017A0001E2B1883992071F0273064F40091C40235
:1017B0001091C502ED01C058DF4FC00FD11FE88165
:1017C000EF2BE8831196D3CFBE01605871096D01EC
:1017D000C81AD90A481B590B8E2C8F0E281509F4EC
:1017E0006FCFEC01EC2FE81BE31708F095C0FE016A
:1017F000EC0DFD1DA491B0E00A2C02C0AA0FBB1F86
:101800000A94E2F7A095B095FE01E40FF51FE4916C
:10181000F0E03F010A2C02C0660C771C0A94E2F744
:1018200027FD0BC00091C4021091C5020C0F1D1FB3
:10183000F801F080FA22F628F082992099F02730FA
:101840008CF40091C4021091C5027E01F0E8EF0E05
:10185000F11C0E0D1F1DF801A081EA2FEB23E729D3
:10186000D801EC932196BECFAFEFB0E00A2C02C0B6
:10187000AA0FBB1F0A94E2F7A095B095DB2EBE011C
:1018800060587109481B590BCE2CCF0E2C1509F44A
:1018900017CF7C01EE2DE81BE31760F5F701E40F8D
:1018A000F51FE491F0E00A2C02C0EE0FFF1F0A942E
:1018B000E2F727FD0AC0C091C402D091C502CE0D47
:1018C000DF1D18811A231E2B1883992079F02730E9
:1018D0006CF4C091C402D091C502870100581F4F1B
:1018E000C00FD11FE881ED21EF2BE883EFEFEE1A57
:1018F000FE0AD0CF2F5F80589F4F460F571FC6CF8D
:101900002F5F80589F4F460F571F2DCF2F5F805856
:101910009F4F460F571FEECE2F5F80589F4FC60E2A
:10192000D71E460F571F5ACFC090C402D090C50291
:10193000632F70E0400F511FD601A80FB91F8058C8
:101940009F4FC80ED91E80E890E0861B970B8E0132
:10195000061B170BB801660F771F01E010E0092C7A
:1019600001C0000F0A94EAF72E2D1F2FF12CD0E0B2
:10197000C0E0B12CA12C832EFA01CF93DF93CC2DA4
:10198000DD2DA590C591992061F0A09EA02CB12CD1
:10199000C09FC02D17302CF4F8801094F120FB2844
:1019A000F992FC9011231AF0C095FC22FA28FD92BE
:1019B0003A9539F72A9551F0382D13951124E60FF1
:1019C000F11DA80FB11DC80FD11DDBCFDF91CF9145
:1019D000112476CECF92EF920F93CF93DF93DC0159
:1019E000FA0104913196E4904E5F5F4F2223D1F0CB
:1019F000C1E0D0E09E2D977011F4D0E0C0E0EE2D54
:101A0000E695E695E695EC0FFD2FF11D0E9FE001A2
:101A10000F9FD00D11242C9FC0012D9F900D1124DC
:101A2000480F591F8AEFC82E30E020E0CD010E94F8
:101A3000B10ADF91CF910F91EF90CF900895CF929F
:101A4000EF920F93FA0104913196E4904E5F5F4F4D
:101A50002223F9F0A1E0B0E03E2D377011F4B0E0A0
:101A6000A0E0EE2DE695E695E695EA0FFB2FF11D39
:101A70000E9FD0010F9FB00D112430E0220F331FB5
:101A8000A29FF001A39FF00DB29FF00D11244E0F05
:101A90005F1F23E0C22E30E020E00E94B10A0F91C8
:101AA000EF90CF900895CF93EAE6F2E070E0DA018C
:101AB00091E042E050E09683808771836083B38336
:101AC000A283558344833B966C5E7F4FA20FB31F66
:101AD000C2E0EB38FC0779F7CF910895E1E0F0E040
:101AE0000E94830D319728F068517C4F8F4F9F4F94
:101AF000F9CFAB01FC010E94830D641775078E07B7
:101B00009F07C8F30895A5EFB1E02FB7F8947D9132
:101B10008D919C9166B52FBFA89B05C06F3F18F4AF
:101B20007F5F8F4F9F4F22E0660F771F881F991F9F
:101B30002A95D1F70895FC0180911902882311F1AB
:101B40003FB7F89482E08093E9002091F200822F61
:101B500090E01816190614F481E090E0882339F01B
:101B6000289844E6409318024091F10040832223D4
:101B700039F02091F200211103C02BE62093E800F8
:101B80003FBF08958FEF9FEF08952FB7F89483E03C
:101B90008093E9009091E800892F807295FF04C03E
:101BA0009091F20080E4891B2FBF0895809110026C
:101BB00081110DC082E080930C0284E080930D02BD
:101BC00010920F0210920E0281E0809310028CE0BE
:101BD00092E0089540910002509101022091FE018F
:101BE0003091FF0142175307B4F49091E8009570CB
:101BF000E1F39091E80092FD19C08093F10080918B
:101C000000029091010201968F739927892B19F494
:101C10008EEF8093E800809100029091010201967E
:101C2000909301028093000281E0089580E008957E
:101C3000EF92FF920F931F93CF93DF93F82E192FFC
:101C4000E62E042F81E0860F880F0E94EA0D83E0C4
:101C50000E94EA0DCF2DD12FEC0EFD2EF11CCE15DA
:101C6000DF05B9F007FF13C0FE0184910E94EA0D61
:101C7000182F80E00E94EA0D812321968111EFCF79
:101C8000DF91CF911F910F91FF90EF900895888180
:101C9000EDCF81E0F5CFDF92EF92FF920F931F938C
:101CA000CF93DF93D82E8A01EB017B01E40EF51E62
:101CB000CE15DF0559F0D7FE12C0FE0184910E94B7
:101CC000EA0D21968111F4CF0FEF1FEFC801DF91CC
:101CD000CF911F910F91FF90EF90DF900895888131
:101CE000EECF0F931F93CF93DF931F92CDB7DEB745
:101CF00082E0898342E450E06DE473E180E80E9471
:101D00004B0E0E94D60DDC0112960D911C9101150F
:101D1000110589F0D801ED91FC910280F381E02D4D
:101D2000BE016F5F7F4FC801099597FD04C0F801A0
:101D300000851185ECCF89810F90DF91CF911F91A4
:101D40000F910895615030F02091F100FC01208343
:101D50000196F8CF289884E6809318020895AF92F0
:101D6000BF92CF92DF92EF92FF920F931F93CF9388
:101D7000DF936C017B018B01040F151FEB015E01EA
:101D8000AE18BF08C017D10759F06991D601ED917F
:101D9000FC910190F081E02DC6010995892B79F71E
:101DA000C501DF91CF911F910F91FF90EF90DF90D0
:101DB000CF90BF90AF9008958F929F92AF92BF92B5
:101DC000CF92DF92EF92FF920F931F93CF93DF9307
:101DD0006C017B018A0180914E01882309F458C06F
:101DE00080911902882309F453C08091040280FF76
:101DF00005C08091E00082608093E000E801B12C92
:101E00008AEFA82E93E0892E2AE3922E209711F4D0
:101E1000BB20B9F10E94C50D811106C0AA94AA2069
:101E2000B9F10E946E0DF2CF8C171D0611F00CF067
:101E30008C2F9FB7F8948092E9002091E80025FD4F
:101E400002C09FBFE3CF282F30E0C21BD30BF701A6
:101E5000815020F041914093F100FACFE20EF31E41
:101E6000BB2021F09092E800B12CEBCF8091E800EC
:101E700085FDE7CF9092E800BB24B394209709F347
:101E8000F3CF5D9884E680930302101611063CF0B0
:101E900081E090E0F6019383828310E000E0C801C6
:101EA000DF91CF911F910F91FF90EF90DF90CF9036
:101EB000BF90AF909F908F900895CF93DF931F9224
:101EC000CDB7DEB76983DC01ED91FC910280F3812F
:101ED000E02D41E050E0BE016F5F7F4F09950F900C
:101EE000DF91CF91089583E08093E9008091F20023
:101EF000882319F08AE38093E80008950E94C50DB5
:101F000090E00895CF93DF931F92CDB7DEB7FC0129
:101F10008485958597FD08C02FEF3FEF358724878F
:101F20000F90DF91CF910895CE0101960E949B0DF5
:101F3000019719F4898190E0F3CF8FEF9FEFF0CFF5
:101F40000F931F93CF93DF931F92CDB7DEB78C0112
:101F5000FC018485958597FF0BC0CE0101960E94F8
:101F60009B0D019771F4898190E0F8019587848732
:101F7000F801848595850F90DF91CF911F910F9186
:101F800008958FEF9FEFF1CFFC018485958597FD34
:101F90000BC09FB7F89482E08093E9008091F20033
:101FA0009FBF90E0019608959FB7F89482E08093D8
:101FB000E9008091F2009FBF90E00895282F30E063
:101FC000F901E25DFC4E9491F901E953FC4E8491D4
:101FD0002C503C4EF9012491222309F430C099235E
:101FE000E9F091509F30D0F4E92FF0E0E650F04F47
:101FF0000C94361D28102C100910201024100E10DF
:102000000E100E102F10351039103D1043100E1009
:102010004710909180009F7790938000E22FF0E02E
:10202000EE0FFF1FEA51FC4EA591B4919FB7F894B3
:10203000EC91611132C080958E238C939FBF0895DF
:10204000909180009F7DE8CF90918000977FE4CFB2
:1020500094B59F7794BDE2CF94B59F7DFBCF9091CF
:1020600090009F7790939000D9CF909190009F7DA2
:10207000F9CF90919000977FF5CF9091C0009F7716
:102080009093C000CBCF9091C0009F7DF9CF9091ED
:10209000C200977F9093C200C1CF8E2BCECFCF933B
:1020A000DF9390E0FC01E953FC4E24918C509C4E50
:1020B000FC0184918823C9F090E0880F991FFC01EE
:1020C000E754FC4EA591B491FC01EA51FC4EC59138
:1020D000D49161110DC09FB7F8948C912095822303
:1020E0008C938881282328839FBFDF91CF91089507
:1020F000623051F49FB7F8943C91822F80958323EE
:102100008C93E8812E2BEFCF8FB7F894EC912E2B88
:102110002C938FBFEACFAB01FC010E94830D41508D
:102120005109E109F10928F068517C4F8F4F9F4F09
:10213000F6CFAB01FC010E94830D641775078E0773
:102140009F07C8F308958CE00E94A10A882319F024
:1021500081E080930B0208958CE00E94A10A8823FD
:1021600019F087E080930B02089588E090E0909347
:10217000DD018093DC0188E190E09093DF018093A2
:10218000DE0182E090E09093E8018093E70181E036
:102190008093E2018093E1019CE39093E50110922A
:1021A000E3018093E4011092EA011092EF018FEFB6
:1021B00080938B018091F0018F5F8093F0018330D9
:1021C00020F084E080930B02089587E0FBCF10920B
:1021D000F0011092EB011092EC011092ED011092BF
:1021E000EE01EAE6F2E0178221E0228B82E0858FA1
:1021F00083E080A794E093AB95E096AF96E0909350
:10220000B30237E03093BE02ECE8F1E013821586AA
:10221000178A11A213A615AA17AE1092D501ECEDDC
:10222000F1E0148282878587208790930B020895BE
:1022300020E04EE556E070E060E080E290E00E9431
:10224000EA0C21E04EE556E060E270E080E290E0CA
:102250000E94EA0C8CE00E94A10A882319F081E018
:1022600080930B0208950F931F93CF93DF93C09138
:102270008801CF5FC093880110E000E0D0E02D2FEF
:102280004CED53E06AE070E0C8010E94EA0CDF5FA9
:10229000005E1F4FD43099F720E04EEA53E062E32E
:1022A00070E08BE290E00E94EA0CC53B28F01092AF
:1022B000880181E080930B02DF91CF911F910F91F4
:1022C000089580918A018F5F80938A01873040F062
:1022D000809189018F5F8093890186E080938A01D4
:1022E00080918901843018F083E0809389010895FA
:1022F0000F931F93CF9310E000E0C0E02C2F4CEA27
:1023000050E060E170E0C8010E94EA0CCF5F005E1F
:102310001F4FC43099F720E042E859E068E070E0D0
:1023200082E090E0CF911F910F910C94EA0CEF9214
:10233000FF920F931F93CF930E94781189E0E82EAC
:10234000F12C02E010E02EEF200FC09142016091CD
:102350008A016950770BC017110609F445C048EF90
:102360005AE0C7010E94EA0C0F5F1F4F8CE1E80E94
:10237000F11C0630110539F780E40E94A10A882378
:1023800039F0C53028F4CF5FC09342011092890123
:1023900080E20E94A10A882349F0809142018330A3
:1023A00028F0815080934201109289018CE00E94B4
:1023B000A10A882341F01092890110928A0180912C
:1023C000420180930B028091CC029091CD0266E095
:1023D00070E00E94221D892B61F4CF911F910F9113
:1023E000FF90EF900C94611180918901680F711D2D
:1023F000B6CFCF911F910F91FF90EF900895EAE62D
:10240000F2E080E09681890F3B9692E0E23CF9078A
:10241000C9F7811105C08091EF018F5F8093EF01B3
:1024200008958091EF0190918B01891721F080939D
:102430008B0181E0089580E008950E9411128823A5
:1024400041F020EF3FEF40EF5FEF60E685E00E9454
:10245000530DA091DE01B091DF014091DC0150915C
:10246000DD01485E5F4FEAE6F2E06BE872E0228150
:102470003381808191812A173B076CF448175907F3
:1024800054F42F5F3F4F338322833B966E177F07B1
:1024900071F70C94FF11039791838083F6CF0E940C
:1024A0001112882341F020E130E040E450E060E682
:1024B00085E00E94530DA091DE01B091DF014091B3
:1024C000DC015091DD01485E5F4FEAE6F2E06BE827
:1024D00072E02281338180819181A217B3076CF46D
:1024E0004817590754F421503109338322833B960E
:1024F0006E177F0771F70C94FF1103979183808308
:10250000F6CF0E941112882341F028E030E040E429
:1025100050E060E48EE00E94530DEAE6F2E0828132
:1025200093818831910554F00197938382833B9680
:1025300082E0EB38F80799F70C94FF1180819181C4
:10254000039791838083F3CF0E941112882341F077
:1025500030E020E040E250E060E88BE00E94530D64
:1025600080916A0290916B02019790936B02809325
:102570006A0280917502909176020197909376029B
:1025800080937502809180029091810201979093CF
:102590008102809380020C94FF110E941112882303
:1025A00041F030E020E04CE050E060E880E00E9444
:1025B000530D80916A0290916B02019790936B0288
:1025C00080936A02809175029091760201979093B0
:1025D000760280937502809180029091810201972A
:1025E00090938102809380020C94FF119F92AF928E
:1025F000BF92CF92DF92EF92FF920F931F93CF93F0
:10260000DF93CCE2D1E080E0E82E81E0F82E06E115
:1026100011E092E4C92E91E0D92E2FE7922E33E0FB
:10262000A32EB12C8881815009F441C0888369812F
:1026300070E0888190E00E94680A8091CC0280FD61
:102640000CC0F80180818150A1F18083F801618183
:1026500070E0808190E00E94680A8091CC029091A5
:10266000CD02B5010E94221D892B61F4F701808102
:10267000815009F18083F701618170E0808190E0F1
:102680000E94680A2296F2E0EF0EF11C0E5F1F4FC7
:10269000CC16DD0639F6DF91CF911F910F91FF9097
:1026A000EF90DF90CF90BF90AF909F900895988269
:1026B000BECF9082CBCF9082DECF0E94F61220E078
:1026C00042E859E068E070E082E090E00E94EA0CA5
:1026D00020E040E658E060E270E080E190E00E9497
:1026E000EA0C8CE00E94A10A882319F081E0809313
:1026F0000B02089508958EBD00000DB407FEFDCFB6
:102700008EB50895089590E080E008958F929F928D
:10271000AF92BF92CF92DF92EF92FF920F931F93EF
:10272000CF93DF93CDB7DEB72A970FB6F894DEBF0D
:102730000FBECDBF0E94870A86FF10C08091E301C3
:1027400081110CC08091DC019091DD0180379105F1
:102750002CF401969093DD018093DC010E94870A9E
:1027600085FF10C08091E30181110CC08091DC01D4
:102770009091DD01181619062CF401979093DD0154
:102780008093DC010E94870A87FF2EC08091E301BD
:1027900081112AC08091DE019091DF018B3F2FEFE4
:1027A00092072CF001979093DF018093DE018091D6
:1027B000CC029091CD0269E070E00E94221D892B2D
:1027C00049F48091E7019091E80101979093E80125
:1027D0008093E7018091E7019091E80197FF04C0A1
:1027E0001092E8011092E7010E94870A84FF2FC02F
:1027F0008091E30181112BC08091DE019091DF0176
:10280000873391052CF401969093DF018093DE01CC
:102810008091CC029091CD0269E070E00E94221D6F
:10282000892B49F48091E7019091E80101969093FA
:10283000E8018093E7018091E7019091E801059715
:1028400034F084E090E09093E8018093E70184E025
:102850000E94A10A882309F449C08091E3018111F3
:1028600045C02091EA01E091E0014AE0249FD001B7
:102870001124A457BE4F1496EC9314978E2F90E01A
:10288000FC01E15BFE4E4591549112964C931297D8
:10289000FC01EE5AFE4E4591549119964C931997AE
:1028A000FC01EB5AFE4E4591549118965C934E9361
:1028B0001797FC01E55AFE4E8591949116968C93DC
:1028C000169715961C92159781E013968C93139783
:1028D0008091DC018C939091DE019C5F11969C931A
:1028E0002F5F283008F092C02093EA0188E00E9410
:1028F000A10A882361F08091E301811108C08091D1
:10290000E0018F5F833008F084C08093E0010E9473
:10291000870A87FD2AC00E94870A84FD26C080910D
:10292000E301811126C08091CC029091CD026CE030
:1029300070E00E94221D892B29F58091E70190917A
:10294000E801833091052CF001979093E801809382
:10295000E7018091E7019091E8018230910594F4BC
:1029600001969093E8018093E7018091E301882329
:1029700049F08091E7019091E80101969093E80178
:102980008093E7012091CC023091CD028091E20149
:102990008823C9F0C90163E070E00E94221D892BE1
:1029A00031F48091E10191E089278093E1018091E8
:1029B000E50181508093E501811105C01092E2018B
:1029C00081E08093E101C90166E070E00E94221D70
:1029D000892B61F5EAE6F2E08085982F9695969529
:1029E00091878370828787818F5F8830A8F487837F
:1029F00080819181803D9F4F0CF41682828193816A
:102A0000803D4FEF940754F416820BC01092EA01F8
:102A10006DCF1092E0017BCF1782EACF813791050D
:102A20009CF73B9652E0E23CF507B1F65CE8E52EF8
:102A300051E0F52E8701B90161707727F801838194
:102A4000882359F1448195818185413009F0E4C0A2
:102A50006115710559F49F5F9583883209F0D1C0E3
:102A6000478150854E5F5F4F50874783F80145810E
:102A70009681941708F415828150F801818790811E
:102A8000882329F09F3718F48281811102C0F80150
:102A90001382F8018781980F9083065F1F4FF1E042
:102AA0000C3D1F0759F6E091EF0120FD15C0809104
:102AB000F0018150990B45E0489F9001499F300DEE
:102AC0001124E20FF32FF11DEE0FFF1FE65EFC4E07
:102AD00085919491FC0109958091EF01853018F062
:102AE00086E080930B020E94F6122AE6C22E22E0B4
:102AF000D22E32ECA32E32E0B32EF601868188234B
:102B0000F1F02185220F220F220F8781280F628189
:102B100073814BEA5DE0808191810E94EA0CF601AD
:102B20002285220F220F220F8781280F6281738155
:102B30008081918149EA5BE008960E94EA0CFBE003
:102B4000CF0ED11CAC14BD04C1F6F70183818823DC
:102B500091F0E091E001F0E0E85AFE4E8591949109
:102B6000F7012581280F618170E080814DEA5FE0E7
:102B700090E00E941F0DFAE0EF0EF11C0E151F05EC
:102B800021F78091E101882371F06091DE0170915D
:102B9000DF012091E7014EE551E18091DC01909148
:102BA000DD010E941F0D8091CC029091CD0264E165
:102BB00070E00E94221D892B51F48091E601823041
:102BC00030F48091E40191E089278093E4018091C1
:102BD000E40110E005E0811125C010E08091E901D9
:102BE000181780F528E0129FC00111242BE040EA5D
:102BF00052E170E060E085599F4F0E941F0D1F5FFA
:102C0000EDCF833209F42CCF8E3109F02FCF4781DD
:102C100050854F5F5F4F28CF423009F027CF9F5F2D
:102C2000958324CF8091E6011817B8F62AE040EA90
:102C300052E170E060E0109FC00111240E941F0D5E
:102C40001F5FF0CF6091EB017091EC018091ED017D
:102C50009091EE012AE0AE014F5F5F4F7A010E9432
:102C6000CB1CF70101900020E9F73197EE19FF091D
:102C7000AE2E09E00E1B10E0802E002E000C9908ED
:102C800095E0D92E181519043CF155E00502800194
:102C90001124075D1F4FD12C0A2C000CBB0885E0C6
:102CA000C82E8D2D90E08A159B052CF58E0D9F1D4D
:102CB000FC0120812133ECF020532A30D0F440EA8B
:102CC00052E170E060E0C801DC9C800D911D112490
:102CD0000E941F0DD394E5CF1D9DC001112420E05B
:102CE00040EA52E170E060E089960E941F0D1F5F8C
:102CF000C9CF20E0E4CF2A960FB6F894DEBF0FBE0E
:102D0000CDBFDF91CF911F910F91FF90EF90DF909A
:102D1000CF90BF90AF909F908F9008950F931F9387
:102D2000CF93DF930E947811C0918A01D0E0BE0159
:102D30006650710924E048EF5AE084E290E00E9476
:102D4000EA0C29970091890110E02091CA0281E0E4
:102D500090E0821B9109809FB001819F700D909F30
:102D6000700D11246C0F7D1F25E048EF5AE089E3B8
:102D700090E00E94EA0C8091CA02809FB001819F7E
:102D8000700D11246C0F7D1F26E048EF5AE08EE491
:102D900090E00E94EA0C80E20E94A10A882361F080
:102DA00060E085E00E944F1060E08DE00E944F10CF
:102DB0001092CA021092890180E40E94A10A88231D
:102DC00069F061E085E00E944F1061E08DE00E94B3
:102DD0004F1081E08093CA02109289018CE00E941A
:102DE000A10A882369F01092890110928A016091EA
:102DF000CA0282E090E00E94141D81E080930B02E1
:102E00008091CC029091CD0266E070E00E94221D7C
:102E1000892B31F4DF91CF911F910F910C946111A7
:102E2000DF91CF911F910F9108951F920F920FB6CE
:102E30000F9211248F939F938091E1009091E10074
:102E4000937F9093E10083FF0FC01092E90091E01F
:102E50009093EB001092EC0092E39093ED001092AF
:102E6000190298E09093F00082FF22C093E09093C3
:102E7000E9009091F200992319F09AE39093E80009
:102E800090910302992341F0909103029150909305
:102E90000302911101C05D9A90911802992341F0AB
:102EA00090911802915090931802911101C0289AA4
:102EB00084FF18C08091E2008E7E81608093E200E2
:102EC0008091E1008F7E8093E100809104028E7EEC
:102ED0008061809304029F918F910F900FBE0F909D
:102EE0001F90189580FFF7CF8091E2008E7E806161
:102EF0008093E2008091E1008E7E8093E1008091DA
:102F000004028E7E8160E5CF1F920F920FB60F9262
:102F10001124CF92DF92EF92FF920F931F932F9382
:102F20003F934F935F936F937F938F939F93AF9351
:102F3000BF93EF93FF93CF93DF93CDB7DEB76C973B
:102F4000DEBFCDBF1092E9008091E80083FF25C06D
:102F500068E0CE0145960E94A20E82EF8093E800C1
:102F60008D8987FF39C09091E80090FFFCCF982FA2
:102F7000907609F034C19E894F89588D2F89F88C3D
:102F8000911131C0803861F5809105028093F10084
:102F90001092F1008EEF8093E8006C960FB6F894D3
:102FA000DEBF0FBECDBFDF91CF91FF91EF91BF91FB
:102FB000AF919F918F917F916F915F914F913F91D1
:102FC0002F911F910F91FF90EF90DF90CF900F9076
:102FD0000FBE0F901F9018959EEF9093E800C7CFFB
:102FE0001092F100D5CF913059F48111D3CF4130F7
:102FF000510581F6809105028D7F80930502CACF2D
:10300000933049F48111C6CF4130510519F68091B2
:1030100005028260F2CF953041F48091E80080FF94
:10302000FCCF20682093E300B5CF963009F0A9C00B
:103030000B8D1C8D22E01092E9001092010210927B
:103040000002F2122EC01092FF011092FE010E94A7
:10305000710E1F8299E09983FA8291E09E8390EA33
:1030600098879AEF99872091000230910102275F9B
:103070003F4F3C832B838D831092E9001092010215
:10308000109200021093FF010093FE0149E050E00E
:10309000BE016F5F7F4F80E00E944B0E0E94710E59
:1030A00079CF1093FF010093FE010E94D60DDC0141
:1030B00012960D911C910115110509F410C1D8014A
:1030C000ED91FC910480F581E02DBE016B5E7F4F98
:1030D000C8010995009709F0FDC0F8010085118528
:1030E000EACFF3E0FF120EC08F89882309F440C0B5
:1030F000823061F440E867E081EB93E10E94180EB2
:10310000811148CF81E28093EB0047CF813029F4D1
:1031100040E86BE085EA93E1F1CF833099F70E94B4
:10312000D60DDC011296ED90FC908E010F5F1F4FC3
:103130006801E114F10479F0D701ED91FC9106806A
:10314000F781E02DB801C7010995080F111DF7019E
:10315000E084F184EECFD8011C92F60101900020AA
:10316000E9F73197BF016C197D0940E0C601C6CF70
:103170006FE873E1FB01449150E080E80E944B0E40
:1031800009CF973009F4BECF983021F481E08093C5
:10319000F10000CF993009F0FDCE837009F0B2CF75
:1031A000E0E5F1E081E031E096E32191222371F046
:1031B0008093E9003093EB00DF0111972C9120936D
:1031C000EC009093ED008F5F873079F78EE7809366
:1031D000EA001092EA008F8980931902DBCE8B8D72
:1031E0009C8D1092E90010920102109200029093BF
:1031F000FF018093FE01898D811151C08E899D89C7
:10320000913A49F4813209F07DCF47E050E067E41C
:1032100071E080E0B3CF913209F074CF833269F46A
:103220008F89988DB0E0A0E0809343019093440192
:10323000A0934501B0934601ADCE803269F48091F0
:10324000E80082FFFCCF67E087E491E00E94A20ED5
:103250008BEF8093E8009ECE823209F09BCE8F895F
:1032600080934E018091470190914801A0914901BE
:10327000B0914A01803B9440A105B10569F4809169
:103280004E0180FD09C088E78093020280916400AE
:103290008F7D809364007ECE109202027BCE0E94CE
:1032A000D60DDC0112960D911C910115110509F442
:1032B00029CFD801ED91FC910190F081E02DBE0164
:1032C0006B5E7F4FC8010995811164CEF8010085BE
:1032D0001185EBCF181619060CF45CCE13CFF1E074
:1032E000FF12FFCE63E973E145CF1F920F920FB635
:1032F0000F9211248F939F93AF93BF938091FA0104
:103300009091FB01A091FC01B091FD01892B8A2BCA
:103310008B2B81F19091F901809100008927809396
:1033200000008091FA019091FB01A091FC01B09105
:10333000FD01181619061A061B069CF48091FA0165
:103340009091FB01A091FC01B091FD010197A109B1
:10335000B1098093FA019093FB01A093FC01B09313
:10336000FD01BF91AF919F918F910F900FBE0F9074
:103370001F901895809171008D7F809371008091CE
:10338000F901909100008095892380930000E9CF96
:103390000F930FB70F931F9211248F939F93EF9367
:1033A000FF93E7E0F2E08091F40191E08D5F8D37CB
:1033B00010F08D5793958093F4018081890F80835D
:1033C0009181911D91830281011D02838381811D61
:1033D000838309270F70092702950093F30135D0E5
:1033E00081110093F101803989F40091F201901B61
:1033F000963070F087E7809300088093010888E199
:1034000098E08093600090936000FFCF9093F2016A
:1034100080910202815018F08093020259F3E5EF87
:10342000F1E08081918101968083918382819381F3
:10343000811D911D82839383FF91EF919F918F91C5
:103440001F900F910FBF0F9118958FB18095807FBE
:10345000669B88601C9B8460089510921D021092E8
:103460001C0288EE93E0A0E0B0E080931E029093EF
:103470001F02A0932002B09321028AE591E090936D
:103480001B0280931A028FEF9FEF90932702809385
:1034900026021092C9021092C8028CE691E0909325
:1034A000C7028093C6021092CA028CE38093CB02BB
:1034B0001092CD021092CC0280E18093CE02109245
:1034C000CF021092D0021092D1021092D20210922A
:1034D000D3021092D4021092D5021092D60210920A
:1034E000D7021092D8021092E5061092E60686ECFA
:1034F00092E09093C3028093C20289ED92E0909390
:10350000C5028093C402EAE6F2E0168217821086B2
:10351000118612863B9682E0E23CF807B1F70895E7
:10352000789483E084BD83E085BD81E080936E0064
:10353000E1E8F0E083E08083E0E881E08083E1E996
:1035400083E08083E0E981E08083E1EC87E08083B1
:10355000E3EC81E08083E0EC82E08083E2EC81E0D8
:103560008083EAE787E08083806880831092190275
:1035700010920502109204028091D700816080931E
:10358000D70080EA8093D80089B5806189BD89B56C
:10359000826089BD09B400FEFDCF0E946E0D80914E
:1035A000D8008F7C80618093D8008091E000807F7C
:1035B0008093E0008091E1008E7E8093E1008DE0B9
:1035C0008093E200559A209ACFB7F8948091060232
:1035D000811127C0E5E0F4E18491E8EDF3E19491F5
:1035E000E82FF0E0EE0FFF1FE754FC4EA591B491D9
:1035F000EC91E92321F461E081E10E94DE0F61E0BA
:1036000081E10E944F108CB580618CBD8CB58064C7
:103610008CBD61E08FE00E944F1061E080E10E946C
:103620004F10809106028F5F80930602CFBF61E04A
:1036300084E00E944F1061E08CE00E944F1062E035
:1036400084E10E944F1062E083E10E944F1062E02B
:1036500082E10E944F1062E085E10E944F1062E01B
:1036600087E00E944F1062E088E00E944F10E0E087
:10367000F4E1E491F0E0EE0FFF1FEA51FC4E85917A
:1036800094919093DE068093DD06E3EDF3E1E491FF
:10369000E093E306E8EFF3E1E491F0E0EE0FFF1FC3
:1036A000EA51FC4E859194919093E0068093DF0659
:1036B000EBECF3E1E491E093E40661E086E00E9444
:1036C0004F1061E086E00E94DE0F61E070E080E074
:1036D00090E00E948B1060E086E00E94DE0F6AE0BE
:1036E00070E080E090E00E948B1061E086E00E9434
:1036F000DE0F0E943F0A8EEA0E947B1385ED0E9436
:103700007B1380EF0E947B1388EA0E947B138FE378
:103710000E947B1383ED0E947B1380E00E947B1349
:1037200080E40E947B138DE80E947B1384E10E9459
:103730007B1380E20E947B1380E00E947B1381EA6E
:103740000E947B1388EC0E947B138AED0E947B13FE
:1037500082E10E947B1381E80E947B138FEC0E9420
:103760007B1389ED0E947B1381EF0E947B138BED0D
:103770000E947B1380E40E947B1384EA0E947B13E7
:1037800086EA0E947B138FEA0E947B130E943F0A05
:1037900080E20E947B1380E00E947B1381E20E9402
:1037A0007B1380E00E947B138FE70E947B1382E2F1
:1037B0000E947B1380E00E947B1387E00E947B13B2
:1037C000E091DF06F091E00680819091E406892B7C
:1037D0008083E091DD06F091DE0690818091E30622
:1037E0008095892380830E94870A807A803A61F4D9
:1037F000C9EDD2E009ED16E089910E947B130C1708
:103800001D07D1F70000FECF82E090E00E940C1D62
:10381000882359F061E085E00E944F1061E08DE05F
:103820000E944F1081E08093CA0280916400816001
:103830008093640080916400826080936400809132
:103840006400806880936400809164008064809349
:103850006400809165008160809365008CE38093B3
:10386000CB0280E18093CE028FEF9FEF90932702EF
:103870008093260209ED12E029EDE22E26E0F22ED9
:10388000C0E0D0E0DD24D3942FB7F89480910702F4
:1038900090910802A0910902B0910A022FBF2091D5
:1038A000D702222391F02091CF02382F321B309380
:1038B000D8022091CC023091CD022F5F3F4F309340
:1038C000CD022093CC021092D7024091D3025091A6
:1038D000D4026091D5027091D60284179507A6078D
:1038E000B7079CF4481B423050F083B7817F83BFF9
:1038F00083B7816083BF889583B78E7F83BF20970E
:1039000009F4C2CF0E940000BFCF2091CE02AC01CB
:10391000BD01420F511D611D711D4093D302509393
:10392000D4026093D5027093D6028093CF02909315
:10393000D002A093D102B093D202D092D70280914C
:10394000E5068093E6060E94870A8093E50680E0FC
:10395000B82FB111BFEFF8010024B193B193B19327
:10396000B1930394D1F7E0910B02F0E0EE0FFF1F4B
:10397000ED5EFB4E85919491FC01099599EDA92E80
:1039800092E0B92EF50181915F010E947B13EA1448
:10399000FB04C1F7B4CFBB272A3051F4992342F47A
:1039A000BDE290958095709561957F4F8F4F9F4FA9
:1039B0000C94DB1CBB27FA01A62F62177105810549
:1039C0009105330B30FB66F0AA27660F771F881F1F
:1039D000991FAA1FA21710F0A21B63953850A9F7D0
:1039E000A05DAA3308F0A95DA19336F7B111B19398
:1039F0001082CA010C94FC1CDC01FC01672F719140
:103A00007723E1F7329704C07C916D9370836291C4
:103A1000AE17BF07C8F30895F999FECF92BD81BDD7
:103A2000F89A992780B50895262FF999FECF1FBAE5
:103A300092BD81BD20BD0FB6F894FA9AF99A0FBED7
:103A400001960895AA1BBB1B51E107C0AA1FBB1F0B
:103A5000A617B70710F0A61BB70B881F991F5A951A
:103A6000A9F780959095BC01CD010895EE0FFF1F39
:0C3A70000590F491E02D0994F894FFCF2C
:103A7C005409430E6D131B18091D60221F272D2C92
:103A8C0052311336393B100A7D0F3E144F19731EF9
:103A9C0068231028752D41326237173C5407430CAC
:103AAC006D111B16091B60201F252D2A522F133454
:103ABC00393903FFFFFFFF00E100000000000000A8
:103ACC00C18081000000000000005D0FDC0E7E0F45
:103ADC00730FC40F820FA00F000000007A13AF0EFB
:043AEC0083138213AB
:00000001FF
