:100000000C945D0B0C94850B0C94850B0C94850B58
:100010000C94850B0C94850B0C94850B0C94850B20
:100020000C94850B0C94850B0C94D51C0C94441DDE
:100030000C94850B0C94850B0C94850B0C94850B00
:100040000C94850B0C94850B0C94850B0C94850BF0
:100050000C94850B0C94850B0C94850B0C94351F1C
:100060000C94850B0C94850B0C94850B0C94850BD0
:100070000C94850B0C94850B0C94850B0C94850BC0
:100080000C94850B0C94850B0C94850B0C94850BB0
:100090000C94850B0C94850B0C94850B0C94850BA0
:1000A0000C94850B0C940F230C94850B2B180000DB
:1000B00000820287068F8ADF92FFF6FF46FF8CFFE1
:1000C000CCFED8FED0FC20F8A8FCD0FCE4FEE4FE78
:1000D000ECFEE8FCB8FCB0F8B0F8E0F0E0F0C0F0FE
:1000E000E0F0A0F060F060F0E0F0C0E040E040E060
:1000F00040E080E080C00080008000000000000040
:10010000000000000007071F1F3F3FFFFEFFFEFF2C
:10011000FCFFFDFFF3FF07FFCFFF3FFF1E3F1C3F2C
:10012000397F39FF73FF53FF97FF17BF2F7F2E7F54
:100130005CFF5CFFB8FF39FF31FF31FF23FFC2FFD7
:1001400015FF35FF6DFFEDFFDAFFAAFF53FF85DFD7
:10015000068F060F040E040E0004000000000000CD
:100160000000000101030307070F0C1F1F3F001FC2
:10017000000000000000000000000000000000017E
:100180000000000000000000000000010103010366
:100190000207010300010103010302070207040F24
:1001A000091F0B1F163F153F123F1C3E003C00006D
:1001B0000408000000000001000002010000060920
:1001C00000000408080000080804000008060000F9
:1001D00000030208000003000302030602060006F3
:1001E000000C0008081000000101010100000000DF
:1001F00000000000000000030303030301000000EF
:1002000000000000000003070707070703010000C4
:1002100000000000000003070F1F0F0F0701000080
:1002200000000000000003073F7F1F070F010000D0
:10023000000000000000031FFF7F1F0F07010000E8
:10024000030000000000031FFF7F1F0F0701001EB7
:10025000030000000000030FFF7F1F0F0701F81FBE
:1002600003000000000003CFFFFF3F0F070138FF2E
:1002700003000000000003CFFFFF3F0F0701F8FF5E
:100280000F000000000003CFFFFF3F0F0701F8F34E
:10029000070000000000031FFF7F0F070301E0F0CD
:1002A000030000000000030FFF3F0F070301E0C041
:1002B00000000000000003070F1F0F0F070180C0A0
:1002C000000000000000010307070F070301808002
:1002D000000000000000000103070303010080008C
:1002E0000000000000000408000000000000010100
:1002F00000020301000207030006070208060600C9
:10030000180C00003000000058100703030B0F0703
:10031000070F2F1F1F1F0F3F3F3FFF7F3F3F7FFFF5
:10032000FF7F7FFFFFFFFFFFFFFFFFFFFFFFFFFFDD
:10033000FFFFFFFFFFFFFFFFFFFFFFFFFFFFFFFFCD
:10034000FFFFFFFFFFFFFFFFFFFFFFFFFF3F7F7F7D
:100350007FFF7FFFAF0F1F1F0F0307070705010375
:10036000010100000000000000000000000000008B
:100370000000000000000000000000030101010077
:10038000000001010307010103030703030F070333
:1003900003030307070F0B0101010103070100011C
:1003A0000103000000000000000100000000000048
:1003B0000000000000000000000046200F03C1F113
:1003C000F8F83CBCDCDCDCDCDCDCDCDCDCDCDC00D1
:1003D00000FCFCFC00FCFCFC0000DCDCDCDCDCDC0D
:1003E000DCDCDCDCDCBC3CF8F8F1C1030F0703E12A
:1003F000F0F8FC3CBCDCDCDCDCDCDCDCDCDCDCDCAD
:1004000000000000FFFFFF00DFDFDFDDDDDDDDDD01
:10041000DDDDDD01010000FFFFFF00FFFFFF000049
:10042000FFFFFF01FDFDFDFDDD9F5FEFE7F87F3F73
:100430001F070000FFFFFFFF00BFBFBFBBBBBBBB71
:10044000BBBBBBBB030300000000FFFFFF00FFFFBF
:10045000FF0101F9F9F9F9F9F9F8F80000FFFFFFD8
:1004600000FFFFFF0000FFFFFF00FFFFFF0003078B
:100470001F3CFBE7DF3CF8E0C0001FFFFFFFE09FF1
:10048000BF7F7B7B7B7B7B7B7B7B78780000000066
:100490000707070007070700001F1F1F1F1F1F1F59
:1004A0001F000007070700070707000007070700EE
:1004B00007070700001F1C180001070706010707B0
:1004C00006000103070707070707070707070707CE
:1004D000070700003C203F0F03C3F1F1F838BCDCF4
:1004E000DCDCDCDCDCDCDCDCDCDC0000FCFCFC0080
:1004F000FCFCFC00000000FCFCFC00FCFCFC000020
:10050000DCDCDCDCDCDCDCDCDCDCBC3CF8F8F1C1B9
:10051000030FC0000F3FFFFFF0EFDFDFBFBD7979B2
:10052000F1F1E1E181010000FFFFFF00FFFFFF00AB
:10053000000000FFFFFF00FFFFFF0000FDFDFD01C9
:10054000FDFDFD0103FFFFFF00FFFFFF00000303B0
:100550007070707071717373777F7FBF9EE1FFFF62
:100560007F1E0000FFFFFF803F7F7F787070787FE5
:100570007F3FC0FFFFFF0000FFFFFF00FFFFFF0006
:1005800000FFFFFF00FFFFFF000000000707070755
:1005900007070707070707070303111118181810A3
:1005A00000030707070707070707070707070707E6
:1005B00003000000070707000707070000070707F9
:1005C0000007070700000810FFFFFFFFFFFFFFFF06
:1005D00007070707070707073C38000000000080EF
:1005E000F8FE0FE3FB1B0B0B8BFBF3F7F6F6F6069F
:1005F00006ECECECECECECECECECECECECECECEE1F
:10060000E6F6F6F6F7F3FBFBCBCBFBE30FFEF88049
:100610001E332121339E00000080F8FF0FE0F8F91F
:10062000F9F9F9F9F9F9F1F3F3F3F3F0F0FFFFFF5A
:10063000FFFFFFFFFFFFFFFFFFFFFFFFFFFFFFFFCA
:10064000FFFFFFFFFFFF7F7FFEE00FFFF880060642
:1006500000000000000F3FF0C6070404070707076B
:100660000707070707070707FFFFFFFFFFFFFFFF5A
:10067000FFFFFFFFFFFFFFFF07070707070787874A
:10068000070726860707C6F03F1F0080800000008E
:1006900000000000030784C4E4E4E4E4E4E4E4E4E8
:1006A000C49C000FE7E7E7E7E7E7E7E7E7E7C78787
:1006B0000F1F0FC7E7E0ECE4E4E4E5E5E4C404045D
:1006C00004070300C040C303110000000000000045
:1006D0000000FFFFFFFFFF393939FFFFFF0FE0E0A8
:1006E000EFEF0FFFFF183879FFFFF703E0E0EFEFC0
:1006F0000FFFF9F0F0FCFDFDFD0DECE0E0E0000087
:10070000012101000000000080C0602060C0800066
:100710000000000C0C007EFE803C3E1C1C1C1C1CBF
:100720000C0C0E0C0C0C0C0E1E1C1C1C1C3C3E80DD
:10073000FE7E00000000C0E0E0C0000000000303F7
:1007400000000E1B3166C680D060311B0E000038E1
:1007500028380001471E3820202020301010D0D02B
:10076000101090103020202020381E0701000006B5
:100770000600000101000000000000000000370832
:100780007F4555517F415D417F417F4155417F000C
:10079000000007057D417D057F416D6D517F415D05
:1007A0005D417F415D5D637F415D5D417F51555599
:1007B000457F515555457F04084122140815087F8F
:1007C000417777417F4155555D7F415F50507F4173
:1007D0007515111F7F417515117F415F50507F4185
:1007E0006D6D417F117747711F7F5D415D7F417B5B
:1007F000776F417F4175151D7F415D5D417F7F4171
:100800005D5D5F7F415D5D417F417B77417F4175EC
:10081000151D077F515555457F4175151D7F49773A
:1008200077497F00000000007F415D5D417F417599
:10083000151D7F4175151D0700000000007F415DFB
:100840005D417F417B77417F000000000000000098
:100850000000F9FAFBFCFDFEFF000102030405069F
:100860000708FAFBFCFDFDFEFF0000010203030484
:100870000506FCFDFDFEFEFFFF0000010102020374
:100880000304FDFDFEFEFFFFFF0000010101020267
:100890000303FEFEFFFFFFFF000000000101010156
:1008A0000202FFFFFFFFFF00000000000001010146
:1008B0000101000000000000000000000000000036
:1008C00000000101010101000000000000FFFFFF26
:1008D000FFFF02020101010100000000FFFFFFFF16
:1008E000FEFE030302020101010000FFFFFFFEFE06
:1008F000FDFD040303020201010000FFFFFEFEFDF7
:10090000FDFC060504030302010000FFFEFDFDFCE3
:10091000FBFA080706050403020100FFFEFDFCFBCD
:10092000FAF9080800020000000000008000000042
:1009300000000000000000010000000000000000B6
:100940000000000000000000000000000080000027
:100950000080800000000000000000000400000093
:100960000000000000000000000000000040000047
:1009700000004040000400000001000000000000F2
:1009800000000000000000000000000000008040A7
:100990004000808002020000000109000000000009
:1009A00000000008000000000000000000002030EF
:1009B00000401000020001010B02000000000000D6
:1009C0000000000000000000000000008898900077
:1009D000446020000101020206060400000000003D
:1009E00000000000000000000000000040203080F7
:1009F0009000203000010100010C05000000000003
:100A00000000000000000000000000000090983886
:100A1000B06010800001000008000000000000002D
:100A200000000000000200000000000080C000D0B4
:100A300080301000050000C06002000000000000CF
:100A400000000000000000000000000040644000C2
:100A50008030B01003030100010008000000000016
:100A60000000000000000000000000000080900076
:100A700080206040010101000031301200080000B8
:100A80000000000000020000000000000C8C2800A4
:100A900000301024000000000100110100000000DF
:100AA00000000000000000000000000000602400C2
:100AB00080307838001101000206000000000000BC
:100AC000000000000000000000000000000000C066
:100AD0002000801000000200100000000000000054
:100AE00000000010000000400000000040C00000B6
:100AF0004000800000000200000000000000000034
:100B00000000000000000002000000002020800023
:100B10000000400000000000000000000000000095
:100B2000000000000808000000100800000000009D
:100B30000C14180000000030587C2C180000000C29
:100B40003E5A7E6C38001010000000008080C0C04B
:100B5000C0C0800000000000000000070A0D1A114C
:100B60000A080D06000000000000C0E0A0F068B810
:100B70005830A04080000000000000010306050876
:100B8000080A0804030000000000C070C868BC5CCC
:100B9000345C2C9408F00000000003070409080AE4
:100BA0000B080402010000000078CCA4D66EBE5AE7
:100BB000AA5E2C14B84080000000070F122542895D
:100BC000D49A4C4155201F0008080000183C3C18DE
:100BD00000000000001818000000000000100000D5
:100BE000000008083C7E73BDCE7E3C0018366F6F57
:100BF0007B7B360C00001C5A380000000008101CDB
:100C00001C0408000808005A245A5A245A000018E4
:100C1000245A5A24180018A55ABDBD5AA5181824DC
:100C20005ABDBD5A2418101000000080C0000000FA
:100C3000000000C080000000020302050207020558
:100C4000050207020502030210307050AC70A0903C
:100C500090A070AC50703010000000000001010343
:100C6000030101000000000000008000E0C02050EF
:100C70005020C0E00080000004060302050E0609B3
:100C800009060E05020306042020303038A0D8DC07
:100C900080683040E07000000000000000000101AA
:100CA000000106070201070C000070E04030688078
:100CB000DCD8A038303020200C07010207060100E4
:100CC000010100000000000010304E54B0C8C8B050
:100CD000B694C87030301010000000000000000111
:100CE00001030303000000001010303070C894B6F8
:100CF000B0C8C8B0544E3010000000000303030118
:100D000001000000000000001010000000008080C2
:100D10004080804080800000000000000101000150
:100D20000102020101000101000000000080C0007A
:100D30000000000000C08000000002030102040760
:100D4000060909060704020103020000669EBCF8BA
:100D5000F4E4F8E49474743C1C0400001F0C0E05C9
:100D600003050701020300000000041C3C74749496
:100D7000E4F8E4F4F8BC9E66000000000000030202
:100D800001070503050E0C1F0000201800000000DD
:100D9000008080C000A0D0C8C8D0AC2EACD0D0C8D5
:100DA000C8D02080808000000000000080C06090DB
:100DB000E1F1F9FCFDFDFDFDFDFDFD00FDFDFDFD8D
:100DC000FDFDFDFCF9F1C1B060C08000030003032C
:100DD0000B1B1B3B3B3B3B3B3B3B3320333B3B3BFE
:100DE0003B3B3B3B1B1B0B0303000303181800009A
:100DF00000000000808080C0C0E0D05050A88A6A07
:100E0000F67228983000B0783C9ECEEFE6F6FA7A7B
:100E10003D9DDCDD01773B1B0006070F0E1800012E
:100E20000202060405050604010303070704000087
:100E30000000000000000000000000000020106022
:100E4000747A7A602A0B6B75787A1AE4C080000095
:100E50000080E0F0F4F7F7F7F73707E1F4F7F7F77A
:100E6000F7F7670000012010060717373777776715
:100E700040686F6F6F6F2F2F0F07000F1E18101035
:100E80000040C0C04040C0C0408040A0B0305000D2
:100E90000000000001030201000100010103020043
:100EA00040C0C060A0A0D0D050986CACB4A050306E
:100EB0000002060402060A0D0C09030001030200E9
:100EC00010100088B060F070A0D8A070D06090883A
:100ED00000000000100B0507020D02070F0B1000A9
:100EE000000092BC6CF63656FCE8CB7C6E36F66C95
:100EF000BC92241E1B37373A1F6D0D1F3A37371B24
:100F00001E24008008E4309000E0E4C490306004C7
:100F100088000019200C1813464E0D04110C2610E1
:100F2000010018087ED581000000000000000000CC
:100F300000000000000000000081D57E18087EBD82
:100F4000A59981B995B981BD85B9819DA5B181BDAD
:100F5000B581BD95AD7E00425A667E466A467E42A8
:100F60007A467E625A4E7E424A7E426A5200101093
:100F7000FF3F3F3F7FBFBF3F7FFFFFFFFFFFFFFF01
:100F8000F1C2DE9CB8391F0E1F207DC39F7FFFFF7B
:100F9000FFFF0FB7F7E7030303F7EF5F3FFFFFFF25
:100FA000FFFFF88107070F0EC7F3CBB4BB7CFFFF31
:100FB000FFFFFFFF7F7FBFBFBF3F1F1F3FFFFFFF41
:100FC000FFEF13240992C5E0B33F9ECEE3F8FFFF85
:100FD000FFFF7F7F3F1F1F3F7F7F7FFFFFFFFFFFE1
:100FE000FFF8C38F1E1C38387D7F9E60FFFFFFFF18
:100FF000FF7FBFBF1F0F0F0F1FBF7FFFFFFFFFFF51
:10100000FFE0061F1F3870383E9F8360FFFFFFFF21
:10101000801500008040A05028DC6CB4BABABABB7E
:10102000BBBBBBBBBBBBBBABBBABABABBBBBBBBB50
:10103000BBBBBBABABBBBBB36BD73767464ECC8C34
:101040009898B0B0B0B0F0B0F0F0F0F0F0F0F0F090
:10105000F0F0F0F0F0F0F0F0F0F0F0F0F0B0F0B010
:10106000B0B0B0909888CC4C6636D66BB3BBBBABF7
:10107000ABBBBBBBBBBBBBBBBBABABABABBBABBB20
:10108000BBBBBBBBBBBBBABAB46CDC2850A04080B6
:101090000000C2310C030000000FFCFF0000000044
:1010A0000000000000000000000000000000000040
:1010B00000000000000000FFFC0F00000000000125
:1010C00003070F1E7CF8FFFFFFFFFFFFFFFFFFFF7F
:1010D000FFFFFFFFFFFFFFFFFFFFFFFFFFFFFFFF20
:1010E000781C0E070301000000000FFCFF00000049
:1010F00000000000000000000000000000000000F0
:101100000000000000000000FFFC0F000000030CC6
:1011100031C20000000000000000031F00000000BA
:1011200000000000000000000000000000000000BF
:10113000000000000000001F03000000000000008D
:101140000000000000031F1F1F1F1F1F1F1F1F1F66
:101150001F1F1F1F1F1F1F1F1F1F1F1F1F1F1F03BB
:101160000000000000000000000000031F0000005D
:10117000000000000000000000000000000000006F
:1011800000000000000000001F030000000000003D
:10119000000008080F030101000000000101030F17
:1011A000000000000F0C08080000000008080C0FE9
:1011B000000000000000081408000000582800008B
:1011C000000000000000000000000000000000001F
:1011D0000080C0E0F07078787C7C7E7E3E3E9E6E23
:1011E000361E0E0E06224280E04080E00000E060E5
:1011F0004080204080E00000E0A0808000000000EF
:1012000000000000000000000000000000000000DE
:10121000000000000000000000000040004080804E
:101220002060A02020284C5E7FFBBBC57EBFBFDFB7
:10123000DFEFEFEFEDEDEDCA860A12E200000000ED
:10124000040C14141010040C1414141810040C14AE
:10125000041814041810040C140C000418101000C6
:101260001C141010040C1404001C14101000004175
:10127000004141004141D5E355368041417F634102
:1012800041DDFFBE7FFFFFE3C1FFFFFFFFF7E3E3A9
:10129000E32241C14141495D5D5D5D5D2A2A2A220B
:1012A000141C00000000000000000000000000000E
:1012B000000000000000000000000000000000002E
:1012C000000000000000000000000001000100001C
:1012D00002030202020A193D7FEFEED1BF7E7E7D3E
:1012E0007D7B7B7B5B5BDB293028242300000000B7
:1012F000000000000000000000000000010B0D0DC8
:10130000080107090908030D090B0C010F05060860
:1013100001070D09080000000000000000000000A7
:1013200000000000000000000000000000000000BD
:101330000000010307070F0F1F1F3F3F3E3E3C3BCE
:10134000363C38383020200000000000000000004B
:10135000000000000000000000000000000000008D
:10136000000000000000000000000000000000007D
:101370000000000000005828000004080810102099
:1013800020408080000080402010080402091120C5
:1013900040000000008040F0086874747A3ABA4255
:1013A0003A342448C830C81C142444C99214111279
:1013B0001410218A088580874C483191E224489096
:1013C0001060800000000000004020201008080489
:1013D000000000000000000080C0F01C07010202B5
:1013E000040408101020204040800000001F609E70
:1013F00023410181C13118981830E01007C0306FC7
:1014000040C080804041C18181C14D5B112C5C5E38
:10141000BEFCFAFDFCFCFDEDEBE6ECD9326CF040D5
:101420008000000000202020000000000080F0FE6E
:101430000F0380808080404040202000804020209A
:101440002040C0E07030B0D0D18E8CC03F9695E582
:10145000390E87E0F9FCFEFEFEFEFEFEFEE2C2C093
:101460001416262F47478382804347476727371341
:101470001319090C060301000FFEF08000000000A4
:1014800008080404F8FFFF010101808080609010CB
:10149000103E53A1C103061C3860800001071F3FA6
:1014A0003F1800000384FF38C00E3F7F7F7F7F7F9F
:1014B0007F7FBF9FDFCFCFC30110180C063FEF1116
:1014C0003C7A7AF4E4C8D090202041828204040857
:1014D0000810FFFFF8408080201090C8CFE7E7F2A7
:1014E000F2FDF87831312122448800000103040024
:1014F00000000101000000000000000080CF313832
:101500000EC3663D391333E7CF8F6FEFE7E3F3F890
:10151000FCFCF00000003967C0C080000103070F29
:101520001F3F3E7CF8F9F2E2C4C48F1F3F202040E9
:10153000000006011501260137014A015D01720113
:1015400088019F01B801D201EE010B022A024B0271
:101550006E029302BA02E40210033F037003A40375
:10156000DC03170455049704DD0427057505C80539
:1015700020067D06E0064907B8072D08A9082D09B1
:10158000B9094D0AEA0A900B400CFA0CC00D910EF5
:101590006F0F5A1053115B1272139A14D41520173F
:1015A0008018F519801B231DDE1EB420A622B52449
:1015B000D5F08D14A1C881CFD9F1AF200073103CB4
:1015C0001C6A1010112A1C8E1C75116511F310086D
:1015D0000B000202020100090400000102020000E7
:1015E000052400100105240101010424020605243C
:1015F0000600010705810310004009040100020AEA
:1016000000000007050202400000070583024000B9
:10161000000403090412010002EF020140412336D5
:101620008000010102030141726475696E6F204CF4
:101630004C430041726475626F79000B000010002A
:10164000180019001D0023002D00370042004D0036
:101650005E00000102039D189E0001020340204E1F
:10166000030FFD07079F403F41F0FD07089F9FFDC7
:101670002F069F4020A04000FE4904402041F8A3CF
:101680004A43FEFC04A2FC05A7FC04AEFE4C00FD90
:10169000020A4CFEFD020AFE4C00FD02094CFEFD52
:1016A0000209FE14A314A31BA314A31CA314A31BBD
:1016B000A314A3FE14BFFE00A82311241FBECFEF66
:1016C000DAE0DEBFCDBF11E0A0E0B1E0E2E9FCE48A
:1016D00002C005900D92A433B107D9F727E0A4E327
:1016E000B1E001C01D92AF33B207E1F71BE0CDE5D9
:1016F000DBE004C02197FE010E944126CC35D107D2
:10170000C9F70E94CA230C9447260C9400006F92DC
:101710007F928F929F92AF92BF92CF92DF92EF9281
:10172000FF920F931F93CF93DF937C01B0E0A0E073
:10173000FA01802F90E0C590B590211511F4911514
:10174000B1F047E04B0D479546954695833009F437
:10175000440F4C9DA001249FE00DF11D259FF00D2D
:10176000109629F0949FA00DB11D959FB00D1124E6
:101770008F3F21F4109682E009F081E0CC2DD0E07B
:10178000A7014C0F5D1F141615060CF06FC090E8F2
:10179000E916F1040CF06AC09B012B0D311D1216E5
:1017A00013060CF063C0603471050CF05FC0309715
:1017B00009F45CC0362F37708B0177FF02C0095FD8
:1017C0001F4F93E0159507959A95E1F7202F77FF26
:1017D00004C0332311F02FEF200F002711270E191B
:1017E0001F09F7FC02C010E000E090E89E194038A5
:1017F00051050CF49C2D901B422F022E000C550B12
:10180000A42EA0942F3F0CF0A12CDD24D3946B2D9B
:10181000677009F4D12CB694B694B694DB0C4D0DD8
:10182000511D493051051CF048E0D42ED21ADA1867
:101830002A0D40E82403B00111246E0D7F1D600FB6
:10184000711FCA9C000D111D1124AF01400F511FC3
:10185000E32E032E000CFF08833009F410C1A8F416
:10186000813009F4C3C0823009F471C0DF91CF9197
:101870001F910F91FF90EF90DF90CF90BF90AF90AE
:101880009F908F907F906F9008958A3F91F1BD2C2B
:10189000B20E8B3F59F72B1549F3DB01AC51BD4F0D
:1018A00010E000E0091708F09BC0FA01E00FF11FFB
:1018B000E491F0E00E2C02C0EE0FFF1F0A94E2F755
:1018C00027FD05C08C91DE2ED0948D218C9333237F
:1018D00061F0273054F46D0180E8C80ED11CAF2EA2
:1018E000A094F60180818A2180830F5F1F4F11969B
:1018F000D9CFBD2CB20E2B1509F4B8CFDB01AC51FA
:10190000BD4F10E000E0091708F064C0FA01E00FD5
:10191000F11FE491F0E04F010E2C02C0880C991CDD
:101920000A94E2F727FD03C08C9188298C93332316
:1019300051F0273044F46D0180E8C80ED11CF60147
:101940008081892980830F5F1F4F1196DCCFAFEF15
:10195000B0E0032E02C0AA0FBB1F0A94E2F7A095C5
:10196000B0959B2E8D2C820E281509F47FCF8B010C
:101970000C511D4FD12CC12CC91630F5FA01EC0DBC
:10198000FD1DE491F0E03F010E2C02C0660C771CB7
:101990000A94E2F727FD05C0F80180818A23862991
:1019A0008083332359F027304CF45801F0E8AF0E10
:1019B000B11CF5018081892187298083FFEFCF1A2F
:1019C000DF0A0F5F1F4FD8CF2F5F4C0F5D1F60588E
:1019D0007F4FCACF2F5F4C0F5D1F60587F4F8BCF5B
:1019E0002F5F4C0F5D1F60587F4F55CFA00FB11F69
:1019F0008D2D820F281709F439CF8B010C511D4F03
:101A0000D12CC12CC91698F5FD01EC0DFD1DA4903B
:101A1000B12C0E2C02C0AA0CBB1C0A94E2F7A094B5
:101A2000B094FA01EC0DFD1D8490912C0E2C02C097
:101A3000880C991C0A94E2F727FD08C0F801708011
:101A4000E72DEA217E2E7828F8017082332349F0B1
:101A500027303CF4F801E058FF4FA080BA20B928A5
:101A6000B082FFEFCF1ADF0A0F5F1F4FCBCF2F5F80
:101A70004C0F5D1FAC0FBD1F60587F4FBBCFE92ED1
:101A8000F12CFA01E00FF11FDB01AC51BD4F00E872
:101A900010E00E191F09CE19DF09BE01660F771F6E
:101AA00041E050E07A01032E01C0EE0C0A94EAF7FF
:101AB000592F4D2D892E932ECF93DF93ED01EF9665
:101AC000EF962296A590C590992059F0AE9C5001B2
:101AD000CE9C600127302CF4F880D094FD20FB28A8
:101AE000F99222233AF0FC90C094FC20FA28FD924F
:101AF0000C947B0D11965A9529F74A9551F0582D63
:101B000023951124E60FF11DA00FB11DC00FD11DAB
:101B1000D9CFDF91CF911124A9CE90913A07982384
:101B200029F490913907982381E009F480E0089521
:101B30000F93242F0BEFAB0162E070E00E94870B44
:101B40000F910895FC0180910602882311F13FB79F
:101B5000F89482E08093E9002091F200822F90E0D7
:101B60001816190614F481E090E0882339F02898BB
:101B700044E6409305024091F1004083222339F06E
:101B80002091F200211103C02BE62093E8003FBF13
:101B900008958FEF9FEF08952FB7F89483E0809317
:101BA000E9009091E800892F807295FF04C0909120
:101BB000F20080E4891B2FBF08958091FD018111FF
:101BC0000DC082E08093F90184E08093FA011092C5
:101BD000FC011092FB0181E08093FD0189EF91E00F
:101BE0000895CF93DF931F92CDB7DEB76983DC01F1
:101BF000ED91FC910280F381E02D41E050E0BE01C7
:101C00006F5F7F4F09950F90DF91CF91089583E02B
:101C10008093E9008091F200882319F08AE3809391
:101C2000E80008950E94CC0D90E00895CF93DF93D3
:101C30001F92CDB7DEB7FC018485958597FD08C05E
:101C40002FEF3FEF358724870F90DF91CF910895D5
:101C5000CE0101960E94A20D019719F4898190E0AE
:101C6000F3CF8FEF9FEFF0CF0F931F93CF93DF93BF
:101C70001F92CDB7DEB78C01FC018485958597FF57
:101C80000BC0CE0101960E94A20D019771F48981CB
:101C900090E0F80195878487F801848595850F90F9
:101CA000DF91CF911F910F9108958FEF9FEFF1CFAB
:101CB000FC018485958597FD0BC09FB7F89482E061
:101CC0008093E9008091F2009FBF90E00196089513
:101CD0009FB7F89482E08093E9008091F2009FBF63
:101CE00090E008954091F3015091F4012091F101A9
:101CF0003091F20142175307B4F49091E8009570C7
:101D0000E1F39091E80092FD19C08093F100809179
:101D1000F3019091F40101968F739927892B19F49F
:101D20008EEF8093E8008091F3019091F401019689
:101D30009093F4018093F30181E0089580E0089589
:101D4000EF92FF920F931F93CF93DF93F82E192FEB
:101D5000E62E042F81E0860F880F0E94720E83E02A
:101D60000E94720ECF2DD12FEC0EFD2EF11CCE1540
:101D7000DF05B9F007FF13C0FE0184910E94720EC7
:101D8000182F80E00E94720E812321968111EFCFDF
:101D9000DF91CF911F910F91FF90EF90089588816F
:101DA000EDCF81E0F5CFDF92EF92FF920F931F937B
:101DB000CF93DF93D82E8A01EB017B01E40EF51E51
:101DC000CE15DF0559F0D7FE12C0FE0184910E94A6
:101DD000720E21968111F4CF0FEF1FEFC801DF9132
:101DE000CF911F910F91FF90EF90DF900895888120
:101DF000EECF0F931F93CF93DF931F92CDB7DEB734
:101E000082E0898342E450E06FEC75E180E80E9453
:101E1000D30E0E94DD0DDC0112960D911C9101156F
:101E2000110589F0D801ED91FC910280F381E02D3C
:101E3000BE016F5F7F4FC801099597FD04C0F8018F
:101E400000851185ECCF89810F90DF91CF911F9193
:101E50000F910895615030F02091F100FC01208332
:101E60000196F8CF289884E6809305020895FC0136
:101E70000E94D20F319728F068517C4F8F4F9F4FAF
:101E8000F9CFAB01FC010E94D20F641775078E07D2
:101E90009F07C8F3089585E090E00C94370F8F9268
:101EA0009F92AF92BF92CF92DF92EF92FF920F93E9
:101EB0001F93CF93DF936C017B018A0180910F0107
:101EC000882309F45AC080910602882309F455C07A
:101ED0008091F80180FF05C08091E00082608093CE
:101EE000E000E801B12C8AEFA82E93E0892E2AE3C6
:101EF000922E209711F4BB20C9F10E94CC0D8111C4
:101F000008C0AA94AA20C9F181E090E00E94370F8E
:101F1000F0CF8C171D0611F00CF08C2F9FB7F894A2
:101F20008092E9002091E80025FD02C09FBFE1CF2B
:101F3000282F30E0C21BD30BF701815020F04191D4
:101F40004093F100FACFE20EF31EBB2021F09092F5
:101F5000E800B12CEBCF8091E80085FDE7CF9092AF
:101F6000E800BB24B394209709F3F3CF5D9884E68F
:101F70008093F701101611063CF081E090E0F60125
:101F80009383828310E000E0C801DF91CF911F911D
:101F90000F91FF90EF90DF90CF90BF90AF909F9008
:101FA0008F900895A8EEB1E02FB7F8947D918D91B0
:101FB0009C9166B52FBFA89B05C06F3F18F47F5F4B
:101FC0008F4F9F4F22E0660F771F881F991F2A951A
:101FD000D1F7089590E0880F991FE0910902F091E0
:101FE0000A02E80FF91F8591949120910702309120
:101FF0000802820F931F08950F930AEF0E94870B28
:102000000F9108950F9302E00E94870B0F9108959E
:102010000E94921F08951092E3013E983F98089500
:102020003E9A3F9A81E08093E30108950895CF930B
:10203000DF93CDB7DEB764970FB6F894DEBF0FBE5F
:10204000CDBF91E0909369012AE0E9E8F1E0DE017B
:102050001B9601900D922A95E1F7885F8D876E8718
:1020600082E38F87198A9C8B8AE0FE013B96DE0112
:10207000119601900D928A95E1F78AE0FE01319662
:10208000A9E8B1E001900D928A95E1F764960FB648
:10209000F894DEBF0FBECDBFDF91CF910895EF92D0
:1020A0000F9390916A013AE09302F0011124E559EF
:1020B000FE4F90838183628343831682248380E270
:1020C000878305831086E1869F5F90936A010F9155
:1020D000EF9008958CE00E948D0D882319F081E027
:1020E0008093F0010895CF93C0915001CF5FC093CA
:1020F000500120E048ED55E064E070E082E290E0BD
:102100000E94FC0FC93718F081E08093F001CF9155
:102110000895EF92FF920F931F93CF93DF93109246
:10212000720081E090E090934C0180934B01ECE0D1
:10213000F2E028EDDF011D922A95E9F720EF2093C8
:10214000100129E120930B0221E732E030934A018C
:102150002093490190934601809345019093D402C6
:102160008093D30282E48093C00081E08093C10019
:102170008FEF8093D10080E88093CF00EBE3F6E10E
:10218000C4918CE396E190930A0280930902D0E017
:10219000CC0FDD1FC45CD94ECE010496909308028B
:1021A000809307029CE0E92E92E0F92E10E000E017
:1021B000FE01E00FF11F84910E94EA0FF701918365
:1021C00080830F5F1F4FF6E3EF0EF11C0430110503
:1021D00079F784E080937200DF91CF911F910F9186
:1021E000FF90EF90089520E046E753E168E070E04B
:1021F00084E190E00E94FC0F8CE00E948D0D88230A
:1022000071F0EBE6F1E088E7DF011D928A95E9F7CE
:1022100010926A0181E08093F0010C948910089576
:10222000EF920F9310927200ECE0F2E088EDDF0184
:102230001D928A95E9F780EF809310011092690151
:10224000E12C02E020E040E060E081E00E944F10DD
:1022500020E040E060E081E00E944F1020E040E09C
:1022600060E082E00E944F10EE24E39420E040E022
:1022700060E083E00E944F1021E040E260E480E0F3
:102280000E944F1001E02AE040E060E08AE00E94F6
:102290004F102AE142E160E28BE00E944F1084E699
:1022A000E82E20E240E260E28CE00E944F10E9E577
:1022B000F1E088E08193B1E0E936FB07D9F786E0E9
:1022C0008093F0010F91EF90089520E04CEB51E1E5
:1022D00068E070E084E190E00E94FC0F8CE00E94D6
:1022E0008D0D81110C94101108952F923F924F92F1
:1022F0005F926F927F928F929F92AF92BF92CF9296
:10230000DF92EF92FF920F931F93CF93DF93CDB79E
:10231000DEB7C45DD1090FB6F894DEBF0FBECDBFE6
:10232000809137079091380763E070E00E9419268A
:10233000892B31F48091030191E089278093030177
:102340001092580181E0809302010E94081086FFDC
:102350000DC0909157018091560122E02093020117
:1023600096300CF03BC19F5F909357010E9408107C
:1023700085FF0CC090915701809156011092020187
:102380009B3F0CF432C19150909357010E9408106A
:1023900084FF0DC08091550193E090930201893F25
:1023A00034F08150809355018FEF809358010E9443
:1023B000081087FF0DC08091550194E090930201B1
:1023C000803134F48F5F8093550181E08093580110
:1023D0000E94081082FF48C08AE0EBE6F1E0DE01CF
:1023E000119601900D928A95E1F780916F0181110C
:1023F0003BC080E28B838C8390E59D839AE0FE0155
:102400003196DE01A154BF4F01900D929A95E1F7EC
:102410009AE0FE01E154FF4FABE6B1E001900D926E
:102420009A95E1F79AE0E5E7F1E0DE011196019077
:102430000D929A95E1F790E69B838C8381E58D83DD
:102440008AE0FE013196DE01A753BF4F01900D9245
:102450008A95E1F78AE0FE01E753FF4FA5E7B1E077
:1024600001900D928A95E1F70E94081083FF2AC01F
:102470008AE0EFE7F1E0DE01119601900D928A9576
:10248000E1F78091830181111DC080E48B8388E195
:102490008C8382E58D831F8280E288878AE0FE013B
:1024A0003196DE01AB54BF4F01900D928A95E1F752
:1024B0008AE0FE01EB54FF4FAFE7B1E001900D92CF
:1024C0008A95E1F7E090570186E08E0D20E18202C7
:1024D000C0011124B9E5CB2EB1E0DB2ED60130E0EE
:1024E00020E08E5A974FFC01E20FF31FE491ED9329
:1024F0002F5F3F4F20313105B1F79091550129E60B
:1025000031E0E9E5F1E08191DF011197890F8C93CA
:102510002E173F07C1F7B12CA12C812CD6010D91AC
:102520006D01002E000C110B912C282D290D80918E
:10253000560142E259E0B801F501E80FF11D87FDAF
:10254000FA95CF010E940210085F1F4F9394F4E0A8
:102550009F12EBCF8F0E28E0A20EB11C30E8A3161D
:10256000B104E1F630905801D12C10916A01D116D6
:102570000CF026C70D2D0D2C000C110B2AE04D2D53
:102580004202C001112485599E4F209FF001219FD6
:10259000F00D1124E559FE4F2181213009F460C06E
:1025A0002AE0DE01A555BF4F01900D922A95E1F773
:1025B000DC0112962C91129713963C911397149666
:1025C0005C91149717964C915523E1F01E140CF072
:1025D00030C1B3E0BE1584F4215010C0813F0CF42B
:1025E000C5CE815080935601C1CE80310CF0CECE45
:1025F0008F5F80935601CACE40FFEECF13140CF0CC
:1026000023C13F5FC355DF4F2883CD5AD040C25509
:10261000DF4F3883CE5AD040C155DF4F5883CF5A51
:10262000D040CE54DF4F4883C25BD0402AE0FE0149
:10263000E555FF4FDE01AF55BF4F01900D922A9532
:10264000E1F72AE0209FD001219FB00D1124A55968
:10265000BE4FFE01EF55FF4F01900D922A95E1F715
:10266000C090690140905101509052016090530117
:1026700070905401EBE6F1E0BFE7AB2EB1E0BB2E6A
:102680004AE0409F9001419F300D112425593E4F53
:10269000A901475F5F4FCD52DF4F59834883C35D28
:1026A000D04048505109B9016C5F7F4FA3E68A2E94
:1026B0002A5F3F4F94809920E1F19680A1E0A9150F
:1026C000C0F5DC0111969C90B2E0B91590F5DC01E3
:1026D00014969C90992069F1B3E69B1651F1DC01A8
:1026E00013969C90B0EF9B0EA0E22A2E291408F1BD
:1026F000DC0112969C90B0ED9B0E2914D0F0CD52C7
:10270000DF4FA881B981C35DD0409C909A949C9280
:1027100091100FC0DA019C90B3E09B1201C0C12C54
:10272000DB018C92D9011C92B2E34B0E511C611C4F
:10273000711C3A96AE16BF0609F0BCCF409251010B
:10274000509252016092530170925401C0926901FB
:1027500020918301222309F44BC02091850122306E
:1027600008F446C0FC012181233008F441C02481D3
:102770002223F1F12336E1F1438150E020918201DF
:10278000022E000C330BBA01605F7F4F6217730794
:102790007CF1205F3F4F2417350754F1428150E010
:1027A00020918101022E000C330BBA01605F7F4F34
:1027B00062177307ECF0205F3F4F24173507C4F012
:1027C0002AE0209FF001219FF00D1124E559FE4FD2
:1027D0002181233011F4109269012AE0209FF00139
:1027E000219FF00D1124E559FE4F23E62483168224
:1027F0002AE0209FF001219FF00D1124E559FE4FA2
:102800008180FDE0F81508F4ADC0E82DF0E0E55F4B
:10281000FB4E0C9441262914DD155216B716B2143E
:10282000B214B214B214B214B2143F1747183319C9
:102830002615EE2009F4E2CEEDEFEE1614F42F5F2C
:10284000DDCE40FDDBCEFBCF332009F4DBCE3150B3
:10285000D9CE2AE0209FF001219FF00D1124E559E7
:10286000FE4FDE01A956BF4F01900D922A95E1F768
:10287000DC0111965C9011971296AC90129713960A
:10288000BC90139714969C90149715966C9015977E
:102890001696CC90169717967C90179718968C9151
:1028A0009920F1F08611CBC0772009F45DC07A94AD
:1028B000B2E09B1609F478C0B91508F458C0E1E0FD
:1028C0009E1609F486C0511009C06B2D70E02C2DA6
:1028D00044E25BE08A2D90E00E94FC0F81E0880DCD
:1028E000C856DF4F5882C859D040C756DF4FA8821C
:1028F000C959D040C656DF4FB882CA59D040C556D4
:10290000DF4F9882CB59D040C456DF4F6882CC59F4
:10291000D040C356DF4FC882CD59D040C256DF4F9A
:102920007882CE59D040C156DF4F8883CF59D040EE
:102930008AE0FE01E956FF4FDE01A357BF4F019029
:102940000D928A95E1F78AE0809FD001819FB00DBA
:102950001124A559BE4FFE01E357FF4F01900D9280
:102960008A95E1F7D39401CE70E2772EA1CFF3E000
:102970009F1609F441C064E0262E9210A4CFA394C0
:10298000A394BDE3BB1508F448C0B394B394E8E244
:10299000EB1508F056C0F0E3FB1508F054C058E3FF
:1029A000252E2B1498F025C0A394A39422E02B1578
:1029B000A0F5BA94BA9437E13B1508F442C04FE051
:1029C0004B1508F440C057E05B1598F043E0C42E67
:1029D0007ACFAA94AA9462E06B15F8F4BA94BA94E8
:1029E00087E18B1570F19FE09B1568F1A7E0AB15AF
:1029F00068F782E0C82E67CFAA94AA942DE32B151E
:102A000060F0B394B39438E23B15D8F440E34B152F
:102A1000D0F458E35B15D0F2ECCF0E943C2524E0C3
:102A200030E040E050E00E94AA2599249394960E4D
:102A300090E2792E20E2B22E30E4A32E44CF882EED
:102A400042CFC82C40CFCC24C3943DCF2AE0209F56
:102A5000F001219FF00D1124E559FE4FDE01AD5725
:102A6000BF4F01900D922A95E1F7DC0112969C90E0
:102A700012971396AC9013971496BC9014971596D2
:102A80005C9015971696CC90169717962C911797E1
:102A900018968C90BB2079F1581067C0222331F032
:102AA00077247A94720E20E0612C0CC0C394B3E0BA
:102AB000BC1508F05DC010926901B12CB0E27B2E0C
:102AC0006624639488248394820EBB2089F06A2D47
:102AD00070E0892D90E0E3E62C2DBE1269C040EC39
:102AE0005EE00E94FC0FF1E0FC1508F444C0C394C2
:102AF000272D611042C0CB57DF4F9882C558D04078
:102B0000CA57DF4FA882C658D040C957DF4FB88296
:102B1000C758D040C857DF4F5882C858D040C75711
:102B2000DF4FC882C958D040C657DF4F2883CA58E4
:102B3000D040C557DF4F8882CB58D0408AE0FE0195
:102B4000ED57FF4FDE01A758BF4F01900D928A95B8
:102B5000E1F78AE0809FD001819FB00D1124A55933
:102B6000BE4FFE01E758FF4FF9CE722E282D9CCFA5
:102B7000A0E27A2E99CF109269010E943C2520E5AF
:102B800030E040E050E00E94AA2570E3972E960EB8
:102B90000E943C2524E130E040E050E00E94AA255C
:102BA000E0E1AE2EA60E20E2C12CF4E5BF2EA3CFAD
:102BB00046E45BE00E94FC0F9BCF2AE0209FF001DF
:102BC000219FF00D1124E559FE4FDE01A159BF4FA1
:102BD00001900D922A95E1F7DC011296CC901297A4
:102BE00013969C9013971496AC90B12CAA20B9F12F
:102BF0009A94B0E5AB1629F0E1E5AE16E9F0B12CF8
:102C000011C0FFE3FC1548F160E3262E52E0B52E1B
:102C10002C1430F0BB24B39420E22C1508F0B12C16
:102C200034E0C30E692D70E02B2D48EC5BE08C2D59
:102C300090E00E94FC0F13C040E44C1570F45FE478
:102C400042E0B42E5C1530F4BB24B3946FE56C15F0
:102C500008F4B12C8CEFC80EE5CFB12CA12CE29674
:102C6000CFAEE297E3969FAEE397E496AFAEE497DC
:102C7000E696BFAEE6978AE0FE01E159FF4FDE011E
:102C8000AB59BF4F01900D928A95E1F78AE0809F82
:102C9000D001819FB00D1124A559BE4FFE01EB5903
:102CA000FF4F5CCE2AE0209FF001219FF00D112400
:102CB000E559FE4FDE01A55ABF4F01900D922A95AE
:102CC000E1F7DC011296AC90129713969C90139743
:102CD0001496CC9014971696BC90169717968C91D4
:102CE000CC2009F441C0882381F088248A94880E7E
:102CF000282D21702B0D692D70E042EE5BE08A2DAE
:102D000090E00E94FC0F8C2D09C0B2E5CB1609F4AF
:102D1000F7C3E3E530E2832ECE12EACF6E96AFAE74
:102D20006E976F969FAE6F97A0968FAFA097A29663
:102D3000BFAEA297A3968FAEA3978AE0FE01E55A95
:102D4000FF4FDE01AF5ABF4F01900D928A95E1F718
:102D50008AE0809FD001819FB00D1124A559BE4FFC
:102D6000FE01EF5AFF4FFACD882E80E0D7CF2AE040
:102D7000209FF001219FF00D1124E559FE4FDE0147
:102D8000A95BBF4F01900D922A95E1F7DC011296E5
:102D90009C9012971396AC9013971496CC9014971E
:102DA0001696BC90169717968C90CC20E1F188204F
:102DB00081F08A9488EF890D813718F010926901AB
:102DC000C12C88EF8A0D8133D8F010926901C12C93
:102DD0002AC0B2E3CB1669F0E3E3CE1619F020E285
:102DE000822EE8CF1092690188E08093F001C12C17
:102DF000F6CFB0E28B2E82E0B82E93E3C92EDACF65
:102E0000CC2089F06A2D70E0892D90E0F3E6CF1296
:102E10002EC02B2D40EC5EE00E94FC0F2224239458
:102E20002B1498F2B3942A969FAE2A972B96AFAEA6
:102E30002B972C96CFAE2C972E96BFAE2E972F9613
:102E40008FAE2F978AE0FE01E95BFF4FDE01DD9632
:102E500001900D928A95E1F78AE0809FD001819FD1
:102E6000B00D1124A559BE4FFE01FD9677CD282D3A
:102E700021702B0D44E05CE00E94FC0FD4CF2AE0CF
:102E8000209FF001219FF00D1124E559FE4FDE0136
:102E9000D39601900D922A95E1F7DC011296CC9021
:102EA00012971396BC9013971496AC90149715969E
:102EB0009C90159716967C90169717968C9017975E
:102EC00019966C90AA2009F432C3B3E6AB1609F444
:102ED0002EC38820E9F08A94E6EFEA0DE03108F08D
:102EE00073C0F0E0E858F84E892D90E00C9441262C
:102EF0009617C217A7179D17FD17D517EB17F517CC
:102F0000F517D517EB17FD179D17C217A7179617BB
:102F10000E943C2528E030E040E050E00E94AA25D5
:102F2000F2E1AF2EA60EA0E28A2ED6CF9C012C0D88
:102F3000311D203831054CF4C90C8B0D911D8034A6
:102F400091050CF0F3C2B90C09C0A12CF6CF8C0D81
:102F5000911D803891050CF0E9C2C90CE9E2EC152D
:102F600008F4EEC2F6E1AF1621F0EDE02E2EA2102D
:102F7000E1C22FE064E0F62E2B1508F4E1C275E003
:102F8000F72EDEC29C012B0D311D203431055CF47F
:102F9000B90C2B2D30E0281B390B121613060CF040
:102FA000C5C2B918DBCFA12CF4CF2C2D30E0281BE3
:102FB000390B121613066CF4C9188B0D911D803451
:102FC00091050CF0B3C2B90CA9E2AC1508F4B8C273
:102FD000CCCFA12CF2CF2C2D30E0281B390B1216B0
:102FE00013060CF0A3C2C918EFCF2C2D30E0281B1C
:102FF000390B121613065CF4C9182B2D30E0281B70
:10300000390B121613060CF091C2B918DDCFA12CA2
:10301000F4CF65E56C1508F0A3C28EE0A81609F49C
:1030200075C295E1A91609F471C2AFE034E0F32E40
:10303000AB1508F495C296E0F92E92C20E943C2589
:1030400022E030E040E050E00E94AA259AE0A92E5C
:10305000A60EFAE0AF1659F08BE0282EA21471F0FC
:103060006624639460E2862E79E0A72E8DC26624E2
:103070006394B0E28B2EB12CC12C86C2662463947B
:10308000E0E28E2EF2E1BF2EACE7CA2E7DC22AE02E
:10309000209FF001219FF00D1124E559FE4FDE0124
:1030A0005F9601900D922A95E1F7DC011296AC90A3
:1030B000129713969C9013971496CC90149715968C
:1030C0008C901597CC2009F473C01696BC90169777
:1030D00017967C90179719966C90772039F17A940F
:1030E00082EE8C0D823008F07DC0282D30E08A2DD4
:1030F00090E0821B930B492D50E0421B530B14169A
:1031000015060CF051C098182EE1C21258C21816BC
:1031100019060CF04DC0A818692D70E02B2D48E061
:103120005DE08A2D90E00E94FC0F6EC0BBE1CB16E3
:10313000F1F0BC1530F0EAE1CE1679F140E2742EE0
:10314000CFCFFCE1CF16D1F05DE1252EC210F6CF36
:1031500080916901811104C0692D8A2D0E94171088
:1031600060E2762E73E0B72EEFE1CE2EB9CF20E2EB
:10317000722EBB24B3943DE1C32EB2CF809169017E
:10318000811104C0692D8A2D0E941710F0E27F2E54
:10319000A2E0BA2EBEE1CB2EA3CF80E2782EBB24D4
:1031A000B3949CE1C92E9CCF803891050CF4A80CF7
:1031B0000E943C2522E030E040E050E00E94AA2539
:1031C0005AE1C52EC60E5AE1C516C9F16BE1C61605
:1031D00009F43FC066246394F0E27F2EB12CA9E18C
:1031E000CA2E12C0CC2021F333E6C31295CF692D2D
:1031F00070E02B2D40EC5EE08A2D90E00E94FC0FE9
:1032000041E04B15A8F2B394A9A29AA2CBA28CA23A
:10321000BDA27EA268A68AE0FE017F96DE015596D9
:1032200001900D928A95E1F78AE0809FD001819FFD
:10323000B00D1124A559BE4FFE0175968FCB6624A3
:10324000639420E2722EB12C32E1932E40E2A42E40
:10325000DBCF66246394B0E27B2EB12C82E1982E02
:1032600090E5A92ED1CF2AE0209FF001219FF00DFB
:103270001124E559FE4FDE011B9601900D922A950F
:10328000E1F7DC0112969C9012971396AC9013977D
:103290001496BC9014971696CC90169717968C900F
:1032A000BB2009F455C0882081F08A9488EF890DED
:1032B000813718F010926901B12C88EF8A0D8133A3
:1032C000A0F110926901B12C43C0B1E2BB1671F0BC
:1032D000E2E2BE16C1F0F0E2BF1205C0C3942224A0
:1032E00023942C14E0F040E2842EE0CFC39421E03C
:1032F0002C15C8F781E080936901C12C70E2872EFC
:10330000E2E2BE2ED3CFC39431E03C1560F781E0FA
:103310008093690188E08093F001B12CE4CFC12C47
:1033200050E2852E61E2B62EC1CFBB2089F043E684
:10333000B41227C06A2D70E02C2D40EC5EE0892D80
:1033400090E00E94FC0F51E05C1508F4BACFC394E2
:103350009D86AE86BF86C98A8A8A8AE0FE013B9630
:10336000DE01119601900D928A95E1F78AE0809F27
:10337000D001819FB00D1124A559BE4FFE01319699
:10338000EDCA61E2B61681F082E2B81699F090E2D9
:10339000B912DECF6A2D70E02C2D4EE75EE0892D4C
:1033A00090E00E94FC0FD4CF6A2D70E02C2D4CEEE3
:1033B0005DE0F5CF6A2D70E020E04AE85DE0EFCFF8
:1033C00020E042E951E162E170E080E390E00E9498
:1033D000FC0F21E042E951E162E170E080E590E01C
:1033E0000E94FC0F22E042E951E162E270E080E3DA
:1033F00090E00E94FC0F23E042E951E162E270E0BC
:1034000080E590E00E94FC0F24E042E951E169E18F
:1034100070E08FE390E00E94FC0F20E040E150E17B
:103420006BE270E090E080E00E94021020910201C7
:103430004EE65FE060E370E088E390E00E940210F7
:1034400080916901882319F1209103014CE35FE029
:1034500066E370E08CE090E0CC52DF4F0FB6F8945A
:10346000DEBF0FBECDBFDF91CF911F910F91FF90B7
:10347000EF90DF90CF90BF90AF909F908F907F9014
:103480006F905F904F903F902F900C94021020E02F
:1034900042E25FE066E370E08CE090E00E940210A0
:1034A000EBE6F1E030E040E131170CF090C08181B3
:1034B00096EF980F923010F08D30F9F48381869555
:1034C0008695869590E0C69680349105B4F4228165
:1034D000269526952695205F51E081FD54E080FDDC
:1034E000550F82FD5295887F489FD0011124A20F6D
:1034F000AC51BD4F8C91852B8C933F5F3A96D4CFC6
:10350000B82C20E2822E33E5C32EF2CBBFE0BB15F0
:1035100008F091CD23E0F22E6B2D70E02F2D46E2C6
:103520005CE08C2D90E00E94FC0F2EC0A12CE9E203
:10353000EC1530F03FE053E0F52E3B1508F01FCDC1
:1035400086ED8C0D8C3208F064CD4FE0FF24F394AF
:103550004B1530F45FE1F12C5B1510F442E0F42ED2
:10356000AA2009F46BCDB3E6AB12D6CF6B2D70E079
:10357000272D40EC5EE08C2D90E00E94FC0FE1E0F6
:10358000E71508F45BCD7394CDAABEAAAFAA98AE96
:1035900079AE8AAE6CAE8AE0FE01F396DE019996B2
:1035A00001900D928A95E1F78AE0809FD001819F7A
:1035B000B00D1124A559BE4FFE01B996CFC9803870
:1035C00091050CF0F5CDA80C8FE1C82EA5CDCC52FD
:1035D000DF4F0FB6F894DEBF0FBECDBFDF91CF91A6
:1035E0001F910F91FF90EF90DF90CF90BF90AF9021
:1035F0009F908F907F906F905F904F903F902F9013
:103600000895CF92DF92EF92FF920F931F93CF9383
:10361000DF930E943C2522E0C22ED12CE12CF12C1C
:10362000A70196010E94AA2560934F010E943C25A4
:10363000A70196010E94AA25062F60934E01809152
:1036400037079091380783709927892B29F4809147
:103650004D018F5F80934D01D0E0C0E020E046EC4B
:1036600055E070E060E0CE010E94FC0F2896C03863
:10367000D105A1F720E044ED54E06BE070E090E06C
:1036800080E00E94FC0F20E04AEB53E06BE070E02A
:103690008AE390E00E94FC0F20E048E053E068E2FB
:1036A00070E082E190E00E94FC0F10914D01812FAB
:1036B0006CE00E940D26983008F090E0292F46EE2D
:1036C00052E068E270E08FE090E00E94FC0F212F52
:1036D0002F73203108F020E044EE51E06BE270E0FF
:1036E00089E190E00E94FC0FC12FD0E09E012C5F89
:1036F0003F4F2770332742ED51E06CE270E089E1E3
:1037000090E00E94FC0F212F2F70283008F020E05D
:1037100040EB51E06EE270E080E290E00E94FC0F2E
:10372000812F6DE00E940D26983008F090E0292F3F
:1037300046EE52E060E370E088E290E00E94FC0F09
:103740007E0182E0E80EF11CC7016AE070E00E9491
:103750002D26282F42ED51E062E370E08AE390E0ED
:103760000E94FC0FCE01039668E170E00E942D26B6
:10377000883091050CF080E0282F40EB51E062E3A7
:1037800070E08EE390E00E94FC0F2596CE016FE082
:1037900070E00E942D26883091050CF080E0282FE3
:1037A00042ED51E062E370E084E490E00E94FC0F9F
:1037B000C7016FE070E00E942D26883091050CF063
:1037C00080E0282F46EE52E06FE270E083E590E063
:1037D0000E94FC0F212F277042ED51E06EE270E055
:1037E00089E590E00E94FC0F9E012F70332728305E
:1037F00031050CF020E040EB51E06BE270E080E638
:1038000090E00E94FC0F812F6BE00E940D26983003
:1038100008F090E0292F46EE52E069E270E086E67B
:1038200090E00E94FC0F602F70E06F5D7F4F8091F1
:103830004F0190E003E020E04CEA50E08A960E94BD
:10384000870BDF91CF911F910F91FF90EF90DF9049
:10385000CF9008950E94011B40E06EE777E085E27B
:1038600090E00E94980D8CE00E948D0D882319F045
:1038700081E08093F0010895CF930E94011B40E006
:103880006DEB77E08DE090E00E94980D41E06DEBEC
:1038900077E089E290E00E94980D42E06DEB77E0DE
:1038A00085E490E00E94980D43E06DEB77E081E6BF
:1038B00090E00E94980DC09101018C2F8250990BCD
:1038C0009C014BE1429FC001439F900D112440E0B9
:1038D00067EB77E009960E94980D80E40E948D0DB9
:1038E000882329F0C53018F4CF5FC093010180E22E
:1038F0000E948D0D882339F080910101833018F0EA
:1039000081508093010184E00E948D0D882321F075
:10391000809101018093F001CF910895CF930E948F
:10392000011B44E06DEB77E08FE190E00E94980D81
:1039300045E06DEB77E08BE390E00E94980D46E068
:103940006DEB77E087E590E00E94980D8091E301B0
:103950002CE1829FC001112440E067EB77E0C6961E
:103960000E94980D80E40E948D0D81110E9410101C
:1039700080E20E948D0D81110E940B108CE00E944C
:103980008D0D882381F0C091E30182E090E00E94D8
:103990009425C81729F06C2F82E090E00E949C25A6
:1039A00081E08093F001CF9108951F920F920FB69E
:1039B0000F9211248F939F938091E1009091E100E9
:1039C000937F9093E10083FF0FC01092E90091E094
:1039D0009093EB001092EC0092E39093ED00109224
:1039E000060298E09093F00082FF22C093E090934B
:1039F000E9009091F200992319F09AE39093E8007E
:103A00009091F701992341F09091F7019150909393
:103A1000F701911101C05D9A90910502992341F03F
:103A200090910502915090930502911101C0289A3E
:103A300084FF18C08091E2008E7E81608093E20056
:103A40008091E1008F7E8093E1008091F8018E7E6D
:103A500080618093F8019F918F910F900FBE0F901E
:103A60001F90189580FFF7CF8091E2008E7E8061D5
:103A70008093E2008091E1008E7E8093E10080914E
:103A8000F8018E7E8160E5CF1F920F920FB60F92E4
:103A90001124CF92DF92EF92FF920F931F932F93F7
:103AA0003F934F935F936F937F938F939F93AF93C6
:103AB000BF93EF93FF93CF93DF93CDB7DEB76C97B0
:103AC000DEBFCDBF1092E9008091E80083FF25C0E2
:103AD00068E0CE0145960E942A0F82EF8093E800AD
:103AE0008D8987FF39C09091E80090FFFCCF982F17
:103AF000907609F034C19E894F89588D2F89F88CB2
:103B0000911131C0803861F58091F6018093F10008
:103B10001092F1008EEF8093E8006C960FB6F89447
:103B2000DEBF0FBECDBFDF91CF91FF91EF91BF916F
:103B3000AF919F918F917F916F915F914F913F9145
:103B40002F911F910F91FF90EF90DF90CF900F90EA
:103B50000FBE0F901F9018959EEF9093E800C7CF6F
:103B60001092F100D5CF913059F48111D3CF41306B
:103B7000510581F68091F6018D7F8093F601CACFC1
:103B8000933049F48111C6CF4130510519F6809127
:103B9000F6018260F2CF953041F48091E80080FF19
:103BA000FCCF20682093E300B5CF963009F0A9C080
:103BB0000B8D1C8D22E01092E9001092F4011092FE
:103BC000F301F2122EC01092F2011092F1010E9444
:103BD000F90E1F8299E09983FA8291E09E8390EA20
:103BE00098879AEF99872091F3013091F401275F2C
:103BF0003F4F3C832B838D831092E9001092F40198
:103C00001092F3011093F2010093F10149E050E0AA
:103C1000BE016F5F7F4F80E00E94D30E0E94F90EBD
:103C200079CF1093F2010093F1010E94DD0DDC01C8
:103C300012960D911C910115110509F410C1D801BE
:103C4000ED91FC910480F581E02DBE016B5E7F4F0C
:103C5000C8010995009709F0FDC0F801008511859C
:103C6000EACFF3E0FF120EC08F89882309F440C029
:103C7000823061F440E867E083E396E10E94A00EA1
:103C8000811148CF81E28093EB0047CF813029F446
:103C900040E86BE087E296E1F1CF833099F70E942C
:103CA000DD0DDC011296ED90FC908E010F5F1F4F31
:103CB0006801E114F10479F0D701ED91FC910680DF
:103CC000F781E02DB801C7010995080F111DF70113
:103CD000E084F184EECFD8011C92F601019000201F
:103CE000E9F73197BF016C197D0940E0C601C6CFE5
:103CF00061E176E1FB01449150E080E80E94D30E3F
:103D000009CF973009F4BECF983021F481E0809339
:103D1000F10000CF993009F0FDCE837009F0B2CFE9
:103D2000E6E1F1E081E031E096E32191222371F0B8
:103D30008093E9003093EB00DF0111972C912093E1
:103D4000EC009093ED008F5F873079F78EE78093DA
:103D5000EA001092EA008F8980930602DBCE8B8DF9
:103D60009C8D1092E9001092F4011092F30190934F
:103D7000F2018093F101898D811151C08E899D8955
:103D8000913A49F4813209F07DCF47E050E068E094
:103D900071E080E0B3CF913209F074CF833269F4DF
:103DA0008F89988DB0E0A0E0809304019093050185
:103DB000A0930601B0930701ADCE803269F48091E3
:103DC000E80082FFFCCF67E088E091E00E942A0FC4
:103DD0008BEF8093E8009ECE823209F09BCE8F89D4
:103DE00080930F018091080190910901A0910A012F
:103DF000B0910B01803B9440A105B10569F480911D
:103E00000F0180FD09C088E78093F501809164006F
:103E10008F7D809364007ECE1092F5017BCE0E9450
:103E2000DD0DDC0112960D911C910115110509F4AF
:103E300029CFD801ED91FC910190F081E02DBE01D8
:103E40006B5E7F4FC8010995811164CEF801008532
:103E50001185EBCF181619060CF45CCE13CFF1E0E8
:103E6000FF12FFCE65E176E145CF0F930FB70F93B9
:103E70001F9211248F939F93EF93FF93ECEEF1E049
:103E80008091E70191E08D5F8D3710F08D5793950C
:103E90008093E7018081890F80839181911D9183B7
:103EA0000281011D02838381811D838309270F7095
:103EB000092702950093E60135D081110093E401B2
:103EC000803989F40091E501901B963070F087E706
:103ED000809300088093010888E198E08093600057
:103EE00090936000FFCF9093E5018091F5018150A0
:103EF00018F08093F50159F3E8EEF1E080819181AB
:103F000001968083918382819381811D911D82839B
:103F10009383FF91EF919F918F911F900F910FBF0E
:103F20000F9118958FB18095807F669B88601C9B50
:103F3000846008952F923F924F925F926F927F928A
:103F40008F929F92AF92BF92CF92DF92EF92FF92A9
:103F50000F931F93CF93DF9335E3C32E31E0D32E1E
:103F6000CCE0D2E010E000E0772473944BE1942E93
:103F700056E3852E69E0462E6DE3562E22242A94C0
:103F8000322CEEA5EE23A9F08FA59E2F93708917F2
:103F900008F49BC0F0E0F595E795F595E795EE0FF1
:103FA000FF1FE05DFA4E85919491F6019283818323
:103FB0001FA69CA99923F9F08DA9292F2F77022EEE
:103FC000000C330B821713060CF489C08A8197FF0B
:103FD0007FC081508A838A8181117CC081E08A837D
:103FE000EA81F0E0EE0FFF1FE05DFA4E85919491BB
:103FF0009EA38DA31DAA58A5552321F13AA529A555
:10400000311119C0422F407426FF6CC08DA19EA1B2
:10401000850F911D57FD9A9527FD69C097FD65C0D5
:10402000442309F466C0863BF4E29F0714F085EB55
:1040300094E29EA38DA381E0830F8AA72F7332178A
:1040400008F01AA69BA5992371F0EA81EE2359F096
:104050008DA52CA5482F4F71322F3F71431708F0C3
:104060004AC08F5F8DA749A9442311F13AA9632F54
:10407000607436FF6CC08DA19EA12BA950E027FF74
:1040800069C0840F951F97FD68C0662309F469C055
:10409000863B44E2940714F085EB94E29EA38DA343
:1040A0003F71822F8F71831708F05DC02F5F2BAB9C
:1040B00089A19AA1009709F45DC08F3F980709F480
:1040C0009AC001979AA389A396C08F5F8FA771CFDB
:1040D0008F5F80CF803408F483CF8FE380CF8F5FF2
:1040E0008DAB89CF8FA190E093CF90E080E041111C
:1040F000A0CF8FA3A0CF807EF1F480E28DA78DA505
:10410000807E51F09F3F09F1292F22952F70E20FF9
:10411000803411F49F70E90F88A9F0E0E80FF11DD9
:1041200087FDFA95EE0FFF1FE05DFA4E85919491A1
:104130009EA38DA398CF803231F426FD04C09F3F0B
:1041400011F080E4DBCF1DA6DACFE0E0E1CF8FA154
:1041500090E093CF841B950B96CF90E080E06111A7
:104160009DCF8FA39DCF27FF02C01BAAA1CF80E8C0
:104170008BAB9ECFC8010496672C01C0660C8A9554
:10418000EAF7909E5001919EB00C1124809EC001D0
:10419000819E900D11249C01245F3D4F79018881FF
:1041A0009981BC016F5F7F4F79836883FC014491E3
:1041B000403408F07CC04A83442319F088A9480F92
:1041C0004A83EA81F0E0EE0FFF1FE05DFA4E859131
:1041D00094919EA38DA389A5811102C08FA58FA361
:1041E0008CA585FD1DA689A19AA10097C1F28F3FDC
:1041F000980709F066CF20911001822F90E0002EE1
:1042000002C0959587950A94E2F780FD0AC00330B5
:1042100009F0F4C18091D50290E09595879580933F
:104220004401207F39F580912C0290916202890F20
:1042300090919802890F9091CE02890F09F4E6C1FE
:1042400084EEA82E82E0B82E9CE0E92E92E0F92EB2
:10425000F70180A10E94EA0FF7019183808312A2E7
:1042600011A2F6E3EF0EF11CAE14BF0489F780EF44
:10427000809310010F5F1F4FE696F5E0CF0ED11C23
:104280000430110509F07DCEDF91CF911F910F9180
:10429000FF90EF90DF90CF90BF90AF909F908F9066
:1042A0007F906F905F904F903F902F900895403A8D
:1042B00008F009C1E42FE054FF0BEC30F10509F4DC
:1042C000BFC00CF04CC0E530F10509F4A2C0F4F415
:1042D000E230F10509F49DC094F4309709F491C0DF
:1042E000319709F080CF029699838883FB0164910E
:1042F00068A780E0413409F080E489A774CFE330F7
:10430000F10509F493C0349771F36DCFE830F105EE
:1043100009F462C0A4F4E630F10509F487C03797C8
:1043200009F061CFFB0164916BA79C012D5F3F4FAA
:1043300039832883FC013296E491ECA754CFEA300C
:10434000F10509F47BC002963B970CF471C0998388
:104350008883FB01849168A9680F68AB44CFE3317F
:10436000F10509F477C064F5EF30F10509F470C088
:10437000DCF4ED30F10509F469C03E9709F033CF64
:10438000FB012591349129AB9C012D5F3F4F39836F
:104390002883FC0132962591349180E04E3409F057
:1043A00080E4820F8AAB1FCFE131F10509F450C0E0
:1043B0003CF3029699838883FB0164916CAB13CF25
:1043C000EC35F10509F451C04CF4E431F10509F480
:1043D00043C0759709F007CF1BA605CFEE35F10551
:1043E00009F45CC00CF454C0EF35F10509F0FBCEC4
:1043F000809110018625809310011FA23AA229A264
:10440000F2CE029699838883FB0164916FA36FA714
:10441000EACEFB01649168A79C012D5F3F4F398371
:104420002883FC013296E491E9A7DDCE18A6DBCE05
:1044300099838883FB0164916EA7D5CE1EA6D3CE47
:10444000029699838883FB01649187CF18AACBCE0B
:1044500019AAC9CE1CAAC7CEFFEFFBA70296998363
:104460008883FB0164916CA7BECE029699838883F2
:10447000FB016491E0910B026E0F60930B0270E000
:10448000C2010E942D2670934A0160934901ABCE70
:10449000029699838883FB016491EFCFACE0B2E090
:1044A00021E030E0FC01E20FF31FE4919096EC93E1
:1044B00090972F5F3F4FD6962530310599F7059697
:1044C0009983888390CE403E28F44F59550B5AA3C8
:1044D00049A389CE403EA9F4DE0190E080E09695A4
:1044E000982F882797958795ED91FD91E4912E2F30
:1044F0002F77822BE7FDF3CF8F5B9F4F9AA389A382
:1045000072CE4C3F08F46FCE24E0240F223008F026
:1045100039C04C3FA9F1029699838883FB016491CD
:10452000E881F9819F012F5F3F4F39832883E49110
:104530005CA15E1701F14F8D842F90E07BA1D70124
:10454000A80FB91F51967C93519758965C93D5014B
:10455000A80FB91FAA0FBB1FA45FBD4F8091070210
:1045600090910802281B390B14963C932E931397B5
:104570004F5F4F8FECA36BA38CA10E94EA0FA0CFDB
:1045800060E0CECFDE0190E080E04E3F29F58BA1C8
:1045900081111FC0EF8DEE2379F3E150EF8FF0E032
:1045A000D501AE0FBF1FAA0FBB1FA45FBD4F8091E7
:1045B00007029091080213962D913C91820F931F50
:1045C00099838883EE0DFF1D81898BA3808D8CA339
:1045D0000ACE81508BA3D0CF9695982F8827979598
:1045E0008795ED91FD91E4913E2F3F77832BE7FD79
:1045F000F3CF680F791F79836883F5CD8DA19EA1D4
:10460000F601928381838FA180830BCE88EDECE04D
:10461000F2E011928A95E9F7109272002BCE2F9258
:104620002FB62F932091340120952093340109F067
:104630008BC0BF93AF930F921F92209140010090C7
:104640004201020E0092420120914101109043016B
:10465000121E10924301B12DB7FDB095BB0FA09172
:104660003F01B058BA02110CA12D209136010090E3
:104670003801020E00923801209137011090390163
:10468000121E10923901212D220F2121B0913501E6
:1046900027FDB195AB0F20913B0100903D01020E2B
:1046A00000923D0120913C0110903E01121E10929B
:1046B0003E01B0913A0117FCB195AB0FB1E000900B
:1046C000450110904601000C111C17FC0B2616FC2E
:1046D0000B260092450110924601B091440117FC4F
:1046E000B195AB0FB0910001AB0FA093CF00B0918B
:1046F0004C01A0914B01119729F0B0934C01A0936C
:104700004B011EC0B0914A01A0914901B0934C01E8
:10471000A0934B0178943F934F935F936F937F9354
:104720008F939F93EF93FF9311240E949A1FFF9101
:10473000EF919F918F917F916F915F914F913F91F9
:104740001F900F90AF91BF912F912FBE2F90189572
:10475000E4EEF6E01382128288EE93E0A0E0B0E08F
:1047600084839583A683B78380E291E091838083DD
:104770008FEF9FEF95878487E4E3F7E082E391E092
:10478000918380831582168280E18783148213824D
:1047900011860895789483E084BD83E085BD81E02F
:1047A00080936E00E1E8F0E083E08083E0E881E060
:1047B0008083E1E983E08083E0E981E08083E1ECCC
:1047C00087E08083E3EC81E08083E0EC82E080831B
:1047D000E2EC81E08083EAE787E080838068808381
:1047E000109206021092F6011092F8018091D70003
:1047F00081608093D70080EA8093D80089B580617A
:1048000089BD89B5826089BD09B400FEFDCF81E014
:1048100090E00E94370F8091D8008F7C8061809358
:10482000D8008091E000807F8093E0008091E100DB
:104830008E7E8093E1008DE08093E200559A209A6D
:1048400081EC80937C0081EF85B987EE84B984E3A5
:104850008BB984EF8AB9769A6E9880EF81BB10BAD3
:1048600080E58CBD81E08DBD0E944B0F5F9902C039
:104870005F9AFACF5C98E0EBF5E19DE085918EBD03
:1048800000000DB407FEFDCF8EB59A95B9F75C9A7E
:1048900081E88093640081E08093650082E090E08D
:1048A0000E949425882309F454C00E94101081E2CC
:1048B00080933B07809164008E7F80936400809199
:1048C0007A00806480937A0080917A0086FDFCCF24
:1048D000C0917800D09179000E94D20FAB01BC0149
:1048E000CE01B0E0A0E0DC01992788278C019D0172
:1048F000040F151F261F371FC901B801209164003E
:10490000216020936400611571058105910511F006
:104910000E948B250E948910EE24E394C4EED2E01D
:1049200000E010E0DD24D3949091EC0180913C07ED
:10493000292F281B822FF0903D07FF2069F020933C
:104940003E0710923D070115110571F30E9400000A
:10495000EBCF0E940B10ABCF20913B07821738F4AE
:104960008F5F821780F7E3BE889513BEECCFD0929D
:104970003D0790933C078091370790913807019647
:1049800090933807809337078091390780933A07CF
:104990000E940810809339079F2DFE0191119FEF0F
:1049A0008FEF91939193919391938150D0F7E091F0
:1049B000F001F0E0EE0FFF1FE354FA4E8591949161
:1049C000FC010995FE0180E098E000800EBCF1102A
:1049D000012C019780FDFDCF0192B9F70DB4B3CF43
:1049E0008F929F92AF92BF92CF92DF92EF92FF92FF
:1049F000CF93DF93EC01688179818A819B81611576
:104A000071058105910521F464E279ED8BE597E06C
:104A10002DE133EF41E050E00E94AA2549015A01FF
:104A20009B01AC01A7EAB1E40E94C9256B017C019E
:104A3000ACEEB4EFA50194010E94D725C60ED71E97
:104A4000E81EF91EF7FE06C081E0C81AD108E10889
:104A500080E8F80AC882D982EA82FB82C701B601DF
:104A60009F77DF91CF91FF90EF90DF90CF90BF9035
:104A7000AF909F908F9008958F929F92AF92BF9228
:104A8000CF92DF92EF92FF9260911101709112012B
:104A900080911301909114016115710581059105B3
:104AA00021F464E279ED8BE597E02DE133EF41E00D
:104AB00050E00E94AA2549015A019B01AC01A7EAD6
:104AC000B1E40E94C9256B017C01ACEEB4EFA501F5
:104AD00094010E94D725C60ED71EE81EF91EF7FEC8
:104AE00006C081E0C81AD108E10880E8F80AC0923F
:104AF0001101D0921201E0921301F0921401C7014A
:104B0000B6019F77FF90EF90DF90CF90BF90AF906E
:104B10009F908F900895609311017093120180937C
:104B20001301909314010895F999FECF92BD81BDB0
:104B3000F89A992780B50895262FF999FECF1FBAC4
:104B400092BD81BD20BD0FB6F894FA9AF99A0FBEB6
:104B500001960895052E97FB1EF400940E94C1252E
:104B600057FD07D00E94DC2507FC03D04EF40C94BF
:104B7000C12550954095309521953F4F4F4F5F4F40
:104B8000089590958095709561957F4F8F4F9F4FB9
:104B900008950E94FE25A59F900DB49F900DA49F9F
:104BA000800D911D11240895B7FF0C94C9250E9412
:104BB000C925821B930B0895A1E21A2EAA1BBB1BC9
:104BC000FD010DC0AA1FBB1FEE1FFF1FA217B307D9
:104BD000E407F50720F0A21BB30BE40BF50B661FEF
:104BE000771F881F991F1A9469F7609570958095B3
:104BF00090959B01AC01BD01CF010895A29FB0012A
:104C0000B39FC001A39F700D811D1124911DB29F00
:104C1000700D811D1124911D0895991B79E004C028
:104C2000991F961708F0961B881F7A95C9F78095EB
:104C30000895AA1BBB1B51E107C0AA1FBB1FA617E3
:104C4000B70710F0A61BB70B881F991F5A95A9F735
:104C500080959095BC01CD01089597FB072E16F421
:104C6000009407D077FD09D00E94192607FC05D0D3
:104C70003EF4909581959F4F0895709561957F4F73
:104C80000895EE0FFF1F0590F491E02D0994F8941C
:024C9000FFCF54
:104C920080030101FFFFFFFF00E1000000000000B0
:104CA200F00100000000C18081000000000000004F
:104CB200F10D4F0F120E070E580E160E340E000095
:044CC20000001610C8
:00000001FF
