:100000000C9425050C944D050C944D050C944D0550
:100010000C944D050C944D050C944D050C944D0518
:100020000C944D050C944D050C941F0D0C948E0DE5
:100030000C944D050C944D050C944D050C944D05F8
:100040000C944D050C944D050C944D050C944D05E8
:100050000C944D050C944D050C944D050C94D20F49
:100060000C944D050C944D050C944D050C944D05C8
:100070000C944D050C944D050C944D050C944D05B8
:100080000C947F0F0C944D050C944D050C944D056C
:100090000C944D050C944D050C944D050C944D0598
:1000A0000C944D050C944D050C944D052C081F1F08
:1000B0001F1F1F0707071F1F1F011C14151D011FEE
:1000C0001F03070F1F1F1E001C14151D011F1F1EDD
:1000D0001E1F1F1F1F011D14141C202840404040DC
:1000E00040404000FFFFFFFF833BFB9396F6E6ECAA
:1000F000ECECECCC0C6CECECECEC2C2CFEF2F2FE10
:10010000028822007FFFFFFFFFFCE10D7D4D4D7D4A
:100110007D7D7DFDFDFCFFFFFFFFFFFFFFFFFFFF7C
:10012000FEF8E28820831FFF8F838080808080001C
:1001300080E0F8E0830F3FFFFF7F7FFF4F49494F8B
:100140004F4FCFCF6E2862C8C24842480208031EF4
:10015000FFFFFFFFFFFE380803020203000000005C
:100160000E1B3166C680D060311B0E00E0A3E30099
:10017000013F3F3F3330303030181878EC8C38F086
:100180001858D8D8D8D8D8D8D8D8D8D8D8D8D8D82F
:10019000D8D89838F0E000000080C0E07F7F7C6114
:1001A0000000E007FFFFFFFFFFFFFFF7F7F7F7F79C
:1001B000F7F7C70600FFE0781EC7F1FCFEF8E08005
:1001C00038FFFFFEE00FFF3F3FFFFFFFFFFDFDFD9C
:1001D000FD7D7D7C7973610C7F7F7F7F030101C191
:1001E000701F073FFF80818181818180C0C0C0C0B6
:1001F000C0C0C0E0606666607F404040F8FC6701B8
:1002000000030300010101F1F9FDFDFD3D3C3CFC53
:10021000FCF8F00000FCFCFCFCFC1C1C7030B098EE
:10022000D8D8D8D8D8D8D8D8D8D898B8307060C04E
:10023000800000C0F03898D8D8D89830FEFFFF7FF3
:100240001F070301010181E3FFFFFFFFE7E7FE381E
:10025000033F8FE3F8FEFFFFFFFFFFFF7F1F07074E
:10026000070707C7FFFF7F7FFFFFFF3F0F0300E088
:10027000F8FEFFFFFFFF3F0F071F7FFF40707C7CF2
:10028000FC808383838382828383808080E038F84C
:10029000E080808080828EB8E08080E13CFCFCF8C9
:1002A000710101E1F9FDFD3D1D1D9DBDBCBCB88086
:1002B00001010101010767610131797960C0603096
:1002C00098CCE673393D65E5FD01FF9E1C38F0E0F2
:1002D000C00040404040404040404040FEFCFEFFE7
:1002E000FFFFFFFEFCE4E6FF3F80FFFFFFFFFFFF95
:1002F000FFFF008822882200FEF2F2FEFFFF7F3F10
:100300001FFFFFFFFFFFFF7F00FFFFFFFFFFFFFF5C
:10031000FF0120882208E0FFFFFFFFFFC18080C0AF
:10032000E0C3C387840C0F003F7FFFFFFFFFFFFF89
:100330000F00024842484F4F4F49494F3F0F0F0FA0
:1003400007E3A7E707070F0E0E1C1C191B1F1F1F33
:1003500000060670507000000000000014087F4185
:100360007777417F4155555D7F415F5F7F4175756F
:10037000717F7F417575717F415F5F7F4175754109
:100380007F717747717F7F5D415D7F417B77417FE3
:100390004175757D7F415D5D417F7F415D5D5D7F25
:1003A000415D5D417F417B77417F4175757F7F5125
:1003B0005555457F4175757D7F497777497F0000A9
:1003C00000007F415D5D417F4175757D7F417575A1
:1003D0007D7F000000007F415D5D417F417B774173
:1003E0007F0000000000000000004020FFFFFF072A
:1003F00007E7E7676767676767E7E70707FFFF9F45
:100400009F07077F7F1F1F9F9F87879F9F1F1F7FBC
:100410007F9F9FE7E76767E7E7FFFF0707E7E76774
:100420006767676767E7E70707FFFFFFFFFFFF00F3
:10043000007F7F6060606060607F7F0000FFFF1969
:1004400019F8F80606F8F86767E1E179799E9E06E3
:100450000681816161E6E60101FFFF00007F7F60A8
:1004600060606060607F7F0000FFFFFFFFFFFFE6CE
:10047000E6E6E66666868666661E1E6666676766EA
:10048000660707E6E67F7F6060E7E7060661611EB4
:100490001EE7E79E9E8181989887879E9E86861E8E
:1004A0001EE6E6FEFEE6E69E9EFFFFFFFFFFFF6103
:1004B0006187878080E7E76666787866667878F88F
:1004C000F8E0E09999E0E09E9E878766666060802C
:1004D00080E7E7F9F9818179791F1F9F9F818198D2
:1004E00098E7E70707F9F99F9FFFFFFFFFFFFF006E
:1004F00000E1E18787E1E1F8F8E6E6666698986151
:1005000061E7E781817F7F6161878760607E7E1917
:100510001987879F9F999998989E9E1F1F79799F09
:100520009F1F1F0606F9F99F9FFFFFFFFFFFFF6058
:10053000607F7F7F7F7F7F7F7F79796666F9F900B3
:10054000009F9FF9F9E0E09E9E1F1F7E7E60601E67
:100550001E87879F9F19190707E7E76666E0E00196
:10056000011E1E060681818787FFFFFFFFFFFF0038
:1005700000FEFE060606060606FEFE0000FFFF065B
:10058000060707E1E17F7F6161F8F8E6E678781811
:100590001887877F7F9898E0E007076666070760FF
:1005A000600000666607078787FFFFFFFFFFFFE029
:1005B000E0E7E7E6E6E6E6E6E6E7E7E0E0FFFFE0BD
:1005C000E0FEFEE7E7E0E0FEFEFFFFF9F9F8F8F8ED
:1005D000F8E7E7E6E6E7E7F9F9FEFEF8F8E0E0E637
:1005E000E6E0E0E6E6F8F8FFFFFFFFFF6018000036
:1005F00000000000000000000000000000000000FB
:100600000000000000007F415D55577F416D6D5136
:100610007F4155555D7F416D6D417F057D417D0574
:100620007F4155555D7F415D5D633E007F415D5576
:10063000497F117747711F00000000000000000093
:1006400000000000000000000000000000000000AA
:10065000000000007F416D6D417F007F4175151DD9
:100660007F417F515555457F417777417F007F41DD
:100670005D55577F416D6D417F415F50507F415FB8
:1006800050507F4155555D7F415D5D633E007F4128
:100690005F685F417F416D6D417F417B77417F4165
:1006A0005D5D637F416D6D417F0000000000007F54
:1006B000416D6D417F417B77417F415D5D633E00D0
:1006C0007F417D137D417F416D6D417F417B77414E
:1006D0007F117747711F007F417D137D417F416D01
:1006E0006D417F417B77417F117747711F007F41CB
:1006F0005D5D417F057D417D057F417777417F418C
:1007000055555D7F416D6D517F515555457F482849
:1007100000707070F0F0F0007070701000008000D9
:10072000C0E0F0F0F0E00804E4F2F2F2C28201016D
:10073000F1F1F10107F0F1F10181E1F2F23212027F
:10074000F4F4F0707070707060400070707070F051
:10075000E0C080000000000000000000FFFFFF007C
:1007600080601884E2F17C3F3F3F39FBFBFB0000D7
:10077000FF3FDF21171726D02FDF9F40405F5F5FCD
:1007800040479F3FFCF0C080FFFFFFE0EEEEEEE24F
:10079000602000FFFFFFF8E0E3E7FFFEFC700000D1
:1007A000040C0C2C2C2C2C2C2DACACACAC2C2C2CF0
:1007B0002C2C2C2C2C2C2C2C2C2C89C244042209C3
:1007C000080D13179489D3DFDFDECC432EACB09035
:1007D000A42C6CEC4C8C2C2C2C2C2C2C2C2C2CADE0
:1007E0002C2C2C2C2C0C0C04000000000000000011
:1007F0000001060810204080800080400000145650
:1008000057450090A02000200014353535353505BA
:1008100001515456570757073319400608428000C4
:1008200000804020110D03010000000000000000C6
:1008300000000000000000000000000000000000B8
:100840000001000204040408080810101010102011
:10085000202020203C0020202020111111111009FF
:1008600008080404040202010000000000000C005B
:100870000C0004000C00040008080010D6BABAD618
:100880006C003074C8B6B64C38003C64583E5864AE
:100890003C001C265B5B643A180000366B5D5D6BA8
:1008A00008001C326D6D132E0C003C261A7C1A2693
:1008B0003C000C2E136D6D321C000808000000185F
:1008C0001800000000000000000000000000000010
:1008D000000000000101010101010101010101010C
:1008E0000101010101000000000000010100000001
:1008F00000000001010000010100000000000001F3
:1009000001000001010000000100000000000001E2
:1009100000000001010000010100000000000001D2
:1009200001000001010000000000000101000000C2
:1009300000000001010101010101010101010101AA
:100940000101010108087E81BDB9B1A5817E0000C9
:10095000000200090F0000030401000C0000000069
:1009600000000000000000000000000000080B0074
:100970000202020100090400000102020000052435
:1009800000100105240101010424020605240600CB
:10099000010705810310004009040100020A00005C
:1009A0000007050202400000070583024000000422
:1009B00003090412010002EF0201404123368000C6
:1009C000010102030141726475696E6F204C4C4352
:1009D0000041726475626F790000000000240027F6
:1009E000002A002D00300004080201104080401051
:1009F0002040804080080204018040201002011045
:100A000080102040402000000000250028002B001E
:100A10002E0031000404040404030405020202024F
:100A20000403020202020606060606060404020287
:100A3000020404230BD30AB80AFB09A60AE80CF245
:100A4000095B0BE909E80900371011241FBECFEF3D
:100A5000DAE0DEBFCDBF11E0A0E0B1E0E6E0F8E211
:100A600002C005900D92A234B107D9F725E0A2E4A7
:100A7000B1E001C01D92AF3FB207E1F715E0C5E25A
:100A8000D5E004C02197FE010E94FB13C432D107B8
:100A9000C9F70E9474100C9401140C940000CF93B9
:100AA000DF93A5EFB5E0CD91DC9111978881EBEF55
:100AB000F5E09081892B8883CD91DC911197888115
:100AC0009081892B8883C091F705D091F805988192
:100AD0008091FC058095892388830D90BC91A02D81
:100AE0009C918081809589238C93DF91CF9108958B
:100AF0004FB18CB123B190E08095909533E09595FE
:100B000087953A95E1F7887030E0209530953595D6
:100B10002795359527952470822B942F9095907F5B
:100B2000892B0895CF93C82F0E9478058091FE05E8
:100B30008C2329F48091FD05C82381E009F480E02D
:100B4000CF910895BF92CF92DF92EF92FF920F93D1
:100B50001F93CF93DF93DC01FA01D4903196E49197
:100B60004E5F5F4F2223D1F0C1E0D0E09E2F9770FF
:100B700011F4D0E0C0E08E2F8695869586958C0F77
:100B80009D2F911DD89EE001D99ED00D11242C9F40
:100B9000C0012D9F900D1124480F591F0D2D0D2CB4
:100BA000000C110B7D01E00EF11E1E141F040CF051
:100BB000B7C0A038B1050CF0B3C0CB018E0F911DAA
:100BC000E7FD9A95181619060CF0AAC06034710555
:100BD0000CF0A6C04115510509F4A2C09B0177FF96
:100BE00004C022273327261B370B2770CB0177FD44
:100BF000079633E0959587953A95E1F7F82F77FFBB
:100C000007C0222329F0FFEFF80F88E0821B282F6E
:100C1000CC27DD27CA1BDB0BB7FD02C0D0E0C0E04C
:100C2000BD2CBC1A30E8E316F10424F030E83A1B7E
:100C3000B32EBC1AEF2E0F2E000CFF086E2D609500
:100C4000FF3F0CF060E09E2F977897FF03C0915014
:100C5000986F9F5F81E019160CF080E0E7FDE95F77
:100C6000E595E595E595E80FEE0EF11C39E0E31604
:100C7000F10414F0E8E0EF1BFF2EF60E7F2D30E8B4
:100C80007303C00111248A0F9B1F8C0F9D1FA22F7D
:100C9000022E000CBB0B005811093D2D3603B0018C
:100CA00011246C0F7D1F460F571F481B590BEF2E49
:100CB000EE0EFE14A9F1BC01E62FE81BEB1550F572
:100CC000FA01E60FF71FE491F0E00A2E02C0EE0FE2
:100CD000FF1F0A94E2F7F7FC09C0C091DC01D09134
:100CE000DD01C60FD71FD880DE2AD882222379F0F3
:100CF00036E03F1564F0C090DC01D090DD01EB01DF
:100D0000C058DF4FCC0DDD1DE881EF2BE8836F5F0E
:100D10007F4FD2CFF39480589F4F400F511FC9CFC0
:100D2000DF91CF911F910F91FF90EF90DF90CF90C7
:100D3000BF900895FC0180918701882311F13FB78E
:100D4000F89482E08093E9002091F200822F90E0F5
:100D50001816190614F481E090E0882339F02898D9
:100D600044E6409386014091F1004083222339F00C
:100D70002091F200211103C02BE62093E8003FBF31
:100D800008958FEF9FEF0895E1E0F0E00E94D9060B
:100D9000319728F068517C4F8F4F9F4FF9CFAB01AF
:100DA000FC010E94D906641775078E079F07C8F3D8
:100DB0000895A3E6B1E02FB7F8947D918D919C91B1
:100DC00066B52FBFA89B05C06F3F18F47F5F8F4F9C
:100DD0009F4F22E0660F771F881F991F2A95D1F732
:100DE00008952FB7F89483E08093E9009091E8008C
:100DF000892F807295FF04C09091F20080E4891BD6
:100E00002FBF089580917E0181110DC082E08093F3
:100E10007A0184E080937B0110927D0110927C0125
:100E200081E080937E018AE791E0089540916E0110
:100E300050916F0120916C0130916D014217530761
:100E4000B4F49091E8009570E1F39091E80092FD80
:100E500019C08093F10080916E0190916F0101960D
:100E60008F739927892B19F48EEF8093E800809176
:100E70006E0190916F01019690936F0180936E01C6
:100E800081E0089580E00895EF92FF920F931F9301
:100E9000CF93DF93F82E192FE62E042F81E0860FD3
:100EA000880F0E94160783E00E941607CF2DD12FCE
:100EB000EC0EFD2EF11CCE15DF05B9F007FF13C0B7
:100EC000FE0184910E941607182F80E00E941607E9
:100ED000812321968111EFCFDF91CF911F910F9147
:100EE000FF90EF9008958881EDCF81E0F5CFDF92FC
:100EF000EF92FF920F931F93CF93DF93D82E8A0127
:100F0000EB017B01E40EF51ECE15DF0559F0D7FE8F
:100F100012C0FE0184910E94160721968111F4CF20
:100F20000FEF1FEFC801DF91CF911F910F91FF903D
:100F3000EF90DF9008958881EECF0F931F93CF93AA
:100F4000DF931F92CDB7DEB782E0898342E450E0A1
:100F50006DE679E080E80E9477070E940207DC01D5
:100F600012960D911C910115110589F0D801ED9192
:100F7000FC910280F381E02DBE016F5F7F4FC801BD
:100F8000099597FD04C0F80100851185ECCF898192
:100F90000F90DF91CF911F910F910895615030F024
:100FA0002091F100FC0120830196F8CF289884E677
:100FB000809386010895AF92BF92CF92DF92EF9215
:100FC000FF920F931F93CF93DF936C017B018B01F3
:100FD000040F151FEB015E01AE18BF08C017D10743
:100FE00059F06991D601ED91FC910190F081E02DCD
:100FF000C6010995892B79F7C501DF91CF911F9122
:101000000F91FF90EF90DF90CF90BF90AF90089539
:101010008F929F92AF92BF92CF92DF92EF92FF9208
:101020000F931F93CF93DF936C017B018A01809113
:101030001801882309F458C080918701882309F496
:1010400053C08091720180FF05C08091E0008260F2
:101050008093E000E801B12C8AEFA82E93E0892E5E
:101060002AE3922E209711F4BB20B9F10E94F106D9
:10107000811106C0AA94AA20B9F10E94C406F2CF39
:101080008C171D0611F00CF08C2F9FB7F8948092EE
:10109000E9002091E80025FD02C09FBFE3CF282F83
:1010A00030E0C21BD30BF701815020F041914093F7
:1010B000F100FACFE20EF31EBB2021F09092E8007F
:1010C000B12CEBCF8091E80085FDE7CF9092E8004E
:1010D000BB24B394209709F3F3CF5D9884E6809303
:1010E0007101101611063CF081E090E0F601938347
:1010F000828310E000E0C801DF91CF911F910F9132
:10110000FF90EF90DF90CF90BF90AF909F908F9027
:101110000895CF93DF931F92CDB7DEB76983DC01CB
:10112000ED91FC910280F381E02D41E050E0BE01A1
:101130006F5F7F4F09950F90DF91CF91089583E006
:101140008093E9008091F200882319F08AE380936C
:10115000E80008950E94F10690E00895CF93DF9390
:101160001F92CDB7DEB7FC018485958597FD08C039
:101170002FEF3FEF358724870F90DF91CF910895B0
:10118000CE0101960E949A06019719F4898190E098
:10119000F3CF8FEF9FEFF0CF0F931F93CF93DF939A
:1011A0001F92CDB7DEB78C01FC018485958597FF32
:1011B0000BC0CE0101960E949A06019771F48981B5
:1011C00090E0F80195878487F801848595850F90D4
:1011D000DF91CF911F910F9108958FEF9FEFF1CF86
:1011E000FC018485958597FD0BC09FB7F89482E03C
:1011F0008093E9008091F2009FBF90E001960895EE
:101200009FB7F89482E08093E9008091F2009FBF3D
:1012100090E00895282F30E0F901E25BF64F9491B9
:10122000F901E951F64F84912C5E354FF901249173
:10123000222309F430C09923E9F091509F30D0F473
:10124000E92FF0E0EA5DF64F0C94FB1354095809BE
:1012500035094C0950093A093A093A095B0961090B
:10126000650969096F093A097309909180009F77B0
:1012700090938000E22FF0E0EE0FFF1FEA5FF54F42
:10128000A591B4919FB7F894EC91611132C080950B
:101290008E238C939FBF0895909180009F7DE8CF0F
:1012A00090918000977FE4CF94B59F7794BDE2CF73
:1012B00094B59F7DFBCF909190009F779093900085
:1012C000D9CF909190009F7DF9CF90919000977F1A
:1012D000F5CF9091C0009F779093C000CBCF9091B5
:1012E000C0009F7DF9CF9091C200977F9093C2007C
:1012F000C1CF8E2BCECFCF93DF9390E0FC01E9518D
:10130000F64F24918C5E954FFC0184918823C9F09F
:1013100090E0880F991FFC01E752F64FA591B49118
:10132000FC01EA5FF54FC591D49161110DC09FB7E3
:10133000F8948C91209582238C938881282328838C
:101340009FBFDF91CF910895623051F49FB7F89419
:101350003C91822F809583238C93E8812E2BEFCFB5
:101360008FB7F894EC912E2B2C938FBFEACFAB0163
:10137000FC010E94D90641505109E109F10928F008
:1013800068517C4F8F4F9F4FF6CFAB01FC010E94FD
:10139000D906641775078E079F07C8F308958093D1
:1013A0007C0080E280937B0062E070E080E090E06F
:1013B0000E94B70980917A00806480937A008091BE
:1013C0007A0086FDFCCF8091780090917900089595
:1013D000089588E00E949205882319F087E08093A1
:1013E00079010895809157018F5F8093570187E0BD
:1013F00080937901089586E0809379018FEF9FEFC4
:10140000909397018093960160E08AE891E00E94B2
:1014100089086FEF8AE891E00C94890867FD695F9D
:1014200065956595659568308CF490E16902F001E9
:10143000112487FD895F859585958595E80FF11DB8
:1014400087FDFA95EC53F74F8491089580E0089555
:10145000CF93C82F862F642F8093890140938801F2
:10146000C830A8F4EC2F0C2E000CFF0BE65CF54FF7
:101470000C94FB138B0A950A420A490A5D0A690A11
:10148000750A7F0A61500E940E0A882369F0C0E045
:1014900011C06150885F0E940E0A8111F8CF8091BF
:1014A00089018F5F809389018091880181508093A9
:1014B0008801C1E08C2FCF9108956C5F885F0E94F6
:1014C0000E0A8111E4CF809189018F5F8093890199
:1014D000F0CF685F885F0E940E0A8111D8CF80919B
:1014E00088018F5F80938801EECF685F8C5F0E94D8
:1014F0000E0A8111CCCF809188018F5FD8CF685FB1
:1015000081500E940E0A8111C2CF809189018150C1
:1015100080938901F0CF6C5F81500E940E0A811187
:10152000B6CF809189018150D1CF615081500E9406
:101530000E0A8111ACCF809189018150809389017D
:1015400080918801815080938801B4CF20E04CEED7
:1015500055E064E270E080E190E00E94A2058CE03A
:101560000E949205882319F081E080937901089503
:1015700020E04AEE53E070E060E080E290E00E94FC
:10158000A20521E04AEE53E060E270E080E290E0E4
:101590000E94A2058CE00E949205882319F081E048
:1015A000809379010895EF92FF920F931F93CF9349
:1015B00020E04EE057E068E070E08CE190E00E94AF
:1015C000A20585E1E82EF12C02E010E02EEF200FBD
:1015D000C09100014CE553E068E370E0C0171106CC
:1015E00011F06CE370E0C7010E94A2050F5F1F4F6E
:1015F00086E1E80EF11C0630110541F780E40E94F7
:101600009205882329F0C53018F4CF5FC0930001FC
:1016100080E20E949205882339F080910001833096
:1016200018F081508093000184E00E949205882385
:1016300021F08091000180937901CF911F910F914A
:10164000FF90EF9008950F931F93CF93DF93C09176
:101650005601CF5FC093560110E000E0D0E02D2F7F
:101660004AED50E06AE070E0C8010E94A205DF5F29
:10167000005E1F4FD43099F720E04CEA50E062E35F
:1016800070E08BE290E00E94A205C53B18F081E07B
:1016900080937901DF91CF911F910F910895089563
:1016A0008EBD00000DB407FEFDCF8EB508950895E0
:1016B00090E080E00895CF92DF92EF92FF920F9337
:1016C0001F93CF93DF93C8E5D1E016E08AE891E05D
:1016D0000E94F008892BC1F08AE891E00E94AE08D0
:1016E00090915E01E92FF0E0E85AFE4F80839F5F02
:1016F00090935E01973050F310925E01FE01812FAE
:1017000011928A95E9F7E2CF0E947805C0E085FF43
:1017100008C0809105018111B0C087E08093050168
:10172000C1E00E94780586FF09C0809105018F5FA6
:10173000883008F0A4C080930501C1E00E947805BC
:1017400082FF36C080910C01811132C000910101ED
:10175000909102011091030180910401D091050143
:1017600021E020930C010093060190930701109350
:1017700008018093090110920B01D0930A0162E0E5
:101780008AE891E00E948908602F8AE891E00E942F
:101790008908612F8AE891E00E9489086D2F8AE804
:1017A00091E00E9489086FEF8AE891E00E94890821
:1017B0000E947805182F111F1127111FD0910501C4
:1017C0001123E1F040910301609101018D2F0E94EE
:1017D000280A882399F080918901082E000C990B22
:1017E000909302018093010180918801082E000CE2
:1017F000990B9093040180930301C12F0E947805F7
:1018000084FF40C0409103016091010184E08D0F8D
:1018100087700E94280A8823A9F180918901082EE7
:10182000000C990B90930201809301018091880133
:10183000082E000C990B9093040180930301C09132
:1018400003011091010161E08AE891E00E9489089A
:10185000612F8AE891E00E9489086C2F8AE891E064
:101860000E9489086D2F8AE891E00E9489086FEF35
:101870008AE891E00E94890807C081504FCF1092FA
:1018800005015BCFC111DBCF88E00E949205882360
:1018900019F088E08093790180910C018823F1F0A0
:1018A000C0910A0140910801609106018C2F0E94AD
:1018B000280A882309F45FC080918901082E000C52
:1018C000990B909307018093060180918801082E5F
:1018D000000C990B9093090180930801609103011A
:1018E000709104012091050148E758E080910101C1
:1018F000909102010E94A20580910C01882369F059
:10190000609108017091090120E04AEB58E0809154
:101910000601909107010E94A205F12CE12C10E034
:1019200000E0D0E0C0E0F801EC53F74F6F01FE019A
:10193000EE0FFF1FEC0DFD1DE4911E163CF420E0A0
:1019400044E459E0BE01C7010E94A2052896C034B4
:10195000D10569F70F5F1F4FF8E0EF0EF11C003162
:101960001105F9F6DF91CF911F910F91FF90EF9044
:10197000DF90CF90089580910B018F5F80930B01D2
:10198000843010F010920C01C83008F0A7CFEC2F73
:10199000F0E0E353F34F0C94FB13D50CD90CDB0CA4
:1019A000DD0CDF0CE20CE40CE60C84E080930A0111
:1019B00095CF87E0FBCF86E0F9CF85E0F7CF109297
:1019C0000A018CCF83E0F2CF82E0F0CF81E0EECF4E
:1019D00020E04EE057E068E070E08CE190E00E948B
:1019E000A20580E40E949205882359F061E085E019
:1019F0000E947B0961E08DE00E947B0981E0809379
:101A0000E20180E20E949205882351F060E085E0C7
:101A10000E947B0960E08DE00E947B091092E20148
:101A20008CE00E949205882349F06091E20182E0F7
:101A300090E00E948A1381E08093790108951F92BB
:101A40000F920FB60F9211248F939F938091E10014
:101A50009091E100937F9093E10083FF0FC010927B
:101A6000E90091E09093EB001092EC0092E39093E8
:101A7000ED001092870198E09093F00082FF22C061
:101A800093E09093E9009091F200992319F09AE382
:101A90009093E80090917101992341F09091710128
:101AA000915090937101911101C05D9A90918601BE
:101AB000992341F090918601915090938601911164
:101AC00001C0289A84FF18C08091E2008E7E816058
:101AD0008093E2008091E1008F7E8093E10080910D
:101AE00072018E7E8061809372019F918F910F9021
:101AF0000FBE0F901F90189580FFF7CF8091E200E6
:101B00008E7E80618093E2008091E1008E7E8093E2
:101B1000E100809172018E7E8160E5CF1F920F926D
:101B20000FB60F921124CF92DF92EF92FF920F9394
:101B30001F932F933F934F935F936F937F938F9355
:101B40009F93AF93BF93EF93FF93CF93DF93CDB763
:101B5000DEB76C97DEBFCDBF1092E9008091E80040
:101B600083FF25C068E0CE0145960E94CE0782EF34
:101B70008093E8008D8987FF39C09091E80090FF3D
:101B8000FCCF982F907609F034C19E894F89588DEB
:101B90002F89F88C911131C0803861F580917301E3
:101BA0008093F1001092F1008EEF8093E8006C9624
:101BB0000FB6F894DEBF0FBECDBFDF91CF91FF917E
:101BC000EF91BF91AF919F918F917F916F915F91B5
:101BD0004F913F912F911F910F91FF90EF90DF90C8
:101BE000CF900F900FBE0F901F9018959EEF90937F
:101BF000E800C7CF1092F100D5CF913059F4811190
:101C0000D3CF4130510581F6809173018D7F809350
:101C10007301CACF933049F48111C6CF41305105C9
:101C200019F6809173018260F2CF953041F4809172
:101C3000E80080FFFCCF20682093E300B5CF96300A
:101C400009F0A9C00B8D1C8D22E01092E9001092C2
:101C50006F0110926E01F2122EC010926D0110925F
:101C60006C010E949D071F8299E09983FA8291E09E
:101C70009E8390EA98879AEF998720916E01309120
:101C80006F01275F3F4F3C832B838D831092E900C8
:101C900010926F0110926E0110936D0100936C0110
:101CA00049E050E0BE016F5F7F4F80E00E94770700
:101CB0000E949D0779CF10936D0100936C010E94E3
:101CC0000207DC0112960D911C910115110509F412
:101CD00010C1D801ED91FC910480F581E02DBE0189
:101CE0006B5E7F4FC8010995009709F0FDC0F801B0
:101CF00000851185EACFF3E0FF120EC08F8988239B
:101D000009F440C0823061F440E867E081ED99E079
:101D10000E944407811148CF81E28093EB0047CFB6
:101D2000813029F440E86BE085EC99E0F1CF833015
:101D300099F70E940207DC011296ED90FC908E014B
:101D40000F5F1F4F6801E114F10479F0D701ED91A5
:101D5000FC910680F781E02DB801C7010995080FB5
:101D6000111DF701E084F184EECFD8011C92F60139
:101D700001900020E9F73197BF016C197D0940E01F
:101D8000C601C6CF6FEA79E0FB01449150E080E8DC
:101D90000E94770709CF973009F4BECF983021F41D
:101DA00081E08093F10000CF993009F0FDCE83707F
:101DB00009F0B2CFEEE1F1E081E031E096E321916C
:101DC000222371F08093E9003093EB00DF0111973B
:101DD0002C912093EC009093ED008F5F873079F782
:101DE0008EE78093EA001092EA008F898093870142
:101DF000DBCE8B8D9C8D1092E90010926F011092BA
:101E00006E0190936D0180936C01898D811151C099
:101E10008E899D89913A49F4813209F07DCF47E05E
:101E200050E061E171E080E0B3CF913209F074CF0E
:101E3000833269F48F89988DB0E0A0E080930D0122
:101E400090930E01A0930F01B0931001ADCE80329C
:101E500069F48091E80082FFFCCF67E081E191E0C6
:101E60000E94CE078BEF8093E8009ECE823209F06D
:101E70009BCE8F898093180180911101909112015E
:101E8000A0911301B0911401803B9440A105B105CC
:101E900069F48091180180FD09C088E78093700182
:101EA000809164008F7D809364007ECE10927001DB
:101EB0007BCE0E940207DC0112960D911C91011548
:101EC000110509F429CFD801ED91FC910190F08121
:101ED000E02DBE016B5E7F4FC8010995811164CE74
:101EE000F80100851185EBCF181619060CF45CCEAD
:101EF00013CFF1E0FF12FFCE63EB79E045CF1F92E5
:101F00000F920FB60F9211248F939F93AF93BF93AD
:101F10008091680190916901A0916A01B0916B0173
:101F2000892B8A2B8B2B81F1909167018091000086
:101F30008927809300008091680190916901A091A8
:101F40006A01B0916B01181619061A061B069CF45B
:101F50008091680190916901A0916A01B0916B0133
:101F60000197A109B1098093680190936901A09339
:101F70006A01B0936B01BF91AF919F918F910F90C8
:101F80000FBE0F901F901895809171008D7F8093E8
:101F90007100809167019091000080958923809362
:101FA0000000E9CF0F930FB70F931F9211248F9367
:101FB0009F93EF93FF93E5E7F1E08091620191E059
:101FC0008D5F8D3710F08D579395809362018081DE
:101FD000890F80839181911D91830281011D02836C
:101FE0008381811D838309270F7009270295009340
:101FF000610135D0811100935F01803989F400912E
:102000006001901B963070F087E780930008809302
:10201000010888E198E08093600090936000FFCF12
:102020009093600180917001815018F0809370014D
:1020300059F3E3E6F1E080819181019680839183F9
:1020400082819381811D911D82839383FF91EF9102
:102050009F918F911F900F910FBF0F9118958FB186
:102060008095807F669B88601C9B84600895EAE869
:10207000F1E01382128288EE93E0A0E0B0E0848366
:102080009583A683B78388E291E0918380838FEF65
:102090009FEF95878487EEEDF1E0138212828AE349
:1020A00091E09183808314828CE38583178216826A
:1020B00080E180871186128613861486158616861F
:1020C0001786108A118A128A1092FD051092FE0559
:1020D000AAEDB1E01196FC93EE9381EF91E0139697
:1020E0009C938E9312970895789483E084BD83E047
:1020F00085BD81E080936E00E1E8F0E083E08083BD
:10210000E0E881E08083E1E983E08083E0E981E049
:102110008083E1EC87E08083E3EC81E08083E0EC86
:1021200082E08083E2EC81E08083EAE787E08083DD
:10213000806880831092870110927301109272015F
:102140008091D70081608093D70080EA8093D80087
:1021500089B5806189BD89B5826089BD09B400FEF9
:10216000FDCF0E94C4068091D8008F7C806180934F
:10217000D8008091E000807F8093E0008091E100B2
:102180008E7E8093E1008DE08093E200559A209A44
:10219000CFB7F89480917401811127C0E5E2FAE08D
:1021A0008491E8EFF9E09491E82FF0E0EE0FFF1F43
:1021B000E752F64FA591B491EC91E92321F461E047
:1021C00081E10E940A0961E081E10E947B098CB5EE
:1021D00080618CBD8CB580648CBD61E08FE00E9415
:1021E0007B0961E080E10E947B09809174018F5F2F
:1021F00080937401CFBF61E084E00E947B0961E0BD
:102200008CE00E947B0962E084E10E947B0962E02D
:1022100083E10E947B0962E082E10E947B0962E027
:1022200085E10E947B0962E087E00E947B0962E011
:1022300088E00E947B09E0E2FAE0E491F0E0EE0F32
:10224000FF1FEA5FF54F859194919093F605809377
:10225000F505E3EFF9E0E491E093FB05E8E1FAE04E
:10226000E491F0E0EE0FFF1FEA5FF54F8591949146
:102270009093F8058093F705EBEEF9E0E491E09395
:10228000FC0561E086E00E947B0961E086E00E9437
:102290000A0961E070E080E090E00E94B70960E028
:1022A00086E00E940A096AE070E080E090E00E9407
:1022B000B70961E086E00E940A090E944F058EEA94
:1022C0000E94500B85ED0E94500B80EF0E94500B36
:1022D00088EA0E94500B8FE30E94500B83ED0E940E
:1022E000500B80E00E94500B80E40E94500B8DE860
:1022F0000E94500B84E10E94500B80E20E94500B20
:1023000080E00E94500B81EA0E94500B88EC0E94F2
:10231000500B8AED0E94500B82E10E94500B81E825
:102320000E94500B8FEC0E94500B89ED0E94500BC5
:1023300081EF0E94500B8BED0E94500B80E40E94B5
:10234000500B84EA0E94500B86EA0E94500B8FEAE1
:102350000E94500B0E944F0580E20E94500B80E0CB
:102360000E94500B81E20E94500B80E00E94500BB3
:102370008FE70E94500B82E20E94500B80E00E9487
:10238000500B87E00E94500BE091F705F091F805A3
:1023900080819091FC05892B8083E091F505F09177
:1023A000F60590818091FB058095892380830E94AA
:1023B0007805807A803A59F4C1EFD1E089910E9482
:1023C000500B35E0C13FD307C9F70000FECF82E0D4
:1023D00090E00E948213882359F061E085E00E941A
:1023E0007B0961E08DE00E947B0981E08093E2013E
:1023F00080916400816080936400809164008260B9
:102400008093640080916400806880936400809170
:102410006400806480936400809165008160809393
:1024200065008EE18093E30181E28093E601809173
:1024300064008E7F8093640087EC0E94CF098C013A
:102440008EE50E94CF09EC010E94D90600951095F7
:10245000C095D0950C9FD0010D9FB00D1C9FB00D65
:1024600011249B01AC0120953095409550950E9418
:10247000B7136B017C010E94D9066C0D7D1D8E1D6A
:102480009F1D611571058105910511F00E94791359
:102490008091640081608093640001EF11E021EF7E
:1024A000E22E25E0F22EC0E0D0E0DD24D3942FB759
:1024B000F8948091750190917601A0917701B09187
:1024C00078012FBF2091EF01222391F02091E701A5
:1024D000E82FE21BE093F0012091E4013091E50147
:1024E0002F5F3F4F3093E5012093E4011092EF01FD
:1024F0004091EB015091EC016091ED017091EE0182
:1025000084179507A607B7079CF4481B423050F084
:1025100083B7817F83BF83B7816083BF889583B78B
:102520008E7F83BF209709F4C2CF0E940000BFCFE7
:102530002091E601AC01BD01420F511D611D711DCD
:102540004093EB015093EC016093ED017093EE0129
:102550008093E7019093E801A093E901B093EA0129
:10256000D092EF018091FD058093FE050E947805D1
:102570008093FD0580E0B82FB111BFEFF801002472
:10258000B193B193B193B1930394D1F7E0917901F1
:10259000F0E0EE0FFF1FED5CF54F85919491FC018B
:1025A000099591EFA92E91E0B92EF50181915F0176
:1025B0000E94500BEA14FB04C1F7B4CF8F929F9294
:1025C000AF92BF92CF92DF92EF92FF92CF93DF93C1
:1025D000EC01688179818A819B8161157105810592
:1025E000910521F464E279ED8BE597E02DE133EF7D
:1025F00041E050E00E94981349015A019B01AC014F
:10260000A7EAB1E40E94B7136B017C01ACEEB4EF12
:10261000A50194010E94C513C60ED71EE81EF91E1F
:10262000F7FE06C081E0C81AD108E10880E8F80A80
:10263000C882D982EA82FB82C701B6019F77DF9107
:10264000CF91FF90EF90DF90CF90BF90AF909F9091
:102650008F9008958F929F92AF92BF92CF92DF9208
:10266000EF92FF926091190170911A0180911B0104
:1026700090911C01611571058105910521F464E2B9
:1026800079ED8BE597E02DE133EF41E050E00E94DA
:10269000981349015A019B01AC01A7EAB1E40E94D9
:1026A000B7136B017C01ACEEB4EFA50194010E945D
:1026B000C513C60ED71EE81EF91EF7FE06C081E040
:1026C000C81AD108E10880E8F80AC0921901D0922E
:1026D0001A01E0921B01F0921C01C701B6019F771D
:1026E000FF90EF90DF90CF90BF90AF909F908F9032
:1026F00008956093190170931A0180931B019093C0
:102700001C010895F999FECF92BD81BDF89A9927D1
:1027100080B50895262FF999FECF1FBA92BD81BDCD
:1027200020BD0FB6F894FA9AF99A0FBE0196089553
:10273000052E97FB1EF400940E94AF1357FD07D09F
:102740000E94CA1307FC03D04EF40C94AF135095AB
:102750004095309521953F4F4F4F5F4F089590958D
:102760008095709561957F4F8F4F9F4F08950E9480
:10277000EC13A59F900DB49F900DA49F800D911D0B
:1027800011240895B7FF0C94B7130E94B713821B4E
:10279000930B0895A1E21A2EAA1BBB1BFD010DC0CD
:1027A000AA1FBB1FEE1FFF1FA217B307E407F50701
:1027B00020F0A21BB30BE40BF50B661F771F881FDD
:1027C000991F1A9469F760957095809590959B0173
:1027D000AC01BD01CF010895A29FB001B39FC0011C
:1027E000A39F700D811D1124911DB29F700D811D3D
:1027F0001124911D0895EE0FFF1F0590F491E02D17
:062800000994F894FFCFDB
:1028060003700020000010001000040000FFFFFF0E
:10281600FF00E10000000000000100000000C18090
:10282600810000000000000089080808AA089F0827
:10283600F008AE08CC08000000004F0BDB07580B71
:02284600570B2E
:00000001FF
