:100000000C94F0080C9418090C9418090C94180915
:100010000C9418090C9418090C9418090C941809DC
:100020000C9418090C9418090C94BF130C942E14FA
:100030000C9418090C9418090C9418090C941809BC
:100040000C9418090C94E3170C9418090C941809D3
:100050000C9418090C9418090C9418090C941F1688
:100060000C9418090C9418090C9418090C9418098C
:100070000C9418090C9418090C9418090C9418097C
:100080000C9484160C9418090C9418090C941809F3
:100090000C9418090C9418090C9418090C9418095C
:1000A0000C9418090C9418090C941809404040400D
:1000B00040404000FFFFFFFF833BFB9396F6E6ECDA
:1000C000ECECECCC0C6CECECECEC2C2CEC8C38F080
:1000D0001858D8D8D8D8D8D8D8D8D8D8D8D8D8D8E0
:1000E000D8D89838F0E000000080C0E07030B098B8
:1000F000D8D8D8D8D8D8D8D8D8D898B8307060C080
:10010000800000C0F03898D8D8D8983060C06030EF
:1001100098CCE673393D65E5FD01FF9E1C38F0E0A3
:10012000C00040404040404040404040FEF2F2FEAF
:10013000028822007FFFFFFFFFFCE10D7D4D4D7D1A
:100140007D7D7DFDFDFCFFFFFFFFFFFF7F7F7C616D
:100150000000E007FFFFFFFFFFFFFFF7F7F7F7F7EC
:10016000F7F7C70600FFE0781EC7F1FCFEFFFF7F30
:100170001F070301010181E3FFFFFFFFE7E7FE38EF
:10018000033F8FE3F8FEFFFFFFFFFFFFFEFCFEFFD4
:10019000FFFFFFFEFCE4E6FF3F80FFFFFFFFFFFFE6
:1001A000FFFF008822882200FEF2F2FEFFFFFFFF21
:1001B000FEF8E28820831FFF8F838080808080008C
:1001C00080E0F8E0830F3FFFFF7F7FFFFEF8E080D5
:1001D00038FFFFFEE00FFF3F3FFFFFFFFFFDFDFD8C
:1001E000FD7D7D7C7973610C7F7F7F7F7F1F07079B
:1001F000070707C7FFFF7F7FFFFFFF3F0F0300E0F9
:10020000F8FEFFFFFFFF3F0F071F7FFFFFFF7F3F4E
:100210001FFFFFFFFFFFFF7F00FFFFFFFFFFFFFF4D
:10022000FF0120882208E0FFFFFFFFFF4F49494FF1
:100230004F4FCFCF6E2862C8C24842480208031E03
:10024000FFFFFFFFFFFE380803020203030101C1A5
:10025000701F073FFF80818181818180C0C0C0C045
:10026000C0C0C0E0606666607F40404040707C7CFB
:10027000FC808383838382828383808080E038F85C
:10028000E080808080828EB8E08080E1C18080C084
:10029000E0C3C387840C0F003F7FFFFFFFFFFFFF1A
:1002A0000F00024842484F4F4F49494F000000009D
:1002B0000E1B3166C680D060311B0E00E0A3E30048
:1002C000013F3F3F3330303030181878F8FC670179
:1002D00000030300010101F1F9FDFDFD3D3C3CFC83
:1002E000FCF8F00000FCFCFCFCFC1C1C3CFCFCF8DA
:1002F000710101E1F9FDFD3D1D1D9DBDBCBCB88036
:100300000101010101076761013179793F0F0F0F89
:1003100007E3A7E707070F0E0E1C1C191B1F1F1F63
:100320000006067050700000000000000000000091
:1003300000000000000000000000000000000000BD
:1003400000000000000000000000000000000000AD
:10035000000000000000001F1F1F1F1F0707071FCE
:100360001F1F011C14151D011F1F03070F1F1F1E38
:10037000001C14151D011F1F1E1E1F1F1F1F011D06
:1003800014141C0000000000000000000000000029
:10039000000000000000000000000000000000005D
:1003A000000000000000000000000000000000004D
:1003B00000000000000000000000000080E0E0708D
:1003C00070303030303030303030303030303030ED
:1003D000303030303030303030303030303030301D
:1003E000303030303030303030303030303030300D
:1003F00030303030303030303030303030303030FD
:1004000030303030303030303030303030303030EC
:10041000303030303030307070E0E080000000006C
:1004200000000000000000000000000000000000CC
:10043000000000000000000000000000FFFF0000BE
:10044000000000000000008040A050A854AA54AA58
:1004500055AA552A552A552A552A552A552A05009E
:10046000000040A855AA55AA55AA55AA542800002C
:1004700000000040FF7FFF400000003C8613C113D6
:10048000C50AFC00000000FF003EC3CF3E00000094
:1004900006FF06FFF1FF80000001FFFF00000000E3
:1004A000000000000000000000000000000000004C
:1004B000000000000000000000000000FFFF00003E
:1004C000000000000080048A55AA55AA55AA55AA22
:1004D00050A850A850A850A850A850A850A850A85C
:1004E00050A854AA55AA158A150A05020000000052
:1004F0000000003CFF3FFF3C0000000007F8FF1F2A
:10050000FFF807000000031FFFFF7E1EDFDF000073
:1005100000FF01FFFFF01F000000FFFF00000000D0
:1005200000000000000000000000000000000000CB
:10053000000000000000000000000000FFFF0000BD
:1005400000A050AA55AA55AA55AA55AA4180418093
:1005500041804180418041000100018041A051AAB9
:1005600055AA55AA55AA550A00000000000000002F
:10057000000000FCFCFCFCC0DCDCDCDCDCDCFCFCAB
:10058000FC380000FCFCFCFC00001C1C1C1C1CDCDF
:10059000DCDC1C1C1C1C1C000000FFFF0000000019
:1005A000000000000000000000000000000000004B
:1005B000000000000000000000000000FFFF00003D
:1005C0000082858A958A958A958A958A958A958AE0
:1005D000958A958A858280808088958A958A150A71
:1005E000050A0502010000000000000000000000F4
:1005F0000000001F1F1F9F809C9C9C9C9C9C9F9F99
:100600008F8780809F9F9F9F808080808080809F39
:100610009F9F8080808080000000FFFF000000001E
:1006200000000000000000000000000000000000CA
:10063000000000000000000000000000FFFF80003C
:1006400000070404FC80FC0404FF809494949CFF45
:1006500080ECECEC80FF8080FE11FE8080FF00FECD
:1006600082DADA82FEA0FE82DADAA2FEA0FE82BA86
:10067000AA8AFEA0E000FF80809C9484FF80ECECBE
:10068000EC80FF8080FE11FE8080FF809494949C1B
:10069000FF9094949484FF000080FFFF000000000E
:1006A000000000000000000000000000000000004A
:1006B0000000000000000000000000000107070E1D
:1006C0000E0C0C0C0C0C0C0C0C0C0C0C0C0C0C0C68
:1006D0000C0C0C0C0C0C0C0C0C0C0C0C0C0C0C0C5A
:1006E0000C0C0C0C0C0C0C0C0C0C0C0C0C0C0C0C4A
:1006F0000C0C0C0C0C0C0C0C0C0C0C0C0C0C0C0C3A
:100700000C0C0C0C0C0C0C0C0C0C0C0C0C0C0C0C29
:100710000C0C0C0C0C0C0C0E0E070701000000005A
:1007200000000000000000000000000000000000C9
:1007300000000000000000000000000000000000B9
:1007400000000000000000000000000000000000A9
:100750000000000000000000000000000000000099
:100760000000000000000000000000000000000089
:100770000000000000000000000000000000000079
:100780000000000000000000000000000000000069
:100790000000000000000000000000000000000059
:1007A000000000000000000000000000FFFFFF0745
:1007B00007E7E7676767676767E7E70707FFFF9F81
:1007C0009F07077F7F1F1F9F9F87879F9F1F1F7FF9
:1007D0007F9F9FE7E76767E7E7FFFF0707E7E767B1
:1007E0006767676767E7E70707FFFFFFFFFFFF0030
:1007F000007F7F6060606060607F7F0000FFFF19A6
:1008000019F8F80606F8F86767E1E179799E9E061F
:100810000681816161E6E60101FFFF00007F7F60E4
:1008200060606060607F7F0000FFFFFFFFFFFFE60A
:10083000E6E6E66666868666661E1E666667676626
:10084000660707E6E67F7F6060E7E7060661611EF0
:100850001EE7E79E9E8181989887879E9E86861ECA
:100860001EE6E6FEFEE6E69E9EFFFFFFFFFFFF613F
:100870006187878080E7E76666787866667878F8CB
:10088000F8E0E09999E0E09E9E8787666660608068
:1008900080E7E7F9F9818179791F1F9F9F8181980E
:1008A00098E7E70707F9F99F9FFFFFFFFFFFFF00AA
:1008B00000E1E18787E1E1F8F8E6E666669898618D
:1008C00061E7E781817F7F6161878760607E7E1954
:1008D0001987879F9F999998989E9E1F1F79799F46
:1008E0009F1F1F0606F9F99F9FFFFFFFFFFFFF6095
:1008F000607F7F7F7F7F7F7F7F79796666F9F900F0
:10090000009F9FF9F9E0E09E9E1F1F7E7E60601EA3
:100910001E87879F9F19190707E7E76666E0E001D2
:10092000011E1E060681818787FFFFFFFFFFFF0074
:1009300000FEFE060606060606FEFE0000FFFF0697
:10094000060707E1E17F7F6161F8F8E6E67878184D
:100950001887877F7F9898E0E0070766660707603B
:10096000600000666607078787FFFFFFFFFFFFE065
:10097000E0E7E7E6E6E6E6E6E6E7E7E0E0FFFFE0F9
:10098000E0FEFEE7E7E0E0FEFEFFFFF9F9F8F8F829
:10099000F8E7E7E6E6E7E7F9F9FEFEF8F8E0E0E673
:1009A000E6E0E0E6E6F8F8FFFFFFFFFF00000000EA
:1009B0000000000000000000000000000000000037
:1009C000000000007F415D55577F416D6D517F41B3
:1009D00055555D7F416D6D417F057D417D057F41B1
:1009E00055555D7F415D5D633E007F415D55497FAB
:1009F000117747711F000000000000000000000098
:100A000000000000000000000000000000000000E6
:100A100000007F416D6D417F007F4175151D7F4155
:100A20007F515555457F417777417F007F415D5527
:100A3000577F416D6D417F415F50507F415F505006
:100A40007F4155555D7F415D5D633E007F415F683D
:100A50005F417F416D6D417F417B77417F415D5DAE
:100A6000637F416D6D417F0000000000007F416D9C
:100A70006D417F417B77417F415D5D633E007F41FA
:100A80007D137D417F416D6D417F417B77417F11BA
:100A90007747711F007F417D137D417F416D6D411F
:100AA0007F417B77417F117747711F007F415D5DFB
:100AB000417F057D417D057F417777417F415555D8
:100AC0005D7F416D6D517F515555457F151000007B
:100AD0000000000000000000000000000000000016
:100AE0000000000000000000000000000000000006
:100AF0000000000000000000008080E0E0F8F8FE48
:100B0000FEFFFEFFFEFFFEFFFEFFFEFFFEFFFEFFFD
:100B1000FEFFFEFFFEFFFEFFFEFF7E7F1E1F06079D
:100B2000000100000000000000E080F8A8FC90FC3C
:100B3000A8FC90FCA8FC90FCA8FC90FCA8FC90FCF5
:100B4000A8FC10FCA8FC90FCE0FC00FC008000E08D
:100B500000F800FF3FFF3FFF3FFF3FFF3FFF3FFF2A
:100B60003FFF3FFF3FFF3FFF3FFF3FFF00FF1F7F74
:100B7000071F01070001808080C090F0A8FC90FC56
:100B8000A8FC90FCA8FC90FCA8FC90FCA8FC90FCA5
:100B9000A8FC90FCA8FC10FCA8FC90FCE0FC00FC6D
:100BA0003FFF3FFF3FFF3FFF3FFF3FFF3FFF3FFF55
:100BB0003FFF3FFF3FFF3FFF3FFF3FFF3FFF3FFF45
:100BC00000FF1F7F071F01070001808080C090F099
:100BD000A8FC90FCA8FC90FCA8FC90FCA8FC90FC55
:100BE000A8FC90FCA8FC90FC08FCE0FC00FC0000C9
:100BF000000000003FFF3FFF3FFF3FFF3FFF3FFF81
:100C00003FFF3FFF3FFF3FFF3FFF3FFF3FFF3FFFF4
:100C10003FFF00FF03FF007F001F000700010000EF
:100C20000000008080E040F8A8FC50FCA8FC50FCCC
:100C3000A8FC50FCA8FC50FCA8FC50FC88FC00FC64
:100C40000004000000000000008000E000FFFEFF44
:100C5000FFFFFEFFFFFFFEFFFFFFFEFFFFFFFEFFA8
:100C6000FFFFFEFF7EFF1FFF00FF007F001F00074A
:100C7000000100000000008080E040F8A8FE54FF62
:100C8000AAFF55FFAAFF55FFAAFF55FFAAFF55FF70
:100C90008AFFE5FFF8FF7EFF00000000008000E013
:100CA00000FFFEFFFFFFFEFFFFFFFEFFFFFFFEFF57
:100CB000FFFFFEFFFFFFFEFF7FFF1FFF07FF017F1C
:100CC000001F0007000100000000000000E080F8A5
:100CD000A8FE94FFAAFF95FFAAFF95FFAAFF95FF24
:100CE000AAFF95FF0AFFE5FFF8FF7EFF0000000066
:100CF000008000E000F800FF3FFF3FFF3FFF3FFFA5
:100D00003FFF3FFF3FFF3FFF3FFF3FFF3FFF00FF32
:100D100007FF017F001F00070001000000000080A6
:100D200080E040F8A8FC50FCA8FC50FCA8FC50FC5B
:100D3000A8FC50FCA8FC50FCA8FC90FC28FC90FCF3
:100D400000FC0000008000E000FFFEFFFFFFFEFF50
:100D5000FFFFFEFFFFFFFEFFFFFFFEFFFFFFFEFFA7
:100D600000FF3FFF3FFF007F071F0007000180805B
:100D7000A0E090F8A8FC90FCA8FE94FFAAFF95FFC5
:100D8000AAFF95FFAAFF95FFAAFF95FF0AFFE5FFBF
:100D9000F8FF7EFF000000003FFF3FFF3FFF3FFFE7
:100DA0003FFF3FFF3FFF3FFF3FFF3FFF3FFF3FFF53
:100DB0003FFF3FFF3FFF00FF07FF017F001F0007CE
:100DC00000018080A0E010F8A8FC50FCA8FC50FCBA
:100DD000A8FC50FCA8FC50FCA8FC50FCA8FC50FC53
:100DE00088FC00FC00040000000000003FFF3FFF03
:100DF00000FFFEFFFFFFFEFFFFFFFEFFFFFFFEFF06
:100E0000FFFFFEFFFFFFFEFF7EFF1FFF00FF007FD3
:100E1000001F0007000100000000000000E080F853
:100E2000A8FE94FFAAFF95FFAAFF95FFAAFF95FFD2
:100E3000AAFF95FFAAFF95FF28FF92FF00FC000084
:100E4000008000E000F800FF3FFF3FFF3FFF3FFF53
:100E50003FFF3FFF3FFF3FFF3FFF3FFF3FFF3FFFA2
:100E60003FFF007F071F000700018080A0E010F80F
:100E7000A8FC50FCA8FE54FFAAFF55FFAAFF55FF8F
:100E8000AAFF55FFAAFF55FFAAFF95FF28FF92FF73
:100E900000FC00003FFF3FFF00FFFEFFFFFFFEFFE3
:100EA000FFFFFEFFFFFFFEFFFFFFFEFFFFFFFEFF56
:100EB00000FF3FFF3FFF007F071F0007000180800A
:100EC000A0E090F8A8FC90FCA8FE94FFAAFF95FF74
:100ED000AAFF95FFAAFF95FFAAFF95FFAAFF95FF1E
:100EE00028FF92FF00FC00003FFF3FFF3FFF3FFF56
:100EF0003FFF3FFF3FFF3FFF3FFF3FFF3FFF3FFF02
:100F00003FFF3FFF3FFF3FFF3FFF007F071F0007FF
:100F1000000100000000008080E040F8A8FE54FFBF
:100F2000AAFF55FFAAFF55FFAAFF55FFAAFF55FFCD
:100F3000AAFF95FF28FF92FF00FC0000008000E060
:100F400000FFFEFFFFFFFEFFFFFFFEFFFFFFFEFFB4
:100F5000FFFFFEFFFFFFFEFF00FF3FFF3FFF007FA1
:100F6000071F000700018080A0E010F8A8FC50FCDB
:100F7000A8FC50FCA8FC50FCA8FC50FCA8FC50FCB1
:100F8000A8FC50FCA8FC90FC28FC90FC00FC000095
:100F90003FFF3FFF00FFFEFFFFFFFEFFFFFFFEFFE3
:100FA000FFFFFEFFFFFFFEFFFFFFFEFF00FF3FFF13
:100FB0003FFF007F071F000700018080A0E010F8BE
:100FC000A8FC50FCA8FE54FFAAFF55FFAAFF55FF3E
:100FD000AAFF55FFAAFF55FF8AFFE5FFF8FF7EFF36
:100FE000000000003FFF3FFF00FFFEFFFFFFFEFF8E
:100FF000FFFFFEFFFFFFFEFFFFFFFEFFFFFFFEFF05
:1010000000FF1FFF07FF017F001F00070001000511
:1010100000050005000A0208000A02080005000099
:1010200000000000000000050007020900010E0397
:101030000006000A02080000050000000000000091
:10104000000006000103000703000000000000008C
:101050000005000000020203000400060001000079
:1010600000000005000000000000000200090F0061
:1010700000030401000C000000000000000000005C
:101080000000000000000000000000240027002AEB
:10109000002D003000080B000202020100090400CC
:1010A00000010202000005240010010524010101D5
:1010B00004240206052406000107058103100040F0
:1010C00009040100020A00000007050202400000B6
:1010D000070583024000000403090412010002EF27
:1010E0000201404123368000010102030141726484
:1010F00075696E6F204C4C430041726475626F7964
:101100000014087F417777417F4155555D7F415FEE
:101110005F7F417575717F7F417575717F415F5F3D
:101120007F417575417F717747717F7F5D415D7F3D
:10113000417B77417F4175757D7F415D5D417F7F5B
:10114000415D5D5D7F415D5D417F417B77417F41D9
:1011500075757F7F515555457F4175757D7F497701
:1011600077497F000000007F415D5D417F417575DB
:101170007D7F4175757D7F000000007F415D5D4191
:101180007F417B77417F00000000000000000004E9
:101190000802011040804010204080408008020476
:1011A00001804020100201108010204040200000EB
:1011B0000000250028002B002E0031000404040448
:1011C00004030405020202020403020202020606EC
:1011D00006060606040402020204040301004E1877
:1011E00011241FBECFEFDAE0DEBFCDBF11E0A0E0DB
:1011F000B1E0E4EAF8E302C005900D92AC34B10727
:10120000D9F726E0ACE4B1E001C01D92AF30B207DF
:10121000E1F718E0C0EFD8E004C02197FE010E947A
:101220004A1CCF3ED107C9F70E949C180C94501C51
:101230000C9400002F923F924F925F926F927F9298
:101240008F929F92AF92BF92CF92DF92EF92FF92D6
:101250000F931F93CF93DF9300D000D000D01F9245
:10126000CDB7DEB77B01E7E0EE22FF24E3E0759522
:101270006795EA95E1F7DA012801F3E05594479480
:10128000FA95E1F7460E571EFB01F695FE2FEE2765
:10129000F795E795E80FF91F50E040E08F010751FF
:1012A0001E4F480100E8602E712C681A790ACF01A0
:1012B00087599D4F5C0188E090E08C010E191F0951
:1012C0001F830E83C401840F951F9D838C8385012A
:1012D000040F151F90E080E01D01280E391EF1015A
:1012E000C4900E2C01C0CC0C0A94EAF7EC81FD816D
:1012F000D488CD28C48AE114F104C1F067307105A7
:10130000A9F0F10124906801C80ED91E312CF10119
:101310000E8002C0F595E7950A94E2F7FA83E98317
:10132000F6012488F9812F2AF601248A0196EC819E
:10133000FD813196FD83EC832817390719F0681673
:10134000790651F66F5F7F4FA20FB31F40585F4F72
:101350004616570621F06830710509F0B3CF27967D
:101360000FB6F894DEBF0FBECDBFDF91CF911F91B6
:101370000F91FF90EF90DF90CF90BF90AF909F9034
:101380008F907F906F905F904F903F902F90089537
:10139000CF93DF93A1E0B6E0CD91DC9111978881E6
:1013A000E7E0F6E09081892B8883CD91DC9111975D
:1013B00088819081892B8883C0910306D09104068F
:1013C0009881809108068095892388830D90BC912F
:1013D000A02D9C918081809589238C93DF91CF9162
:1013E00008954FB18CB123B190E08095909533E092
:1013F000959587953A95E1F7887030E0209530957E
:1014000035952795359527952470822B942F9095A7
:10141000907F892B08959091E201982329F490916F
:10142000E101982381E009F480E00895CF92DF92F2
:10143000EF92FF92CF9390919001891780F5E82F5A
:10144000F0E0E552FE4EC491C12CD12C760160E053
:1014500074E284EF90E0A70196010E94E71BBA01B5
:10146000A901415051096109710991E041155105E6
:1014700081E06807710578F060E970ED83E090E045
:10148000A70196010E94E71BBA01A9014150510929
:101490006109710993E0C13041F0C330B1F0CF91DF
:1014A000FF90EF90DF90CF90089580918100887F2A
:1014B000892B80938100509389004093880080910C
:1014C0006F00826080936F00EACF80919100887FE7
:1014D000892B80939100509399004093980010922B
:1014E0008F0110928E0181E080938D0180917100B7
:1014F000826080937100D3CF6F927F928F929F9280
:10150000AF92BF92CF92DF92EF92FF920F931F9311
:10151000CF93DF93FB0159012C2DA02F002E000C3F
:10152000BB0B4D01880E991E181419040CF08BC0CA
:10153000803891050CF087C06E0D711DE7FC7A951F
:10154000161617060CF07FC04115510509F47BC033
:10155000BF01F7FF04C0662777276E1B7F0B762F2E
:1015600077706F01F7FF03C017E0C10ED11C63E075
:10157000D594C7946A95E1F71C2DF7FF07C0772330
:1015800029F01FEF1C0D68E0671B762FEE27FF2761
:10159000E81BF90B97FD02C0F0E0E0E030E88316AD
:1015A000910414F000E8081B0E1BC1E01E3F09F077
:1015B000C0E06E2D677867FF03C06150686F6F5F92
:1015C00031E016160CF030E06E2DE7FC695F659592
:1015D00065956595630FC62ED12CC10ED11C17FDE4
:1015E000DA9439E0C316D10414F068E0611BE62EEA
:1015F000EC1A1C0F612F30E8130340011124880DF1
:10160000991D8E0F9F1FD0E0CA9F4001CB9F900C69
:10161000DA9F900C1124E80DF91D4E0F5F1FA114E5
:10162000B10419F035016E0E7F1EC72F072E000C76
:10163000DD0B233009F444C1A8F4213009F490C033
:10164000223009F4D7C0DF91CF911F910F91FF9005
:10165000EF90DF90CF90BF90AF909F908F907F9052
:101660006F9008952A3F09F440C02B3F61F7A058BE
:10167000B109481B590BE10E6E1529F39C01E22FAD
:10168000E81BE01708F00EC1F901E40FF51FE49123
:10169000F0E04F010C2E02C0880C991C0A94E2F76E
:1016A00067FD0CC0C090E701D090E801C20ED31EC8
:1016B000F6011081F82CF0941F211083772391F00C
:1016C000673084F4A090E701B090E8016901F0E888
:1016D000CF0ED11CCA0CDB1C192D1095F601F08021
:1016E0001F2110832F5F3F4FCACFA058B109481B5D
:1016F000590BE10E6E1509F4A6CF9C01E22FE81BF1
:10170000E01708F0C9C0F901E40FF51FE491F0E01B
:101710004F010C2E02C0880C991C0A94E2F767FD59
:101720000AC0C090E701D090E801C20ED31EF601B6
:10173000108118291083772381F0673074F4A0900A
:10174000E701B090E8016901F0E8CF0ED11CCA0CA6
:10175000DB1CF6011081192910832F5F3F4FCECF7C
:10176000A058B109681A790A481B590BC12ECE0C32
:101770006C1509F468CF9C01E22FE81BE01708F014
:1017800097C0F301E20FF31F8490912C0C2E02C03E
:10179000880C991C0A94E2F780949094FA01E20F65
:1017A000F31FE490F12C0C2E02C0EE0CFF1C0A94E7
:1017B000E2F767FD0AC0E091E701F091E801E20F6E
:1017C000F31FD080D820DE28D082772381F06730C5
:1017D00074F4E091E701F091E801590110E8A10EDD
:1017E000B11CEA0DFB1DE080E920FE28F0822F5F8E
:1017F0003F4FC2CFAA24AA94B12C0C2E02C0AA0C2F
:10180000BB1C0A94E2F7A094B0947B2CA058B109B9
:10181000481B590B6E2C610E661509F414CF9C0100
:10182000E22FE81BE01790F5F901E40FF51FE491B2
:10183000F0E06F010C2E02C0CC0CDD1C0A94E2F724
:1018400067FD0BC0E090E701F090E801E20EF31EA7
:10185000F70110811A211C2910837723A1F067302A
:1018600094F4E090E701F090E8014901F0E88F0E70
:10187000911CE80CF91CF7011081E12FE7211E2FC4
:101880001D29F70110832F5F3F4FCACF6F5F80582C
:101890009F4F4A0F5B1FC0CF6F5F80589F4F4A0F0B
:1018A0005B1F28CF6F5F80589F4F4A0F5B1FE4CEAE
:1018B0006F5F80589F4F6A0E7B1E4A0F5B1F58CF89
:1018C000A090E701B090E801C02FD0E0E40FF51F31
:1018D000A501480F591F80589F4FA80EB91E80E8D8
:1018E00090E08C1B9D0BAC1BBD0B4D01880C991C13
:1018F000C1E0D0E0072E01C0CC0F0A94EAF76E2DAC
:10190000D0E030E020E0712C612CD02EDA01FC2EEA
:10191000CF93DF93CA2DDB2D65902591772361F05E
:101920006F9C602C712C2F9D202D17302CF4D881AA
:101930001094D121D729D993DC9111231AF0209545
:10194000D223D629DD930A9539F76A9551F00D2DEA
:1019500013951124E80DF11DA80FB11DC80FD11D5D
:10196000DBCFDF91CF9111246ECECF92EF920F9308
:10197000E1E0F1E10491E2E0F1E1E490442329F1B6
:10198000E1E0F0E03E2D377011F4F0E0E0E02E2DC4
:101990002695269526952E0F3F2F311D029FF0018B
:1019A000039FF00D11244E9F90014F9F300D112485
:1019B000A9014D5F5E4E2AEFC22E30E020E00E946A
:1019C0007C0A0F91EF90CF90089543E051E1F3CF5F
:1019D000E1E0F0E00E94FD0C319728F068517C4F67
:1019E0008F4F9F4FF9CFAB01FC010E94FD0C641794
:1019F00075078E079F07C8F30895A3E6B1E02FB7D8
:101A0000F8947D918D919C9166B52FBFA89B05C0E0
:101A10006F3F18F47F5F8F4F9F4F22E0660F771F55
:101A2000881F991F2A95D1F70895FC01809186019E
:101A3000882311F13FB7F89482E08093E900209168
:101A4000F200822F90E01816190614F481E090E05D
:101A5000882339F0289844E6409385014091F100AD
:101A60004083222339F02091F200211103C02BE69C
:101A70002093E8003FBF08958FEF9FEF08952FB7A1
:101A8000F89483E08093E9009091E800892F8072B8
:101A900095FF04C09091F20080E4891B2FBF089548
:101AA00080917D0181110DC082E08093790184E0F5
:101AB00080937A0110927C0110927B0181E08093E7
:101AC0007D0189E791E008958F929F92AF92BF9236
:101AD000CF92DF92EF92FF920F931F93CF93DF93FA
:101AE0006C017B018A0180910B01882309F458C0A5
:101AF00080918601882309F453C08091780180FF8A
:101B000005C08091E00082608093E000E801B12C84
:101B10008AEFA82E93E0892E2AE3922E209711F4C3
:101B2000BB20B9F10E943F0D811106C0AA94AA20E2
:101B3000B9F10E94E80CF2CF8C171D0611F00CF0E1
:101B40008C2F9FB7F8948092E9002091E80025FD42
:101B500002C09FBFE3CF282F30E0C21BD30BF70199
:101B6000815020F041914093F100FACFE20EF31E34
:101B7000BB2021F09092E800B12CEBCF8091E800DF
:101B800085FDE7CF9092E800BB24B394209709F33A
:101B9000F3CF5D9884E680937701101611063CF030
:101BA00081E090E0F6019383828310E000E0C801B9
:101BB000DF91CF911F910F91FF90EF90DF90CF9029
:101BC000BF90AF909F908F900895CF93DF931F9217
:101BD000CDB7DEB76983DC01ED91FC910280F38122
:101BE000E02D41E050E0BE016F5F7F4F09950F90FF
:101BF000DF91CF91089583E08093E9008091F20016
:101C0000882319F08AE38093E80008950E943F0D2D
:101C100090E00895CF93DF931F92CDB7DEB7FC011C
:101C20008485958597FD08C02FEF3FEF3587248782
:101C30000F90DF91CF910895CE0101960E94150D6E
:101C4000019719F4898190E0F3CF8FEF9FEFF0CFE8
:101C50000F931F93CF93DF931F92CDB7DEB78C0105
:101C6000FC018485958597FF0BC0CE0101960E94EB
:101C7000150D019771F4898190E0F80195878487AB
:101C8000F801848595850F90DF91CF911F910F9179
:101C900008958FEF9FEFF1CFFC018485958597FD27
:101CA0000BC09FB7F89482E08093E9008091F20026
:101CB0009FBF90E0019608959FB7F89482E08093CB
:101CC000E9008091F2009FBF90E008954091730178
:101CD00050917401209171013091720142175307A4
:101CE000B4F49091E8009570E1F39091E80092FDD2
:101CF00019C08093F1008091730190917401019655
:101D00008F739927892B19F48EEF8093E8008091C7
:101D10007301909174010196909374018093730103
:101D200081E0089580E00895EF92FF920F931F9352
:101D3000CF93DF93F82E192FE62E042F81E0860F24
:101D4000880F0E94660E83E00E94660ECF2DD12F71
:101D5000EC0EFD2EF11CCE15DF05B9F007FF13C008
:101D6000FE0184910E94660E182F80E00E94660E8C
:101D7000812321968111EFCFDF91CF911F910F9198
:101D8000FF90EF9008958881EDCF81E0F5CFDF924D
:101D9000EF92FF920F931F93CF93DF93D82E8A0178
:101DA000EB017B01E40EF51ECE15DF0559F0D7FEE1
:101DB00012C0FE0184910E94660E21968111F4CF1B
:101DC0000FEF1FEFC801DF91CF911F910F91FF908F
:101DD000EF90DF9008958881EECF0F931F93CF93FC
:101DE000DF931F92CDB7DEB782E0898342E450E0F3
:101DF00065E970E180E80E94C70E0E94500DDC0189
:101E000012960D911C910115110589F0D801ED91E3
:101E1000FC910280F381E02DBE016F5F7F4FC8010E
:101E2000099597FD04C0F80100851185ECCF8981E3
:101E30000F90DF91CF911F910F910895615030F075
:101E40002091F100FC0120830196F8CF289884E6C8
:101E5000809385010895AF92BF92CF92DF92EF9267
:101E6000FF920F931F93CF93DF936C017B018B0144
:101E7000040F151FEB015E01AE18BF08C017D10794
:101E800059F06991D601ED91FC910190F081E02D1E
:101E9000C6010995892B79F7C501DF91CF911F9173
:101EA0000F91FF90EF90DF90CF90BF90AF9008958B
:101EB000282F30E0F901E859FF4E9491F901E157DC
:101EC000FE4E849124543E4EF9012491222309F4BC
:101ED00030C09923E9F091509F30D0F4E92FF0E021
:101EE000EC58F04F0C944A1CA20FA60F830F9A0FC8
:101EF0009E0F880F880F880FA90FAF0FB30FB70F72
:101F0000BD0F880FC10F909180009F779093800044
:101F1000E22FF0E0EE0FFF1FE255FE4EA591B491C7
:101F20009FB7F894EC91611132C080958E238C9309
:101F30009FBF0895909180009F7DE8CF9091800091
:101F4000977FE4CF94B59F7794BDE2CF94B59F7D02
:101F5000FBCF909190009F7790939000D9CF909174
:101F600090009F7DF9CF90919000977FF5CF909151
:101F7000C0009F779093C000CBCF9091C0009F7D11
:101F8000F9CF9091C200977F9093C200C1CF8E2B62
:101F9000CECFCF93DF9390E0FC01E157FE4E24912A
:101FA00084549E4EFC0184918823D1F090E0880FE8
:101FB000991FFC01E957FF4EA591B491FC01E25530
:101FC000FE4EC591D491623071F49FB7F8943C9164
:101FD000822F809583238C93E8812E2B28839FBFAB
:101FE000DF91CF9108958FB7F894EC912E2B2C931D
:101FF0008FBFF6CFAB01FC010E94FD0C415051098F
:10200000E109F10928F068517C4F8F4F9F4FF6CFBF
:10201000AB01FC010E94FD0C641775078E079F073A
:10202000C8F3089580937C0080E280937B0062E097
:1020300070E080E090E00E94FA0F80917A00806466
:1020400080937A0080917A0086FDFCCF80917800A1
:10205000909179000895089588E00E940B0A8823E2
:1020600019F088E080936F0108952F923F924F926C
:102070005F926F927F928F929F92AF92BF92CF9218
:10208000EF920F93CF93DF9388E00E940B0A88238F
:1020900019F089E080936F01D0E0C0E0912C812C91
:1020A00058EF652E77247A946DEC262E6AE0362E52
:1020B000B12CA12CC401825F9F4E2C012497F20108
:1020C000EA0DFB1D2491C50144E0880F991F4A9534
:1020D000E1F78C0F9D1FECECFAE00491F101E49024
:1020E0004EEC5AE0222301F161E070E03E2D3770A2
:1020F00011F470E060E04E2D469546954695460FEA
:10210000572F511D049FB001059F700D1124E22F20
:10211000F0E0EE0FFF1F6E9FA0016F9F500D7E9F9E
:10212000500D11244253554F23E0C22E30E020E0E1
:10213000B3010E947C0AFFEFAF1ABF0A8AE0A8161B
:10214000B10409F0BCCF98E0690E711CEAE08E0E74
:10215000911CFAE58F16910409F0AACFDF91CF9177
:102160000F91EF90CF90BF90AF909F908F907F9006
:102170006F905F904F903F902F90089588E08093EC
:102180006F01089587E080936F01089586E0809342
:102190006F0108950F931F9308E110E020E630E0EF
:1021A0004CEA59E064E170E080E190E00E941A0995
:1021B0008CE00E940B0A882319F081E080936F0164
:1021C0001F910F9108950F931F9300E410E020E4F6
:1021D00030E04CEA57E070E060E080E290E00E947E
:1021E0001A098CE00E940B0A882319F081E0809381
:1021F0006F011F910F910895EF92FF920F931F931C
:10220000CF93DF9300E410E020E830E04CEA53E0A5
:1022100070E060E090E080E00E941A0985E1E82E1D
:10222000F12C02E010E04EEF400FC0916901D09117
:102230006A0168E370E00C171D0711F06CE370E0B1
:10224000C7010E94B50C0F5F1F4F86E1E80EF11C1D
:102250000630110541F780E40E940B0A882341F003
:10226000C530D1052CF42196D0936A01C093690141
:1022700080E20E940B0A882361F0809169019091AD
:102280006A01833091052CF0019790936A01809345
:10229000690184E00E940B0A882321F08091690182
:1022A00080936F01DF91CF911F910F91FF90EF907D
:1022B00008950F931F93CF93C0915E01CF5FC0939A
:1022C0005E0100E310E020E830E04CEA50E068E016
:1022D00070E090E080E00E941A09C53B18F081E0B0
:1022E00080936F01CF911F910F910895E82FF0E037
:1022F000E552FE4EE491E13019F0E33089F00895A3
:1023000080916F008D7F80936F0080918A01E091B2
:102310008B01F0918C0190818095892380830895B1
:1023200010928D0180918701E0918801F0918901DF
:10233000F2CFCF93DF9390919001923081F0C82F2C
:10234000E92FF0E0E552FE4ED4919F5F909390010B
:1023500061E00E94C90FD13029F0D33049F1DF91FB
:10236000CF91089510928000109281008091810099
:1023700088608093810080918100816080938100DA
:102380008C2F90E0FC01E454FE4EE491F0E0EE0F5F
:10239000FF1FE255FE4E2591349130938C0120931E
:1023A0008B0181579E4EFC01849180938A01D7CF87
:1023B000109290001092910080919100886080931B
:1023C0009100809191008160809391008C2F90E02A
:1023D000FC01E454FE4EE491F0E0EE0FFF1FE255E5
:1023E000FE4E2591349130938901209388018157C5
:1023F0009E4EFC0184918093870180E00E94160A22
:1024000080E0DF91CF910C947611DC01E4E6F0E0FE
:102410009081977F9083E5E6F0E09081977F9083AD
:1024200081E08C93089560387105E8F440345105DB
:10243000D0F4342F369536953695A0E83A9FF001C2
:102440001124E60FF71FE80FF91F3489CA018770BE
:10245000992741E050E001C0440F8A95EAF7222312
:1024600019F0432B448B089540954323FBCF2F92C3
:102470003F924F925F926F927F928F929F92AF9214
:10248000BF92CF92DF92EF92FF920F931F93CF9361
:10249000DF93CDB7DEB72E970FB6F894DEBF0FBE31
:1024A000CDBF6A3069F5FC01EE5DFB4FDC01AC5D30
:1024B000BB4F2C9148E0249F900111244081518111
:1024C000240F351F318320833297118210822E967C
:1024D0000FB6F894DEBF0FBECDBFDF91CF911F9135
:1024E0000F91FF90EF90DF90CF90BF90AF909F90B3
:1024F0008F907F906F905F904F903F902F900895B6
:102500006D3029F39E878D87805E9B4F9E838D83E0
:10251000FC01408051804D855E854C5D5B4F588746
:102520004F8350E8451651040CF08FC0ED85FE85B1
:10253000EE5DFB4FE080F18080E4E816F1040CF0E2
:1025400084C0EF81F885F081FB832F2E312CC201EE
:1025500035E0F39F800D911D1124181619060CF01B
:1025600074C0C10133E0880F991F3A95E1F78E0DD1
:102570009F1D181619060CF068C032011C825C8180
:10258000553009F420E08701D12CC12CC301820D04
:10259000931D9A878987E22FF0E0FC87EB87A801DB
:1025A000420D531D5A83498320FF28C05B8121E0DF
:1025B000513051F1430189859A858816990664F551
:1025C000580117FF02C0B12CA12C89819A81813456
:1025D000910514F080E490E0A816B9065CF421E0BF
:1025E000A501B4018D859E850E9413129FEFA91A43
:1025F000B90AEBCFEFEF8E1A9E0ADDCFFB814301C4
:10260000F13009F060C020E0A7014C0D5D1DB20162
:102610008D859E850E9413122B853C8535952795C7
:102620005FEFC51AD50A020D131D88E0C816D10444
:1026300009F0B1CF9FEF491A590A620C731CEC8163
:10264000EF5FEC83E63009F09ACFEF81F8854081A7
:10265000242F30E0ED81FE8180819181F6E04F9F53
:10266000800D911D1124ED81FE8191838083ED8584
:10267000FE85EB5DFB4F4081442309F428CF6AEFD0
:102680006203A001639F500D112440585F4F48170B
:1026900059070CF01CCF4D855E854E5D5B4F5A830C
:1026A000498383E0220F331F8A95E1F7FA01808185
:1026B0009181280F391F31832083ED81FE8105CF61
:1026C0004FEF841A940A29853A85821693060CF0F6
:1026D000A3CF580117FF02C0B12CA12C89819A8188
:1026E0008134910514F080E490E0A816B90644F70F
:1026F00020E0A501B4018D859E850E9413123FEF55
:10270000A31AB30AEBCF8EBD00000DB407FEFDCFB8
:102710008EB50895089590E080E0089580E10E94CC
:102720000B0A882319F081E08093700180E80E94F1
:102730000B0A8111109270018CE00E940B0A882311
:1027400049F06091EE0182E090E00E94D91B81E0A7
:1027500080936F0180917001882321F08EEE91E0CB
:102760000C9405121092EE018091640088608093B1
:1027700064008091650088608093650008951F92D1
:102780000F920FB60F9211248F939F938091E100C7
:102790009091E100937F9093E10083FF0FC010922E
:1027A000E90091E09093EB001092EC0092E390939B
:1027B000ED001092860198E09093F00082FF22C015
:1027C00093E09093E9009091F200992319F09AE335
:1027D0009093E80090917701992341F090917701CF
:1027E000915090937701911101C05D9A909185016C
:1027F000992341F090918501915090938501911119
:1028000001C0289A84FF18C08091E2008E7E81600A
:102810008093E2008091E1008F7E8093E1008091BF
:1028200078018E7E8061809378019F918F910F90C7
:102830000FBE0F901F90189580FFF7CF8091E20098
:102840008E7E80618093E2008091E1008E7E809395
:10285000E100809178018E7E8160E5CF1F920F921A
:102860000FB60F921124CF92DF92EF92FF920F9347
:102870001F932F933F934F935F936F937F938F9308
:102880009F93AF93BF93EF93FF93CF93DF93CDB716
:10289000DEB76C97DEBFCDBF1092E9008091E800F3
:1028A00083FF25C068E0CE0145960E941E0F82EF8F
:1028B0008093E8008D8987FF39C09091E80090FFF0
:1028C000FCCF982F907609F034C19E894F89588D9E
:1028D0002F89F88C911131C0803861F58091760193
:1028E0008093F1001092F1008EEF8093E8006C96D7
:1028F0000FB6F894DEBF0FBECDBFDF91CF91FF9131
:10290000EF91BF91AF919F918F917F916F915F9167
:102910004F913F912F911F910F91FF90EF90DF907A
:10292000CF900F900FBE0F901F9018959EEF909331
:10293000E800C7CF1092F100D5CF913059F4811142
:10294000D3CF4130510581F6809176018D7F809300
:102950007601CACF933049F48111C6CF4130510579
:1029600019F6809176018260F2CF953041F4809122
:10297000E80080FFFCCF20682093E300B5CF9630BD
:1029800009F0A9C00B8D1C8D22E01092E900109275
:10299000740110927301F2122EC010927201109203
:1029A00071010E94ED0E1F8299E09983FA8291E0F5
:1029B0009E8390EA98879AEF9987209173013091CE
:1029C0007401275F3F4F3C832B838D831092E90076
:1029D00010927401109273011093720100937101AF
:1029E00049E050E0BE016F5F7F4F80E00E94C70E5C
:1029F0000E94ED0E79CF10937201009371010E9435
:102A0000500DDC0112960D911C910115110509F470
:102A100010C1D801ED91FC910480F581E02DBE013B
:102A20006B5E7F4FC8010995009709F0FDC0F80162
:102A300000851185EACFF3E0FF120EC08F8988234D
:102A400009F440C0823061F440E867E089EF90E12A
:102A50000E94940E811148CF81E28093EB0047CF12
:102A6000813029F440E86BE08DEE90E1F1CF8330C6
:102A700099F70E94500DDC011296ED90FC908E01AA
:102A80000F5F1F4F6801E114F10479F0D701ED9158
:102A9000FC910680F781E02DB801C7010995080F68
:102AA000111DF701E084F184EECFD8011C92F601EC
:102AB00001900020E9F73197BF016C197D0940E0D2
:102AC000C601C6CF67ED70E1FB01449150E080E89C
:102AD0000E94C70E09CF973009F4BECF983021F479
:102AE00081E08093F10000CF993009F0FDCE837032
:102AF00009F0B2CFE7E2F1E081E031E096E3219125
:102B0000222371F08093E9003093EB00DF011197ED
:102B10002C912093EC009093ED008F5F873079F734
:102B20008EE78093EA001092EA008F8980938601F5
:102B3000DBCE8B8D9C8D1092E90010927401109267
:102B400073019093720180937101898D811151C03D
:102B50008E899D89913A49F4813209F07DCF47E011
:102B600050E064E071E080E0B3CF913209F074CFBF
:102B7000833269F48F89988DB0E0A0E080930001E2
:102B800090930101A0930201B0930301ADCE803276
:102B900069F48091E80082FFFCCF67E084E091E077
:102BA0000E941E0F8BEF8093E8009ECE823209F0C8
:102BB0009BCE8F8980930B01809104019091050138
:102BC000A0910601B0910701803B9440A105B10599
:102BD00069F480910B0180FD09C088E7809375013D
:102BE000809164008F7D809364007ECE1092750189
:102BF0007BCE0E94500DDC0112960D911C910115A7
:102C0000110509F429CFD801ED91FC910190F081D3
:102C1000E02DBE016B5E7F4FC8010995811164CE26
:102C2000F80100851185EBCF181619060CF45CCE5F
:102C300013CFF1E0FF12FFCE6BED70E145CF0F93A4
:102C40000FB70F931F9211248F939F93EF93FF93CE
:102C5000EBE6F1E08091620191E08D5F8D3710F03D
:102C60008D579395809362018081890F8083918134
:102C7000911D91830281011D02838381811D8383C4
:102C800009270F70092702950093610135D0811142
:102C900000935F01803989F400916001901B9630A8
:102CA00070F087E7809300088093010888E198E03E
:102CB0008093600090936000FFCF909360018091BB
:102CC0007501815018F08093750159F3E3E6F1E046
:102CD0008081918101968083918382819381811D7E
:102CE000911D82839383FF91EF919F918F911F900C
:102CF0000F910FBF0F9118958FB18095807F669BC4
:102D000088601C9B846008951F920F920FB60F92EB
:102D100011242F933F934F935F936F937F938F93E0
:102D20009F93AF93BF93EF93FF9380918D0188237F
:102D300049F080918701E0918801F09189019081AB
:102D40008927808380916701882309F49CC0809142
:102D50005A0190915B01A0915C01B0915D01892BBA
:102D60008A2B8B2B09F48FC080915A0190915B01C3
:102D7000A0915C01B0915D010197A109B109809317
:102D80005A0190935B01A0935C01B0935D01892B84
:102D90008A2B8B2B09F077C080918E0190918F0147
:102DA0009093590180935801E0915101F0915201A3
:102DB000AF014F5F5F4F50935201409351012491F7
:102DC000922F907F822F8F70903819F40E94761185
:102DD000EBCF903951F43296F0935201E0935101C8
:102DE000FA0144910E94160ADFCF903E29F4109216
:102DF000520110925101D8CF903F09F078C0109243
:102E00006701809157018823F1F120915801309199
:102E1000590180918E0190918F012817390799F1FE
:102E20008091530190915401A0915501B0915601A8
:102E30000097A240B10540F080918E0190918F01E2
:102E40008115904408F090C0A0918E01B0918F013F
:102E500020915301309154014091550150915601F8
:102E6000E0915801F09159010E94061C9F0150E029
:102E700040E00E94191C2093530130935401409369
:102E8000550150935601809157018823F9F08091A4
:102E9000530190915401A0915501B0915601892B95
:102EA0008A2B8B2B99F08091530190915401A09122
:102EB0005501B09156010197A109B10980935301C1
:102EC00090935401A0935501B0935601FF91EF9157
:102ED000BF91AF919F918F917F916F915F914F9132
:102EE0003F912F910F900FBE0F901F90189597FD57
:102EF0005BCF3296F0935201E0935101FA01449175
:102F0000A0918E01B0918F01322F242F0E943B1C83
:102F10006C507E4F8F4F9F4F28EE33E040E050E0E3
:102F20000E94191C20935A0130935B0140935C016D
:102F300050935D0180915A0190915B01A0915C01D9
:102F4000B0915D01892B8A2B8B2B09F05ACF81E040
:102F500090E0A0E0B0E080935A0190935B01A093D1
:102F60005C01B0935D014DCF20915301309154012C
:102F70004091550150915601A0918E01B0918F0161
:102F8000E0915801F09159012C5F3F4F4F4F5F4F37
:102F900083E056954795379527958A95D1F71296F0
:102FA000B695A795B695A7950E94061C9F0150E07F
:102FB00040E00E94191C65E0220F331F441F551F7B
:102FC0006A95D1F758CF1F920F920FB60F92112426
:102FD0008F939F93AF93BF93EF93FF938091500193
:102FE000882309F452C080914C0190914D01A09129
:102FF0004E01B0914F01892B8A2B8B2BA1F190911F
:103000008A01E0918B01F0918C0180818927808376
:1030100080914C0190914D01A0914E01B0914F01D2
:10302000181619061A061B069CF480914C01909103
:103030004D01A0914E01B0914F010197A109B10935
:1030400080934C0190934D01A0934E01B0934F019A
:10305000FF91EF91BF91AF919F918F910F900FBE14
:103060000F901F9018951092500180916F008D7FE6
:1030700080936F0080918A01E0918B01F0918C0127
:103080009081809589238083E3CF90918A01E0919C
:103090008B01F0918C0180818927F5CFE1E9F1E086
:1030A0001382128288EE93E0A0E0B0E084839583DF
:1030B000A683B78381E391E0918380838FEF9FEFB5
:1030C00095878487E9EEF1E01382128283E491E030
:1030D0009183808315828CE386831086178280E13A
:1030E0008187128613861486158616861786108A9F
:1030F000118A128A138A10920A06109209061092F7
:103100000C0610920B0681E080930D06A5EEB1E04F
:103110001196FC93EE938DEF91E013969C938E9312
:103120001297A1EEB1E01C9211961C921197139682
:10313000FC93EE9312970895789483E084BD83E026
:1031400085BD81E080936E00E1E8F0E083E080835C
:10315000E0E881E08083E1E983E08083E0E981E0E9
:103160008083E1EC87E08083E3EC81E08083E0EC26
:1031700082E08083E2EC81E08083EAE787E080837D
:1031800080688083109286011092760110927801F7
:103190008091D70081608093D70080EA8093D80027
:1031A00089B5806189BD89B5826089BD09B400FE99
:1031B000FDCF0E94E80C8091D8008F7C80618093C5
:1031C000D8008091E000807F8093E0008091E10052
:1031D0008E7E8093E1008DE08093E200559A209AE4
:1031E000CFB7F89480916801811127C0EDECF1E12F
:1031F0008491E0EAF1E19491E82FF0E0EE0FFF1FF7
:10320000E957FF4EA591B491EC91E92321F461E0D7
:1032100081E10E94580F61E081E10E94C90F8CB5E5
:1032200080618CBD8CB580648CBD61E08FE00E94B4
:10323000C90F61E080E10E94C90F809168018F5F32
:1032400080936801CFBF61E084E00E94C90F61E014
:103250008CE00E94C90F62E084E10E94C90F62E025
:1032600083E10E94C90F62E082E10E94C90F62E01F
:1032700085E10E94C90F62E087E00E94C90F62E009
:1032800088E00E94C90F85E00E9499118DE00E949C
:103290009911E8ECF1E1E491F0E0EE0FFF1FE25547
:1032A000FE4E859194919093020680930106EBE97E
:1032B000F1E1E491E0930706E0ECF1E1E491F0E064
:1032C000EE0FFF1FE255FE4E8591949190930406F8
:1032D00080930306E3E9F1E1E491E093080661E0FD
:1032E00086E00E94C90F61E086E00E94580F61E00D
:1032F00070E080E090E00E94FA0F60E086E00E94BB
:10330000580F6AE070E080E090E00E94FA0F61E000
:1033100086E00E94580F0E94C8098EEA0E9483131B
:1033200085ED0E94831380EF0E94831388EA0E9438
:1033300083138FE30E94831383ED0E94831380E045
:103340000E94831380E40E9483138DE80E948313FC
:1033500084E10E94831380E20E94831380E00E9434
:10336000831381EA0E94831388EC0E9483138AED01
:103370000E94831382E10E94831381E80E948313D9
:103380008FEC0E94831389ED0E94831381EF0E94CA
:1033900083138BED0E94831380E40E94831384EADD
:1033A0000E94831386EA0E9483138FEA0E9483138C
:1033B0000E94C80980E20E94831380E00E94831368
:1033C00081E20E94831380E00E9483138FE70E94B2
:1033D000831382E20E94831380E00E94831387E0BC
:1033E0000E948313E0910306F0910406808190917E
:1033F0000806892B8083E0910106F09102069081F6
:10340000809107068095892380830E94F109807A44
:10341000803A59F4CDEFD1E089910E94831335E0D1
:10342000CD3FD307C9F70000FECF1092670182E0BD
:1034300090E00E94D11B882321F08EEE91E00E9443
:103440000512809164008160809364008091640023
:10345000826080936400809164008068809364003F
:103460008091640080648093640080916500816035
:10347000809365008CE38093EF0180E18093F201FB
:1034800010926F0183E090E090936A01809369014C
:1034900082E090E00E94D11B882319F081E08093A4
:1034A0007001809164008E7F8093640087EC0E949D
:1034B00012108C018EE50E941210EC010E94FD0C8E
:1034C00000951095C095D0950C9FD0010D9FB00D23
:1034D0001C9FB00D11249B01AC01209530954095A7
:1034E00050950E94061C6B017C010E94FD0C6C0D26
:1034F0007D1D8E1D9F1D611571058105910511F0C2
:103500000E94C81B809164008160809364000DEF6D
:1035100011E02DEFE22E25E0F22EC0E0D0E0DD2418
:10352000D3942FB7F89480916B0190916C01A09186
:103530006D01B0916E012FBF2091FB01222391F00C
:103540002091F301E82FE21BE093FC012091F001B0
:103550003091F1012F5F3F4F3093F1012093F00143
:103560001092FB014091F7015091F8016091F9012F
:103570007091FA0184179507A607B7079CF4481BBA
:10358000423050F083B7817F83BF83B7816083BFB0
:10359000889583B78E7F83BF209709F4C2CF0E949E
:1035A0000000BFCF2091F201AC01BD01420F511DBF
:1035B000611D711D4093F7015093F8016093F9016B
:1035C0007093FA018093F3019093F401A093F501B5
:1035D000B093F601D092FB018091E1018093E2016A
:1035E0000E94F1098093E10180917001882341F1EB
:1035F0008EEE91E00E94051280E0B82FB111BFEF6E
:10360000F8010024B193B193B193B1930394D1F72E
:10361000E0916F01F0E0EE0FFF1FE05FFE4F0190C1
:10362000F081E02D09959DEFA92E91E0B92EF501CD
:1036300081915F010E948313EA14FB04C1F7ACCFB0
:103640001092EE0180916400886080936400809104
:103650006500886080936500CFCF8F929F92AF9274
:10366000BF92CF92DF92EF92FF92CF93DF93EC0164
:10367000688179818A819B81611571058105910538
:1036800021F464E279ED8BE597E02DE133EF41E041
:1036900050E00E94E71B49015A019B01AC01A7EAD7
:1036A000B1E40E94061C6B017C01ACEEB4EFA501F5
:1036B00094010E94141CC60ED71EE81EF91EF7FEC8
:1036C00006C081E0C81AD108E10880E8F80AC8827B
:1036D000D982EA82FB82C701B6019F77DF91CF9141
:1036E000FF90EF90DF90CF90BF90AF909F908F9022
:1036F00008958F929F92AF92BF92CF92DF92EF92F6
:10370000FF9260910C0170910D0180910E019091DA
:103710000F01611571058105910521F464E279EDD0
:103720008BE597E02DE133EF41E050E00E94E71B8D
:1037300049015A019B01AC01A7EAB1E40E94061CB1
:103740006B017C01ACEEB4EFA50194010E94141C46
:10375000C60ED71EE81EF91EF7FE06C081E0C81A85
:10376000D108E10880E8F80AC0920C01D0920D015E
:10377000E0920E01F0920F01C701B6019F77FF9012
:10378000EF90DF90CF90BF90AF909F908F90089573
:1037900060930C0170930D0180930E0190930F01C3
:1037A0000895F999FECF92BD81BDF89A992780B509
:1037B0000895262FF999FECF1FBA92BD81BD20BD75
:1037C0000FB6F894FA9AF99A0FBE01960895052E4D
:1037D00097FB1EF400940E94FE1B57FD07D00E9429
:1037E000191C07FC03D04EF40C94FE1B5095409519
:1037F000309521953F4F4F4F5F4F0895909580959D
:10380000709561957F4F8F4F9F4F08950E943B1C8D
:10381000A59F900DB49F900DA49F800D911D112424
:103820000895B7FF0C94061C0E94061C821B930B84
:103830000895A1E21A2EAA1BBB1BFD010DC0AA1FF1
:10384000BB1FEE1FFF1FA217B307E407F50720F009
:10385000A21BB30BE40BF50B661F771F881F991F84
:103860001A9469F760957095809590959B01AC01CD
:10387000BD01CF010895A29FB001B39FC001A39FD6
:10388000700D811D1124911DB29F700D811D112499
:10389000911D0895EE0FFF1F0590F491E02D0994FE
:0438A000F894FFCFCA
:1038A400FFFFFFFF00E10000000000000100000036
:1038B4005911FC10E310C610CA108E13C210BE10AA
:1038C40035102C102B1000C1808100000000000076
:1038D40000E50D640D060EFB0D4C0E0A0E280E00BD
:0C38E40000000037122B0F8B138A13001A
:00000001FF
