:100000000C9418030C9440030C9440030C9440038C
:100010000C9440030C9440030C9440030C94400354
:100020000C9440030C9440030C94CA110C943912A4
:100030000C9440030C9440030C9440030C94400334
:100040000C9440030C94B5140C9440030C9440039E
:100050000C9440030C9440030C9440030C946B14D8
:100060000C9440030C9440030C9440030C94400304
:100070000C9440030C9440030C9440030C944003F4
:100080000C9440030C9440030C9440030C944003E4
:100090000C9440030C9440030C9440030C944003D4
:1000A0000C9440030C9440030C944003084AD73B43
:1000B0003BCE016E84BCBFFDC12F3D6C74319ABD37
:1000C00056833DDA3D00C77F11BED9E4BB4C3E915B
:1000D0006BAAAABE000000803F05A84CCDB2D44E4A
:1000E000B93836A9020C50B9918688083CA6AAAA4C
:1000F0002ABE000000803F000101FF030101F70359
:10010000080800000000000020620808000000004D
:1001100000665A8108081818182424424281FC00FD
:10012000F80000000000240027002A002D00300005
:10013000D5F08D14A1C881CFD9F1AF200000000007
:1001400000250028002B002E00310003053F213F31
:100150001208120A100A0E1C0E0C1E0C141A141689
:100160001F161E131E1E1B1E1E1F1E3F213F3A2F51
:100170003A173D173F213F181F02040A041F0E04BF
:10018000040E1F0A1F0A0E0E1F04110E2E252E2FFD
:100190002A2E262929021F02081F08150E04040E04
:1001A000150E15151B151B040604040C0400000095
:1001B0000017000300031F0A1F16371A1904130A39
:1001C000153A000300000E11110E000A040A040E75
:1001D000040030000404040010001804031F111F61
:1001E000121F101D151711151F07041F17151D1FAE
:1001F000151D01011F1F151F17151F000A000032D2
:1002000000040A110A0A0A110A040115020E111744
:100210001E051E1F150A0E110A1F110E1F15111F94
:1002200005010E111D1F041F111F1108100F1F04BF
:100230001B1F10101F061F1E040F0E110E1F090694
:100240000E112E1F051A121509011F011F101F0F75
:10025000180F1F0C1F1B041B031C03191513001F71
:1002600011030418111F00020102202020000102C6
:100270000C121E1F120C0C12120C121F0C1A14045A
:100280001E05242A1E1F021C141D1020201D1F08DD
:1002900014111F101E041E1E021C0C120C3E0A0418
:1002A0000C123E1E040214160A020F120E101E0E2D
:1002B000100E1E081E120C1226281E322A26041E9C
:1002C00021001F00211E040102013F213F0500897A
:1002D0003008023802497868140000200048494775
:1002E0004853434F52455300505245535320150035
:1002F0000500680138010000177361766500166219
:1003000061636B001574797065000A0A0A153A6F0B
:100310006B617920163A6564697400596F752065C0
:100320006E74657265640A004E4557204849474817
:1003300053434F52450050524553532015005448E3
:100340004520454E4400080800000000646E7FFF11
:10035000424F4E555320504F494E545300080B0006
:10036000020202000009040000010202000005244C
:1003700000100105240101010424020605240600E1
:10038000010705810310004009040100020A000072
:100390000007050202400000070583024000000438
:1003A00003090412010002EF0201404123368000DC
:1003B000010102030141726475696E6F204C4C4368
:1003C0000041726475696E6F204C656F6E61726476
:1003D0006F00450068010000050038016801000059
:1003E0004024FFF0000000000FFFFC0FFFFFFFFFA5
:1003F000F03FE3FFFFFFFFFFFFC79FFFFFFFFFFF90
:10040000FFF9779EEEF9C279F7BA77AE4EF6DEBA0B
:10041000EB9A6B8E4D77C6DB5DAA63AEAC74DEDB08
:100420005DB26BA6ED76DEBAEBBA49B6E939C279B0
:10043000F7BABFFFFFFFFFFFFFFDDFFFE0FFFF0792
:10044000FFFBE3FE1F1FF8F87FC7F8E1FFEFF7FFA0
:10045000871FFE0FFFF7EFFFF07FFFFFFFF7EFFFB4
:10046000FFFFFFFFFFFBDFFFFFFFFFFFFFFBDFFFE4
:10047000FFFFFFFFFE03C07FFFFFFFFFE1FBDF8702
:10048000FFFFFFFFDFF3CFFBFFFFFFFFDFF3CFFB3C
:10049000FFFFFFFFDFF3CFFBFFFFFFFFE1F3CF879E
:1004A000FFFFFFFFFE17E87FFFFFFFFFFFE007FFF3
:1004B000FFFFFFFFFFF7EFFFFFFFFFFFFFE7E7FF94
:1004C000FFFFFFFFFFE7E7FFFFFFFFFFFFEFF7FF84
:1004D000FFFFFFFFFFEFF7FFFFFFFFFFFFEFF7FF5C
:1004E000FFFFFFFFFFDFFBFFFFFFFFFFFFBFFDFF82
:1004F000FFFFFFFFFE7FFE7FFFFFFFFFFDFFFFBF50
:10050000FFFF00175344001613780016131400154C
:1005100010200015201000540A03E181867F3E1848
:100520006D830F0F0E0183866033186DC3198F180A
:1005300003C38E6033186DE330CF1803C39E60365B
:1005400030CDE360CF3006C79E7E3E30CDB360CF66
:10055000300CC6F6603330D9B660CF33CFCCF660FE
:1005600061B0DB1E60CF30D86CE6C061B0DB1E61CD
:100570008F19986CC6C063B19B0E330F0FB078C64D
:10058000FF7E1F1B061E0FF6E8DBCFC3B8AEA49B91
:10059000928A827B746E68625C57524E4945413E36
:1005A0003A3734312E2C29272523211F1D1C1A19D7
:1005B00017161514131211100F0E0D0C0B0A090843
:1005C0000706000000002300260029002C002F0051
:1005D00004040404040304050202020204030202E8
:1005E00002020606060606060404020202040404C9
:1005F0000802011040804010204080408008020422
:100600000180402010020110801020404020000096
:10061000000200090F0000030401000C00000000AC
:100620000000000000000000000000000000F914BD
:1006300011241FBECFEFDAE0DEBFCDBF12E0A0E095
:10064000B1E0E8E4FEE402C005900D92A63CB107DB
:10065000D9F726E0A6ECB2E001C01D92AC30B2079B
:10066000E1F713E0C8E1D3E004C02197FE010E9446
:100670000127C731D107C9F70E9418150C9422270A
:100680000C940000CF93DF93EFEEF5E0C081D181B1
:100690008881A3EFB5E09C91892B8883C091F105F7
:1006A000D091F20598818091F40580958923888303
:1006B0000190F081E02D90818C9180958923808339
:1006C000DF91CF910895FC0180913E03882311F1C1
:1006D0003FB7F89482E08093E9002091F200822FE6
:1006E00090E01816190614F481E090E0882339F0A0
:1006F000289844E640933D034091F1004083222333
:1007000039F02091F200211103C02BE62093E8007C
:100710003FBF08958FEF9FEF08952FB7F89483E0C0
:100720008093E9009091E800892F807295FF04C0C2
:100730009091F20080E4891B2FBF089580913503CA
:1007400081110DC082E08093310384E080933203F5
:10075000109234031092330381E08093350381E3D8
:1007600093E00895CF93DF931F92CDB7DEB76983EF
:10077000DC01ED91FC910280F381E02D41E050E03D
:10078000BE016F5F7F4F09950F90DF91CF91089564
:1007900083E08093E9008091F200882319F08AE3D6
:1007A0008093E80008950E948D0390E00895CF9310
:1007B000DF931F92CDB7DEB7FC018485958597FD49
:1007C00008C02FEF3FEF358724870F90DF91CF913F
:1007D0000895CE0101960E946303019719F489815F
:1007E00090E0F3CF8FEF9FEFF0CF0F931F93CF9356
:1007F000DF931F92CDB7DEB78C01FC018485958510
:1008000097FF0BC0CE0101960E946303019771F41C
:10081000898190E0F80195878487F8018485958522
:100820000F90DF91CF911F910F9108958FEF9FEF60
:10083000F1CFFC018485958597FD0BC09FB7F89497
:1008400082E08093E9008091F2009FBF90E00196E2
:1008500008959FB7F89482E08093E9008091F200B8
:100860009FBF90E0089540912B0350912C0320915D
:10087000290330912A0342175307B4F49091E800FA
:100880009570E1F39091E80092FD19C08093F1001A
:1008900080912B0390912C0301968F739927892BBC
:1008A00019F48EEF8093E80080912B0390912C0334
:1008B000019690932C0380932B0381E0089580E0B0
:1008C0000895EF92FF920F931F93CF93DF93F82E2B
:1008D000192FE62E042F81E0860F880F0E94330423
:1008E00083E00E943304CF2DD12FEC0EFD2EF11C9E
:1008F000CE15DF05B9F007FF13C0FE0184910E94F9
:100900003304182F80E00E94330481232196811143
:10091000EFCFDF91CF911F910F91FF90EF9008954E
:100920008881EDCF81E0F5CFDF92EF92FF920F93B8
:100930001F93CF93DF93D82E8A01EB017B01E40E46
:10094000F51ECE15DF0559F0D7FE12C0FE018491C9
:100950000E94330421968111F4CF0FEF1FEFC801DD
:10096000DF91CF911F910F91FF90EF90DF9008954D
:100970008881EECF0F931F93CF93DF931F92CDB754
:10098000DEB782E0898342E450E06DE573E080E801
:100990000E9494040E949E03DC0112960D911C910A
:1009A0000115110589F0D801ED91FC910280F381C8
:1009B000E02DBE016F5F7F4FC801099597FD04C010
:1009C000F80100851185ECCF89810F90DF91CF91DF
:1009D0001F910F910895615030F02091F100FC01BA
:1009E00020830196F8CF289884E680933D030895EC
:1009F000AF92BF92CF92DF92EF92FF920F931F932D
:100A0000CF93DF936C017B018B01040F151FEB016A
:100A10005E01AE18BF08C017D10759F06991D60121
:100A2000ED91FC910190F081E02DC6010995892B93
:100A300079F7C501DF91CF911F910F91FF90EF9052
:100A4000DF90CF90BF90AF90089581508F3008F025
:100A500047C0E82FF0E0E15DFA4F0C9401274C0508
:100A600050053E05440548057005700570055305A1
:100A700059055D056105670570056B05809180006E
:100A80008F77809380000895809180008F7DF9CFCB
:100A900080918000877FF5CF84B58F7784BD0895DE
:100AA00084B58F7DFBCF809190008F7780939000ED
:100AB0000895809190008F7DF9CF80919000877F7D
:100AC000F5CF8091C0008F778093C000089580910A
:100AD000C0008F7DF9CF8091C200877F8093C200D4
:100AE00008951F93CF93DF93282F30E0F901E25F41
:100AF000F94F8491F901E151FA4FD491F901E05392
:100B0000FA4FC491CC23A9F0162F81110E9425051C
:100B1000EC2FF0E0EE0FFF1FE35CFE4FA591B491C8
:100B20008FB7F894EC91111108C0D095DE23DC93B7
:100B30008FBFDF91CF911F910895DE2BF8CFCF9318
:100B4000DF9390E0FC01E151FA4F249180539A4FDA
:100B5000FC0184918823C9F090E0880F991FFC0163
:100B6000EE5DFE4FA591B491FC01E35CFE4FC59193
:100B7000D49161110DC09FB7F8948C912095822378
:100B80008C938881282328839FBFDF91CF9108957C
:100B9000623051F49FB7F8943C91822F8095832363
:100BA0008C93E8812E2BEFCF8FB7F894EC912E2BFE
:100BB0002C938FBFEACFDF92EF92FF920F931F9398
:100BC000CF93DF93C0E9D5E006E915E0EE24EA947F
:100BD00062E08A850E949F052A8530E0F901E25F84
:100BE000F94F8491F901E151FA4FF490F901E05382
:100BF000FA4FD490DD2029F181110E942505ED2DB9
:100C0000F0E0EE0FFF1FEE53FA4FA591B491EC9177
:100C10008989FE22B1F081111CC021960C171D0795
:100C2000B9F68091A7059091A10591509E3FB8F427
:100C30009091A30591509E3F90F48F5F8093A705FC
:100C400014C089898F5F898B60E08A850E949F0527
:100C5000E4CF8F3F11F4198AF7CFE98AF5CF8823C3
:100C600021F08F3F51F41092A705DF91CF911F9192
:100C70000F91FF90EF90DF9008958FEFDFCF3FB798
:100C8000F8948091C8029091C902A091CA02B091D3
:100C9000CB0226B5A89B05C02F3F19F00196A11DD8
:100CA000B11D3FBFBA2FA92F982F8827BC01CD01B6
:100CB000620F711D811D911D42E0660F771F881F15
:100CC000991F4A95D1F708958F929F92AF92BF9244
:100CD000CF92DF92EF92FF924B015C010E943F06A0
:100CE0006B017C010E943F066C197D098E099F09EA
:100CF000683E734081059105A8F321E0821A9108AE
:100D0000A108B10888EEC80E83E0D81EE11CF11CD2
:100D100081149104A104B10429F7FF90EF90DF90B2
:100D2000CF90BF90AF909F908F9008958F929F9299
:100D3000AF92BF92CF92DF92EF92FF920F931F93E9
:100D4000CF93DF936C017B018A0180917B02882322
:100D500009F45CC080913E03882309F457C0809158
:100D6000300380FF05C08091E00082608093E00046
:100D7000E801B12C8AEFA82E93E0892E2AE3922E67
:100D8000209711F4BB20D9F10E948D0381110AC074
:100D9000AA94AA20D9F161E070E080E090E00E947E
:100DA0006406EECF8C171D0611F00CF08C2F9FB748
:100DB000F8948092E9002091E80025FD02C09FBFD1
:100DC000DFCF282F30E0C21BD30BF701815020F07A
:100DD00041914093F100FACFE20EF31EBB2021F0C7
:100DE0009092E800B12CEBCF8091E80085FDE7CF31
:100DF0009092E800BB24B394209709F3F3CF5D9859
:100E000084E680932F03101611063CF081E090E0F9
:100E1000F6019383828310E000E0C801DF91CF9157
:100E20001F910F91FF90EF90DF90CF90BF90AF9008
:100E30009F908F900895FC01178A158A14A213A21F
:100E4000108E109237051092380510923B051092C3
:100E500099001092980008950F931F93CF93DF93FA
:100E6000EC018B010E941B071E870D871B8A1A8AC3
:100E700081E0898389E08E8B198E1B8E1D8EDF9118
:100E8000CF911F910F910895E091BE058E2F90E0B4
:100E9000880F991FE091BC05F091BD05E80FF91F7F
:100EA000859194918F3F980719F41092B505089594
:100EB0009093C1059927880F991FE091BF05F09184
:100EC000C005E80FF91F6591749185EB95E00E94CC
:100ED0002C078091BE058F5F8093BE050895CF9348
:100EE000DF93DC0170E0660F771F1F96ED91FC9198
:100EF0005097E60FF71F2591349190963C932E93CF
:100F00005F97F9014591549114968C911497849FA1
:100F1000402D112491964C939197F901C591D4914C
:100F20006D2F70E04617170629F020F0F901259182
:100F30003491432F849F402D112492964C93DF913E
:100F4000CF9108952F923F925F926F927F928F92EE
:100F50009F92AF92BF92CF92DF92EF92FF920F9348
:100F60001F93CF93DF93EC01F901E49031968491C4
:100F700064350CF015C140330CF012C10E2C000C7E
:100F8000FF08062F062E000C110BF701E00FF11FD2
:100F90001E161F060CF004C1A82FC42E042E000C30
:100FA000DD085601A80EB11C87FDBA941A141B0463
:100FB0000CF0F6C02E5F3F4F570197E0A90EB11C11
:100FC000B7FE04C05701BEE0AB0EB11CB3E0B59450
:100FD000A794BA95E1F747FF0AC0A42FA80FAC9CCD
:100FE000C001AD9C900D1124281B390B40E08A2FC5
:100FF0000A2E000C990B840F911D47FD9A95C197FD
:1010000014F0A0E3A41BFF8467FD60E0E535F10563
:1010100014F0E4E5F0E09E2FCC85C427C62E062E02
:10102000000CDD08F601E01BF10B8F014F01F7E02A
:101030008F229924E0E8F0E002C0F595E7958A94C4
:10104000E2F77E2F17FF02C0095F1F4FF3E01595EF
:101050000795FA95E1F7200F311F542F577081E063
:1010600001C0880F5A95EAF7459545954595F601D3
:10107000B4E54B02E00DF11D1124AF01415C5C4F62
:10108000D0E02A2EAA0F3308EE24E394BB24D21515
:1010900013040CF085C0F9015490F1E0FF121AC05E
:1010A000962E8A01E72F6901991608F057C08E2EF7
:1010B000852021F0D8018C90882A8C92E69531F415
:1010C000BFEFCB1ADB0AF6015490E0E893940F5F70
:1010D0001F4FEACFF1101CC0782E7094962E8A0113
:1010E000E72F6901991608F039C08E2E852021F06E
:1010F000D8018C9087208C92E69531F4BFEFCB1A03
:10110000DB0AF6015490E0E893940F5F1F4FEACF9B
:10111000F3E0FF122CC0782E7094862E8A01972E51
:1011200069018916D0F4E92DE52141F0D801EC914F
:101130006C2E682460FE0FC0E82BEC93969439F473
:10114000BFEFCB1ADB0AF6015490E0E89E2E8394A1
:101150000F5F1F4FE6CFE721F0CFCE25880F19F4A0
:101160004C5A5F4F81E0DF5F2A0D3B1D90CF962EDA
:101170008A01E72F6901991688F78E2E852021F0C4
:10118000D8018C9088268C92E69531F4BFEFCB1A6B
:10119000DB0AF6015490E0E893940F5F1F4FEBCF0A
:1011A000DF91CF911F910F91FF90EF90DF90CF9043
:1011B000BF90AF909F908F907F906F905F903F9087
:1011C0002F900895DC01643570F5403360F51F966B
:1011D0008C911F97E62F062E000CFF0B242F2595D0
:1011E0002595259594E52902E00DF11D1124E15C7A
:1011F000FC4F2081342F37708230B1F4822F90E081
:10120000032E02C0959587950A94E2F78095817028
:10121000811114C081E090E001C0880F3A95EAF78F
:101220008095822380830895833091F71C968C915A
:1012300081706427609561708613ECCF81E090E047
:1012400001C0880F3A95EAF7822BECCFAF92BF929C
:10125000CF92DF92EF92FF920F931F93CF93DF9382
:10126000182F062FC0E0D3E08AEFD82E9EEFE92E8C
:10127000842F8470C82E842F8270B82E842F88709B
:10128000A82E4170F42ECF5F8C2F880F8F5FE80E51
:10129000CC2081F0402F4D0F612F6C0F8EED95E02B
:1012A0000E94E208402F4C0F6D2F610F8EED95E0EC
:1012B0000E94E208BB2081F0402F4D1B612F6C0F74
:1012C0008EED95E00E94E208402F4C1B6D2F610FC0
:1012D0008EED95E00E94E208AA2081F0402F4C0F8D
:1012E000612F6D1B8EED95E00E94E208402F4D0F9F
:1012F000612F6C1B8EED95E00E94E208FF2081F0CB
:10130000402F4C1B612F6D1B8EED95E00E94E20873
:10131000402F4D1B612F6C1B8EED95E00E94E20863
:10132000CD173CF4E7FCAFCFD150D394D394ED0C60
:10133000AACFDF91CF911F910F91FF90EF90DF9097
:10134000CF90BF90AF9008959F92AF92BF92CF92EF
:10135000DF92EF92FF920F931F93CF93DF93C82FEB
:10136000D62F042FE22E022E000CFF08E61AF108F9
:1013700067FDF394F7FE03C0F194E194F108C02EE9
:10138000002E000CDD08CC1AD108C7FDD394D7FE7F
:1013900003C0D194C194D108CE14DF0434F4802F5B
:1013A000022F282F8C2FCD2FD82F0C1734F48D2FF0
:1013B000D22F282F8C2FC02F082FA02EAC1A822FAF
:1013C000022E000C990B8D1B9109D7FD939597FF69
:1013D00003C0919581959109B82E1A2DA7FE02C0E0
:1013E00011E01A0D159599249A94D21714F49924A2
:1013F00093940C1794F04C2F6D2FCE14DF0414F03F
:101400004D2F6C2F8EED95E00E94E2081B1917FFFF
:1014100002C0D90D1A0DCF5FECCFDF91CF911F9194
:101420000F91FF90EF90DF90CF90BF90AF909F9083
:101430000895EF92FF920F931F93CF93DF938C0148
:10144000F62ED42FE22EC0E0CE1544F46F2D6C0F93
:101450004D2FC8010E94E208CF5FF6CFDF91CF91F8
:101460001F910F91FF90EF9008952F923F924F920E
:101470005F926F927F928F929F92AF92BF92CF9224
:10148000DF92EF92FF920F931F93CF93DF9300D0E1
:1014900000D0CDB7DEB79C838B8364350CF0C2C01F
:1014A00040330CF0BFC0DC011796EC911797E15068
:1014B000FF0B0E9FC0010F9F900D1124860F911DF1
:1014C00067FD9A95181619060CF0ACC018963C9159
:1014D0001897842F042E000C990B039F800D911DEB
:1014E0001124181619060CF09DC0142F6A83FD01F3
:1014F000F785F983562E412CE22EF12CA02E002EDA
:10150000000CBB08E42D042C000CFF0BAB81BC814C
:1015100017968C91179790E0E817F9070CF07DC0AB
:101520000197E817F90799F1E89E6001E99ED00C50
:10153000F89ED00C1124CE0EDF1E1D96ED91FC916D
:10154000EC0DFD1DE491712E612C3A80340CAB81C1
:10155000BC8118962C911897862D062C000C990B9F
:101560002817190609F00CF455C0CE2ED12CE0FF37
:1015700026C0013071F4462D410F632DCD010E942C
:10158000E208F601F595E7956394700EE0CFE0E090
:10159000DACF272C4501870C911C77FC9A94822D79
:1015A000022C000C990B881599055CF7202F422D11
:1015B000652D8B819C810E94190A2394F0CFEB81C9
:1015C000FC81808997858917E1F28787013061F472
:1015D000462D410F632DCF010E94E208E981AB81C6
:1015E000BC811F96EC93CDCF272C4501870C911C15
:1015F00077FC9A94822D022C000C990B8815990582
:101600006CF7202F422D652D8B819C810E94190A39
:101610002394F0CF4394500E75CFE981AB81BC8108
:101620001F96EC930F900F900F900F90DF91CF913A
:101630001F910F91FF90EF90DF90CF90BF90AF90F0
:101640009F908F907F906F905F904F903F902F90E2
:1016500008950F93CF93DF93EC016A3049F42E8104
:1016600098858A85299F800D11248A8719861EC036
:101670006D30E1F0262F0E814A8569850E94350A7A
:101680002E813F818985239F800D112489879D812B
:10169000992361F0082E000C990B44E550E0239F3C
:1016A00040195109112448175907D4F281E090E0FC
:1016B000DF91CF910F910895EF92FF920F931F93B7
:1016C000CF93DF938C017B01D0E0C0E0F701EC0FFA
:1016D000FD1F6491662339F0C8010E94290B892BF4
:1016E00011F02196F3CFCE01DF91CF911F910F9191
:1016F000FF90EF900895EF92FF920F931F93CF9377
:10170000DF938C01D62FF42EE22EC0E0CE1544F4E8
:101710004F2D4C0F6D2FC8010E94E208CF5FF6CF0E
:10172000DF91CF911F910F91FF90EF900895DF927D
:10173000EF92FF920F931F93CF93DF93E82ED62F54
:10174000C42F022F8AEFD82ED40E93E0F92EFE0C70
:101750002D2D462F6F2D8EED95E00E94190A1D2F1D
:10176000100F4FEF410F2D2D6F2D8EED95E00E9444
:10177000190A0650DD5F202F4D2F6E2D8EED95E05E
:101780000E947B0BCE0D6FEF6C0F202F4D2F8EED37
:1017900095E00E947B0B41E06D2F8F2D0E94260962
:1017A000C45042E06D2F8C2F0E942609145044E053
:1017B000612F8C2F0E94260948E0612F8F2DDF9129
:1017C000CF911F910F91FF90EF90DF900C9426091D
:1017D0008F929F92AF92BF92CF92DF92EF92FF9241
:1017E0000F931F93CF93DF93082FB62E942EA22E24
:1017F00083E0F82ED0E0C3E09AEFE92E1EEFCC2470
:10180000C394C20EDF5F1F0D2C2F220F4B2D4C1BDC
:101810008A2C8F0CDB2CDD1A81E02C0D602F9812A6
:1018200018C06D0F8EED95E00E947B0B282D4D2D7D
:101830006C2F600F8EED95E00E947B0BDC179CF403
:1018400017FD04C0C150E394E3941E0DF394F39488
:10185000D9CF6D1B8EED95E00E947B0B282D4D2D71
:10186000602F6C1BE7CFDF91CF911F910F91FF90FD
:10187000EF90DF90CF90BF90AF909F908F900895A2
:101880008EBD00000DB407FEFDCF8EB508951F93E9
:10189000CF93DF93809168028823A9F010E0DFE204
:1018A000C9E180910501181770F44D2F6C2F8EED52
:1018B00095E00E94E208C0FF03C0CF5F1F5FF1CF39
:1018C000C150D150FBCF80916B028823A9F010E06A
:1018D000DFE2C7E380910601181770F44D2F6C2FDB
:1018E0008EED95E00E94E208C0FF03C0CF5F1F5F4E
:1018F000F1CFC150D150FBCFDF91CF911F9108950F
:101900000F931F93CF93DF9306E612E0C2E0D0E07F
:10191000F80181918F01D23011F0D530A9F424E182
:1019200031E0811102C02AE031E048E26C2F8EEDF7
:1019300095E00E94A207DF5FC65FD83049F7DF91CC
:10194000CF911F910F91089526E433E08111EDCFDF
:1019500020E031E0EACFCF93DF936091CD026F5F5B
:101960006093CD02EEE1F3E0A6E6B2E081918D93C3
:1019700083E0E632F807D1F781E080936802809334
:101980006B028AE08093050180930601EFE1F2E0AB
:10199000A3E3B2E0CBE5D2E084E680838C93899325
:1019A0003296149692E0E333F907B9F7862F6B303D
:1019B00008F08AE0865F809365026331E0F470E0AE
:1019C00090E080E00E94D2242DEC3CEC4CEC5DE3F6
:1019D0000E94F5252DEC3CEC4CE45EE30E94442390
:1019E00060930101709302018093030190930401BD
:1019F000DF91CF91089560E070E080E090E4F0CF57
:101A0000089590E080E00895EF92FF920F931F9366
:101A1000CF93DF934091050650910606609107062B
:101A2000709108062FB7F89480913C0590913D0580
:101A3000A0913E05B0913F052FBF481B590B6A0B83
:101A40007B0B8091040690E0B0E0A0E00091FD05E2
:101A50001091FE052091FF0530910006841795072F
:101A6000A607B70708F04EC001151105210531057D
:101A700009F448C02FB7F89480913C0590913D053A
:101A8000A0913E05B0913F052FBF20910406820F23
:101A9000911DA11DB11D8093050690930606A0938C
:101AA0000706B09308068091F5059091F605A09180
:101AB000F705B091F8050196A11DB11D8093F505BC
:101AC0009093F605A093F705B093F8051092FD05E5
:101AD0001092FE051092FF05109200060E943F062C
:101AE0006093F9057093FA058093FB059093FC05CC
:101AF0000E94DB0581E0DF91CF911F910F91FF9054
:101B0000EF900895012B022B032B09F072C28091F4
:101B1000B505882331F08091B605811102C00E947D
:101B200044078091B605882309F43DC08091CA0519
:101B3000811139C02091C2053091C305E091C705DC
:101B4000F091C805EE0FFF1FE20FF31F85919491EE
:101B5000009709F4BDC09C013695279536952795C9
:101B6000422F80FD5EC04F734093C9058091B90537
:101B7000899F802D11248093CA051092DA05109256
:101B8000D9051092D80581E08093CC0580933B0560
:101B90001092CD058091C7059091C805019690934C
:101BA000C8058093C7058091CC05882341F08091BA
:101BB000CA058111A9C085EB95E00E941B078091A1
:101BC0000906882309F4B1C1CCE0C81B8C3008F0A9
:101BD000C0E081E08093E4051092ED051092EE05DF
:101BE000D091E60583E0E82EED0E1C2F1D1B0DE2C3
:101BF000010F0E2C000CFF08E00EF11C07FDFA94FB
:101C0000802F002E000C990B8E159F050CF059C1EA
:101C10002EE4402F63E08EED95E00E94190A0F5FDD
:101C2000EFCFBC01E6E076956795EA95E1F76F7135
:101C3000892F86958695869580512F70223099F14F
:101C4000D0F4222309F43EC02130B9F1E091C70558
:101C5000F091C8053196F093C805E093C705CF0110
:101C6000880F991FE091C205F091C305E80FF91F95
:101C70008591949170CF233061F0243039F79091A1
:101C8000B905969F602D11246093D2058093D305EA
:101C9000DDCF9091B905969F602D11246093D005FA
:101CA0008093D105D3CF9091B905969F602D1124D3
:101CB0006093CE058093CF05C9CF85EB95E00E9458
:101CC0006F07C4CF6B3008F06AE06093CB05BECFDE
:101CD0008091C605811112C01092B6058091B5059C
:101CE000811105C085EB95E00E941B075CCF0E9427
:101CF00044078091C7059091C805B2CF1092C805DE
:101D00001092C705F901B4CF81508093CA05809124
:101D1000DA05811142C02091D8053091D9052F5F95
:101D20003F4FC901880F991FE091D405F091D50567
:101D3000E80FF91F85919491482F47704093DB0578
:101D4000492F469546954093DC05AC0164E05695D5
:101D500047956A95E1F74F739091B905499F402DDA
:101D600011244093DA0583FB882780F980933A0594
:101D70003093D9052093D8058091D60590E0281797
:101D8000390758F02091D705222309F492C0821B0D
:101D900091099093D9058093D8058091DA058150F7
:101DA0008093DA058091CD0531E0380F3093CD0571
:101DB0004091C9052091DC05240F8091C105280FB1
:101DC0002093B7056091D005662371F070E0832FF2
:101DD000032E000C990B0E94ED268091D105869F61
:101DE000200D11242093B7058091B70590E0CB9684
:101DF0006BE370E00E94ED268093B7052091CB0540
:101E00002093B8056091CE05662381F0062E000C64
:101E1000770B832F032E000C990B0E94ED268091E7
:101E2000CF05869F200D11242093B8056091D2051F
:101E30006623A1F0832F330F990B70E00E94ED26EB
:101E4000CB0162E070E00E94ED262091D3059091D5
:101E5000B805289F900D11249093B8054F3371F168
:101E60008091B8058A300CF089E087FD80E080938E
:101E7000B805F894E091B705F0E0E957FA4FE4911E
:101E8000E09339058091BA059091DD05899F802DF9
:101E900011249091B805899F802D11249091DB0524
:101EA000899F802D1124809338058093370578947D
:101EB00086CE85EB95E00E941B076FCF1092B80588
:101EC000D8CFD450105D2D2F41E0612F80E50E94C6
:101ED000E80B2D2F42E0612F83E00E94E80B81E0A8
:101EE0008093ED058093EE058091E60523E0280FB1
:101EF0006C2F681B635D44E580E00E94970B84E0D3
:101F00008093E7058091E605C81BC15DC093E80595
:101F100060910A0670910B068EED95E00E945C0BB5
:101F2000809109068150809309068091EA058F5FB0
:101F30008093EA050FE313E0C0E00E94420382E2CF
:101F40000E94400CCF5F8C2F0E94400C87E00E94C3
:101F5000400C81E20E94400C86E10E94400C8FE719
:101F60000E94400CE091F105F091F2058081909182
:101F7000F405892B8083E091EF05F091F0059081C5
:101F80008091F3058095892380837801D0E0D70183
:101F90008D917D010E94400CDF5FD435C1F70C5A52
:101FA0001F4FC63051F68091E20581110EC0EFE35C
:101FB000F3E088EF91E0DF019C011D922150304059
:101FC000E1F71092E7051092E8050E943F06609342
:101FD000FD057093FE058093FF0590930006209108
:101FE000F9053091FA05621B730B7093020660933A
:101FF000010680E080CDFB0101900020E9F73197D8
:10200000AF01461B570B0C94F804CF93DF93BC0130
:102010008EED95E00E945C0BEC0163EC72E08EEDBE
:1020200095E00E94FB0F8C0F9D1FDF91CF910895CB
:10203000CF92DF92EF92FF920F931F93CF93DF9394
:102040001092A80581E08093E4051092E3051092B8
:10205000E2058093ED058093EE05C2E0D5E01CE03B
:102060000E94040D8823E1F3FE0104910111009107
:10207000E60527E135E040E060E08EED95E00E9466
:10208000A2074CE0400F20EE33E060E08EED95E0DB
:102090000E94A2071092E7051093E80562E075E040
:1020A0008EED95E00E945C0B8091E505982F990FCD
:1020B000990F891B8D5A8093E7058091E605982F2B
:1020C000990F990F891B835D8093E8058091F50531
:1020D00084FF7CC083E195E00E9405108091E505B6
:1020E000982F990F990F891B8D5A8093E70580913E
:1020F000E8058F5F8093E8058091BA05882309F48D
:1021000068C08BE095E00E9405108091E505982F4E
:10211000990F990F891B8D5A8093E7058091E805E7
:102120008F5F8093E80583E095E00E940510809121
:10213000A6058130A9F48091BA058F5F082E000CA6
:10214000990B6091BB0570E06F5F7F4F0E94ED2699
:102150008093BA0562ED73E085EB95E00E942C0751
:102160008091A5058130B9F080910306482F50E099
:1021700070E060E0C090F505D090F605E090F705BE
:10218000F090F805C416D506E606F70608F468CF01
:102190008F3F09F465CF8FEF8093030685EB95E0C1
:1021A0000E941B071092B60568ED73E085EB95E081
:1021B0000E942C0781E08093A805DF91CF911F91A9
:1021C0000F91FF90EF90DF90CF9008958FE095E012
:1021D00083CF87E095E097CF8F929F92AF92BF9287
:1021E0000F931F93CF93DF93CDB7DEB7A1970FB6B1
:1021F000F894DEBF0FBECDBF19A2423008F44AE00A
:102200008E010F5D1F4F842E912CB12CA12CA501A6
:1022100094010E941223E62FB901CA01EA3004F5A5
:10222000E05DD801EE938D01232B242B252B79F72C
:1022300090E080E0109729F0BD018EED95E00E94BE
:10224000FB0FA1960FB6F894DEBF0FBECDBFDF9196
:10225000CF911F910F91BF90AF909F908F90089555
:10226000E95CDFCF4AE060E070E0CB010C94EC1059
:102270008EE18093E7051092E80580911A03909112
:102280001B03A0911C03B0911D03803A9648A14006
:10229000B10510F40E94321180911A0390911B0332
:1022A000A0911C03B0911D0380319742A105B10597
:1022B00010F40E94321180911A0390911B03A09197
:1022C0001C03B0911D03883E9340A105B10510F495
:1022D0000E94321180911A0390911B03A0911C035C
:1022E000B0911D0384369105A105B10510F40E943B
:1022F000321180911A0390911B03A0911C03B0919D
:102300001D030A97A105B10510F40E9432116091D6
:102310001A0370911B0380911C0390911D034AE0E6
:102320000C94EC100F931F93CF93DF9300E915E00B
:10233000C5E0F801C3AF21A516AE17AEC89FE001F6
:102340001124C058DD4F9C818B81829F802D1124E8
:102350008093D0059093D105688185EB95E00E942C
:102360006F079A818981F80181AF81A5899F802DAE
:10237000112482AF1092DA051092D9051092D80577
:1023800081E084AF80933B0515AEDF91CF911F9123
:102390000F9108951F920F920FB60F9211248F93F1
:1023A0009F938091E1009091E100937F9093E100F1
:1023B00083FF0FC01092E90091E09093EB00109220
:1023C000EC0092E39093ED0010923E0398E090931E
:1023D000F00082FF22C093E09093E9009091F20018
:1023E000992319F09AE39093E80090912F03992391
:1023F00041F090912F03915090932F03911101C0C0
:102400005D9A90913D03992341F090913D03915045
:1024100090933D03911101C0289A84FF18C08091C8
:10242000E2008E7E81608093E2008091E1008F7EE9
:102430008093E100809130038E7E80618093300331
:102440009F918F910F900FBE0F901F90189580FF56
:10245000F7CF8091E2008E7E80618093E2008091D0
:10246000E1008E7E8093E100809130038E7E81605A
:10247000E5CF1F920F920FB60F921124CF92DF92E9
:10248000EF92FF920F931F932F933F934F935F937E
:102490006F937F938F939F93AF93BF93EF93FF932C
:1024A000CF93DF93CDB7DEB76C97DEBFCDBF109271
:1024B000E9008091E80083FF25C068E0CE014596E1
:1024C0000E94EB0482EF8093E8008D8987FF39C07A
:1024D0009091E80090FFFCCF982F907609F034C1DE
:1024E0009E894F89588D2F89F88C911131C0803881
:1024F00061F580912E038093F1001092F1008EEF30
:102500008093E8006C960FB6F894DEBF0FBECDBF87
:10251000DF91CF91FF91EF91BF91AF919F918F91FB
:102520007F916F915F914F913F912F911F910F91EB
:10253000FF90EF90DF90CF900F900FBE0F901F9005
:1025400018959EEF9093E800C7CF1092F100D5CF79
:10255000913059F48111D3CF4130510581F68091EA
:102560002E038D7F80932E03CACF933049F48111BF
:10257000C6CF4130510519F680912E038260F2CF0B
:10258000953041F48091E80080FFFCCF20682093D3
:10259000E300B5CF963009F0A9C00B8D1C8D22E069
:1025A0001092E90010922C0310922B03F2122EC00D
:1025B00010922A03109229030E94BA041F8299E004
:1025C0009983FA8291E09E8390EA98879AEF99879F
:1025D00020912B0330912C03275F3F4F3C832B83AB
:1025E0008D831092E90010922C0310922B0310930C
:1025F0002A030093290349E050E0BE016F5F7F4F3B
:1026000080E00E9494040E94BA0479CF10932A03B8
:10261000009329030E949E03DC0112960D911C91E8
:102620000115110509F451C1D801ED91FC91048007
:10263000F581E02DBE016B5E7F4FC80109950097C3
:1026400009F03EC1F80100851185EACFF3E0FF12E1
:102650000EC08F89882309F440C0823061F440E8BD
:1026600060E181EC93E00E946104811148CF81E236
:102670008093EB0047CF813029F440E86BE085EB95
:1026800093E0F1CF833099F70E949E03DC0112960C
:10269000ED90FC908E010F5F1F4F6801E114F10473
:1026A00079F0D701ED91FC910680F781E02DB8011A
:1026B000C7010995080F111DF701E084F184EECFE1
:1026C000D8011C92F60101900020E9F73197BF0173
:1026D0006C197D0940E0C601C6CF6FE973E0FB01CC
:1026E000449150E080E80E94940409CF973009F4A7
:1026F000BECF983021F481E08093F10000CF993073
:1027000009F0FDCE837009F0B2CFEFE9F2E081E08D
:1027100031E096E32191222371F08093E900309318
:10272000EB00DF0111972C912093EC009093ED00CA
:102730008F5F873079F78EE78093EA001092EA0086
:102740008F8980933E03DBCE8B8D9C8D1092E900A8
:1027500010922C0310922B0390932A038093290349
:10276000898D811192C08E899D89913A49F4813277
:1027700009F07DCF47E050E064E772E080E0B3CF3E
:10278000913209F074CF833269F48F89988DB0E06B
:10279000A0E08093700290937102A0937202B093B4
:1027A0007302ADCE803269F48091E80082FFFCCFE5
:1027B00067E084E792E00E94EB048BEF8093E800EF
:1027C0009ECE823209F09BCE8F8980937B02EEEF02
:1027D000FFE7859194918B3F9C4D51F1E0E0F8E04B
:1027E0008091740290917502A0917602B091770267
:1027F000803B9440A105B105F1F480917B0280FDFE
:102800001AC0EE3F8AE0F80789F587E797E79183DA
:1028100080838091600080932D0388E19BE00FB658
:10282000F894A895809360000FBE9093600067CEE7
:10283000EEEFFAE0D5CF808191818737974709F095
:102840005ECEA89580916000886180936000809141
:102850002D0380936000EE3F2AE0F20789F080911B
:10286000FE0A9091FF0A9183808349CE80819181F5
:102870008737980751F29093FF0A8093FE0AC5CFDD
:102880001092FF0A1092FE0A3ACE0E949E03DC01CB
:1028900012960D911C910115110509F4E8CED8018D
:1028A000ED91FC910190F081E02DBE016B5E7F4FB8
:1028B000C8010995811123CEF80100851185EBCF60
:1028C000181619060CF41BCED2CEF1E0FF12BECEC4
:1028D00063EA73E004CF1F920F920FB60F92112498
:1028E0002F933F938F939F93AF93BF9380913C051A
:1028F00090913D05A0913E05B0913F053091C702F2
:1029000023E0230F2D3758F50196A11DB11D20930B
:10291000C70280933C0590933D05A0933E05B0937C
:102920003F058091C8029091C902A091CA02B0915E
:10293000CB020196A11DB11D8093C8029093C902DC
:10294000A093CA02B093CB02BF91AF919F918F9198
:102950003F912F910F900FBE0F901F90189526E872
:10296000230F0296A11DB11DD2CF1F920F920FB659
:102970000F9211242F936F937F938F939F93609166
:102980003805662361F18091C6028F5F8093C6028D
:1029900090913905891718F120913B0581E028278E
:1029A00020933B051092C60280913A05882369F076
:1029B0008091000193E4899F802D1124895B80938D
:1029C00000010E94E126909337058091370521117F
:1029D00001C080E090E090939900809398009F91CF
:1029E0008F917F916F912F910F900FBE0F901F903D
:1029F0001895E0E4F5E01382128288EE93E0A0E0FF
:102A0000B0E084839583A683B78389EA92E09183BB
:102A100080838FEF9FEF958784871092E105109256
:102A2000E0058BEB92E09093DF058093DE0508953F
:102A3000CF93DF93CDB7DEB7AA970FB6F894DEBF7A
:102A40000FBECDBF789484B5826084BD84B58160AB
:102A500084BD85B5826085BD85B5816085BD809169
:102A60006E00816080936E001092810080918100E1
:102A700082608093810080918100816080938100D9
:102A800080918000816080938000809191008260BD
:102A9000809391008091910081608093910080915A
:102AA00090008160809390008091C1008460809349
:102AB000C1008091C10082608093C1008091C100FB
:102AC00081608093C1008091C30081608093C300C6
:102AD0008091C00082608093C0008091C2008160BC
:102AE0008093C20080917A00846080937A00809104
:102AF0007A00826080937A0080917A00816080936E
:102B00007A0080917A00806880937A0010923E0368
:102B100010922E03109230038091D7008160809331
:102B2000D70080EA8093D80089B5806189BD89B5D6
:102B3000826089BD09B400FEFDCF61E070E080E0F5
:102B400090E00E9464068091D8008F7C8061809321
:102B5000D8008091E000807F8093E0008091E100C8
:102B60008E7E8093E1008DE08093E200559A209A5A
:102B700082E38093040681E090E0A0E0B0E08093DF
:102B8000FD059093FE05A093FF05B093000611E0AC
:102B90001093BB051093BA058FEF8093030684E171
:102BA00080939A0582E180939B0583E180939C0545
:102BB00085E180939D0587E080939E0588E0809362
:102BC0009F051092A0050E94DB051093ED05109261
:102BD000EE051093E3051093E405EBE4F1E0E491D6
:102BE000EF5FE093E505ECE4F1E0E491EF5FE09363
:102BF000E6058DE491E09093EC058093EB051FB71B
:102C0000F8948091CC02811127C0E1EEF5E0849127
:102C1000E0E0F6E09491E82FF0E0EE0FFF1FEE5DAC
:102C2000FE4FA591B491EC91E92321F461E081E19B
:102C30000E94710561E081E10E949F058CB5806171
:102C40008CBD8CB580648CBD61E08FE00E949F05D7
:102C500061E080E10E949F058091CC028F5F8093AC
:102C6000CC021FBF8CB58C7F8CBD8DB581608DBDB6
:102C700061E084E00E949F0561E08CE00E949F0576
:102C800061E086E00E949F0561E086E00E94710598
:102C900061E070E080E090E00E94640660E086E021
:102CA0000E9471056AE070E080E090E00E94640696
:102CB00061E086E00E947105ECEDF5E0E491F0E062
:102CC000EE0FFF1FE35CFE4F859194919093F0050A
:102CD0008093EF05E4EDF5E0E491F0E0EE0FFF1FE7
:102CE000E35CFE4F859194919093F2058093F105FA
:102CF000EBEFF5E0E491E093F305E3EFF5E0E49129
:102D0000E093F4050E94420300E311E0F80184918E
:102D10000E94400C0F5F1F4FF1E00D331F07B1F70A
:102D2000E091F105F091F20580819091F405892BF5
:102D30008083E091EF05F091F00590818091F3059B
:102D400080958923808300E014E080E00E94400C9D
:102D500001501109D1F781E08093B90584E0809397
:102D6000DD058EE191E09093C5058093C40560E098
:102D700085EB95E00E946F0761E085E00E949F056A
:102D800061E08DE00E949F0561E085E00E949F0563
:102D9000E3E1F6E0E491E150EF3008F076C1F0E0D5
:102DA000EC52F94E0C940127E316D217D817E4170A
:102DB000F017451845184518FC170818141820185E
:102DC0002E184518371884B5806884BD81E087BD0A
:102DD00080919100887F816080939100F894109297
:102DE000800010928100109285001092840088E18A
:102DF00091E09093890080938800809181008860A1
:102E00008093810080918100816080938100809116
:102E10006F00826080936F0078948091A605813066
:102E200009F038C11092BA0565E0C62E63E0D62ECF
:102E30007EEC872E72E0972EF12CE12C10E000E062
:102E4000570120E1A20EB11CC501800F911F0E9405
:102E5000CA22F401E00FF11F0A3020F0F8013A977E
:102E6000EC0DFD1D80830F5F1F4F0F30110561F7C3
:102E70003BE0830E911C44E0C40ED11C5FE0E50EE4
:102E8000F11C8BE4E816F104C9F680910306811168
:102E90000E9418101092A805809164008E7F809384
:102EA000640087EC80937C0080E280937B0062E08A
:102EB00070E080E090E00E94640680917A00806477
:102EC00080937A0080917A0086FDFCCF0091780093
:102ED00010917900009510958EE580937C0062E05A
:102EE00070E080E090E00E94640680917A00806447
:102EF00080937A0080917A0086FDFCCFE090780084
:102F0000F09079000E943F06E094F094E09ED0019A
:102F1000E19EB00DF09EB00D11249B01AC012095F7
:102F20003095409550950E94FF226B017C010E94D4
:102F30003F066C0D7D1D8E1D9F1D61157105810560
:102F4000910511F00E94C1228091640081608093FC
:102F500064000E94040D8823F1F0109128031230C0
:102F600009F4FCC508F09DC0112311F40C946621EE
:102F7000113009F4B1C08091A705813039F48091F6
:102F8000030681110E9418101092A8058091270352
:102F90008F5F8093270380E090E0892BD1F20E941D
:102FA0000000D7CF84B5806284BD81E088BD10CF9A
:102FB0008091800080688093800081E090E0909311
:102FC00089008093880004CF809180008062809384
:102FD000800081E090E090938B0080938A00F8CE8F
:102FE0008091800088608093800081E090E09093E1
:102FF0008D0080938C00ECCE80919000806880934F
:10300000900081E090E09093990080939800E0CE4A
:103010008091900080628093900081E090E0909396
:103020009B0080939A00D4CE80919000886080931A
:10303000900081E090E090939D0080939C00C8CE2A
:103040008091C00080688093C0008091C0008F7B19
:103050008093C00081E08093CF00BACE8091C00001
:1030600080628093C00081E08093D000B1CE8091D7
:10307000C20088608093C2008091C2008B7F8093E1
:10308000C20081E08093D200A3CE60E085E00E9480
:1030900071059ECE6DEC72E085EB95E00E942C07E9
:1030A000C3CE153008F067CF8BE18093E70583E14D
:1030B0008093E8056EE373E08EED95E00E945C0B73
:1030C00080912703133009F01FC664E10E94E126B6
:1030D000911151CF84E0E0C58091A505813009F0C0
:1030E00049C0EFE1F2E010E000E08081853508F4AE
:1030F000A1C180916802882369F18091050188232C
:1031000049F1F801EE0FFF1FE15EFD4F90916F0254
:10311000908390916E0291839CE0909FF001919F2B
:10312000F00D1124E955FE4F40E050E068EC71E4E9
:10313000408351836283738340E050E060E87FE323
:10314000408751876287738781508093050180E0B3
:103150000E9492118CE0809FF001819FF00D11245C
:10316000E955FE4F20E030E040E252E4248335830D
:10317000468357838091A605813009F049C0EFE16D
:10318000F2E010E000E08081853508F45BC18091B9
:103190006B02882369F180910601882349F1F801C7
:1031A000EE0FFF1FE15EFD4F90916F0290839091B3
:1031B0006E0291839CE0909FF001919FF00D11248D
:1031C000E955FE4F20E030E040E652E420833183B1
:1031D0004283538340E050E060E070E440875187D1
:1031E0006287738781508093060180E00E9492116C
:1031F0008CE0809FF001819FF00D1124E955FE4F76
:1032000080E090E0A0E2B2E484839583A683B78354
:103210008091A10581508E3F40F480916F028330F0
:1032200008F483E0835080936F028091A30581505E
:103230008E3F40F480916F02823508F081E58D5F0A
:1032400080936F028091A20581508E3F40F480915F
:103250006E02833008F483E0835080936E02809185
:10326000A40581508E3F40F480916E028E3208F0AA
:103270008DE28D5F80936E0280916502882309F450
:1032800053C03BE5E32E32E0F32E85E692E0F701F2
:103290002191253510F40C9410228E179F07C1F749
:1032A00010E000E0D7018D917D01853508F4D2C092
:1032B000809165028150809365020E947222F8011C
:1032C000E55AFD4F7F0128E030E040E050E00E94E9
:1032D000E022D7016C930E94722224E0000F111F9C
:1032E0002A95E1F7095F1E4F24E530E040E050E009
:1032F0000E94E0220E94D224F801608371838283BD
:103300009383148215821682178280819181A28113
:10331000B38180879187A287B38714861586168626
:10332000178681E00E949211EFE1F2E0FFA3EEA385
:1033300023E332E039A328A347EA51E05DA34CA37D
:103340001A018901FF8BEE8BAE89BF89BC90B4E571
:10335000BB1508F4BCC0F8018081853508F4B7C0FE
:10336000D1012D913D914D915C91288F398F4A8FDC
:103370005B8F6B2D70E090E080E00E94D224288D5E
:10338000398D4A8D5B8D0E9443236B017C0120E0C7
:1033900030E0A9010E94E82518160CF062C020E078
:1033A00030E040E850E4C701B6010E94222487FDC6
:1033B00063C0D10114968D909D90AD90BC901797ED
:1033C000EE89FF89618170E090E080E00E94D22464
:1033D000A50194010E944323A70196010E94C323E3
:1033E0006B017C010E94272420E030E040E850E49B
:1033F0000E94F525288D398D4A8D5B8D0E944423CE
:10340000D1016D937D938D939C931397C701B60162
:103410000E94622620E030E040E850E40E94F5255A
:10342000A50194010E944423F1016483758386837E
:1034300097834DC00F5F1F4F32960A30110509F078
:1034400054CE98CE0F5F1F4F32960A30110509F007
:103450009ACEDECE0F5F1F4F0A30110509F022CF42
:1034600063CF20E030E040E850ECC701B6010E9495
:10347000E82518160CF09DCFEE89FF89A1806A2DF2
:1034800070E090E080E00E94D224D10114962D914A
:103490003D914D915C9117970E9443232B013C0174
:1034A00020E030E0A9010E94E82518160CF0B1C018
:1034B00020E030E040E850E4C301B2010E94222441
:1034C00087FF77CFF801B082A182128213822E8902
:1034D0003F892E5F3F4F3F8B2E8B0C5F1F4F3CE091
:1034E000230E311C43E352E08E899F894817590708
:1034F00009F02ACFABE5B2E0B9A7A8A7E7E0F1E071
:10350000FBA3EAA315E6212E12E0312E8F01B98F1D
:10351000A88FA88DB98DFD90B98FA88FB4E5BF1580
:1035200008F4BEC0CF2CD12CD80118962D913D9116
:103530004D915C911B972C8F3D8F4E8F5F8FBAE022
:10354000FB9EB00111246A5F7F4F072E000C880B91
:10355000990B0E94D2242C8D3D8D4E8D5F8D0E9443
:1035600043234B015C0120E030E0A9010E94E825E3
:1035700018160CF05AC020E030E040E850E4C501D5
:10358000B4010E94222487FD5BC0D8011C96CD9017
:10359000DD90ED90FC901F97A701960160E070E030
:1035A00080E392E40E944323A50194010E94C32377
:1035B0002B013C010E942724809001019090020180
:1035C000A0900301B0900401A50194010E94F5258B
:1035D0002C8D3D8D4E8D5F8D0E944423F8016087B8
:1035E000718782879387C301B2010E9462269B0183
:1035F000AC01C501B4010E94F525A70196010E9406
:103600004423D8011C966D937D938D939C931F97B3
:1036100047C020E030E040E850ECC301B2010E9416
:10362000E82518160CF0C5CE4DCF20E030E040E87C
:1036300050ECC501B4010E94E82518160CF0A5CF86
:10364000F801248535854685578560E070E080E384
:1036500092E40E9443232B013C0120E030E0A901C9
:103660000E94E82518160CF017C220E030E040E870
:1036700050E4C301B2010E94222487FF86CFF601E5
:10368000EA59FD4F1082F2E0FF1212C210920501BA
:10369000E88DF98D319734E6308384E00E949211F1
:1036A000005F1F4FE88DF98D2E163F0609F031CFD0
:1036B0008091270380FD20C0E3E3F2E081E090E009
:1036C00034E641E02081253590F42381211106C0A4
:1036D0002281273008F0F2C12F5F2283238121301D
:1036E00031F42281222309F4EBC121502283019677
:1036F00034968B30910531F763E3262E62E0362E47
:10370000D1018C91853508F07FC0E7E0F1E0FD8FB5
:10371000EC8F0BE512E0C82ED12CF12CE12CD80156
:103720008D918D01853508F064C0C701B6010E94F6
:10373000D2249B01AC01EC8DFD8D60857185828565
:1037400093850E9443232B013C01D10111966C917A
:1037500070E090E080E00E94D2249B01AC01EC8DEF
:10376000FD8D64857585868597850E9443234B0171
:103770005C01A3019201C301B2010E94F5252B0156
:103780003C01A5019401C501B4010E94F5259B01EE
:10379000AC01C301B2010E9444230E9470264B0178
:1037A0005C01D10112966C9170E090E080E00E9483
:1037B000D224A50194010E94E82587FD1AC0F801D2
:1037C0003197B4E6B08380911A0390911B03A091C6
:1037D0001C03B0911D034996A11DB11D80931A03CE
:1037E00090931B03A0931C03B0931D0382E00E94DF
:1037F0009211EC8DFD8D7096FD8FEC8F288D398D9B
:103800002017310709F08BCF34E0230E311C4BE534
:10381000241642E0340609F073CF0E94381110914B
:103820006E0200916F026FEF600F23E0412F8EED6B
:1038300095E00E94190A4FEF410F23E0602F8EEDB3
:1038400095E00E947B0B53E3E52E52E0F52E0FE14D
:1038500012E0D8016C91653550F4F701808185350F
:1038600030F011964C918EED95E00E94E2080E5FCB
:103870001F4FF4E0EF0EF11C2E893F89201731070E
:1038800041F70E94800C0E94470C43E3E42E42E083
:10389000F42EAEA1BFA18C91853570F5F701808122
:1038A000853550F1ACA1BDA114966D917D918D919E
:1038B0009C9117970E949A24C62EECA1FDA16081CD
:1038C0007181828193810E949A24D62E20E030E07B
:1038D00040E85FE3ACA1BDA118966D917D918D91FB
:1038E0009C911B970E9422242C2D4D2D68E2811162
:1038F000EFC089E10E94A409EEA1FFA13296FFA3C7
:10390000EEA3F4E0EF0EF11C2CA13DA1245F3F4F8C
:103910003DA32CA34EA15FA14017510709F0B9CFD9
:103920003BE5E32E32E0F32ED7018D917D01853505
:1039300058F5EAA1FBA164857585868597850E9467
:103940009A24D62EAAA1BBA118966D917D918D9136
:103950009C911B970E949A24062FEAA1FBA16481E7
:103960007581868197810E949A24162FAAA1BBA1F6
:103970006D917D918D919C910E949A24862F2D2D81
:10398000402F612F0E94A409EAA1FBA17096FBA31E
:10399000EAA3288D398D2E153F0531F677247394CF
:1039A000A8A1B9A1DC90B4E5BD1508F493C0E8A1C5
:1039B000F9A11281C180B72CB11AA12EA194AA0C31
:1039C000412F4C0D6D2D8EED95E00E94E2084C2D9F
:1039D000411B6D2D8EED95E00E94E2086D2D610F6B
:1039E0004C2D8EED95E00E94E2086D2D611B4C2D53
:1039F0008EED95E00E94E20800E001170CF06AC02D
:103A0000B7FC04C01150A394A394BA0C0F5F802F8D
:103A1000880F8F5FB80E602E6D0C9C2C910E492D77
:103A2000662D8EED95E00E94E2088D2C801A492DBE
:103A3000682D8EED95E00E94E2089C2C911A492D8C
:103A4000662D8EED95E00E94E208492D682D8EEDE1
:103A500095E00E94E208902E9C0C492D8D2C810E41
:103A6000682D8EED95E00E94E208492D9D2C911A5B
:103A7000692D8EED95E00E94E2086C2C601A462DAF
:103A8000682D8EED95E00E94E208462D692D8EEDA1
:103A900095E00E94E208B1CF20E030E040E850EC31
:103AA000C301B2010E94E82518160CF06ECDE7CDD7
:103AB00025E0F212EDCD10920601EACD43830ECE41
:103AC0003083DC01AA0FBB1FA35EBD4F3C930FCE1A
:103AD00088E310CF28A139A12C5F3F4F39A328A339
:103AE0002216330609F05CCF8091650281111FC058
:103AF000A8A5B9A58D91B9A7A8A78535C0F0EA16E4
:103B0000FB06B1F71092260310921E0310921F03BA
:103B1000109220031092210310922203109223038B
:103B2000109224031092250382E080932803E6E696
:103B3000F2E080E0823029F0853019F09081911117
:103B40001ACA8F5F31968830A9F71092270383E055
:103B50008093280385E00E9492110DCA10912703DB
:103B6000812F837049F580910501811104C09091E6
:103B70000601992309F1909126039F5F90932603F4
:103B800040911A0350911B0360911C0370911D0317
:103B9000465F5F4F6F4F7F4F40931A0350931B0355
:103BA00060931C0370931D038823E1F1815080937F
:103BB000050183E00E949211177041F48091050184
:103BC000811104C080910601882391F182E18093E4
:103BD000E70589E08093E80560E573E08EED95E008
:103BE0000E945C0B8AE08093E7058091E805865F80
:103BF0008093E8056091260370E090E080E04AE061
:103C00000E94EC1010E080912603181708F047C0BE
:103C100069E0610F660F45E18EED95E00E94E208D4
:103C20001F5FF1CF80910601815080930601C1CFC3
:103C3000E6E6F2E090E080E0823031F1853021F17B
:103C40002081222309F1FC01E25EFC4F21E0208368
:103C500040911A0350911B0360911C0370911D0346
:103C60004C595F4F6F4F7F4F40931A0350931B0384
:103C700060931C0370931D038A599D4FFC011082B1
:103C800083E00E949211A2CF01963196883091056F
:103C900099F60E94AB0C81E0809328036CC98AE0FE
:103CA0008093E7058091E805865F8093E8052AA563
:103CB000E22FF0E0E25EFC4F10E03AA5383039F038
:103CC000819181111F5F4AA54F5F4AA7F6CF612FEF
:103CD00070E090E080E04AE00E94EC1002E1F12CFC
:103CE0001F1559F026E433E04AE1602F8EED95E090
:103CF0000E94A207F394075FF3CF0E9438110E943D
:103D0000800C0E94470C37C9877029F480911903F1
:103D100080958093190380911903882369F18BE1C1
:103D20008093E70587E28093E80566E373E08EED14
:103D300095E00E945C0B40911A0350911B03609127
:103D40001C0370911D038091150390911603A0919F
:103D50001703B091180384179507A607B70760F4F7
:103D60008FE08093E70581E28093E80568E273E0E5
:103D70008EED95E00E945C0B8091A505813009F0E5
:103D8000FAC840911A0350911B0360911C03709173
:103D90001D038091150390911603A0911703B09114
:103DA000180384179507A607B70708F06AC1109291
:103DB000E2051B86B0E3CB2E14E5E12E02E0A02E37
:103DC000B12C10E08EE2582E9FE2492E20E3622EA5
:103DD0000E94040D8823E1F38091A4058F3F51F0E8
:103DE0008370813039F4A39462ED73E085EB95E044
:103DF0000E942C078091A2058F3F51F08370813083
:103E000039F4AA9462ED73E085EB95E00E942C07EB
:103E10008091A3058F3F51F08370813039F4B394C2
:103E200062ED73E085EB95E00E942C078091A1057F
:103E30008F3F09F406C38370813009F002C3BA943E
:103E400062ED73E085EB95E00E942C075FEFB51201
:103E500002C0AFE0BA2E88E0A81629F0A7FE04C081
:103E6000F7E0AF2E01C0A12C9091E6058091E50509
:103E700080958B9D802D1124895D0E2C000CFF08F0
:103E8000E80EF11C87FDFA94F7FE03C0AFEFEA1AC3
:103E9000FA0AF594E7943E2C292F209584E1891B9A
:103EA0002A9D800D11240C2C000CDD08C80ED11C9D
:103EB00087FDDA94D7FE03C0BFEFCB1ADB0AD59497
:103EC000C7942C2C8091A505813059F51A30FCF44B
:103ED0008A2D8295807F8B0D09F47ACF8A3009F480
:103EE00077CF8D3009F474CF212F012E000C330BC6
:103EF000E1E0F0E0EC0FFD1FE20FF31F8083E2E052
:103F0000F0E0EC0FFD1F2E0F3F1FD9011C921F5F29
:103F100068ED73E085EB95E00E942C071C3008F0FB
:103F20001BE08091A605813099F4115060EF72E09A
:103F300085EB95E00E942C071F3F09F4AEC0E1E03D
:103F4000F0E0EC0FFD1FE10FF11D17FDFA95108257
:103F50008091A705813009F0ADC068ED73E085EB75
:103F600095E00E942C070E94040D8823E1F38BE169
:103F700093E00E940510BE016F5F7F4F8EED95E0CC
:103F80000E94FB0F8AE093E00E9405108091A50536
:103F9000813009F084C068ED73E085EB95E00E9404
:103FA0002C0780901A0390901B03A0901C03B090E4
:103FB0001D036EECE62E62E0F62E05E013E080E0D5
:103FC000D8014D905D906D907D908D0148145904FD
:103FD0006A047B0410F08823D9F0B701CE010C9657
:103FE0000E941B27F801349780829182A282B382BB
:103FF000BE016F5F7F4FC7010E941B27BE01645F38
:104000007F4FCE0101960E941B2781E053014201A0
:10401000BBE0EB0EF11CE3E009311E0789F645E039
:10402000E42E43E0F42E5EECC52E52E0D52E10E0D7
:1040300000E0912C812C5801F0E1AF0EB11CC501BC
:10404000880D991D29E0F601E80DF91D281520F4C9
:10405000F4013A97EE0DFF1D60810E94D2223FEFDE
:10406000831A930A4FE08416910449F75BE0C50E6A
:10407000D11C84E0E80EF11C015F1F4F0B341105C9
:10408000C1F610921A0310921B0310921C03109297
:104090001D03109228030C94BB1710E059CF809198
:1040A000A605813009F05FCF60EF72E085EB95E007
:1040B0000E942C07712C812C912C292D270D809189
:1040C000E605482D889D400D1124420D8091E5059F
:1040D000692D899D600D1124630D01E08EED95E041
:1040E0000E94350A9394B0E19B12E7CF7B0E839434
:1040F000E8E08E12E1CF8091E505982F990F990F96
:10410000891B880F82508E0D8093E7058091E6050C
:104110008F5F8C0D8093E80564E073E08EED95E091
:104120000E945C0B8091E505982F990F990F891BD0
:10413000880F82508E0D8093E7058091E6058F5F92
:10414000880F8C0D8093E8056EEF72E08EED95E0A0
:104150000E945C0B8091E505982F990F990F891BA0
:10416000880F82508E0D8093E7058091E60591E0DF
:10417000980F892F880F890F8C0D8093E80568EFC1
:1041800072E08EED95E00E945C0B1092ED051092AE
:10419000EE058091E6054A2D8A9D400D112442507E
:1041A0004C0D8091E5056B2D8B9D600D11246150A8
:1041B0006E0D27E08EED95E00E94190A81E0809354
:1041C000ED058093EE05E091E6053091E50525E0EB
:1041D0002E0F432F4150550BCA0162E070E00E9440
:1041E000ED2642E0430F480F6A2DEA9D600D112431
:1041F00063506C0D8B2D3B9D800D112482508E0DD4
:104200000E94970B8091E605452D481B24E560E050
:104210008EED95E00E94190A1092ED051092EE05C0
:104220008091E60588248394880E042D081B082CB1
:10423000000C9908800E911C07FD9A94802F002E87
:10424000000C990B881599054CF424E5402F60E08B
:104250008EED95E00E94190A0F5FF0CF1092E705EE
:104260008091E605562D581B5093E80581E0809318
:10427000ED058093EE05BE016F5F7F4F8EED95E0FB
:104280000E94FB0F8091F5059091F605A091F7052E
:10429000B091F80587709927AA27BB270497A10535
:1042A000B10508F095CD1A300CF092CD8091E6055D
:1042B000462D481B6091E505169F602D112401E0F5
:1042C0002FE58EED95E00E94350A82CD86E1809340
:1042D000E70585E08093E8056DED72E08EED95E0F1
:1042E0000E945C0B05E013E08EECE82E82E0F82ED5
:1042F0009CE0B92E25E0A22E36E3932EA092E7058E
:10430000B092E805B7018EED95E00E94FB0F6BEDD2
:1043100072E08EED95E00E945C0B9092E7056801DB
:10432000F80180819181A281B381803A9648A140B1
:10433000B10510F40E943211F80180819181A281AF
:10434000B38180319742A105B10510F40E9432116A
:10435000F80180819181A281B381883E9340A105BB
:10436000B10510F40E943211F80180819181A2817F
:10437000B38184369105A105B10510F40E94321174
:10438000F80180819181A281B3810A97A105B105CD
:1043900010F40E9432110C5F1F4FD6016D917D9178
:1043A0008D919C914AE00E94EC10B5E0BB0EEBE0D1
:1043B000EE0EF11CF5E2BF12A1CF809127038770AA
:1043C00029F4809119038095809319038091190332
:1043D000882361F08BE18093E70587E28093E8050D
:1043E00068EE72E08EED95E00E945C0B8091A50571
:1043F000813011F00C94BB179FEF9093CD02809306
:104400001E0380931F0380932003809321038093D6
:10441000220380932303809324038093250339CCC4
:104420000E94722224E630E040E050E00E94E02248
:10443000623071058105910514F40C9450190C94A7
:10444000941920E1B21207CDB12C05CD8F929F9225
:10445000AF92BF92CF92DF92EF92FF92CF93DF9312
:10446000EC01688179818A819B81611571058105E3
:10447000910521F464E279ED8BE597E02DE133EFCE
:1044800041E050E00E94E02249015A019B01AC0149
:10449000A7EAB1E40E94FF226B017C01ACEEB4EF0D
:1044A000A50194010E940D23C60ED71EE81EF91E19
:1044B000F7FE06C081E0C81AD108E10880E8F80AD2
:1044C000C882D982EA82FB82C701B6019F77DF9159
:1044D000CF91FF90EF90DF90CF90BF90AF909F90E3
:1044E0008F9008958F929F92AF92BF92CF92DF925A
:1044F000EF92FF9260917C0270917D0280917E022A
:1045000090917F02611571058105910521F464E2A6
:1045100079ED8BE597E02DE133EF41E050E00E942B
:10452000E02249015A019B01AC01A7EAB1E40E94D3
:10453000FF226B017C01ACEEB4EFA50194010E9457
:104540000D23C60ED71EE81EF91EF7FE06C081E039
:10455000C81AD108E10880E8F80AC0927C02D0921B
:104560007D02E0927E02F0927F02C701B6019F7742
:10457000FF90EF90DF90CF90BF90AF909F908F9083
:10458000089560937C0270937D0280937E029093E5
:104590007F020895F999FECF92BD81BDF89A9927BF
:1045A00080B50895262FF999FECF1FBA92BD81BD1F
:1045B00020BD0FB6F894FA9AF99A0FBE01960895A5
:1045C000052E97FB1EF400940E94F72257FD07D09A
:1045D0000E94122307FC03D04EF40C94F72250954E
:1045E0004095309521953F4F4F4F5F4F08959095DF
:1045F0008095709561957F4F8F4F9F4F08950E94D2
:104600003423A59F900DB49F900DA49F800D911D04
:1046100011240895B7FF0C94FF220E94FF22821BF1
:10462000930B0895A1E21A2EAA1BBB1BFD010DC01E
:10463000AA1FBB1FEE1FFF1FA217B307E407F50752
:1046400020F0A21BB30BE40BF50B661F771F881F2E
:10465000991F1A9469F760957095809590959B01C4
:10466000AC01BD01CF010895A29FB001B39FC0016D
:10467000A39F700D811D1124911DB29F700D811D8E
:104680001124911D08955058BB27AA270E945B232F
:104690000C949A250E94612538F00E94682520F02C
:1046A00039F49F3F19F426F40C9437250EF4E09565
:1046B000E7FB0C943125E92F0E94BF2558F3BA1768
:1046C000620773078407950720F079F4A6F50C9428
:1046D000E1250EF4E0950B2EBA2FA02D0B01B901A8
:1046E00090010C01CA01A0011124FF27591B99F068
:1046F000593F50F4503E68F11A16F040A22F232F74
:10470000342F4427585FF3CF469537952795A795C3
:10471000F0405395C9F77EF41F16BA0B620B730B6A
:10472000840BBAF09150A1F0FF0FBB1F661F771FDB
:10473000881FC2F70EC0BA0F621F731F841F48F490
:10474000879577956795B795F7959E3F08F0B0CF19
:104750009395880F08F09927EE0F97958795089500
:104760000E94612560F080E891E009F49EEF0E94CC
:10477000682528F040E851E071F45EEF0CC00C941D
:1047800037250C94E125E92FE0780E94BF2540F3FE
:10479000092E052AB1F3261737074807590738F0BD
:1047A0000E2E07F8E02569F0E025E0640AC0EF630B
:1047B00007F8009407FADB01B9019D01DC01CA0189
:1047C000AD01EF930E943F240E949A250E94F3239B
:1047D0005F91552339F02BED3FE049E450FD49EC62
:1047E0000C9444230895DF93DD27B92FBF7740E869
:1047F0005FE31616170648075B0718F4D92F0E94C7
:10480000ED259F938F937F936F930E94B026ECEAE0
:10481000F0E00E943A250E949A252F913F914F91F6
:104820005F910E940826DD2351F09058A2EA2AEDFC
:104830003FE049EC5FE3D0785D270E945B23DF9186
:104840000C949A250E940D2508F481E008950E9499
:104850007125E3950C94AB250E94682558F00E94C1
:10486000612540F029F45F3F29F00C943125511166
:104870000C94E2250C9437250E94BF2568F39923F8
:10488000B1F3552391F3951B550BBB27AA2762174C
:104890007307840738F09F5F5F4F220F331F441F59
:1048A000AA1FA9F335D00E2E3AF0E0E832D091508D
:1048B0005040E695001CCAF72BD0FE2F29D0660F7A
:1048C000771F881FBB1F261737074807AB07B0E8BD
:1048D00009F0BB0B802DBF01FF2793585F4F3AF0C3
:1048E0009E3F510578F00C9431250C94E2255F3FF2
:1048F000E4F3983ED4F3869577956795B795F79549
:104900009F5FC9F7880F911D9695879597F9089530
:10491000E1E0660F771F881FBB1F621773078407CC
:10492000BA0720F0621B730B840BBA0BEE1F88F7DB
:10493000E09508950E94A1246894B1110C94E22599
:1049400008950E94C72588F09F5798F0B92F99279E
:10495000B751B0F0E1F0660F771F881F991F1AF06A
:10496000BA95C9F714C0B13091F00E94E125B1E0C9
:1049700008950C94E125672F782F8827B85F39F0C8
:10498000B93FCCF3869577956795B395D9F73EF403
:1049900090958095709561957F4F8F4F9F4F0895AB
:1049A000E89409C097FB3EF49095809570956195C9
:1049B0007F4F8F4F9F4F9923A9F0F92F96E9BB277F
:1049C0009395F695879577956795B795F111F8CFFB
:1049D000FAF4BB0F11F460FF1BC06F5F7F4F8F4F66
:1049E0009F4F16C0882311F096E911C0772321F05C
:1049F0009EE8872F762F05C0662371F096E8862FF4
:104A000070E060E02AF09A95660F771F881FDAF74A
:104A1000880F9695879597F90895990F0008550F77
:104A2000AA0BE0E8FEEF16161706E807F907C0F034
:104A300012161306E407F50798F0621B730B840B3C
:104A4000950B39F40A2661F0232B242B252B21F416
:104A500008950A2609F4A140A6958FEF811D811DB6
:104A6000089597F99F6780E870E060E008959FEFF0
:104A700080EC0895DF93CF931F930F93FF92EF92F3
:104A8000DF927B018C01689406C0DA2EEF010E9450
:104A90000826FE01E894A5912591359145915591FF
:104AA000A6F3EF010E945B23FE019701A801DA94AF
:104AB00069F7DF90EF90FF900F911F91CF91DF91F9
:104AC000089500240A941616170618060906089574
:104AD00000240A94121613061406050608950C9471
:104AE00037250E94C725D8F3E894E0E0BB279F57FD
:104AF000F0F02AED3FE049EC06C0EE0FBB0F661F59
:104B0000771F881F28F0B23A62077307840728F0DE
:104B1000B25A620B730B840BE3959A9572F7803847
:104B200030F49A95BB0F661F771F881FD2F7904805
:104B30000C94BA26092E0394000C11F4882352F029
:104B4000BB0F40F4BF2B11F460FF04C06F5F7F4FB9
:104B50008F4F9F4F0895EF93E0FF07C0A2EA2AED21
:104B60003FE049EC5FEB0E945B230E949A250F9087
:104B7000039401FC9058E9EDF0E00C94CD2657FD2C
:104B80009058440F551F59F05F3F71F04795880FBB
:104B900097FB991F61F09F3F79F087950895121652
:104BA00013061406551FF2CF4695F1DF08C01616FE
:104BB00017061806991FF1CF8695710561050894AF
:104BC0000895E894BB2766277727CB0197F90895C6
:104BD0000E940D2508F48FEF08959B01AC0160E061
:104BE00070E080E89FE30C94B4260E9408260C94A1
:104BF0009A250E94612538F00E94682520F09523AF
:104C000011F00C9431250C94372511240C94E225D5
:104C10000E94BF2570F3959FC1F3950F50E0551F7B
:104C2000629FF001729FBB27F00DB11D639FAA2701
:104C3000F00DB11DAA1F649F6627B00DA11D661F50
:104C4000829F2227B00DA11D621F739FB00DA11D71
:104C5000621F839FA00D611D221F749F3327A00D2B
:104C6000611D231F849F600D211D822F762F6A2FC7
:104C700011249F5750409AF0F1F088234AF0EE0F2C
:104C8000FF1FBB1F661F771F881F91505040A9F759
:104C90009E3F510580F00C9431250C94E2255F3F36
:104CA000E4F3983ED4F3869577956795B795F79595
:104CB000E7959F5FC1F7FE2B880F911D969587950D
:104CC00097F908959F930E9471250F9007FCEE5F5E
:104CD0000C94AB2519F416F40C9437250C94B826D3
:104CE0000E94C725B8F39923C9F3B6F39F57550B14
:104CF00087FF0E94C6260024A0E640EA9001805863
:104D00005695979528F4805C660F771F881F20F0D2
:104D100026173707480730F4621B730B840B2029D2
:104D200031294A2BA69517940794202531254A2727
:104D300058F7660F771F881F20F026173707480798
:104D400030F4620B730B840B200D311D411DA095B7
:104D500081F7B901842F9158880F9695879508950A
:104D60009B01AC010C94F5250E943C240C949A25DF
:104D70009F3F31F0915020F4879577956795B795CF
:104D8000880F911D9695879597F9089591505040F9
:104D9000660F771F881FD2F708959F938F937F9395
:104DA0006F93FF93EF939B01AC010E94F525EF9168
:104DB000FF910E943A252F913F914F915F910C9462
:104DC000F525991B79E004C0991F961708F0961BEA
:104DD000881F7A95C9F78095089597FB072E16F4DA
:104DE000009407D077FD09D00E94072707FC05D063
:104DF0003EF4909581959F4F0895709561957F4FF2
:104E00000895EE0FFF1F0590F491E02D0994AA1B61
:104E1000BB1B51E107C0AA1FBB1FA617B70710F0A5
:104E2000A61BB70B881F991F5A95A9F780959095D7
:104E3000BC01CD010895FB01DC0101900D92002021
:084E4000E1F70895F894FFCF9B
:104E480001CDCC4C3E0A0A0000C8420000C842000E
:104E580000C8420000C8420000C8420000C8420022
:104E680000C8420000C8420000C8420000C8420012
:104E780000C8420000C8420000C8420000C8420002
:104E880000C8420000C8420000C8420000C84200F2
:104E980000C8420000C8420000C8420000C84200E2
:104EA80000C8420000C8420000C8420000C84200D2
:104EB80000C8420000C8420000C8420000C84200C2
:104EC80000C8420000C8420000C8420000C84200B2
:104ED80000C8420000C8420000C8420000C84200A2
:104EE80000C8420000C8420000C8420000C8420092
:104EF8000000000000C8420000C842000000000096
:104F080000C8420000C842000000000000C842007B
:104F180000C842000000000000C8420000C842006B
:104F28000000000000C8420000C842000000000065
:104F380000C8420000C842000000000000C842004B
:104F480000C842000000000000C8420000C842003B
:104F58000000000000C8420000C8420000000064D1
:104F680064646464646464646464646464646464F9
:104F78006464646464000064640000646400006441
:104F880064000064640000646400006464000064F9
:104F98006400006464000064640000646464646421
:104FA8006464646464050101010101010101182AB6
:104FB800FFFFFFFF00E1000000000000010000000B
:104FC800001405010100190501FF010A0501FF018F
:104FD8000A02000001020A01FF00140E03FF00C1CB
:104FE800808100000000000000B2039606D303C8C9
:104FF800031904D703F50300000000290BF8040186
:065008000D000D0D0A0071
:00000001FF
