:100000000C94F9030C9421040C9421040C94210405
:100010000C9421040C9421040C9421040C942104CC
:100020000C9421040C9421040C94E7110C945612A6
:100030000C9421040C9421040C9421040C942104AC
:100040000C9421040C94D2140C9421040C942104DB
:100050000C9421040C9421040C9421040C94881415
:100060000C9421040C9421040C9421040C9421047C
:100070000C9421040C9421040C9421040C9421046C
:100080000C9421040C9421040C9421040C9421045C
:100090000C9421040C9421040C9421040C9421044C
:1000A0000C9421040C9421040C94210408000000F9
:1000B000BE922449123EABAAAA2ABECDCCCC4C3E5D
:1000C00000000080BEABAAAAAA3E00000000BF004C
:1000D0000000803F0000000000084178D3BB438748
:1000E000D1133D190E3CC3BD4282AD2B3E68EC825C
:1000F00076BED98FE1A93E4C80EFFFBE01C4FF7FE1
:100100003F00000000000101FF030101F7030A01A5
:10011000060100000000240027002A002D00300006
:10012000D5F08D14A1C881CFD9F1AF200000000017
:1001300000250028002B002E003100050089300822
:10014000023802497868140000000005077F414129
:10015000417F3E5B4F5B3E3E6B4F6B3E183C783CB5
:1001600018183C7E3C181C577D571C1C5E7F5E1C7B
:10017000007E43437E007E73737E007E7F7F7E7FA2
:100180004141417F30483A060E06297929067F41D0
:1001900041417F60703F02042A1C361C2A7F3E1CAE
:1001A000080000081C3E7F14227F22143C3C3C7E49
:1001B000FF18423C817E3E6375633E3E616B633E49
:1001C0003E636B6B3E04027F020410207F20100808
:1001D000082A1C08081C2A0808143E554122637589
:1001E00069756310181C1810040C1C0C0400000026
:1001F000000000005F00000007000700147F147F6C
:1002000014042A7F2A1023130864623649562050AA
:100210000008070300001C2241000041221C002AA4
:100220001C3E1C2A08083E080800E0600000080880
:10023000080808006060000060100804033E51498F
:10024000453E00427F400062514949462141494DA7
:10025000331814127F1027454545393C4A49493027
:1002600041211109073649494936064949291E00E5
:1002700000240000008064000008142241001414CF
:10028000141414004122140802015909063E415D6C
:10029000594E7C1211127C7F494949363E414141F9
:1002A000227F4141221C7F494949417F09090901B7
:1002B0003E414151327F0808087F00417F410020C4
:1002C00041413F017F081422417F404040407F026E
:1002D0000C027F7F0204087F3E4141413E7F0909B5
:1002E00009063E416141BE7F09192946264949490F
:1002F0003201017F01013F4040403F1F2040201F4D
:100300003F4038403F6314081463030478040361DA
:1003100051494543007F41410003040810600041FA
:10032000417F000402010204808080808000030776
:10033000080020545478407F2844443838444444CA
:1003400028384444287F3854545418087E09090238
:1003500018A4A49C787F0804047800447D40000021
:100360006080847D7F1010284400417F40007C0421
:100370007804787C080404783844444438FC182411
:10038000241818242418FC7C080404080854545425
:1003900020043F4444203C4040207C1C2040201C42
:1003A0003C4020403C44281028444C9090907C4491
:1003B00064544C44000836410000007F00000041B6
:1003C000360800180408100C7F4141417F000305E6
:1003D0003F213F1208120A100A0E1C0E0C1E0C14AC
:1003E0001A14161F161E131E1E1B1E1E1F1E3F2133
:1003F0003F3A2F3A173D173F213F181F02040A04C6
:100400001F0E04040E1F0A1F0A0E0E1F04110E2ECB
:10041000252E2F2A2E262929021F02081F08150E15
:1004200004040E150E15151B151B040604040C04FC
:100430000000000017000300031F0A1F16371A19D7
:1004400004130A153A000300000E11110E000A04ED
:100450000A040E0400300004040400100018040311
:100460001F111F121F101D151711151F07041F172D
:10047000151D1F151D01011F1F151F17151F000A30
:1004800000003200040A110A0A0A110A04011502C6
:100490000E11171E051E1F150A0E110A1F110E1F21
:1004A00015111F05010E111D1F041F111F1108102A
:1004B0000F1F041B1F10101F061F1E040F0E110E0E
:1004C0001F09060E112E1F051A121509011F011F03
:1004D000101F0F180F1F0C1F1B041B031C031915E3
:1004E00013001F11030418111F0002010220202015
:1004F0000001020C121E1F120C0C12120C121F0C07
:100500001A14041E05242A1E1F021C141D1020206C
:100510001D1F0814111F101E041E1E021C0C120C9D
:100520003E0A040C123E1E040214160A020F120E9A
:10053000101E0E100E1E081E120C1226281E322A25
:1005400026041E21001F00211E040102013F213F3D
:1005500000080B0002020200000904000001020270
:1005600000000524001001052401010104240206F5
:10057000052406000107058103100040090401005D
:10058000020A00000007050202400000070583027E
:100590004000000403090412010002EF020140417F
:1005A00023368000010102030141726475696E6F98
:1005B000204C4C430041726475696E6F204C656F2E
:1005C0006E6172646F00450068010000050038012B
:1005D0006801000017534400161378001613140026
:1005E0001510200015201000540A03E181867F3E7B
:1005F000186D830F0F0E0183866033186DC3198F3A
:100600001803C38E6033186DE330CF1803C39E60A8
:100610003630CDE360CF3006C79E7E3E30CDB3602E
:10062000CF300CC6F6603330D9B660CF33CFCCF6BE
:100630006061B0DB1E60CF30D86CE6C061B0DB1EFD
:10064000618F19986CC6C063B19B0E330F0FB078E1
:10065000C6FF7E1F1B061E0F401E0000000000008C
:100660000000000000000000000100000000000089
:100670000007000000000000004F00000000000024
:1006800001CF00000000000001CE000000000000CB
:1006900001CE00000000000031CE0000000000F19B
:1006A000F1CE000000000FF3F1CE000000001EF6B6
:1006B00071CE000000001CE671C8000000001FE7BA
:1006C0007380000000019FF75000000000079CF7B6
:1006D000C0000000031E3CE3800000C00F7E3FC04E
:1006E000000003C03E0C3F0000000F9CFE0FB8004E
:1006F00000003F3E1C1F800000007E73183C00007D
:100700000000FE7F1F6000000000CEFC3E000000E5
:1007100000000EF07000000000000EFF000000005E
:1007200000001E7C0000000000003C0000000000F3
:1007300000007800000000000000700000000000D1
:1007400000000000000000000000F6E8DBCFC3B8A6
:10075000AEA49B928A827B746E68625C57524E494B
:1007600045413E3A3734312E2C29272523211F1DA0
:100770001C1A1917161514131211100F0E0D0C0B4D
:100780000A09080706000000002300260029002CA3
:10079000002F0004040404040304050202020204FE
:1007A000030202020206060606060604040202020C
:1007B0000404040802011040804010204080408062
:1007C00008020401804020100201108010204040E7
:1007D000200000000200090F0000030401000C00CB
:1007E0000000000000000000000000000000000009
:1007F000161511241FBECFEFDAE0DEBFCDBF11E02A
:10080000A0E0B1E0E6E1F8E402C005900D92AC375B
:10081000B107D9F724E0ACE7B1E001C01D92A338DD
:10082000B207E1F713E0C9EFD3E004C02197FE015E
:100830000E94E823C83FD107C9F70E9444150C94D1
:1008400009240C9400008091FF0390E0880F991F09
:100850002091A7033091A803820F931FDC01ED9133
:10086000FC918091FE032091FD03422F50E08823EC
:10087000B9F02091FB0330E0808190E0B901641B66
:10088000750B8617970754F0240F351F4281480FC8
:10089000592F511D81E024173507BCF480E015C0A5
:1008A0009091FC03292F30E0618170E0D901A41BF5
:1008B000B50B6A177B074CF0240F351F8381680F37
:1008C000711D81E0261737074CF30895CF93DF930E
:1008D000E2E6F4E0C081D1818881A6E6B4E09C9193
:1008E000892B8883C0916404D0916504988180919C
:1008F00067048095892388830190F081E02D9081A1
:100900008C91809589238083DF91CF91089590E029
:10091000880F991FE0913704F0913804E80FF91F10
:10092000259134913093480420934704F90185912F
:10093000949190912C04989F802D112480934904C8
:10094000F90165917491472F50E08417150629F03D
:1009500020F0F90125913491832F989F802D112447
:1009600080934A0408957F928F929F92AF92BF9294
:10097000CF92DF92EF92FF920F931F93CF93DF936B
:10098000FB0124913196449180330CF0D4C0022EA7
:10099000000C330B121613060CF0CDC0E82F082EF6
:1009A000000CFF0BDF01A40FB11D47FDBA951A160D
:1009B0001B060CF0C0C06E5F7F4F8901095F1F4F9F
:1009C000A3E015950795AA95E1F787FF0BC0480F9F
:1009D0000E9FC0010F9F900D1E9F900D1124681B4C
:1009E000790B80E0A42F042E000CBB0BA80FB11DC7
:1009F00087FDBA95D19714F040E3481BF09060044E
:100A00002535310514F024E530E0A0915D04A827D8
:100A1000982F977031E001C0330F9A95EAF78595CA
:100A200085958595F4E58F02C00111248A559E4F66
:100A3000B0E0042E000C550BEE24E394B417150619
:100A40000CF079C0FB017490F1E0FF121FC06B0144
:100A5000EC01E0E8BE2EB72019F0B880B32AB882C6
:100A6000E69531F4EFEFCE1ADE0AF6017490E0E875
:100A70002196BC2EB81AB21668F3330F19F48C5AAB
:100A80009F4F31E0BF5F600F711FD8CFF11019C0C9
:100A9000A32EA0946B01EC01E0E8BE2EB72019F064
:100AA000B880BA20B882E69531F4FFEFCF1ADF0A9A
:100AB000F6017490E0E82196BC2EB81AB21668F3DD
:100AC000DCCFF3E06B01EC01E0E8FF1220C0932ED5
:100AD0009094F0E8BF2EA12CEB2DE72139F0E881AE
:100AE0008A2E8A2480FE11C0E32BE883B69439F461
:100AF000EFEFCE1ADE0AF6017490E0E8BE2EA39462
:100B00002196A21648F3AE25B8CFE921EECFBE2E2E
:100B1000B72019F0B880B326B882E69531F4FFEF1C
:100B2000CF1ADF0AF6017490E0E82196BC2EB81ABD
:100B3000B21668F3A2CFDF91CF911F910F91FF9072
:100B4000EF90DF90CF90BF90AF909F908F907F906D
:100B50000895FC018091A501882311F13FB7F89415
:100B600082E08093E9002091F200822F90E0181635
:100B7000190614F481E090E0882339F0289844E6BF
:100B80004093A4014091F1004083222339F0209149
:100B9000F200211103C02BE62093E8003FBF089527
:100BA0008FEF9FEF08952FB7F89483E08093E900CB
:100BB0009091E800892F807295FF04C09091F20017
:100BC00080E4891B2FBF089580919C0181110DC085
:100BD00082E08093980184E08093990110929B01B8
:100BE00010929A0181E080939C0188E991E0089538
:100BF000CF93DF931F92CDB7DEB76983DC01ED9110
:100C0000FC910280F381E02D41E050E0BE016F5F76
:100C10007F4F09950F90DF91CF91089583E08093E6
:100C2000E9008091F200882319F08AE38093E800BC
:100C300008950E94D30590E00895CF93DF931F920B
:100C4000CDB7DEB7FC018485958597FD08C02FEFF1
:100C50003FEF358724870F90DF91CF910895CE0124
:100C600001960E94A905019719F4898190E0F3CFBC
:100C70008FEF9FEFF0CF0F931F93CF93DF931F92D0
:100C8000CDB7DEB78C01FC018485958597FF0BC03D
:100C9000CE0101960E94A905019771F4898190E027
:100CA000F80195878487F801848595850F90DF91F9
:100CB000CF911F910F9108958FEF9FEFF1CFFC011E
:100CC0008485958597FD0BC09FB7F89482E080934B
:100CD000E9008091F2009FBF90E0019608959FB7D0
:100CE000F89482E08093E9008091F2009FBF90E049
:100CF000089540919201509193012091900130917B
:100D0000910142175307B4F49091E8009570E1F314
:100D10009091E80092FD19C08093F10080919201BA
:100D20009091930101968F739927892B19F48EEF77
:100D30008093E800809192019091930101969093A5
:100D400093018093920181E0089580E00895EF92ED
:100D5000FF920F931F93CF93DF93F82E192FE62E58
:100D6000042F81E0860F880F0E94790683E00E949D
:100D70007906CF2DD12FEC0EFD2EF11CCE15DF05FF
:100D8000B9F007FF13C0FE0184910E947906182F65
:100D900080E00E947906812321968111EFCFDF91B7
:100DA000CF911F910F91FF90EF9008958881EDCF23
:100DB00081E0F5CFDF92EF92FF920F931F93CF93D5
:100DC000DF93D82E8A01EB017B01E40EF51ECE15D0
:100DD000DF0559F0D7FE12C0FE0184910E9479060A
:100DE00021968111F4CF0FEF1FEFC801DF91CF9152
:100DF0001F910F91FF90EF90DF9008958881EECFC3
:100E00000F931F93CF93DF931F92CDB7DEB782E08E
:100E1000898342E450E061E575E080E80E94DA06EB
:100E20000E94E405DC0112960D911C91011511053B
:100E300089F0D801ED91FC910280F381E02DBE0193
:100E40006F5F7F4FC801099597FD04C0F8010085C9
:100E50001185ECCF89810F90DF91CF911F910F9178
:100E60000895615030F02091F100FC01208301963B
:100E7000F8CF289884E68093A4010895AF92BF929A
:100E8000CF92DF92EF92FF920F931F93CF93DF9356
:100E90006C017B018B01040F151FEB015E01AE1885
:100EA000BF08C017D10759F06991D601ED91FC91A7
:100EB0000190F081E02DC6010995892B79F7C501D4
:100EC000DF91CF911F910F91FF90EF90DF90CF9026
:100ED000BF90AF90089581508F3008F047C0E82F41
:100EE000F0E0EB58F84F0C94E8239207960784073C
:100EF0008A078E07B607B607B60799079F07A307A5
:100F0000A707AD07B607B107809180008F77809360
:100F100080000895809180008F7DF9CF80918000BE
:100F2000877FF5CF84B58F7784BD089584B58F7D95
:100F3000FBCF809190008F778093900008958091EF
:100F400090008F7DF9CF80919000877FF5CF8091C1
:100F5000C0008F778093C00008958091C0008F7D7E
:100F6000F9CF8091C200877F8093C20008951F93BC
:100F7000CF93DF93282F30E0F901EF52F84F84919F
:100F8000F901EE54F84FD491F901ED56F84FC491A0
:100F9000CC23A9F0162F81110E946B07EC2FF0E0F3
:100FA000EE0FFF1FE35DFE4FA591B4918FB7F8944C
:100FB000EC91111108C0D095DE23DC938FBFDF9137
:100FC000CF911F910895DE2BF8CFCF93DF9390E060
:100FD000FC01EE54F84F24918D56984FFC018491FA
:100FE0008823C9F090E0880F991FFC01EE5EFE4F48
:100FF000A591B491FC01E35DFE4FC591D4916111BF
:101000000DC09FB7F8948C91209582238C93888192
:10101000282328839FBFDF91CF910895623051F438
:101020009FB7F8943C91822F809583238C93E8811D
:101030002E2BEFCF8FB7F894EC912E2B2C938FBFE4
:10104000EACFDF92EF92FF920F931F93CF93DF933C
:10105000C3E0D4E009E014E0EE24EA9462E08A857B
:101060000E94E5072A8530E0F901EF52F84F84919C
:10107000F901EE54F84FF490F901ED56F84FD49081
:10108000DD2029F181110E946B07ED2DF0E0EE0FBC
:10109000FF1FEB57F84FA591B491EC918989FE227F
:1010A000B1F081111CC021960C171D07B9F6809173
:1010B0001A049091140491509E3FB8F49091160434
:1010C00091509E3F90F48F5F80931A0414C08989D9
:1010D0008F5F898B60E08A850E94E507E4CF8F3FB0
:1010E00011F4198AF7CFE98AF5CF882321F08F3FD1
:1010F00051F410921A04DF91CF911F910F91FF903C
:10110000EF90DF9008958FEFDFCF3FB7F894809195
:10111000810190918201A0918301B091840126B553
:10112000A89B05C02F3F19F00196A11DB11D3FBF1F
:10113000BA2FA92F982F8827BC01CD01620F711DEE
:10114000811D911D42E0660F771F881F991F4A95E8
:10115000D1F708958F929F92AF92BF92CF92DF9274
:10116000EF92FF924B015C010E9485086B017C01AC
:101170000E9485086C197D098E099F09683E73409D
:1011800081059105A8F321E0821A9108A108B10810
:1011900088EEC80E83E0D81EE11CF11C8114910476
:1011A000A104B10429F7FF90EF90DF90CF90BF909A
:1011B000AF909F908F9008958F929F92AF92BF9221
:1011C000CF92DF92EF92FF920F931F93CF93DF9313
:1011D0006C017B018A0180911101882309F45CC0B4
:1011E0008091A501882309F457C08091970180FF61
:1011F00005C08091E00082608093E000E801B12C9E
:101200008AEFA82E93E0892E2AE3922E209711F4DC
:10121000BB20D9F10E94D30581110AC0AA94AA204B
:10122000D9F161E070E080E090E00E94AA08EECF82
:101230008C171D0611F00CF08C2F9FB7F89480923C
:10124000E9002091E80025FD02C09FBFDFCF282FD5
:1012500030E0C21BD30BF701815020F04191409345
:10126000F100FACFE20EF31EBB2021F09092E800CD
:10127000B12CEBCF8091E80085FDE7CF9092E8009C
:10128000BB24B394209709F3F3CF5D9884E6809351
:101290009601101611063CF081E090E0F601938370
:1012A000828310E000E0C801DF91CF911F910F9180
:1012B000FF90EF90DF90CF90BF90AF909F908F9076
:1012C0000895FC01178A158A14A213A2108E109299
:1012D0009E0310929F031092A20310929900109205
:1012E000980008950F931F93CF93DF93EC018B0128
:1012F0000E9461091E870D871B8A1A8A81E08983F3
:1013000089E08E8B198E1B8E1D8EDF91CF911F91E0
:101310000F910895E09131048E2F90E0880F991F6E
:10132000E0912F04F0913004E80FF91F859194911A
:101330008F3F980719F4109228040895909334046D
:101340009927880F991FE0913204F0913304E80F38
:10135000F91F6591749188E294E00E94720980916E
:1013600031048F5F809331040895DC01FB01849187
:101370008F5F17968C9317973196E491EF5F1896CD
:10138000EC9318976E5F7F4F1E967C936E931D971C
:101390000895DC01643570F5403360F51F968C913B
:1013A0001F97E62F062E000CFF0B242F2595259561
:1013B000259594E52902E00DF11D1124EA55FE4F13
:1013C0002081342F37708230B1F4822F90E0032EC9
:1013D00002C0959587950A94E2F7809581708111F6
:1013E00014C081E090E001C0880F3A95EAF780953B
:1013F000822380830895833091F71C968C918170AD
:101400006427609561708613ECCF81E090E001C0A5
:10141000880F3A95EAF7822BECCFAF92BF92CF922A
:10142000DF92EF92FF920F931F93CF93DF93182FCA
:10143000062FC0E0D3E08AEFD82E9EEFE92E842F4E
:101440008470C82E842F8270B82E842F8870A82EA6
:101450004170F42ECF5F8C2F880F8F5FE80ECC2069
:1014600081F0402F4D0F612F6C0F81E594E00E94B9
:10147000C909402F4C0F6D2F610F81E594E00E9448
:10148000C909BB2081F0402F4D1B612F6C0F81E5F6
:1014900094E00E94C909402F4C1B6D2F610F81E51C
:1014A00094E00E94C909AA2081F0402F4C0F612FBF
:1014B0006D1B81E594E00E94C909402F4D0F612FFB
:1014C0006C1B81E594E00E94C909FF2081F0402F48
:1014D0004C1B612F6D1B81E594E00E94C909402FD0
:1014E0004D1B612F6C1B81E594E00E94C909CD174B
:1014F0003CF4E7FCAFCFD150D394D394ED0CAACFFA
:10150000DF91CF911F910F91FF90EF90DF90CF90DF
:10151000BF90AF900895EF92FF920F931F93CF93D8
:10152000DF938C01F62ED42FE22EC0E0CE1544F4CA
:101530006F2D6C0F4D2FC8010E94C909CF5FF6CFE8
:10154000DF91CF911F910F91FF90EF900895DF925F
:10155000EF92FF920F931F93CF93DF937C01D62FCF
:10156000D22EC42F002E000C110B040F111D47FDAD
:101570001A958C2F0C2E000C990B8017910744F4B0
:101580002D2D4C2F6D2FC7010E948B0ACF5FF1CFFD
:10159000DF91CF911F910F91FF90EF90DF90089511
:1015A0004F925F926F927F928F929F92AF92BF9273
:1015B000CF92DF92EF92FF920F931F93CF93DF931F
:1015C000EC016A3049F42E8198858A85299F800D27
:1015D00011248A871986A6C06D3009F4A3C08984B6
:1015E00083E588150CF487C0DA848FE28D150CF43E
:1015F00082C01E812F812150330B129FC001139F87
:10160000900D1124880D911D87FC9A9518161906C6
:101610000CF071C028858D2D0D2C000C990B129F9C
:10162000800D911D1124181619060CF064C07F84DA
:10163000C82C912CE62EF12C292D092C000C330BF3
:101640008F8190E0281739070CF054C00197E0E033
:101650002817390771F0E89EF001E99EF00DF89E19
:10166000F00D11242E0F3F1FED85FE85E20FF31FB5
:10167000E4915D2C612C492C480C2885862D062C84
:10168000000C990B2817190691F18CF1AE2EB12C94
:10169000E0FF16C0113061F4462D4D0D642DCE01D2
:1016A0000E94C909F501F595E7956394510EE5CFC0
:1016B000012F212F452D6C2DCE010E94A70AF2CFBC
:1016C00088899F85891771F38F87113041F4462DE2
:1016D0004D0D642DCE010E94C9097F86E3CF012FF5
:1016E000212F452D6C2DCE010E94A70AF6CF939491
:1016F000C10EA2CF7F862E813F818985239F800DD9
:10170000112489879D81992369F0082E000C990B7B
:1017100044E550E0239F4019510911244817590707
:101720000CF452CF81E090E0DF91CF911F910F91A7
:10173000FF90EF90DF90CF90BF90AF909F908F90F1
:101740007F906F905F904F9008950F931F93CF936A
:10175000DF938C01D0E0C0E0F801EC0FFD1F649135
:10176000662341F081E594E00E94D00A892B11F0B4
:101770002196F2CFCE01DF91CF911F910F91089565
:10178000EF92FF920F931F93CF93DF938C01D62F8D
:10179000F42EE22EC0E0CE1544F44F2D4C0F6D2FE9
:1017A000C8010E94C909CF5FF6CFDF91CF911F9189
:1017B0000F91FF90EF9008958F929F92AF92BF92FA
:1017C000CF92DF92EF92FF920F931F93CF93DF930D
:1017D000082FB62E942EA22E83E0F82ED0E0C3E080
:1017E0009AEFE92E1EEFCC24C394C20EDF5F1F0DCB
:1017F0002C2F220F4B2D4C1B8A2C8F0CDB2CDD1A2F
:1018000081E02C0D602F981218C06D0F81E594E0D7
:101810000E94C00B282D4D2D6C2F600F81E594E0A8
:101820000E94C00BDC179CF417FD04C0C150E39468
:10183000E3941E0DF394F394D9CF6D1B81E594E0EE
:101840000E94C00B282D4D2D602F6C1BE7CFDF9120
:10185000CF911F910F91FF90EF90DF90CF90BF90AD
:10186000AF909F908F9008958EBD00000DB407FE3D
:10187000FDCF8EB50895089590E080E00895EF9231
:10188000FF920F931F93CF93DF9340917804509171
:10189000790460917A0470917B042FB7F894809159
:1018A000A3039091A403A091A503B091A6032FBF19
:1018B000481B590B6A0B7B0B8091770490E0B0E0DA
:1018C000A0E0009170041091710420917204309195
:1018D000730484179507A607B70708F04EC00115D3
:1018E00011052105310509F448C02FB7F8948091FE
:1018F000A3039091A403A091A503B091A6032FBFC9
:1019000020917704820F911DA11DB11D8093780451
:1019100090937904A0937A04B0937B048091680437
:1019200090916904A0916A04B0916B040196A11D85
:10193000B11D8093680490936904A0936A04B093E6
:101940006B04109270041092710410927204109241
:1019500073040E94850860936C0470936D048093F7
:101960006E0490936F040E94210881E0DF91CF9173
:101970001F910F91FF90EF900895012B022B032BE5
:1019800009F041C180912804882331F08091290415
:10199000811102C00E948A0980912904882309F4D8
:1019A0003EC080913D0481113AC0809135049091F0
:1019B0003604E0913A04F0913B04EE0FFF1FE80F6C
:1019C000F91F259134912115310509F473C1A9013D
:1019D0005695479556954795842F20FD16C18F73D0
:1019E00080933C0480912C04839F802D112480934C
:1019F0003D0410924D0410924C0410924B0481E06F
:101A000080933F048093A2031092400480913A0493
:101A100090913B04019690933B0480933A0480910B
:101A20003F04882341F080913D0481115FC188E229
:101A300094E00E94610980917C04882309F47FC0AE
:101A4000CCE0C81B8C3008F0C0E0FF24F394F09287
:101A500057041092600410926104D09159041C2F15
:101A60001D1B03E00D0F4DE2410F2EE463E081E505
:101A700094E00E94A70AD450105D2D2F41E0612F01
:101A800080E50E94DC0B2D2F42E0612F83E00E9455
:101A9000DC0BF0926004F0926104009159041C2F59
:101AA000101B8DE2F82EF10E2EE44F2D63E081E540
:101AB00094E00E948B0AD3E0D00FDF0D4FEF4D0F63
:101AC0002EE463E081E594E00E948B0A0350105DF0
:101AD000202F412F60E081E594E00E94C00B202F71
:101AE000412F63E581E594E00E94C00B41E0612F46
:101AF00083E00E940D0A42E0612F80E50E940D0AFA
:101B0000D45044E06D2F80E50E940D0A48E06D2F0F
:101B100083E00E940D0A84E080935A048091590466
:101B2000C81BC15DC0935B0480917D0490917E04CD
:101B30000E94A50B80917C04815080937C0480914D
:101B40005D048F5F80935D0406EA11E0C0E00E94AF
:101B5000660482E20E94340CCF5F8C2F0E94340C0A
:101B600087E00E94340C81E20E94340C86E10E94DE
:101B7000340C8FE70E94340CE0916404F09165040A
:101B8000808190916704892B8083E0916204F091B9
:101B90006304908180916604809589238083780115
:101BA000D0E0D7018D917D010E94340CDF5FD435E8
:101BB000C1F70C5A1F4FC63051F680915504811160
:101BC0000EC0E6EAF1E088EF91E0DF019C011D9292
:101BD00021503040E1F710925A0410925B040E94A9
:101BE00085086093700470937104809372049093DD
:101BF000730420916C0430916D04621B730B70931D
:101C000075046093740480E0B1CEC901E6E0969556
:101C10008795EA95E1F78F71932F9695969596950E
:101C200090514F70423099F1D0F4442309F43CC0F4
:101C30004130B9F1E0913A04F0913B043196F093D0
:101C40003B04E0933A04CF01880F991FE0913504DB
:101C5000F0913604E80FF91F25913491B8CE433046
:101C600061F0443039F720912C04289F802D1124F5
:101C70008093450490934604DDCF20912C04289F47
:101C8000802D11248093430490934404D3CF20915A
:101C90002C04289F802D11248093410490934204AA
:101CA000C9CF0E948704C6CF8B3008F08AE08093AA
:101CB0003E04C0CF20913904211112C01092290492
:101CC00080912804811105C088E294E00E94610996
:101CD000A6CE0E948A0980913A0490913B04B4CF29
:101CE00010923B0410923A04FC01B6CF81508093CD
:101CF0003D0480914D04811142C020914B043091EC
:101D00004C042F5F3F4FC901880F991FE091470492
:101D1000F0914804E80FF91F85919491482F47707E
:101D200040934E04492F4695469540934F04AC018D
:101D300064E0569547956A95E1F74F7390912C04AE
:101D4000499F402D112440934D0483FB882780F93F
:101D50008093A10330934C0420934B048091490459
:101D600090E02817390758F020914A04222309F4FB
:101D700092C0821B910990934C0480934B048091F4
:101D80004D04815080934D048091400431E0380F20
:101D90003093400440913C0420914F04240F8091E3
:101DA0003404280F20932A0460914304662371F0C1
:101DB00070E0832F032E000C990B0E94D423809196
:101DC0004404869F200D112420932A0480912A0424
:101DD00090E0CB966BE370E00E94D42380932A04BA
:101DE00020913E0420932B0460914104662381F0EE
:101DF000062E000C770B832F032E000C990B0E94EC
:101E0000D42380914204869F200D112420932B041B
:101E1000609145046623A1F0832F330F990B70E086
:101E20000E94D423CB0162E070E00E94D423209171
:101E3000460490912B04289F900D112490932B041D
:101E40004F3371F180912B048A300CF089E087FDCB
:101E500080E080932B04F894E0912A04F0E0E65BA4
:101E6000F84FE491E093A00380912D0490915004E9
:101E7000899F802D112490912B04899F802D1124FE
:101E800090914E04899F802D112480939F0380930D
:101E90009E037894D0CD88E294E00E9461096FCFD0
:101EA00010922B04D8CFFB0101900020E9F7319765
:101EB000AF01461B570B0C943E07CF93DF930E9454
:101EC000A50BEC0161E471E081E594E00E94530F01
:101ED0008C0F9D1FDF91CF910895CF92DF92EF92EB
:101EE000FF920F931F93CF93DF93209176042223C9
:101EF00009F4B3C0EC0110921B0481E080935704F5
:101F000010925604109255048093600480936104EB
:101F10001CE00E943F0C8823E1F3FE0104910111B3
:101F20000091590468EE75E080E00E94B30468E512
:101F300076E08CE0800F0E94B30410925A04109354
:101F40005B04CE010E94A50B80915804982F990F35
:101F5000990F891B8D5A80935A0490915904892FA7
:101F6000880F880F981B935D90935B0480916804A1
:101F700084FF7CC084EE95E00E945D0F9091580430
:101F8000892F880F880F981B9D5A90935A0480912F
:101F90005B048F5F80935B0480912D04882309F498
:101FA00068C08CED95E00E945D0F90915804892FD8
:101FB000880F880F981B9D5A90935A0480915B0458
:101FC0008F5F80935B0484ED95E00E945D0F8091AC
:101FD00019048130A9F480912D048F5F082E000C24
:101FE000990B60912E0470E06F5F7F4F0E94D423A5
:101FF00080932D0466EC75E088E294E00E947209FB
:10200000809118048130B9F080917604482F50E017
:1020100070E060E0C0906804D0906904E0906A04C9
:10202000F0906B04C416D506E606F70608F471CFE7
:102030008F3F09F46ECF8FEF8093760488E294E0AF
:102040000E946109109229046CEC75E088E294E02A
:102050000E94720981E080931B04DF91CF911F9150
:102060000F91FF90EF90DF90CF90089580EE95E074
:1020700083CF88ED95E097CF8F929F92AF92BF92DA
:102080000F931F93CF93DF93CDB7DEB7A1970FB612
:10209000F894DEBF0FBECDBF19A2423008F44AE06B
:1020A0008E010F5D1F4F842E912CB12CA12CA50108
:1020B00094010E942221E62FB901CA01EA3004F5F9
:1020C000E05DD801EE938D01232B242B252B79F78E
:1020D00090E080E0109729F0BD0181E594E00E9436
:1020E000530FA1960FB6F894DEBF0FBECDBFDF91A0
:1020F000CF911F910F91BF90AF909F908F900895B7
:10210000E95CDFCFCF93DF93BC0181E594E00E94CF
:10211000530FEC0161E471E081E594E00E94530FFC
:102120008C0F9D1FDF91CF910895CF93DF93BC015A
:1021300090E080E04AE00E943C10EC0161E471E034
:1021400081E594E00E94530F8C0F9D1FDF91CF918A
:1021500008950F931F93CF9300917D0110917E01FD
:1021600001151105D1F0C0E080917C01C81760F421
:10217000EC2FF0E0EE0FFF1FE00FF11F8081918147
:102180000E94AD1FCF5FF0CFC8010E94AD1F10921B
:102190007E0110927D0110927C01CF911F910F91D1
:1021A0000895CF93C0E08091A7039091A8032C2FAE
:1021B00030E040918C0150918D01241735075CF47B
:1021C000220F331F820F931FFC01808191810E9497
:1021D000AD1FCF5FE8CF0E94AD1F0E94A9101092E3
:1021E000FA031092F903CF910895CF93DF9361E042
:1021F00070E00097D1F0EC01BC01990F880B990BAE
:102200000E94F8210E94DC220E94332220E030E06C
:1022100040E85FE31C161D0624F020E030E040E0BB
:1022200050E40E9454210E94C021CB01DF91CF9144
:1022300008957F928F929F92AF92BF92CF92DF923A
:10224000EF92FF920F931F93CF93DF93C09188017A
:10225000D09189012196D0938901C0938801109271
:102260008F0110928E01209709F498C0C031D105DA
:1022700010F0CFE0D0E07E01EE0CFF1CC7010E9401
:10228000111F6C019093A8038093A70381E090E055
:1022900090938D0180938C0187E090E00E94111F44
:1022A0008C01FC01108211828EE3828380E38383A0
:1022B000158214821682F6011183008380917D01BC
:1022C00090917E01892B11F00E94A910C0937C018E
:1022D000C7010E94111F90937E0180937D01F80138
:1022E000C68395838483FC0111821082F12C32E035
:1022F000832E912CA12CB12CCC24CA9477247394D6
:1023000080917C01F81608F050C0F801C281C250DB
:10231000DD0BD12C49F00E9482209E01DD0F440B81
:10232000550B0E94F020D62EF801C381C250DD0B60
:10233000E12C49F00E9482209E01DD0F440B550BD9
:102340000E94F020E62E84E090E00E94111FEC0134
:10235000D882E9820E948220A50194010E94F02087
:10236000672B682B692BE9F07A820E948220A501F5
:1023700094010E94F020672B682B692BA1F07B82CF
:102380008F2D90E0880F991FE0917D01F0917E01E3
:10239000E80FF91FD183C083F394B2CFC1E0D0E03E
:1023A0006ACFCA82E2CFCB82EBCF1092FA031092AF
:1023B000F903DF91CF911F910F91FF90EF90DF9084
:1023C000CF90BF90AF909F908F907F9008951F9275
:1023D0000F920FB60F9211248F939F938091E1007B
:1023E0009091E100937F9093E10083FF0FC01092E2
:1023F000E90091E09093EB001092EC0092E390934F
:10240000ED001092A50198E09093F00082FF22C0A9
:1024100093E09093E9009091F200992319F09AE3E8
:102420009093E80090919601992341F09091960144
:10243000915090939601911101C05D9A9091A401E1
:10244000992341F09091A40191509093A40191118E
:1024500001C0289A84FF18C08091E2008E7E8160BE
:102460008093E2008091E1008F7E8093E100809173
:1024700097018E7E8061809397019F918F910F903D
:102480000FBE0F901F90189580FFF7CF8091E2004C
:102490008E7E80618093E2008091E1008E7E809349
:1024A000E100809197018E7E8160E5CF1F920F92AF
:1024B0000FB60F921124CF92DF92EF92FF920F93FB
:1024C0001F932F933F934F935F936F937F938F93BC
:1024D0009F93AF93BF93EF93FF93CF93DF93CDB7CA
:1024E000DEB76C97DEBFCDBF1092E9008091E800A7
:1024F00083FF25C068E0CE0145960E94310782EF38
:102500008093E8008D8987FF39C09091E80090FFA3
:10251000FCCF982F907609F034C19E894F89588D51
:102520002F89F88C911131C0803861F58091950127
:102530008093F1001092F1008EEF8093E8006C968A
:102540000FB6F894DEBF0FBECDBFDF91CF91FF91E4
:10255000EF91BF91AF919F918F917F916F915F911B
:102560004F913F912F911F910F91FF90EF90DF902E
:10257000CF900F900FBE0F901F9018959EEF9093E5
:10258000E800C7CF1092F100D5CF913059F48111F6
:10259000D3CF4130510581F6809195018D7F809395
:1025A0009501CACF933049F48111C6CF413051050E
:1025B00019F6809195018260F2CF953041F48091B7
:1025C000E80080FFFCCF20682093E300B5CF963071
:1025D00009F0A9C00B8D1C8D22E01092E900109229
:1025E000930110929201F2122EC01092910110925A
:1025F00090010E9400071F8299E09983FA8291E07E
:102600009E8390EA98879AEF998720919201309162
:102610009301275F3F4F3C832B838D831092E9000A
:1026200010929301109292011093910100939001E6
:1026300049E050E0BE016F5F7F4F80E00E94DA0604
:102640000E94000779CF10939101009390010E949E
:10265000E405DC0112960D911C910115110509F498
:1026600051C1D801ED91FC910480F581E02DBE01AE
:102670006B5E7F4FC8010995009709F03EC1F801D4
:1026800000851185EACFF3E0FF120EC08F89882301
:1026900009F440C0823061F440E860E185EB95E0E8
:1026A0000E94A706811148CF81E28093EB0047CFBB
:1026B000813029F440E86BE089EA95E0F1CF83307E
:1026C00099F70E94E405DC011296ED90FC908E01D2
:1026D0000F5F1F4F6801E114F10479F0D701ED910C
:1026E000FC910680F781E02DB801C7010995080F1C
:1026F000111DF701E084F184EECFD8011C92F601A0
:1027000001900020E9F73197BF016C197D0940E085
:10271000C601C6CF63E975E0FB01449150E080E853
:102720000E94DA0609CF973009F4BECF983021F421
:1027300081E08093F10000CF993009F0FDCE8370E5
:1027400009F0B2CFEDE1F1E081E031E096E32191D3
:10275000222371F08093E9003093EB00DF011197A1
:102760002C912093EC009093ED008F5F873079F7E8
:102770008EE78093EA001092EA008F898093A5018A
:10278000DBCE8B8D9C8D1092E900109293011092FC
:1027900092019093910180939001898D811192C053
:1027A0008E899D89913A49F4813209F07DCF47E0C5
:1027B00050E06AE071E080E0B3CF913209F074CF6D
:1027C000833269F48F89988DB0E0A0E08093060190
:1027D00090930701A0930801B0930901ADCE803218
:1027E00069F48091E80082FFFCCF67E08AE091E025
:1027F0000E9431078BEF8093E8009ECE823209F071
:102800009BCE8F8980931101EEEFFFE78591949124
:102810008B3F9C4D51F1E0E0F8E080910A019091EE
:102820000B01A0910C01B0910D01803B9440A105DA
:10283000B105F1F48091110180FD1AC0EE3F8AE0EC
:10284000F80789F587E797E7918380838091600097
:102850008093940188E19BE00FB6F894A89580934B
:1028600060000FBE9093600067CEEEEFFAE0D5CF28
:10287000808191818737974709F05ECEA895809136
:102880006000886180936000809194018093600073
:10289000EE3F2AE0F20789F08091FE0A9091FF0A4C
:1028A0009183808349CE808191818737980751F247
:1028B0009093FF0A8093FE0AC5CF1092FF0A1092F0
:1028C000FE0A3ACE0E94E405DC0112960D911C919D
:1028D0000115110509F4E8CED801ED91FC910190A4
:1028E000F081E02DBE016B5E7F4FC801099581111B
:1028F00023CEF80100851185EBCF181619060CF4CC
:102900001BCED2CEF1E0FF12BECE67E975E004CF58
:102910001F920F920FB60F9211242F933F938F9314
:102920009F93AF93BF938091A3039091A403A09131
:10293000A503B091A6033091800123E0230F2D372A
:1029400058F50196A11DB11D209380018093A3032A
:102950009093A403A093A503B093A6038091810153
:1029600090918201A0918301B09184010196A11DF3
:10297000B11D8093810190938201A0938301B09354
:102980008401BF91AF919F918F913F912F910F90B3
:102990000FBE0F901F90189526E8230F0296A11DD9
:1029A000B11DD2CF1F920F920FB60F9211242F9309
:1029B0006F937F938F939F9360919F03662361F141
:1029C00080917F018F5F80937F019091A003891791
:1029D00018F12091A20381E028272093A2031092EE
:1029E0007F018091A103882369F08091000193E425
:1029F000899F802D1124895B809300010E94C82348
:102A000090939E0380919E03211101C080E090E08D
:102A100090939900809398009F918F917F916F91EF
:102A20002F910F900FBE0F901F901895E9EAF3E0D9
:102A30001382128288EE93E0A0E0B0E08483958355
:102A4000A683B78387E291E0918380838FEF9FEF26
:102A500095878487109254041092530489E391E07F
:102A60009093520480935104E0E0F4E08DE1808380
:102A700088E1818381E08283E9EFF3E012821382AF
:102A80001482858316820895CF93DF93CDB7DEB786
:102A900029970FB6F894DEBF0FBECDBF789484B5EA
:102AA000826084BD84B5816084BD85B5826085BD4A
:102AB00085B5816085BD80916E00816080936E00D8
:102AC00010928100809181008260809381008091CA
:102AD000810081608093810080918000816080937B
:102AE000800080919100826080939100809191009C
:102AF000816080939100809190008160809390002C
:102B00008091C10084608093C1008091C100826087
:102B10008093C1008091C10081608093C100809149
:102B2000C30081608093C3008091C0008260809365
:102B3000C0008091C20081608093C20080917A00C1
:102B4000846080937A0080917A00826080937A001A
:102B500080917A00816080937A0080917A00806809
:102B600080937A001092A50110929501109297011E
:102B70008091D70081608093D70080EA8093D8004D
:102B800089B5806189BD89B5826089BD09B400FEBF
:102B9000FDCF61E070E080E090E00E94AA088091A3
:102BA000D8008F7C80618093D8008091E000807F86
:102BB0008093E0008091E1008E7E8093E1008DE0C3
:102BC0008093E200559A209A82E38093770481E013
:102BD00090E0A0E0B0E08093700490937104A09323
:102BE0007204B093730421E020932E0420932D04EB
:102BF0008FEF8093760484E180930D0482E18093CB
:102C00000E0483E180930F0485E18093100487E034
:102C10008093110488E080931204109213040E94A0
:102C2000210831E03093600410926104309356041F
:102C3000309357046EEC73E081E594E00E94B5098F
:102C40004FB74983F89480918501811127C0E4EA48
:102C5000F7E08491E3ECF7E09491E82FF0E0EE0FD9
:102C6000FF1FEE5EFE4FA591B491EC91E92321F494
:102C700061E081E10E94B70761E081E10E94E50720
:102C80008CB580618CBD8CB580648CBD61E08FE0BB
:102C90000E94E50761E080E10E94E50780918501DF
:102CA0008F5F8093850159815FBF8CB58C7F8CBD10
:102CB0008DB581608DBD61E084E00E94E50761E033
:102CC0008CE00E94E50761E086E00E94E50761E094
:102CD00086E00E94B70761E070E080E090E00E942B
:102CE000AA0860E086E00E94B7076AE070E080E032
:102CF00090E00E94AA0861E086E00E94B707EFE931
:102D0000F7E0E491F0E0EE0FFF1FE35DFE4F8591E9
:102D100094919093630480936204E7E9F7E0E4916F
:102D2000F0E0EE0FFF1FE35DFE4F859194919093CD
:102D3000650480936404EEEBF7E0E491E0936604AD
:102D4000E6EBF7E0E491E09367040E94660480E21A
:102D500091E09A8389830DE211E0E981FA818491FF
:102D60000E94340C29813A812F5F3F4F3A83298397
:102D70000217130791F7E0916404F09165048081D4
:102D800090916704892B8083E0916204F091630441
:102D900090818091660480958923808340E054E08F
:102DA0005A83498380E00E94340C89819A8101977B
:102DB0009A838983892BB1F781E080932C0484E086
:102DC000809350048EE091E0909338048093370410
:102DD00080E00E94870461E085E00E94E50761E0F1
:102DE0008DE00E94E50761E085E00E94E507E6EDE1
:102DF000F7E0E491E150EF3008F050C1F0E0ED5F12
:102E0000F84E0C94E8231217DB17E117ED17F917AA
:102E10004E184E184E18051811181D182918371875
:102E20004E18401884B5806884BD81E087BD8091CC
:102E30009100887F816080939100F89410928000C7
:102E400010928100109285001092840088E191E038
:102E5000909389008093880080918100886080939E
:102E600081008091810081608093810080916F005A
:102E7000826080936F00789480911904813009F00A
:102E800012C110922D0489E491E00E946D0F80918F
:102E900064008E7F8093640087EC80937C0080E2E6
:102EA00080937B0062E070E080E090E00E94AA08DE
:102EB00080917A00806480937A0080917A0086FD08
:102EC000FCCFA0917800B0917900A095B095BA831D
:102ED000A9838EE580937C0062E070E080E090E062
:102EE0000E94AA0880917A00806480937A00809181
:102EF0007A0086FDFCCF00917800109179000E9445
:102F0000850800951095E981FA810E9FD0010F9FE9
:102F1000B00D1E9FB00D11249B01AC012095309582
:102F2000409550950E940F216B017C010E948508FD
:102F30006C0D7D1D8E1D9F1D61157105810591050F
:102F400011F00E94D1208091640081608093640020
:102F500010921B04A1E0EA2EA1E0FA2E870120E1E5
:102F600030E03A83298389819A810E94DA20D8014E
:102F70009D918D01981709F49DC0E0E1F0E0FA837E
:102F8000E983D7011D917D0189819A810E94DA2010
:102F9000181729F0612F89819A810E94E220E98126
:102FA000FA813196FA83E983739759F71092870172
:102FB0001092860195C084B5806284BD81E088BD91
:102FC00036CF8091800080688093800081E090E01F
:102FD00090938900809388002ACF8091800080623E
:102FE0008093800081E090E090938B0080938A0032
:102FF0001ECF8091800088608093800081E090E007
:1030000090938D0080938C0012CF80919000806807
:103010008093900081E090E09093990080939800D5
:1030200006CF8091900080628093900081E090E0D4
:1030300090939B0080939A00FACE809190008860D4
:103040008093900081E090E090939D0080939C009D
:10305000EECE8091C00080688093C0008091C00057
:103060008F7B8093C00081E08093CF00E0CE809181
:10307000C00080628093C00081E08093D000D7CEF2
:103080008091C20088608093C2008091C2008B7FD3
:103090008093C20081E08093D200C9CE60E085E0D9
:1030A0000E94B707C4CE6BE371E088E294E00E940F
:1030B0007209E9CE29813A812F5F3F4F3A832983F4
:1030C0002331310509F04FCF83E190E00E94DA20EF
:1030D0008093860184E190E00E94DA20809387014A
:1030E0000E9419114424439455245A94EE24E394E5
:1030F0000E943F0C882309F4A8C08091040190919C
:103100000501892B09F0D0C08FE080935A048AE032
:1031100080935B046BE471E081E594E00E94B50963
:1031200064E471E081E594E00E94530F20918A01EC
:1031300030918B01809186019091870182179307CE
:1031400008F08BC08CE080935A048EE180935B047E
:103150008EE491E00E94821080918A0190918B010F
:103160000E94F5109C012E5F3F4F4AEF4203C001C1
:10317000439F900D11248B5A9F4F97FD0196959573
:10318000879580935A0469E571E081E594E00E9497
:10319000530F60918A0170918B0190E080E04AE0CA
:1031A0000E943C1069E571E081E594E00E94530FB4
:1031B00080911804813009F040C080918A0190917B
:1031C0008B019A8389838091860190918701A981DF
:1031D000BA818A179B07F8F4B0938701A093860100
:1031E000198183E190E00E94DA20181729F0612FFD
:1031F00083E190E00E94E220B0918701B98384E1ED
:1032000090E00E94DA20E9818E1729F06E2F84E188
:1032100090E00E94E22010928B0110928A0110929D
:1032200089011092880125E030E030930501209358
:1032300004010E94D1100E94191180911A0481305A
:1032400021F48AE491E00E946D0F80E090E0892BE8
:1032500009F44ECF0E9400004BCF8BE180935A04BB
:103260008EE180935B048BE591E00E948210409197
:103270008A0150918B015A834983CA010E94F5103B
:103280002AEFAC012403C001259F900D11248B5A15
:103290009F4F97FD01969595879580935A04898154
:1032A0009A810E94951084CF80918E0190918F0118
:1032B000F12C8C3F984008F471C08BE180935A0444
:1032C00085E080935B046BE471E081E594E00E940B
:1032D000B50981E691E00E948210409188015091E9
:1032E00089015A834983CA010E94F5102AEFAC0173
:1032F0002403C001259F900D11248B5A9F4F97FDE9
:1033000001969595879580935A0489819A810E94A8
:10331000951055E150935A0487E691E00E9482107F
:1033200085E180935A0483E280935B048FE691E009
:103330000E94821080911804813021F40E94D110E3
:103340000E94191180911A04813009F07ECF8DEC12
:1033500093E079CF890FF60180836EC0890FF60163
:1033600081838AC0DD2009F4D1C04F5F5F4F6417AD
:10337000750709F0CBC04282D40112965C92C6C098
:10338000442309F4CFC001962817390709F0CAC0B1
:103390004382D40113965C92C5C0F394A0918C0132
:1033A000B0918D01BA83A9838F2D90E08A179B0776
:1033B0000CF0C0C0880F991F2091A7033091A8037B
:1033C000820F931FFC016080718010E0D30116967C
:1033D0008C911697181708F7A12EB12CAA0CBB1CBC
:1033E0001496ED91FC911597EA0DFB1DC080D180DC
:1033F00013969C90139711960C9111974C91F6018E
:103400009081828112962C91240F3327331F2250F2
:1034100031099217130611F4181624F049139ACFA4
:1034200087FF98CF8195D60112968C9366EC75E054
:1034300088E294E00E947209D60111969C9111973E
:1034400013968C91E02FE90DFF27FF1F9F0122505B
:1034500031099217130611F4181624F009137ECFC0
:1034600087FF7CCF8195D60113968C9366EC75E02F
:1034700088E294E00E9472091F5F012FD301169623
:103480008C911697081708F0A1CF14968D919C91F6
:10349000FC01EA0DFB1D0190F081E02D202F30E0B2
:1034A000220F331F820F931FDC018D909C90D4015B
:1034B0004C9150E0608170E0CB01029648175907AB
:1034C000BCF5CA0102966817790794F511968C919C
:1034D00090E0218130E06901B2E0CB0ED11C8C1567
:1034E0009D0534F56C01A2E0CA0ED11C2C153D05DA
:1034F000FCF4D2801D140CF035CF6F5F7F4F461760
:10350000570721F45282D40112964C92438114162B
:103510000CF036CF2F5F3F4F8217930719F4538279
:10352000F401438266EC75E088E294E00E9472093F
:103530000F5FA4CF8091F9039091FA03019709F0EE
:1035400095C08091FD038F5F8093FD036090A7037A
:103550007090A803E091FF03F0E0EE0FFF1FE60D6F
:10356000F71D208131813F832E83D9011696BC91AE
:10357000BB83C090FE03D090FC032D2C312C90E037
:103580004101881A990A5C01AA0CBB1CF50131960D
:10359000FD83EC83F090FB030F2D10E09801281BB6
:1035A000390B3987288770E060E03B81631708F0AA
:1035B000D7C0AE81BF8114968D919C919B01220F43
:1035C000331F820F931FDC01ED91FC91AE81BF810F
:1035D000CC2009F48EC08C91482F50E012969C911B
:1035E000890F815090E028853985241735070CF420
:1035F0007EC09C01A885B985A817B9070CF49D0168
:10360000841B950BA816B90614F48C819D8140810A
:1036100050E0820F931F481759070CF09EC04E5F71
:103620005F4F241735070CF098C0818190E0281671
:1036300039060CF492C00296281639060CF08DC09B
:1036400083818195838366EC75E088E294E00E9433
:1036500072098091040190910501019790930501F1
:10366000809304011092FA031092F90380911804D8
:10367000813009F005C28091F9039091FA03892BFA
:1036800009F0FEC1E0918C01F0918D01FA83E9838C
:1036900010910104412F50E000910004602F70E070
:1036A000A091A703B091A80390E080E029813A811E
:1036B000821793070CF0E4C1ED91FD91208130E079
:1036C0006217730794F0F2802F0D311D6217730794
:1036D00064F4218130E0421753073CF0E3812E0F60
:1036E000311D421753070CF4B7C10196DFCF9A0181
:1036F00087CF11968C911197482F50E013969C918B
:10370000890F815090E09A01841695062CF09C0157
:10371000881699060CF49401841B950BA816B9061B
:1037200014F48C819D81408150E004171507ACF0A2
:103730004E5F5F4F0417150784F4418150E0820FFC
:10374000931F481759074CF44E5F5F4F24173507F6
:1037500024F482818195828376CF6F5F7F4F25CF5E
:103760000E942304882309F481CFEE81FF81928097
:10377000A080B380818009811A81000F111F060D7E
:10378000171D87E090E0CC2009F494C00E94111F1F
:10379000FC01A08281E08D0D81839282B80CD094CF
:1037A000DB0CD3821682D801ED93FC93AE81BF81EE
:1037B00016968C91169790E0880F991F14962D916C
:1037C0003C911597820F931F958384838091FC030E
:1037D00011969C911197891B13968C93EE81FF8112
:1037E0001682FB816F2E712CAE81BF8116962C91B3
:1037F000F801A081B18116963C911697C32ED12C69
:10380000422F50E0CA018C0D9D1D861597050CF0C6
:103810007EC0EE81FF8184809580FA01EE0FFF1F4C
:103820001F01280C391CF10160817181FB0180812D
:1038300090E0EE81FF81408150E0A280A40EB52E81
:10384000B11C8A159B05BCF40296481759079CF4D5
:10385000FB01818190E0EE81FF81418150E0A380F6
:10386000A40EB52EB11C8A159B052CF402964817A0
:1038700059070CF446C0C3018C199D09815090482A
:10388000880F991F880E991EF40180819181F101A2
:1038900091838083F4017183608314968D919C9150
:1038A0001597029715969C938E9314973F5F1696E3
:1038B0003C939ACF0E94111FFC0181E08F0D808301
:1038C0008182F094A90CAF0CA282B3821682D80137
:1038D000ED93FC93AE81BF8116968C91169790E084
:1038E000880F991F14962D913C911597820F931F65
:1038F000958384838091FB039C91891B12968C9302
:103900006DCF2F5FAE81BF8116962C936DCF109136
:10391000FE0380918A0190918B0160918E017091DC
:103920008F0140918C0150918D0131112DC0129663
:10393000EC911297F0E013962C9130E0112311F1E5
:103940002F5F3F4FE29FD001E39FB00DF29FB00D7C
:1039500011248A0F9B1F90938B0180938A016A0F19
:103960007B1F70938F0160938E01440F551FE09170
:10397000A703F091A803E40FF51F808191810E94B5
:10398000AD1F70CE3196DECF211148C0AE81BF8110
:103990001296EC911297F0E013962C9130E01123DF
:1039A000D9F12F5F3F4FE29FD001E39FB00DF29F0F
:1039B000B00D11248A0F9B1F90938B0180938A0175
:1039C0006A0F7B1F70938F0160938E01440F551F08
:1039D000E091A703F091A803E40FF51F0190F08197
:1039E000E02D8081AE81BF818C93818111968C9373
:1039F0001197828112968C931297838113968C93E0
:103A000013978481958115969C938E931497868144
:103A100016968C93CF01B3CF3196C5CF1123B9F051
:103A2000EE81FF81228130E0820F931F90938B0102
:103A300080938A01620F731F70938F0160938E01D0
:103A40004F5F5F4F50938D0140938C010BCEAE8141
:103A5000BF8113962C91E7CF209102040093FB03C2
:103A60001093FC03222369F1E092FE031092FD0300
:103A70008093FF0341E050E05093FA034093F90331
:103A800090911904913029F4809102048927809340
:103A9000020480911A04813021F480E595E00E94AF
:103AA0006D0F8091150481508E3FC0F080911704F6
:103AB00081508E3FE0F4809101048F3248F58F5F92
:103AC00014C01092FE031092FD038093FF0381E067
:103AD00090E09093FA038093F903D2CF8091010490
:103AE000882319F08133A0F48150809301048091E0
:103AF000140481508E3F70F08091160481508E3FE7
:103B000098F4809100048D3308F07CC08F5F0AC068
:103B10008FE2EBCF80910004882321F08F3308F0EF
:103B200071C081508093000448EF51E06FEF7FEF48
:103B300086EA91E00E9402241092600410926104CF
:103B400000E325E140E06FE381E594E00E94A70AED
:103B5000E0926004E092610410E410935A04E09251
:103B60005B046EEC73E081E594E00E94B50981E6A8
:103B700091E00E948210A0918801B0918901BA83DE
:103B8000A983CD010E94F510E5E1F0E0E81BF90BF7
:103B9000CF01880F880F80935A0489819A810E94EF
:103BA000951010935A048BE591E00E9482102091A9
:103BB0008A0130918B013A832983C9010E94F51053
:103BC00045E150E0481B590BCA01880F880F8093CC
:103BD0005A0489819A810E94951010935A0419827F
:103BE000809104019091050159815817190660F4DC
:103BF00067E771E081E594E00E94530F89818F5F50
:103C00008983EECF8DE38ECF20918E0130918F018D
:103C1000A4E6B0E00E94442120EA3BE040E050E00E
:103C20000E94222149015A01C9010E94F510A4E114
:103C3000B0E0A81BB90BCD01880F880F80935A0400
:103C40008FE180935B044AE0C501B4010E943C10FF
:103C500069E771E081E594E00E94530F10926004DF
:103C60001092610410E0E0918C01F0918D01FA83D3
:103C7000E983812F90E08E179F07ACF4880F991F7E
:103C80002091A7033091A803820F931FDC01ED91CF
:103C9000FC91038122814181608181E594E00E9451
:103CA000A70A1F5FE0CFE0926004E0926104809178
:103CB000F9039091FA03892BD9F18091FF0390E0E9
:103CC000880F991F2091A7033091A803820F931F9B
:103CD000FC01A081B1814091FC038091FD0390E043
:103CE0006091FB032091FE03222309F46BC02C9109
:103CF00070E0681B790BE22FF0E012963C91230FE5
:103D0000215030E06E177F070CF45AC02617370792
:103D10000CF4B901880F991F2E1B3F0B82179307D4
:103D20001CF49C012F5F3F4F81E594E00E948B0AB9
:103D300082E080936004809361044091010460916B
:103D4000000480910204882309F462C0615023E0DA
:103D500081E594E00E948B0AE0926004E0926104A5
:103D6000F12C8F2D90E029813A81821793070CF076
:103D70006CCA880F991F2091A7033091A803820F66
:103D8000931FDC01CD90DC9010E0F60186811817BE
:103D900008F045C0812F90E0880F991F0480F581BD
:103DA000E02DE80FF91F0190F081E02D02E022E004
:103DB0004181608181E594E00E94A70A1F5FE5CF01
:103DC000BF01A8CF11962C911197E42FF0E0E81BCA
:103DD000F90B022F10E013963C91230F215030E095
:103DE000402FE017F1072CF0422FE217F3070CF4F5
:103DF0004E2F880F991F201B310B821793071CF43D
:103E00009C012F5F3F4F81E594E00E94C00B90CF53
:103E1000415023E081E594E00E94C00B9DCFF394D4
:103E2000A0CF0F931F93CF93DF938230910510F4AF
:103E300082E090E0E0918104F091820430E020E0A3
:103E4000B0E0A0E0309799F42115310509F44AC09B
:103E5000281B390B24303105D8F58A819B816115E7
:103E6000710589F1FB0193838283FE0111C04081BA
:103E700051810281138148175907E0F0481759070B
:103E800099F4109761F012960C93129713961C9365
:103E90003296CF01DF91CF911F910F91089500933A
:103EA000810410938204F4CF2115310551F042179B
:103EB000530738F0A901DB019A01BD01DF01F801C8
:103EC000C1CFEF01F9CF9093820480938104CDCFCD
:103ED000FE01E20FF31F8193919322503109398340
:103EE0002883D7CF20917F0430918004232B41F485
:103EF00020911401309115013093800420937F04A8
:103F000020911201309113012115310541F42DB793
:103F10003EB74091160150911701241B350BE091DB
:103F20007F04F0918004E217F307A0F42E1B3F0BEF
:103F30002817390778F0AC014E5F5F4F241735071B
:103F400048F04E0F5F1F5093800440937F0481938D
:103F500091939FCFF0E0E0E09CCFCF93DF93009769
:103F6000E9F0FC01329713821282A0918104B09192
:103F70008204ED0130E020E01097A1F4208131812E
:103F8000820F931F20917F043091800428173907F6
:103F900009F061C0F0938004E0937F04DF91CF913A
:103FA0000895EA01CE17DF07E8F54A815B819E019B
:103FB00041155105B1F7E901FB83EA834991599114
:103FC000C40FD51FEC17FD0761F480819181029623
:103FD000840F951FE90199838883828193819B8354
:103FE0008A83F0E0E0E012968D919C911397009700
:103FF000B9F52D913C911197CD010296820F931F37
:1040000020917F04309180042817390739F63097C2
:1040100051F51092820410928104B0938004A09311
:104020007F04BCCFD383C28340815181840F951F0D
:10403000C817D90761F44E5F5F4F88819981480F97
:10404000591F518340838A819B81938382832115E9
:10405000310509F0B0CFF0938204E09381049ECF44
:10406000FD01DC01C0CF13821282D7CF8F929F92C5
:10407000AF92BF92CF92DF92EF92FF92CF93DF93F6
:10408000EC01688179818A819B81611571058105C7
:10409000910521F464E279ED8BE597E02DE133EFB2
:1040A00041E050E00E94F02049015A019B01AC011F
:1040B000A7EAB1E40E940F216B017C01ACEEB4EFE2
:1040C000A50194010E941D21C60ED71EE81EF91EEF
:1040D000F7FE06C081E0C81AD108E10880E8F80AB6
:1040E000C882D982EA82FB82C701B6019F77DF913D
:1040F000CF91FF90EF90DF90CF90BF90AF909F90C7
:104100008F9008958F929F92AF92BF92CF92DF923D
:10411000EF92FF92609118017091190180911A013C
:1041200090911B01611571058105910521F464E2EF
:1041300079ED8BE597E02DE133EF41E050E00E940F
:10414000F02049015A019B01AC01A7EAB1E40E94A9
:104150000F216B017C01ACEEB4EFA50194010E942C
:104160001D21C60ED71EE81EF91EF7FE06C081E00F
:10417000C81AD108E10880E8F80AC0921801D09264
:104180001901E0921A01F0921B01C701B6019F7755
:10419000FF90EF90DF90CF90BF90AF909F908F9067
:1041A0000895609318017093190180931A019093F8
:1041B0001B010895F999FECF92BD81BDF89A992708
:1041C00080B50895262FF999FECF1FBA92BD81BD03
:1041D00020BD0FB6F894FA9AF99A0FBE0196089589
:1041E000052E97FB1EF400940E94072157FD07D06F
:1041F0000E94222107FC03D04EF40C940721509515
:104200004095309521953F4F4F4F5F4F08959095C2
:104210008095709561957F4F8F4F9F4F08950E94B5
:104220004421A59F900DB49F900DA49F800D911DDA
:1042300011240895B7FF0C940F210E940F21821BB7
:10424000930B0895A1E21A2EAA1BBB1BFD010DC002
:10425000AA1FBB1FEE1FFF1FA217B307E407F50736
:1042600020F0A21BB30BE40BF50B661F771F881F12
:10427000991F1A9469F760957095809590959B01A8
:10428000AC01BD01CF010895A29FB001B39FC00151
:10429000A39F700D811D1124911DB29F700D811D72
:1042A0001124911D08955058BB27AA270E946B2105
:1042B0000C948A220E947C2238F00E94832220F0F3
:1042C00039F49F3F19F426F40C9479220EF4E0950A
:1042D000E7FB0C944A22E92F0E949B2258F3BA175D
:1042E000620773078407950720F079F4A6F50C940C
:1042F000D5220EF4E0950B2EBA2FA02D0B01B9019B
:1043000090010C01CA01A0011124FF27591B99F04B
:10431000593F50F4503E68F11A16F040A22F232F57
:10432000342F4427585FF3CF469537952795A795A7
:10433000F0405395C9F77EF41F16BA0B620B730B4E
:10434000840BBAF09150A1F0FF0FBB1F661F771FBF
:10435000881FC2F70EC0BA0F621F731F841F48F474
:10436000879577956795B795F7959E3F08F0B0CFFD
:104370009395880F08F09927EE0F979587950895E4
:104380000E94C7216894B1110C94D62208950E940E
:10439000A32288F09F5798F0B92F9927B751B0F012
:1043A000E1F0660F771F881F991F1AF0BA95C9F7B9
:1043B00014C0B13091F00E94D522B1E008950C9460
:1043C000D522672F782F8827B85F39F0B93FCCF313
:1043D000869577956795B395D9F73EF49095809536
:1043E000709561957F4F8F4F9F4F0895E89409C056
:1043F00097FB3EF490958095709561957F4F8F4F18
:104400009F4F9923A9F0F92F96E9BB279395F6952D
:10441000879577956795B795F111F8CFFAF4BB0FAB
:1044200011F460FF1BC06F5F7F4F8F4F9F4F16C00F
:10443000882311F096E911C0772321F09EE8872F99
:10444000762F05C0662371F096E8862F70E060E055
:104450002AF09A95660F771F881FDAF7880F9695CE
:10446000879597F908950E94BD2290F09F3748F4F0
:10447000911116F00C94D62260E070E080E89FEB7A
:10448000089526F41B16611D711D811D0C94502288
:104490000C946B2297F99F6780E870E060E00895C4
:1044A000882371F4772321F09850872B762F07C04B
:1044B000662311F499270DC09051862B70E060E0BF
:1044C0002AF09A95660F771F881FDAF7880F96955E
:1044D000879597F908959F3F31F0915020F4879583
:1044E00077956795B795880F911D9695879597F95C
:1044F00008959FEF80EC089500240A94161617067D
:1045000018060906089500240A94121613061406C4
:1045100005060895092E0394000C11F4882352F027
:10452000BB0F40F4BF2B11F460FF04C06F5F7F4FDF
:104530008F4F9F4F089557FD9058440F551F59F0C6
:104540005F3F71F04795880F97FB991F61F09F3F80
:1045500079F087950895121613061406551FF2CFA9
:104560004695F1DF08C0161617061806991FF1CFF9
:10457000869571056105089408950E94A322A0F014
:10458000BEE7B91788F4BB279F3860F41616B11D33
:10459000672F782F8827985FF7CF8695779567954F
:1045A000B11D93959639C8F30895E894BB27662703
:1045B0007727CB0197F908950E94EC2229ED3BE57E
:1045C0004EED5EE30C94342316F00C946B220C94A5
:1045D000792268940C944A220E94A322A8F399237A
:1045E000C1F3AEF3DF93CF931F930F93FF92C92FC5
:1045F000DD2788232AF02197660F771F881FDAF7B7
:1046000020E030E040E85FEB9FE3883920F0803E17
:1046100038F021968F770E945421ECEAF0E004C034
:104620000E945421E9EDF0E00E94A1238B01BE011C
:10463000EC01FB2E6F5771097595771F880B990B4D
:104640000E94F82128E132E741E35FE30E9447231B
:10465000AF2D9801AE01FF900F911F91CF91DF9187
:104660000E946B210C948A220E9447230C948A2278
:104670000E947C2238F00E94832220F0952311F0C2
:104680000C944A220C94792211240C94D6220E9474
:104690009B2270F3959FC1F3950F50E0551F629FC9
:1046A000F001729FBB27F00DB11D639FAA27F00D8B
:1046B000B11DAA1F649F6627B00DA11D661F829FB2
:1046C0002227B00DA11D621F739FB00DA11D621F97
:1046D000839FA00D611D221F749F3327A00D611DB4
:1046E000231F849F600D211D822F762F6A2F112496
:1046F0009F5750409AF0F1F088234AF0EE0FFF1FC9
:10470000BB1F661F771F881F91505040A9F79E3F1F
:10471000510580F00C944A220C94D6225F3FE4F3BA
:10472000983ED4F3869577956795B795F795E79575
:104730009F5FC1F7FE2B880F911D9695879597F97E
:104740000895DF93CF931F930F93FF92EF92DF9221
:104750007B018C01689406C0DA2EEF010E9447238A
:10476000FE01E894A5912591359145915591A6F3C7
:10477000EF010E946B21FE019701A801DA9469F70D
:10478000DF90EF90FF900F911F91CF91DF910895EF
:10479000991B79E004C0991F961708F0961B881F93
:1047A0007A95C9F78095089597FB072E16F4009423
:1047B00007D077FD09D00E94EE2307FC05D03EF418
:1047C000909581959F4F0895709561957F4F0895BD
:1047D000EE0FFF1F0590F491E02D0994AA1BBB1B5F
:1047E00051E107C0AA1FBB1FA617B70710F0A61BF1
:1047F000B70B881F991F5A95A9F780959095BC0112
:10480000CD010895DC0101C06D9341505040E0F7A7
:064810000895F894FFCFAB
:10481600012A0C1C0500FFFFFFFF00E1000000005D
:1048260000000000830480000100000000C18081B8
:1048360000000000000000F805DC0819060E065FFF
:10484600061D063B0600000000D00A3E073C0C3B56
:104856000C0D0A0047616D65204F76657200486948
:1048660067682073636F7265000F0053636F72652C
:10487600004C6576656C00636C656172656400501A
:0C4886007265737320150003002500000C
:00000001FF
