:100000000C9494100C94BC100C94BC100C94BC1068
:100010000C94BC100C94BC100C94BC100C94BC1030
:100020000C94BC100C94BC100C94591F0C94C81F59
:100030000C94BC100C94BC100C94BC100C94BC1010
:100040000C94BC100C9444220C94BC100C94BC1066
:100050000C94BC100C94BC100C94BC100C94FA21A1
:100060000C94BC100C94BC100C94BC100C94BC10E0
:100070000C94BC100C94BC100C94BC100C94BC10D0
:100080000C94BC100C94BC100C94BC100C94BC10C0
:100090000C94BC100C94BC100C94BC100C94BC10B0
:1000A0000C94BC100C94BC100C94BC1002140C01E9
:1000B0000101010101010101010101010101010130
:1000C0000101010101010101010101010101010120
:1000D0000101010101010101010101010101010110
:1000E0000101010101010101010101010101010100
:1000F00001010101010101010101010101010101F0
:1001000001010101010101010101010101010101DF
:1001100001010101010101010101010101010101CF
:1001200001010101010101010101010101010101BF
:1001300001010101010101010101010101010101AF
:10014000010101010101010101010101010101019F
:10015000010101010101010101010101010101018F
:10016000010101010101010101010101010101017F
:100170000101010101010102020000000000000074
:10018000000000000000000000000002020000006B
:10019000000000000000000000000000000000045B
:1001A00040FE0101370101FE0107010737FE010D85
:1001B000370D01FE0113011337FE0119371901FE36
:1001C000011F011F37FE0125372501FE012B012BE1
:1001D00037FE0131373101FE0137013737FE013D6E
:1001E000373D01FE0143014337FE0149374901FE16
:1001F000014F014F37FE0155375501FE015B015B91
:1002000037FE0161376101FE0167016737FE016D4D
:10021000376D01FE0173017337FE03013701076D6E
:10022000076D37FE03013101016D016D31FE0307DA
:1002300031070173017331FE030737070773077333
:1002400037FE030434040470047034FE036D076D3C
:100250003701370107FE036D016D3101310101FEE8
:10026000037301733107310701FE03730773370707
:10027000370707FE037004703404340404FE030DD2
:100280002B0D136113612BFE030D250D0D610D6107
:1002900025FE031325130D670D6725FE03132B138E
:1002A000136713672BFE031028101064106428FED8
:1002B000036113612B0D2B0D13FE03610D61250DE1
:1002C000250D0DFE03670D67251325130DFE03672E
:1002D00013672B132B1313FE0364106428102810CC
:1002E00010FE03191F551FFE0319195519FE031F90
:1002F000195B19FE031F1F5B1FFE031C1C581CFD0E
:100300000404FD7004FD7034FF03140A03030300AA
:1003100000000000000000000000000000020202D7
:1003200003030300000000000000000000000000C4
:1003300000020202000001000000000000000000B6
:1003400000000000000100000000010101010101A6
:100350000101010101010101010100000000010191
:10036000010101010101010101010101010100007F
:10037000000001010101010101010101010101016F
:100380000101000000000101010101010101010161
:100390000101010101010000000001010101010151
:1003A0000101010101010101010100000000010141
:1003B000010101010101010101010101010100002F
:1003C000000001010101010101010101010101011F
:1003D000010100006D04FE030D370D13FE0313131E
:1003E0001337FE0319371913FE031F131F37FE03BC
:1003F00025372513FE032B132B37FE03313731131B
:10040000FE0337133737FE033D373D13FE03431317
:100410004337FE0349374913FE034F134F37FE039B
:1004200055375513FE035B135B37FE0361376113CA
:10043000FE0367136737FE0367130D13FE030D19E1
:100440006719FE03671F0D1FFE030D256725FE03B9
:10045000672B0D2BFE030D316731FE0367370D3718
:10046000FD0D37FD6737FF04120C04040101010183
:100470000101010101010101010101000404010167
:10048000010101010101010101010101010000005F
:10049000010101010101010101010101010101004D
:1004A000000001010101010101010101010101013E
:1004B000010100000101010101010101010101012E
:1004C0000101010100000000000000000000000028
:1004D0000000000003030000000000000000000016
:1004E0000000000000000303000001010101010100
:1004F00001010101010101010101000001010101EE
:1005000001010101010101010101010100000101DD
:1005100001010101010101010101010101000202CA
:1005200001010101010101010101010101010100BC
:1005300002020101010101010101010101010101A9
:1005400001000440FE020D010D19FE0213191301F2
:10055000FE0219011919FE021F191F01FE022501D1
:100560002519FE022B192B01FE0231013119FE0261
:1005700037193701FE023D013D19FE0243194301BF
:10058000FE0249014919FE024F194F01FE025501B1
:100590005519FE025B195B01FE0261016119FE0241
:1005A0000D430D2BFE02132B1343FE021943192B8F
:1005B000FE021F2B1F43FE022543252BFE022B2B81
:1005C0002B43FE023143312BFE02372B3743FE0211
:1005D0003D433D2BFE02432B4343FE024943492B3F
:1005E000FE024F2B4F43FE025543552BFE025B2B61
:1005F0005B43FE026143612BFE0225310D31FE0299
:1006000025370D37FE02253D0D3DFE0225430D43E6
:10061000FE02432B2B2BFE0243312B31FE024337CC
:100620002B37FE02433D2B3DFE0261314931FE0274
:1006300061374937FE02613D493DFE02614349434E
:10064000FE020D012501FE020D072507FE020D0D1C
:10065000250DFE020D192519FE022B014301FE0294
:100660002B0D430DFE022B134313FE022B194319CE
:10067000FE0249016101FE0249076107FE02490DC0
:10068000610DFE0249196119FF04140A00000101FD
:10069000010101010101010101010101010100004C
:1006A000000001010101010101010101010101013C
:1006B0000101000004040101010101010101010126
:1006C0000101010101010000040401010101010116
:1006D000010101010101010101010000000001010E
:1006E00001010101010101010101010101010303F6
:1006F00000000101010101010101010101010101EC
:1007000001010303020201010101010101010101D3
:1007100001010101010100000202010101010101C9
:1007200001010101010101010101000000000101BD
:1007300001010101010101010101010101010000AB
:10074000000001010101010101010101010101019B
:10075000010100000428FE010D0D0D01FE010D1325
:100760000D07FE010D190D0DFE010D2B0D1FFE01D4
:100770000D310D25FE010D370D2BFE02132B13013C
:10078000FE0213311307FE021337130DFE02191375
:100790001901FE0219251913FE0219371925FE0148
:1007A0001F011F0DFE011F071F13FE011F0D1F1943
:1007B000FE011F1F1F2BFE011F251F31FE011F2BD6
:1007C0001F37FE012501250DFE0125072513FE011A
:1007D000250D2519FE01251F252BFE012525253177
:1007E000FE01252B2537FE022B2B2B01FE022B3180
:1007F0002B07FE022B372B0DFE023101312BFE029F
:1008000031073131FE02310D3137FE023701371326
:10081000FE0237133725FE0237253737FE023D1318
:100820003D01FE023D253D13FE023D373D25FE0103
:100830004301430DFE0143074313FE01430D4319DA
:10084000FE01431F432BFE0143254331FE01432B91
:100850004337FE02492B4901FE0249314907FE0296
:100860004937490DFE014F014F0DFE014F074F1350
:10087000FE014F0D4F19FE014F1F4F2BFE014F255B
:100880004F31FE014F2B4F37FE0255015513FE022B
:1008900055135525FE0255255537FE025B015B2B8E
:1008A000FE025B075B31FE025B0D5B37FE02612BD4
:1008B0006101FE0261316107FE026137610DFE01D7
:1008C0006701670DFE0167076713FE01670D671972
:1008D000FE01671F672BFE0167256731FE01672B4D
:1008E0006737FD701CFF02140A00000101000000C0
:1008F00000000000000000000001010000000001F5
:1009000001010000000000000000000001010100E2
:1009100000000000010101000000000000000001D3
:1009200001010000000000000001010100000000C2
:1009300000000101010000000000000000000101B2
:1009400001000000000101010000000000000000A3
:100950000000000101010000010101000000000091
:10096000000000000000000001010202010100007F
:10097000000000000001010101010101010102026A
:100980000101010101010101010101010101010157
:100990000102020202010101010101010101010143
:1009A0000101010101020202020101010101010133
:1009B000013A2EFE02312C311EFE022B182B26FE90
:1009C0000225202512FE021F0C1F1AFE02191419FF
:1009D00006FE02431E432CFE0249264918FE024F22
:1009E000124F20FE02551A550CFE025B065B14FEE8
:1009F00002012B0137FE020737072BFE020D2B0DDC
:100A000037FE021337132BFE02192B1937FE021F74
:100A1000371F2BFE02252B2537FE022B372B2BFEF3
:100A2000024937492BFE024F2B4F37FE02553755EF
:100A30002BFE025B2B5B37FE026137612BFE0267E8
:100A40002B6737FE026D376D2BFE02732B7337FD5C
:100A50001004FD6404FD0131FD7331FF03140A002D
:100A60000000000000010100000000000000000084
:100A7000000303000000000000010100000000006E
:100A80000000000000030301010101010101010157
:100A90000101010101010101010101010101010146
:100AA0000101010101010101010101010101010136
:100AB0000101010101010101010101010101010126
:100AC0000101010101010101010101010101010116
:100AD0000101010101010101010101010101010106
:100AE00001010101010101010101010101010101F6
:100AF00001010101010101010101010101010102E5
:100B000002000000000000000000000101000000E1
:100B100000000002020000000000000000000001D0
:100B2000010000000000000434FE03012B010DFE53
:100B300003070D072BFE030D2B0D0DFE03130D13E5
:100B40002BFE03192B190DFE031F0D1F2BFE032572
:100B50002B250DFE032B0D2B2BFE03312B310DFE10
:100B600003370D372BFE033D2B3D0DFE03430D4395
:100B70002BFE03492B490DFE034F0D4F2BFE035552
:100B80002B550DFE035B0D5B2BFE03612B610DFEF0
:100B900003670D672BFE036D2B6D0DFE03730D7345
:100BA0002BFE03730D010DFE0301137313FE03737C
:100BB000190119FE03011F731FFE0373250125FE92
:100BC00003012B732BFF03120A0101010101010133
:100BD0000100000101010101010202010101010105
:100BE00001010100000101010101010202010100F6
:100BF00000000001010000010100000000000001F0
:100C000001000000000101000001010000000000DF
:100C100000010100000000010100000101010101CB
:100C200001000001010000000001010000010101BC
:100C300001010100000101000000000101000000AD
:100C4000000000010100000101000000000101009E
:100C50000000000000010100000101030300000189
:100C60000101010101010101010000010103030073
:100C7000000101010101010101010100006404FE04
:100C8000025C083C083C005C00FE023C005C005C2E
:100C9000083C08FE0244143C143C0C440CFE023C8C
:100CA0000C440C44143C14FE025C203C203C185CB8
:100CB00018FE023C185C185C203C20FE025C2C54A0
:100CC0002C54245C24FE0254245C245C2C542CFE02
:100CD000025C383C383C305C30FE023C305C305CBE
:100CE000383C38FE023838303830303830FE023088
:100CF00030383038383038FE022C38243824182C5C
:100D000018FE0224182C182C382438FE022C142427
:100D100014240C2C0CFE02240C2C0C2C142414FE79
:100D2000022C080C080C002C00FE020C002C002CDD
:100D3000080C08FE020808000800000800FE020077
:100D400000080008080008FE02082C080C000C002F
:100D50002CFE02000C002C082C080CFE020838089F
:100D60003000300038FE020030003808380830FF0C
:100D70000312080202010101010101010101010147
:100D80000101010000020201010101010101010153
:100D90000101010101000000000101010101010147
:100DA0000101010101010100000000010101010137
:100DB0000101010101010101010000000001010127
:100DC0000101010101010101010101000000000117
:100DD0000101010101010101010101010100000006
:100DE00000010101010101010101010101010103F2
:100DF00003000001010101010101010101010101E3
:100E00000103030404FE040D010D2BFE0213011364
:100E10002BFE011901192BFE041F011F2BFE0225B9
:100E200001252BFE012B012B2BFE043101312BFE62
:100E3000023701372BFE013D013D2BFE04430143E8
:100E40002BFE024901492BFE014F014F2BFE045599
:100E500001552BFE025B015B2BFD0D2BFD3416FDB6
:100E60005B01FF03140803030301010001010101F9
:100E70000000010101010000010003030300010063
:100E8000010001010000010001010000010000005B
:100E90000000010001000001010101000001010149
:100EA0000100000000000100010101010001010139
:100EB000010100010100000000000100010001012A
:100EC000000001000101000001000000000001011C
:100ED0000100000101010100000101010100000009
:100EE0000000000000000000000000000000000101
:100EF00002020000000000000000000000000000EE
:100F00000000000002027028FE022501251FFE02DB
:100F10003701371FFE024901491FFE025B015B1FBB
:100F2000FE026D016D1FFE0237012501FE0237131F
:100F30002513FE02490D370DFE02491F371FFE0221
:100F40005B014901FE025B134913FE026D0D5B0D4F
:100F5000FE026D1F5B1FFD3107FD3119FD4313FDBF
:100F60005507FD5519FD6713FD6D07FF03100600BA
:100F70000001010101010101010101010100000263
:100F8000020101010101010101010101010303024B
:100F9000020101010101010101010101010303023B
:100FA000020101010101010101010101010303022B
:100FB000020101010101010101010101010303001D
:100FC0000001010101010101010101010100000411
:100FD00010FE020D012B1F49014F07371F19010D8C
:100FE0000D1F1F3D014F13431F25010D19131F3105
:100FF000014F1F3101131F0D192501431F4F133DD1
:10100000011F1F0D0D1901371F4F0749012B1FFE2F
:10101000024F1F3101131F0D192501431F4F133DAF
:10102000011F1F0D0D1901371F4F0749012B1F0D00
:10103000012B1F49014F07371F19010D0D1F1F3DC0
:10104000014F13431F25010D19131F3101FE020D1E
:101050001F2B01491F4F193701191F0D131F013D88
:101060001F4F0D4301251F0D071301311F4F013184
:101070001F13010D07251F43014F0D3D1F1F010DBC
:1010800013191F37014F19491F2B01FE024F013160
:101090001F13010D07251F43014F0D3D1F1F010D9C
:1010A00013191F37014F19491F2B010D1F2B014920
:1010B0001F4F193701191F0D131F013D1F4F0D43FE
:1010C00001251F0D071301311FFE030D010D1FFE2A
:1010D00003131F1301FE031901191FFE031F1F1F16
:1010E00001FE032501251FFE032B1F2B01FE0331EB
:1010F00001311FFE03371F3701FE033D013D1FFE77
:1011000003431F4301FE034901491FFE034F1F4FC5
:1011100001FF030E040000010101010101010101B1
:1011200001000002020101010101010101010103AD
:101130000302020101010101010101010103030098
:1011400000010101010101010101010000040AFE89
:10115000020D010D13FE0213131301FE02190119F2
:1011600013FE021F131F01FE0225012513FE022B91
:10117000132B01FE0231013113FE0237133701FE3A
:10118000023D013D13FE0243134301FD0D01FD131A
:1011900001FD1901FD1F01FD2501FD2B01FD31019F
:1011A000FD3701FD3D01FD4301FD0D07FD1307FD69
:1011B0001907FD1F07FD2507FD2B07FD3107FD372B
:1011C00007FD3D07FD4307FD0D0DFD130DFD190D39
:1011D000FD1F0DFD250DFD2B0DFD310DFD370DFD09
:1011E0003D0DFD430DFD0D13FD1313FD1913FD1FE3
:1011F00013FD2513FD2B13FD3113FD3713FD3D1397
:10120000FD4313FD1004FD1604FD1C04FD2204FD26
:101210002804FD2E04FD3404FD3A04FD4004FD10B5
:101220000AFD160AFD1C0AFD220AFD280AFD2E0AE7
:10123000FD340AFD3A0AFD400AFD1010FD1610FDAE
:101240001C10FD2210FD2810FD2E10FD3410FD3A5B
:1012500010FD4010FF03100C000001000000000012
:10126000000000000000000000020100000000007B
:101270000000000000000000000001010101010168
:101280000101010101010101000001000000010054
:101290000000000000010000000001000101010148
:1012A0000101010101010000000001000000010036
:1012B000000000000001000000000100000001002B
:1012C0000000000000010000000001000101010118
:1012D0000101010301010000000001000000010004
:1012E00000000000000100000101010101010101F5
:1012F00001010101010100000000000000000100E7
:1013000000000000000100000000000000000100DB
:1013100000000000000100000707FE00130DFE00A2
:101320002513FE002531FE00253DFE00492BFE025F
:1013300019194F19FE02192B4F2BFE020D010D3703
:10134000FE024F434F0DFE0201374F37FE025B0D89
:101350000D0DFE02253A2543250DFF03140600005E
:10136000010101010000010101010101010101016F
:101370000000000001010101000001010101010163
:10138000010101010000020201010101000001014F
:101390000101000001010101030302020101010139
:1013A000000001010101000001010101030300002F
:1013B000010101010101010101010000010101011F
:1013C0000000000001010101010101010101000013
:1013D0000101010100000410FE010D0113011307BA
:1013E0000D07FE0119011F011F071907FE010D0D51
:1013F000130D13130D13FE01190D1F0D1F131913D8
:10140000FE010D191319131F0D1FFE0119191F19C4
:101410001F1F191FFE0125192B192B1F251FFE0148
:101420003101370137073107FE013D014301430711
:101430003D07FE01310D370D37133113FE013D0D10
:10144000430D43133D13FE0131193719371F311F67
:10145000FE013D194319431F3D1FFE0149014F0184
:101460004F074907FE0155015B015B075507FE0168
:101470006101670167076107FE01550D5B0D5B1395
:101480005513FE01610D670D67136113FE015519B8
:101490005B195B1F551FFE0161196719671F611FEB
:1014A000FD1F01FD3101FD431FFD551FFF03140A00
:1014B000020202000101010101010100010101011B
:1014C000010101010202020001010101010101000B
:1014D00001010101010101010100000001010101FF
:1014E00001010100010101010101010101010100EE
:1014F00001010100010101000101010000010101E0
:1015000001010100010101000101010001010100CF
:1015100000010101010101000101010001010100BF
:1015200001010100000101010101010001010100AF
:10153000010101000101010000010101010101019E
:101540000101010001010101010101000000000190
:10155000010101010101010001010101010101007D
:101560000003030301010101010101000101010167
:1015700001010100000303030704FE030137011307
:10158000FE0307130737FE030D370D13FE04133751
:10159000132BFE0319371901FE031F011F37FE032A
:1015A00025372501FE042B012B0DFE0331373101B8
:1015B000FE0337013737FE033D373D01FE04433755
:1015C000432BFE0349374901FE034F014F37FE030A
:1015D00055375501FE045B015B0DFE04610D610191
:1015E000FE0367016725FE036D256D01FE03730190
:1015F0007325FF030A0A0000000003030000000037
:1016000000000000030300000000010101010101CE
:1016100001010101010101010101010101010101BA
:1016200001010101010101010101010101010101AA
:10163000010101010101010101010101010101019A
:101640000101010101010000000002020000000090
:10165000000000000202000000001C34FE03010D27
:10166000012BFE03072B070DFE030D0D0D2BFE03B3
:10167000132B130DFE03190D192BFE031F2B1F0D2A
:10168000FE03250D252BFE032B2B2B0DFE03310D09
:10169000312BFE03372B370DFE0301193719FE03DB
:1016A000371F011FFF03090A0000020202000303A3
:1016B0000300000202020003030300000100000017
:1016C0000100000000010100010100000000010113
:1016D0000001010000000001010001010000010102
:1016E00001010001010101010100000000000101F0
:1016F00001010101010101010100000101010101DC
:1017000000001304FE010D131413FE0114190D192A
:10171000FE010D1F141FFE0114250D25FE010725D6
:101720000025FE01002B072BFE0107310031FE01D1
:101730000D310D38FE0113381331FE0119311938FE
:10174000FE011F381F31FE0125312538FE012B31E6
:101750003231FE01322B2B2BFE012B253225FE01CF
:101760001E252525FE01251F1E1FFE011E192519F8
:10177000FE0125131E13FF04120A020200000101DC
:10178000010101010000010101010101020200004B
:10179000010101010101000001010101010101013B
:1017A000010101010000010100000101000001012F
:1017B000010101010101000001010000010100001F
:1017C0000101010100000000000001010000010111
:1017D00000000404010100000000000001010000FD
:1017E00001010000040401010000010101010303E3
:1017F00001010101000000000101000001010101DF
:1018000003030101010100000000010101010101C8
:1018100000000000000001010101010101010101BE
:1018200001010000000000000101010101010404A8
:101830003428FE02010D070D07130113FE00071CDB
:10184000FE000128FE020737013701310731FE0093
:10185000100DFE001031FE001904FE021F131913B3
:10186000190D1F0DFE001928FE021F3719371931F7
:101870001F31FE002807FE002225FE002B2BFE0252
:101880003707310731013701FE003110FE02311FE9
:10189000371F3710371FFE0249014F014F07490715
:1018A000FE004F10FE00491CFE0249254F254F2B1C
:1018B000492BFE004934FE005807FE024F315E31CD
:1018C0005E375E31FE026707610761016701FE0056
:1018D0006110FD6434FF030C0A01010101000001E5
:1018E00001010100000102000101010100000100ED
:1018F00000010000010000010000010000010101E1
:1019000001000001010101000001000001000001CF
:1019100000000103030100000100000100000103B9
:1019200003010101010000010101010000010000AB
:10193000010000010000010000010000010101019F
:10194000000001000001010101000001010101008E
:10195000000707FE021301131301130101FE021316
:1019600013132501250113FE021325133701370137
:1019700025FE022501251337133701FE0225132505
:101980002537253713FE022525253737373725FE1E
:10199000021307250725311331FD0137FD3701FDFE
:1019A0003737FF03120800000001010101010101A6
:1019B000010101010100000000000001010101011D
:1019C000010101010101010000000000000101010D
:1019D00001010101010101010100000002020201F7
:1019E00001010101010101010101010303030202DF
:1019F00002010101010101010101010101030303D0
:101A000000000001010101010101010101010100CA
:101A100000000000000101010101010101010101BB
:101A200001000000000000010101010101010101AC
:101A30000101010000000716FE051301132BFE052E
:101A40001F011F2BFE052B012B2BFE053701372B0A
:101A5000FE054301432BFE054F014F2BFE05192BBD
:101A60001901FE05252B2501FE05312B3101FE054F
:101A70003D2B3D01FE05492B4901FE05552B550126
:101A8000FD1301FD5501FD132BFD552BFF02040530
:101A90000100000001010101010202010102020135
:101AA000010101010A10FE020107130713190119B0
:101AB000FE0207071307131901190107FE020B079E
:101AC0001307131901190107FE02130D1319011948
:101AD00001071307FE021313131901190107130756
:101AE000FE021319011901071307FE020D1901194E
:101AF000010713071319FE0207190119010713073C
:101B00001319FE020119010713071319FE0201132D
:101B10000107130713190119FE02010D010713072D
:101B200013190119FD0101FF031206000000010154
:101B3000010101010101010101010000000000009B
:101B40000101010101010101010101010000000287
:101B5000020201010101010101010101010103036F
:101B60000302020201010101010101010101010160
:101B70000303030000000101010101010101010152
:101B8000010100000000000001010101010101014B
:101B9000010101010000000710FE021301131FFEE6
:101BA000021F011F1FFE022B012B1FFE02370137F0
:101BB0001FFE024301431FFE024F014F1FFE021989
:101BC0001F1901FE02251F2501FE02311F3101FEF2
:101BD000023D1F3D01FE02491F4901FE02551F55EE
:101BE00001FD3410FF031206020202000000000093
:101BF00000000000000101030303020202000101D2
:101C000001010101010101010003030302020200BD
:101C100001010101010101010101000303030202AD
:101C2000020001010101010101010101000303039F
:101C30000202020001010101010101010101000391
:101C40000303020202010100000000000000000086
:101C5000000303030710FE024F071907FE02190DC8
:101C60004F0DFE024F131913FE0219194F19FF01F0
:101C700001FF030101F70317534400161378001600
:101C80001314001510200015201000540A03E181E0
:101C9000867F3E186D830F0F0E0183866033186DAB
:101CA000C3198F1803C38E6033186DE330CF180348
:101CB000C39E603630CDE360CF3006C79E7E3E3097
:101CC000CDB360CF300CC6F6603330D9B660CF33B9
:101CD000CFCCF66061B0DB1E60CF30D86CE6C0615F
:101CE000B0DB1E618F19986CC6C063B19B0E330FB9
:101CF0000FB078C6FF7E1F1B061E0F00402400F0A9
:101D00000000040007FC012800200A001F808A351B
:101D10009328050038FFAAFD52903200EFFEABD5A4
:101D200092886801FFE0DA655B309407F98001284A
:101D30000000601FE200FFFFFFE3103F8400AD8959
:101D40009A22C07E1800A8AAB762A0F830008A9A2A
:101D50009B4901F07000A8AABB5081E0F800AAA935
:101D6000975601C38C00FFFFFDD2038706000000D9
:101D7000000E0386070000000000078F0C8000079C
:101D8000FFFF1BFF9A40000B83806663F520000E67
:101D9000A3FCCC88EA10000C8211D99C658C000F42
:101DA00093FDF10C1B4200082A30F37C04B1000AB9
:101DB0001316E60C0368000E02CF6C5C0094000A58
:101DC0000638195C006B000C074E42AC0016000888
:101DD000C6A59AAC00090008C2A5500C0006000B6D
:101DE0000210106C0001000B31FFE06C00000004D9
:101DF0003000018C00000004C600719C000000024D
:101E0000C955703800000001870021F00000000073
:101E1000FFFFFFE0000000003FFFFF000000080799
:101E20008244281028448208070204884850302041
:101E3000731C6F1C00000000240027002A002D00E6
:101E40003000D5F08D14A1C881CFD9F1AF200000AA
:101E5000000000250028002B002E00310003053F64
:101E6000213F1208120A100A0E1C0E0C1E0C141A26
:101E700014161F161E131E1E1B1E1E1F1E3F213F63
:101E80003A2F3A173D173F213F181F02040A041F3B
:101E90000E04040E1F0A1F0A0E0E1F04110E2E251B
:101EA0002E2F2A2E262929021F02081F08150E048C
:101EB000040E150E15151B151B040604040C040056
:101EC00000000017000300031F0A1F16371A190429
:101ED000130A153A000300000E11110E000A040A3D
:101EE000040E040030000404040010001804031F52
:101EF000111F121F101D151711151F07041F17158D
:101F00001D1F151D01011F1F151F17151F000A009A
:101F1000003200040A110A0A0A110A040115020E0D
:101F200011171E051E1F150A0E110A1F110E1F156F
:101F3000111F05010E111D1F041F111F1108100F85
:101F40001F041B1F10101F061F1E040F0E110E1F53
:101F500009060E112E1F051A121509011F011F1067
:101F60001F0F180F1F0C1F1B041B031C0319151335
:101F7000001F11030418111F00020102202020007D
:101F800001020C121E1F120C0C12120C121F0C1A42
:101F900014041E05242A1E1F021C141D1020201DBF
:101FA0001F0814111F101E041E1E021C0C120C3ED2
:101FB0000A040C123E1E040214160A020F120E101E
:101FC0001E0E100E1E081E120C1226281E322A2665
:101FD000041E21001F00211E040102013F213F05B4
:101FE000008930080238024978681400000500387A
:101FF0000168010000050068013801000045006823
:102000000100000606AA55AA55AA55080B000202AF
:102010000200000904000001020200000524001073
:10202000010524010101042402060524060001071C
:1020300005810310004009040100020A00000007A6
:102040000502024000000705830240000004030966
:102050000412010002EF0201404123368000010119
:1020600002030141726475696E6F204C4C4300415C
:10207000726475696E6F204C656F6E6172646F007B
:10208000F6E8DBCFC3B8AEA49B928A827B746E68FD
:10209000625C57524E4945413E3A3734312E2C2925
:1020A000272523211F1D1C1A191716151413121189
:1020B000100F0E0D0C0B0A09080706000000002384
:1020C00000260029002C002F00040404040403044B
:1020D00005020202020403020202020606060606C6
:1020E00006040402020204040408020110408040B5
:1020F000102040804080080204018040201002012E
:10210000108010204040200000000200090F000055
:10211000030401000C0000000000000000000000AB
:10212000000000000000882211241FBECFEFDAE07B
:10213000DEBFCDBF11E0A0E0B1E0EEEAF3E502C002
:1021400005900D92A638B107D9F725E0A6E8B1E0D1
:1021500001C01D92AC36B207E1F710E1C4E9D0E14D
:1021600004C02197FE010E94B429C339D107C9F7E1
:102170000E94A7220C94D5290C940000CF93DF93E2
:10218000EBE4F5E0C081D1818881AFE4B5E09C91BA
:10219000892B8883C0914D05D0914E0598818091FF
:1021A00050058095892388830190F081E02D9081EE
:1021B0008C91809589238083DF91CF91089590E061
:1021C000880F991FE0912005F0912105E80FF91F74
:1021D000259134913093310520933005F901859193
:1021E000949190911505989F802D1124809332052C
:1021F000F90165917491472F50E08417150629F075
:1022000020F0F90125913491832F989F802D11247E
:10221000809333050895FC0180919A02882311F17F
:102220003FB7F89482E08093E9002091F200822F7A
:1022300090E01816190614F481E090E0882339F034
:10224000289844E6409399024091F100408322236C
:1022500039F02091F200211103C02BE62093E80011
:102260003FBF08958FEF9FEF08952FB7F89483E055
:102270008093E9009091E800892F807295FF04C057
:102280009091F20080E4891B2FBF08958091910204
:1022900081110DC082E080938D0284E080938E02D4
:1022A0001092900210928F0281E0809391028DE84B
:1022B00092E00895CF93DF931F92CDB7DEB7698385
:1022C000DC01ED91FC910280F381E02D41E050E0D2
:1022D000BE016F5F7F4F09950F90DF91CF910895F9
:1022E00083E08093E9008091F200882319F08AE36B
:1022F0008093E80008950E94351190E00895CF93EF
:10230000DF931F92CDB7DEB7FC018485958597FDDD
:1023100008C02FEF3FEF358724870F90DF91CF91D3
:102320000895CE0101960E940B11019719F489813D
:1023300090E0F3CF8FEF9FEFF0CF0F931F93CF93EA
:10234000DF931F92CDB7DEB78C01FC0184859585A4
:1023500097FF0BC0CE0101960E940B11019771F4FB
:10236000898190E0F80195878487F80184859585B7
:102370000F90DF91CF911F910F9108958FEF9FEFF5
:10238000F1CFFC018485958597FD0BC09FB7F8942C
:1023900082E08093E9008091F2009FBF90E0019677
:1023A00008959FB7F89482E08093E9008091F2004D
:1023B0009FBF90E00895409187025091880220913C
:1023C00085023091860242175307B4F49091E800D9
:1023D0009570E1F39091E80092FD19C08093F100AF
:1023E000809187029091880201968F739927892B9B
:1023F00019F48EEF8093E800809187029091880213
:102400000196909388028093870281E0089580E08E
:102410000895EF92FF920F931F93CF93DF93F82EBF
:10242000192FE62E042F81E0860F880F0E94DB1102
:1024300083E00E94DB11CF2DD12FEC0EFD2EF11C7D
:10244000CE15DF05B9F007FF13C0FE0184910E948D
:10245000DB11182F80E00E94DB118123219681116E
:10246000EFCFDF91CF911F910F91FF90EF900895E3
:102470008881EDCF81E0F5CFDF92EF92FF920F934D
:102480001F93CF93DF93D82E8A01EB017B01E40EDB
:10249000F51ECE15DF0559F0D7FE12C0FE0184915E
:1024A0000E94DB1121968111F4CF0FEF1FEFC801BD
:1024B000DF91CF911F910F91FF90EF90DF900895E2
:1024C0008881EECF0F931F93CF93DF931F92CDB7E9
:1024D000DEB782E0898342E450E06BE070E280E89E
:1024E0000E943C120E944611DC0112960D911C9133
:1024F0000115110589F0D801ED91FC910280F3815D
:10250000E02DBE016F5F7F4FC801099597FD04C0A4
:10251000F80100851185ECCF89810F90DF91CF9173
:102520001F910F910895615030F02091F100FC014E
:1025300020830196F8CF289884E680939902089525
:10254000AF92BF92CF92DF92EF92FF920F931F93C1
:10255000CF93DF936C017B018B01040F151FEB01FF
:102560005E01AE18BF08C017D10759F06991D601B6
:10257000ED91FC910190F081E02DC6010995892B28
:1025800079F7C501DF91CF911F910F91FF90EF90E7
:10259000DF90CF90BF90AF90089581508F3008F0BA
:1025A00047C0E82FF0E0E952FD4E0C94B429F41234
:1025B000F812E612EC12F012181318131813FB128B
:1025C0000113051309130F131813131380918000BF
:1025D0008F77809380000895809180008F7DF9CF60
:1025E00080918000877FF5CF84B58F7784BD089573
:1025F00084B58F7DFBCF809190008F778093900082
:102600000895809190008F7DF9CF80919000877F11
:10261000F5CF8091C0008F778093C000089580919E
:10262000C0008F7DF9CF8091C200877F8093C20068
:1026300008951F93CF93DF93282F30E0F901E95FCE
:10264000FE4D8491F901E851FF4DD491F901E75312
:10265000FF4DC491CC23A9F0162F81110E94CD12F9
:10266000EC2FF0E0EE0FFF1FE15BF14EA591B4916E
:102670008FB7F894EC91111108C0D095DE23DC934C
:102680008FBFDF91CF911F910895DE2BF8CFCF93AD
:10269000DF9390E0FC01E851FF4D249187539F4D5B
:1026A000FC0184918823C9F090E0880F991FFC01F8
:1026B000EC5CF14EA591B491FC01E15BF14EC5914A
:1026C000D49161110DC09FB7F8948C91209582230D
:1026D0008C938881282328839FBFDF91CF91089511
:1026E000623051F49FB7F8943C91822F80958323F8
:1026F0008C93E8812E2BEFCF8FB7F894EC912E2B93
:102700002C938FBFEACFDF92EF92FF920F931F932C
:10271000CF93DF93CCEED4E002EF14E0EE24EA9402
:1027200062E08A850E9447132A8530E0F901E95F5B
:10273000FE4D8491F901E851FF4DF490F901E75302
:10274000FF4DD490DD2029F181110E94CD12ED2D95
:10275000F0E0EE0FFF1FE554FF4DA591B491EC9111
:102760008989FE22B1F081111CC021960C171D072A
:10277000B9F6809103059091FD0491509E3FB8F405
:102780009091FF0491509E3F90F48F5F80930305DA
:1027900014C089898F5F898B60E08A850E94471306
:1027A000E4CF8F3F11F4198AF7CFE98AF5CF882358
:1027B00021F08F3F51F410920305DF91CF911F91CB
:1027C0000F91FF90EF90DF9008958FEFDFCF3FB72D
:1027D000F89480918C0190918D01A0918E01B0911F
:1027E0008F0126B5A89B05C02F3F19F00196A11DAA
:1027F000B11D3FBFBA2FA92F982F8827BC01CD014B
:10280000620F711D811D911D42E0660F771F881FA9
:10281000991F4A95D1F708958F929F92AF92BF92D8
:10282000CF92DF92EF92FF924B015C010E94E7137F
:102830006B017C010E94E7136C197D098E099F09C9
:10284000683E734081059105A8F321E0821A910842
:10285000A108B10888EEC80E83E0D81EE11CF11C67
:1028600081149104A104B10429F7FF90EF90DF9047
:10287000CF90BF90AF909F908F9008958F929F922E
:10288000AF92BF92CF92DF92EF92FF920F931F937E
:10289000CF93DF936C017B018A0180911001882323
:1028A00009F45CC080919A02882309F457C0809192
:1028B0008C0280FF05C08091E00082608093E00080
:1028C000E801B12C8AEFA82E93E0892E2AE3922EFC
:1028D000209711F4BB20D9F10E94351181110AC053
:1028E000AA94AA20D9F161E070E080E090E00E9413
:1028F0000C14EECF8C171D0611F00CF08C2F9FB727
:10290000F8948092E9002091E80025FD02C09FBF65
:10291000DFCF282F30E0C21BD30BF701815020F00E
:1029200041914093F100FACFE20EF31EBB2021F05B
:102930009092E800B12CEBCF8091E80085FDE7CFC5
:102940009092E800BB24B394209709F3F3CF5D98ED
:1029500084E680938B02101611063CF081E090E033
:10296000F6019383828310E000E0C801DF91CF91EC
:102970001F910F91FF90EF90DF90CF90BF90AF909D
:102980009F908F900895FC01178A158A14A213A2B4
:10299000108E109293041092940410929704109247
:1029A00099001092980008950F931F93CF93DF938F
:1029B000EC018B010E94C3141E870D871B8A1A8AA3
:1029C00081E0898389E08E8B198E1B8E1D8EDF91AD
:1029D000CF911F910F910895E0911A058E2F90E0ED
:1029E000880F991FE0911805F0911905E80FF91F5C
:1029F000859194918F3F980719F4109211050895CD
:102A000090931D059927880F991FE0911B05F09160
:102A10001C05E80FF91F6591749181E195E00E9412
:102A2000D41480911A058F5F80931A0508952F9210
:102A30003F925F926F927F928F929F92AF92BF92DE
:102A4000CF92DF92EF92FF920F931F93CF93DF937A
:102A5000EC01F901E4903196849164350CF015C1D4
:102A600040330CF012C10E2C000CFF08062F062E6E
:102A7000000C110BF701E00FF11F1E161F060CF0E2
:102A800004C1A82FC42E042E000CDD085601A80E88
:102A9000B11C87FDBA941A141B040CF0F6C02E5F0B
:102AA0003F4F570197E0A90EB11CB7FE04C0570174
:102AB000BEE0AB0EB11CB3E0B594A794BA95E1F7B4
:102AC00047FF0AC0A42FA80FAC9CC001AD9C900D7D
:102AD0001124281B390B40E08A2F0A2E000C990B79
:102AE000840F911D47FD9A95C19714F0A0E3A41B94
:102AF000FF8467FD60E0E535F10514F0E4E5F0E002
:102B00009E2FCC85C427C62E062E000CDD08F601AC
:102B1000E01BF10B8F014F01F7E08F229924E0E8D1
:102B2000F0E002C0F595E7958A94E2F77E2F17FF53
:102B300002C0095F1F4FF3E015950795FA95E1F77D
:102B4000200F311F542F577081E001C0880F5A9514
:102B5000EAF7459545954595F601B4E54B02E00D3C
:102B6000F11D1124AF0145565D4FD0E02A2EAA0F6A
:102B70003308EE24E394BB24D21513040CF085C073
:102B8000F9015490F1E0FF121AC0962E8A01E72F46
:102B90006901991608F057C08E2E852021F0D801C2
:102BA0008C90882A8C92E69531F4BFEFCB1ADB0A21
:102BB000F6015490E0E893940F5F1F4FEACFF110B5
:102BC0001CC0782E7094962E8A01E72F6901991601
:102BD00008F039C08E2E852021F0D8018C908720F6
:102BE0008C92E69531F4BFEFCB1ADB0AF6015490D4
:102BF000E0E893940F5F1F4FEACFF3E0FF122CC081
:102C0000782E7094862E8A01972E69018916D0F449
:102C1000E92DE52141F0D801EC916C2E682460FE8D
:102C20000FC0E82BEC93969439F4BFEFCB1ADB0A74
:102C3000F6015490E0E89E2E83940F5F1F4FE6CF7D
:102C4000E721F0CFCE25880F19F44C5A5F4F81E071
:102C5000DF5F2A0D3B1D90CF962E8A01E72F690179
:102C6000991688F78E2E852021F0D8018C90882621
:102C70008C92E69531F4BFEFCB1ADB0AF601549043
:102C8000E0E893940F5F1F4FEBCFDF91CF911F913F
:102C90000F91FF90EF90DF90CF90BF90AF909F90FB
:102CA0008F907F906F905F903F902F900895DC0100
:102CB000643570F5403360F51F968C911F97E62FB1
:102CC000062E000CFF0B242F25952595259594E5C0
:102CD0002902E00DF11D1124E556FD4F2081342F0E
:102CE00037708230B1F4822F90E0032E02C09595A8
:102CF00087950A94E2F780958170811114C081E074
:102D000090E001C0880F3A95EAF78095822380838E
:102D10000895833091F71C968C918170642760959B
:102D200061708613ECCF81E090E001C0880F3A9586
:102D3000EAF7822BECCF8F929F92AF92BF92CF9205
:102D4000DF92EF92FF920F931F93CF93DF937C015B
:102D5000162FD42EC22F81E0C82EC21AB22EB194E3
:102D6000BB0CD0E0802F8470A82E802F8270982E0C
:102D7000802F8870882E0170C7FC04C0C150B394A6
:102D8000B394CB0CDF5F8D2F880F8F5FC80EAA2006
:102D900071F04D2D4C0F612F6D0FC7010E9457161A
:102DA0004D2D4D0F6C2F610FC7010E9457169920B2
:102DB00071F04D2D4C1B612F6D0FC7010E945716EE
:102DC0004D2D4D1B6C2F610FC7010E945716882097
:102DD00071F04D2D4D0F612F6C1BC7010E945716CE
:102DE0004D2D4C0F612F6D1BC7010E9457160023FC
:102DF00071F04D2D4D1B612F6C1BC7010E945716A2
:102E00004D2D4C1B612F6D1BC7010E945716DC17FF
:102E10000CF4B2CFDF91CF911F910F91FF90EF9003
:102E2000DF90CF90BF90AF909F908F900895EF92DA
:102E3000FF920F931F93CF93DF938C01F62ED42F25
:102E4000E22EC0E0CE1544F46F2D6C0F4D2FC8015B
:102E50000E945716CF5FF6CFDF91CF911F910F9150
:102E6000FF90EF900895DF92EF92FF920F931F93E0
:102E7000CF93DF937C01D62FD22EC42F002E000CCF
:102E8000110B040F111D47FD1A958C2F0C2E000CF1
:102E9000990B8017910744F42D2D4C2F6D2FC701EE
:102EA0000E941717CF5FF1CFDF91CF911F910F9144
:102EB000FF90EF90DF9008954F925F926F927F9214
:102EC0008F929F92AF92BF92CF92DF92EF92FF923A
:102ED0000F931F93CF93DF93EC016A3049F42E8157
:102EE00098858A85299F800D11248A871986A6C016
:102EF0006D3009F4A3C0898483E588150CF487C07C
:102F0000DA848FE28D150CF482C01E812F8121504E
:102F1000330B129FC001139F900D1124880D911D3A
:102F200087FC9A95181619060CF071C028858D2D0E
:102F30000D2C000C990B129F800D911D1124181659
:102F400019060CF064C07F84C82C912CE62EF12C5D
:102F5000292D092C000C330B8F8190E0281739079D
:102F60000CF054C00197E0E02817390771F0E89E93
:102F7000F001E99EF00DF89EF00D11242E0F3F1F79
:102F8000ED85FE85E20FF31FE4915D2C612C492C49
:102F9000480C2885862D062C000C990B281719063D
:102FA00091F18CF1AE2EB12CE0FF16C0113061F41E
:102FB000462D4D0D642DCE010E945716F501F59555
:102FC000E7956394510EE5CF012F212F452D6C2DF0
:102FD000CE010E943317F2CF88899F85891771F33C
:102FE0008F87113041F4462D4D0D642DCE010E9486
:102FF00057167F86E3CF012F212F452D6C2DCE0153
:103000000E943317F6CF9394C10EA2CF7F862E81F4
:103010003F818985239F800D112489879D81992374
:1030200069F0082E000C990B44E550E0239F4019ED
:1030300051091124481759070CF452CF81E090E050
:10304000DF91CF911F910F91FF90EF90DF90CF9084
:10305000BF90AF909F908F907F906F905F904F90B8
:1030600008950F931F93CF93DF938C01D0E0C0E0BE
:10307000F801EC0FFD1F6491662341F08AE395E0AF
:103080000E945C17892B11F02196F2CFCE01DF91BF
:10309000CF911F910F910895EF92FF920F931F937D
:1030A000CF93DF938C01D62FF42EE22EC0E0CE1505
:1030B00044F44F2D4C0F6D2FC8010E945716CF5F5F
:1030C000F6CFDF91CF911F910F91FF90EF90089570
:1030D0008F929F92AF92BF92CF92DF92EF92FF9228
:1030E0000F931F93CF93DF93082FB62E942EA22E0B
:1030F00083E0F82ED0E0C3E09AEFE92E1EEFCC2457
:10310000C394C20EDF5F1F0D2C2F220F4B2D4C1BC3
:103110008A2C8F0CDB2CDD1A81E02C0D602F98128D
:1031200018C06D0F8AE395E00E944C18282D4D2D94
:103130006C2F600F8AE395E00E944C18DC179CF41A
:1031400017FD04C0C150E394E3941E0DF394F3946F
:10315000D9CF6D1B8AE395E00E944C18282D4D2D88
:10316000602F6C1BE7CFDF91CF911F910F91FF90E4
:10317000EF90DF90CF90BF90AF909F908F90089589
:103180009F92AF92BF92CF92DF92EF92FF920F93F6
:103190001F93CF93DF93EC01B62E142FD22EAE2CBB
:1031A000AA0C922E9A18CE2CC60E292D6C2D0E9498
:1031B0001717FF24FA94F00EF10E292D4F2D6C2DC8
:1031C000CE010E9417170A191E0D202F412F6B2DBB
:1031D000CE010E944C18DB0C6FEF6D0D202F412F9C
:1031E000CE010E944C1801E02E2D412F6C2DCE01F6
:1031F0000E949B168E2D8095D80E02E02E2D412F19
:103200006D2DCE010E949B16FE1804E02E2D4F2D31
:103210006D2DCE010E949B1608E02E2D4F2D6C2D9A
:10322000CE010E949B16DF91CF911F910F91FF90CD
:10323000EF90DF90CF90BF90AF909F9008958EBD9C
:1032400000000DB407FEFDCF8EB508950F931F93B8
:10325000CF93DF93482F90918302292F260F332796
:10326000331FC9012091F00156E0259F90011124E0
:10327000821793070CF05FC020918202240F33273E
:10328000331F4091EF01042F10E0459FA00111244E
:10329000241735070CF04FC0C6E0D0E0BE010E94F5
:1032A000A029609FF001619FF00D709FF00D112427
:1032B000C901BE010E94A029E60FF71FCF010396A6
:1032C000E091ED01F091EE01E80FF91F849191E09A
:1032D00020918901281390E020918402922B9093F1
:1032E000840220918801281738F5911125C0682F94
:1032F000621B770BAB01440F551F20918601309163
:103300008701240F351F3093870120938601809316
:10331000880120917E02E2EFF1E032E0291761F0AE
:10332000A191B19112964C911297413011F41296DD
:103330003C939F5FF3CF80E0DF91CF911F910F917E
:10334000089510928102E0918601F09187018491A5
:10335000809382023196E491E093830290917E0201
:10336000E2EFF1E080E0981759F0A191B191129647
:103370002C911297223011F012961C928F5FF3CF8E
:103380000895089590E080E00895FB0101900020E9
:10339000E9F73197AF01461B570B0C94A0128F929F
:1033A0009F92AF92BF920F931F93CF93DF93CDB7AE
:1033B000DEB7A1970FB6F894DEBF0FBECDBF19A23E
:1033C000423008F44AE08E010F5D1F4F842E912C8D
:1033D000B12CA12CA50194010E947229E62FB901FC
:1033E000CA01EA3004F5E05DD801EE938D01232B8C
:1033F000242B252B79F790E080E0109729F0BD0170
:103400008AE395E00E94C519A1960FB6F894DEBF35
:103410000FBECDBFDF91CF911F910F91BF90AF90A5
:103420009F908F900895E95CDFCFCF93DF930E9448
:103430003118EC0168E671E08AE395E00E94C51955
:103440008C0F9D1FDF91CF910895EF92FF920F9304
:103450001F93CF93DF934091610550916205609176
:103460006305709164052FB7F8948091980490914A
:103470009904A0919A04B0919B042FBF481B590B4B
:103480006A0B7B0B8091600590E0B0E0A0E00091BA
:10349000590510915A0520915B0530915C05841700
:1034A0009507A607B70708F04EC0011511052105BD
:1034B000310509F448C02FB7F89480919804909191
:1034C0009904A0919A04B0919B042FBF20916005AC
:1034D000820F911DA11DB11D80936105909362051E
:1034E000A0936305B09364058091510590915205B6
:1034F000A0915305B09154050196A11DB11D809373
:10350000510590935205A0935305B0935405109222
:10351000590510925A0510925B0510925C050E94A5
:10352000E713609355057093560580935705909364
:1035300058050E94831381E0DF91CF911F910F9175
:10354000FF90EF900895012B022B032B09F012C17D
:1035500080911105882331F080911205811102C0FC
:103560000E94EC1480911205882309F43EC08091DA
:10357000260581113AC080911E0590911F05E091AA
:103580002305F0912405EE0FFF1FE80FF91F259189
:1035900034912115310509F444C1A9015695479587
:1035A00056954795842F20FDE7C08F73809325059E
:1035B00080911505839F802D1124809326051092FC
:1035C0003605109235051092340581E08093280568
:1035D00080939704109229058091230590912405EA
:1035E00001969093240580932305809128058823D4
:1035F00041F080912605811130C181E195E00E9462
:10360000C31480916505882309F450C0CCE0C81B21
:103610008C3008F0C0E0FF24F394F0924005109243
:10362000490510924A05D09142051C2F1D1B03E04D
:103630000D0F4DE2410F2EE463E08AE395E00E9416
:103640003317D450105D2D2F41E0612F80E50E948B
:1036500068182D2F42E0612F83E00E946818F092D5
:103660004905F0924A058091420503E0080F4C2F6E
:10367000481B435D83E0E82E24E560E08AE395E0A3
:103680000E94C01884E08093430580914205C81BC6
:10369000C15DC093440580916605909167050E94C5
:1036A00031188091650581508093650580914605AC
:1036B0008F5F809346050BE912E0C0E00E94BE10C8
:1036C00082E20E941F19CF5F8C2F0E941F1987E092
:1036D0000E941F1981E20E941F1986E10E941F1992
:1036E0008FE70E941F19E0914D05F0914E058081F2
:1036F00090915005892B8083E0914B05F0914C050A
:10370000908180914F058095892380837801D0E056
:10371000D7018D917D010E941F19DF5FD435C1F75C
:103720000C5A1F4FC63051F680913E0581110EC0D4
:10373000EBE9F2E088EF91E0DF019C011D9221505E
:103740003040E1F710924305109244050E94E713C0
:103750006093590570935A0580935B0590935C05BF
:103760002091550530915605621B730B70935E05D1
:1037700060935D0580E0E0CEC901E6E0969587950F
:10378000EA95E1F78F71932F9695969596959051BE
:103790004F70423099F1D0F4442309F43CC04130D9
:1037A000B9F1E0912305F09124053196F0932405B9
:1037B000E0932305CF01880F991FE0911E05F0913A
:1037C0001F05E80FF91F25913491E7CE433061F0D2
:1037D000443039F720911505289F802D11248093BE
:1037E0002E0590932F05DDCF20911505289F802D64
:1037F000112480932C0590932D05D3CF209115058E
:10380000289F802D112480932A0590932B05C9CFE2
:103810000E94DF10C6CF8B3008F08AE08093270526
:10382000C0CF20912205211112C010921205809163
:103830001105811105C081E195E00E94C314D5CE28
:103840000E94EC148091230590912405B4CF10922E
:10385000240510922305FC01B6CF815080932605E4
:1038600080913605811142C0209134053091350593
:103870002F5F3F4FC901880F991FE0913005F091EC
:103880003105E80FF91F85919491482F47704093B7
:103890003705492F4695469540933805AC0164E0BD
:1038A000569547956A95E1F74F7390911505499F95
:1038B000402D11244093360583FB882780F980939F
:1038C000960430933505209334058091320590E0BD
:1038D0002817390758F020913305222309F492C0A4
:1038E000821B9109909335058093340580913605AC
:1038F0008150809336058091290531E0380F30934F
:1039000029054091250520913805240F80911D053A
:10391000280F2093130560912C05662371F070E049
:10392000832F032E000C990B0E94A02980912D0556
:10393000869F200D1124209313058091130590E09C
:10394000CB966BE370E00E94A02980931305209131
:1039500027052093140560912A05662381F0062E21
:10396000000C770B832F032E000C990B0E94A029CB
:1039700080912B05869F200D1124209314056091C2
:103980002E056623A1F0832F330F990B70E00E9460
:10399000A029CB0162E070E00E94A02920912F05B0
:1039A00090911405289F900D1124909314054F3386
:1039B00071F1809114058A300CF089E087FD80E078
:1039C00080931405F894E0911305F0E0E058FF4D62
:1039D000E491E09395048091160590913905899FB3
:1039E000802D112490911405899F802D1124909190
:1039F0003705899F802D112480939404809393042C
:103A00007894FFCD81E195E00E94C3146FCF1092AE
:103A10001405D8CFCF93C0E08091EC01C81760F4B3
:103A2000EC2FF0E0EE0FFF1FEF56FE4F80819181EB
:103A30000E94D328CF5FF0CFC0E080917E02C817EC
:103A400060F4EC2FF0E0EE0FFF1FEE50FE4F808190
:103A500091810E94D328CF5FF0CF1092EC01109299
:103A60007E02CF910895EF92FF920F931F93CF9311
:103A7000DF93E091F101F0E0EE0FFF1FE95EFE4FF2
:103A8000C081D181D093EE01C093ED011092EC0181
:103A900010927E02FE01329694919093F00131973C
:103AA00084918093EF01899FC001112403969E01A8
:103AB000280F391F3093870120938601FE01E80FFC
:103AC000F91F24912F3F09F460C08C010F5F1F4F35
:103AD0002491FE01E00FF11F2E3FA9F50F5F1F4F4C
:103AE000F4908AE090E00E943728DC01CE01800F3C
:103AF000911FFC01249130E011963C932E93319656
:103B0000E491F0E01396FC93EE9312971496FC92D6
:103B1000149716969C938E93159718969C938E9354
:103B2000179719961C921997E091EC0181E08E0F7E
:103B30008093EC01F0E0EE0FFF1FEF56FE4FB183D4
:103B4000A083C801BBCF2D3FE1F78C010E5F1F4F53
:103B5000F490FE01E00FF11FE49083E090E00E94FA
:103B60003728DC01FC921196EC92119712961C9268
:103B70001297E0917E0281E08E0F80937E02F0E04A
:103B8000EE0FFF1FEE50FE4FDACFFE01C491C0933F
:103B9000890182E080938801DF91CF911F910F917D
:103BA000FF90EF900C94A1190F93CF93C82F81E051
:103BB00080933E058093490510924A05EBE9F2E0B7
:103BC00088EF91E0DF019C011D9221503040E1F728
:103BD00010924305109244056BE671E08AE395E08C
:103BE0000E94C51966E771E08AE395E00E94C51955
:103BF00080E2809343058CE080934405CA3030F422
:103C000064E871E08AE395E00E94C5196C2F70E0CA
:103C100090E080E04AE00E94CF198C2F90E00F9650
:103C20000E945C29C82F1092490510924A050AE0AB
:103C30002AE04BE060E38AE395E00E94331705E059
:103C400020E348E160E08AE395E00E94331781E0D9
:103C50008093490580934A052EE13EE1CC2311F083
:103C600027E23EE14BE060E38AE395E0CF910F91DC
:103C70000C941715CF92DF92EF92FF920F931F9340
:103C8000CF93DF93C82F0E940A1DCC2309F4C7C02D
:103C900080915F05882309F4B8C01092040581E083
:103CA0008093400510923F0510923E058093490590
:103CB00080934A05CBEFDCE11CE00E94251A8823A3
:103CC000E1F3FE0104910111009142052BE83CE172
:103CD00040E060E08AE395E00E9417154CE0400F59
:103CE0002CEF3CE160E08AE395E00E94171510920A
:103CF0004305109344058BEF9CE10E94311880919D
:103D00004105982F990F990F891B8D5A8093430570
:103D100080914205982F990F990F891B835D80939D
:103D200044058091510584FF92C087E89CE10E9480
:103D3000151A80914105982F990F990F891B8D5A5B
:103D400080934305809144058F5F80934405809163
:103D50001605882309F47EC08FE79CE10E94151A9E
:103D600080914105982F990F990F891B8D5A809347
:103D70004305809144058F5F8093440587E79CE16C
:103D80000E94151A809102058130A9F480911605D0
:103D90008F5F082E000C990B6091170570E06F5F24
:103DA0007F4F0E94A029809316056DEF7FE181E18E
:103DB00095E00E94D414809101058130B9F0809182
:103DC0005F05482F50E070E060E0C0905105D09052
:103DD0005205E0905305F0905405C416D506E6064A
:103DE000F70608F46ACF8F3F09F467CF8FEF80930F
:103DF0005F0581E195E00E94C314109212056DEEFB
:103E00007FE181E195E00E94D4141092040582E3E1
:103E10008093600581E08093150510923E05C09166
:103E2000F101CF5F8C2F0E94D41D0E94251A882398
:103E3000E1F380910305813081F4C150C093F10119
:103E40001092800210927F020E940A1D21CF83E807
:103E50009CE16DCF8BE79CE181CF8091FF048130A5
:103E600039F4CF5FC73108F0C6E18C2F0E94D41D12
:103E70008091FD04813031F4C15009F4C1E08C2FF0
:103E80000E94D41D80910105813079F6C1501092B5
:103E9000800210927F02C631B8F6C093F101DF9123
:103EA000CF911F910F91FF90EF90DF90CF900C94E6
:103EB000331D1F920F920FB60F9211248F939F9371
:103EC0008091E1009091E100937F9093E10083FF66
:103ED0000FC01092E90091E09093EB001092EC007B
:103EE00092E39093ED0010929A0298E09093F00084
:103EF00082FF22C093E09093E9009091F200992311
:103F000019F09AE39093E80090918B02992341F085
:103F100090918B02915090938B02911101C05D9A08
:103F200090919902992341F0909199029150909328
:103F30009902911101C0289A84FF18C08091E20073
:103F40008E7E81608093E2008091E1008F7E80937D
:103F5000E10080918C028E7E806180938C029F9123
:103F60008F910F900FBE0F901F90189580FFF7CF85
:103F70008091E2008E7E80618093E2008091E1007A
:103F80008E7E8093E10080918C028E7E8160E5CFF1
:103F90001F920F920FB60F921124CF92DF92EF92E1
:103FA000FF920F931F932F933F934F935F936F93C2
:103FB0007F938F939F93AF93BF93EF93FF93CF9391
:103FC000DF93CDB7DEB76C97DEBFCDBF1092E900AF
:103FD0008091E80083FF25C068E0CE0145960E94ED
:103FE000931282EF8093E8008D8987FF39C090910A
:103FF000E80090FFFCCF982F907609F034C19E899D
:104000004F89588D2F89F88C911131C0803861F516
:1040100080918A028093F1001092F1008EEF8093DC
:10402000E8006C960FB6F894DEBF0FBECDBFDF91EF
:10403000CF91FF91EF91BF91AF919F918F917F9120
:104040006F915F914F913F912F911F910F91FF9031
:10405000EF90DF90CF900F900FBE0F901F901895AC
:104060009EEF9093E800C7CF1092F100D5CF91302A
:1040700059F48111D3CF4130510581F680918A02E4
:104080008D7F80938A02CACF933049F48111C6CFC5
:104090004130510519F680918A028260F2CF953045
:1040A00041F48091E80080FFFCCF20682093E3007A
:1040B000B5CF963009F0A9C00B8D1C8D22E010926F
:1040C000E9001092880210928702F2122EC010921C
:1040D0008602109285020E9462121F8299E09983E3
:1040E000FA8291E09E8390EA98879AEF99872091CF
:1040F000870230918802275F3F4F3C832B838D835B
:104100001092E900109288021092870210938602A2
:104110000093850249E050E0BE016F5F7F4F80E071
:104120000E943C120E94621279CF10938602009383
:1041300085020E944611DC0112960D911C91011519
:10414000110509F451C1D801ED91FC910480F5816C
:10415000E02DBE016B5E7F4FC8010995009709F005
:104160003EC1F80100851185EACFF3E0FF120EC0D1
:104170008F89882309F440C0823061F440E860E10F
:104180008FE690E20E940912811148CF81E280936C
:10419000EB0047CF813029F440E86BE083E690E202
:1041A000F1CF833099F70E944611DC011296ED9011
:1041B000FC908E010F5F1F4F6801E114F10479F04C
:1041C000D701ED91FC910680F781E02DB801C70180
:1041D0000995080F111DF701E084F184EECFD80195
:1041E0001C92F60101900020E9F73197BF016C198C
:1041F0007D0940E0C601C6CF6DE470E2FB01449149
:1042000050E080E80E943C1209CF973009F4BECFFD
:10421000983021F481E08093F10000CF993009F0CB
:10422000FDCE837009F0B2CFE4E4F1E081E031E04B
:1042300096E32191222371F08093E9003093EB0003
:10424000DF0111972C912093EC009093ED008F5F8C
:10425000873079F78EE78093EA001092EA008F8921
:1042600080939A02DBCE8B8D9C8D1092E900109288
:104270008802109287029093860280938502898D2E
:10428000811192C08E899D89913A49F4813209F059
:104290007DCF47E050E069E071E080E0B3CF91323C
:1042A00009F074CF833269F48F89988DB0E0A0E073
:1042B0008093050190930601A0930701B093080134
:1042C000ADCE803269F48091E80082FFFCCF67E0D8
:1042D00089E091E00E9493128BEF8093E8009ECEDC
:1042E000823209F09BCE8F8980931001EEEFFFE7B9
:1042F000859194918B3F9C4D51F1E0E0F8E08091E5
:10430000090190910A01A0910B01B0910C01803B31
:104310009440A105B105F1F48091100180FD1AC00F
:10432000EE3F8AE0F80789F587E797E79183808376
:10433000809160008093890288E19BE00FB6F89439
:10434000A895809360000FBE9093600067CEEEEF5B
:10435000FAE0D5CF808191818737974709F05ECE0B
:10436000A8958091600088618093600080918902A7
:1043700080936000EE3F2AE0F20789F08091FE0A08
:104380009091FF0A9183808349CE80819181873704
:10439000980751F29093FF0A8093FE0AC5CF1092BE
:1043A000FF0A1092FE0A3ACE0E944611DC011296D4
:1043B0000D911C910115110509F4E8CED801ED917C
:1043C000FC910190F081E02DBE016B5E7F4FC80132
:1043D0000995811123CEF80100851185EBCF1816C0
:1043E00019060CF41BCED2CEF1E0FF12BECE61E571
:1043F00070E204CF1F920F920FB60F9211242F93E9
:104400003F938F939F93AF93BF9380919804909124
:104410009904A0919A04B0919B0430918B0123E000
:10442000230F2D3758F50196A11DB11D20938B0147
:104430008093980490939904A0939A04B0939B045A
:1044400080918C0190918D01A0918E01B0918F018E
:104450000196A11DB11D80938C0190938D01A093B5
:104460008E01B0938F01BF91AF919F918F913F913A
:104470002F910F900FBE0F901F90189526E8230FD5
:104480000296A11DB11DD2CF1F920F920FB60F92AF
:1044900011242F936F937F938F939F936091940434
:1044A000662361F180918A018F5F80938A019091E8
:1044B0009504891718F12091970481E0282720930B
:1044C000970410928A0180919604882369F0809164
:1044D000000193E4899F802D1124895B8093000162
:1044E0000E9494299093930480919304211101C018
:1044F00080E090E090939900809398009F918F9135
:104500007F916F912F910F900FBE0F901F90189574
:10451000ECE9F4E01382128288EE93E0A0E0B0E0D0
:1045200084839583A683B7838EE491E0918380830F
:104530008FEF9FEF9587848710923D0510923C0581
:1045400080E691E090933B0580933A050895CF93E0
:10455000DF9300D000D0CDB7DEB7789484B5826009
:1045600084BD84B5816084BD85B5826085BD85B517
:10457000816085BD80916E00816080936E00109295
:104580008100809181008260809381008091810010
:1045900081608093810080918000816080938000A1
:1045A0008091910082608093910080919100816060
:1045B0008093910080919000816080939000809121
:1045C000C10084608093C1008091C10082608093AB
:1045D000C1008091C10081608093C1008091C300BF
:1045E00081608093C3008091C00082608093C0008E
:1045F0008091C20081608093C20080917A008460C3
:1046000080937A0080917A00826080937A00809112
:104610007A00816080937A0080917A00806880932C
:104620007A0010929A0210928A0210928C02809163
:10463000D70081608093D70080EA8093D80089B545
:10464000806189BD89B5826089BD09B400FEFDCF56
:1046500061E070E080E090E00E940C148091D8004E
:104660008F7C80618093D8008091E000807F809370
:10467000E0008091E1008E7E8093E1008DE08093E8
:10468000E200559A209A82E38093600581E090E0F1
:10469000A0E0B0E08093590590935A05A0935B0584
:1046A000B0935C0521E020931705209316058FEF4A
:1046B00080935F0584E18093F60482E18093F704A0
:1046C00083E18093F80485E18093F90487E0809387
:1046D000FA0488E08093FB041092FC040E94831388
:1046E00031E03093490510924A0530933F053093ED
:1046F0004005EDE5FEE1E491EF5FE0934105EEE575
:10470000FEE1E491EF5FE09342058FE59EE1909337
:104710004805809347054FB74983F89480919001ED
:10472000811127C0EAEDF0E28491E9EFF0E2949183
:10473000E82FF0E0EE0FFF1FEC5CF14EA591B49175
:10474000EC91E92321F461E081E10E94191361E019
:1047500081E10E9447138CB580618CBD8CB580646B
:104760008CBD61E08FE00E94471361E080E10E9410
:104770004713809190018F5F8093900159815FBFB3
:104780008CB58C7F8CBD8DB581608DBD61E084E082
:104790000E94471361E08CE00E94471361E086E0CD
:1047A0000E94471361E086E00E94191361E070E007
:1047B00080E090E00E940C1460E086E00E941913F3
:1047C0006AE070E080E090E00E940C1461E086E016
:1047D0000E941913E5EDF0E2E491F0E0EE0FFF1F07
:1047E000E15BF14E8591949190934C0580934B053C
:1047F000EDECF0E2E491F0E0EE0FFF1FE15BF14E33
:104800008591949190934E0580934D05E4EFF0E2ED
:10481000E491E0934F05ECEEF0E2E491E093500573
:104820000E94BE1082E49EE19A8389830FE41EE118
:10483000E981FA8184910E941F1929813A812F5FB1
:104840003F4F3A8329830217130791F7E0914D05F3
:10485000F0914E05808190915005892B8083E091E5
:104860004B05F0914C05908180914F0580958923EF
:10487000808340E054E05A83498380E00E941F19FE
:1048800089819A8101979A838983892BB1F781E085
:104890008093150584E08093390580E39EE1909331
:1048A00021058093200580E00E94DF1061E085E013
:1048B0000E94471361E08DE00E94471361E085E0AC
:1048C0000E944713ECE0F1E2E491E150EF3008F090
:1048D000ACC1F0E0E259FB4D0C94B4297D24A22533
:1048E000A825B425C025152615261526CC25D8259E
:1048F000E425F025FE251526072684B5806884BDAD
:1049000081E087BD80919100887F816080939100D4
:10491000F8941092800010928100109285001092FD
:10492000840088E191E090938900809388008091D1
:1049300081008860809381008091810081608093F4
:10494000810080916F00826080936F0078948091E5
:104950000205813009F06EC11092160581E00E94B7
:104960003A1E11E00E94251A882309F440C31092D0
:1049700084028091FE0481508E3F80F490918302E6
:104980009983892F81508093830260E080E00E94A8
:104990002619811156C1E981E093830280910005B7
:1049A00081508E3F80F4F0918302F9838F2F8F5FC7
:1049B0008093830263E080E00E942619811149C13F
:1049C0002981209383028091FD0481508E3F80F4E1
:1049D000309182023983832F81508093820260E07C
:1049E00080E00E94261981113CC1498140938202D6
:1049F0008091FF0481508E3F80F450918202598350
:104A0000852F8F5F8093820260E083E00E942619E9
:104A100081112FC189818093820270908202E72DDB
:104A2000F0E0FC83EB8380910301909104019F01EE
:104A3000280F391F243131052CF40196909304017D
:104A40008093030180910301909104012B813C81AB
:104A5000280F391F213431052CF001979093040160
:104A60008093030190908302C92CD12C8091010185
:104A7000909102019601280F391F2A3031052CF43C
:104A80000196909302018093010180910101909120
:104A900002019601280F391F273231052CF00197AA
:104AA000909302018093010148EF51E06FEF7FEF97
:104AB0008BE992E00E94CE291092490510924A0596
:104AC000B12C8091F001B81608F0E7C0F6E0BF9E67
:104AD00070011124A12C8091EF016091030170916C
:104AE00004014091010150910201A81608F0D3C0C1
:104AF000EA2DF0E0B89EE00DF11D1124CF010396E0
:104B0000E091ED01F091EE01E80FF91FE49126E04C
:104B1000A29E600D711D1124CB0104968B35910569
:104B200078F44E0D5F1DCA0104968934910540F456
:104B3000E13009F0A6C006E08AE395E00E94331751
:104B4000A394C9CF84B5806284BD81E088BDDACEEC
:104B50008091800080688093800081E090E0909355
:104B6000890080938800CECE8091800080628093FF
:104B7000800081E090E090938B0080938A00C2CE09
:104B80008091800088608093800081E090E0909325
:104B90008D0080938C00B6CE8091900080688093C9
:104BA000900081E090E09093990080939800AACEC5
:104BB0008091900080628093900081E090E09093DB
:104BC0009B0080939A009ECE809190008860809395
:104BD000900081E090E090939D0080939C0092CEA5
:104BE0008091C00080688093C0008091C0008F7B5E
:104BF0008093C00081E08093CF0084CE8091C0007C
:104C000080628093C00081E08093D0007BCE809151
:104C1000C20088608093C2008091C2008B7F809325
:104C2000C20081E08093D2006DCE60E085E00E94FA
:104C3000191368CE6FED7FE181E195E00E94D414F5
:104C40008DCE60E083E00E942619882309F4A3CE6C
:104C5000A5CE63E083E00E942619882309F4B0CE34
:104C6000B2CE63E080E00E942619882309F4BDCE0D
:104C7000BFCE63E083E00E942619882309F4CACEE0
:104C8000CCCEEE2309F45CCF23E030E28AE395E05A
:104C90000E94171555CFB39414CFA0900101B09086
:104CA0000201E92CEA0C8090030190900401780C39
:104CB00041E04E0D61E0670D02E022E08AE395E0FD
:104CC0000E9433171093490510934A0524E04E2D96
:104CD000672D8AE395E00E94171743E04E0D24E00C
:104CE000672D8AE395E00E94171724E04E2D672D6B
:104CF0008AE395E00E944C1863E0670D24E04E2D96
:104D00008AE395E00E944C18512C4B815C814C5FEA
:104D10005F4F5A834983160154E0250E311C809160
:104D2000EC01581608F0C5C0E52DF0E0EE0FFF1FAE
:104D3000EF56FE4FA081B1818091EB01811150C0EF
:104D40001496FC901497FF2009F44AC06D917C9151
:104D5000119715964D915C911697FA01249130E0C8
:104D60003196E491F0E0621773070CF07AC06F0D92
:104D7000711D261737070CF471C011967C936E9342
:104D800012966D917C9113976E177F070CF07EC081
:104D90006F0D711DE617F7070CF474C013967C9322
:104DA0006E9312976D917C91119726173707C1F476
:104DB00012962D913C9113972E173F0789F4FA0113
:104DC00032961696FC93EE931597E491ED3F40F0E2
:104DD00017968D919C91189716969C938E93159784
:104DE00012966D907C901397ED90FC90C7010496FD
:104DF0002B813C81281739077CF449815A81E416BC
:104E0000F50654F4C3010496C816D9062CF46214AE
:104E1000730414F410938102E80CF91CC701049682
:104E20008B359105C8F46A0C7B1CC3010496893448
:104E3000910590F441E0460D02E024E06E2D8AE3F6
:104E400095E00E94331761E06E0D04E022E0462DEC
:104E50008AE395E00E943317539461CF11963C93F7
:104E60002E936D917C911197261737070CF088CF00
:104E70006F197109621773070CF07FCF11963C937D
:104E80002E937ECF1396FC93EE93129712966D910C
:104E90007C911397E617F7070CF084CF6F1971090F
:104EA0006E177F070CF07ACF1396FC93EE93129750
:104EB00079CFF12C2B803C8054E0250E311C36013B
:104EC00084E0680E711C80917E02F81608F049C0DB
:104ED000EF2DF0E0EE0FFF1FEE50FE4F40805180AF
:104EE000F201828181113BC0808190E09C012C5FA6
:104EF0003F4F4B815C8142175307B4F482159305F1
:104F00009CF4818190E09C012C5F3F4FC216D30638
:104F10005CF48615970544F451E052836DEF7FE110
:104F200081E195E00E94D414F2016081680D792D31
:104F3000711DCB0104968B35910588F441814A0D92
:104F40005B2D511DCA0104968934910540F4EE246D
:104F5000E39404E024E08AE395E00E94C018F3940F
:104F6000B2CF109343051093440510924905109356
:104F70004A05C0907F02D09080020D2C000CEE08F4
:104F8000FF084AE0C701B601F7FE0DC06DE28AE3F3
:104F900095E00E945C1766277727CB016C197D0985
:104FA0008E099F094AE00E94CF198091EB01F1E040
:104FB0008F278093EB0180918102882301F18091FA
:104FC0007F029091800201969093800280937F02ED
:104FD00065EF7FE181E195E00E94D4140E94A11960
:104FE00080910305813019F480E00E943A1E20E090
:104FF00030E0232B09F4B6CC0E940000B3CC8091A2
:105000008402882369F330917E02E2EFF1E090E0C0
:10501000391759F0A191B19121E012964C914111AB
:1050200001C020E082239F5FF3CF8823C9F26DEE99
:105030007FE181E195E00E94D4148091F10190E03C
:1050400061E040960E9464290E940A1D8091F1014E
:1050500091E0980F9093F101963130F08093F10137
:1050600080E00E943A1EBCCF0E94331DB9CF0F933F
:105070001F93CF93DF938230910510F482E090E08C
:10508000E0916A05F0916B0530E020E0B0E0A0E02F
:10509000309799F42115310509F44AC0281B390BC2
:1050A00024303105D8F58A819B816115710589F11C
:1050B000FB0193838283FE0111C0408151810281F3
:1050C000138148175907E0F04817590799F41097CA
:1050D00061F012960C93129713961C933296CF019F
:1050E000DF91CF911F910F91089500936A0510935E
:1050F0006B05F4CF2115310551F04217530738F0F5
:10510000A901DB019A01BD01DF01F801C1CFEF0167
:10511000F9CF90936B0580936A05CDCFFE01E20F26
:10512000F31F819391932250310939832883D7CF7C
:105130002091680530916905232B41F420911301DA
:105140003091140130936905209368052091110175
:10515000309112012115310541F42DB73EB7409130
:10516000150150911601241B350BE0916805F09153
:105170006905E217F307A0F42E1B3F0B2817390728
:1051800078F0AC014E5F5F4F2417350748F04E0FA3
:105190005F1F5093690540936805819391939FCF5A
:1051A000F0E0E0E09CCFCF93DF930097E9F0FC01C3
:1051B000329713821282A0916A05B0916B05ED01BE
:1051C00030E020E01097A1F420813181820F931FFD
:1051D00020916805309169052817390709F061C0E9
:1051E000F0936905E0936805DF91CF910895EA0196
:1051F000CE17DF07E8F54A815B819E014115510515
:10520000B1F7E901FB83EA8349915991C40FD51F96
:10521000EC17FD0761F4808191810296840F951F40
:10522000E90199838883828193819B838A83F0E05B
:10523000E0E012968D919C9113970097B9F52D910E
:105240003C911197CD010296820F931F2091680522
:10525000309169052817390739F6309751F51092C2
:105260006B0510926A05B0936905A0936805BCCFE1
:10527000D383C28340815181840F951FC817D907FA
:1052800061F44E5F5F4F88819981480F591F5183A8
:1052900040838A819B81938382832115310509F0A4
:1052A000B0CFF0936B05E0936A059ECFFD01DC0162
:1052B000C0CF13821282D7CFF999FECF92BD81BDA4
:1052C000F89A992780B50895262FF999FECF1FBA2D
:1052D00092BD81BD20BD0FB6F894FA9AF99A0FBE1F
:1052E00001960895A1E21A2EAA1BBB1BFD010DC059
:1052F000AA1FBB1FEE1FFF1FA217B307E407F50786
:1053000020F0A21BB30BE40BF50B661F771F881F61
:10531000991F1A9469F760957095809590959B01F7
:10532000AC01BD01CF010895991B79E004C0991F1C
:10533000961708F0961B881F7A95C9F780950895EF
:1053400097FB072E16F4009407D077FD09D00E9432
:10535000BA2907FC05D03EF4909581959F4F08959A
:10536000709561957F4F0895EE0FFF1F0590F491A2
:10537000E02D0994AA1BBB1B51E107C0AA1FBB1F4C
:10538000A617B70710F0A61BB70B881F991F5A95D1
:10539000A9F780959095BC01CD010895DC0101C06D
:0E53A0006D9341505040E0F70895F894FFCF10
:1053AE000106000600FFFFFFFF00E1000000000005
:1053BE000000006C058000E51B281B8D1AA319D672
:1053CE00187717A516F315AD145B13551212116C41
:1053DE000F630E700DC60B5C0AE60889066704099A
:1053EE0003AC0000C18081000000000000005A11D3
:1053FE003E147B117011C1117F119D110000000030
:10540E005C17A012C219C1190D0A004C6576656CA5
:10541E00204D656E75000A0A4C6576656C2020116C
:06542E0020201000200008
:00000001FF
